{
	"钱包合约/Wallet.sol": {
		"Wallet": {
			"abi": [
				{
					"inputs": [],
					"stateMutability": "nonpayable",
					"type": "constructor"
				},
				{
					"inputs": [],
					"name": "getBalance",
					"outputs": [
						{
							"internalType": "uint256",
							"name": "",
							"type": "uint256"
						}
					],
					"stateMutability": "view",
					"type": "function"
				},
				{
					"inputs": [],
					"name": "owner",
					"outputs": [
						{
							"internalType": "address payable",
							"name": "",
							"type": "address"
						}
					],
					"stateMutability": "view",
					"type": "function"
				},
				{
					"inputs": [
						{
							"internalType": "uint256",
							"name": "amount",
							"type": "uint256"
						}
					],
					"name": "withdraw",
					"outputs": [],
					"stateMutability": "payable",
					"type": "function"
				},
				{
					"stateMutability": "payable",
					"type": "receive"
				}
			],
			"devdoc": {
				"kind": "dev",
				"methods": {},
				"version": 1
			},
			"evm": {
				"assembly": "    /* \"\\xe9\\x92\\xb1\\xe5\\x8c\\x85\\xe5\\x90\\x88\\xe7\\xba\\xa6/Wallet.sol\":60:699  contract Wallet {... */\n  mstore(0x40, 0x80)\n    /* \"\\xe9\\x92\\xb1\\xe5\\x8c\\x85\\xe5\\x90\\x88\\xe7\\xba\\xa6/Wallet.sol\":230:290  constructor() {... */\n  callvalue\n  dup1\n  iszero\n  tag_1\n  jumpi\n  0x00\n  dup1\n  revert\ntag_1:\n  pop\n    /* \"\\xe9\\x92\\xb1\\xe5\\x8c\\x85\\xe5\\x90\\x88\\xe7\\xba\\xa6/Wallet.sol\":271:281  msg.sender */\n  caller\n    /* \"\\xe9\\x92\\xb1\\xe5\\x8c\\x85\\xe5\\x90\\x88\\xe7\\xba\\xa6/Wallet.sol\":255:260  owner */\n  0x00\n  dup1\n    /* \"\\xe9\\x92\\xb1\\xe5\\x8c\\x85\\xe5\\x90\\x88\\xe7\\xba\\xa6/Wallet.sol\":255:282  owner = payable(msg.sender) */\n  0x0100\n  exp\n  dup2\n  sload\n  dup2\n  0xffffffffffffffffffffffffffffffffffffffff\n  mul\n  not\n  and\n  swap1\n  dup4\n  0xffffffffffffffffffffffffffffffffffffffff\n  and\n  mul\n  or\n  swap1\n  sstore\n  pop\n    /* \"\\xe9\\x92\\xb1\\xe5\\x8c\\x85\\xe5\\x90\\x88\\xe7\\xba\\xa6/Wallet.sol\":60:699  contract Wallet {... */\n  dataSize(sub_0)\n  dup1\n  dataOffset(sub_0)\n  0x00\n  codecopy\n  0x00\n  return\nstop\n\nsub_0: assembly {\n        /* \"\\xe9\\x92\\xb1\\xe5\\x8c\\x85\\xe5\\x90\\x88\\xe7\\xba\\xa6/Wallet.sol\":60:699  contract Wallet {... */\n      mstore(0x40, 0x80)\n      jumpi(tag_1, lt(calldatasize, 0x04))\n      shr(0xe0, calldataload(0x00))\n      dup1\n      0x12065fe0\n      eq\n      tag_3\n      jumpi\n      dup1\n      0x2e1a7d4d\n      eq\n      tag_4\n      jumpi\n      dup1\n      0x8da5cb5b\n      eq\n      tag_5\n      jumpi\n      jump(tag_2)\n    tag_1:\n      jumpi(tag_2, calldatasize)\n      stop\n    tag_2:\n      0x00\n      dup1\n      revert\n        /* \"\\xe9\\x92\\xb1\\xe5\\x8c\\x85\\xe5\\x90\\x88\\xe7\\xba\\xa6/Wallet.sol\":589:696  function getBalance() external view onlyOwner returns(uint) {... */\n    tag_3:\n      callvalue\n      dup1\n      iszero\n      tag_8\n      jumpi\n      0x00\n      dup1\n      revert\n    tag_8:\n      pop\n      tag_9\n      tag_10\n      jump\t// in\n    tag_9:\n      mload(0x40)\n      tag_11\n      swap2\n      swap1\n      tag_12\n      jump\t// in\n    tag_11:\n      mload(0x40)\n      dup1\n      swap2\n      sub\n      swap1\n      return\n        /* \"\\xe9\\x92\\xb1\\xe5\\x8c\\x85\\xe5\\x90\\x88\\xe7\\xba\\xa6/Wallet.sol\":370:559  function withdraw(uint amount) external payable onlyOwner {... */\n    tag_4:\n      tag_13\n      0x04\n      dup1\n      calldatasize\n      sub\n      dup2\n      add\n      swap1\n      tag_14\n      swap2\n      swap1\n      tag_15\n      jump\t// in\n    tag_14:\n      tag_16\n      jump\t// in\n    tag_13:\n      stop\n        /* \"\\xe9\\x92\\xb1\\xe5\\x8c\\x85\\xe5\\x90\\x88\\xe7\\xba\\xa6/Wallet.sol\":83:111  address payable public owner */\n    tag_5:\n      callvalue\n      dup1\n      iszero\n      tag_17\n      jumpi\n      0x00\n      dup1\n      revert\n    tag_17:\n      pop\n      tag_18\n      tag_19\n      jump\t// in\n    tag_18:\n      mload(0x40)\n      tag_20\n      swap2\n      swap1\n      tag_21\n      jump\t// in\n    tag_20:\n      mload(0x40)\n      dup1\n      swap2\n      sub\n      swap1\n      return\n        /* \"\\xe9\\x92\\xb1\\xe5\\x8c\\x85\\xe5\\x90\\x88\\xe7\\xba\\xa6/Wallet.sol\":589:696  function getBalance() external view onlyOwner returns(uint) {... */\n    tag_10:\n        /* \"\\xe9\\x92\\xb1\\xe5\\x8c\\x85\\xe5\\x90\\x88\\xe7\\xba\\xa6/Wallet.sol\":643:647  uint */\n      0x00\n        /* \"\\xe9\\x92\\xb1\\xe5\\x8c\\x85\\xe5\\x90\\x88\\xe7\\xba\\xa6/Wallet.sol\":174:179  owner */\n      dup1\n      0x00\n      swap1\n      sload\n      swap1\n      0x0100\n      exp\n      swap1\n      div\n      0xffffffffffffffffffffffffffffffffffffffff\n      and\n        /* \"\\xe9\\x92\\xb1\\xe5\\x8c\\x85\\xe5\\x90\\x88\\xe7\\xba\\xa6/Wallet.sol\":160:179  msg.sender == owner */\n      0xffffffffffffffffffffffffffffffffffffffff\n      and\n        /* \"\\xe9\\x92\\xb1\\xe5\\x8c\\x85\\xe5\\x90\\x88\\xe7\\xba\\xa6/Wallet.sol\":160:170  msg.sender */\n      caller\n        /* \"\\xe9\\x92\\xb1\\xe5\\x8c\\x85\\xe5\\x90\\x88\\xe7\\xba\\xa6/Wallet.sol\":160:179  msg.sender == owner */\n      0xffffffffffffffffffffffffffffffffffffffff\n      and\n      eq\n        /* \"\\xe9\\x92\\xb1\\xe5\\x8c\\x85\\xe5\\x90\\x88\\xe7\\xba\\xa6/Wallet.sol\":152:202  require(msg.sender == owner,\"sender is not owner\") */\n      tag_23\n      jumpi\n      mload(0x40)\n      0x08c379a000000000000000000000000000000000000000000000000000000000\n      dup2\n      mstore\n      0x04\n      add\n      tag_24\n      swap1\n      tag_25\n      jump\t// in\n    tag_24:\n      mload(0x40)\n      dup1\n      swap2\n      sub\n      swap1\n      revert\n    tag_23:\n        /* \"\\xe9\\x92\\xb1\\xe5\\x8c\\x85\\xe5\\x90\\x88\\xe7\\xba\\xa6/Wallet.sol\":667:688  payable(this).balance */\n      selfbalance\n        /* \"\\xe9\\x92\\xb1\\xe5\\x8c\\x85\\xe5\\x90\\x88\\xe7\\xba\\xa6/Wallet.sol\":660:688  return payable(this).balance */\n      swap1\n      pop\n        /* \"\\xe9\\x92\\xb1\\xe5\\x8c\\x85\\xe5\\x90\\x88\\xe7\\xba\\xa6/Wallet.sol\":589:696  function getBalance() external view onlyOwner returns(uint) {... */\n      swap1\n      jump\t// out\n        /* \"\\xe9\\x92\\xb1\\xe5\\x8c\\x85\\xe5\\x90\\x88\\xe7\\xba\\xa6/Wallet.sol\":370:559  function withdraw(uint amount) external payable onlyOwner {... */\n    tag_16:\n        /* \"\\xe9\\x92\\xb1\\xe5\\x8c\\x85\\xe5\\x90\\x88\\xe7\\xba\\xa6/Wallet.sol\":174:179  owner */\n      0x00\n      dup1\n      sload\n      swap1\n      0x0100\n      exp\n      swap1\n      div\n      0xffffffffffffffffffffffffffffffffffffffff\n      and\n        /* \"\\xe9\\x92\\xb1\\xe5\\x8c\\x85\\xe5\\x90\\x88\\xe7\\xba\\xa6/Wallet.sol\":160:179  msg.sender == owner */\n      0xffffffffffffffffffffffffffffffffffffffff\n      and\n        /* \"\\xe9\\x92\\xb1\\xe5\\x8c\\x85\\xe5\\x90\\x88\\xe7\\xba\\xa6/Wallet.sol\":160:170  msg.sender */\n      caller\n        /* \"\\xe9\\x92\\xb1\\xe5\\x8c\\x85\\xe5\\x90\\x88\\xe7\\xba\\xa6/Wallet.sol\":160:179  msg.sender == owner */\n      0xffffffffffffffffffffffffffffffffffffffff\n      and\n      eq\n        /* \"\\xe9\\x92\\xb1\\xe5\\x8c\\x85\\xe5\\x90\\x88\\xe7\\xba\\xa6/Wallet.sol\":152:202  require(msg.sender == owner,\"sender is not owner\") */\n      tag_28\n      jumpi\n      mload(0x40)\n      0x08c379a000000000000000000000000000000000000000000000000000000000\n      dup2\n      mstore\n      0x04\n      add\n      tag_29\n      swap1\n      tag_25\n      jump\t// in\n    tag_29:\n      mload(0x40)\n      dup1\n      swap2\n      sub\n      swap1\n      revert\n    tag_28:\n        /* \"\\xe9\\x92\\xb1\\xe5\\x8c\\x85\\xe5\\x90\\x88\\xe7\\xba\\xa6/Wallet.sol\":523:533  msg.sender */\n      caller\n        /* \"\\xe9\\x92\\xb1\\xe5\\x8c\\x85\\xe5\\x90\\x88\\xe7\\xba\\xa6/Wallet.sol\":515:543  payable(msg.sender).transfer */\n      0xffffffffffffffffffffffffffffffffffffffff\n      and\n        /* \"\\xe9\\x92\\xb1\\xe5\\x8c\\x85\\xe5\\x90\\x88\\xe7\\xba\\xa6/Wallet.sol\":515:551  payable(msg.sender).transfer(amount) */\n      0x08fc\n        /* \"\\xe9\\x92\\xb1\\xe5\\x8c\\x85\\xe5\\x90\\x88\\xe7\\xba\\xa6/Wallet.sol\":544:550  amount */\n      dup3\n        /* \"\\xe9\\x92\\xb1\\xe5\\x8c\\x85\\xe5\\x90\\x88\\xe7\\xba\\xa6/Wallet.sol\":515:551  payable(msg.sender).transfer(amount) */\n      swap1\n      dup2\n      iszero\n      mul\n      swap1\n      mload(0x40)\n      0x00\n      mload(0x40)\n      dup1\n      dup4\n      sub\n      dup2\n      dup6\n      dup9\n      dup9\n      call\n      swap4\n      pop\n      pop\n      pop\n      pop\n      iszero\n      dup1\n      iszero\n      tag_32\n      jumpi\n      returndatasize\n      0x00\n      dup1\n      returndatacopy\n      revert(0x00, returndatasize)\n    tag_32:\n      pop\n        /* \"\\xe9\\x92\\xb1\\xe5\\x8c\\x85\\xe5\\x90\\x88\\xe7\\xba\\xa6/Wallet.sol\":370:559  function withdraw(uint amount) external payable onlyOwner {... */\n      pop\n      jump\t// out\n        /* \"\\xe9\\x92\\xb1\\xe5\\x8c\\x85\\xe5\\x90\\x88\\xe7\\xba\\xa6/Wallet.sol\":83:111  address payable public owner */\n    tag_19:\n      0x00\n      dup1\n      sload\n      swap1\n      0x0100\n      exp\n      swap1\n      div\n      0xffffffffffffffffffffffffffffffffffffffff\n      and\n      dup2\n      jump\t// out\n        /* \"#utility.yul\":7:84   */\n    tag_33:\n        /* \"#utility.yul\":44:51   */\n      0x00\n        /* \"#utility.yul\":73:78   */\n      dup2\n        /* \"#utility.yul\":62:78   */\n      swap1\n      pop\n        /* \"#utility.yul\":7:84   */\n      swap2\n      swap1\n      pop\n      jump\t// out\n        /* \"#utility.yul\":90:208   */\n    tag_34:\n        /* \"#utility.yul\":177:201   */\n      tag_49\n        /* \"#utility.yul\":195:200   */\n      dup2\n        /* \"#utility.yul\":177:201   */\n      tag_33\n      jump\t// in\n    tag_49:\n        /* \"#utility.yul\":172:175   */\n      dup3\n        /* \"#utility.yul\":165:202   */\n      mstore\n        /* \"#utility.yul\":90:208   */\n      pop\n      pop\n      jump\t// out\n        /* \"#utility.yul\":214:436   */\n    tag_12:\n        /* \"#utility.yul\":307:311   */\n      0x00\n        /* \"#utility.yul\":345:347   */\n      0x20\n        /* \"#utility.yul\":334:343   */\n      dup3\n        /* \"#utility.yul\":330:348   */\n      add\n        /* \"#utility.yul\":322:348   */\n      swap1\n      pop\n        /* \"#utility.yul\":358:429   */\n      tag_51\n        /* \"#utility.yul\":426:427   */\n      0x00\n        /* \"#utility.yul\":415:424   */\n      dup4\n        /* \"#utility.yul\":411:428   */\n      add\n        /* \"#utility.yul\":402:408   */\n      dup5\n        /* \"#utility.yul\":358:429   */\n      tag_34\n      jump\t// in\n    tag_51:\n        /* \"#utility.yul\":214:436   */\n      swap3\n      swap2\n      pop\n      pop\n      jump\t// out\n        /* \"#utility.yul\":523:640   */\n    tag_36:\n        /* \"#utility.yul\":632:633   */\n      0x00\n        /* \"#utility.yul\":629:630   */\n      dup1\n        /* \"#utility.yul\":622:634   */\n      revert\n        /* \"#utility.yul\":769:891   */\n    tag_38:\n        /* \"#utility.yul\":842:866   */\n      tag_56\n        /* \"#utility.yul\":860:865   */\n      dup2\n        /* \"#utility.yul\":842:866   */\n      tag_33\n      jump\t// in\n    tag_56:\n        /* \"#utility.yul\":835:840   */\n      dup2\n        /* \"#utility.yul\":832:867   */\n      eq\n        /* \"#utility.yul\":822:885   */\n      tag_57\n      jumpi\n        /* \"#utility.yul\":881:882   */\n      0x00\n        /* \"#utility.yul\":878:879   */\n      dup1\n        /* \"#utility.yul\":871:883   */\n      revert\n        /* \"#utility.yul\":822:885   */\n    tag_57:\n        /* \"#utility.yul\":769:891   */\n      pop\n      jump\t// out\n        /* \"#utility.yul\":897:1036   */\n    tag_39:\n        /* \"#utility.yul\":943:948   */\n      0x00\n        /* \"#utility.yul\":981:987   */\n      dup2\n        /* \"#utility.yul\":968:988   */\n      calldataload\n        /* \"#utility.yul\":959:988   */\n      swap1\n      pop\n        /* \"#utility.yul\":997:1030   */\n      tag_59\n        /* \"#utility.yul\":1024:1029   */\n      dup2\n        /* \"#utility.yul\":997:1030   */\n      tag_38\n      jump\t// in\n    tag_59:\n        /* \"#utility.yul\":897:1036   */\n      swap3\n      swap2\n      pop\n      pop\n      jump\t// out\n        /* \"#utility.yul\":1042:1371   */\n    tag_15:\n        /* \"#utility.yul\":1101:1107   */\n      0x00\n        /* \"#utility.yul\":1150:1152   */\n      0x20\n        /* \"#utility.yul\":1138:1147   */\n      dup3\n        /* \"#utility.yul\":1129:1136   */\n      dup5\n        /* \"#utility.yul\":1125:1148   */\n      sub\n        /* \"#utility.yul\":1121:1153   */\n      slt\n        /* \"#utility.yul\":1118:1237   */\n      iszero\n      tag_61\n      jumpi\n        /* \"#utility.yul\":1156:1235   */\n      tag_62\n      tag_36\n      jump\t// in\n    tag_62:\n        /* \"#utility.yul\":1118:1237   */\n    tag_61:\n        /* \"#utility.yul\":1276:1277   */\n      0x00\n        /* \"#utility.yul\":1301:1354   */\n      tag_63\n        /* \"#utility.yul\":1346:1353   */\n      dup5\n        /* \"#utility.yul\":1337:1343   */\n      dup3\n        /* \"#utility.yul\":1326:1335   */\n      dup6\n        /* \"#utility.yul\":1322:1344   */\n      add\n        /* \"#utility.yul\":1301:1354   */\n      tag_39\n      jump\t// in\n    tag_63:\n        /* \"#utility.yul\":1291:1354   */\n      swap2\n      pop\n        /* \"#utility.yul\":1247:1364   */\n      pop\n        /* \"#utility.yul\":1042:1371   */\n      swap3\n      swap2\n      pop\n      pop\n      jump\t// out\n        /* \"#utility.yul\":1377:1503   */\n    tag_40:\n        /* \"#utility.yul\":1414:1421   */\n      0x00\n        /* \"#utility.yul\":1454:1496   */\n      0xffffffffffffffffffffffffffffffffffffffff\n        /* \"#utility.yul\":1447:1452   */\n      dup3\n        /* \"#utility.yul\":1443:1497   */\n      and\n        /* \"#utility.yul\":1432:1497   */\n      swap1\n      pop\n        /* \"#utility.yul\":1377:1503   */\n      swap2\n      swap1\n      pop\n      jump\t// out\n        /* \"#utility.yul\":1509:1613   */\n    tag_41:\n        /* \"#utility.yul\":1554:1561   */\n      0x00\n        /* \"#utility.yul\":1583:1607   */\n      tag_66\n        /* \"#utility.yul\":1601:1606   */\n      dup3\n        /* \"#utility.yul\":1583:1607   */\n      tag_40\n      jump\t// in\n    tag_66:\n        /* \"#utility.yul\":1572:1607   */\n      swap1\n      pop\n        /* \"#utility.yul\":1509:1613   */\n      swap2\n      swap1\n      pop\n      jump\t// out\n        /* \"#utility.yul\":1619:1761   */\n    tag_42:\n        /* \"#utility.yul\":1722:1754   */\n      tag_68\n        /* \"#utility.yul\":1748:1753   */\n      dup2\n        /* \"#utility.yul\":1722:1754   */\n      tag_41\n      jump\t// in\n    tag_68:\n        /* \"#utility.yul\":1717:1720   */\n      dup3\n        /* \"#utility.yul\":1710:1755   */\n      mstore\n        /* \"#utility.yul\":1619:1761   */\n      pop\n      pop\n      jump\t// out\n        /* \"#utility.yul\":1767:2021   */\n    tag_21:\n        /* \"#utility.yul\":1876:1880   */\n      0x00\n        /* \"#utility.yul\":1914:1916   */\n      0x20\n        /* \"#utility.yul\":1903:1912   */\n      dup3\n        /* \"#utility.yul\":1899:1917   */\n      add\n        /* \"#utility.yul\":1891:1917   */\n      swap1\n      pop\n        /* \"#utility.yul\":1927:2014   */\n      tag_70\n        /* \"#utility.yul\":2011:2012   */\n      0x00\n        /* \"#utility.yul\":2000:2009   */\n      dup4\n        /* \"#utility.yul\":1996:2013   */\n      add\n        /* \"#utility.yul\":1987:1993   */\n      dup5\n        /* \"#utility.yul\":1927:2014   */\n      tag_42\n      jump\t// in\n    tag_70:\n        /* \"#utility.yul\":1767:2021   */\n      swap3\n      swap2\n      pop\n      pop\n      jump\t// out\n        /* \"#utility.yul\":2027:2196   */\n    tag_43:\n        /* \"#utility.yul\":2111:2122   */\n      0x00\n        /* \"#utility.yul\":2145:2151   */\n      dup3\n        /* \"#utility.yul\":2140:2143   */\n      dup3\n        /* \"#utility.yul\":2133:2152   */\n      mstore\n        /* \"#utility.yul\":2185:2189   */\n      0x20\n        /* \"#utility.yul\":2180:2183   */\n      dup3\n        /* \"#utility.yul\":2176:2190   */\n      add\n        /* \"#utility.yul\":2161:2190   */\n      swap1\n      pop\n        /* \"#utility.yul\":2027:2196   */\n      swap3\n      swap2\n      pop\n      pop\n      jump\t// out\n        /* \"#utility.yul\":2202:2371   */\n    tag_44:\n        /* \"#utility.yul\":2342:2363   */\n      0x73656e646572206973206e6f74206f776e657200000000000000000000000000\n        /* \"#utility.yul\":2338:2339   */\n      0x00\n        /* \"#utility.yul\":2330:2336   */\n      dup3\n        /* \"#utility.yul\":2326:2340   */\n      add\n        /* \"#utility.yul\":2319:2364   */\n      mstore\n        /* \"#utility.yul\":2202:2371   */\n      pop\n      jump\t// out\n        /* \"#utility.yul\":2377:2743   */\n    tag_45:\n        /* \"#utility.yul\":2519:2522   */\n      0x00\n        /* \"#utility.yul\":2540:2607   */\n      tag_74\n        /* \"#utility.yul\":2604:2606   */\n      0x13\n        /* \"#utility.yul\":2599:2602   */\n      dup4\n        /* \"#utility.yul\":2540:2607   */\n      tag_43\n      jump\t// in\n    tag_74:\n        /* \"#utility.yul\":2533:2607   */\n      swap2\n      pop\n        /* \"#utility.yul\":2616:2709   */\n      tag_75\n        /* \"#utility.yul\":2705:2708   */\n      dup3\n        /* \"#utility.yul\":2616:2709   */\n      tag_44\n      jump\t// in\n    tag_75:\n        /* \"#utility.yul\":2734:2736   */\n      0x20\n        /* \"#utility.yul\":2729:2732   */\n      dup3\n        /* \"#utility.yul\":2725:2737   */\n      add\n        /* \"#utility.yul\":2718:2737   */\n      swap1\n      pop\n        /* \"#utility.yul\":2377:2743   */\n      swap2\n      swap1\n      pop\n      jump\t// out\n        /* \"#utility.yul\":2749:3168   */\n    tag_25:\n        /* \"#utility.yul\":2915:2919   */\n      0x00\n        /* \"#utility.yul\":2953:2955   */\n      0x20\n        /* \"#utility.yul\":2942:2951   */\n      dup3\n        /* \"#utility.yul\":2938:2956   */\n      add\n        /* \"#utility.yul\":2930:2956   */\n      swap1\n      pop\n        /* \"#utility.yul\":3002:3011   */\n      dup2\n        /* \"#utility.yul\":2996:3000   */\n      dup2\n        /* \"#utility.yul\":2992:3012   */\n      sub\n        /* \"#utility.yul\":2988:2989   */\n      0x00\n        /* \"#utility.yul\":2977:2986   */\n      dup4\n        /* \"#utility.yul\":2973:2990   */\n      add\n        /* \"#utility.yul\":2966:3013   */\n      mstore\n        /* \"#utility.yul\":3030:3161   */\n      tag_77\n        /* \"#utility.yul\":3156:3160   */\n      dup2\n        /* \"#utility.yul\":3030:3161   */\n      tag_45\n      jump\t// in\n    tag_77:\n        /* \"#utility.yul\":3022:3161   */\n      swap1\n      pop\n        /* \"#utility.yul\":2749:3168   */\n      swap2\n      swap1\n      pop\n      jump\t// out\n\n    auxdata: 0xa26469706673582212203a959c2ce2f2633d988ffa3c86d0a2619f6ffb2241ba51231e425e34d26f6d6964736f6c63430008120033\n}\n",
				"bytecode": {
					"linkReferences": {},
					"object": "608060405234801561001057600080fd5b50336000806101000a81548173ffffffffffffffffffffffffffffffffffffffff021916908373ffffffffffffffffffffffffffffffffffffffff1602179055506103ea806100606000396000f3fe6080604052600436106100385760003560e01c806312065fe0146100445780632e1a7d4d1461006f5780638da5cb5b1461008b5761003f565b3661003f57005b600080fd5b34801561005057600080fd5b506100596100b6565b6040516100669190610262565b60405180910390f35b610089600480360381019061008491906102ae565b61014d565b005b34801561009757600080fd5b506100a0610225565b6040516100ad919061031c565b60405180910390f35b60008060009054906101000a900473ffffffffffffffffffffffffffffffffffffffff1673ffffffffffffffffffffffffffffffffffffffff163373ffffffffffffffffffffffffffffffffffffffff1614610147576040517f08c379a000000000000000000000000000000000000000000000000000000000815260040161013e90610394565b60405180910390fd5b47905090565b60008054906101000a900473ffffffffffffffffffffffffffffffffffffffff1673ffffffffffffffffffffffffffffffffffffffff163373ffffffffffffffffffffffffffffffffffffffff16146101db576040517f08c379a00000000000000000000000000000000000000000000000000000000081526004016101d290610394565b60405180910390fd5b3373ffffffffffffffffffffffffffffffffffffffff166108fc829081150290604051600060405180830381858888f19350505050158015610221573d6000803e3d6000fd5b5050565b60008054906101000a900473ffffffffffffffffffffffffffffffffffffffff1681565b6000819050919050565b61025c81610249565b82525050565b60006020820190506102776000830184610253565b92915050565b600080fd5b61028b81610249565b811461029657600080fd5b50565b6000813590506102a881610282565b92915050565b6000602082840312156102c4576102c361027d565b5b60006102d284828501610299565b91505092915050565b600073ffffffffffffffffffffffffffffffffffffffff82169050919050565b6000610306826102db565b9050919050565b610316816102fb565b82525050565b6000602082019050610331600083018461030d565b92915050565b600082825260208201905092915050565b7f73656e646572206973206e6f74206f776e657200000000000000000000000000600082015250565b600061037e601383610337565b915061038982610348565b602082019050919050565b600060208201905081810360008301526103ad81610371565b905091905056fea26469706673582212203a959c2ce2f2633d988ffa3c86d0a2619f6ffb2241ba51231e425e34d26f6d6964736f6c63430008120033",
					"opcodes": "PUSH1 0x80 PUSH1 0x40 MSTORE CALLVALUE DUP1 ISZERO PUSH2 0x10 JUMPI PUSH1 0x0 DUP1 REVERT JUMPDEST POP CALLER PUSH1 0x0 DUP1 PUSH2 0x100 EXP DUP2 SLOAD DUP2 PUSH20 0xFFFFFFFFFFFFFFFFFFFFFFFFFFFFFFFFFFFFFFFF MUL NOT AND SWAP1 DUP4 PUSH20 0xFFFFFFFFFFFFFFFFFFFFFFFFFFFFFFFFFFFFFFFF AND MUL OR SWAP1 SSTORE POP PUSH2 0x3EA DUP1 PUSH2 0x60 PUSH1 0x0 CODECOPY PUSH1 0x0 RETURN INVALID PUSH1 0x80 PUSH1 0x40 MSTORE PUSH1 0x4 CALLDATASIZE LT PUSH2 0x38 JUMPI PUSH1 0x0 CALLDATALOAD PUSH1 0xE0 SHR DUP1 PUSH4 0x12065FE0 EQ PUSH2 0x44 JUMPI DUP1 PUSH4 0x2E1A7D4D EQ PUSH2 0x6F JUMPI DUP1 PUSH4 0x8DA5CB5B EQ PUSH2 0x8B JUMPI PUSH2 0x3F JUMP JUMPDEST CALLDATASIZE PUSH2 0x3F JUMPI STOP JUMPDEST PUSH1 0x0 DUP1 REVERT JUMPDEST CALLVALUE DUP1 ISZERO PUSH2 0x50 JUMPI PUSH1 0x0 DUP1 REVERT JUMPDEST POP PUSH2 0x59 PUSH2 0xB6 JUMP JUMPDEST PUSH1 0x40 MLOAD PUSH2 0x66 SWAP2 SWAP1 PUSH2 0x262 JUMP JUMPDEST PUSH1 0x40 MLOAD DUP1 SWAP2 SUB SWAP1 RETURN JUMPDEST PUSH2 0x89 PUSH1 0x4 DUP1 CALLDATASIZE SUB DUP2 ADD SWAP1 PUSH2 0x84 SWAP2 SWAP1 PUSH2 0x2AE JUMP JUMPDEST PUSH2 0x14D JUMP JUMPDEST STOP JUMPDEST CALLVALUE DUP1 ISZERO PUSH2 0x97 JUMPI PUSH1 0x0 DUP1 REVERT JUMPDEST POP PUSH2 0xA0 PUSH2 0x225 JUMP JUMPDEST PUSH1 0x40 MLOAD PUSH2 0xAD SWAP2 SWAP1 PUSH2 0x31C JUMP JUMPDEST PUSH1 0x40 MLOAD DUP1 SWAP2 SUB SWAP1 RETURN JUMPDEST PUSH1 0x0 DUP1 PUSH1 0x0 SWAP1 SLOAD SWAP1 PUSH2 0x100 EXP SWAP1 DIV PUSH20 0xFFFFFFFFFFFFFFFFFFFFFFFFFFFFFFFFFFFFFFFF AND PUSH20 0xFFFFFFFFFFFFFFFFFFFFFFFFFFFFFFFFFFFFFFFF AND CALLER PUSH20 0xFFFFFFFFFFFFFFFFFFFFFFFFFFFFFFFFFFFFFFFF AND EQ PUSH2 0x147 JUMPI PUSH1 0x40 MLOAD PUSH32 0x8C379A000000000000000000000000000000000000000000000000000000000 DUP2 MSTORE PUSH1 0x4 ADD PUSH2 0x13E SWAP1 PUSH2 0x394 JUMP JUMPDEST PUSH1 0x40 MLOAD DUP1 SWAP2 SUB SWAP1 REVERT JUMPDEST SELFBALANCE SWAP1 POP SWAP1 JUMP JUMPDEST PUSH1 0x0 DUP1 SLOAD SWAP1 PUSH2 0x100 EXP SWAP1 DIV PUSH20 0xFFFFFFFFFFFFFFFFFFFFFFFFFFFFFFFFFFFFFFFF AND PUSH20 0xFFFFFFFFFFFFFFFFFFFFFFFFFFFFFFFFFFFFFFFF AND CALLER PUSH20 0xFFFFFFFFFFFFFFFFFFFFFFFFFFFFFFFFFFFFFFFF AND EQ PUSH2 0x1DB JUMPI PUSH1 0x40 MLOAD PUSH32 0x8C379A000000000000000000000000000000000000000000000000000000000 DUP2 MSTORE PUSH1 0x4 ADD PUSH2 0x1D2 SWAP1 PUSH2 0x394 JUMP JUMPDEST PUSH1 0x40 MLOAD DUP1 SWAP2 SUB SWAP1 REVERT JUMPDEST CALLER PUSH20 0xFFFFFFFFFFFFFFFFFFFFFFFFFFFFFFFFFFFFFFFF AND PUSH2 0x8FC DUP3 SWAP1 DUP2 ISZERO MUL SWAP1 PUSH1 0x40 MLOAD PUSH1 0x0 PUSH1 0x40 MLOAD DUP1 DUP4 SUB DUP2 DUP6 DUP9 DUP9 CALL SWAP4 POP POP POP POP ISZERO DUP1 ISZERO PUSH2 0x221 JUMPI RETURNDATASIZE PUSH1 0x0 DUP1 RETURNDATACOPY RETURNDATASIZE PUSH1 0x0 REVERT JUMPDEST POP POP JUMP JUMPDEST PUSH1 0x0 DUP1 SLOAD SWAP1 PUSH2 0x100 EXP SWAP1 DIV PUSH20 0xFFFFFFFFFFFFFFFFFFFFFFFFFFFFFFFFFFFFFFFF AND DUP2 JUMP JUMPDEST PUSH1 0x0 DUP2 SWAP1 POP SWAP2 SWAP1 POP JUMP JUMPDEST PUSH2 0x25C DUP2 PUSH2 0x249 JUMP JUMPDEST DUP3 MSTORE POP POP JUMP JUMPDEST PUSH1 0x0 PUSH1 0x20 DUP3 ADD SWAP1 POP PUSH2 0x277 PUSH1 0x0 DUP4 ADD DUP5 PUSH2 0x253 JUMP JUMPDEST SWAP3 SWAP2 POP POP JUMP JUMPDEST PUSH1 0x0 DUP1 REVERT JUMPDEST PUSH2 0x28B DUP2 PUSH2 0x249 JUMP JUMPDEST DUP2 EQ PUSH2 0x296 JUMPI PUSH1 0x0 DUP1 REVERT JUMPDEST POP JUMP JUMPDEST PUSH1 0x0 DUP2 CALLDATALOAD SWAP1 POP PUSH2 0x2A8 DUP2 PUSH2 0x282 JUMP JUMPDEST SWAP3 SWAP2 POP POP JUMP JUMPDEST PUSH1 0x0 PUSH1 0x20 DUP3 DUP5 SUB SLT ISZERO PUSH2 0x2C4 JUMPI PUSH2 0x2C3 PUSH2 0x27D JUMP JUMPDEST JUMPDEST PUSH1 0x0 PUSH2 0x2D2 DUP5 DUP3 DUP6 ADD PUSH2 0x299 JUMP JUMPDEST SWAP2 POP POP SWAP3 SWAP2 POP POP JUMP JUMPDEST PUSH1 0x0 PUSH20 0xFFFFFFFFFFFFFFFFFFFFFFFFFFFFFFFFFFFFFFFF DUP3 AND SWAP1 POP SWAP2 SWAP1 POP JUMP JUMPDEST PUSH1 0x0 PUSH2 0x306 DUP3 PUSH2 0x2DB JUMP JUMPDEST SWAP1 POP SWAP2 SWAP1 POP JUMP JUMPDEST PUSH2 0x316 DUP2 PUSH2 0x2FB JUMP JUMPDEST DUP3 MSTORE POP POP JUMP JUMPDEST PUSH1 0x0 PUSH1 0x20 DUP3 ADD SWAP1 POP PUSH2 0x331 PUSH1 0x0 DUP4 ADD DUP5 PUSH2 0x30D JUMP JUMPDEST SWAP3 SWAP2 POP POP JUMP JUMPDEST PUSH1 0x0 DUP3 DUP3 MSTORE PUSH1 0x20 DUP3 ADD SWAP1 POP SWAP3 SWAP2 POP POP JUMP JUMPDEST PUSH32 0x73656E646572206973206E6F74206F776E657200000000000000000000000000 PUSH1 0x0 DUP3 ADD MSTORE POP JUMP JUMPDEST PUSH1 0x0 PUSH2 0x37E PUSH1 0x13 DUP4 PUSH2 0x337 JUMP JUMPDEST SWAP2 POP PUSH2 0x389 DUP3 PUSH2 0x348 JUMP JUMPDEST PUSH1 0x20 DUP3 ADD SWAP1 POP SWAP2 SWAP1 POP JUMP JUMPDEST PUSH1 0x0 PUSH1 0x20 DUP3 ADD SWAP1 POP DUP2 DUP2 SUB PUSH1 0x0 DUP4 ADD MSTORE PUSH2 0x3AD DUP2 PUSH2 0x371 JUMP JUMPDEST SWAP1 POP SWAP2 SWAP1 POP JUMP INVALID LOG2 PUSH5 0x6970667358 0x22 SLT KECCAK256 GASPRICE SWAP6 SWAP13 0x2C 0xE2 CALLCODE PUSH4 0x3D988FFA EXTCODECOPY DUP7 0xD0 LOG2 PUSH2 0x9F6F 0xFB 0x22 COINBASE 0xBA MLOAD 0x23 0x1E TIMESTAMP 0x5E CALLVALUE 0xD2 PUSH16 0x6D6964736F6C63430008120033000000 "
				},
				"gasEstimates": {
					"creation": {
						"codeDepositCost": "200400",
						"executionCost": "24511",
						"totalCost": "224911"
					},
					"external": {
						"getBalance()": "2584",
						"owner()": "2533",
						"withdraw(uint256)": "infinite"
					}
				},
				"methodIdentifiers": {
					"getBalance()": "12065fe0",
					"owner()": "8da5cb5b",
					"withdraw(uint256)": "2e1a7d4d"
				}
			},
			"storageLayout": {
				"storage": [
					{
						"astId": 3,
						"contract": "钱包合约/Wallet.sol:Wallet",
						"label": "owner",
						"offset": 0,
						"slot": "0",
						"type": "t_address_payable"
					}
				],
				"types": {
					"t_address_payable": {
						"encoding": "inplace",
						"label": "address payable",
						"numberOfBytes": "20"
					}
				}
			},
			"userdoc": {
				"kind": "user",
				"methods": {},
				"version": 1
			}
		}
	}
}