{
	"条件运算符/test.sol": {
		"Example": {
			"abi": [
				{
					"inputs": [],
					"name": "exampleFunction",
					"outputs": [
						{
							"internalType": "uint256",
							"name": "",
							"type": "uint256"
						}
					],
					"stateMutability": "view",
					"type": "function"
				}
			],
			"devdoc": {
				"kind": "dev",
				"methods": {},
				"version": 1
			},
			"evm": {
				"assembly": "    /* \"\\xe6\\x9d\\xa1\\xe4\\xbb\\xb6\\xe8\\xbf\\x90\\xe7\\xae\\x97\\xe7\\xac\\xa6/test.sol\":60:218  contract Example {\r... */\n  mstore(0x40, 0x80)\n    /* \"\\xe6\\x9d\\xa1\\xe4\\xbb\\xb6\\xe8\\xbf\\x90\\xe7\\xae\\x97\\xe7\\xac\\xa6/test.sol\":93:94  5 */\n  0x05\n    /* \"\\xe6\\x9d\\xa1\\xe4\\xbb\\xb6\\xe8\\xbf\\x90\\xe7\\xae\\x97\\xe7\\xac\\xa6/test.sol\":84:94  uint x = 5 */\n  0x00\n  sstore\n    /* \"\\xe6\\x9d\\xa1\\xe4\\xbb\\xb6\\xe8\\xbf\\x90\\xe7\\xae\\x97\\xe7\\xac\\xa6/test.sol\":110:112  10 */\n  0x0a\n    /* \"\\xe6\\x9d\\xa1\\xe4\\xbb\\xb6\\xe8\\xbf\\x90\\xe7\\xae\\x97\\xe7\\xac\\xa6/test.sol\":101:112  uint y = 10 */\n  0x01\n  sstore\n    /* \"\\xe6\\x9d\\xa1\\xe4\\xbb\\xb6\\xe8\\xbf\\x90\\xe7\\xae\\x97\\xe7\\xac\\xa6/test.sol\":60:218  contract Example {\r... */\n  callvalue\n  dup1\n  iszero\n  tag_1\n  jumpi\n  0x00\n  dup1\n  revert\ntag_1:\n  pop\n  dataSize(sub_0)\n  dup1\n  dataOffset(sub_0)\n  0x00\n  codecopy\n  0x00\n  return\nstop\n\nsub_0: assembly {\n        /* \"\\xe6\\x9d\\xa1\\xe4\\xbb\\xb6\\xe8\\xbf\\x90\\xe7\\xae\\x97\\xe7\\xac\\xa6/test.sol\":60:218  contract Example {\r... */\n      mstore(0x40, 0x80)\n      callvalue\n      dup1\n      iszero\n      tag_1\n      jumpi\n      0x00\n      dup1\n      revert\n    tag_1:\n      pop\n      jumpi(tag_2, lt(calldatasize, 0x04))\n      shr(0xe0, calldataload(0x00))\n      dup1\n      0xce2f67a2\n      eq\n      tag_3\n      jumpi\n    tag_2:\n      0x00\n      dup1\n      revert\n        /* \"\\xe6\\x9d\\xa1\\xe4\\xbb\\xb6\\xe8\\xbf\\x90\\xe7\\xae\\x97\\xe7\\xac\\xa6/test.sol\":121:215  function exampleFunction() public view returns(uint) {\r... */\n    tag_3:\n      tag_4\n      tag_5\n      jump\t// in\n    tag_4:\n      mload(0x40)\n      tag_6\n      swap2\n      swap1\n      tag_7\n      jump\t// in\n    tag_6:\n      mload(0x40)\n      dup1\n      swap2\n      sub\n      swap1\n      return\n    tag_5:\n        /* \"\\xe6\\x9d\\xa1\\xe4\\xbb\\xb6\\xe8\\xbf\\x90\\xe7\\xae\\x97\\xe7\\xac\\xa6/test.sol\":168:172  uint */\n      0x00\n        /* \"\\xe6\\x9d\\xa1\\xe4\\xbb\\xb6\\xe8\\xbf\\x90\\xe7\\xae\\x97\\xe7\\xac\\xa6/test.sol\":197:198  y */\n      sload(0x01)\n        /* \"\\xe6\\x9d\\xa1\\xe4\\xbb\\xb6\\xe8\\xbf\\x90\\xe7\\xae\\x97\\xe7\\xac\\xa6/test.sol\":193:194  x */\n      sload(0x00)\n        /* \"\\xe6\\x9d\\xa1\\xe4\\xbb\\xb6\\xe8\\xbf\\x90\\xe7\\xae\\x97\\xe7\\xac\\xa6/test.sol\":193:198  x > y */\n      gt\n        /* \"\\xe6\\x9d\\xa1\\xe4\\xbb\\xb6\\xe8\\xbf\\x90\\xe7\\xae\\x97\\xe7\\xac\\xa6/test.sol\":192:207  (x > y) ? x : y */\n      tag_9\n      jumpi\n        /* \"\\xe6\\x9d\\xa1\\xe4\\xbb\\xb6\\xe8\\xbf\\x90\\xe7\\xae\\x97\\xe7\\xac\\xa6/test.sol\":206:207  y */\n      sload(0x01)\n        /* \"\\xe6\\x9d\\xa1\\xe4\\xbb\\xb6\\xe8\\xbf\\x90\\xe7\\xae\\x97\\xe7\\xac\\xa6/test.sol\":192:207  (x > y) ? x : y */\n      jump(tag_10)\n    tag_9:\n        /* \"\\xe6\\x9d\\xa1\\xe4\\xbb\\xb6\\xe8\\xbf\\x90\\xe7\\xae\\x97\\xe7\\xac\\xa6/test.sol\":202:203  x */\n      sload(0x00)\n        /* \"\\xe6\\x9d\\xa1\\xe4\\xbb\\xb6\\xe8\\xbf\\x90\\xe7\\xae\\x97\\xe7\\xac\\xa6/test.sol\":192:207  (x > y) ? x : y */\n    tag_10:\n        /* \"\\xe6\\x9d\\xa1\\xe4\\xbb\\xb6\\xe8\\xbf\\x90\\xe7\\xae\\x97\\xe7\\xac\\xa6/test.sol\":185:207  return (x > y) ? x : y */\n      swap1\n      pop\n        /* \"\\xe6\\x9d\\xa1\\xe4\\xbb\\xb6\\xe8\\xbf\\x90\\xe7\\xae\\x97\\xe7\\xac\\xa6/test.sol\":121:215  function exampleFunction() public view returns(uint) {\r... */\n      swap1\n      jump\t// out\n        /* \"#utility.yul\":7:125   */\n    tag_12:\n        /* \"#utility.yul\":94:118   */\n      tag_14\n        /* \"#utility.yul\":112:117   */\n      dup2\n        /* \"#utility.yul\":94:118   */\n      tag_15\n      jump\t// in\n    tag_14:\n        /* \"#utility.yul\":89:92   */\n      dup3\n        /* \"#utility.yul\":82:119   */\n      mstore\n        /* \"#utility.yul\":7:125   */\n      pop\n      pop\n      jump\t// out\n        /* \"#utility.yul\":131:353   */\n    tag_7:\n        /* \"#utility.yul\":224:228   */\n      0x00\n        /* \"#utility.yul\":262:264   */\n      0x20\n        /* \"#utility.yul\":251:260   */\n      dup3\n        /* \"#utility.yul\":247:265   */\n      add\n        /* \"#utility.yul\":239:265   */\n      swap1\n      pop\n        /* \"#utility.yul\":275:346   */\n      tag_17\n        /* \"#utility.yul\":343:344   */\n      0x00\n        /* \"#utility.yul\":332:341   */\n      dup4\n        /* \"#utility.yul\":328:345   */\n      add\n        /* \"#utility.yul\":319:325   */\n      dup5\n        /* \"#utility.yul\":275:346   */\n      tag_12\n      jump\t// in\n    tag_17:\n        /* \"#utility.yul\":131:353   */\n      swap3\n      swap2\n      pop\n      pop\n      jump\t// out\n        /* \"#utility.yul\":359:436   */\n    tag_15:\n        /* \"#utility.yul\":396:403   */\n      0x00\n        /* \"#utility.yul\":425:430   */\n      dup2\n        /* \"#utility.yul\":414:430   */\n      swap1\n      pop\n        /* \"#utility.yul\":359:436   */\n      swap2\n      swap1\n      pop\n      jump\t// out\n\n    auxdata: 0xa264697066735822122098f175b00f405d3fde9ebeec0b8f79a57f3ce39354ff2f07d86d1353e9c33e5864736f6c63430008070033\n}\n",
				"bytecode": {
					"linkReferences": {},
					"object": "60806040526005600055600a60015534801561001a57600080fd5b5060c9806100296000396000f3fe6080604052348015600f57600080fd5b506004361060285760003560e01c8063ce2f67a214602d575b600080fd5b60336047565b604051603e91906070565b60405180910390f35b600060015460005411605a57600154605e565b6000545b905090565b606a816089565b82525050565b6000602082019050608360008301846063565b92915050565b600081905091905056fea264697066735822122098f175b00f405d3fde9ebeec0b8f79a57f3ce39354ff2f07d86d1353e9c33e5864736f6c63430008070033",
					"opcodes": "PUSH1 0x80 PUSH1 0x40 MSTORE PUSH1 0x5 PUSH1 0x0 SSTORE PUSH1 0xA PUSH1 0x1 SSTORE CALLVALUE DUP1 ISZERO PUSH2 0x1A JUMPI PUSH1 0x0 DUP1 REVERT JUMPDEST POP PUSH1 0xC9 DUP1 PUSH2 0x29 PUSH1 0x0 CODECOPY PUSH1 0x0 RETURN INVALID PUSH1 0x80 PUSH1 0x40 MSTORE CALLVALUE DUP1 ISZERO PUSH1 0xF JUMPI PUSH1 0x0 DUP1 REVERT JUMPDEST POP PUSH1 0x4 CALLDATASIZE LT PUSH1 0x28 JUMPI PUSH1 0x0 CALLDATALOAD PUSH1 0xE0 SHR DUP1 PUSH4 0xCE2F67A2 EQ PUSH1 0x2D JUMPI JUMPDEST PUSH1 0x0 DUP1 REVERT JUMPDEST PUSH1 0x33 PUSH1 0x47 JUMP JUMPDEST PUSH1 0x40 MLOAD PUSH1 0x3E SWAP2 SWAP1 PUSH1 0x70 JUMP JUMPDEST PUSH1 0x40 MLOAD DUP1 SWAP2 SUB SWAP1 RETURN JUMPDEST PUSH1 0x0 PUSH1 0x1 SLOAD PUSH1 0x0 SLOAD GT PUSH1 0x5A JUMPI PUSH1 0x1 SLOAD PUSH1 0x5E JUMP JUMPDEST PUSH1 0x0 SLOAD JUMPDEST SWAP1 POP SWAP1 JUMP JUMPDEST PUSH1 0x6A DUP2 PUSH1 0x89 JUMP JUMPDEST DUP3 MSTORE POP POP JUMP JUMPDEST PUSH1 0x0 PUSH1 0x20 DUP3 ADD SWAP1 POP PUSH1 0x83 PUSH1 0x0 DUP4 ADD DUP5 PUSH1 0x63 JUMP JUMPDEST SWAP3 SWAP2 POP POP JUMP JUMPDEST PUSH1 0x0 DUP2 SWAP1 POP SWAP2 SWAP1 POP JUMP INVALID LOG2 PUSH5 0x6970667358 0x22 SLT KECCAK256 SWAP9 CALL PUSH22 0xB00F405D3FDE9EBEEC0B8F79A57F3CE39354FF2F07D8 PUSH14 0x1353E9C33E5864736F6C63430008 SMOD STOP CALLER "
				},
				"gasEstimates": {
					"creation": {
						"codeDepositCost": "40200",
						"executionCost": "44305",
						"totalCost": "84505"
					},
					"external": {
						"exampleFunction()": "6649"
					}
				},
				"methodIdentifiers": {
					"exampleFunction()": "ce2f67a2"
				}
			},
			"storageLayout": {
				"storage": [
					{
						"astId": 4,
						"contract": "条件运算符/test.sol:Example",
						"label": "x",
						"offset": 0,
						"slot": "0",
						"type": "t_uint256"
					},
					{
						"astId": 7,
						"contract": "条件运算符/test.sol:Example",
						"label": "y",
						"offset": 0,
						"slot": "1",
						"type": "t_uint256"
					}
				],
				"types": {
					"t_uint256": {
						"encoding": "inplace",
						"label": "uint256",
						"numberOfBytes": "32"
					}
				}
			},
			"userdoc": {
				"kind": "user",
				"methods": {},
				"version": 1
			}
		}
	}
}