{
	"data": {
		"bytecode": {
			"linkReferences": {},
			"object": "608060405234801561001057600080fd5b50670de0b6b3a76400006000819055506101208061002f6000396000f300608060405260043610605d576000357c0100000000000000000000000000000000000000000000000000000000900463ffffffff16806373592a7a1460625780638cefa878146076578063b69ef8a814608a578063ca83e1b71460b2575b600080fd5b348015606d57600080fd5b50607460c6565b005b348015608157600080fd5b50608860d0565b005b348015609557600080fd5b50609c60e0565b6040518082815260200191505060405180910390f35b34801560bd57600080fd5b5060c460e6565b005b6001600081905550565b66038d7ea4c68000600081905550565b60005481565b64e8d4a510006000819055505600a165627a7a72305820c28a0ff15b177fd5746aff31cd9a5ae84bd44a7568bc555a7af8450a7f0ff5250029",
			"opcodes": "PUSH1 0x80 PUSH1 0x40 MSTORE CALLVALUE DUP1 ISZERO PUSH2 0x10 JUMPI PUSH1 0x0 DUP1 REVERT JUMPDEST POP PUSH8 0xDE0B6B3A7640000 PUSH1 0x0 DUP2 SWAP1 SSTORE POP PUSH2 0x120 DUP1 PUSH2 0x2F PUSH1 0x0 CODECOPY PUSH1 0x0 RETURN STOP PUSH1 0x80 PUSH1 0x40 MSTORE PUSH1 0x4 CALLDATASIZE LT PUSH1 0x5D JUMPI PUSH1 0x0 CALLDATALOAD PUSH29 0x100000000000000000000000000000000000000000000000000000000 SWAP1 DIV PUSH4 0xFFFFFFFF AND DUP1 PUSH4 0x73592A7A EQ PUSH1 0x62 JUMPI DUP1 PUSH4 0x8CEFA878 EQ PUSH1 0x76 JUMPI DUP1 PUSH4 0xB69EF8A8 EQ PUSH1 0x8A JUMPI DUP1 PUSH4 0xCA83E1B7 EQ PUSH1 0xB2 JUMPI JUMPDEST PUSH1 0x0 DUP1 REVERT JUMPDEST CALLVALUE DUP1 ISZERO PUSH1 0x6D JUMPI PUSH1 0x0 DUP1 REVERT JUMPDEST POP PUSH1 0x74 PUSH1 0xC6 JUMP JUMPDEST STOP JUMPDEST CALLVALUE DUP1 ISZERO PUSH1 0x81 JUMPI PUSH1 0x0 DUP1 REVERT JUMPDEST POP PUSH1 0x88 PUSH1 0xD0 JUMP JUMPDEST STOP JUMPDEST CALLVALUE DUP1 ISZERO PUSH1 0x95 JUMPI PUSH1 0x0 DUP1 REVERT JUMPDEST POP PUSH1 0x9C PUSH1 0xE0 JUMP JUMPDEST PUSH1 0x40 MLOAD DUP1 DUP3 DUP2 MSTORE PUSH1 0x20 ADD SWAP2 POP POP PUSH1 0x40 MLOAD DUP1 SWAP2 SUB SWAP1 RETURN JUMPDEST CALLVALUE DUP1 ISZERO PUSH1 0xBD JUMPI PUSH1 0x0 DUP1 REVERT JUMPDEST POP PUSH1 0xC4 PUSH1 0xE6 JUMP JUMPDEST STOP JUMPDEST PUSH1 0x1 PUSH1 0x0 DUP2 SWAP1 SSTORE POP JUMP JUMPDEST PUSH7 0x38D7EA4C68000 PUSH1 0x0 DUP2 SWAP1 SSTORE POP JUMP JUMPDEST PUSH1 0x0 SLOAD DUP2 JUMP JUMPDEST PUSH5 0xE8D4A51000 PUSH1 0x0 DUP2 SWAP1 SSTORE POP JUMP STOP LOG1 PUSH6 0x627A7A723058 KECCAK256 0xc2 DUP11 0xf CALL JUMPDEST OR PUSH32 0xD5746AFF31CD9A5AE84BD44A7568BC555A7AF8450A7F0FF52500290000000000 "
		},
		"gasEstimates": {
			"creation": {
				"codeDepositCost": "57600",
				"executionCost": "20119",
				"totalCost": "77719"
			},
			"external": {
				"balance()": "438",
				"fFinney()": "20169",
				"fSzabo()": "20213",
				"fWei()": "20147"
			}
		},
		"methodIdentifiers": {
			"balance()": "b69ef8a8",
			"fFinney()": "8cefa878",
			"fSzabo()": "ca83e1b7",
			"fWei()": "73592a7a"
		}
	},
	"abi": [
		{
			"constant": false,
			"inputs": [],
			"name": "fWei",
			"outputs": [],
			"payable": false,
			"stateMutability": "nonpayable",
			"type": "function"
		},
		{
			"constant": false,
			"inputs": [],
			"name": "fFinney",
			"outputs": [],
			"payable": false,
			"stateMutability": "nonpayable",
			"type": "function"
		},
		{
			"constant": true,
			"inputs": [],
			"name": "balance",
			"outputs": [
				{
					"name": "",
					"type": "uint256"
				}
			],
			"payable": false,
			"stateMutability": "view",
			"type": "function"
		},
		{
			"constant": false,
			"inputs": [],
			"name": "fSzabo",
			"outputs": [],
			"payable": false,
			"stateMutability": "nonpayable",
			"type": "function"
		},
		{
			"inputs": [],
			"payable": false,
			"stateMutability": "nonpayable",
			"type": "constructor"
		}
	]
}