{
	"data": {
		"bytecode": {
			"linkReferences": {},
			"object": "608060405234801561001057600080fd5b50610128806100206000396000f3006080604052600436106049576000357c0100000000000000000000000000000000000000000000000000000000900463ffffffff16806342b148aa14604e5780639a7846b9146062575b600080fd5b348015605957600080fd5b5060606076565b005b348015606d57600080fd5b5060746078565b005b565b607e60fa565b3073ffffffffffffffffffffffffffffffffffffffff166342b148aa6040518163ffffffff167c0100000000000000000000000000000000000000000000000000000000028152600401600060405180830381600087803b15801560e157600080fd5b505af115801560f4573d6000803e3d6000fd5b50505050565b5600a165627a7a723058205c1fbf57ac6473ea2575264ab96d8b3536b6e09596e594be733dfed422b6dfbc0029",
			"opcodes": "PUSH1 0x80 PUSH1 0x40 MSTORE CALLVALUE DUP1 ISZERO PUSH2 0x10 JUMPI PUSH1 0x0 DUP1 REVERT JUMPDEST POP PUSH2 0x128 DUP1 PUSH2 0x20 PUSH1 0x0 CODECOPY PUSH1 0x0 RETURN STOP PUSH1 0x80 PUSH1 0x40 MSTORE PUSH1 0x4 CALLDATASIZE LT PUSH1 0x49 JUMPI PUSH1 0x0 CALLDATALOAD PUSH29 0x100000000000000000000000000000000000000000000000000000000 SWAP1 DIV PUSH4 0xFFFFFFFF AND DUP1 PUSH4 0x42B148AA EQ PUSH1 0x4E JUMPI DUP1 PUSH4 0x9A7846B9 EQ PUSH1 0x62 JUMPI JUMPDEST PUSH1 0x0 DUP1 REVERT JUMPDEST CALLVALUE DUP1 ISZERO PUSH1 0x59 JUMPI PUSH1 0x0 DUP1 REVERT JUMPDEST POP PUSH1 0x60 PUSH1 0x76 JUMP JUMPDEST STOP JUMPDEST CALLVALUE DUP1 ISZERO PUSH1 0x6D JUMPI PUSH1 0x0 DUP1 REVERT JUMPDEST POP PUSH1 0x74 PUSH1 0x78 JUMP JUMPDEST STOP JUMPDEST JUMP JUMPDEST PUSH1 0x7E PUSH1 0xFA JUMP JUMPDEST ADDRESS PUSH20 0xFFFFFFFFFFFFFFFFFFFFFFFFFFFFFFFFFFFFFFFF AND PUSH4 0x42B148AA PUSH1 0x40 MLOAD DUP2 PUSH4 0xFFFFFFFF AND PUSH29 0x100000000000000000000000000000000000000000000000000000000 MUL DUP2 MSTORE PUSH1 0x4 ADD PUSH1 0x0 PUSH1 0x40 MLOAD DUP1 DUP4 SUB DUP2 PUSH1 0x0 DUP8 DUP1 EXTCODESIZE ISZERO DUP1 ISZERO PUSH1 0xE1 JUMPI PUSH1 0x0 DUP1 REVERT JUMPDEST POP GAS CALL ISZERO DUP1 ISZERO PUSH1 0xF4 JUMPI RETURNDATASIZE PUSH1 0x0 DUP1 RETURNDATACOPY RETURNDATASIZE PUSH1 0x0 REVERT JUMPDEST POP POP POP POP JUMP JUMPDEST JUMP STOP LOG1 PUSH6 0x627A7A723058 KECCAK256 0x5c 0x1f 0xbf JUMPI 0xac PUSH5 0x73EA257526 0x4a 0xb9 PUSH14 0x8B3536B6E09596E594BE733DFED4 0x22 0xb6 0xdf 0xbc STOP 0x29 "
		},
		"gasEstimates": {
			"creation": {
				"codeDepositCost": "59200",
				"executionCost": "111",
				"totalCost": "59311"
			},
			"external": {
				"callFunc()": "infinite",
				"externalFunc()": "133"
			},
			"internal": {
				"internalFunc()": "9"
			}
		},
		"methodIdentifiers": {
			"callFunc()": "9a7846b9",
			"externalFunc()": "42b148aa"
		}
	},
	"abi": [
		{
			"constant": false,
			"inputs": [],
			"name": "externalFunc",
			"outputs": [],
			"payable": false,
			"stateMutability": "nonpayable",
			"type": "function"
		},
		{
			"constant": false,
			"inputs": [],
			"name": "callFunc",
			"outputs": [],
			"payable": false,
			"stateMutability": "nonpayable",
			"type": "function"
		}
	]
}