{
	"值类型/addressTest.sol": {
		"FuntionTest1": {
			"abi": [
				{
					"constant": false,
					"inputs": [
						{
							"name": "ft",
							"type": "address"
						}
					],
					"name": "externalCall",
					"outputs": [],
					"payable": false,
					"stateMutability": "nonpayable",
					"type": "function"
				}
			],
			"devdoc": {
				"methods": {}
			},
			"evm": {
				"assembly": "    /* \"值类型/addressTest.sol\":1014:1257  contract FuntionTest1 {\r... */\n  mstore(0x40, 0x80)\n  callvalue\n    /* \"--CODEGEN--\":8:17   */\n  dup1\n    /* \"--CODEGEN--\":5:7   */\n  iszero\n  tag_1\n  jumpi\n    /* \"--CODEGEN--\":30:31   */\n  0x0\n    /* \"--CODEGEN--\":27:28   */\n  dup1\n    /* \"--CODEGEN--\":20:32   */\n  revert\n    /* \"--CODEGEN--\":5:7   */\ntag_1:\n    /* \"值类型/addressTest.sol\":1014:1257  contract FuntionTest1 {\r... */\n  pop\n  dataSize(sub_0)\n  dup1\n  dataOffset(sub_0)\n  0x0\n  codecopy\n  0x0\n  return\nstop\n\nsub_0: assembly {\n        /* \"值类型/addressTest.sol\":1014:1257  contract FuntionTest1 {\r... */\n      mstore(0x40, 0x80)\n      jumpi(tag_1, lt(calldatasize, 0x4))\n      calldataload(0x0)\n      0x100000000000000000000000000000000000000000000000000000000\n      swap1\n      div\n      0xffffffff\n      and\n      dup1\n      0xce82b1d\n      eq\n      tag_2\n      jumpi\n    tag_1:\n      0x0\n      dup1\n      revert\n        /* \"值类型/addressTest.sol\":1043:1254  function externalCall(FuntionTest ft) {\r... */\n    tag_2:\n      callvalue\n        /* \"--CODEGEN--\":8:17   */\n      dup1\n        /* \"--CODEGEN--\":5:7   */\n      iszero\n      tag_3\n      jumpi\n        /* \"--CODEGEN--\":30:31   */\n      0x0\n        /* \"--CODEGEN--\":27:28   */\n      dup1\n        /* \"--CODEGEN--\":20:32   */\n      revert\n        /* \"--CODEGEN--\":5:7   */\n    tag_3:\n        /* \"值类型/addressTest.sol\":1043:1254  function externalCall(FuntionTest ft) {\r... */\n      pop\n      tag_4\n      0x4\n      dup1\n      calldatasize\n      sub\n      dup2\n      add\n      swap1\n      dup1\n      dup1\n      calldataload\n      0xffffffffffffffffffffffffffffffffffffffff\n      and\n      swap1\n      0x20\n      add\n      swap1\n      swap3\n      swap2\n      swap1\n      pop\n      pop\n      pop\n      jump(tag_5)\n    tag_4:\n      stop\n    tag_5:\n        /* \"值类型/addressTest.sol\":1142:1144  ft */\n      dup1\n        /* \"值类型/addressTest.sol\":1142:1157  ft.externalFunc */\n      0xffffffffffffffffffffffffffffffffffffffff\n      and\n      0x42b148aa\n        /* \"值类型/addressTest.sol\":1142:1159  ft.externalFunc() */\n      mload(0x40)\n      dup2\n      0xffffffff\n      and\n      0x100000000000000000000000000000000000000000000000000000000\n      mul\n      dup2\n      mstore\n      0x4\n      add\n      0x0\n      mload(0x40)\n      dup1\n      dup4\n      sub\n      dup2\n      0x0\n      dup8\n      dup1\n      extcodesize\n      iszero\n        /* \"--CODEGEN--\":8:17   */\n      dup1\n        /* \"--CODEGEN--\":5:7   */\n      iszero\n      tag_7\n      jumpi\n        /* \"--CODEGEN--\":30:31   */\n      0x0\n        /* \"--CODEGEN--\":27:28   */\n      dup1\n        /* \"--CODEGEN--\":20:32   */\n      revert\n        /* \"--CODEGEN--\":5:7   */\n    tag_7:\n        /* \"值类型/addressTest.sol\":1142:1159  ft.externalFunc() */\n      pop\n      gas\n      call\n      iszero\n        /* \"--CODEGEN--\":8:17   */\n      dup1\n        /* \"--CODEGEN--\":5:7   */\n      iszero\n      tag_8\n      jumpi\n        /* \"--CODEGEN--\":45:61   */\n      returndatasize\n        /* \"--CODEGEN--\":42:43   */\n      0x0\n        /* \"--CODEGEN--\":39:40   */\n      dup1\n        /* \"--CODEGEN--\":24:62   */\n      returndatacopy\n        /* \"--CODEGEN--\":77:93   */\n      returndatasize\n        /* \"--CODEGEN--\":74:75   */\n      0x0\n        /* \"--CODEGEN--\":67:94   */\n      revert\n        /* \"--CODEGEN--\":5:7   */\n    tag_8:\n        /* \"值类型/addressTest.sol\":1142:1159  ft.externalFunc() */\n      pop\n      pop\n      pop\n      pop\n        /* \"值类型/addressTest.sol\":1043:1254  function externalCall(FuntionTest ft) {\r... */\n      pop\n      jump\t// out\n\n    auxdata: 0xa165627a7a723058207fe30e38827ddcf2d5d0d8dc2f9cedb2199e6c343c339a198f5995e4208a15350029\n}\n",
				"bytecode": {
					"linkReferences": {},
					"object": "608060405234801561001057600080fd5b50610134806100206000396000f300608060405260043610610041576000357c0100000000000000000000000000000000000000000000000000000000900463ffffffff1680630ce82b1d14610046575b600080fd5b34801561005257600080fd5b50610087600480360381019080803573ffffffffffffffffffffffffffffffffffffffff169060200190929190505050610089565b005b8073ffffffffffffffffffffffffffffffffffffffff166342b148aa6040518163ffffffff167c0100000000000000000000000000000000000000000000000000000000028152600401600060405180830381600087803b1580156100ed57600080fd5b505af1158015610101573d6000803e3d6000fd5b50505050505600a165627a7a723058207fe30e38827ddcf2d5d0d8dc2f9cedb2199e6c343c339a198f5995e4208a15350029",
					"opcodes": "PUSH1 0x80 PUSH1 0x40 MSTORE CALLVALUE DUP1 ISZERO PUSH2 0x10 JUMPI PUSH1 0x0 DUP1 REVERT JUMPDEST POP PUSH2 0x134 DUP1 PUSH2 0x20 PUSH1 0x0 CODECOPY PUSH1 0x0 RETURN STOP PUSH1 0x80 PUSH1 0x40 MSTORE PUSH1 0x4 CALLDATASIZE LT PUSH2 0x41 JUMPI PUSH1 0x0 CALLDATALOAD PUSH29 0x100000000000000000000000000000000000000000000000000000000 SWAP1 DIV PUSH4 0xFFFFFFFF AND DUP1 PUSH4 0xCE82B1D EQ PUSH2 0x46 JUMPI JUMPDEST PUSH1 0x0 DUP1 REVERT JUMPDEST CALLVALUE DUP1 ISZERO PUSH2 0x52 JUMPI PUSH1 0x0 DUP1 REVERT JUMPDEST POP PUSH2 0x87 PUSH1 0x4 DUP1 CALLDATASIZE SUB DUP2 ADD SWAP1 DUP1 DUP1 CALLDATALOAD PUSH20 0xFFFFFFFFFFFFFFFFFFFFFFFFFFFFFFFFFFFFFFFF AND SWAP1 PUSH1 0x20 ADD SWAP1 SWAP3 SWAP2 SWAP1 POP POP POP PUSH2 0x89 JUMP JUMPDEST STOP JUMPDEST DUP1 PUSH20 0xFFFFFFFFFFFFFFFFFFFFFFFFFFFFFFFFFFFFFFFF AND PUSH4 0x42B148AA PUSH1 0x40 MLOAD DUP2 PUSH4 0xFFFFFFFF AND PUSH29 0x100000000000000000000000000000000000000000000000000000000 MUL DUP2 MSTORE PUSH1 0x4 ADD PUSH1 0x0 PUSH1 0x40 MLOAD DUP1 DUP4 SUB DUP2 PUSH1 0x0 DUP8 DUP1 EXTCODESIZE ISZERO DUP1 ISZERO PUSH2 0xED JUMPI PUSH1 0x0 DUP1 REVERT JUMPDEST POP GAS CALL ISZERO DUP1 ISZERO PUSH2 0x101 JUMPI RETURNDATASIZE PUSH1 0x0 DUP1 RETURNDATACOPY RETURNDATASIZE PUSH1 0x0 REVERT JUMPDEST POP POP POP POP POP JUMP STOP LOG1 PUSH6 0x627A7A723058 KECCAK256 PUSH32 0xE30E38827DDCF2D5D0D8DC2F9CEDB2199E6C343C339A198F5995E4208A153500 0x29 "
				},
				"gasEstimates": {
					"creation": {
						"codeDepositCost": "61600",
						"executionCost": "111",
						"totalCost": "61711"
					},
					"external": {
						"externalCall(address)": "infinite"
					}
				},
				"methodIdentifiers": {
					"externalCall(address)": "0ce82b1d"
				}
			},
			"userdoc": {
				"methods": {}
			}
		}
	}
}