{
	"合约结构/SolidityStructure.sol": {
		"SolidityStructure": {
			"abi": [
				{
					"constant": true,
					"inputs": [
						{
							"name": "amount",
							"type": "uint256"
						}
					],
					"name": "update",
					"outputs": [
						{
							"name": "",
							"type": "address"
						},
						{
							"name": "",
							"type": "uint256"
						}
					],
					"payable": false,
					"stateMutability": "view",
					"type": "function"
				},
				{
					"constant": false,
					"inputs": [],
					"name": "test",
					"outputs": [],
					"payable": false,
					"stateMutability": "nonpayable",
					"type": "function"
				},
				{
					"inputs": [],
					"payable": false,
					"stateMutability": "nonpayable",
					"type": "constructor"
				}
			],
			"devdoc": {
				"methods": {}
			},
			"evm": {
				"assembly": "    /* \"合约结构/SolidityStructure.sol\":81:919  contract SolidityStructure {    //  合约声明\r... */\n  mstore(0x40, 0x80)\n    /* \"合约结构/SolidityStructure.sol\":294:370  constructor() public {  //  构造函数\r... */\n  callvalue\n    /* \"--CODEGEN--\":8:17   */\n  dup1\n    /* \"--CODEGEN--\":5:7   */\n  iszero\n  tag_1\n  jumpi\n    /* \"--CODEGEN--\":30:31   */\n  0x0\n    /* \"--CODEGEN--\":27:28   */\n  dup1\n    /* \"--CODEGEN--\":20:32   */\n  revert\n    /* \"--CODEGEN--\":5:7   */\ntag_1:\n    /* \"合约结构/SolidityStructure.sol\":294:370  constructor() public {  //  构造函数\r... */\n  pop\n    /* \"合约结构/SolidityStructure.sol\":352:362  msg.sender */\n  caller\n    /* \"合约结构/SolidityStructure.sol\":344:349  owner */\n  0x1\n  0x0\n    /* \"合约结构/SolidityStructure.sol\":344:362  owner = msg.sender */\n  0x100\n  exp\n  dup2\n  sload\n  dup2\n  0xffffffffffffffffffffffffffffffffffffffff\n  mul\n  not\n  and\n  swap1\n  dup4\n  0xffffffffffffffffffffffffffffffffffffffff\n  and\n  mul\n  or\n  swap1\n  sstore\n  pop\n    /* \"合约结构/SolidityStructure.sol\":81:919  contract SolidityStructure {    //  合约声明\r... */\n  dataSize(sub_0)\n  dup1\n  dataOffset(sub_0)\n  0x0\n  codecopy\n  0x0\n  return\nstop\n\nsub_0: assembly {\n        /* \"合约结构/SolidityStructure.sol\":81:919  contract SolidityStructure {    //  合约声明\r... */\n      mstore(0x40, 0x80)\n      jumpi(tag_1, lt(calldatasize, 0x4))\n      calldataload(0x0)\n      0x100000000000000000000000000000000000000000000000000000000\n      swap1\n      div\n      0xffffffff\n      and\n      dup1\n      0x82ab890a\n      eq\n      tag_2\n      jumpi\n      dup1\n      0xf8a8fd6d\n      eq\n      tag_3\n      jumpi\n    tag_1:\n      0x0\n      dup1\n      revert\n        /* \"合约结构/SolidityStructure.sol\":770:906  function update(uint amount) constant returns(address, uint) {\r... */\n    tag_2:\n      callvalue\n        /* \"--CODEGEN--\":8:17   */\n      dup1\n        /* \"--CODEGEN--\":5:7   */\n      iszero\n      tag_4\n      jumpi\n        /* \"--CODEGEN--\":30:31   */\n      0x0\n        /* \"--CODEGEN--\":27:28   */\n      dup1\n        /* \"--CODEGEN--\":20:32   */\n      revert\n        /* \"--CODEGEN--\":5:7   */\n    tag_4:\n        /* \"合约结构/SolidityStructure.sol\":770:906  function update(uint amount) constant returns(address, uint) {\r... */\n      pop\n      tag_5\n      0x4\n      dup1\n      calldatasize\n      sub\n      dup2\n      add\n      swap1\n      dup1\n      dup1\n      calldataload\n      swap1\n      0x20\n      add\n      swap1\n      swap3\n      swap2\n      swap1\n      pop\n      pop\n      pop\n      jump(tag_6)\n    tag_5:\n      mload(0x40)\n      dup1\n      dup4\n      0xffffffffffffffffffffffffffffffffffffffff\n      and\n      0xffffffffffffffffffffffffffffffffffffffff\n      and\n      dup2\n      mstore\n      0x20\n      add\n      dup3\n      dup2\n      mstore\n      0x20\n      add\n      swap3\n      pop\n      pop\n      pop\n      mload(0x40)\n      dup1\n      swap2\n      sub\n      swap1\n      return\n        /* \"合约结构/SolidityStructure.sol\":575:731  function test() public {    //  函数\r... */\n    tag_3:\n      callvalue\n        /* \"--CODEGEN--\":8:17   */\n      dup1\n        /* \"--CODEGEN--\":5:7   */\n      iszero\n      tag_7\n      jumpi\n        /* \"--CODEGEN--\":30:31   */\n      0x0\n        /* \"--CODEGEN--\":27:28   */\n      dup1\n        /* \"--CODEGEN--\":20:32   */\n      revert\n        /* \"--CODEGEN--\":5:7   */\n    tag_7:\n        /* \"合约结构/SolidityStructure.sol\":575:731  function test() public {    //  函数\r... */\n      pop\n      tag_8\n      jump(tag_9)\n    tag_8:\n      stop\n        /* \"合约结构/SolidityStructure.sol\":770:906  function update(uint amount) constant returns(address, uint) {\r... */\n    tag_6:\n        /* \"合约结构/SolidityStructure.sol\":816:823  address */\n      0x0\n        /* \"合约结构/SolidityStructure.sol\":825:829  uint */\n      dup1\n        /* \"合约结构/SolidityStructure.sol\":853:859  amount */\n      dup3\n        /* \"合约结构/SolidityStructure.sol\":842:849  balance */\n      0x0\n      dup1\n        /* \"合约结构/SolidityStructure.sol\":842:859  balance += amount */\n      dup3\n      dup3\n      sload\n      add\n      swap3\n      pop\n      pop\n      dup2\n      swap1\n      sstore\n      pop\n        /* \"合约结构/SolidityStructure.sol\":878:888  msg.sender */\n      caller\n        /* \"合约结构/SolidityStructure.sol\":890:897  balance */\n      sload(0x0)\n        /* \"合约结构/SolidityStructure.sol\":870:898  return (msg.sender, balance) */\n      swap2\n      pop\n      swap2\n      pop\n        /* \"合约结构/SolidityStructure.sol\":770:906  function update(uint amount) constant returns(address, uint) {\r... */\n      swap2\n      pop\n      swap2\n      jump\t// out\n        /* \"合约结构/SolidityStructure.sol\":575:731  function test() public {    //  函数\r... */\n    tag_9:\n        /* \"合约结构/SolidityStructure.sol\":623:632  uint step */\n      0x0\n        /* \"合约结构/SolidityStructure.sol\":635:637  10 */\n      0xa\n        /* \"合约结构/SolidityStructure.sol\":623:637  uint step = 10 */\n      swap1\n      pop\n        /* \"合约结构/SolidityStructure.sol\":661:671  msg.sender */\n      caller\n        /* \"合约结构/SolidityStructure.sol\":652:671  owner == msg.sender */\n      0xffffffffffffffffffffffffffffffffffffffff\n      and\n        /* \"合约结构/SolidityStructure.sol\":652:657  owner */\n      0x1\n      0x0\n      swap1\n      sload\n      swap1\n      0x100\n      exp\n      swap1\n      div\n      0xffffffffffffffffffffffffffffffffffffffff\n      and\n        /* \"合约结构/SolidityStructure.sol\":652:671  owner == msg.sender */\n      0xffffffffffffffffffffffffffffffffffffffff\n      and\n      eq\n        /* \"合约结构/SolidityStructure.sol\":648:724  if (owner == msg.sender) {\r... */\n      iszero\n      tag_12\n      jumpi\n        /* \"合约结构/SolidityStructure.sol\":708:712  step */\n      dup1\n        /* \"合约结构/SolidityStructure.sol\":698:705  balance */\n      sload(0x0)\n        /* \"合约结构/SolidityStructure.sol\":698:712  balance + step */\n      add\n        /* \"合约结构/SolidityStructure.sol\":688:695  balance */\n      0x0\n        /* \"合约结构/SolidityStructure.sol\":688:712  balance = balance + step */\n      dup2\n      swap1\n      sstore\n      pop\n        /* \"合约结构/SolidityStructure.sol\":648:724  if (owner == msg.sender) {\r... */\n    tag_12:\n        /* \"合约结构/SolidityStructure.sol\":575:731  function test() public {    //  函数\r... */\n      pop\n      jump\t// out\n\n    auxdata: 0xa165627a7a7230582002c1bb7d271edfeb7e7e6113f581568317e1a43ceae10f19e7b1f20be1f14e3d0029\n}\n",
				"bytecode": {
					"linkReferences": {},
					"object": "608060405234801561001057600080fd5b5033600160006101000a81548173ffffffffffffffffffffffffffffffffffffffff021916908373ffffffffffffffffffffffffffffffffffffffff160217905550610192806100616000396000f30060806040526004361061004c576000357c0100000000000000000000000000000000000000000000000000000000900463ffffffff16806382ab890a14610051578063f8a8fd6d146100c5575b600080fd5b34801561005d57600080fd5b5061007c600480360381019080803590602001909291905050506100dc565b604051808373ffffffffffffffffffffffffffffffffffffffff1673ffffffffffffffffffffffffffffffffffffffff1681526020018281526020019250505060405180910390f35b3480156100d157600080fd5b506100da6100fb565b005b6000808260008082825401925050819055503360005491509150915091565b6000600a90503373ffffffffffffffffffffffffffffffffffffffff16600160009054906101000a900473ffffffffffffffffffffffffffffffffffffffff1673ffffffffffffffffffffffffffffffffffffffff1614156101635780600054016000819055505b505600a165627a7a7230582002c1bb7d271edfeb7e7e6113f581568317e1a43ceae10f19e7b1f20be1f14e3d0029",
					"opcodes": "PUSH1 0x80 PUSH1 0x40 MSTORE CALLVALUE DUP1 ISZERO PUSH2 0x10 JUMPI PUSH1 0x0 DUP1 REVERT JUMPDEST POP CALLER PUSH1 0x1 PUSH1 0x0 PUSH2 0x100 EXP DUP2 SLOAD DUP2 PUSH20 0xFFFFFFFFFFFFFFFFFFFFFFFFFFFFFFFFFFFFFFFF MUL NOT AND SWAP1 DUP4 PUSH20 0xFFFFFFFFFFFFFFFFFFFFFFFFFFFFFFFFFFFFFFFF AND MUL OR SWAP1 SSTORE POP PUSH2 0x192 DUP1 PUSH2 0x61 PUSH1 0x0 CODECOPY PUSH1 0x0 RETURN STOP PUSH1 0x80 PUSH1 0x40 MSTORE PUSH1 0x4 CALLDATASIZE LT PUSH2 0x4C JUMPI PUSH1 0x0 CALLDATALOAD PUSH29 0x100000000000000000000000000000000000000000000000000000000 SWAP1 DIV PUSH4 0xFFFFFFFF AND DUP1 PUSH4 0x82AB890A EQ PUSH2 0x51 JUMPI DUP1 PUSH4 0xF8A8FD6D EQ PUSH2 0xC5 JUMPI JUMPDEST PUSH1 0x0 DUP1 REVERT JUMPDEST CALLVALUE DUP1 ISZERO PUSH2 0x5D JUMPI PUSH1 0x0 DUP1 REVERT JUMPDEST POP PUSH2 0x7C PUSH1 0x4 DUP1 CALLDATASIZE SUB DUP2 ADD SWAP1 DUP1 DUP1 CALLDATALOAD SWAP1 PUSH1 0x20 ADD SWAP1 SWAP3 SWAP2 SWAP1 POP POP POP PUSH2 0xDC JUMP JUMPDEST PUSH1 0x40 MLOAD DUP1 DUP4 PUSH20 0xFFFFFFFFFFFFFFFFFFFFFFFFFFFFFFFFFFFFFFFF AND PUSH20 0xFFFFFFFFFFFFFFFFFFFFFFFFFFFFFFFFFFFFFFFF AND DUP2 MSTORE PUSH1 0x20 ADD DUP3 DUP2 MSTORE PUSH1 0x20 ADD SWAP3 POP POP POP PUSH1 0x40 MLOAD DUP1 SWAP2 SUB SWAP1 RETURN JUMPDEST CALLVALUE DUP1 ISZERO PUSH2 0xD1 JUMPI PUSH1 0x0 DUP1 REVERT JUMPDEST POP PUSH2 0xDA PUSH2 0xFB JUMP JUMPDEST STOP JUMPDEST PUSH1 0x0 DUP1 DUP3 PUSH1 0x0 DUP1 DUP3 DUP3 SLOAD ADD SWAP3 POP POP DUP2 SWAP1 SSTORE POP CALLER PUSH1 0x0 SLOAD SWAP2 POP SWAP2 POP SWAP2 POP SWAP2 JUMP JUMPDEST PUSH1 0x0 PUSH1 0xA SWAP1 POP CALLER PUSH20 0xFFFFFFFFFFFFFFFFFFFFFFFFFFFFFFFFFFFFFFFF AND PUSH1 0x1 PUSH1 0x0 SWAP1 SLOAD SWAP1 PUSH2 0x100 EXP SWAP1 DIV PUSH20 0xFFFFFFFFFFFFFFFFFFFFFFFFFFFFFFFFFFFFFFFF AND PUSH20 0xFFFFFFFFFFFFFFFFFFFFFFFFFFFFFFFFFFFFFFFF AND EQ ISZERO PUSH2 0x163 JUMPI DUP1 PUSH1 0x0 SLOAD ADD PUSH1 0x0 DUP2 SWAP1 SSTORE POP JUMPDEST POP JUMP STOP LOG1 PUSH6 0x627A7A723058 KECCAK256 MUL 0xc1 0xbb PUSH30 0x271EDFEB7E7E6113F581568317E1A43CEAE10F19E7B1F20BE1F14E3D0029 "
				},
				"gasEstimates": {
					"creation": {
						"codeDepositCost": "80400",
						"executionCost": "20395",
						"totalCost": "100795"
					},
					"external": {
						"test()": "20661",
						"update(uint256)": "20738"
					}
				},
				"methodIdentifiers": {
					"test()": "f8a8fd6d",
					"update(uint256)": "82ab890a"
				}
			},
			"userdoc": {
				"methods": {}
			}
		}
	}
}