{
	"合约结构/usingTest.sol": {
		"LibraryTest": {
			"abi": [
				{
					"constant": false,
					"inputs": [
						{
							"name": "a",
							"type": "uint256"
						}
					],
					"name": "use",
					"outputs": [
						{
							"name": "",
							"type": "uint256"
						}
					],
					"payable": false,
					"stateMutability": "nonpayable",
					"type": "function"
				}
			],
			"devdoc": {
				"methods": {}
			},
			"evm": {
				"assembly": "    /* \"合约结构/usingTest.sol\":60:156  library LibraryTest {\r... */\n  dataSize(sub_0)\n  dataOffset(sub_0)\n    /* \"--CODEGEN--\":132:134   */\n  0xb\n    /* \"--CODEGEN--\":166:173   */\n  dup3\n    /* \"--CODEGEN--\":155:164   */\n  dup3\n    /* \"--CODEGEN--\":146:153   */\n  dup3\n    /* \"--CODEGEN--\":137:174   */\n  codecopy\n    /* \"--CODEGEN--\":252:259   */\n  dup1\n    /* \"--CODEGEN--\":246:260   */\n  mload\n    /* \"--CODEGEN--\":243:244   */\n  0x0\n    /* \"--CODEGEN--\":238:261   */\n  byte\n    /* \"--CODEGEN--\":232:236   */\n  0x73\n    /* \"--CODEGEN--\":229:262   */\n  eq\n    /* \"--CODEGEN--\":270:271   */\n  0x0\n    /* \"--CODEGEN--\":265:285   */\n  dup2\n  eq\n  tag_2\n  jumpi\n    /* \"--CODEGEN--\":222:285   */\n  jump(tag_1)\n    /* \"--CODEGEN--\":265:285   */\ntag_2:\n    /* \"--CODEGEN--\":274:283   */\n  invalid\n    /* \"--CODEGEN--\":222:285   */\ntag_1:\n  pop\n    /* \"--CODEGEN--\":298:307   */\n  address\n    /* \"--CODEGEN--\":295:296   */\n  0x0\n    /* \"--CODEGEN--\":288:308   */\n  mstore\n    /* \"--CODEGEN--\":328:332   */\n  0x73\n    /* \"--CODEGEN--\":319:326   */\n  dup2\n    /* \"--CODEGEN--\":311:333   */\n  mstore8\n    /* \"--CODEGEN--\":352:359   */\n  dup3\n    /* \"--CODEGEN--\":343:350   */\n  dup2\n    /* \"--CODEGEN--\":336:360   */\n  return\nstop\n\nsub_0: assembly {\n        /* \"合约结构/usingTest.sol\":60:156  library LibraryTest {\r... */\n      eq(address, deployTimeAddress())\n      mstore(0x40, 0x80)\n      jumpi(tag_1, lt(calldatasize, 0x4))\n      calldataload(0x0)\n      0x100000000000000000000000000000000000000000000000000000000\n      swap1\n      div\n      0xffffffff\n      and\n      dup1\n      0xab5b4456\n      eq\n      tag_2\n      jumpi\n    tag_1:\n      0x0\n      dup1\n      revert\n        /* \"合约结构/usingTest.sol\":87:153  function use(uint a) returns(uint) {\r... */\n    tag_2:\n      dup2\n        /* \"--CODEGEN--\":8:17   */\n      dup1\n        /* \"--CODEGEN--\":5:7   */\n      iszero\n      tag_3\n      jumpi\n        /* \"--CODEGEN--\":30:31   */\n      0x0\n        /* \"--CODEGEN--\":27:28   */\n      dup1\n        /* \"--CODEGEN--\":20:32   */\n      revert\n        /* \"--CODEGEN--\":5:7   */\n    tag_3:\n        /* \"合约结构/usingTest.sol\":87:153  function use(uint a) returns(uint) {\r... */\n      pop\n      tag_4\n      0x4\n      dup1\n      calldatasize\n      sub\n      dup2\n      add\n      swap1\n      dup1\n      dup1\n      calldataload\n      swap1\n      0x20\n      add\n      swap1\n      swap3\n      swap2\n      swap1\n      pop\n      pop\n      pop\n      jump(tag_5)\n    tag_4:\n      mload(0x40)\n      dup1\n      dup3\n      dup2\n      mstore\n      0x20\n      add\n      swap2\n      pop\n      pop\n      mload(0x40)\n      dup1\n      swap2\n      sub\n      swap1\n      return\n    tag_5:\n        /* \"合约结构/usingTest.sol\":116:120  uint */\n      0x0\n        /* \"合约结构/usingTest.sol\":144:145  1 */\n      0x1\n        /* \"合约结构/usingTest.sol\":140:141  a */\n      dup3\n        /* \"合约结构/usingTest.sol\":140:145  a + 1 */\n      add\n        /* \"合约结构/usingTest.sol\":133:145  return a + 1 */\n      swap1\n      pop\n        /* \"合约结构/usingTest.sol\":87:153  function use(uint a) returns(uint) {\r... */\n      swap2\n      swap1\n      pop\n      jump\t// out\n\n    auxdata: 0xa165627a7a723058207ded09b587ad4f89384275d8c8a87d20483376bc70ef7f6a19a7ea0e8acdb4f10029\n}\n",
				"bytecode": {
					"linkReferences": {},
					"object": "60d261002f600b82828239805160001a6073146000811461001f57610021565bfe5b5030600052607381538281f30073000000000000000000000000000000000000000030146080604052600436106056576000357c0100000000000000000000000000000000000000000000000000000000900463ffffffff168063ab5b445614605b575b600080fd5b818015606657600080fd5b506083600480360381019080803590602001909291905050506099565b6040518082815260200191505060405180910390f35b60006001820190509190505600a165627a7a723058207ded09b587ad4f89384275d8c8a87d20483376bc70ef7f6a19a7ea0e8acdb4f10029",
					"opcodes": "PUSH1 0xD2 PUSH2 0x2F PUSH1 0xB DUP3 DUP3 DUP3 CODECOPY DUP1 MLOAD PUSH1 0x0 BYTE PUSH1 0x73 EQ PUSH1 0x0 DUP2 EQ PUSH2 0x1F JUMPI PUSH2 0x21 JUMP JUMPDEST INVALID JUMPDEST POP ADDRESS PUSH1 0x0 MSTORE PUSH1 0x73 DUP2 MSTORE8 DUP3 DUP2 RETURN STOP PUSH20 0x0 ADDRESS EQ PUSH1 0x80 PUSH1 0x40 MSTORE PUSH1 0x4 CALLDATASIZE LT PUSH1 0x56 JUMPI PUSH1 0x0 CALLDATALOAD PUSH29 0x100000000000000000000000000000000000000000000000000000000 SWAP1 DIV PUSH4 0xFFFFFFFF AND DUP1 PUSH4 0xAB5B4456 EQ PUSH1 0x5B JUMPI JUMPDEST PUSH1 0x0 DUP1 REVERT JUMPDEST DUP2 DUP1 ISZERO PUSH1 0x66 JUMPI PUSH1 0x0 DUP1 REVERT JUMPDEST POP PUSH1 0x83 PUSH1 0x4 DUP1 CALLDATASIZE SUB DUP2 ADD SWAP1 DUP1 DUP1 CALLDATALOAD SWAP1 PUSH1 0x20 ADD SWAP1 SWAP3 SWAP2 SWAP1 POP POP POP PUSH1 0x99 JUMP JUMPDEST PUSH1 0x40 MLOAD DUP1 DUP3 DUP2 MSTORE PUSH1 0x20 ADD SWAP2 POP POP PUSH1 0x40 MLOAD DUP1 SWAP2 SUB SWAP1 RETURN JUMPDEST PUSH1 0x0 PUSH1 0x1 DUP3 ADD SWAP1 POP SWAP2 SWAP1 POP JUMP STOP LOG1 PUSH6 0x627A7A723058 KECCAK256 PUSH30 0xED09B587AD4F89384275D8C8A87D20483376BC70EF7F6A19A7EA0E8ACDB4 CALL STOP 0x29 "
				},
				"gasEstimates": {
					"creation": {
						"codeDepositCost": "42000",
						"executionCost": "140",
						"totalCost": "42140"
					},
					"external": {
						"use(uint256)": "278"
					}
				},
				"methodIdentifiers": {
					"use(uint256)": "ab5b4456"
				}
			},
			"userdoc": {
				"methods": {}
			}
		}
	}
}