{
	"do_while循环/do_while_test.sol": {
		"Example": {
			"abi": [
				{
					"inputs": [],
					"name": "countDowm",
					"outputs": [
						{
							"internalType": "uint256",
							"name": "",
							"type": "uint256"
						}
					],
					"stateMutability": "payable",
					"type": "function"
				},
				{
					"inputs": [
						{
							"internalType": "uint256",
							"name": "_counter",
							"type": "uint256"
						}
					],
					"name": "setCounter",
					"outputs": [],
					"stateMutability": "nonpayable",
					"type": "function"
				}
			],
			"devdoc": {
				"kind": "dev",
				"methods": {},
				"version": 1
			},
			"evm": {
				"assembly": "    /* \"do_while\\xe5\\xbe\\xaa\\xe7\\x8e\\xaf/do_while_test.sol\":60:357  contract Example {\r... */\n  mstore(0x40, 0x80)\n  callvalue\n  dup1\n  iszero\n  tag_1\n  jumpi\n  0x00\n  dup1\n  revert\ntag_1:\n  pop\n  dataSize(sub_0)\n  dup1\n  dataOffset(sub_0)\n  0x00\n  codecopy\n  0x00\n  return\nstop\n\nsub_0: assembly {\n        /* \"do_while\\xe5\\xbe\\xaa\\xe7\\x8e\\xaf/do_while_test.sol\":60:357  contract Example {\r... */\n      mstore(0x40, 0x80)\n      jumpi(tag_1, lt(calldatasize, 0x04))\n      shr(0xe0, calldataload(0x00))\n      dup1\n      0x8bb5d9c3\n      eq\n      tag_2\n      jumpi\n      dup1\n      0xf2b2ee28\n      eq\n      tag_3\n      jumpi\n    tag_1:\n      0x00\n      dup1\n      revert\n        /* \"do_while\\xe5\\xbe\\xaa\\xe7\\x8e\\xaf/do_while_test.sol\":113:192  function setCounter(uint _counter) public {\r... */\n    tag_2:\n      callvalue\n      dup1\n      iszero\n      tag_4\n      jumpi\n      0x00\n      dup1\n      revert\n    tag_4:\n      pop\n      tag_5\n      0x04\n      dup1\n      calldatasize\n      sub\n      dup2\n      add\n      swap1\n      tag_6\n      swap2\n      swap1\n      tag_7\n      jump\t// in\n    tag_6:\n      tag_8\n      jump\t// in\n    tag_5:\n      stop\n        /* \"do_while\\xe5\\xbe\\xaa\\xe7\\x8e\\xaf/do_while_test.sol\":200:354  function countDowm() public payable returns (uint) {\r... */\n    tag_3:\n      tag_9\n      tag_10\n      jump\t// in\n    tag_9:\n      mload(0x40)\n      tag_11\n      swap2\n      swap1\n      tag_12\n      jump\t// in\n    tag_11:\n      mload(0x40)\n      dup1\n      swap2\n      sub\n      swap1\n      return\n        /* \"do_while\\xe5\\xbe\\xaa\\xe7\\x8e\\xaf/do_while_test.sol\":113:192  function setCounter(uint _counter) public {\r... */\n    tag_8:\n        /* \"do_while\\xe5\\xbe\\xaa\\xe7\\x8e\\xaf/do_while_test.sol\":176:184  _counter */\n      dup1\n        /* \"do_while\\xe5\\xbe\\xaa\\xe7\\x8e\\xaf/do_while_test.sol\":166:173  counter */\n      0x00\n        /* \"do_while\\xe5\\xbe\\xaa\\xe7\\x8e\\xaf/do_while_test.sol\":166:184  counter = _counter */\n      dup2\n      swap1\n      sstore\n      pop\n        /* \"do_while\\xe5\\xbe\\xaa\\xe7\\x8e\\xaf/do_while_test.sol\":113:192  function setCounter(uint _counter) public {\r... */\n      pop\n      jump\t// out\n        /* \"do_while\\xe5\\xbe\\xaa\\xe7\\x8e\\xaf/do_while_test.sol\":200:354  function countDowm() public payable returns (uint) {\r... */\n    tag_10:\n        /* \"do_while\\xe5\\xbe\\xaa\\xe7\\x8e\\xaf/do_while_test.sol\":245:249  uint */\n      0x00\n        /* \"do_while\\xe5\\xbe\\xaa\\xe7\\x8e\\xaf/do_while_test.sol\":262:322  do {\r... */\n    tag_15:\n        /* \"do_while\\xe5\\xbe\\xaa\\xe7\\x8e\\xaf/do_while_test.sol\":280:287  counter */\n      0x00\n      dup1\n        /* \"do_while\\xe5\\xbe\\xaa\\xe7\\x8e\\xaf/do_while_test.sol\":280:289  counter-- */\n      dup2\n      sload\n      dup1\n      swap3\n      swap2\n      swap1\n      tag_18\n      swap1\n      tag_19\n      jump\t// in\n    tag_18:\n      swap2\n      swap1\n      pop\n      sstore\n      pop\n        /* \"do_while\\xe5\\xbe\\xaa\\xe7\\x8e\\xaf/do_while_test.sol\":319:320  0 */\n      0x00\n        /* \"do_while\\xe5\\xbe\\xaa\\xe7\\x8e\\xaf/do_while_test.sol\":309:316  counter */\n      dup1\n      sload\n        /* \"do_while\\xe5\\xbe\\xaa\\xe7\\x8e\\xaf/do_while_test.sol\":309:320  counter > 0 */\n      gt\n        /* \"do_while\\xe5\\xbe\\xaa\\xe7\\x8e\\xaf/do_while_test.sol\":262:322  do {\r... */\n      tag_15\n      jumpi\n        /* \"do_while\\xe5\\xbe\\xaa\\xe7\\x8e\\xaf/do_while_test.sol\":339:346  counter */\n      sload(0x00)\n        /* \"do_while\\xe5\\xbe\\xaa\\xe7\\x8e\\xaf/do_while_test.sol\":332:346  return counter */\n      swap1\n      pop\n        /* \"do_while\\xe5\\xbe\\xaa\\xe7\\x8e\\xaf/do_while_test.sol\":200:354  function countDowm() public payable returns (uint) {\r... */\n      swap1\n      jump\t// out\n        /* \"#utility.yul\":7:146   */\n    tag_21:\n        /* \"#utility.yul\":53:58   */\n      0x00\n        /* \"#utility.yul\":91:97   */\n      dup2\n        /* \"#utility.yul\":78:98   */\n      calldataload\n        /* \"#utility.yul\":69:98   */\n      swap1\n      pop\n        /* \"#utility.yul\":107:140   */\n      tag_23\n        /* \"#utility.yul\":134:139   */\n      dup2\n        /* \"#utility.yul\":107:140   */\n      tag_24\n      jump\t// in\n    tag_23:\n        /* \"#utility.yul\":7:146   */\n      swap3\n      swap2\n      pop\n      pop\n      jump\t// out\n        /* \"#utility.yul\":152:481   */\n    tag_7:\n        /* \"#utility.yul\":211:217   */\n      0x00\n        /* \"#utility.yul\":260:262   */\n      0x20\n        /* \"#utility.yul\":248:257   */\n      dup3\n        /* \"#utility.yul\":239:246   */\n      dup5\n        /* \"#utility.yul\":235:258   */\n      sub\n        /* \"#utility.yul\":231:263   */\n      slt\n        /* \"#utility.yul\":228:347   */\n      iszero\n      tag_26\n      jumpi\n        /* \"#utility.yul\":266:345   */\n      tag_27\n      tag_28\n      jump\t// in\n    tag_27:\n        /* \"#utility.yul\":228:347   */\n    tag_26:\n        /* \"#utility.yul\":386:387   */\n      0x00\n        /* \"#utility.yul\":411:464   */\n      tag_29\n        /* \"#utility.yul\":456:463   */\n      dup5\n        /* \"#utility.yul\":447:453   */\n      dup3\n        /* \"#utility.yul\":436:445   */\n      dup6\n        /* \"#utility.yul\":432:454   */\n      add\n        /* \"#utility.yul\":411:464   */\n      tag_21\n      jump\t// in\n    tag_29:\n        /* \"#utility.yul\":401:464   */\n      swap2\n      pop\n        /* \"#utility.yul\":357:474   */\n      pop\n        /* \"#utility.yul\":152:481   */\n      swap3\n      swap2\n      pop\n      pop\n      jump\t// out\n        /* \"#utility.yul\":487:605   */\n    tag_30:\n        /* \"#utility.yul\":574:598   */\n      tag_32\n        /* \"#utility.yul\":592:597   */\n      dup2\n        /* \"#utility.yul\":574:598   */\n      tag_33\n      jump\t// in\n    tag_32:\n        /* \"#utility.yul\":569:572   */\n      dup3\n        /* \"#utility.yul\":562:599   */\n      mstore\n        /* \"#utility.yul\":487:605   */\n      pop\n      pop\n      jump\t// out\n        /* \"#utility.yul\":611:833   */\n    tag_12:\n        /* \"#utility.yul\":704:708   */\n      0x00\n        /* \"#utility.yul\":742:744   */\n      0x20\n        /* \"#utility.yul\":731:740   */\n      dup3\n        /* \"#utility.yul\":727:745   */\n      add\n        /* \"#utility.yul\":719:745   */\n      swap1\n      pop\n        /* \"#utility.yul\":755:826   */\n      tag_35\n        /* \"#utility.yul\":823:824   */\n      0x00\n        /* \"#utility.yul\":812:821   */\n      dup4\n        /* \"#utility.yul\":808:825   */\n      add\n        /* \"#utility.yul\":799:805   */\n      dup5\n        /* \"#utility.yul\":755:826   */\n      tag_30\n      jump\t// in\n    tag_35:\n        /* \"#utility.yul\":611:833   */\n      swap3\n      swap2\n      pop\n      pop\n      jump\t// out\n        /* \"#utility.yul\":920:997   */\n    tag_33:\n        /* \"#utility.yul\":957:964   */\n      0x00\n        /* \"#utility.yul\":986:991   */\n      dup2\n        /* \"#utility.yul\":975:991   */\n      swap1\n      pop\n        /* \"#utility.yul\":920:997   */\n      swap2\n      swap1\n      pop\n      jump\t// out\n        /* \"#utility.yul\":1003:1174   */\n    tag_19:\n        /* \"#utility.yul\":1042:1045   */\n      0x00\n        /* \"#utility.yul\":1065:1089   */\n      tag_40\n        /* \"#utility.yul\":1083:1088   */\n      dup3\n        /* \"#utility.yul\":1065:1089   */\n      tag_33\n      jump\t// in\n    tag_40:\n        /* \"#utility.yul\":1056:1089   */\n      swap2\n      pop\n        /* \"#utility.yul\":1111:1115   */\n      0x00\n        /* \"#utility.yul\":1104:1109   */\n      dup3\n        /* \"#utility.yul\":1101:1116   */\n      eq\n        /* \"#utility.yul\":1098:1139   */\n      iszero\n      tag_41\n      jumpi\n        /* \"#utility.yul\":1119:1137   */\n      tag_42\n      tag_43\n      jump\t// in\n    tag_42:\n        /* \"#utility.yul\":1098:1139   */\n    tag_41:\n        /* \"#utility.yul\":1166:1167   */\n      0x01\n        /* \"#utility.yul\":1159:1164   */\n      dup3\n        /* \"#utility.yul\":1155:1168   */\n      sub\n        /* \"#utility.yul\":1148:1168   */\n      swap1\n      pop\n        /* \"#utility.yul\":1003:1174   */\n      swap2\n      swap1\n      pop\n      jump\t// out\n        /* \"#utility.yul\":1180:1360   */\n    tag_43:\n        /* \"#utility.yul\":1228:1305   */\n      0x4e487b7100000000000000000000000000000000000000000000000000000000\n        /* \"#utility.yul\":1225:1226   */\n      0x00\n        /* \"#utility.yul\":1218:1306   */\n      mstore\n        /* \"#utility.yul\":1325:1329   */\n      0x11\n        /* \"#utility.yul\":1322:1323   */\n      0x04\n        /* \"#utility.yul\":1315:1330   */\n      mstore\n        /* \"#utility.yul\":1349:1353   */\n      0x24\n        /* \"#utility.yul\":1346:1347   */\n      0x00\n        /* \"#utility.yul\":1339:1354   */\n      revert\n        /* \"#utility.yul\":1489:1606   */\n    tag_28:\n        /* \"#utility.yul\":1598:1599   */\n      0x00\n        /* \"#utility.yul\":1595:1596   */\n      dup1\n        /* \"#utility.yul\":1588:1600   */\n      revert\n        /* \"#utility.yul\":1612:1734   */\n    tag_24:\n        /* \"#utility.yul\":1685:1709   */\n      tag_49\n        /* \"#utility.yul\":1703:1708   */\n      dup2\n        /* \"#utility.yul\":1685:1709   */\n      tag_33\n      jump\t// in\n    tag_49:\n        /* \"#utility.yul\":1678:1683   */\n      dup2\n        /* \"#utility.yul\":1675:1710   */\n      eq\n        /* \"#utility.yul\":1665:1728   */\n      tag_50\n      jumpi\n        /* \"#utility.yul\":1724:1725   */\n      0x00\n        /* \"#utility.yul\":1721:1722   */\n      dup1\n        /* \"#utility.yul\":1714:1726   */\n      revert\n        /* \"#utility.yul\":1665:1728   */\n    tag_50:\n        /* \"#utility.yul\":1612:1734   */\n      pop\n      jump\t// out\n\n    auxdata: 0xa26469706673582212204484f0cd59334568537faed5f46fd691b0a56ae4d67fee99a8795ec433361ad264736f6c63430008070033\n}\n",
				"bytecode": {
					"linkReferences": {},
					"object": "608060405234801561001057600080fd5b506101cb806100206000396000f3fe6080604052600436106100295760003560e01c80638bb5d9c31461002e578063f2b2ee2814610057575b600080fd5b34801561003a57600080fd5b50610055600480360381019061005091906100bf565b610075565b005b61005f61007f565b60405161006c91906100fb565b60405180910390f35b8060008190555050565b60005b60008081548092919061009490610120565b9190505550600080541161008257600054905090565b6000813590506100b98161017e565b92915050565b6000602082840312156100d5576100d4610179565b5b60006100e3848285016100aa565b91505092915050565b6100f581610116565b82525050565b600060208201905061011060008301846100ec565b92915050565b6000819050919050565b600061012b82610116565b9150600082141561013f5761013e61014a565b5b600182039050919050565b7f4e487b7100000000000000000000000000000000000000000000000000000000600052601160045260246000fd5b600080fd5b61018781610116565b811461019257600080fd5b5056fea26469706673582212204484f0cd59334568537faed5f46fd691b0a56ae4d67fee99a8795ec433361ad264736f6c63430008070033",
					"opcodes": "PUSH1 0x80 PUSH1 0x40 MSTORE CALLVALUE DUP1 ISZERO PUSH2 0x10 JUMPI PUSH1 0x0 DUP1 REVERT JUMPDEST POP PUSH2 0x1CB DUP1 PUSH2 0x20 PUSH1 0x0 CODECOPY PUSH1 0x0 RETURN INVALID PUSH1 0x80 PUSH1 0x40 MSTORE PUSH1 0x4 CALLDATASIZE LT PUSH2 0x29 JUMPI PUSH1 0x0 CALLDATALOAD PUSH1 0xE0 SHR DUP1 PUSH4 0x8BB5D9C3 EQ PUSH2 0x2E JUMPI DUP1 PUSH4 0xF2B2EE28 EQ PUSH2 0x57 JUMPI JUMPDEST PUSH1 0x0 DUP1 REVERT JUMPDEST CALLVALUE DUP1 ISZERO PUSH2 0x3A JUMPI PUSH1 0x0 DUP1 REVERT JUMPDEST POP PUSH2 0x55 PUSH1 0x4 DUP1 CALLDATASIZE SUB DUP2 ADD SWAP1 PUSH2 0x50 SWAP2 SWAP1 PUSH2 0xBF JUMP JUMPDEST PUSH2 0x75 JUMP JUMPDEST STOP JUMPDEST PUSH2 0x5F PUSH2 0x7F JUMP JUMPDEST PUSH1 0x40 MLOAD PUSH2 0x6C SWAP2 SWAP1 PUSH2 0xFB JUMP JUMPDEST PUSH1 0x40 MLOAD DUP1 SWAP2 SUB SWAP1 RETURN JUMPDEST DUP1 PUSH1 0x0 DUP2 SWAP1 SSTORE POP POP JUMP JUMPDEST PUSH1 0x0 JUMPDEST PUSH1 0x0 DUP1 DUP2 SLOAD DUP1 SWAP3 SWAP2 SWAP1 PUSH2 0x94 SWAP1 PUSH2 0x120 JUMP JUMPDEST SWAP2 SWAP1 POP SSTORE POP PUSH1 0x0 DUP1 SLOAD GT PUSH2 0x82 JUMPI PUSH1 0x0 SLOAD SWAP1 POP SWAP1 JUMP JUMPDEST PUSH1 0x0 DUP2 CALLDATALOAD SWAP1 POP PUSH2 0xB9 DUP2 PUSH2 0x17E JUMP JUMPDEST SWAP3 SWAP2 POP POP JUMP JUMPDEST PUSH1 0x0 PUSH1 0x20 DUP3 DUP5 SUB SLT ISZERO PUSH2 0xD5 JUMPI PUSH2 0xD4 PUSH2 0x179 JUMP JUMPDEST JUMPDEST PUSH1 0x0 PUSH2 0xE3 DUP5 DUP3 DUP6 ADD PUSH2 0xAA JUMP JUMPDEST SWAP2 POP POP SWAP3 SWAP2 POP POP JUMP JUMPDEST PUSH2 0xF5 DUP2 PUSH2 0x116 JUMP JUMPDEST DUP3 MSTORE POP POP JUMP JUMPDEST PUSH1 0x0 PUSH1 0x20 DUP3 ADD SWAP1 POP PUSH2 0x110 PUSH1 0x0 DUP4 ADD DUP5 PUSH2 0xEC JUMP JUMPDEST SWAP3 SWAP2 POP POP JUMP JUMPDEST PUSH1 0x0 DUP2 SWAP1 POP SWAP2 SWAP1 POP JUMP JUMPDEST PUSH1 0x0 PUSH2 0x12B DUP3 PUSH2 0x116 JUMP JUMPDEST SWAP2 POP PUSH1 0x0 DUP3 EQ ISZERO PUSH2 0x13F JUMPI PUSH2 0x13E PUSH2 0x14A JUMP JUMPDEST JUMPDEST PUSH1 0x1 DUP3 SUB SWAP1 POP SWAP2 SWAP1 POP JUMP JUMPDEST PUSH32 0x4E487B7100000000000000000000000000000000000000000000000000000000 PUSH1 0x0 MSTORE PUSH1 0x11 PUSH1 0x4 MSTORE PUSH1 0x24 PUSH1 0x0 REVERT JUMPDEST PUSH1 0x0 DUP1 REVERT JUMPDEST PUSH2 0x187 DUP2 PUSH2 0x116 JUMP JUMPDEST DUP2 EQ PUSH2 0x192 JUMPI PUSH1 0x0 DUP1 REVERT JUMPDEST POP JUMP INVALID LOG2 PUSH5 0x6970667358 0x22 SLT KECCAK256 DIFFICULTY DUP5 CREATE 0xCD MSIZE CALLER GASLIMIT PUSH9 0x537FAED5F46FD691B0 0xA5 PUSH11 0xE4D67FEE99A8795EC43336 BYTE 0xD2 PUSH5 0x736F6C6343 STOP ADDMOD SMOD STOP CALLER "
				},
				"gasEstimates": {
					"creation": {
						"codeDepositCost": "91800",
						"executionCost": "141",
						"totalCost": "91941"
					},
					"external": {
						"countDowm()": "infinite",
						"setCounter(uint256)": "22498"
					}
				},
				"methodIdentifiers": {
					"countDowm()": "f2b2ee28",
					"setCounter(uint256)": "8bb5d9c3"
				}
			},
			"storageLayout": {
				"storage": [
					{
						"astId": 3,
						"contract": "do_while循环/do_while_test.sol:Example",
						"label": "counter",
						"offset": 0,
						"slot": "0",
						"type": "t_uint256"
					}
				],
				"types": {
					"t_uint256": {
						"encoding": "inplace",
						"label": "uint256",
						"numberOfBytes": "32"
					}
				}
			},
			"userdoc": {
				"kind": "user",
				"methods": {},
				"version": 1
			}
		}
	}
}