{
	"访问权限/Employee4.sol": {
		"Manager": {
			"abi": [
				{
					"inputs": [],
					"name": "count",
					"outputs": [
						{
							"internalType": "uint256",
							"name": "",
							"type": "uint256"
						}
					],
					"stateMutability": "pure",
					"type": "function"
				},
				{
					"inputs": [],
					"name": "test",
					"outputs": [
						{
							"internalType": "uint256",
							"name": "",
							"type": "uint256"
						}
					],
					"stateMutability": "pure",
					"type": "function"
				}
			],
			"devdoc": {
				"kind": "dev",
				"methods": {},
				"version": 1
			},
			"evm": {
				"assembly": "    /* \"\\xe8\\xae\\xbf\\xe9\\x97\\xae\\xe6\\x9d\\x83\\xe9\\x99\\x90/Employee4.sol\":60:231  contract Manager {... */\n  mstore(0x40, 0x80)\n  callvalue\n  dup1\n  iszero\n  tag_1\n  jumpi\n  0x00\n  dup1\n  revert\ntag_1:\n  pop\n  dataSize(sub_0)\n  dup1\n  dataOffset(sub_0)\n  0x00\n  codecopy\n  0x00\n  return\nstop\n\nsub_0: assembly {\n        /* \"\\xe8\\xae\\xbf\\xe9\\x97\\xae\\xe6\\x9d\\x83\\xe9\\x99\\x90/Employee4.sol\":60:231  contract Manager {... */\n      mstore(0x40, 0x80)\n      callvalue\n      dup1\n      iszero\n      tag_1\n      jumpi\n      0x00\n      dup1\n      revert\n    tag_1:\n      pop\n      jumpi(tag_2, lt(calldatasize, 0x04))\n      shr(0xe0, calldataload(0x00))\n      dup1\n      0x06661abd\n      eq\n      tag_3\n      jumpi\n      dup1\n      0xf8a8fd6d\n      eq\n      tag_4\n      jumpi\n    tag_2:\n      0x00\n      dup1\n      revert\n        /* \"\\xe8\\xae\\xbf\\xe9\\x97\\xae\\xe6\\x9d\\x83\\xe9\\x99\\x90/Employee4.sol\":86:158  function count() external pure returns(uint) {... */\n    tag_3:\n      tag_5\n      tag_6\n      jump\t// in\n    tag_5:\n      mload(0x40)\n      tag_7\n      swap2\n      swap1\n      tag_8\n      jump\t// in\n    tag_7:\n      mload(0x40)\n      dup1\n      swap2\n      sub\n      swap1\n      return\n        /* \"\\xe8\\xae\\xbf\\xe9\\x97\\xae\\xe6\\x9d\\x83\\xe9\\x99\\x90/Employee4.sol\":166:226  function test() public pure returns(uint) {... */\n    tag_4:\n      tag_9\n      tag_10\n      jump\t// in\n    tag_9:\n      mload(0x40)\n      tag_11\n      swap2\n      swap1\n      tag_8\n      jump\t// in\n    tag_11:\n      mload(0x40)\n      dup1\n      swap2\n      sub\n      swap1\n      return\n        /* \"\\xe8\\xae\\xbf\\xe9\\x97\\xae\\xe6\\x9d\\x83\\xe9\\x99\\x90/Employee4.sol\":86:158  function count() external pure returns(uint) {... */\n    tag_6:\n        /* \"\\xe8\\xae\\xbf\\xe9\\x97\\xae\\xe6\\x9d\\x83\\xe9\\x99\\x90/Employee4.sol\":125:129  uint */\n      0x00\n        /* \"\\xe8\\xae\\xbf\\xe9\\x97\\xae\\xe6\\x9d\\x83\\xe9\\x99\\x90/Employee4.sol\":149:150  2 */\n      0x02\n        /* \"\\xe8\\xae\\xbf\\xe9\\x97\\xae\\xe6\\x9d\\x83\\xe9\\x99\\x90/Employee4.sol\":142:150  return 2 */\n      swap1\n      pop\n        /* \"\\xe8\\xae\\xbf\\xe9\\x97\\xae\\xe6\\x9d\\x83\\xe9\\x99\\x90/Employee4.sol\":86:158  function count() external pure returns(uint) {... */\n      swap1\n      jump\t// out\n        /* \"\\xe8\\xae\\xbf\\xe9\\x97\\xae\\xe6\\x9d\\x83\\xe9\\x99\\x90/Employee4.sol\":166:226  function test() public pure returns(uint) {... */\n    tag_10:\n        /* \"\\xe8\\xae\\xbf\\xe9\\x97\\xae\\xe6\\x9d\\x83\\xe9\\x99\\x90/Employee4.sol\":202:206  uint */\n      0x00\n        /* \"\\xe8\\xae\\xbf\\xe9\\x97\\xae\\xe6\\x9d\\x83\\xe9\\x99\\x90/Employee4.sol\":166:226  function test() public pure returns(uint) {... */\n      swap1\n      jump\t// out\n        /* \"#utility.yul\":7:84   */\n    tag_14:\n        /* \"#utility.yul\":44:51   */\n      0x00\n        /* \"#utility.yul\":73:78   */\n      dup2\n        /* \"#utility.yul\":62:78   */\n      swap1\n      pop\n        /* \"#utility.yul\":7:84   */\n      swap2\n      swap1\n      pop\n      jump\t// out\n        /* \"#utility.yul\":90:208   */\n    tag_15:\n        /* \"#utility.yul\":177:201   */\n      tag_19\n        /* \"#utility.yul\":195:200   */\n      dup2\n        /* \"#utility.yul\":177:201   */\n      tag_14\n      jump\t// in\n    tag_19:\n        /* \"#utility.yul\":172:175   */\n      dup3\n        /* \"#utility.yul\":165:202   */\n      mstore\n        /* \"#utility.yul\":90:208   */\n      pop\n      pop\n      jump\t// out\n        /* \"#utility.yul\":214:436   */\n    tag_8:\n        /* \"#utility.yul\":307:311   */\n      0x00\n        /* \"#utility.yul\":345:347   */\n      0x20\n        /* \"#utility.yul\":334:343   */\n      dup3\n        /* \"#utility.yul\":330:348   */\n      add\n        /* \"#utility.yul\":322:348   */\n      swap1\n      pop\n        /* \"#utility.yul\":358:429   */\n      tag_21\n        /* \"#utility.yul\":426:427   */\n      0x00\n        /* \"#utility.yul\":415:424   */\n      dup4\n        /* \"#utility.yul\":411:428   */\n      add\n        /* \"#utility.yul\":402:408   */\n      dup5\n        /* \"#utility.yul\":358:429   */\n      tag_15\n      jump\t// in\n    tag_21:\n        /* \"#utility.yul\":214:436   */\n      swap3\n      swap2\n      pop\n      pop\n      jump\t// out\n\n    auxdata: 0xa26469706673582212203b4b06e28cc45fc0ba6956db7688181864014ccaf2e8f4c0655dcad57816dbb064736f6c63430008120033\n}\n",
				"bytecode": {
					"linkReferences": {},
					"object": "608060405234801561001057600080fd5b5060df8061001f6000396000f3fe6080604052348015600f57600080fd5b506004361060325760003560e01c806306661abd146037578063f8a8fd6d146051575b600080fd5b603d606b565b604051604891906090565b60405180910390f35b60576074565b604051606291906090565b60405180910390f35b60006002905090565b600090565b6000819050919050565b608a816079565b82525050565b600060208201905060a360008301846083565b9291505056fea26469706673582212203b4b06e28cc45fc0ba6956db7688181864014ccaf2e8f4c0655dcad57816dbb064736f6c63430008120033",
					"opcodes": "PUSH1 0x80 PUSH1 0x40 MSTORE CALLVALUE DUP1 ISZERO PUSH2 0x10 JUMPI PUSH1 0x0 DUP1 REVERT JUMPDEST POP PUSH1 0xDF DUP1 PUSH2 0x1F PUSH1 0x0 CODECOPY PUSH1 0x0 RETURN INVALID PUSH1 0x80 PUSH1 0x40 MSTORE CALLVALUE DUP1 ISZERO PUSH1 0xF JUMPI PUSH1 0x0 DUP1 REVERT JUMPDEST POP PUSH1 0x4 CALLDATASIZE LT PUSH1 0x32 JUMPI PUSH1 0x0 CALLDATALOAD PUSH1 0xE0 SHR DUP1 PUSH4 0x6661ABD EQ PUSH1 0x37 JUMPI DUP1 PUSH4 0xF8A8FD6D EQ PUSH1 0x51 JUMPI JUMPDEST PUSH1 0x0 DUP1 REVERT JUMPDEST PUSH1 0x3D PUSH1 0x6B JUMP JUMPDEST PUSH1 0x40 MLOAD PUSH1 0x48 SWAP2 SWAP1 PUSH1 0x90 JUMP JUMPDEST PUSH1 0x40 MLOAD DUP1 SWAP2 SUB SWAP1 RETURN JUMPDEST PUSH1 0x57 PUSH1 0x74 JUMP JUMPDEST PUSH1 0x40 MLOAD PUSH1 0x62 SWAP2 SWAP1 PUSH1 0x90 JUMP JUMPDEST PUSH1 0x40 MLOAD DUP1 SWAP2 SUB SWAP1 RETURN JUMPDEST PUSH1 0x0 PUSH1 0x2 SWAP1 POP SWAP1 JUMP JUMPDEST PUSH1 0x0 SWAP1 JUMP JUMPDEST PUSH1 0x0 DUP2 SWAP1 POP SWAP2 SWAP1 POP JUMP JUMPDEST PUSH1 0x8A DUP2 PUSH1 0x79 JUMP JUMPDEST DUP3 MSTORE POP POP JUMP JUMPDEST PUSH1 0x0 PUSH1 0x20 DUP3 ADD SWAP1 POP PUSH1 0xA3 PUSH1 0x0 DUP4 ADD DUP5 PUSH1 0x83 JUMP JUMPDEST SWAP3 SWAP2 POP POP JUMP INVALID LOG2 PUSH5 0x6970667358 0x22 SLT KECCAK256 EXTCODESIZE 0x4B MOD 0xE2 DUP13 0xC4 0x5F 0xC0 0xBA PUSH10 0x56DB7688181864014CCA CALLCODE 0xE8 DELEGATECALL 0xC0 PUSH6 0x5DCAD57816DB 0xB0 PUSH5 0x736F6C6343 STOP ADDMOD SLT STOP CALLER "
				},
				"gasEstimates": {
					"creation": {
						"codeDepositCost": "44600",
						"executionCost": "93",
						"totalCost": "44693"
					},
					"external": {
						"count()": "315",
						"test()": "329"
					}
				},
				"methodIdentifiers": {
					"count()": "06661abd",
					"test()": "f8a8fd6d"
				}
			},
			"storageLayout": {
				"storage": [],
				"types": null
			},
			"userdoc": {
				"kind": "user",
				"methods": {},
				"version": 1
			}
		}
	}
}