{
	"访问权限/Employee2.sol": {
		"Employee": {
			"abi": [
				{
					"inputs": [],
					"name": "count",
					"outputs": [
						{
							"internalType": "uint256",
							"name": "",
							"type": "uint256"
						}
					],
					"stateMutability": "pure",
					"type": "function"
				}
			],
			"devdoc": {
				"kind": "dev",
				"methods": {},
				"version": 1
			},
			"evm": {
				"assembly": "    /* \"访问权限/Employee2.sol\":60:162  contract Employee {\r... */\n  mstore(0x40, 0x80)\n  callvalue\n  dup1\n  iszero\n  tag_1\n  jumpi\n  0x00\n  dup1\n  revert\ntag_1:\n  pop\n  dataSize(sub_0)\n  dup1\n  dataOffset(sub_0)\n  0x00\n  codecopy\n  0x00\n  return\nstop\n\nsub_0: assembly {\n        /* \"访问权限/Employee2.sol\":60:162  contract Employee {\r... */\n      mstore(0x40, 0x80)\n      callvalue\n      dup1\n      iszero\n      tag_1\n      jumpi\n      0x00\n      dup1\n      revert\n    tag_1:\n      pop\n      jumpi(tag_2, lt(calldatasize, 0x04))\n      shr(0xe0, calldataload(0x00))\n      dup1\n      0x06661abd\n      eq\n      tag_3\n      jumpi\n    tag_2:\n      0x00\n      dup1\n      revert\n        /* \"访问权限/Employee2.sol\":87:157  function count() public pure returns(uint) {\r... */\n    tag_3:\n      tag_4\n      tag_5\n      jump\t// in\n    tag_4:\n      mload(0x40)\n      dup1\n      dup3\n      dup2\n      mstore\n      0x20\n      add\n      swap2\n      pop\n      pop\n      mload(0x40)\n      dup1\n      swap2\n      sub\n      swap1\n      return\n    tag_5:\n        /* \"访问权限/Employee2.sol\":124:128  uint */\n      0x00\n        /* \"访问权限/Employee2.sol\":148:149  2 */\n      0x02\n        /* \"访问权限/Employee2.sol\":141:149  return 2 */\n      swap1\n      pop\n        /* \"访问权限/Employee2.sol\":87:157  function count() public pure returns(uint) {\r... */\n      swap1\n      jump\t// out\n\n    auxdata: 0xa2646970667358221220a64dbde9fa96461e6539ef828c4c0455cdee127d691a3886f1a917e9efdb663a64736f6c63430007060033\n}\n",
				"bytecode": {
					"linkReferences": {},
					"object": "6080604052348015600f57600080fd5b5060888061001e6000396000f3fe6080604052348015600f57600080fd5b506004361060285760003560e01c806306661abd14602d575b600080fd5b60336049565b6040518082815260200191505060405180910390f35b6000600290509056fea2646970667358221220a64dbde9fa96461e6539ef828c4c0455cdee127d691a3886f1a917e9efdb663a64736f6c63430007060033",
					"opcodes": "PUSH1 0x80 PUSH1 0x40 MSTORE CALLVALUE DUP1 ISZERO PUSH1 0xF JUMPI PUSH1 0x0 DUP1 REVERT JUMPDEST POP PUSH1 0x88 DUP1 PUSH2 0x1E PUSH1 0x0 CODECOPY PUSH1 0x0 RETURN INVALID PUSH1 0x80 PUSH1 0x40 MSTORE CALLVALUE DUP1 ISZERO PUSH1 0xF JUMPI PUSH1 0x0 DUP1 REVERT JUMPDEST POP PUSH1 0x4 CALLDATASIZE LT PUSH1 0x28 JUMPI PUSH1 0x0 CALLDATALOAD PUSH1 0xE0 SHR DUP1 PUSH4 0x6661ABD EQ PUSH1 0x2D JUMPI JUMPDEST PUSH1 0x0 DUP1 REVERT JUMPDEST PUSH1 0x33 PUSH1 0x49 JUMP JUMPDEST PUSH1 0x40 MLOAD DUP1 DUP3 DUP2 MSTORE PUSH1 0x20 ADD SWAP2 POP POP PUSH1 0x40 MLOAD DUP1 SWAP2 SUB SWAP1 RETURN JUMPDEST PUSH1 0x0 PUSH1 0x2 SWAP1 POP SWAP1 JUMP INVALID LOG2 PUSH5 0x6970667358 0x22 SLT KECCAK256 0xA6 0x4D 0xBD 0xE9 STATICCALL SWAP7 CHAINID 0x1E PUSH6 0x39EF828C4C04 SSTORE 0xCD 0xEE SLT PUSH30 0x691A3886F1A917E9EFDB663A64736F6C6343000706003300000000000000 "
				},
				"gasEstimates": {
					"creation": {
						"codeDepositCost": "27200",
						"executionCost": "81",
						"totalCost": "27281"
					},
					"external": {
						"count()": "191"
					}
				},
				"methodIdentifiers": {
					"count()": "06661abd"
				}
			},
			"storageLayout": {
				"storage": [],
				"types": null
			},
			"userdoc": {
				"kind": "user",
				"methods": {},
				"version": 1
			}
		}
	}
}