{
	"数据位置/memoryTest.sol": {
		"SolidityTest": {
			"abi": [
				{
					"inputs": [],
					"stateMutability": "nonpayable",
					"type": "constructor"
				},
				{
					"inputs": [
						{
							"internalType": "uint256",
							"name": "",
							"type": "uint256"
						}
					],
					"name": "myData",
					"outputs": [
						{
							"internalType": "uint256",
							"name": "id",
							"type": "uint256"
						},
						{
							"internalType": "string",
							"name": "value",
							"type": "string"
						}
					],
					"stateMutability": "view",
					"type": "function"
				},
				{
					"inputs": [],
					"name": "operations",
					"outputs": [],
					"stateMutability": "nonpayable",
					"type": "function"
				}
			],
			"devdoc": {
				"kind": "dev",
				"methods": {},
				"version": 1
			},
			"evm": {
				"assembly": "    /* \"\\xe6\\x95\\xb0\\xe6\\x8d\\xae\\xe4\\xbd\\x8d\\xe7\\xbd\\xae/memoryTest.sol\":60:505  contract SolidityTest {\r... */\n  mstore(0x40, 0x80)\n    /* \"\\xe6\\x95\\xb0\\xe6\\x8d\\xae\\xe4\\xbd\\x8d\\xe7\\xbd\\xae/memoryTest.sol\":195:301  constructor() {\r... */\n  callvalue\n  dup1\n  iszero\n  tag_1\n  jumpi\n  0x00\n  dup1\n  revert\ntag_1:\n  pop\n    /* \"\\xe6\\x95\\xb0\\xe6\\x8d\\xae\\xe4\\xbd\\x8d\\xe7\\xbd\\xae/memoryTest.sol\":220:226  myData */\n  0x00\n    /* \"\\xe6\\x95\\xb0\\xe6\\x8d\\xae\\xe4\\xbd\\x8d\\xe7\\xbd\\xae/memoryTest.sol\":232:250  MyData(1,\"value1\") */\n  mload(0x40)\n  dup1\n  0x40\n  add\n  0x40\n  mstore\n  dup1\n    /* \"\\xe6\\x95\\xb0\\xe6\\x8d\\xae\\xe4\\xbd\\x8d\\xe7\\xbd\\xae/memoryTest.sol\":239:240  1 */\n  0x01\n    /* \"\\xe6\\x95\\xb0\\xe6\\x8d\\xae\\xe4\\xbd\\x8d\\xe7\\xbd\\xae/memoryTest.sol\":232:250  MyData(1,\"value1\") */\n  dup2\n  mstore\n  0x20\n  add\n  mload(0x40)\n  dup1\n  0x40\n  add\n  0x40\n  mstore\n  dup1\n  0x06\n  dup2\n  mstore\n  0x20\n  add\n  0x76616c7565310000000000000000000000000000000000000000000000000000\n  dup2\n  mstore\n  pop\n  dup2\n  mstore\n  pop\n    /* \"\\xe6\\x95\\xb0\\xe6\\x8d\\xae\\xe4\\xbd\\x8d\\xe7\\xbd\\xae/memoryTest.sol\":220:251  myData.push(MyData(1,\"value1\")) */\n  swap1\n  dup1\n  0x01\n  dup2\n  sload\n  add\n  dup1\n  dup3\n  sstore\n  dup1\n  swap2\n  pop\n  pop\n  0x01\n  swap1\n  sub\n  swap1\n  0x00\n  mstore\n  keccak256(0x00, 0x20)\n  swap1\n  0x02\n  mul\n  add\n  0x00\n  swap1\n  swap2\n  swap1\n  swap2\n  swap1\n  swap2\n  pop\n  0x00\n  dup3\n  add\n  mload\n  dup2\n  0x00\n  add\n  sstore\n  0x20\n  dup3\n  add\n  mload\n  dup2\n  0x01\n  add\n  swap1\n  dup1\n  mload\n  swap1\n  0x20\n  add\n  swap1\n  tag_5\n  swap3\n  swap2\n  swap1\n  tag_6\n  jump\t// in\ntag_5:\n  pop\n  pop\n  pop\n    /* \"\\xe6\\x95\\xb0\\xe6\\x8d\\xae\\xe4\\xbd\\x8d\\xe7\\xbd\\xae/memoryTest.sol\":262:268  myData */\n  0x00\n    /* \"\\xe6\\x95\\xb0\\xe6\\x8d\\xae\\xe4\\xbd\\x8d\\xe7\\xbd\\xae/memoryTest.sol\":274:292  MyData(2,\"value2\") */\n  mload(0x40)\n  dup1\n  0x40\n  add\n  0x40\n  mstore\n  dup1\n    /* \"\\xe6\\x95\\xb0\\xe6\\x8d\\xae\\xe4\\xbd\\x8d\\xe7\\xbd\\xae/memoryTest.sol\":281:282  2 */\n  0x02\n    /* \"\\xe6\\x95\\xb0\\xe6\\x8d\\xae\\xe4\\xbd\\x8d\\xe7\\xbd\\xae/memoryTest.sol\":274:292  MyData(2,\"value2\") */\n  dup2\n  mstore\n  0x20\n  add\n  mload(0x40)\n  dup1\n  0x40\n  add\n  0x40\n  mstore\n  dup1\n  0x06\n  dup2\n  mstore\n  0x20\n  add\n  0x76616c7565320000000000000000000000000000000000000000000000000000\n  dup2\n  mstore\n  pop\n  dup2\n  mstore\n  pop\n    /* \"\\xe6\\x95\\xb0\\xe6\\x8d\\xae\\xe4\\xbd\\x8d\\xe7\\xbd\\xae/memoryTest.sol\":262:293  myData.push(MyData(2,\"value2\")) */\n  swap1\n  dup1\n  0x01\n  dup2\n  sload\n  add\n  dup1\n  dup3\n  sstore\n  dup1\n  swap2\n  pop\n  pop\n  0x01\n  swap1\n  sub\n  swap1\n  0x00\n  mstore\n  keccak256(0x00, 0x20)\n  swap1\n  0x02\n  mul\n  add\n  0x00\n  swap1\n  swap2\n  swap1\n  swap2\n  swap1\n  swap2\n  pop\n  0x00\n  dup3\n  add\n  mload\n  dup2\n  0x00\n  add\n  sstore\n  0x20\n  dup3\n  add\n  mload\n  dup2\n  0x01\n  add\n  swap1\n  dup1\n  mload\n  swap1\n  0x20\n  add\n  swap1\n  tag_8\n  swap3\n  swap2\n  swap1\n  tag_6\n  jump\t// in\ntag_8:\n  pop\n  pop\n  pop\n    /* \"\\xe6\\x95\\xb0\\xe6\\x8d\\xae\\xe4\\xbd\\x8d\\xe7\\xbd\\xae/memoryTest.sol\":60:505  contract SolidityTest {\r... */\n  jump(tag_9)\ntag_6:\n  dup3\n  dup1\n  sload\n  tag_10\n  swap1\n  tag_11\n  jump\t// in\ntag_10:\n  swap1\n  0x00\n  mstore\n  keccak256(0x00, 0x20)\n  swap1\n  0x1f\n  add\n  0x20\n  swap1\n  div\n  dup2\n  add\n  swap3\n  dup3\n  tag_13\n  jumpi\n  0x00\n  dup6\n  sstore\n  jump(tag_12)\ntag_13:\n  dup3\n  0x1f\n  lt\n  tag_14\n  jumpi\n  dup1\n  mload\n  not(0xff)\n  and\n  dup4\n  dup1\n  add\n  or\n  dup6\n  sstore\n  jump(tag_12)\ntag_14:\n  dup3\n  dup1\n  add\n  0x01\n  add\n  dup6\n  sstore\n  dup3\n  iszero\n  tag_12\n  jumpi\n  swap2\n  dup3\n  add\ntag_15:\n  dup3\n  dup2\n  gt\n  iszero\n  tag_16\n  jumpi\n  dup3\n  mload\n  dup3\n  sstore\n  swap2\n  0x20\n  add\n  swap2\n  swap1\n  0x01\n  add\n  swap1\n  jump(tag_15)\ntag_16:\ntag_12:\n  pop\n  swap1\n  pop\n  tag_17\n  swap2\n  swap1\n  tag_18\n  jump\t// in\ntag_17:\n  pop\n  swap1\n  jump\t// out\ntag_18:\ntag_19:\n  dup1\n  dup3\n  gt\n  iszero\n  tag_20\n  jumpi\n  0x00\n  dup2\n  0x00\n  swap1\n  sstore\n  pop\n  0x01\n  add\n  jump(tag_19)\ntag_20:\n  pop\n  swap1\n  jump\t// out\n    /* \"#utility.yul\":7:327   */\ntag_11:\n    /* \"#utility.yul\":51:57   */\n  0x00\n    /* \"#utility.yul\":88:89   */\n  0x02\n    /* \"#utility.yul\":82:86   */\n  dup3\n    /* \"#utility.yul\":78:90   */\n  div\n    /* \"#utility.yul\":68:90   */\n  swap1\n  pop\n    /* \"#utility.yul\":135:136   */\n  0x01\n    /* \"#utility.yul\":129:133   */\n  dup3\n    /* \"#utility.yul\":125:137   */\n  and\n    /* \"#utility.yul\":156:174   */\n  dup1\n    /* \"#utility.yul\":146:227   */\n  tag_23\n  jumpi\n    /* \"#utility.yul\":212:216   */\n  0x7f\n    /* \"#utility.yul\":204:210   */\n  dup3\n    /* \"#utility.yul\":200:217   */\n  and\n    /* \"#utility.yul\":190:217   */\n  swap2\n  pop\n    /* \"#utility.yul\":146:227   */\ntag_23:\n    /* \"#utility.yul\":274:276   */\n  0x20\n    /* \"#utility.yul\":266:272   */\n  dup3\n    /* \"#utility.yul\":263:277   */\n  lt\n    /* \"#utility.yul\":243:261   */\n  dup2\n    /* \"#utility.yul\":240:278   */\n  eq\n    /* \"#utility.yul\":237:321   */\n  iszero\n  tag_24\n  jumpi\n    /* \"#utility.yul\":293:311   */\n  tag_25\n  tag_26\n  jump\t// in\ntag_25:\n    /* \"#utility.yul\":237:321   */\ntag_24:\n    /* \"#utility.yul\":58:327   */\n  pop\n    /* \"#utility.yul\":7:327   */\n  swap2\n  swap1\n  pop\n  jump\t// out\n    /* \"#utility.yul\":333:513   */\ntag_26:\n    /* \"#utility.yul\":381:458   */\n  0x4e487b7100000000000000000000000000000000000000000000000000000000\n    /* \"#utility.yul\":378:379   */\n  0x00\n    /* \"#utility.yul\":371:459   */\n  mstore\n    /* \"#utility.yul\":478:482   */\n  0x22\n    /* \"#utility.yul\":475:476   */\n  0x04\n    /* \"#utility.yul\":468:483   */\n  mstore\n    /* \"#utility.yul\":502:506   */\n  0x24\n    /* \"#utility.yul\":499:500   */\n  0x00\n    /* \"#utility.yul\":492:507   */\n  revert\n    /* \"\\xe6\\x95\\xb0\\xe6\\x8d\\xae\\xe4\\xbd\\x8d\\xe7\\xbd\\xae/memoryTest.sol\":60:505  contract SolidityTest {\r... */\ntag_9:\n  dataSize(sub_0)\n  dup1\n  dataOffset(sub_0)\n  0x00\n  codecopy\n  0x00\n  return\nstop\n\nsub_0: assembly {\n        /* \"\\xe6\\x95\\xb0\\xe6\\x8d\\xae\\xe4\\xbd\\x8d\\xe7\\xbd\\xae/memoryTest.sol\":60:505  contract SolidityTest {\r... */\n      mstore(0x40, 0x80)\n      callvalue\n      dup1\n      iszero\n      tag_1\n      jumpi\n      0x00\n      dup1\n      revert\n    tag_1:\n      pop\n      jumpi(tag_2, lt(calldatasize, 0x04))\n      shr(0xe0, calldataload(0x00))\n      dup1\n      0x0955da98\n      eq\n      tag_3\n      jumpi\n      dup1\n      0x8b33b4b2\n      eq\n      tag_4\n      jumpi\n    tag_2:\n      0x00\n      dup1\n      revert\n        /* \"\\xe6\\x95\\xb0\\xe6\\x8d\\xae\\xe4\\xbd\\x8d\\xe7\\xbd\\xae/memoryTest.sol\":164:186  MyData[] public myData */\n    tag_3:\n      tag_5\n      0x04\n      dup1\n      calldatasize\n      sub\n      dup2\n      add\n      swap1\n      tag_6\n      swap2\n      swap1\n      tag_7\n      jump\t// in\n    tag_6:\n      tag_8\n      jump\t// in\n    tag_5:\n      mload(0x40)\n      tag_9\n      swap3\n      swap2\n      swap1\n      tag_10\n      jump\t// in\n    tag_9:\n      mload(0x40)\n      dup1\n      swap2\n      sub\n      swap1\n      return\n        /* \"\\xe6\\x95\\xb0\\xe6\\x8d\\xae\\xe4\\xbd\\x8d\\xe7\\xbd\\xae/memoryTest.sol\":309:500  function operations() external {\r... */\n    tag_4:\n      tag_11\n      tag_12\n      jump\t// in\n    tag_11:\n      stop\n        /* \"\\xe6\\x95\\xb0\\xe6\\x8d\\xae\\xe4\\xbd\\x8d\\xe7\\xbd\\xae/memoryTest.sol\":164:186  MyData[] public myData */\n    tag_8:\n      0x00\n      dup2\n      dup2\n      sload\n      dup2\n      lt\n      tag_13\n      jumpi\n      0x00\n      dup1\n      revert\n    tag_13:\n      swap1\n      0x00\n      mstore\n      keccak256(0x00, 0x20)\n      swap1\n      0x02\n      mul\n      add\n      0x00\n      swap2\n      pop\n      swap1\n      pop\n      dup1\n      0x00\n      add\n      sload\n      swap1\n      dup1\n      0x01\n      add\n      dup1\n      sload\n      tag_15\n      swap1\n      tag_16\n      jump\t// in\n    tag_15:\n      dup1\n      0x1f\n      add\n      0x20\n      dup1\n      swap2\n      div\n      mul\n      0x20\n      add\n      mload(0x40)\n      swap1\n      dup2\n      add\n      0x40\n      mstore\n      dup1\n      swap3\n      swap2\n      swap1\n      dup2\n      dup2\n      mstore\n      0x20\n      add\n      dup3\n      dup1\n      sload\n      tag_17\n      swap1\n      tag_16\n      jump\t// in\n    tag_17:\n      dup1\n      iszero\n      tag_18\n      jumpi\n      dup1\n      0x1f\n      lt\n      tag_19\n      jumpi\n      0x0100\n      dup1\n      dup4\n      sload\n      div\n      mul\n      dup4\n      mstore\n      swap2\n      0x20\n      add\n      swap2\n      jump(tag_18)\n    tag_19:\n      dup3\n      add\n      swap2\n      swap1\n      0x00\n      mstore\n      keccak256(0x00, 0x20)\n      swap1\n    tag_20:\n      dup2\n      sload\n      dup2\n      mstore\n      swap1\n      0x01\n      add\n      swap1\n      0x20\n      add\n      dup1\n      dup4\n      gt\n      tag_20\n      jumpi\n      dup3\n      swap1\n      sub\n      0x1f\n      and\n      dup3\n      add\n      swap2\n    tag_18:\n      pop\n      pop\n      pop\n      pop\n      pop\n      swap1\n      pop\n      dup3\n      jump\t// out\n        /* \"\\xe6\\x95\\xb0\\xe6\\x8d\\xae\\xe4\\xbd\\x8d\\xe7\\xbd\\xae/memoryTest.sol\":309:500  function operations() external {\r... */\n    tag_12:\n        /* \"\\xe6\\x95\\xb0\\xe6\\x8d\\xae\\xe4\\xbd\\x8d\\xe7\\xbd\\xae/memoryTest.sol\":384:399  MyData memory d */\n      0x00\n        /* \"\\xe6\\x95\\xb0\\xe6\\x8d\\xae\\xe4\\xbd\\x8d\\xe7\\xbd\\xae/memoryTest.sol\":402:408  myData */\n      dup1\n        /* \"\\xe6\\x95\\xb0\\xe6\\x8d\\xae\\xe4\\xbd\\x8d\\xe7\\xbd\\xae/memoryTest.sol\":409:410  0 */\n      0x00\n        /* \"\\xe6\\x95\\xb0\\xe6\\x8d\\xae\\xe4\\xbd\\x8d\\xe7\\xbd\\xae/memoryTest.sol\":402:411  myData[0] */\n      dup2\n      sload\n      dup2\n      lt\n      tag_22\n      jumpi\n      tag_23\n      tag_24\n      jump\t// in\n    tag_23:\n    tag_22:\n      swap1\n      0x00\n      mstore\n      keccak256(0x00, 0x20)\n      swap1\n      0x02\n      mul\n      add\n        /* \"\\xe6\\x95\\xb0\\xe6\\x8d\\xae\\xe4\\xbd\\x8d\\xe7\\xbd\\xae/memoryTest.sol\":384:411  MyData memory d = myData[0] */\n      mload(0x40)\n      dup1\n      0x40\n      add\n      0x40\n      mstore\n      swap1\n      dup2\n      0x00\n      dup3\n      add\n      sload\n      dup2\n      mstore\n      0x20\n      add\n      0x01\n      dup3\n      add\n      dup1\n      sload\n      tag_26\n      swap1\n      tag_16\n      jump\t// in\n    tag_26:\n      dup1\n      0x1f\n      add\n      0x20\n      dup1\n      swap2\n      div\n      mul\n      0x20\n      add\n      mload(0x40)\n      swap1\n      dup2\n      add\n      0x40\n      mstore\n      dup1\n      swap3\n      swap2\n      swap1\n      dup2\n      dup2\n      mstore\n      0x20\n      add\n      dup3\n      dup1\n      sload\n      tag_27\n      swap1\n      tag_16\n      jump\t// in\n    tag_27:\n      dup1\n      iszero\n      tag_28\n      jumpi\n      dup1\n      0x1f\n      lt\n      tag_29\n      jumpi\n      0x0100\n      dup1\n      dup4\n      sload\n      div\n      mul\n      dup4\n      mstore\n      swap2\n      0x20\n      add\n      swap2\n      jump(tag_28)\n    tag_29:\n      dup3\n      add\n      swap2\n      swap1\n      0x00\n      mstore\n      keccak256(0x00, 0x20)\n      swap1\n    tag_30:\n      dup2\n      sload\n      dup2\n      mstore\n      swap1\n      0x01\n      add\n      swap1\n      0x20\n      add\n      dup1\n      dup4\n      gt\n      tag_30\n      jumpi\n      dup3\n      swap1\n      sub\n      0x1f\n      and\n      dup3\n      add\n      swap2\n    tag_28:\n      pop\n      pop\n      pop\n      pop\n      pop\n      dup2\n      mstore\n      pop\n      pop\n      swap1\n      pop\n        /* \"\\xe6\\x95\\xb0\\xe6\\x8d\\xae\\xe4\\xbd\\x8d\\xe7\\xbd\\xae/memoryTest.sol\":471:492  d.value = \"new value\" */\n      mload(0x40)\n      dup1\n      0x40\n      add\n      0x40\n      mstore\n      dup1\n      0x09\n      dup2\n      mstore\n      0x20\n      add\n      0x6e65772076616c75650000000000000000000000000000000000000000000000\n      dup2\n      mstore\n      pop\n        /* \"\\xe6\\x95\\xb0\\xe6\\x8d\\xae\\xe4\\xbd\\x8d\\xe7\\xbd\\xae/memoryTest.sol\":471:472  d */\n      dup2\n        /* \"\\xe6\\x95\\xb0\\xe6\\x8d\\xae\\xe4\\xbd\\x8d\\xe7\\xbd\\xae/memoryTest.sol\":471:478  d.value */\n      0x20\n      add\n        /* \"\\xe6\\x95\\xb0\\xe6\\x8d\\xae\\xe4\\xbd\\x8d\\xe7\\xbd\\xae/memoryTest.sol\":471:492  d.value = \"new value\" */\n      dup2\n      swap1\n      mstore\n      pop\n        /* \"\\xe6\\x95\\xb0\\xe6\\x8d\\xae\\xe4\\xbd\\x8d\\xe7\\xbd\\xae/memoryTest.sol\":340:500  {\r... */\n      pop\n        /* \"\\xe6\\x95\\xb0\\xe6\\x8d\\xae\\xe4\\xbd\\x8d\\xe7\\xbd\\xae/memoryTest.sol\":309:500  function operations() external {\r... */\n      jump\t// out\n        /* \"#utility.yul\":7:146   */\n    tag_32:\n        /* \"#utility.yul\":53:58   */\n      0x00\n        /* \"#utility.yul\":91:97   */\n      dup2\n        /* \"#utility.yul\":78:98   */\n      calldataload\n        /* \"#utility.yul\":69:98   */\n      swap1\n      pop\n        /* \"#utility.yul\":107:140   */\n      tag_34\n        /* \"#utility.yul\":134:139   */\n      dup2\n        /* \"#utility.yul\":107:140   */\n      tag_35\n      jump\t// in\n    tag_34:\n        /* \"#utility.yul\":7:146   */\n      swap3\n      swap2\n      pop\n      pop\n      jump\t// out\n        /* \"#utility.yul\":152:481   */\n    tag_7:\n        /* \"#utility.yul\":211:217   */\n      0x00\n        /* \"#utility.yul\":260:262   */\n      0x20\n        /* \"#utility.yul\":248:257   */\n      dup3\n        /* \"#utility.yul\":239:246   */\n      dup5\n        /* \"#utility.yul\":235:258   */\n      sub\n        /* \"#utility.yul\":231:263   */\n      slt\n        /* \"#utility.yul\":228:347   */\n      iszero\n      tag_37\n      jumpi\n        /* \"#utility.yul\":266:345   */\n      tag_38\n      tag_39\n      jump\t// in\n    tag_38:\n        /* \"#utility.yul\":228:347   */\n    tag_37:\n        /* \"#utility.yul\":386:387   */\n      0x00\n        /* \"#utility.yul\":411:464   */\n      tag_40\n        /* \"#utility.yul\":456:463   */\n      dup5\n        /* \"#utility.yul\":447:453   */\n      dup3\n        /* \"#utility.yul\":436:445   */\n      dup6\n        /* \"#utility.yul\":432:454   */\n      add\n        /* \"#utility.yul\":411:464   */\n      tag_32\n      jump\t// in\n    tag_40:\n        /* \"#utility.yul\":401:464   */\n      swap2\n      pop\n        /* \"#utility.yul\":357:474   */\n      pop\n        /* \"#utility.yul\":152:481   */\n      swap3\n      swap2\n      pop\n      pop\n      jump\t// out\n        /* \"#utility.yul\":487:851   */\n    tag_41:\n        /* \"#utility.yul\":575:578   */\n      0x00\n        /* \"#utility.yul\":603:642   */\n      tag_43\n        /* \"#utility.yul\":636:641   */\n      dup3\n        /* \"#utility.yul\":603:642   */\n      tag_44\n      jump\t// in\n    tag_43:\n        /* \"#utility.yul\":658:729   */\n      tag_45\n        /* \"#utility.yul\":722:728   */\n      dup2\n        /* \"#utility.yul\":717:720   */\n      dup6\n        /* \"#utility.yul\":658:729   */\n      tag_46\n      jump\t// in\n    tag_45:\n        /* \"#utility.yul\":651:729   */\n      swap4\n      pop\n        /* \"#utility.yul\":738:790   */\n      tag_47\n        /* \"#utility.yul\":783:789   */\n      dup2\n        /* \"#utility.yul\":778:781   */\n      dup6\n        /* \"#utility.yul\":771:775   */\n      0x20\n        /* \"#utility.yul\":764:769   */\n      dup7\n        /* \"#utility.yul\":760:776   */\n      add\n        /* \"#utility.yul\":738:790   */\n      tag_48\n      jump\t// in\n    tag_47:\n        /* \"#utility.yul\":815:844   */\n      tag_49\n        /* \"#utility.yul\":837:843   */\n      dup2\n        /* \"#utility.yul\":815:844   */\n      tag_50\n      jump\t// in\n    tag_49:\n        /* \"#utility.yul\":810:813   */\n      dup5\n        /* \"#utility.yul\":806:845   */\n      add\n        /* \"#utility.yul\":799:845   */\n      swap2\n      pop\n        /* \"#utility.yul\":579:851   */\n      pop\n        /* \"#utility.yul\":487:851   */\n      swap3\n      swap2\n      pop\n      pop\n      jump\t// out\n        /* \"#utility.yul\":857:975   */\n    tag_51:\n        /* \"#utility.yul\":944:968   */\n      tag_53\n        /* \"#utility.yul\":962:967   */\n      dup2\n        /* \"#utility.yul\":944:968   */\n      tag_54\n      jump\t// in\n    tag_53:\n        /* \"#utility.yul\":939:942   */\n      dup3\n        /* \"#utility.yul\":932:969   */\n      mstore\n        /* \"#utility.yul\":857:975   */\n      pop\n      pop\n      jump\t// out\n        /* \"#utility.yul\":981:1404   */\n    tag_10:\n        /* \"#utility.yul\":1122:1126   */\n      0x00\n        /* \"#utility.yul\":1160:1162   */\n      0x40\n        /* \"#utility.yul\":1149:1158   */\n      dup3\n        /* \"#utility.yul\":1145:1163   */\n      add\n        /* \"#utility.yul\":1137:1163   */\n      swap1\n      pop\n        /* \"#utility.yul\":1173:1244   */\n      tag_56\n        /* \"#utility.yul\":1241:1242   */\n      0x00\n        /* \"#utility.yul\":1230:1239   */\n      dup4\n        /* \"#utility.yul\":1226:1243   */\n      add\n        /* \"#utility.yul\":1217:1223   */\n      dup6\n        /* \"#utility.yul\":1173:1244   */\n      tag_51\n      jump\t// in\n    tag_56:\n        /* \"#utility.yul\":1291:1300   */\n      dup2\n        /* \"#utility.yul\":1285:1289   */\n      dup2\n        /* \"#utility.yul\":1281:1301   */\n      sub\n        /* \"#utility.yul\":1276:1278   */\n      0x20\n        /* \"#utility.yul\":1265:1274   */\n      dup4\n        /* \"#utility.yul\":1261:1279   */\n      add\n        /* \"#utility.yul\":1254:1302   */\n      mstore\n        /* \"#utility.yul\":1319:1397   */\n      tag_57\n        /* \"#utility.yul\":1392:1396   */\n      dup2\n        /* \"#utility.yul\":1383:1389   */\n      dup5\n        /* \"#utility.yul\":1319:1397   */\n      tag_41\n      jump\t// in\n    tag_57:\n        /* \"#utility.yul\":1311:1397   */\n      swap1\n      pop\n        /* \"#utility.yul\":981:1404   */\n      swap4\n      swap3\n      pop\n      pop\n      pop\n      jump\t// out\n        /* \"#utility.yul\":1491:1590   */\n    tag_44:\n        /* \"#utility.yul\":1543:1549   */\n      0x00\n        /* \"#utility.yul\":1577:1582   */\n      dup2\n        /* \"#utility.yul\":1571:1583   */\n      mload\n        /* \"#utility.yul\":1561:1583   */\n      swap1\n      pop\n        /* \"#utility.yul\":1491:1590   */\n      swap2\n      swap1\n      pop\n      jump\t// out\n        /* \"#utility.yul\":1596:1765   */\n    tag_46:\n        /* \"#utility.yul\":1680:1691   */\n      0x00\n        /* \"#utility.yul\":1714:1720   */\n      dup3\n        /* \"#utility.yul\":1709:1712   */\n      dup3\n        /* \"#utility.yul\":1702:1721   */\n      mstore\n        /* \"#utility.yul\":1754:1758   */\n      0x20\n        /* \"#utility.yul\":1749:1752   */\n      dup3\n        /* \"#utility.yul\":1745:1759   */\n      add\n        /* \"#utility.yul\":1730:1759   */\n      swap1\n      pop\n        /* \"#utility.yul\":1596:1765   */\n      swap3\n      swap2\n      pop\n      pop\n      jump\t// out\n        /* \"#utility.yul\":1771:1848   */\n    tag_54:\n        /* \"#utility.yul\":1808:1815   */\n      0x00\n        /* \"#utility.yul\":1837:1842   */\n      dup2\n        /* \"#utility.yul\":1826:1842   */\n      swap1\n      pop\n        /* \"#utility.yul\":1771:1848   */\n      swap2\n      swap1\n      pop\n      jump\t// out\n        /* \"#utility.yul\":1854:2161   */\n    tag_48:\n        /* \"#utility.yul\":1922:1923   */\n      0x00\n        /* \"#utility.yul\":1932:2045   */\n    tag_64:\n        /* \"#utility.yul\":1946:1952   */\n      dup4\n        /* \"#utility.yul\":1943:1944   */\n      dup2\n        /* \"#utility.yul\":1940:1953   */\n      lt\n        /* \"#utility.yul\":1932:2045   */\n      iszero\n      tag_66\n      jumpi\n        /* \"#utility.yul\":2031:2032   */\n      dup1\n        /* \"#utility.yul\":2026:2029   */\n      dup3\n        /* \"#utility.yul\":2022:2033   */\n      add\n        /* \"#utility.yul\":2016:2034   */\n      mload\n        /* \"#utility.yul\":2012:2013   */\n      dup2\n        /* \"#utility.yul\":2007:2010   */\n      dup5\n        /* \"#utility.yul\":2003:2014   */\n      add\n        /* \"#utility.yul\":1996:2035   */\n      mstore\n        /* \"#utility.yul\":1968:1970   */\n      0x20\n        /* \"#utility.yul\":1965:1966   */\n      dup2\n        /* \"#utility.yul\":1961:1971   */\n      add\n        /* \"#utility.yul\":1956:1971   */\n      swap1\n      pop\n        /* \"#utility.yul\":1932:2045   */\n      jump(tag_64)\n    tag_66:\n        /* \"#utility.yul\":2063:2069   */\n      dup4\n        /* \"#utility.yul\":2060:2061   */\n      dup2\n        /* \"#utility.yul\":2057:2070   */\n      gt\n        /* \"#utility.yul\":2054:2155   */\n      iszero\n      tag_67\n      jumpi\n        /* \"#utility.yul\":2143:2144   */\n      0x00\n        /* \"#utility.yul\":2134:2140   */\n      dup5\n        /* \"#utility.yul\":2129:2132   */\n      dup5\n        /* \"#utility.yul\":2125:2141   */\n      add\n        /* \"#utility.yul\":2118:2145   */\n      mstore\n        /* \"#utility.yul\":2054:2155   */\n    tag_67:\n        /* \"#utility.yul\":1903:2161   */\n      pop\n        /* \"#utility.yul\":1854:2161   */\n      pop\n      pop\n      pop\n      jump\t// out\n        /* \"#utility.yul\":2167:2487   */\n    tag_16:\n        /* \"#utility.yul\":2211:2217   */\n      0x00\n        /* \"#utility.yul\":2248:2249   */\n      0x02\n        /* \"#utility.yul\":2242:2246   */\n      dup3\n        /* \"#utility.yul\":2238:2250   */\n      div\n        /* \"#utility.yul\":2228:2250   */\n      swap1\n      pop\n        /* \"#utility.yul\":2295:2296   */\n      0x01\n        /* \"#utility.yul\":2289:2293   */\n      dup3\n        /* \"#utility.yul\":2285:2297   */\n      and\n        /* \"#utility.yul\":2316:2334   */\n      dup1\n        /* \"#utility.yul\":2306:2387   */\n      tag_69\n      jumpi\n        /* \"#utility.yul\":2372:2376   */\n      0x7f\n        /* \"#utility.yul\":2364:2370   */\n      dup3\n        /* \"#utility.yul\":2360:2377   */\n      and\n        /* \"#utility.yul\":2350:2377   */\n      swap2\n      pop\n        /* \"#utility.yul\":2306:2387   */\n    tag_69:\n        /* \"#utility.yul\":2434:2436   */\n      0x20\n        /* \"#utility.yul\":2426:2432   */\n      dup3\n        /* \"#utility.yul\":2423:2437   */\n      lt\n        /* \"#utility.yul\":2403:2421   */\n      dup2\n        /* \"#utility.yul\":2400:2438   */\n      eq\n        /* \"#utility.yul\":2397:2481   */\n      iszero\n      tag_70\n      jumpi\n        /* \"#utility.yul\":2453:2471   */\n      tag_71\n      tag_72\n      jump\t// in\n    tag_71:\n        /* \"#utility.yul\":2397:2481   */\n    tag_70:\n        /* \"#utility.yul\":2218:2487   */\n      pop\n        /* \"#utility.yul\":2167:2487   */\n      swap2\n      swap1\n      pop\n      jump\t// out\n        /* \"#utility.yul\":2493:2673   */\n    tag_72:\n        /* \"#utility.yul\":2541:2618   */\n      0x4e487b7100000000000000000000000000000000000000000000000000000000\n        /* \"#utility.yul\":2538:2539   */\n      0x00\n        /* \"#utility.yul\":2531:2619   */\n      mstore\n        /* \"#utility.yul\":2638:2642   */\n      0x22\n        /* \"#utility.yul\":2635:2636   */\n      0x04\n        /* \"#utility.yul\":2628:2643   */\n      mstore\n        /* \"#utility.yul\":2662:2666   */\n      0x24\n        /* \"#utility.yul\":2659:2660   */\n      0x00\n        /* \"#utility.yul\":2652:2667   */\n      revert\n        /* \"#utility.yul\":2679:2859   */\n    tag_24:\n        /* \"#utility.yul\":2727:2804   */\n      0x4e487b7100000000000000000000000000000000000000000000000000000000\n        /* \"#utility.yul\":2724:2725   */\n      0x00\n        /* \"#utility.yul\":2717:2805   */\n      mstore\n        /* \"#utility.yul\":2824:2828   */\n      0x32\n        /* \"#utility.yul\":2821:2822   */\n      0x04\n        /* \"#utility.yul\":2814:2829   */\n      mstore\n        /* \"#utility.yul\":2848:2852   */\n      0x24\n        /* \"#utility.yul\":2845:2846   */\n      0x00\n        /* \"#utility.yul\":2838:2853   */\n      revert\n        /* \"#utility.yul\":2988:3105   */\n    tag_39:\n        /* \"#utility.yul\":3097:3098   */\n      0x00\n        /* \"#utility.yul\":3094:3095   */\n      dup1\n        /* \"#utility.yul\":3087:3099   */\n      revert\n        /* \"#utility.yul\":3111:3213   */\n    tag_50:\n        /* \"#utility.yul\":3152:3158   */\n      0x00\n        /* \"#utility.yul\":3203:3205   */\n      0x1f\n        /* \"#utility.yul\":3199:3206   */\n      not\n        /* \"#utility.yul\":3194:3196   */\n      0x1f\n        /* \"#utility.yul\":3187:3192   */\n      dup4\n        /* \"#utility.yul\":3183:3197   */\n      add\n        /* \"#utility.yul\":3179:3207   */\n      and\n        /* \"#utility.yul\":3169:3207   */\n      swap1\n      pop\n        /* \"#utility.yul\":3111:3213   */\n      swap2\n      swap1\n      pop\n      jump\t// out\n        /* \"#utility.yul\":3219:3341   */\n    tag_35:\n        /* \"#utility.yul\":3292:3316   */\n      tag_80\n        /* \"#utility.yul\":3310:3315   */\n      dup2\n        /* \"#utility.yul\":3292:3316   */\n      tag_54\n      jump\t// in\n    tag_80:\n        /* \"#utility.yul\":3285:3290   */\n      dup2\n        /* \"#utility.yul\":3282:3317   */\n      eq\n        /* \"#utility.yul\":3272:3335   */\n      tag_81\n      jumpi\n        /* \"#utility.yul\":3331:3332   */\n      0x00\n        /* \"#utility.yul\":3328:3329   */\n      dup1\n        /* \"#utility.yul\":3321:3333   */\n      revert\n        /* \"#utility.yul\":3272:3335   */\n    tag_81:\n        /* \"#utility.yul\":3219:3341   */\n      pop\n      jump\t// out\n\n    auxdata: 0xa264697066735822122018ad733ea74070686c87af61fd9115e0b962a2082e9a3d58a5e730de3f7104b964736f6c63430008070033\n}\n",
				"bytecode": {
					"linkReferences": {},
					"object": "608060405234801561001057600080fd5b5060006040518060400160405280600181526020016040518060400160405280600681526020017f76616c756531000000000000000000000000000000000000000000000000000081525081525090806001815401808255809150506001900390600052602060002090600202016000909190919091506000820151816000015560208201518160010190805190602001906100ad929190610154565b50505060006040518060400160405280600281526020016040518060400160405280600681526020017f76616c7565320000000000000000000000000000000000000000000000000000815250815250908060018154018082558091505060019003906000526020600020906002020160009091909190915060008201518160000155602082015181600101908051906020019061014c929190610154565b505050610258565b828054610160906101f7565b90600052602060002090601f01602090048101928261018257600085556101c9565b82601f1061019b57805160ff19168380011785556101c9565b828001600101855582156101c9579182015b828111156101c85782518255916020019190600101906101ad565b5b5090506101d691906101da565b5090565b5b808211156101f35760008160009055506001016101db565b5090565b6000600282049050600182168061020f57607f821691505b6020821081141561022357610222610229565b5b50919050565b7f4e487b7100000000000000000000000000000000000000000000000000000000600052602260045260246000fd5b610446806102676000396000f3fe608060405234801561001057600080fd5b50600436106100365760003560e01c80630955da981461003b5780638b33b4b21461006c575b600080fd5b61005560048036038101906100509190610255565b610076565b6040516100639291906102ca565b60405180910390f35b610074610132565b005b6000818154811061008657600080fd5b90600052602060002090600202016000915090508060000154908060010180546100af90610353565b80601f01602080910402602001604051908101604052809291908181526020018280546100db90610353565b80156101285780601f106100fd57610100808354040283529160200191610128565b820191906000526020600020905b81548152906001019060200180831161010b57829003601f168201915b5050505050905082565b600080600081548110610148576101476103b4565b5b90600052602060002090600202016040518060400160405290816000820154815260200160018201805461017b90610353565b80601f01602080910402602001604051908101604052809291908181526020018280546101a790610353565b80156101f45780601f106101c9576101008083540402835291602001916101f4565b820191906000526020600020905b8154815290600101906020018083116101d757829003601f168201915b50505050508152505090506040518060400160405280600981526020017f6e65772076616c75650000000000000000000000000000000000000000000000815250816020018190525050565b60008135905061024f816103f9565b92915050565b60006020828403121561026b5761026a6103e3565b5b600061027984828501610240565b91505092915050565b600061028d826102fa565b6102978185610305565b93506102a7818560208601610320565b6102b0816103e8565b840191505092915050565b6102c481610316565b82525050565b60006040820190506102df60008301856102bb565b81810360208301526102f18184610282565b90509392505050565b600081519050919050565b600082825260208201905092915050565b6000819050919050565b60005b8381101561033e578082015181840152602081019050610323565b8381111561034d576000848401525b50505050565b6000600282049050600182168061036b57607f821691505b6020821081141561037f5761037e610385565b5b50919050565b7f4e487b7100000000000000000000000000000000000000000000000000000000600052602260045260246000fd5b7f4e487b7100000000000000000000000000000000000000000000000000000000600052603260045260246000fd5b600080fd5b6000601f19601f8301169050919050565b61040281610316565b811461040d57600080fd5b5056fea264697066735822122018ad733ea74070686c87af61fd9115e0b962a2082e9a3d58a5e730de3f7104b964736f6c63430008070033",
					"opcodes": "PUSH1 0x80 PUSH1 0x40 MSTORE CALLVALUE DUP1 ISZERO PUSH2 0x10 JUMPI PUSH1 0x0 DUP1 REVERT JUMPDEST POP PUSH1 0x0 PUSH1 0x40 MLOAD DUP1 PUSH1 0x40 ADD PUSH1 0x40 MSTORE DUP1 PUSH1 0x1 DUP2 MSTORE PUSH1 0x20 ADD PUSH1 0x40 MLOAD DUP1 PUSH1 0x40 ADD PUSH1 0x40 MSTORE DUP1 PUSH1 0x6 DUP2 MSTORE PUSH1 0x20 ADD PUSH32 0x76616C7565310000000000000000000000000000000000000000000000000000 DUP2 MSTORE POP DUP2 MSTORE POP SWAP1 DUP1 PUSH1 0x1 DUP2 SLOAD ADD DUP1 DUP3 SSTORE DUP1 SWAP2 POP POP PUSH1 0x1 SWAP1 SUB SWAP1 PUSH1 0x0 MSTORE PUSH1 0x20 PUSH1 0x0 KECCAK256 SWAP1 PUSH1 0x2 MUL ADD PUSH1 0x0 SWAP1 SWAP2 SWAP1 SWAP2 SWAP1 SWAP2 POP PUSH1 0x0 DUP3 ADD MLOAD DUP2 PUSH1 0x0 ADD SSTORE PUSH1 0x20 DUP3 ADD MLOAD DUP2 PUSH1 0x1 ADD SWAP1 DUP1 MLOAD SWAP1 PUSH1 0x20 ADD SWAP1 PUSH2 0xAD SWAP3 SWAP2 SWAP1 PUSH2 0x154 JUMP JUMPDEST POP POP POP PUSH1 0x0 PUSH1 0x40 MLOAD DUP1 PUSH1 0x40 ADD PUSH1 0x40 MSTORE DUP1 PUSH1 0x2 DUP2 MSTORE PUSH1 0x20 ADD PUSH1 0x40 MLOAD DUP1 PUSH1 0x40 ADD PUSH1 0x40 MSTORE DUP1 PUSH1 0x6 DUP2 MSTORE PUSH1 0x20 ADD PUSH32 0x76616C7565320000000000000000000000000000000000000000000000000000 DUP2 MSTORE POP DUP2 MSTORE POP SWAP1 DUP1 PUSH1 0x1 DUP2 SLOAD ADD DUP1 DUP3 SSTORE DUP1 SWAP2 POP POP PUSH1 0x1 SWAP1 SUB SWAP1 PUSH1 0x0 MSTORE PUSH1 0x20 PUSH1 0x0 KECCAK256 SWAP1 PUSH1 0x2 MUL ADD PUSH1 0x0 SWAP1 SWAP2 SWAP1 SWAP2 SWAP1 SWAP2 POP PUSH1 0x0 DUP3 ADD MLOAD DUP2 PUSH1 0x0 ADD SSTORE PUSH1 0x20 DUP3 ADD MLOAD DUP2 PUSH1 0x1 ADD SWAP1 DUP1 MLOAD SWAP1 PUSH1 0x20 ADD SWAP1 PUSH2 0x14C SWAP3 SWAP2 SWAP1 PUSH2 0x154 JUMP JUMPDEST POP POP POP PUSH2 0x258 JUMP JUMPDEST DUP3 DUP1 SLOAD PUSH2 0x160 SWAP1 PUSH2 0x1F7 JUMP JUMPDEST SWAP1 PUSH1 0x0 MSTORE PUSH1 0x20 PUSH1 0x0 KECCAK256 SWAP1 PUSH1 0x1F ADD PUSH1 0x20 SWAP1 DIV DUP2 ADD SWAP3 DUP3 PUSH2 0x182 JUMPI PUSH1 0x0 DUP6 SSTORE PUSH2 0x1C9 JUMP JUMPDEST DUP3 PUSH1 0x1F LT PUSH2 0x19B JUMPI DUP1 MLOAD PUSH1 0xFF NOT AND DUP4 DUP1 ADD OR DUP6 SSTORE PUSH2 0x1C9 JUMP JUMPDEST DUP3 DUP1 ADD PUSH1 0x1 ADD DUP6 SSTORE DUP3 ISZERO PUSH2 0x1C9 JUMPI SWAP2 DUP3 ADD JUMPDEST DUP3 DUP2 GT ISZERO PUSH2 0x1C8 JUMPI DUP3 MLOAD DUP3 SSTORE SWAP2 PUSH1 0x20 ADD SWAP2 SWAP1 PUSH1 0x1 ADD SWAP1 PUSH2 0x1AD JUMP JUMPDEST JUMPDEST POP SWAP1 POP PUSH2 0x1D6 SWAP2 SWAP1 PUSH2 0x1DA JUMP JUMPDEST POP SWAP1 JUMP JUMPDEST JUMPDEST DUP1 DUP3 GT ISZERO PUSH2 0x1F3 JUMPI PUSH1 0x0 DUP2 PUSH1 0x0 SWAP1 SSTORE POP PUSH1 0x1 ADD PUSH2 0x1DB JUMP JUMPDEST POP SWAP1 JUMP JUMPDEST PUSH1 0x0 PUSH1 0x2 DUP3 DIV SWAP1 POP PUSH1 0x1 DUP3 AND DUP1 PUSH2 0x20F JUMPI PUSH1 0x7F DUP3 AND SWAP2 POP JUMPDEST PUSH1 0x20 DUP3 LT DUP2 EQ ISZERO PUSH2 0x223 JUMPI PUSH2 0x222 PUSH2 0x229 JUMP JUMPDEST JUMPDEST POP SWAP2 SWAP1 POP JUMP JUMPDEST PUSH32 0x4E487B7100000000000000000000000000000000000000000000000000000000 PUSH1 0x0 MSTORE PUSH1 0x22 PUSH1 0x4 MSTORE PUSH1 0x24 PUSH1 0x0 REVERT JUMPDEST PUSH2 0x446 DUP1 PUSH2 0x267 PUSH1 0x0 CODECOPY PUSH1 0x0 RETURN INVALID PUSH1 0x80 PUSH1 0x40 MSTORE CALLVALUE DUP1 ISZERO PUSH2 0x10 JUMPI PUSH1 0x0 DUP1 REVERT JUMPDEST POP PUSH1 0x4 CALLDATASIZE LT PUSH2 0x36 JUMPI PUSH1 0x0 CALLDATALOAD PUSH1 0xE0 SHR DUP1 PUSH4 0x955DA98 EQ PUSH2 0x3B JUMPI DUP1 PUSH4 0x8B33B4B2 EQ PUSH2 0x6C JUMPI JUMPDEST PUSH1 0x0 DUP1 REVERT JUMPDEST PUSH2 0x55 PUSH1 0x4 DUP1 CALLDATASIZE SUB DUP2 ADD SWAP1 PUSH2 0x50 SWAP2 SWAP1 PUSH2 0x255 JUMP JUMPDEST PUSH2 0x76 JUMP JUMPDEST PUSH1 0x40 MLOAD PUSH2 0x63 SWAP3 SWAP2 SWAP1 PUSH2 0x2CA JUMP JUMPDEST PUSH1 0x40 MLOAD DUP1 SWAP2 SUB SWAP1 RETURN JUMPDEST PUSH2 0x74 PUSH2 0x132 JUMP JUMPDEST STOP JUMPDEST PUSH1 0x0 DUP2 DUP2 SLOAD DUP2 LT PUSH2 0x86 JUMPI PUSH1 0x0 DUP1 REVERT JUMPDEST SWAP1 PUSH1 0x0 MSTORE PUSH1 0x20 PUSH1 0x0 KECCAK256 SWAP1 PUSH1 0x2 MUL ADD PUSH1 0x0 SWAP2 POP SWAP1 POP DUP1 PUSH1 0x0 ADD SLOAD SWAP1 DUP1 PUSH1 0x1 ADD DUP1 SLOAD PUSH2 0xAF SWAP1 PUSH2 0x353 JUMP JUMPDEST DUP1 PUSH1 0x1F ADD PUSH1 0x20 DUP1 SWAP2 DIV MUL PUSH1 0x20 ADD PUSH1 0x40 MLOAD SWAP1 DUP2 ADD PUSH1 0x40 MSTORE DUP1 SWAP3 SWAP2 SWAP1 DUP2 DUP2 MSTORE PUSH1 0x20 ADD DUP3 DUP1 SLOAD PUSH2 0xDB SWAP1 PUSH2 0x353 JUMP JUMPDEST DUP1 ISZERO PUSH2 0x128 JUMPI DUP1 PUSH1 0x1F LT PUSH2 0xFD JUMPI PUSH2 0x100 DUP1 DUP4 SLOAD DIV MUL DUP4 MSTORE SWAP2 PUSH1 0x20 ADD SWAP2 PUSH2 0x128 JUMP JUMPDEST DUP3 ADD SWAP2 SWAP1 PUSH1 0x0 MSTORE PUSH1 0x20 PUSH1 0x0 KECCAK256 SWAP1 JUMPDEST DUP2 SLOAD DUP2 MSTORE SWAP1 PUSH1 0x1 ADD SWAP1 PUSH1 0x20 ADD DUP1 DUP4 GT PUSH2 0x10B JUMPI DUP3 SWAP1 SUB PUSH1 0x1F AND DUP3 ADD SWAP2 JUMPDEST POP POP POP POP POP SWAP1 POP DUP3 JUMP JUMPDEST PUSH1 0x0 DUP1 PUSH1 0x0 DUP2 SLOAD DUP2 LT PUSH2 0x148 JUMPI PUSH2 0x147 PUSH2 0x3B4 JUMP JUMPDEST JUMPDEST SWAP1 PUSH1 0x0 MSTORE PUSH1 0x20 PUSH1 0x0 KECCAK256 SWAP1 PUSH1 0x2 MUL ADD PUSH1 0x40 MLOAD DUP1 PUSH1 0x40 ADD PUSH1 0x40 MSTORE SWAP1 DUP2 PUSH1 0x0 DUP3 ADD SLOAD DUP2 MSTORE PUSH1 0x20 ADD PUSH1 0x1 DUP3 ADD DUP1 SLOAD PUSH2 0x17B SWAP1 PUSH2 0x353 JUMP JUMPDEST DUP1 PUSH1 0x1F ADD PUSH1 0x20 DUP1 SWAP2 DIV MUL PUSH1 0x20 ADD PUSH1 0x40 MLOAD SWAP1 DUP2 ADD PUSH1 0x40 MSTORE DUP1 SWAP3 SWAP2 SWAP1 DUP2 DUP2 MSTORE PUSH1 0x20 ADD DUP3 DUP1 SLOAD PUSH2 0x1A7 SWAP1 PUSH2 0x353 JUMP JUMPDEST DUP1 ISZERO PUSH2 0x1F4 JUMPI DUP1 PUSH1 0x1F LT PUSH2 0x1C9 JUMPI PUSH2 0x100 DUP1 DUP4 SLOAD DIV MUL DUP4 MSTORE SWAP2 PUSH1 0x20 ADD SWAP2 PUSH2 0x1F4 JUMP JUMPDEST DUP3 ADD SWAP2 SWAP1 PUSH1 0x0 MSTORE PUSH1 0x20 PUSH1 0x0 KECCAK256 SWAP1 JUMPDEST DUP2 SLOAD DUP2 MSTORE SWAP1 PUSH1 0x1 ADD SWAP1 PUSH1 0x20 ADD DUP1 DUP4 GT PUSH2 0x1D7 JUMPI DUP3 SWAP1 SUB PUSH1 0x1F AND DUP3 ADD SWAP2 JUMPDEST POP POP POP POP POP DUP2 MSTORE POP POP SWAP1 POP PUSH1 0x40 MLOAD DUP1 PUSH1 0x40 ADD PUSH1 0x40 MSTORE DUP1 PUSH1 0x9 DUP2 MSTORE PUSH1 0x20 ADD PUSH32 0x6E65772076616C75650000000000000000000000000000000000000000000000 DUP2 MSTORE POP DUP2 PUSH1 0x20 ADD DUP2 SWAP1 MSTORE POP POP JUMP JUMPDEST PUSH1 0x0 DUP2 CALLDATALOAD SWAP1 POP PUSH2 0x24F DUP2 PUSH2 0x3F9 JUMP JUMPDEST SWAP3 SWAP2 POP POP JUMP JUMPDEST PUSH1 0x0 PUSH1 0x20 DUP3 DUP5 SUB SLT ISZERO PUSH2 0x26B JUMPI PUSH2 0x26A PUSH2 0x3E3 JUMP JUMPDEST JUMPDEST PUSH1 0x0 PUSH2 0x279 DUP5 DUP3 DUP6 ADD PUSH2 0x240 JUMP JUMPDEST SWAP2 POP POP SWAP3 SWAP2 POP POP JUMP JUMPDEST PUSH1 0x0 PUSH2 0x28D DUP3 PUSH2 0x2FA JUMP JUMPDEST PUSH2 0x297 DUP2 DUP6 PUSH2 0x305 JUMP JUMPDEST SWAP4 POP PUSH2 0x2A7 DUP2 DUP6 PUSH1 0x20 DUP7 ADD PUSH2 0x320 JUMP JUMPDEST PUSH2 0x2B0 DUP2 PUSH2 0x3E8 JUMP JUMPDEST DUP5 ADD SWAP2 POP POP SWAP3 SWAP2 POP POP JUMP JUMPDEST PUSH2 0x2C4 DUP2 PUSH2 0x316 JUMP JUMPDEST DUP3 MSTORE POP POP JUMP JUMPDEST PUSH1 0x0 PUSH1 0x40 DUP3 ADD SWAP1 POP PUSH2 0x2DF PUSH1 0x0 DUP4 ADD DUP6 PUSH2 0x2BB JUMP JUMPDEST DUP2 DUP2 SUB PUSH1 0x20 DUP4 ADD MSTORE PUSH2 0x2F1 DUP2 DUP5 PUSH2 0x282 JUMP JUMPDEST SWAP1 POP SWAP4 SWAP3 POP POP POP JUMP JUMPDEST PUSH1 0x0 DUP2 MLOAD SWAP1 POP SWAP2 SWAP1 POP JUMP JUMPDEST PUSH1 0x0 DUP3 DUP3 MSTORE PUSH1 0x20 DUP3 ADD SWAP1 POP SWAP3 SWAP2 POP POP JUMP JUMPDEST PUSH1 0x0 DUP2 SWAP1 POP SWAP2 SWAP1 POP JUMP JUMPDEST PUSH1 0x0 JUMPDEST DUP4 DUP2 LT ISZERO PUSH2 0x33E JUMPI DUP1 DUP3 ADD MLOAD DUP2 DUP5 ADD MSTORE PUSH1 0x20 DUP2 ADD SWAP1 POP PUSH2 0x323 JUMP JUMPDEST DUP4 DUP2 GT ISZERO PUSH2 0x34D JUMPI PUSH1 0x0 DUP5 DUP5 ADD MSTORE JUMPDEST POP POP POP POP JUMP JUMPDEST PUSH1 0x0 PUSH1 0x2 DUP3 DIV SWAP1 POP PUSH1 0x1 DUP3 AND DUP1 PUSH2 0x36B JUMPI PUSH1 0x7F DUP3 AND SWAP2 POP JUMPDEST PUSH1 0x20 DUP3 LT DUP2 EQ ISZERO PUSH2 0x37F JUMPI PUSH2 0x37E PUSH2 0x385 JUMP JUMPDEST JUMPDEST POP SWAP2 SWAP1 POP JUMP JUMPDEST PUSH32 0x4E487B7100000000000000000000000000000000000000000000000000000000 PUSH1 0x0 MSTORE PUSH1 0x22 PUSH1 0x4 MSTORE PUSH1 0x24 PUSH1 0x0 REVERT JUMPDEST PUSH32 0x4E487B7100000000000000000000000000000000000000000000000000000000 PUSH1 0x0 MSTORE PUSH1 0x32 PUSH1 0x4 MSTORE PUSH1 0x24 PUSH1 0x0 REVERT JUMPDEST PUSH1 0x0 DUP1 REVERT JUMPDEST PUSH1 0x0 PUSH1 0x1F NOT PUSH1 0x1F DUP4 ADD AND SWAP1 POP SWAP2 SWAP1 POP JUMP JUMPDEST PUSH2 0x402 DUP2 PUSH2 0x316 JUMP JUMPDEST DUP2 EQ PUSH2 0x40D JUMPI PUSH1 0x0 DUP1 REVERT JUMPDEST POP JUMP INVALID LOG2 PUSH5 0x6970667358 0x22 SLT KECCAK256 XOR 0xAD PUSH20 0x3EA74070686C87AF61FD9115E0B962A2082E9A3D PC 0xA5 0xE7 ADDRESS 0xDE EXTCODEHASH PUSH18 0x4B964736F6C634300080700330000000000 "
				},
				"gasEstimates": {
					"creation": {
						"codeDepositCost": "218800",
						"executionCost": "infinite",
						"totalCost": "infinite"
					},
					"external": {
						"myData(uint256)": "infinite",
						"operations()": "infinite"
					}
				},
				"methodIdentifiers": {
					"myData(uint256)": "0955da98",
					"operations()": "8b33b4b2"
				}
			},
			"storageLayout": {
				"storage": [
					{
						"astId": 10,
						"contract": "数据位置/memoryTest.sol:SolidityTest",
						"label": "myData",
						"offset": 0,
						"slot": "0",
						"type": "t_array(t_struct(MyData)6_storage)dyn_storage"
					}
				],
				"types": {
					"t_array(t_struct(MyData)6_storage)dyn_storage": {
						"base": "t_struct(MyData)6_storage",
						"encoding": "dynamic_array",
						"label": "struct SolidityTest.MyData[]",
						"numberOfBytes": "32"
					},
					"t_string_storage": {
						"encoding": "bytes",
						"label": "string",
						"numberOfBytes": "32"
					},
					"t_struct(MyData)6_storage": {
						"encoding": "inplace",
						"label": "struct SolidityTest.MyData",
						"members": [
							{
								"astId": 3,
								"contract": "数据位置/memoryTest.sol:SolidityTest",
								"label": "id",
								"offset": 0,
								"slot": "0",
								"type": "t_uint256"
							},
							{
								"astId": 5,
								"contract": "数据位置/memoryTest.sol:SolidityTest",
								"label": "value",
								"offset": 0,
								"slot": "1",
								"type": "t_string_storage"
							}
						],
						"numberOfBytes": "64"
					},
					"t_uint256": {
						"encoding": "inplace",
						"label": "uint256",
						"numberOfBytes": "32"
					}
				}
			},
			"userdoc": {
				"kind": "user",
				"methods": {},
				"version": 1
			}
		}
	}
}