{
	"data": {
		"bytecode": {
			"linkReferences": {},
			"object": "608060405234801561001057600080fd5b506101d1806100206000396000f3fe6080604052600436106100295760003560e01c80638bb5d9c31461002e578063f2b2ee2814610057575b600080fd5b34801561003a57600080fd5b50610055600480360381019061005091906100c5565b610075565b005b61005f61007f565b60405161006c9190610101565b60405180910390f35b8060008190555050565b60005b6000805411156100a85760008081548092919061009e90610126565b9190505550610082565b600054905090565b6000813590506100bf81610184565b92915050565b6000602082840312156100db576100da61017f565b5b60006100e9848285016100b0565b91505092915050565b6100fb8161011c565b82525050565b600060208201905061011660008301846100f2565b92915050565b6000819050919050565b60006101318261011c565b9150600082141561014557610144610150565b5b600182039050919050565b7f4e487b7100000000000000000000000000000000000000000000000000000000600052601160045260246000fd5b600080fd5b61018d8161011c565b811461019857600080fd5b5056fea264697066735822122007180918604f368070791a892485a0c60e6d8ccdf6707ea183166e3d61d5365264736f6c63430008070033",
			"opcodes": "PUSH1 0x80 PUSH1 0x40 MSTORE CALLVALUE DUP1 ISZERO PUSH2 0x10 JUMPI PUSH1 0x0 DUP1 REVERT JUMPDEST POP PUSH2 0x1D1 DUP1 PUSH2 0x20 PUSH1 0x0 CODECOPY PUSH1 0x0 RETURN INVALID PUSH1 0x80 PUSH1 0x40 MSTORE PUSH1 0x4 CALLDATASIZE LT PUSH2 0x29 JUMPI PUSH1 0x0 CALLDATALOAD PUSH1 0xE0 SHR DUP1 PUSH4 0x8BB5D9C3 EQ PUSH2 0x2E JUMPI DUP1 PUSH4 0xF2B2EE28 EQ PUSH2 0x57 JUMPI JUMPDEST PUSH1 0x0 DUP1 REVERT JUMPDEST CALLVALUE DUP1 ISZERO PUSH2 0x3A JUMPI PUSH1 0x0 DUP1 REVERT JUMPDEST POP PUSH2 0x55 PUSH1 0x4 DUP1 CALLDATASIZE SUB DUP2 ADD SWAP1 PUSH2 0x50 SWAP2 SWAP1 PUSH2 0xC5 JUMP JUMPDEST PUSH2 0x75 JUMP JUMPDEST STOP JUMPDEST PUSH2 0x5F PUSH2 0x7F JUMP JUMPDEST PUSH1 0x40 MLOAD PUSH2 0x6C SWAP2 SWAP1 PUSH2 0x101 JUMP JUMPDEST PUSH1 0x40 MLOAD DUP1 SWAP2 SUB SWAP1 RETURN JUMPDEST DUP1 PUSH1 0x0 DUP2 SWAP1 SSTORE POP POP JUMP JUMPDEST PUSH1 0x0 JUMPDEST PUSH1 0x0 DUP1 SLOAD GT ISZERO PUSH2 0xA8 JUMPI PUSH1 0x0 DUP1 DUP2 SLOAD DUP1 SWAP3 SWAP2 SWAP1 PUSH2 0x9E SWAP1 PUSH2 0x126 JUMP JUMPDEST SWAP2 SWAP1 POP SSTORE POP PUSH2 0x82 JUMP JUMPDEST PUSH1 0x0 SLOAD SWAP1 POP SWAP1 JUMP JUMPDEST PUSH1 0x0 DUP2 CALLDATALOAD SWAP1 POP PUSH2 0xBF DUP2 PUSH2 0x184 JUMP JUMPDEST SWAP3 SWAP2 POP POP JUMP JUMPDEST PUSH1 0x0 PUSH1 0x20 DUP3 DUP5 SUB SLT ISZERO PUSH2 0xDB JUMPI PUSH2 0xDA PUSH2 0x17F JUMP JUMPDEST JUMPDEST PUSH1 0x0 PUSH2 0xE9 DUP5 DUP3 DUP6 ADD PUSH2 0xB0 JUMP JUMPDEST SWAP2 POP POP SWAP3 SWAP2 POP POP JUMP JUMPDEST PUSH2 0xFB DUP2 PUSH2 0x11C JUMP JUMPDEST DUP3 MSTORE POP POP JUMP JUMPDEST PUSH1 0x0 PUSH1 0x20 DUP3 ADD SWAP1 POP PUSH2 0x116 PUSH1 0x0 DUP4 ADD DUP5 PUSH2 0xF2 JUMP JUMPDEST SWAP3 SWAP2 POP POP JUMP JUMPDEST PUSH1 0x0 DUP2 SWAP1 POP SWAP2 SWAP1 POP JUMP JUMPDEST PUSH1 0x0 PUSH2 0x131 DUP3 PUSH2 0x11C JUMP JUMPDEST SWAP2 POP PUSH1 0x0 DUP3 EQ ISZERO PUSH2 0x145 JUMPI PUSH2 0x144 PUSH2 0x150 JUMP JUMPDEST JUMPDEST PUSH1 0x1 DUP3 SUB SWAP1 POP SWAP2 SWAP1 POP JUMP JUMPDEST PUSH32 0x4E487B7100000000000000000000000000000000000000000000000000000000 PUSH1 0x0 MSTORE PUSH1 0x11 PUSH1 0x4 MSTORE PUSH1 0x24 PUSH1 0x0 REVERT JUMPDEST PUSH1 0x0 DUP1 REVERT JUMPDEST PUSH2 0x18D DUP2 PUSH2 0x11C JUMP JUMPDEST DUP2 EQ PUSH2 0x198 JUMPI PUSH1 0x0 DUP1 REVERT JUMPDEST POP JUMP INVALID LOG2 PUSH5 0x6970667358 0x22 SLT KECCAK256 SMOD XOR MULMOD XOR PUSH1 0x4F CALLDATASIZE DUP1 PUSH17 0x791A892485A0C60E6D8CCDF6707EA18316 PUSH15 0x3D61D5365264736F6C634300080700 CALLER "
		},
		"gasEstimates": {
			"creation": {
				"codeDepositCost": "93000",
				"executionCost": "141",
				"totalCost": "93141"
			},
			"external": {
				"countDowm()": "infinite",
				"setCounter(uint256)": "22498"
			}
		},
		"methodIdentifiers": {
			"countDowm()": "f2b2ee28",
			"setCounter(uint256)": "8bb5d9c3"
		}
	},
	"abi": [
		{
			"inputs": [],
			"name": "countDowm",
			"outputs": [
				{
					"internalType": "uint256",
					"name": "",
					"type": "uint256"
				}
			],
			"stateMutability": "payable",
			"type": "function"
		},
		{
			"inputs": [
				{
					"internalType": "uint256",
					"name": "_counter",
					"type": "uint256"
				}
			],
			"name": "setCounter",
			"outputs": [],
			"stateMutability": "nonpayable",
			"type": "function"
		}
	]
}