{
	"for循环/for_test.sol": {
		"Example": {
			"abi": [
				{
					"inputs": [],
					"name": "fillNumbers",
					"outputs": [
						{
							"internalType": "uint256",
							"name": "",
							"type": "uint256"
						}
					],
					"stateMutability": "payable",
					"type": "function"
				},
				{
					"inputs": [
						{
							"internalType": "uint256",
							"name": "",
							"type": "uint256"
						}
					],
					"name": "numbers",
					"outputs": [
						{
							"internalType": "uint256",
							"name": "",
							"type": "uint256"
						}
					],
					"stateMutability": "view",
					"type": "function"
				},
				{
					"inputs": [
						{
							"internalType": "uint256",
							"name": "_counter",
							"type": "uint256"
						}
					],
					"name": "setCounter",
					"outputs": [],
					"stateMutability": "nonpayable",
					"type": "function"
				}
			],
			"devdoc": {
				"kind": "dev",
				"methods": {},
				"version": 1
			},
			"evm": {
				"assembly": "    /* \"for\\xe5\\xbe\\xaa\\xe7\\x8e\\xaf/for_test.sol\":60:431  contract Example {\r... */\n  mstore(0x40, 0x80)\n  callvalue\n  dup1\n  iszero\n  tag_1\n  jumpi\n  0x00\n  dup1\n  revert\ntag_1:\n  pop\n  dataSize(sub_0)\n  dup1\n  dataOffset(sub_0)\n  0x00\n  codecopy\n  0x00\n  return\nstop\n\nsub_0: assembly {\n        /* \"for\\xe5\\xbe\\xaa\\xe7\\x8e\\xaf/for_test.sol\":60:431  contract Example {\r... */\n      mstore(0x40, 0x80)\n      jumpi(tag_1, lt(calldatasize, 0x04))\n      shr(0xe0, calldataload(0x00))\n      dup1\n      0x27fbc6a6\n      eq\n      tag_2\n      jumpi\n      dup1\n      0x8bb5d9c3\n      eq\n      tag_3\n      jumpi\n      dup1\n      0xd39fa233\n      eq\n      tag_4\n      jumpi\n    tag_1:\n      0x00\n      dup1\n      revert\n        /* \"for\\xe5\\xbe\\xaa\\xe7\\x8e\\xaf/for_test.sol\":243:428  function fillNumbers() public payable returns(uint) {\r... */\n    tag_2:\n      tag_5\n      tag_6\n      jump\t// in\n    tag_5:\n      mload(0x40)\n      tag_7\n      swap2\n      swap1\n      tag_8\n      jump\t// in\n    tag_7:\n      mload(0x40)\n      dup1\n      swap2\n      sub\n      swap1\n      return\n        /* \"for\\xe5\\xbe\\xaa\\xe7\\x8e\\xaf/for_test.sol\":156:235  function setCounter(uint _counter) public {\r... */\n    tag_3:\n      callvalue\n      dup1\n      iszero\n      tag_9\n      jumpi\n      0x00\n      dup1\n      revert\n    tag_9:\n      pop\n      tag_10\n      0x04\n      dup1\n      calldatasize\n      sub\n      dup2\n      add\n      swap1\n      tag_11\n      swap2\n      swap1\n      tag_12\n      jump\t// in\n    tag_11:\n      tag_13\n      jump\t// in\n    tag_10:\n      stop\n        /* \"for\\xe5\\xbe\\xaa\\xe7\\x8e\\xaf/for_test.sol\":111:147  mapping(uint => uint) public numbers */\n    tag_4:\n      callvalue\n      dup1\n      iszero\n      tag_14\n      jumpi\n      0x00\n      dup1\n      revert\n    tag_14:\n      pop\n      tag_15\n      0x04\n      dup1\n      calldatasize\n      sub\n      dup2\n      add\n      swap1\n      tag_16\n      swap2\n      swap1\n      tag_12\n      jump\t// in\n    tag_16:\n      tag_17\n      jump\t// in\n    tag_15:\n      mload(0x40)\n      tag_18\n      swap2\n      swap1\n      tag_8\n      jump\t// in\n    tag_18:\n      mload(0x40)\n      dup1\n      swap2\n      sub\n      swap1\n      return\n        /* \"for\\xe5\\xbe\\xaa\\xe7\\x8e\\xaf/for_test.sol\":243:428  function fillNumbers() public payable returns(uint) {\r... */\n    tag_6:\n        /* \"for\\xe5\\xbe\\xaa\\xe7\\x8e\\xaf/for_test.sol\":289:293  uint */\n      0x00\n        /* \"for\\xe5\\xbe\\xaa\\xe7\\x8e\\xaf/for_test.sol\":310:316  uint i */\n      dup1\n        /* \"for\\xe5\\xbe\\xaa\\xe7\\x8e\\xaf/for_test.sol\":319:320  0 */\n      0x00\n        /* \"for\\xe5\\xbe\\xaa\\xe7\\x8e\\xaf/for_test.sol\":310:320  uint i = 0 */\n      swap1\n      pop\n        /* \"for\\xe5\\xbe\\xaa\\xe7\\x8e\\xaf/for_test.sol\":306:385  for(uint i = 0; i < counter; i++) {\r... */\n    tag_20:\n        /* \"for\\xe5\\xbe\\xaa\\xe7\\x8e\\xaf/for_test.sol\":326:333  counter */\n      sload(0x00)\n        /* \"for\\xe5\\xbe\\xaa\\xe7\\x8e\\xaf/for_test.sol\":322:323  i */\n      dup2\n        /* \"for\\xe5\\xbe\\xaa\\xe7\\x8e\\xaf/for_test.sol\":322:333  i < counter */\n      lt\n        /* \"for\\xe5\\xbe\\xaa\\xe7\\x8e\\xaf/for_test.sol\":306:385  for(uint i = 0; i < counter; i++) {\r... */\n      iszero\n      tag_21\n      jumpi\n        /* \"for\\xe5\\xbe\\xaa\\xe7\\x8e\\xaf/for_test.sol\":372:373  2 */\n      0x02\n        /* \"for\\xe5\\xbe\\xaa\\xe7\\x8e\\xaf/for_test.sol\":368:369  i */\n      dup2\n        /* \"for\\xe5\\xbe\\xaa\\xe7\\x8e\\xaf/for_test.sol\":368:373  i * 2 */\n      tag_23\n      swap2\n      swap1\n      tag_24\n      jump\t// in\n    tag_23:\n        /* \"for\\xe5\\xbe\\xaa\\xe7\\x8e\\xaf/for_test.sol\":355:362  numbers */\n      0x01\n        /* \"for\\xe5\\xbe\\xaa\\xe7\\x8e\\xaf/for_test.sol\":355:365  numbers[i] */\n      0x00\n        /* \"for\\xe5\\xbe\\xaa\\xe7\\x8e\\xaf/for_test.sol\":363:364  i */\n      dup4\n        /* \"for\\xe5\\xbe\\xaa\\xe7\\x8e\\xaf/for_test.sol\":355:365  numbers[i] */\n      dup2\n      mstore\n      0x20\n      add\n      swap1\n      dup2\n      mstore\n      0x20\n      add\n      0x00\n      keccak256\n        /* \"for\\xe5\\xbe\\xaa\\xe7\\x8e\\xaf/for_test.sol\":355:373  numbers[i] = i * 2 */\n      dup2\n      swap1\n      sstore\n      pop\n        /* \"for\\xe5\\xbe\\xaa\\xe7\\x8e\\xaf/for_test.sol\":335:338  i++ */\n      dup1\n      dup1\n      tag_25\n      swap1\n      tag_26\n      jump\t// in\n    tag_25:\n      swap2\n      pop\n      pop\n        /* \"for\\xe5\\xbe\\xaa\\xe7\\x8e\\xaf/for_test.sol\":306:385  for(uint i = 0; i < counter; i++) {\r... */\n      jump(tag_20)\n    tag_21:\n      pop\n        /* \"for\\xe5\\xbe\\xaa\\xe7\\x8e\\xaf/for_test.sol\":402:409  numbers */\n      0x01\n        /* \"for\\xe5\\xbe\\xaa\\xe7\\x8e\\xaf/for_test.sol\":402:420  numbers[counter-1] */\n      0x00\n        /* \"for\\xe5\\xbe\\xaa\\xe7\\x8e\\xaf/for_test.sol\":418:419  1 */\n      0x01\n        /* \"for\\xe5\\xbe\\xaa\\xe7\\x8e\\xaf/for_test.sol\":410:417  counter */\n      sload(0x00)\n        /* \"for\\xe5\\xbe\\xaa\\xe7\\x8e\\xaf/for_test.sol\":410:419  counter-1 */\n      tag_27\n      swap2\n      swap1\n      tag_28\n      jump\t// in\n    tag_27:\n        /* \"for\\xe5\\xbe\\xaa\\xe7\\x8e\\xaf/for_test.sol\":402:420  numbers[counter-1] */\n      dup2\n      mstore\n      0x20\n      add\n      swap1\n      dup2\n      mstore\n      0x20\n      add\n      0x00\n      keccak256\n      sload\n        /* \"for\\xe5\\xbe\\xaa\\xe7\\x8e\\xaf/for_test.sol\":395:420  return numbers[counter-1] */\n      swap1\n      pop\n        /* \"for\\xe5\\xbe\\xaa\\xe7\\x8e\\xaf/for_test.sol\":243:428  function fillNumbers() public payable returns(uint) {\r... */\n      swap1\n      jump\t// out\n        /* \"for\\xe5\\xbe\\xaa\\xe7\\x8e\\xaf/for_test.sol\":156:235  function setCounter(uint _counter) public {\r... */\n    tag_13:\n        /* \"for\\xe5\\xbe\\xaa\\xe7\\x8e\\xaf/for_test.sol\":219:227  _counter */\n      dup1\n        /* \"for\\xe5\\xbe\\xaa\\xe7\\x8e\\xaf/for_test.sol\":209:216  counter */\n      0x00\n        /* \"for\\xe5\\xbe\\xaa\\xe7\\x8e\\xaf/for_test.sol\":209:227  counter = _counter */\n      dup2\n      swap1\n      sstore\n      pop\n        /* \"for\\xe5\\xbe\\xaa\\xe7\\x8e\\xaf/for_test.sol\":156:235  function setCounter(uint _counter) public {\r... */\n      pop\n      jump\t// out\n        /* \"for\\xe5\\xbe\\xaa\\xe7\\x8e\\xaf/for_test.sol\":111:147  mapping(uint => uint) public numbers */\n    tag_17:\n      mstore(0x20, 0x01)\n      dup1\n      0x00\n      mstore\n      keccak256(0x00, 0x40)\n      0x00\n      swap2\n      pop\n      swap1\n      pop\n      sload\n      dup2\n      jump\t// out\n        /* \"#utility.yul\":7:146   */\n    tag_31:\n        /* \"#utility.yul\":53:58   */\n      0x00\n        /* \"#utility.yul\":91:97   */\n      dup2\n        /* \"#utility.yul\":78:98   */\n      calldataload\n        /* \"#utility.yul\":69:98   */\n      swap1\n      pop\n        /* \"#utility.yul\":107:140   */\n      tag_33\n        /* \"#utility.yul\":134:139   */\n      dup2\n        /* \"#utility.yul\":107:140   */\n      tag_34\n      jump\t// in\n    tag_33:\n        /* \"#utility.yul\":7:146   */\n      swap3\n      swap2\n      pop\n      pop\n      jump\t// out\n        /* \"#utility.yul\":152:481   */\n    tag_12:\n        /* \"#utility.yul\":211:217   */\n      0x00\n        /* \"#utility.yul\":260:262   */\n      0x20\n        /* \"#utility.yul\":248:257   */\n      dup3\n        /* \"#utility.yul\":239:246   */\n      dup5\n        /* \"#utility.yul\":235:258   */\n      sub\n        /* \"#utility.yul\":231:263   */\n      slt\n        /* \"#utility.yul\":228:347   */\n      iszero\n      tag_36\n      jumpi\n        /* \"#utility.yul\":266:345   */\n      tag_37\n      tag_38\n      jump\t// in\n    tag_37:\n        /* \"#utility.yul\":228:347   */\n    tag_36:\n        /* \"#utility.yul\":386:387   */\n      0x00\n        /* \"#utility.yul\":411:464   */\n      tag_39\n        /* \"#utility.yul\":456:463   */\n      dup5\n        /* \"#utility.yul\":447:453   */\n      dup3\n        /* \"#utility.yul\":436:445   */\n      dup6\n        /* \"#utility.yul\":432:454   */\n      add\n        /* \"#utility.yul\":411:464   */\n      tag_31\n      jump\t// in\n    tag_39:\n        /* \"#utility.yul\":401:464   */\n      swap2\n      pop\n        /* \"#utility.yul\":357:474   */\n      pop\n        /* \"#utility.yul\":152:481   */\n      swap3\n      swap2\n      pop\n      pop\n      jump\t// out\n        /* \"#utility.yul\":487:605   */\n    tag_40:\n        /* \"#utility.yul\":574:598   */\n      tag_42\n        /* \"#utility.yul\":592:597   */\n      dup2\n        /* \"#utility.yul\":574:598   */\n      tag_43\n      jump\t// in\n    tag_42:\n        /* \"#utility.yul\":569:572   */\n      dup3\n        /* \"#utility.yul\":562:599   */\n      mstore\n        /* \"#utility.yul\":487:605   */\n      pop\n      pop\n      jump\t// out\n        /* \"#utility.yul\":611:833   */\n    tag_8:\n        /* \"#utility.yul\":704:708   */\n      0x00\n        /* \"#utility.yul\":742:744   */\n      0x20\n        /* \"#utility.yul\":731:740   */\n      dup3\n        /* \"#utility.yul\":727:745   */\n      add\n        /* \"#utility.yul\":719:745   */\n      swap1\n      pop\n        /* \"#utility.yul\":755:826   */\n      tag_45\n        /* \"#utility.yul\":823:824   */\n      0x00\n        /* \"#utility.yul\":812:821   */\n      dup4\n        /* \"#utility.yul\":808:825   */\n      add\n        /* \"#utility.yul\":799:805   */\n      dup5\n        /* \"#utility.yul\":755:826   */\n      tag_40\n      jump\t// in\n    tag_45:\n        /* \"#utility.yul\":611:833   */\n      swap3\n      swap2\n      pop\n      pop\n      jump\t// out\n        /* \"#utility.yul\":920:1268   */\n    tag_24:\n        /* \"#utility.yul\":960:967   */\n      0x00\n        /* \"#utility.yul\":983:1003   */\n      tag_49\n        /* \"#utility.yul\":1001:1002   */\n      dup3\n        /* \"#utility.yul\":983:1003   */\n      tag_43\n      jump\t// in\n    tag_49:\n        /* \"#utility.yul\":978:1003   */\n      swap2\n      pop\n        /* \"#utility.yul\":1017:1037   */\n      tag_50\n        /* \"#utility.yul\":1035:1036   */\n      dup4\n        /* \"#utility.yul\":1017:1037   */\n      tag_43\n      jump\t// in\n    tag_50:\n        /* \"#utility.yul\":1012:1037   */\n      swap3\n      pop\n        /* \"#utility.yul\":1205:1206   */\n      dup2\n        /* \"#utility.yul\":1137:1203   */\n      0xffffffffffffffffffffffffffffffffffffffffffffffffffffffffffffffff\n        /* \"#utility.yul\":1133:1207   */\n      div\n        /* \"#utility.yul\":1130:1131   */\n      dup4\n        /* \"#utility.yul\":1127:1208   */\n      gt\n        /* \"#utility.yul\":1122:1123   */\n      dup3\n        /* \"#utility.yul\":1115:1124   */\n      iszero\n        /* \"#utility.yul\":1108:1125   */\n      iszero\n        /* \"#utility.yul\":1104:1209   */\n      and\n        /* \"#utility.yul\":1101:1232   */\n      iszero\n      tag_51\n      jumpi\n        /* \"#utility.yul\":1212:1230   */\n      tag_52\n      tag_53\n      jump\t// in\n    tag_52:\n        /* \"#utility.yul\":1101:1232   */\n    tag_51:\n        /* \"#utility.yul\":1260:1261   */\n      dup3\n        /* \"#utility.yul\":1257:1258   */\n      dup3\n        /* \"#utility.yul\":1253:1262   */\n      mul\n        /* \"#utility.yul\":1242:1262   */\n      swap1\n      pop\n        /* \"#utility.yul\":920:1268   */\n      swap3\n      swap2\n      pop\n      pop\n      jump\t// out\n        /* \"#utility.yul\":1274:1465   */\n    tag_28:\n        /* \"#utility.yul\":1314:1318   */\n      0x00\n        /* \"#utility.yul\":1334:1354   */\n      tag_55\n        /* \"#utility.yul\":1352:1353   */\n      dup3\n        /* \"#utility.yul\":1334:1354   */\n      tag_43\n      jump\t// in\n    tag_55:\n        /* \"#utility.yul\":1329:1354   */\n      swap2\n      pop\n        /* \"#utility.yul\":1368:1388   */\n      tag_56\n        /* \"#utility.yul\":1386:1387   */\n      dup4\n        /* \"#utility.yul\":1368:1388   */\n      tag_43\n      jump\t// in\n    tag_56:\n        /* \"#utility.yul\":1363:1388   */\n      swap3\n      pop\n        /* \"#utility.yul\":1407:1408   */\n      dup3\n        /* \"#utility.yul\":1404:1405   */\n      dup3\n        /* \"#utility.yul\":1401:1409   */\n      lt\n        /* \"#utility.yul\":1398:1432   */\n      iszero\n      tag_57\n      jumpi\n        /* \"#utility.yul\":1412:1430   */\n      tag_58\n      tag_53\n      jump\t// in\n    tag_58:\n        /* \"#utility.yul\":1398:1432   */\n    tag_57:\n        /* \"#utility.yul\":1457:1458   */\n      dup3\n        /* \"#utility.yul\":1454:1455   */\n      dup3\n        /* \"#utility.yul\":1450:1459   */\n      sub\n        /* \"#utility.yul\":1442:1459   */\n      swap1\n      pop\n        /* \"#utility.yul\":1274:1465   */\n      swap3\n      swap2\n      pop\n      pop\n      jump\t// out\n        /* \"#utility.yul\":1471:1548   */\n    tag_43:\n        /* \"#utility.yul\":1508:1515   */\n      0x00\n        /* \"#utility.yul\":1537:1542   */\n      dup2\n        /* \"#utility.yul\":1526:1542   */\n      swap1\n      pop\n        /* \"#utility.yul\":1471:1548   */\n      swap2\n      swap1\n      pop\n      jump\t// out\n        /* \"#utility.yul\":1554:1787   */\n    tag_26:\n        /* \"#utility.yul\":1593:1596   */\n      0x00\n        /* \"#utility.yul\":1616:1640   */\n      tag_61\n        /* \"#utility.yul\":1634:1639   */\n      dup3\n        /* \"#utility.yul\":1616:1640   */\n      tag_43\n      jump\t// in\n    tag_61:\n        /* \"#utility.yul\":1607:1640   */\n      swap2\n      pop\n        /* \"#utility.yul\":1662:1728   */\n      0xffffffffffffffffffffffffffffffffffffffffffffffffffffffffffffffff\n        /* \"#utility.yul\":1655:1660   */\n      dup3\n        /* \"#utility.yul\":1652:1729   */\n      eq\n        /* \"#utility.yul\":1649:1752   */\n      iszero\n      tag_62\n      jumpi\n        /* \"#utility.yul\":1732:1750   */\n      tag_63\n      tag_53\n      jump\t// in\n    tag_63:\n        /* \"#utility.yul\":1649:1752   */\n    tag_62:\n        /* \"#utility.yul\":1779:1780   */\n      0x01\n        /* \"#utility.yul\":1772:1777   */\n      dup3\n        /* \"#utility.yul\":1768:1781   */\n      add\n        /* \"#utility.yul\":1761:1781   */\n      swap1\n      pop\n        /* \"#utility.yul\":1554:1787   */\n      swap2\n      swap1\n      pop\n      jump\t// out\n        /* \"#utility.yul\":1793:1973   */\n    tag_53:\n        /* \"#utility.yul\":1841:1918   */\n      0x4e487b7100000000000000000000000000000000000000000000000000000000\n        /* \"#utility.yul\":1838:1839   */\n      0x00\n        /* \"#utility.yul\":1831:1919   */\n      mstore\n        /* \"#utility.yul\":1938:1942   */\n      0x11\n        /* \"#utility.yul\":1935:1936   */\n      0x04\n        /* \"#utility.yul\":1928:1943   */\n      mstore\n        /* \"#utility.yul\":1962:1966   */\n      0x24\n        /* \"#utility.yul\":1959:1960   */\n      0x00\n        /* \"#utility.yul\":1952:1967   */\n      revert\n        /* \"#utility.yul\":2102:2219   */\n    tag_38:\n        /* \"#utility.yul\":2211:2212   */\n      0x00\n        /* \"#utility.yul\":2208:2209   */\n      dup1\n        /* \"#utility.yul\":2201:2213   */\n      revert\n        /* \"#utility.yul\":2225:2347   */\n    tag_34:\n        /* \"#utility.yul\":2298:2322   */\n      tag_69\n        /* \"#utility.yul\":2316:2321   */\n      dup2\n        /* \"#utility.yul\":2298:2322   */\n      tag_43\n      jump\t// in\n    tag_69:\n        /* \"#utility.yul\":2291:2296   */\n      dup2\n        /* \"#utility.yul\":2288:2323   */\n      eq\n        /* \"#utility.yul\":2278:2341   */\n      tag_70\n      jumpi\n        /* \"#utility.yul\":2337:2338   */\n      0x00\n        /* \"#utility.yul\":2334:2335   */\n      dup1\n        /* \"#utility.yul\":2327:2339   */\n      revert\n        /* \"#utility.yul\":2278:2341   */\n    tag_70:\n        /* \"#utility.yul\":2225:2347   */\n      pop\n      jump\t// out\n\n    auxdata: 0xa2646970667358221220c49e5dc3e6a63c14b252b386c7f80f65ba5b5c12a834e5ac68c10f49988ff5d164736f6c63430008070033\n}\n",
				"bytecode": {
					"linkReferences": {},
					"object": "608060405234801561001057600080fd5b5061031e806100206000396000f3fe6080604052600436106100345760003560e01c806327fbc6a6146100395780638bb5d9c314610057578063d39fa23314610080575b600080fd5b6100416100bd565b60405161004e91906101a1565b60405180910390f35b34801561006357600080fd5b5061007e60048036038101906100799190610165565b61012e565b005b34801561008c57600080fd5b506100a760048036038101906100a29190610165565b610138565b6040516100b491906101a1565b60405180910390f35b600080600090505b600054811015610106576002816100dc91906101bc565b600160008381526020019081526020016000208190555080806100fe90610254565b9150506100c5565b5060016000600160005461011a9190610216565b815260200190815260200160002054905090565b8060008190555050565b60016020528060005260406000206000915090505481565b60008135905061015f816102d1565b92915050565b60006020828403121561017b5761017a6102cc565b5b600061018984828501610150565b91505092915050565b61019b8161024a565b82525050565b60006020820190506101b66000830184610192565b92915050565b60006101c78261024a565b91506101d28361024a565b9250817fffffffffffffffffffffffffffffffffffffffffffffffffffffffffffffffff048311821515161561020b5761020a61029d565b5b828202905092915050565b60006102218261024a565b915061022c8361024a565b92508282101561023f5761023e61029d565b5b828203905092915050565b6000819050919050565b600061025f8261024a565b91507fffffffffffffffffffffffffffffffffffffffffffffffffffffffffffffffff8214156102925761029161029d565b5b600182019050919050565b7f4e487b7100000000000000000000000000000000000000000000000000000000600052601160045260246000fd5b600080fd5b6102da8161024a565b81146102e557600080fd5b5056fea2646970667358221220c49e5dc3e6a63c14b252b386c7f80f65ba5b5c12a834e5ac68c10f49988ff5d164736f6c63430008070033",
					"opcodes": "PUSH1 0x80 PUSH1 0x40 MSTORE CALLVALUE DUP1 ISZERO PUSH2 0x10 JUMPI PUSH1 0x0 DUP1 REVERT JUMPDEST POP PUSH2 0x31E DUP1 PUSH2 0x20 PUSH1 0x0 CODECOPY PUSH1 0x0 RETURN INVALID PUSH1 0x80 PUSH1 0x40 MSTORE PUSH1 0x4 CALLDATASIZE LT PUSH2 0x34 JUMPI PUSH1 0x0 CALLDATALOAD PUSH1 0xE0 SHR DUP1 PUSH4 0x27FBC6A6 EQ PUSH2 0x39 JUMPI DUP1 PUSH4 0x8BB5D9C3 EQ PUSH2 0x57 JUMPI DUP1 PUSH4 0xD39FA233 EQ PUSH2 0x80 JUMPI JUMPDEST PUSH1 0x0 DUP1 REVERT JUMPDEST PUSH2 0x41 PUSH2 0xBD JUMP JUMPDEST PUSH1 0x40 MLOAD PUSH2 0x4E SWAP2 SWAP1 PUSH2 0x1A1 JUMP JUMPDEST PUSH1 0x40 MLOAD DUP1 SWAP2 SUB SWAP1 RETURN JUMPDEST CALLVALUE DUP1 ISZERO PUSH2 0x63 JUMPI PUSH1 0x0 DUP1 REVERT JUMPDEST POP PUSH2 0x7E PUSH1 0x4 DUP1 CALLDATASIZE SUB DUP2 ADD SWAP1 PUSH2 0x79 SWAP2 SWAP1 PUSH2 0x165 JUMP JUMPDEST PUSH2 0x12E JUMP JUMPDEST STOP JUMPDEST CALLVALUE DUP1 ISZERO PUSH2 0x8C JUMPI PUSH1 0x0 DUP1 REVERT JUMPDEST POP PUSH2 0xA7 PUSH1 0x4 DUP1 CALLDATASIZE SUB DUP2 ADD SWAP1 PUSH2 0xA2 SWAP2 SWAP1 PUSH2 0x165 JUMP JUMPDEST PUSH2 0x138 JUMP JUMPDEST PUSH1 0x40 MLOAD PUSH2 0xB4 SWAP2 SWAP1 PUSH2 0x1A1 JUMP JUMPDEST PUSH1 0x40 MLOAD DUP1 SWAP2 SUB SWAP1 RETURN JUMPDEST PUSH1 0x0 DUP1 PUSH1 0x0 SWAP1 POP JUMPDEST PUSH1 0x0 SLOAD DUP2 LT ISZERO PUSH2 0x106 JUMPI PUSH1 0x2 DUP2 PUSH2 0xDC SWAP2 SWAP1 PUSH2 0x1BC JUMP JUMPDEST PUSH1 0x1 PUSH1 0x0 DUP4 DUP2 MSTORE PUSH1 0x20 ADD SWAP1 DUP2 MSTORE PUSH1 0x20 ADD PUSH1 0x0 KECCAK256 DUP2 SWAP1 SSTORE POP DUP1 DUP1 PUSH2 0xFE SWAP1 PUSH2 0x254 JUMP JUMPDEST SWAP2 POP POP PUSH2 0xC5 JUMP JUMPDEST POP PUSH1 0x1 PUSH1 0x0 PUSH1 0x1 PUSH1 0x0 SLOAD PUSH2 0x11A SWAP2 SWAP1 PUSH2 0x216 JUMP JUMPDEST DUP2 MSTORE PUSH1 0x20 ADD SWAP1 DUP2 MSTORE PUSH1 0x20 ADD PUSH1 0x0 KECCAK256 SLOAD SWAP1 POP SWAP1 JUMP JUMPDEST DUP1 PUSH1 0x0 DUP2 SWAP1 SSTORE POP POP JUMP JUMPDEST PUSH1 0x1 PUSH1 0x20 MSTORE DUP1 PUSH1 0x0 MSTORE PUSH1 0x40 PUSH1 0x0 KECCAK256 PUSH1 0x0 SWAP2 POP SWAP1 POP SLOAD DUP2 JUMP JUMPDEST PUSH1 0x0 DUP2 CALLDATALOAD SWAP1 POP PUSH2 0x15F DUP2 PUSH2 0x2D1 JUMP JUMPDEST SWAP3 SWAP2 POP POP JUMP JUMPDEST PUSH1 0x0 PUSH1 0x20 DUP3 DUP5 SUB SLT ISZERO PUSH2 0x17B JUMPI PUSH2 0x17A PUSH2 0x2CC JUMP JUMPDEST JUMPDEST PUSH1 0x0 PUSH2 0x189 DUP5 DUP3 DUP6 ADD PUSH2 0x150 JUMP JUMPDEST SWAP2 POP POP SWAP3 SWAP2 POP POP JUMP JUMPDEST PUSH2 0x19B DUP2 PUSH2 0x24A JUMP JUMPDEST DUP3 MSTORE POP POP JUMP JUMPDEST PUSH1 0x0 PUSH1 0x20 DUP3 ADD SWAP1 POP PUSH2 0x1B6 PUSH1 0x0 DUP4 ADD DUP5 PUSH2 0x192 JUMP JUMPDEST SWAP3 SWAP2 POP POP JUMP JUMPDEST PUSH1 0x0 PUSH2 0x1C7 DUP3 PUSH2 0x24A JUMP JUMPDEST SWAP2 POP PUSH2 0x1D2 DUP4 PUSH2 0x24A JUMP JUMPDEST SWAP3 POP DUP2 PUSH32 0xFFFFFFFFFFFFFFFFFFFFFFFFFFFFFFFFFFFFFFFFFFFFFFFFFFFFFFFFFFFFFFFF DIV DUP4 GT DUP3 ISZERO ISZERO AND ISZERO PUSH2 0x20B JUMPI PUSH2 0x20A PUSH2 0x29D JUMP JUMPDEST JUMPDEST DUP3 DUP3 MUL SWAP1 POP SWAP3 SWAP2 POP POP JUMP JUMPDEST PUSH1 0x0 PUSH2 0x221 DUP3 PUSH2 0x24A JUMP JUMPDEST SWAP2 POP PUSH2 0x22C DUP4 PUSH2 0x24A JUMP JUMPDEST SWAP3 POP DUP3 DUP3 LT ISZERO PUSH2 0x23F JUMPI PUSH2 0x23E PUSH2 0x29D JUMP JUMPDEST JUMPDEST DUP3 DUP3 SUB SWAP1 POP SWAP3 SWAP2 POP POP JUMP JUMPDEST PUSH1 0x0 DUP2 SWAP1 POP SWAP2 SWAP1 POP JUMP JUMPDEST PUSH1 0x0 PUSH2 0x25F DUP3 PUSH2 0x24A JUMP JUMPDEST SWAP2 POP PUSH32 0xFFFFFFFFFFFFFFFFFFFFFFFFFFFFFFFFFFFFFFFFFFFFFFFFFFFFFFFFFFFFFFFF DUP3 EQ ISZERO PUSH2 0x292 JUMPI PUSH2 0x291 PUSH2 0x29D JUMP JUMPDEST JUMPDEST PUSH1 0x1 DUP3 ADD SWAP1 POP SWAP2 SWAP1 POP JUMP JUMPDEST PUSH32 0x4E487B7100000000000000000000000000000000000000000000000000000000 PUSH1 0x0 MSTORE PUSH1 0x11 PUSH1 0x4 MSTORE PUSH1 0x24 PUSH1 0x0 REVERT JUMPDEST PUSH1 0x0 DUP1 REVERT JUMPDEST PUSH2 0x2DA DUP2 PUSH2 0x24A JUMP JUMPDEST DUP2 EQ PUSH2 0x2E5 JUMPI PUSH1 0x0 DUP1 REVERT JUMPDEST POP JUMP INVALID LOG2 PUSH5 0x6970667358 0x22 SLT KECCAK256 0xC4 SWAP15 0x5D 0xC3 0xE6 0xA6 EXTCODECOPY EQ 0xB2 MSTORE 0xB3 DUP7 0xC7 0xF8 0xF PUSH6 0xBA5B5C12A834 0xE5 0xAC PUSH9 0xC10F49988FF5D16473 PUSH16 0x6C634300080700330000000000000000 "
				},
				"gasEstimates": {
					"creation": {
						"codeDepositCost": "159600",
						"executionCost": "202",
						"totalCost": "159802"
					},
					"external": {
						"fillNumbers()": "infinite",
						"numbers(uint256)": "infinite",
						"setCounter(uint256)": "22520"
					}
				},
				"methodIdentifiers": {
					"fillNumbers()": "27fbc6a6",
					"numbers(uint256)": "d39fa233",
					"setCounter(uint256)": "8bb5d9c3"
				}
			},
			"storageLayout": {
				"storage": [
					{
						"astId": 3,
						"contract": "for循环/for_test.sol:Example",
						"label": "counter",
						"offset": 0,
						"slot": "0",
						"type": "t_uint256"
					},
					{
						"astId": 7,
						"contract": "for循环/for_test.sol:Example",
						"label": "numbers",
						"offset": 0,
						"slot": "1",
						"type": "t_mapping(t_uint256,t_uint256)"
					}
				],
				"types": {
					"t_mapping(t_uint256,t_uint256)": {
						"encoding": "mapping",
						"key": "t_uint256",
						"label": "mapping(uint256 => uint256)",
						"numberOfBytes": "32",
						"value": "t_uint256"
					},
					"t_uint256": {
						"encoding": "inplace",
						"label": "uint256",
						"numberOfBytes": "32"
					}
				}
			},
			"userdoc": {
				"kind": "user",
				"methods": {},
				"version": 1
			}
		}
	}
}