{
	"函数/SolidityTest.sol": {
		"SimpleFunction": {
			"abi": [
				{
					"inputs": [],
					"name": "callFunction",
					"outputs": [],
					"stateMutability": "nonpayable",
					"type": "function"
				},
				{
					"inputs": [],
					"name": "count",
					"outputs": [
						{
							"internalType": "uint256",
							"name": "",
							"type": "uint256"
						}
					],
					"stateMutability": "view",
					"type": "function"
				},
				{
					"inputs": [],
					"name": "getCount",
					"outputs": [
						{
							"internalType": "uint256",
							"name": "",
							"type": "uint256"
						}
					],
					"stateMutability": "view",
					"type": "function"
				},
				{
					"inputs": [],
					"name": "increment",
					"outputs": [],
					"stateMutability": "nonpayable",
					"type": "function"
				}
			],
			"devdoc": {
				"kind": "dev",
				"methods": {},
				"version": 1
			},
			"evm": {
				"assembly": "    /* \"\\xe5\\x87\\xbd\\xe6\\x95\\xb0/SolidityTest.sol\":60:431  contract SimpleFunction  {\r... */\n  mstore(0x40, 0x80)\n  callvalue\n  dup1\n  iszero\n  tag_1\n  jumpi\n  0x00\n  dup1\n  revert\ntag_1:\n  pop\n  dataSize(sub_0)\n  dup1\n  dataOffset(sub_0)\n  0x00\n  codecopy\n  0x00\n  return\nstop\n\nsub_0: assembly {\n        /* \"\\xe5\\x87\\xbd\\xe6\\x95\\xb0/SolidityTest.sol\":60:431  contract SimpleFunction  {\r... */\n      mstore(0x40, 0x80)\n      callvalue\n      dup1\n      iszero\n      tag_1\n      jumpi\n      0x00\n      dup1\n      revert\n    tag_1:\n      pop\n      jumpi(tag_2, lt(calldatasize, 0x04))\n      shr(0xe0, calldataload(0x00))\n      dup1\n      0x06661abd\n      eq\n      tag_3\n      jumpi\n      dup1\n      0xa87d942c\n      eq\n      tag_4\n      jumpi\n      dup1\n      0xbedfc5a1\n      eq\n      tag_5\n      jumpi\n      dup1\n      0xd09de08a\n      eq\n      tag_6\n      jumpi\n    tag_2:\n      0x00\n      dup1\n      revert\n        /* \"\\xe5\\x87\\xbd\\xe6\\x95\\xb0/SolidityTest.sol\":92:112  uint256 public count */\n    tag_3:\n      tag_7\n      tag_8\n      jump\t// in\n    tag_7:\n      mload(0x40)\n      tag_9\n      swap2\n      swap1\n      tag_10\n      jump\t// in\n    tag_9:\n      mload(0x40)\n      dup1\n      swap2\n      sub\n      swap1\n      return\n        /* \"\\xe5\\x87\\xbd\\xe6\\x95\\xb0/SolidityTest.sol\":183:264  function getCount() public view returns (uint256) {\r... */\n    tag_4:\n      tag_11\n      tag_12\n      jump\t// in\n    tag_11:\n      mload(0x40)\n      tag_13\n      swap2\n      swap1\n      tag_10\n      jump\t// in\n    tag_13:\n      mload(0x40)\n      dup1\n      swap2\n      sub\n      swap1\n      return\n        /* \"\\xe5\\x87\\xbd\\xe6\\x95\\xb0/SolidityTest.sol\":272:428  function callFunction() public {\r... */\n    tag_5:\n      tag_14\n      tag_15\n      jump\t// in\n    tag_14:\n      stop\n        /* \"\\xe5\\x87\\xbd\\xe6\\x95\\xb0/SolidityTest.sol\":121:175  function increment() public {\r... */\n    tag_6:\n      tag_16\n      tag_17\n      jump\t// in\n    tag_16:\n      stop\n        /* \"\\xe5\\x87\\xbd\\xe6\\x95\\xb0/SolidityTest.sol\":92:112  uint256 public count */\n    tag_8:\n      sload(0x00)\n      dup2\n      jump\t// out\n        /* \"\\xe5\\x87\\xbd\\xe6\\x95\\xb0/SolidityTest.sol\":183:264  function getCount() public view returns (uint256) {\r... */\n    tag_12:\n        /* \"\\xe5\\x87\\xbd\\xe6\\x95\\xb0/SolidityTest.sol\":224:231  uint256 */\n      0x00\n        /* \"\\xe5\\x87\\xbd\\xe6\\x95\\xb0/SolidityTest.sol\":251:256  count */\n      dup1\n      sload\n        /* \"\\xe5\\x87\\xbd\\xe6\\x95\\xb0/SolidityTest.sol\":244:256  return count */\n      swap1\n      pop\n        /* \"\\xe5\\x87\\xbd\\xe6\\x95\\xb0/SolidityTest.sol\":183:264  function getCount() public view returns (uint256) {\r... */\n      swap1\n      jump\t// out\n        /* \"\\xe5\\x87\\xbd\\xe6\\x95\\xb0/SolidityTest.sol\":272:428  function callFunction() public {\r... */\n    tag_15:\n        /* \"\\xe5\\x87\\xbd\\xe6\\x95\\xb0/SolidityTest.sol\":314:325  increment() */\n      tag_20\n        /* \"\\xe5\\x87\\xbd\\xe6\\x95\\xb0/SolidityTest.sol\":314:323  increment */\n      tag_17\n        /* \"\\xe5\\x87\\xbd\\xe6\\x95\\xb0/SolidityTest.sol\":314:325  increment() */\n      jump\t// in\n    tag_20:\n        /* \"\\xe5\\x87\\xbd\\xe6\\x95\\xb0/SolidityTest.sol\":336:347  increment() */\n      tag_21\n        /* \"\\xe5\\x87\\xbd\\xe6\\x95\\xb0/SolidityTest.sol\":336:345  increment */\n      tag_17\n        /* \"\\xe5\\x87\\xbd\\xe6\\x95\\xb0/SolidityTest.sol\":336:347  increment() */\n      jump\t// in\n    tag_21:\n        /* \"\\xe5\\x87\\xbd\\xe6\\x95\\xb0/SolidityTest.sol\":358:378  uint256 currentCount */\n      0x00\n        /* \"\\xe5\\x87\\xbd\\xe6\\x95\\xb0/SolidityTest.sol\":381:391  getCount() */\n      tag_22\n        /* \"\\xe5\\x87\\xbd\\xe6\\x95\\xb0/SolidityTest.sol\":381:389  getCount */\n      tag_12\n        /* \"\\xe5\\x87\\xbd\\xe6\\x95\\xb0/SolidityTest.sol\":381:391  getCount() */\n      jump\t// in\n    tag_22:\n        /* \"\\xe5\\x87\\xbd\\xe6\\x95\\xb0/SolidityTest.sol\":358:391  uint256 currentCount = getCount() */\n      swap1\n      pop\n        /* \"\\xe5\\x87\\xbd\\xe6\\x95\\xb0/SolidityTest.sol\":303:428  {\r... */\n      pop\n        /* \"\\xe5\\x87\\xbd\\xe6\\x95\\xb0/SolidityTest.sol\":272:428  function callFunction() public {\r... */\n      jump\t// out\n        /* \"\\xe5\\x87\\xbd\\xe6\\x95\\xb0/SolidityTest.sol\":121:175  function increment() public {\r... */\n    tag_17:\n        /* \"\\xe5\\x87\\xbd\\xe6\\x95\\xb0/SolidityTest.sol\":160:165  count */\n      0x00\n      dup1\n        /* \"\\xe5\\x87\\xbd\\xe6\\x95\\xb0/SolidityTest.sol\":160:167  count++ */\n      dup2\n      sload\n      dup1\n      swap3\n      swap2\n      swap1\n      tag_24\n      swap1\n      tag_25\n      jump\t// in\n    tag_24:\n      swap2\n      swap1\n      pop\n      sstore\n      pop\n        /* \"\\xe5\\x87\\xbd\\xe6\\x95\\xb0/SolidityTest.sol\":121:175  function increment() public {\r... */\n      jump\t// out\n        /* \"#utility.yul\":7:125   */\n    tag_27:\n        /* \"#utility.yul\":94:118   */\n      tag_29\n        /* \"#utility.yul\":112:117   */\n      dup2\n        /* \"#utility.yul\":94:118   */\n      tag_30\n      jump\t// in\n    tag_29:\n        /* \"#utility.yul\":89:92   */\n      dup3\n        /* \"#utility.yul\":82:119   */\n      mstore\n        /* \"#utility.yul\":7:125   */\n      pop\n      pop\n      jump\t// out\n        /* \"#utility.yul\":131:353   */\n    tag_10:\n        /* \"#utility.yul\":224:228   */\n      0x00\n        /* \"#utility.yul\":262:264   */\n      0x20\n        /* \"#utility.yul\":251:260   */\n      dup3\n        /* \"#utility.yul\":247:265   */\n      add\n        /* \"#utility.yul\":239:265   */\n      swap1\n      pop\n        /* \"#utility.yul\":275:346   */\n      tag_32\n        /* \"#utility.yul\":343:344   */\n      0x00\n        /* \"#utility.yul\":332:341   */\n      dup4\n        /* \"#utility.yul\":328:345   */\n      add\n        /* \"#utility.yul\":319:325   */\n      dup5\n        /* \"#utility.yul\":275:346   */\n      tag_27\n      jump\t// in\n    tag_32:\n        /* \"#utility.yul\":131:353   */\n      swap3\n      swap2\n      pop\n      pop\n      jump\t// out\n        /* \"#utility.yul\":359:436   */\n    tag_30:\n        /* \"#utility.yul\":396:403   */\n      0x00\n        /* \"#utility.yul\":425:430   */\n      dup2\n        /* \"#utility.yul\":414:430   */\n      swap1\n      pop\n        /* \"#utility.yul\":359:436   */\n      swap2\n      swap1\n      pop\n      jump\t// out\n        /* \"#utility.yul\":442:675   */\n    tag_25:\n        /* \"#utility.yul\":481:484   */\n      0x00\n        /* \"#utility.yul\":504:528   */\n      tag_35\n        /* \"#utility.yul\":522:527   */\n      dup3\n        /* \"#utility.yul\":504:528   */\n      tag_30\n      jump\t// in\n    tag_35:\n        /* \"#utility.yul\":495:528   */\n      swap2\n      pop\n        /* \"#utility.yul\":550:616   */\n      0xffffffffffffffffffffffffffffffffffffffffffffffffffffffffffffffff\n        /* \"#utility.yul\":543:548   */\n      dup3\n        /* \"#utility.yul\":540:617   */\n      eq\n        /* \"#utility.yul\":537:640   */\n      iszero\n      tag_36\n      jumpi\n        /* \"#utility.yul\":620:638   */\n      tag_37\n      tag_38\n      jump\t// in\n    tag_37:\n        /* \"#utility.yul\":537:640   */\n    tag_36:\n        /* \"#utility.yul\":667:668   */\n      0x01\n        /* \"#utility.yul\":660:665   */\n      dup3\n        /* \"#utility.yul\":656:669   */\n      add\n        /* \"#utility.yul\":649:669   */\n      swap1\n      pop\n        /* \"#utility.yul\":442:675   */\n      swap2\n      swap1\n      pop\n      jump\t// out\n        /* \"#utility.yul\":681:861   */\n    tag_38:\n        /* \"#utility.yul\":729:806   */\n      0x4e487b7100000000000000000000000000000000000000000000000000000000\n        /* \"#utility.yul\":726:727   */\n      0x00\n        /* \"#utility.yul\":719:807   */\n      mstore\n        /* \"#utility.yul\":826:830   */\n      0x11\n        /* \"#utility.yul\":823:824   */\n      0x04\n        /* \"#utility.yul\":816:831   */\n      mstore\n        /* \"#utility.yul\":850:854   */\n      0x24\n        /* \"#utility.yul\":847:848   */\n      0x00\n        /* \"#utility.yul\":840:855   */\n      revert\n\n    auxdata: 0xa26469706673582212203a9f6ee08ef375e26eb294366dd4cce3772776445dc386219d2375299be9636564736f6c63430008070033\n}\n",
				"bytecode": {
					"linkReferences": {},
					"object": "608060405234801561001057600080fd5b506101ca806100206000396000f3fe608060405234801561001057600080fd5b506004361061004c5760003560e01c806306661abd14610051578063a87d942c1461006f578063bedfc5a11461008d578063d09de08a14610097575b600080fd5b6100596100a1565b60405161006691906100f7565b60405180910390f35b6100776100a7565b60405161008491906100f7565b60405180910390f35b6100956100b0565b005b61009f6100cf565b005b60005481565b60008054905090565b6100b86100cf565b6100c06100cf565b60006100ca6100a7565b905050565b6000808154809291906100e19061011c565b9190505550565b6100f181610112565b82525050565b600060208201905061010c60008301846100e8565b92915050565b6000819050919050565b600061012782610112565b91507fffffffffffffffffffffffffffffffffffffffffffffffffffffffffffffffff82141561015a57610159610165565b5b600182019050919050565b7f4e487b7100000000000000000000000000000000000000000000000000000000600052601160045260246000fdfea26469706673582212203a9f6ee08ef375e26eb294366dd4cce3772776445dc386219d2375299be9636564736f6c63430008070033",
					"opcodes": "PUSH1 0x80 PUSH1 0x40 MSTORE CALLVALUE DUP1 ISZERO PUSH2 0x10 JUMPI PUSH1 0x0 DUP1 REVERT JUMPDEST POP PUSH2 0x1CA DUP1 PUSH2 0x20 PUSH1 0x0 CODECOPY PUSH1 0x0 RETURN INVALID PUSH1 0x80 PUSH1 0x40 MSTORE CALLVALUE DUP1 ISZERO PUSH2 0x10 JUMPI PUSH1 0x0 DUP1 REVERT JUMPDEST POP PUSH1 0x4 CALLDATASIZE LT PUSH2 0x4C JUMPI PUSH1 0x0 CALLDATALOAD PUSH1 0xE0 SHR DUP1 PUSH4 0x6661ABD EQ PUSH2 0x51 JUMPI DUP1 PUSH4 0xA87D942C EQ PUSH2 0x6F JUMPI DUP1 PUSH4 0xBEDFC5A1 EQ PUSH2 0x8D JUMPI DUP1 PUSH4 0xD09DE08A EQ PUSH2 0x97 JUMPI JUMPDEST PUSH1 0x0 DUP1 REVERT JUMPDEST PUSH2 0x59 PUSH2 0xA1 JUMP JUMPDEST PUSH1 0x40 MLOAD PUSH2 0x66 SWAP2 SWAP1 PUSH2 0xF7 JUMP JUMPDEST PUSH1 0x40 MLOAD DUP1 SWAP2 SUB SWAP1 RETURN JUMPDEST PUSH2 0x77 PUSH2 0xA7 JUMP JUMPDEST PUSH1 0x40 MLOAD PUSH2 0x84 SWAP2 SWAP1 PUSH2 0xF7 JUMP JUMPDEST PUSH1 0x40 MLOAD DUP1 SWAP2 SUB SWAP1 RETURN JUMPDEST PUSH2 0x95 PUSH2 0xB0 JUMP JUMPDEST STOP JUMPDEST PUSH2 0x9F PUSH2 0xCF JUMP JUMPDEST STOP JUMPDEST PUSH1 0x0 SLOAD DUP2 JUMP JUMPDEST PUSH1 0x0 DUP1 SLOAD SWAP1 POP SWAP1 JUMP JUMPDEST PUSH2 0xB8 PUSH2 0xCF JUMP JUMPDEST PUSH2 0xC0 PUSH2 0xCF JUMP JUMPDEST PUSH1 0x0 PUSH2 0xCA PUSH2 0xA7 JUMP JUMPDEST SWAP1 POP POP JUMP JUMPDEST PUSH1 0x0 DUP1 DUP2 SLOAD DUP1 SWAP3 SWAP2 SWAP1 PUSH2 0xE1 SWAP1 PUSH2 0x11C JUMP JUMPDEST SWAP2 SWAP1 POP SSTORE POP JUMP JUMPDEST PUSH2 0xF1 DUP2 PUSH2 0x112 JUMP JUMPDEST DUP3 MSTORE POP POP JUMP JUMPDEST PUSH1 0x0 PUSH1 0x20 DUP3 ADD SWAP1 POP PUSH2 0x10C PUSH1 0x0 DUP4 ADD DUP5 PUSH2 0xE8 JUMP JUMPDEST SWAP3 SWAP2 POP POP JUMP JUMPDEST PUSH1 0x0 DUP2 SWAP1 POP SWAP2 SWAP1 POP JUMP JUMPDEST PUSH1 0x0 PUSH2 0x127 DUP3 PUSH2 0x112 JUMP JUMPDEST SWAP2 POP PUSH32 0xFFFFFFFFFFFFFFFFFFFFFFFFFFFFFFFFFFFFFFFFFFFFFFFFFFFFFFFFFFFFFFFF DUP3 EQ ISZERO PUSH2 0x15A JUMPI PUSH2 0x159 PUSH2 0x165 JUMP JUMPDEST JUMPDEST PUSH1 0x1 DUP3 ADD SWAP1 POP SWAP2 SWAP1 POP JUMP JUMPDEST PUSH32 0x4E487B7100000000000000000000000000000000000000000000000000000000 PUSH1 0x0 MSTORE PUSH1 0x11 PUSH1 0x4 MSTORE PUSH1 0x24 PUSH1 0x0 REVERT INVALID LOG2 PUSH5 0x6970667358 0x22 SLT KECCAK256 GASPRICE SWAP16 PUSH15 0xE08EF375E26EB294366DD4CCE37727 PUSH23 0x445DC386219D2375299BE9636564736F6C634300080700 CALLER "
				},
				"gasEstimates": {
					"creation": {
						"codeDepositCost": "91600",
						"executionCost": "141",
						"totalCost": "91741"
					},
					"external": {
						"callFunction()": "infinite",
						"count()": "2407",
						"getCount()": "2437",
						"increment()": "24548"
					}
				},
				"methodIdentifiers": {
					"callFunction()": "bedfc5a1",
					"count()": "06661abd",
					"getCount()": "a87d942c",
					"increment()": "d09de08a"
				}
			},
			"storageLayout": {
				"storage": [
					{
						"astId": 3,
						"contract": "函数/SolidityTest.sol:SimpleFunction",
						"label": "count",
						"offset": 0,
						"slot": "0",
						"type": "t_uint256"
					}
				],
				"types": {
					"t_uint256": {
						"encoding": "inplace",
						"label": "uint256",
						"numberOfBytes": "32"
					}
				}
			},
			"userdoc": {
				"kind": "user",
				"methods": {},
				"version": 1
			}
		}
	}
}