{
	"data": {
		"bytecode": {
			"linkReferences": {},
			"object": "6080604052348015600f57600080fd5b50606d80601d6000396000f3fe6080604052348015600f57600080fd5b506004361060285760003560e01c80638269267914602d575b600080fd5b60336035565b005b56fea264697066735822122037a1af01a48e0f86a3ce5fd862c3968978948611646200b86579ca4289e1011264736f6c63430008070033",
			"opcodes": "PUSH1 0x80 PUSH1 0x40 MSTORE CALLVALUE DUP1 ISZERO PUSH1 0xF JUMPI PUSH1 0x0 DUP1 REVERT JUMPDEST POP PUSH1 0x6D DUP1 PUSH1 0x1D PUSH1 0x0 CODECOPY PUSH1 0x0 RETURN INVALID PUSH1 0x80 PUSH1 0x40 MSTORE CALLVALUE DUP1 ISZERO PUSH1 0xF JUMPI PUSH1 0x0 DUP1 REVERT JUMPDEST POP PUSH1 0x4 CALLDATASIZE LT PUSH1 0x28 JUMPI PUSH1 0x0 CALLDATALOAD PUSH1 0xE0 SHR DUP1 PUSH4 0x82692679 EQ PUSH1 0x2D JUMPI JUMPDEST PUSH1 0x0 DUP1 REVERT JUMPDEST PUSH1 0x33 PUSH1 0x35 JUMP JUMPDEST STOP JUMPDEST JUMP INVALID LOG2 PUSH5 0x6970667358 0x22 SLT KECCAK256 CALLDATACOPY LOG1 0xAF ADD LOG4 DUP15 0xF DUP7 LOG3 0xCE 0x5F 0xD8 PUSH3 0xC39689 PUSH25 0x948611646200B86579CA4289E1011264736F6C634300080700 CALLER "
		},
		"gasEstimates": {
			"creation": {
				"codeDepositCost": "21800",
				"executionCost": "75",
				"totalCost": "21875"
			},
			"external": {
				"doSomething()": "122"
			}
		},
		"methodIdentifiers": {
			"doSomething()": "82692679"
		}
	},
	"abi": [
		{
			"inputs": [],
			"name": "doSomething",
			"outputs": [],
			"stateMutability": "pure",
			"type": "function"
		}
	]
}