{
	"众筹智能合约/zhouchouTest.sol": {
		"zhouchouTest": {
			"abi": [
				{
					"constant": false,
					"inputs": [
						{
							"name": "_neederId",
							"type": "uint256"
						}
					],
					"name": "isComplete",
					"outputs": [],
					"payable": false,
					"stateMutability": "nonpayable",
					"type": "function"
				},
				{
					"constant": false,
					"inputs": [
						{
							"name": "_funderAddress",
							"type": "address"
						},
						{
							"name": "_neederAmount",
							"type": "uint256"
						}
					],
					"name": "contribute",
					"outputs": [],
					"payable": false,
					"stateMutability": "nonpayable",
					"type": "function"
				},
				{
					"constant": false,
					"inputs": [
						{
							"name": "_neederAddress",
							"type": "address"
						},
						{
							"name": "_goal",
							"type": "uint256"
						}
					],
					"name": "newNeeder",
					"outputs": [],
					"payable": false,
					"stateMutability": "nonpayable",
					"type": "function"
				}
			],
			"devdoc": {
				"methods": {}
			},
			"evm": {
				"assembly": "    /* \"众筹智能合约/zhouchouTest.sol\":93:3189  contract zhouchouTest{\r... */\n  mstore(0x40, 0x80)\n  callvalue\n    /* \"--CODEGEN--\":8:17   */\n  dup1\n    /* \"--CODEGEN--\":5:7   */\n  iszero\n  tag_1\n  jumpi\n    /* \"--CODEGEN--\":30:31   */\n  0x0\n    /* \"--CODEGEN--\":27:28   */\n  dup1\n    /* \"--CODEGEN--\":20:32   */\n  revert\n    /* \"--CODEGEN--\":5:7   */\ntag_1:\n    /* \"众筹智能合约/zhouchouTest.sol\":93:3189  contract zhouchouTest{\r... */\n  pop\n  dataSize(sub_0)\n  dup1\n  dataOffset(sub_0)\n  0x0\n  codecopy\n  0x0\n  return\nstop\n\nsub_0: assembly {\n        /* \"众筹智能合约/zhouchouTest.sol\":93:3189  contract zhouchouTest{\r... */\n      mstore(0x40, 0x80)\n      jumpi(tag_1, lt(calldatasize, 0x4))\n      calldataload(0x0)\n      0x100000000000000000000000000000000000000000000000000000000\n      swap1\n      div\n      0xffffffff\n      and\n      dup1\n      0x3a0be1a6\n      eq\n      tag_2\n      jumpi\n      dup1\n      0x8418cd99\n      eq\n      tag_3\n      jumpi\n      dup1\n      0xfa8af2b3\n      eq\n      tag_4\n      jumpi\n    tag_1:\n      0x0\n      dup1\n      revert\n        /* \"众筹智能合约/zhouchouTest.sol\":2768:3185  function isComplete(uint _neederId){\r... */\n    tag_2:\n      callvalue\n        /* \"--CODEGEN--\":8:17   */\n      dup1\n        /* \"--CODEGEN--\":5:7   */\n      iszero\n      tag_5\n      jumpi\n        /* \"--CODEGEN--\":30:31   */\n      0x0\n        /* \"--CODEGEN--\":27:28   */\n      dup1\n        /* \"--CODEGEN--\":20:32   */\n      revert\n        /* \"--CODEGEN--\":5:7   */\n    tag_5:\n        /* \"众筹智能合约/zhouchouTest.sol\":2768:3185  function isComplete(uint _neederId){\r... */\n      pop\n      tag_6\n      0x4\n      dup1\n      calldatasize\n      sub\n      dup2\n      add\n      swap1\n      dup1\n      dup1\n      calldataload\n      swap1\n      0x20\n      add\n      swap1\n      swap3\n      swap2\n      swap1\n      pop\n      pop\n      pop\n      jump(tag_7)\n    tag_6:\n      stop\n        /* \"众筹智能合约/zhouchouTest.sol\":1748:2399  function contribute(address _funderAddress,uint _neederAmount){\r... */\n    tag_3:\n      callvalue\n        /* \"--CODEGEN--\":8:17   */\n      dup1\n        /* \"--CODEGEN--\":5:7   */\n      iszero\n      tag_8\n      jumpi\n        /* \"--CODEGEN--\":30:31   */\n      0x0\n        /* \"--CODEGEN--\":27:28   */\n      dup1\n        /* \"--CODEGEN--\":20:32   */\n      revert\n        /* \"--CODEGEN--\":5:7   */\n    tag_8:\n        /* \"众筹智能合约/zhouchouTest.sol\":1748:2399  function contribute(address _funderAddress,uint _neederAmount){\r... */\n      pop\n      tag_9\n      0x4\n      dup1\n      calldatasize\n      sub\n      dup2\n      add\n      swap1\n      dup1\n      dup1\n      calldataload\n      0xffffffffffffffffffffffffffffffffffffffff\n      and\n      swap1\n      0x20\n      add\n      swap1\n      swap3\n      swap2\n      swap1\n      dup1\n      calldataload\n      swap1\n      0x20\n      add\n      swap1\n      swap3\n      swap2\n      swap1\n      pop\n      pop\n      pop\n      jump(tag_10)\n    tag_9:\n      stop\n        /* \"众筹智能合约/zhouchouTest.sol\":1152:1589  function newNeeder(address _neederAddress, uint _goal){\r... */\n    tag_4:\n      callvalue\n        /* \"--CODEGEN--\":8:17   */\n      dup1\n        /* \"--CODEGEN--\":5:7   */\n      iszero\n      tag_11\n      jumpi\n        /* \"--CODEGEN--\":30:31   */\n      0x0\n        /* \"--CODEGEN--\":27:28   */\n      dup1\n        /* \"--CODEGEN--\":20:32   */\n      revert\n        /* \"--CODEGEN--\":5:7   */\n    tag_11:\n        /* \"众筹智能合约/zhouchouTest.sol\":1152:1589  function newNeeder(address _neederAddress, uint _goal){\r... */\n      pop\n      tag_12\n      0x4\n      dup1\n      calldatasize\n      sub\n      dup2\n      add\n      swap1\n      dup1\n      dup1\n      calldataload\n      0xffffffffffffffffffffffffffffffffffffffff\n      and\n      swap1\n      0x20\n      add\n      swap1\n      swap3\n      swap2\n      swap1\n      dup1\n      calldataload\n      swap1\n      0x20\n      add\n      swap1\n      swap3\n      swap2\n      swap1\n      pop\n      pop\n      pop\n      jump(tag_13)\n    tag_12:\n      stop\n        /* \"众筹智能合约/zhouchouTest.sol\":2768:3185  function isComplete(uint _neederId){\r... */\n    tag_7:\n        /* \"众筹智能合约/zhouchouTest.sol\":2873:2895  needer storage _needer */\n      0x0\n        /* \"众筹智能合约/zhouchouTest.sol\":2898:2905  needMap */\n      0x1\n        /* \"众筹智能合约/zhouchouTest.sol\":2898:2916  needMap[_neederId] */\n      0x0\n        /* \"众筹智能合约/zhouchouTest.sol\":2906:2915  _neederId */\n      dup4\n        /* \"众筹智能合约/zhouchouTest.sol\":2898:2916  needMap[_neederId] */\n      dup2\n      mstore\n      0x20\n      add\n      swap1\n      dup2\n      mstore\n      0x20\n      add\n      0x0\n      keccak256\n        /* \"众筹智能合约/zhouchouTest.sol\":2873:2916  needer storage _needer = needMap[_neederId] */\n      swap1\n      pop\n        /* \"众筹智能合约/zhouchouTest.sol\":3072:3079  _needer */\n      dup1\n        /* \"众筹智能合约/zhouchouTest.sol\":3072:3084  _needer.goal */\n      0x1\n      add\n      sload\n        /* \"众筹智能合约/zhouchouTest.sol\":3055:3062  _needer */\n      dup2\n        /* \"众筹智能合约/zhouchouTest.sol\":3055:3069  _needer.amount */\n      0x2\n      add\n      sload\n        /* \"众筹智能合约/zhouchouTest.sol\":3055:3084  _needer.amount > _needer.goal */\n      gt\n        /* \"众筹智能合约/zhouchouTest.sol\":3052:3178  if(_needer.amount > _needer.goal){\r... */\n      iszero\n      tag_15\n      jumpi\n        /* \"众筹智能合约/zhouchouTest.sol\":3120:3127  _needer */\n      dup1\n        /* \"众筹智能合约/zhouchouTest.sol\":3120:3141  _needer.neederAddress */\n      0x0\n      add\n      0x0\n      swap1\n      sload\n      swap1\n      0x100\n      exp\n      swap1\n      div\n      0xffffffffffffffffffffffffffffffffffffffff\n      and\n        /* \"众筹智能合约/zhouchouTest.sol\":3120:3150  _needer.neederAddress.transfer */\n      0xffffffffffffffffffffffffffffffffffffffff\n      and\n        /* \"众筹智能合约/zhouchouTest.sol\":3120:3166  _needer.neederAddress.transfer(_needer.amount) */\n      0x8fc\n        /* \"众筹智能合约/zhouchouTest.sol\":3151:3158  _needer */\n      dup3\n        /* \"众筹智能合约/zhouchouTest.sol\":3151:3165  _needer.amount */\n      0x2\n      add\n      sload\n        /* \"众筹智能合约/zhouchouTest.sol\":3120:3166  _needer.neederAddress.transfer(_needer.amount) */\n      swap1\n      dup2\n      iszero\n      mul\n      swap1\n      mload(0x40)\n      0x0\n      mload(0x40)\n      dup1\n      dup4\n      sub\n      dup2\n      dup6\n      dup9\n      dup9\n      call\n      swap4\n      pop\n      pop\n      pop\n      pop\n      iszero\n        /* \"--CODEGEN--\":8:17   */\n      dup1\n        /* \"--CODEGEN--\":5:7   */\n      iszero\n      tag_16\n      jumpi\n        /* \"--CODEGEN--\":45:61   */\n      returndatasize\n        /* \"--CODEGEN--\":42:43   */\n      0x0\n        /* \"--CODEGEN--\":39:40   */\n      dup1\n        /* \"--CODEGEN--\":24:62   */\n      returndatacopy\n        /* \"--CODEGEN--\":77:93   */\n      returndatasize\n        /* \"--CODEGEN--\":74:75   */\n      0x0\n        /* \"--CODEGEN--\":67:94   */\n      revert\n        /* \"--CODEGEN--\":5:7   */\n    tag_16:\n        /* \"众筹智能合约/zhouchouTest.sol\":3120:3166  _needer.neederAddress.transfer(_needer.amount) */\n      pop\n        /* \"众筹智能合约/zhouchouTest.sol\":3052:3178  if(_needer.amount > _needer.goal){\r... */\n    tag_15:\n        /* \"众筹智能合约/zhouchouTest.sol\":2768:3185  function isComplete(uint _neederId){\r... */\n      pop\n      pop\n      jump\t// out\n        /* \"众筹智能合约/zhouchouTest.sol\":1748:2399  function contribute(address _funderAddress,uint _neederAmount){\r... */\n    tag_10:\n        /* \"众筹智能合约/zhouchouTest.sol\":1863:1885  needer storage _needer */\n      0x0\n        /* \"众筹智能合约/zhouchouTest.sol\":1888:1895  needMap */\n      0x1\n        /* \"众筹智能合约/zhouchouTest.sol\":1888:1910  needMap[_neederAmount] */\n      0x0\n        /* \"众筹智能合约/zhouchouTest.sol\":1896:1909  _neederAmount */\n      dup4\n        /* \"众筹智能合约/zhouchouTest.sol\":1888:1910  needMap[_neederAmount] */\n      dup2\n      mstore\n      0x20\n      add\n      swap1\n      dup2\n      mstore\n      0x20\n      add\n      0x0\n      keccak256\n        /* \"众筹智能合约/zhouchouTest.sol\":1863:1910  needer storage _needer = needMap[_neederAmount] */\n      swap1\n      pop\n        /* \"众筹智能合约/zhouchouTest.sol\":2094:2103  msg.value */\n      callvalue\n        /* \"众筹智能合约/zhouchouTest.sol\":2076:2083  _needer */\n      dup2\n        /* \"众筹智能合约/zhouchouTest.sol\":2076:2090  _needer.amount */\n      0x2\n      add\n      0x0\n        /* \"众筹智能合约/zhouchouTest.sol\":2076:2103  _needer.amount += msg.value */\n      dup3\n      dup3\n      sload\n      add\n      swap3\n      pop\n      pop\n      dup2\n      swap1\n      sstore\n      pop\n        /* \"众筹智能合约/zhouchouTest.sol\":2193:2200  _needer */\n      dup1\n        /* \"众筹智能合约/zhouchouTest.sol\":2193:2213  _needer.funderAmount */\n      0x3\n      add\n      0x0\n        /* \"众筹智能合约/zhouchouTest.sol\":2193:2215  _needer.funderAmount++ */\n      dup2\n      sload\n      dup1\n      swap3\n      swap2\n      swap1\n      0x1\n      add\n      swap2\n      swap1\n      pop\n      sstore\n      pop\n        /* \"众筹智能合约/zhouchouTest.sol\":2359:2391  funder(_funderAddress,msg.value) */\n      0x40\n      dup1\n      mload\n      swap1\n      dup2\n      add\n      0x40\n      mstore\n      dup1\n        /* \"众筹智能合约/zhouchouTest.sol\":2366:2380  _funderAddress */\n      dup5\n        /* \"众筹智能合约/zhouchouTest.sol\":2359:2391  funder(_funderAddress,msg.value) */\n      0xffffffffffffffffffffffffffffffffffffffff\n      and\n      dup2\n      mstore\n      0x20\n      add\n        /* \"众筹智能合约/zhouchouTest.sol\":2381:2390  msg.value */\n      callvalue\n        /* \"众筹智能合约/zhouchouTest.sol\":2359:2391  funder(_funderAddress,msg.value) */\n      dup2\n      mstore\n      pop\n        /* \"众筹智能合约/zhouchouTest.sol\":2323:2330  _needer */\n      dup2\n        /* \"众筹智能合约/zhouchouTest.sol\":2323:2334  _needer.map */\n      0x4\n      add\n        /* \"众筹智能合约/zhouchouTest.sol\":2323:2356  _needer.map[_needer.funderAmount] */\n      0x0\n        /* \"众筹智能合约/zhouchouTest.sol\":2335:2342  _needer */\n      dup4\n        /* \"众筹智能合约/zhouchouTest.sol\":2335:2355  _needer.funderAmount */\n      0x3\n      add\n      sload\n        /* \"众筹智能合约/zhouchouTest.sol\":2323:2356  _needer.map[_needer.funderAmount] */\n      dup2\n      mstore\n      0x20\n      add\n      swap1\n      dup2\n      mstore\n      0x20\n      add\n      0x0\n      keccak256\n        /* \"众筹智能合约/zhouchouTest.sol\":2323:2391  _needer.map[_needer.funderAmount] = funder(_funderAddress,msg.value) */\n      0x0\n      dup3\n      add\n      mload\n      dup2\n      0x0\n      add\n      exp(0x100, 0x0)\n      dup2\n      sload\n      dup2\n      0xffffffffffffffffffffffffffffffffffffffff\n      mul\n      not\n      and\n      swap1\n      dup4\n      0xffffffffffffffffffffffffffffffffffffffff\n      and\n      mul\n      or\n      swap1\n      sstore\n      pop\n      0x20\n      dup3\n      add\n      mload\n      dup2\n      0x1\n      add\n      sstore\n      swap1\n      pop\n      pop\n        /* \"众筹智能合约/zhouchouTest.sol\":1748:2399  function contribute(address _funderAddress,uint _neederAmount){\r... */\n      pop\n      pop\n      pop\n      jump\t// out\n        /* \"众筹智能合约/zhouchouTest.sol\":1152:1589  function newNeeder(address _neederAddress, uint _goal){\r... */\n    tag_13:\n        /* \"众筹智能合约/zhouchouTest.sol\":1440:1448  neederId */\n      0x0\n      dup1\n        /* \"众筹智能合约/zhouchouTest.sol\":1440:1450  neederId++ */\n      dup2\n      sload\n      dup1\n      swap3\n      swap2\n      swap1\n      0x1\n      add\n      swap2\n      swap1\n      pop\n      sstore\n      pop\n        /* \"众筹智能合约/zhouchouTest.sol\":1539:1571  needer(_neederAddress,_goal,0,0) */\n      0x80\n      mload(0x40)\n      swap1\n      dup2\n      add\n      0x40\n      mstore\n      dup1\n        /* \"众筹智能合约/zhouchouTest.sol\":1546:1560  _neederAddress */\n      dup4\n        /* \"众筹智能合约/zhouchouTest.sol\":1539:1571  needer(_neederAddress,_goal,0,0) */\n      0xffffffffffffffffffffffffffffffffffffffff\n      and\n      dup2\n      mstore\n      0x20\n      add\n        /* \"众筹智能合约/zhouchouTest.sol\":1561:1566  _goal */\n      dup3\n        /* \"众筹智能合约/zhouchouTest.sol\":1539:1571  needer(_neederAddress,_goal,0,0) */\n      dup2\n      mstore\n      0x20\n      add\n        /* \"众筹智能合约/zhouchouTest.sol\":1567:1568  0 */\n      0x0\n        /* \"众筹智能合约/zhouchouTest.sol\":1539:1571  needer(_neederAddress,_goal,0,0) */\n      dup2\n      mstore\n      0x20\n      add\n        /* \"众筹智能合约/zhouchouTest.sol\":1569:1570  0 */\n      0x0\n        /* \"众筹智能合约/zhouchouTest.sol\":1539:1571  needer(_neederAddress,_goal,0,0) */\n      dup2\n      mstore\n      pop\n        /* \"众筹智能合约/zhouchouTest.sol\":1519:1526  needMap */\n      0x1\n        /* \"众筹智能合约/zhouchouTest.sol\":1519:1536  needMap[neederId] */\n      0x0\n        /* \"众筹智能合约/zhouchouTest.sol\":1527:1535  neederId */\n      dup1\n      sload\n        /* \"众筹智能合约/zhouchouTest.sol\":1519:1536  needMap[neederId] */\n      dup2\n      mstore\n      0x20\n      add\n      swap1\n      dup2\n      mstore\n      0x20\n      add\n      0x0\n      keccak256\n        /* \"众筹智能合约/zhouchouTest.sol\":1519:1571  needMap[neederId] = needer(_neederAddress,_goal,0,0) */\n      0x0\n      dup3\n      add\n      mload\n      dup2\n      0x0\n      add\n      exp(0x100, 0x0)\n      dup2\n      sload\n      dup2\n      0xffffffffffffffffffffffffffffffffffffffff\n      mul\n      not\n      and\n      swap1\n      dup4\n      0xffffffffffffffffffffffffffffffffffffffff\n      and\n      mul\n      or\n      swap1\n      sstore\n      pop\n      0x20\n      dup3\n      add\n      mload\n      dup2\n      0x1\n      add\n      sstore\n      0x40\n      dup3\n      add\n      mload\n      dup2\n      0x2\n      add\n      sstore\n      0x60\n      dup3\n      add\n      mload\n      dup2\n      0x3\n      add\n      sstore\n      swap1\n      pop\n      pop\n        /* \"众筹智能合约/zhouchouTest.sol\":1152:1589  function newNeeder(address _neederAddress, uint _goal){\r... */\n      pop\n      pop\n      jump\t// out\n\n    auxdata: 0xa165627a7a72305820366308caa673dc303341d08921d134d41925f5c53ab355378cfa37f78bfcdf3b0029\n}\n",
				"bytecode": {
					"linkReferences": {},
					"object": "608060405234801561001057600080fd5b5061038f806100206000396000f300608060405260043610610057576000357c0100000000000000000000000000000000000000000000000000000000900463ffffffff1680633a0be1a61461005c5780638418cd9914610089578063fa8af2b3146100d6575b600080fd5b34801561006857600080fd5b5061008760048036038101908080359060200190929190505050610123565b005b34801561009557600080fd5b506100d4600480360381019080803573ffffffffffffffffffffffffffffffffffffffff169060200190929190803590602001909291905050506101be565b005b3480156100e257600080fd5b50610121600480360381019080803573ffffffffffffffffffffffffffffffffffffffff16906020019092919080359060200190929190505050610298565b005b60006001600083815260200190815260200160002090508060010154816002015411156101ba578060000160009054906101000a900473ffffffffffffffffffffffffffffffffffffffff1673ffffffffffffffffffffffffffffffffffffffff166108fc82600201549081150290604051600060405180830381858888f193505050501580156101b8573d6000803e3d6000fd5b505b5050565b6000600160008381526020019081526020016000209050348160020160008282540192505081905550806003016000815480929190600101919050555060408051908101604052808473ffffffffffffffffffffffffffffffffffffffff168152602001348152508160040160008360030154815260200190815260200160002060008201518160000160006101000a81548173ffffffffffffffffffffffffffffffffffffffff021916908373ffffffffffffffffffffffffffffffffffffffff16021790555060208201518160010155905050505050565b60008081548092919060010191905055506080604051908101604052808373ffffffffffffffffffffffffffffffffffffffff168152602001828152602001600081526020016000815250600160008054815260200190815260200160002060008201518160000160006101000a81548173ffffffffffffffffffffffffffffffffffffffff021916908373ffffffffffffffffffffffffffffffffffffffff16021790555060208201518160010155604082015181600201556060820151816003015590505050505600a165627a7a72305820366308caa673dc303341d08921d134d41925f5c53ab355378cfa37f78bfcdf3b0029",
					"opcodes": "PUSH1 0x80 PUSH1 0x40 MSTORE CALLVALUE DUP1 ISZERO PUSH2 0x10 JUMPI PUSH1 0x0 DUP1 REVERT JUMPDEST POP PUSH2 0x38F DUP1 PUSH2 0x20 PUSH1 0x0 CODECOPY PUSH1 0x0 RETURN STOP PUSH1 0x80 PUSH1 0x40 MSTORE PUSH1 0x4 CALLDATASIZE LT PUSH2 0x57 JUMPI PUSH1 0x0 CALLDATALOAD PUSH29 0x100000000000000000000000000000000000000000000000000000000 SWAP1 DIV PUSH4 0xFFFFFFFF AND DUP1 PUSH4 0x3A0BE1A6 EQ PUSH2 0x5C JUMPI DUP1 PUSH4 0x8418CD99 EQ PUSH2 0x89 JUMPI DUP1 PUSH4 0xFA8AF2B3 EQ PUSH2 0xD6 JUMPI JUMPDEST PUSH1 0x0 DUP1 REVERT JUMPDEST CALLVALUE DUP1 ISZERO PUSH2 0x68 JUMPI PUSH1 0x0 DUP1 REVERT JUMPDEST POP PUSH2 0x87 PUSH1 0x4 DUP1 CALLDATASIZE SUB DUP2 ADD SWAP1 DUP1 DUP1 CALLDATALOAD SWAP1 PUSH1 0x20 ADD SWAP1 SWAP3 SWAP2 SWAP1 POP POP POP PUSH2 0x123 JUMP JUMPDEST STOP JUMPDEST CALLVALUE DUP1 ISZERO PUSH2 0x95 JUMPI PUSH1 0x0 DUP1 REVERT JUMPDEST POP PUSH2 0xD4 PUSH1 0x4 DUP1 CALLDATASIZE SUB DUP2 ADD SWAP1 DUP1 DUP1 CALLDATALOAD PUSH20 0xFFFFFFFFFFFFFFFFFFFFFFFFFFFFFFFFFFFFFFFF AND SWAP1 PUSH1 0x20 ADD SWAP1 SWAP3 SWAP2 SWAP1 DUP1 CALLDATALOAD SWAP1 PUSH1 0x20 ADD SWAP1 SWAP3 SWAP2 SWAP1 POP POP POP PUSH2 0x1BE JUMP JUMPDEST STOP JUMPDEST CALLVALUE DUP1 ISZERO PUSH2 0xE2 JUMPI PUSH1 0x0 DUP1 REVERT JUMPDEST POP PUSH2 0x121 PUSH1 0x4 DUP1 CALLDATASIZE SUB DUP2 ADD SWAP1 DUP1 DUP1 CALLDATALOAD PUSH20 0xFFFFFFFFFFFFFFFFFFFFFFFFFFFFFFFFFFFFFFFF AND SWAP1 PUSH1 0x20 ADD SWAP1 SWAP3 SWAP2 SWAP1 DUP1 CALLDATALOAD SWAP1 PUSH1 0x20 ADD SWAP1 SWAP3 SWAP2 SWAP1 POP POP POP PUSH2 0x298 JUMP JUMPDEST STOP JUMPDEST PUSH1 0x0 PUSH1 0x1 PUSH1 0x0 DUP4 DUP2 MSTORE PUSH1 0x20 ADD SWAP1 DUP2 MSTORE PUSH1 0x20 ADD PUSH1 0x0 KECCAK256 SWAP1 POP DUP1 PUSH1 0x1 ADD SLOAD DUP2 PUSH1 0x2 ADD SLOAD GT ISZERO PUSH2 0x1BA JUMPI DUP1 PUSH1 0x0 ADD PUSH1 0x0 SWAP1 SLOAD SWAP1 PUSH2 0x100 EXP SWAP1 DIV PUSH20 0xFFFFFFFFFFFFFFFFFFFFFFFFFFFFFFFFFFFFFFFF AND PUSH20 0xFFFFFFFFFFFFFFFFFFFFFFFFFFFFFFFFFFFFFFFF AND PUSH2 0x8FC DUP3 PUSH1 0x2 ADD SLOAD SWAP1 DUP2 ISZERO MUL SWAP1 PUSH1 0x40 MLOAD PUSH1 0x0 PUSH1 0x40 MLOAD DUP1 DUP4 SUB DUP2 DUP6 DUP9 DUP9 CALL SWAP4 POP POP POP POP ISZERO DUP1 ISZERO PUSH2 0x1B8 JUMPI RETURNDATASIZE PUSH1 0x0 DUP1 RETURNDATACOPY RETURNDATASIZE PUSH1 0x0 REVERT JUMPDEST POP JUMPDEST POP POP JUMP JUMPDEST PUSH1 0x0 PUSH1 0x1 PUSH1 0x0 DUP4 DUP2 MSTORE PUSH1 0x20 ADD SWAP1 DUP2 MSTORE PUSH1 0x20 ADD PUSH1 0x0 KECCAK256 SWAP1 POP CALLVALUE DUP2 PUSH1 0x2 ADD PUSH1 0x0 DUP3 DUP3 SLOAD ADD SWAP3 POP POP DUP2 SWAP1 SSTORE POP DUP1 PUSH1 0x3 ADD PUSH1 0x0 DUP2 SLOAD DUP1 SWAP3 SWAP2 SWAP1 PUSH1 0x1 ADD SWAP2 SWAP1 POP SSTORE POP PUSH1 0x40 DUP1 MLOAD SWAP1 DUP2 ADD PUSH1 0x40 MSTORE DUP1 DUP5 PUSH20 0xFFFFFFFFFFFFFFFFFFFFFFFFFFFFFFFFFFFFFFFF AND DUP2 MSTORE PUSH1 0x20 ADD CALLVALUE DUP2 MSTORE POP DUP2 PUSH1 0x4 ADD PUSH1 0x0 DUP4 PUSH1 0x3 ADD SLOAD DUP2 MSTORE PUSH1 0x20 ADD SWAP1 DUP2 MSTORE PUSH1 0x20 ADD PUSH1 0x0 KECCAK256 PUSH1 0x0 DUP3 ADD MLOAD DUP2 PUSH1 0x0 ADD PUSH1 0x0 PUSH2 0x100 EXP DUP2 SLOAD DUP2 PUSH20 0xFFFFFFFFFFFFFFFFFFFFFFFFFFFFFFFFFFFFFFFF MUL NOT AND SWAP1 DUP4 PUSH20 0xFFFFFFFFFFFFFFFFFFFFFFFFFFFFFFFFFFFFFFFF AND MUL OR SWAP1 SSTORE POP PUSH1 0x20 DUP3 ADD MLOAD DUP2 PUSH1 0x1 ADD SSTORE SWAP1 POP POP POP POP POP JUMP JUMPDEST PUSH1 0x0 DUP1 DUP2 SLOAD DUP1 SWAP3 SWAP2 SWAP1 PUSH1 0x1 ADD SWAP2 SWAP1 POP SSTORE POP PUSH1 0x80 PUSH1 0x40 MLOAD SWAP1 DUP2 ADD PUSH1 0x40 MSTORE DUP1 DUP4 PUSH20 0xFFFFFFFFFFFFFFFFFFFFFFFFFFFFFFFFFFFFFFFF AND DUP2 MSTORE PUSH1 0x20 ADD DUP3 DUP2 MSTORE PUSH1 0x20 ADD PUSH1 0x0 DUP2 MSTORE PUSH1 0x20 ADD PUSH1 0x0 DUP2 MSTORE POP PUSH1 0x1 PUSH1 0x0 DUP1 SLOAD DUP2 MSTORE PUSH1 0x20 ADD SWAP1 DUP2 MSTORE PUSH1 0x20 ADD PUSH1 0x0 KECCAK256 PUSH1 0x0 DUP3 ADD MLOAD DUP2 PUSH1 0x0 ADD PUSH1 0x0 PUSH2 0x100 EXP DUP2 SLOAD DUP2 PUSH20 0xFFFFFFFFFFFFFFFFFFFFFFFFFFFFFFFFFFFFFFFF MUL NOT AND SWAP1 DUP4 PUSH20 0xFFFFFFFFFFFFFFFFFFFFFFFFFFFFFFFFFFFFFFFF AND MUL OR SWAP1 SSTORE POP PUSH1 0x20 DUP3 ADD MLOAD DUP2 PUSH1 0x1 ADD SSTORE PUSH1 0x40 DUP3 ADD MLOAD DUP2 PUSH1 0x2 ADD SSTORE PUSH1 0x60 DUP3 ADD MLOAD DUP2 PUSH1 0x3 ADD SSTORE SWAP1 POP POP POP POP JUMP STOP LOG1 PUSH6 0x627A7A723058 KECCAK256 CALLDATASIZE PUSH4 0x8CAA673 0xdc ADDRESS CALLER COINBASE 0xd0 DUP10 0x21 0xd1 CALLVALUE 0xd4 NOT 0x25 0xf5 0xc5 GASPRICE 0xb3 SSTORE CALLDATACOPY DUP13 STATICCALL CALLDATACOPY 0xf7 DUP12 0xfc 0xdf EXTCODESIZE STOP 0x29 "
				},
				"gasEstimates": {
					"creation": {
						"codeDepositCost": "182200",
						"executionCost": "226",
						"totalCost": "182426"
					},
					"external": {
						"contribute(address,uint256)": "81490",
						"isComplete(uint256)": "infinite",
						"newNeeder(address,uint256)": "71244"
					}
				},
				"methodIdentifiers": {
					"contribute(address,uint256)": "8418cd99",
					"isComplete(uint256)": "3a0be1a6",
					"newNeeder(address,uint256)": "fa8af2b3"
				}
			},
			"userdoc": {
				"methods": {}
			}
		}
	}
}