{
	"众筹智能合约/Crowdfunding.sol": {
		"Crowdfunding": {
			"abi": [
				{
					"inputs": [],
					"stateMutability": "nonpayable",
					"type": "constructor"
				},
				{
					"stateMutability": "nonpayable",
					"type": "fallback"
				},
				{
					"inputs": [],
					"name": "destroy",
					"outputs": [],
					"stateMutability": "nonpayable",
					"type": "function"
				},
				{
					"inputs": [
						{
							"internalType": "uint256",
							"name": "doneeID",
							"type": "uint256"
						}
					],
					"name": "donate",
					"outputs": [],
					"stateMutability": "payable",
					"type": "function"
				},
				{
					"inputs": [],
					"name": "getBalance",
					"outputs": [
						{
							"internalType": "uint256",
							"name": "",
							"type": "uint256"
						}
					],
					"stateMutability": "view",
					"type": "function"
				},
				{
					"inputs": [
						{
							"internalType": "uint256",
							"name": "doneeID",
							"type": "uint256"
						}
					],
					"name": "getDonee",
					"outputs": [
						{
							"internalType": "address",
							"name": "doneeAddr",
							"type": "address"
						},
						{
							"internalType": "uint256",
							"name": "doneeGoal",
							"type": "uint256"
						},
						{
							"internalType": "uint256",
							"name": "doneeAmount",
							"type": "uint256"
						}
					],
					"stateMutability": "view",
					"type": "function"
				},
				{
					"inputs": [],
					"name": "getDoneeCount",
					"outputs": [
						{
							"internalType": "uint256",
							"name": "",
							"type": "uint256"
						}
					],
					"stateMutability": "view",
					"type": "function"
				},
				{
					"inputs": [
						{
							"internalType": "uint256",
							"name": "doneeID",
							"type": "uint256"
						}
					],
					"name": "getStatus",
					"outputs": [
						{
							"internalType": "bool",
							"name": "",
							"type": "bool"
						}
					],
					"stateMutability": "view",
					"type": "function"
				},
				{
					"inputs": [
						{
							"internalType": "address",
							"name": "addr",
							"type": "address"
						},
						{
							"internalType": "uint256",
							"name": "goal",
							"type": "uint256"
						}
					],
					"name": "setDonee",
					"outputs": [],
					"stateMutability": "nonpayable",
					"type": "function"
				},
				{
					"inputs": [
						{
							"internalType": "uint256",
							"name": "doneeID",
							"type": "uint256"
						},
						{
							"internalType": "bool",
							"name": "status",
							"type": "bool"
						}
					],
					"name": "setStatus",
					"outputs": [],
					"stateMutability": "nonpayable",
					"type": "function"
				},
				{
					"inputs": [
						{
							"internalType": "uint256",
							"name": "doneeID",
							"type": "uint256"
						}
					],
					"name": "transfer",
					"outputs": [],
					"stateMutability": "payable",
					"type": "function"
				},
				{
					"inputs": [],
					"name": "withdraw",
					"outputs": [],
					"stateMutability": "payable",
					"type": "function"
				},
				{
					"stateMutability": "payable",
					"type": "receive"
				}
			],
			"devdoc": {
				"kind": "dev",
				"methods": {},
				"version": 1
			},
			"evm": {
				"assembly": "    /* \"众筹智能合约/Crowdfunding.sol\":60:3704  contract Crowdfunding {\r... */\n  mstore(0x40, 0x80)\n    /* \"众筹智能合约/Crowdfunding.sol\":760:858  constructor() {     //  构造函数\r... */\n  callvalue\n  dup1\n  iszero\n  tag_1\n  jumpi\n  0x00\n  dup1\n  revert\ntag_1:\n  pop\n    /* \"众筹智能合约/Crowdfunding.sol\":814:824  msg.sender */\n  caller\n    /* \"众筹智能合约/Crowdfunding.sol\":806:811  owner */\n  0x02\n  0x00\n    /* \"众筹智能合约/Crowdfunding.sol\":806:824  owner = msg.sender */\n  0x0100\n  exp\n  dup2\n  sload\n  dup2\n  0xffffffffffffffffffffffffffffffffffffffff\n  mul\n  not\n  and\n  swap1\n  dup4\n  0xffffffffffffffffffffffffffffffffffffffff\n  and\n  mul\n  or\n  swap1\n  sstore\n  pop\n    /* \"众筹智能合约/Crowdfunding.sol\":60:3704  contract Crowdfunding {\r... */\n  dataSize(sub_0)\n  dup1\n  dataOffset(sub_0)\n  0x00\n  codecopy\n  0x00\n  return\nstop\n\nsub_0: assembly {\n        /* \"众筹智能合约/Crowdfunding.sol\":60:3704  contract Crowdfunding {\r... */\n      mstore(0x40, 0x80)\n      jumpi(tag_1, lt(calldatasize, 0x04))\n      shr(0xe0, calldataload(0x00))\n      dup1\n      0x83197ef0\n      gt\n      tag_13\n      jumpi\n      dup1\n      0x83197ef0\n      eq\n      tag_8\n      jumpi\n      dup1\n      0x8719e8ac\n      eq\n      tag_9\n      jumpi\n      dup1\n      0x89aded2c\n      eq\n      tag_10\n      jumpi\n      dup1\n      0xc951a1e0\n      eq\n      tag_11\n      jumpi\n      dup1\n      0xf14faf6f\n      eq\n      tag_12\n      jumpi\n      jump(tag_2)\n    tag_13:\n      dup1\n      0x12065fe0\n      eq\n      tag_3\n      jumpi\n      dup1\n      0x12514bba\n      eq\n      tag_4\n      jumpi\n      dup1\n      0x3ccfd60b\n      eq\n      tag_5\n      jumpi\n      dup1\n      0x5c622a0e\n      eq\n      tag_6\n      jumpi\n      dup1\n      0x6b1ebb37\n      eq\n      tag_7\n      jumpi\n      jump(tag_2)\n    tag_1:\n      jumpi(tag_2, calldatasize)\n      stop\n    tag_2:\n      callvalue\n      dup1\n      iszero\n      tag_16\n      jumpi\n      0x00\n      dup1\n      revert\n    tag_16:\n      pop\n      stop\n        /* \"众筹智能合约/Crowdfunding.sol\":3088:3208  function getBalance() public view returns(uint) {   //  获取合约余额\r... */\n    tag_3:\n      callvalue\n      dup1\n      iszero\n      tag_19\n      jumpi\n      0x00\n      dup1\n      revert\n    tag_19:\n      pop\n      tag_20\n      tag_21\n      jump\t// in\n    tag_20:\n      mload(0x40)\n      dup1\n      dup3\n      dup2\n      mstore\n      0x20\n      add\n      swap2\n      pop\n      pop\n      mload(0x40)\n      dup1\n      swap2\n      sub\n      swap1\n      return\n        /* \"众筹智能合约/Crowdfunding.sol\":2228:2562  function transfer(uint doneeID) public payable onlyOwner validDonee(doneeID) {  \r... */\n    tag_4:\n      tag_22\n      0x04\n      dup1\n      calldatasize\n      sub\n      0x20\n      dup2\n      lt\n      iszero\n      tag_23\n      jumpi\n      0x00\n      dup1\n      revert\n    tag_23:\n      dup2\n      add\n      swap1\n      dup1\n      dup1\n      calldataload\n      swap1\n      0x20\n      add\n      swap1\n      swap3\n      swap2\n      swap1\n      pop\n      pop\n      pop\n      tag_24\n      jump\t// in\n    tag_22:\n      stop\n        /* \"众筹智能合约/Crowdfunding.sol\":2570:2710  function withdraw() public payable onlyOwner {      //  合约转账到拥有者\r... */\n    tag_5:\n      tag_25\n      tag_26\n      jump\t// in\n    tag_25:\n      stop\n        /* \"众筹智能合约/Crowdfunding.sol\":3449:3620  function getStatus(uint doneeID) public view validDonee(doneeID) returns(bool) {    \r... */\n    tag_6:\n      callvalue\n      dup1\n      iszero\n      tag_27\n      jumpi\n      0x00\n      dup1\n      revert\n    tag_27:\n      pop\n      tag_28\n      0x04\n      dup1\n      calldatasize\n      sub\n      0x20\n      dup2\n      lt\n      iszero\n      tag_29\n      jumpi\n      0x00\n      dup1\n      revert\n    tag_29:\n      dup2\n      add\n      swap1\n      dup1\n      dup1\n      calldataload\n      swap1\n      0x20\n      add\n      swap1\n      swap3\n      swap2\n      swap1\n      pop\n      pop\n      pop\n      tag_30\n      jump\t// in\n    tag_28:\n      mload(0x40)\n      dup1\n      dup3\n      iszero\n      iszero\n      dup2\n      mstore\n      0x20\n      add\n      swap2\n      pop\n      pop\n      mload(0x40)\n      dup1\n      swap2\n      sub\n      swap1\n      return\n        /* \"众筹智能合约/Crowdfunding.sol\":2873:3080  function getDonee(uint doneeID) public view returns(address doneeAddr, uint doneeGoal, uint doneeAmount) {  \r... */\n    tag_7:\n      callvalue\n      dup1\n      iszero\n      tag_31\n      jumpi\n      0x00\n      dup1\n      revert\n    tag_31:\n      pop\n      tag_32\n      0x04\n      dup1\n      calldatasize\n      sub\n      0x20\n      dup2\n      lt\n      iszero\n      tag_33\n      jumpi\n      0x00\n      dup1\n      revert\n    tag_33:\n      dup2\n      add\n      swap1\n      dup1\n      dup1\n      calldataload\n      swap1\n      0x20\n      add\n      swap1\n      swap3\n      swap2\n      swap1\n      pop\n      pop\n      pop\n      tag_34\n      jump\t// in\n    tag_32:\n      mload(0x40)\n      dup1\n      dup5\n      0xffffffffffffffffffffffffffffffffffffffff\n      and\n      dup2\n      mstore\n      0x20\n      add\n      dup4\n      dup2\n      mstore\n      0x20\n      add\n      dup3\n      dup2\n      mstore\n      0x20\n      add\n      swap4\n      pop\n      pop\n      pop\n      pop\n      mload(0x40)\n      dup1\n      swap2\n      sub\n      swap1\n      return\n        /* \"众筹智能合约/Crowdfunding.sol\":866:959  function destroy() public onlyOwner {   //  销毁合约\r... */\n    tag_8:\n      callvalue\n      dup1\n      iszero\n      tag_35\n      jumpi\n      0x00\n      dup1\n      revert\n    tag_35:\n      pop\n      tag_36\n      tag_37\n      jump\t// in\n    tag_36:\n      stop\n        /* \"众筹智能合约/Crowdfunding.sol\":3256:3413  function setStatus(uint doneeID, bool status) public onlyOwner {    \r... */\n    tag_9:\n      callvalue\n      dup1\n      iszero\n      tag_38\n      jumpi\n      0x00\n      dup1\n      revert\n    tag_38:\n      pop\n      tag_39\n      0x04\n      dup1\n      calldatasize\n      sub\n      0x40\n      dup2\n      lt\n      iszero\n      tag_40\n      jumpi\n      0x00\n      dup1\n      revert\n    tag_40:\n      dup2\n      add\n      swap1\n      dup1\n      dup1\n      calldataload\n      swap1\n      0x20\n      add\n      swap1\n      swap3\n      swap2\n      swap1\n      dup1\n      calldataload\n      iszero\n      iszero\n      swap1\n      0x20\n      add\n      swap1\n      swap3\n      swap2\n      swap1\n      pop\n      pop\n      pop\n      tag_41\n      jump\t// in\n    tag_39:\n      stop\n        /* \"众筹智能合约/Crowdfunding.sol\":2718:2834  function getDoneeCount() public view returns(uint) {    //  查询募资人数量\r... */\n    tag_10:\n      callvalue\n      dup1\n      iszero\n      tag_42\n      jumpi\n      0x00\n      dup1\n      revert\n    tag_42:\n      pop\n      tag_43\n      tag_44\n      jump\t// in\n    tag_43:\n      mload(0x40)\n      dup1\n      dup3\n      dup2\n      mstore\n      0x20\n      add\n      swap2\n      pop\n      pop\n      mload(0x40)\n      dup1\n      swap2\n      sub\n      swap1\n      return\n        /* \"众筹智能合约/Crowdfunding.sol\":1320:1766  function setDonee(address addr, uint goal) public onlyOwner {   \r... */\n    tag_11:\n      callvalue\n      dup1\n      iszero\n      tag_45\n      jumpi\n      0x00\n      dup1\n      revert\n    tag_45:\n      pop\n      tag_46\n      0x04\n      dup1\n      calldatasize\n      sub\n      0x40\n      dup2\n      lt\n      iszero\n      tag_47\n      jumpi\n      0x00\n      dup1\n      revert\n    tag_47:\n      dup2\n      add\n      swap1\n      dup1\n      dup1\n      calldataload\n      0xffffffffffffffffffffffffffffffffffffffff\n      and\n      swap1\n      0x20\n      add\n      swap1\n      swap3\n      swap2\n      swap1\n      dup1\n      calldataload\n      swap1\n      0x20\n      add\n      swap1\n      swap3\n      swap2\n      swap1\n      pop\n      pop\n      pop\n      tag_48\n      jump\t// in\n    tag_46:\n      stop\n        /* \"众筹智能合约/Crowdfunding.sol\":1799:2180  function donate(uint doneeID) public payable validDonee(doneeID) {  \r... */\n    tag_12:\n      tag_49\n      0x04\n      dup1\n      calldatasize\n      sub\n      0x20\n      dup2\n      lt\n      iszero\n      tag_50\n      jumpi\n      0x00\n      dup1\n      revert\n    tag_50:\n      dup2\n      add\n      swap1\n      dup1\n      dup1\n      calldataload\n      swap1\n      0x20\n      add\n      swap1\n      swap3\n      swap2\n      swap1\n      pop\n      pop\n      pop\n      tag_51\n      jump\t// in\n    tag_49:\n      stop\n        /* \"众筹智能合约/Crowdfunding.sol\":3088:3208  function getBalance() public view returns(uint) {   //  获取合约余额\r... */\n    tag_21:\n        /* \"众筹智能合约/Crowdfunding.sol\":3130:3134  uint */\n      0x00\n        /* \"众筹智能合约/Crowdfunding.sol\":3179:3200  address(this).balance */\n      selfbalance\n        /* \"众筹智能合约/Crowdfunding.sol\":3172:3200  return address(this).balance */\n      swap1\n      pop\n        /* \"众筹智能合约/Crowdfunding.sol\":3088:3208  function getBalance() public view returns(uint) {   //  获取合约余额\r... */\n      swap1\n      jump\t// out\n        /* \"众筹智能合约/Crowdfunding.sol\":2228:2562  function transfer(uint doneeID) public payable onlyOwner validDonee(doneeID) {  \r... */\n    tag_24:\n        /* \"众筹智能合约/Crowdfunding.sol\":1048:1053  owner */\n      0x02\n      0x00\n      swap1\n      sload\n      swap1\n      0x0100\n      exp\n      swap1\n      div\n      0xffffffffffffffffffffffffffffffffffffffff\n      and\n        /* \"众筹智能合约/Crowdfunding.sol\":1034:1053  msg.sender == owner */\n      0xffffffffffffffffffffffffffffffffffffffff\n      and\n        /* \"众筹智能合约/Crowdfunding.sol\":1034:1044  msg.sender */\n      caller\n        /* \"众筹智能合约/Crowdfunding.sol\":1034:1053  msg.sender == owner */\n      0xffffffffffffffffffffffffffffffffffffffff\n      and\n      eq\n        /* \"众筹智能合约/Crowdfunding.sol\":1026:1054  require(msg.sender == owner) */\n      tag_54\n      jumpi\n      0x00\n      dup1\n      revert\n    tag_54:\n        /* \"众筹智能合约/Crowdfunding.sol\":2296:2303  doneeID */\n      dup1\n        /* \"众筹智能合约/Crowdfunding.sol\":1225:1226  0 */\n      0x00\n        /* \"众筹智能合约/Crowdfunding.sol\":1215:1222  doneeID */\n      dup2\n        /* \"众筹智能合约/Crowdfunding.sol\":1215:1226  doneeID > 0 */\n      gt\n        /* \"众筹智能合约/Crowdfunding.sol\":1215:1251  doneeID > 0 && doneeID <= doneeCount */\n      dup1\n      iszero\n      tag_56\n      jumpi\n      pop\n        /* \"众筹智能合约/Crowdfunding.sol\":1241:1251  doneeCount */\n      sload(0x00)\n        /* \"众筹智能合约/Crowdfunding.sol\":1230:1237  doneeID */\n      dup2\n        /* \"众筹智能合约/Crowdfunding.sol\":1230:1251  doneeID <= doneeCount */\n      gt\n      iszero\n        /* \"众筹智能合约/Crowdfunding.sol\":1215:1251  doneeID > 0 && doneeID <= doneeCount */\n    tag_56:\n        /* \"众筹智能合约/Crowdfunding.sol\":1207:1252  require(doneeID > 0 && doneeID <= doneeCount) */\n      tag_57\n      jumpi\n      0x00\n      dup1\n      revert\n    tag_57:\n        /* \"众筹智能合约/Crowdfunding.sol\":2318:2337  Donee storage donee */\n      0x00\n        /* \"众筹智能合约/Crowdfunding.sol\":2340:2348  doneeMap */\n      0x01\n        /* \"众筹智能合约/Crowdfunding.sol\":2340:2357  doneeMap[doneeID] */\n      0x00\n        /* \"众筹智能合约/Crowdfunding.sol\":2349:2356  doneeID */\n      dup5\n        /* \"众筹智能合约/Crowdfunding.sol\":2340:2357  doneeMap[doneeID] */\n      dup2\n      mstore\n      0x20\n      add\n      swap1\n      dup2\n      mstore\n      0x20\n      add\n      0x00\n      keccak256\n        /* \"众筹智能合约/Crowdfunding.sol\":2318:2357  Donee storage donee = doneeMap[doneeID] */\n      swap1\n      pop\n        /* \"众筹智能合约/Crowdfunding.sol\":2387:2392  donee */\n      dup1\n        /* \"众筹智能合约/Crowdfunding.sol\":2387:2397  donee.goal */\n      0x01\n      add\n      sload\n        /* \"众筹智能合约/Crowdfunding.sol\":2371:2376  donee */\n      dup2\n        /* \"众筹智能合约/Crowdfunding.sol\":2371:2383  donee.amount */\n      0x02\n      add\n      sload\n        /* \"众筹智能合约/Crowdfunding.sol\":2371:2397  donee.amount >= donee.goal */\n      lt\n        /* \"众筹智能合约/Crowdfunding.sol\":2368:2555  if(donee.amount >= donee.goal) {\r... */\n      tag_59\n      jumpi\n        /* \"众筹智能合约/Crowdfunding.sol\":2422:2427  donee */\n      dup1\n        /* \"众筹智能合约/Crowdfunding.sol\":2422:2432  donee.addr */\n      0x00\n      add\n      0x00\n      swap1\n      sload\n      swap1\n      0x0100\n      exp\n      swap1\n      div\n      0xffffffffffffffffffffffffffffffffffffffff\n      and\n        /* \"众筹智能合约/Crowdfunding.sol\":2414:2442  payable(donee.addr).transfer */\n      0xffffffffffffffffffffffffffffffffffffffff\n      and\n        /* \"众筹智能合约/Crowdfunding.sol\":2414:2454  payable(donee.addr).transfer(donee.goal) */\n      0x08fc\n        /* \"众筹智能合约/Crowdfunding.sol\":2443:2448  donee */\n      dup3\n        /* \"众筹智能合约/Crowdfunding.sol\":2443:2453  donee.goal */\n      0x01\n      add\n      sload\n        /* \"众筹智能合约/Crowdfunding.sol\":2414:2454  payable(donee.addr).transfer(donee.goal) */\n      swap1\n      dup2\n      iszero\n      mul\n      swap1\n      mload(0x40)\n      0x00\n      mload(0x40)\n      dup1\n      dup4\n      sub\n      dup2\n      dup6\n      dup9\n      dup9\n      call\n      swap4\n      pop\n      pop\n      pop\n      pop\n      iszero\n      dup1\n      iszero\n      tag_61\n      jumpi\n      returndatasize\n      0x00\n      dup1\n      returndatacopy\n      revert(0x00, returndatasize)\n    tag_61:\n      pop\n        /* \"众筹智能合约/Crowdfunding.sol\":2368:2555  if(donee.amount >= donee.goal) {\r... */\n      jump(tag_62)\n    tag_59:\n        /* \"众筹智能合约/Crowdfunding.sol\":2512:2520  revert() */\n      0x00\n      dup1\n      revert\n        /* \"众筹智能合约/Crowdfunding.sol\":2368:2555  if(donee.amount >= donee.goal) {\r... */\n    tag_62:\n        /* \"众筹智能合约/Crowdfunding.sol\":1263:1264  _ */\n      pop\n        /* \"众筹智能合约/Crowdfunding.sol\":1107:1108  _ */\n      pop\n        /* \"众筹智能合约/Crowdfunding.sol\":2228:2562  function transfer(uint doneeID) public payable onlyOwner validDonee(doneeID) {  \r... */\n      pop\n      jump\t// out\n        /* \"众筹智能合约/Crowdfunding.sol\":2570:2710  function withdraw() public payable onlyOwner {      //  合约转账到拥有者\r... */\n    tag_26:\n        /* \"众筹智能合约/Crowdfunding.sol\":1048:1053  owner */\n      0x02\n      0x00\n      swap1\n      sload\n      swap1\n      0x0100\n      exp\n      swap1\n      div\n      0xffffffffffffffffffffffffffffffffffffffff\n      and\n        /* \"众筹智能合约/Crowdfunding.sol\":1034:1053  msg.sender == owner */\n      0xffffffffffffffffffffffffffffffffffffffff\n      and\n        /* \"众筹智能合约/Crowdfunding.sol\":1034:1044  msg.sender */\n      caller\n        /* \"众筹智能合约/Crowdfunding.sol\":1034:1053  msg.sender == owner */\n      0xffffffffffffffffffffffffffffffffffffffff\n      and\n      eq\n        /* \"众筹智能合约/Crowdfunding.sol\":1026:1054  require(msg.sender == owner) */\n      tag_64\n      jumpi\n      0x00\n      dup1\n      revert\n    tag_64:\n        /* \"众筹智能合约/Crowdfunding.sol\":2660:2670  msg.sender */\n      caller\n        /* \"众筹智能合约/Crowdfunding.sol\":2660:2679  msg.sender.transfer */\n      0xffffffffffffffffffffffffffffffffffffffff\n      and\n        /* \"众筹智能合约/Crowdfunding.sol\":2660:2702  msg.sender.transfer(address(this).balance) */\n      0x08fc\n        /* \"众筹智能合约/Crowdfunding.sol\":2680:2701  address(this).balance */\n      selfbalance\n        /* \"众筹智能合约/Crowdfunding.sol\":2660:2702  msg.sender.transfer(address(this).balance) */\n      swap1\n      dup2\n      iszero\n      mul\n      swap1\n      mload(0x40)\n      0x00\n      mload(0x40)\n      dup1\n      dup4\n      sub\n      dup2\n      dup6\n      dup9\n      dup9\n      call\n      swap4\n      pop\n      pop\n      pop\n      pop\n      iszero\n      dup1\n      iszero\n      tag_67\n      jumpi\n      returndatasize\n      0x00\n      dup1\n      returndatacopy\n      revert(0x00, returndatasize)\n    tag_67:\n      pop\n        /* \"众筹智能合约/Crowdfunding.sol\":2570:2710  function withdraw() public payable onlyOwner {      //  合约转账到拥有者\r... */\n      jump\t// out\n        /* \"众筹智能合约/Crowdfunding.sol\":3449:3620  function getStatus(uint doneeID) public view validDonee(doneeID) returns(bool) {    \r... */\n    tag_30:\n        /* \"众筹智能合约/Crowdfunding.sol\":3522:3526  bool */\n      0x00\n        /* \"众筹智能合约/Crowdfunding.sol\":3505:3512  doneeID */\n      dup2\n        /* \"众筹智能合约/Crowdfunding.sol\":1225:1226  0 */\n      0x00\n        /* \"众筹智能合约/Crowdfunding.sol\":1215:1222  doneeID */\n      dup2\n        /* \"众筹智能合约/Crowdfunding.sol\":1215:1226  doneeID > 0 */\n      gt\n        /* \"众筹智能合约/Crowdfunding.sol\":1215:1251  doneeID > 0 && doneeID <= doneeCount */\n      dup1\n      iszero\n      tag_69\n      jumpi\n      pop\n        /* \"众筹智能合约/Crowdfunding.sol\":1241:1251  doneeCount */\n      sload(0x00)\n        /* \"众筹智能合约/Crowdfunding.sol\":1230:1237  doneeID */\n      dup2\n        /* \"众筹智能合约/Crowdfunding.sol\":1230:1251  doneeID <= doneeCount */\n      gt\n      iszero\n        /* \"众筹智能合约/Crowdfunding.sol\":1215:1251  doneeID > 0 && doneeID <= doneeCount */\n    tag_69:\n        /* \"众筹智能合约/Crowdfunding.sol\":1207:1252  require(doneeID > 0 && doneeID <= doneeCount) */\n      tag_70\n      jumpi\n      0x00\n      dup1\n      revert\n    tag_70:\n        /* \"众筹智能合约/Crowdfunding.sol\":3543:3562  Donee storage donee */\n      0x00\n        /* \"众筹智能合约/Crowdfunding.sol\":3565:3573  doneeMap */\n      0x01\n        /* \"众筹智能合约/Crowdfunding.sol\":3565:3582  doneeMap[doneeID] */\n      0x00\n        /* \"众筹智能合约/Crowdfunding.sol\":3574:3581  doneeID */\n      dup6\n        /* \"众筹智能合约/Crowdfunding.sol\":3565:3582  doneeMap[doneeID] */\n      dup2\n      mstore\n      0x20\n      add\n      swap1\n      dup2\n      mstore\n      0x20\n      add\n      0x00\n      keccak256\n        /* \"众筹智能合约/Crowdfunding.sol\":3543:3582  Donee storage donee = doneeMap[doneeID] */\n      swap1\n      pop\n        /* \"众筹智能合约/Crowdfunding.sol\":3600:3605  donee */\n      dup1\n        /* \"众筹智能合约/Crowdfunding.sol\":3600:3612  donee.status */\n      0x04\n      add\n      0x00\n      swap1\n      sload\n      swap1\n      0x0100\n      exp\n      swap1\n      div\n      0xff\n      and\n        /* \"众筹智能合约/Crowdfunding.sol\":3593:3612  return donee.status */\n      swap3\n      pop\n      pop\n        /* \"众筹智能合约/Crowdfunding.sol\":3449:3620  function getStatus(uint doneeID) public view validDonee(doneeID) returns(bool) {    \r... */\n      pop\n      swap2\n      swap1\n      pop\n      jump\t// out\n        /* \"众筹智能合约/Crowdfunding.sol\":2873:3080  function getDonee(uint doneeID) public view returns(address doneeAddr, uint doneeGoal, uint doneeAmount) {  \r... */\n    tag_34:\n        /* \"众筹智能合约/Crowdfunding.sol\":2925:2942  address doneeAddr */\n      0x00\n        /* \"众筹智能合约/Crowdfunding.sol\":2944:2958  uint doneeGoal */\n      dup1\n        /* \"众筹智能合约/Crowdfunding.sol\":2960:2976  uint doneeAmount */\n      0x00\n        /* \"众筹智能合约/Crowdfunding.sol\":2999:3007  doneeMap */\n      0x01\n        /* \"众筹智能合约/Crowdfunding.sol\":2999:3016  doneeMap[doneeID] */\n      0x00\n        /* \"众筹智能合约/Crowdfunding.sol\":3008:3015  doneeID */\n      dup6\n        /* \"众筹智能合约/Crowdfunding.sol\":2999:3016  doneeMap[doneeID] */\n      dup2\n      mstore\n      0x20\n      add\n      swap1\n      dup2\n      mstore\n      0x20\n      add\n      0x00\n      keccak256\n        /* \"众筹智能合约/Crowdfunding.sol\":2999:3021  doneeMap[doneeID].addr */\n      0x00\n      add\n      0x00\n      swap1\n      sload\n      swap1\n      0x0100\n      exp\n      swap1\n      div\n      0xffffffffffffffffffffffffffffffffffffffff\n      and\n        /* \"众筹智能合约/Crowdfunding.sol\":3023:3031  doneeMap */\n      0x01\n        /* \"众筹智能合约/Crowdfunding.sol\":3023:3040  doneeMap[doneeID] */\n      0x00\n        /* \"众筹智能合约/Crowdfunding.sol\":3032:3039  doneeID */\n      dup7\n        /* \"众筹智能合约/Crowdfunding.sol\":3023:3040  doneeMap[doneeID] */\n      dup2\n      mstore\n      0x20\n      add\n      swap1\n      dup2\n      mstore\n      0x20\n      add\n      0x00\n      keccak256\n        /* \"众筹智能合约/Crowdfunding.sol\":3023:3045  doneeMap[doneeID].goal */\n      0x01\n      add\n      sload\n        /* \"众筹智能合约/Crowdfunding.sol\":3047:3055  doneeMap */\n      0x01\n        /* \"众筹智能合约/Crowdfunding.sol\":3047:3064  doneeMap[doneeID] */\n      0x00\n        /* \"众筹智能合约/Crowdfunding.sol\":3056:3063  doneeID */\n      dup8\n        /* \"众筹智能合约/Crowdfunding.sol\":3047:3064  doneeMap[doneeID] */\n      dup2\n      mstore\n      0x20\n      add\n      swap1\n      dup2\n      mstore\n      0x20\n      add\n      0x00\n      keccak256\n        /* \"众筹智能合约/Crowdfunding.sol\":3047:3071  doneeMap[doneeID].amount */\n      0x02\n      add\n      sload\n        /* \"众筹智能合约/Crowdfunding.sol\":2991:3072  return (doneeMap[doneeID].addr, doneeMap[doneeID].goal, doneeMap[doneeID].amount) */\n      swap3\n      pop\n      swap3\n      pop\n      swap3\n      pop\n        /* \"众筹智能合约/Crowdfunding.sol\":2873:3080  function getDonee(uint doneeID) public view returns(address doneeAddr, uint doneeGoal, uint doneeAmount) {  \r... */\n      swap2\n      swap4\n      swap1\n      swap3\n      pop\n      jump\t// out\n        /* \"众筹智能合约/Crowdfunding.sol\":866:959  function destroy() public onlyOwner {   //  销毁合约\r... */\n    tag_37:\n        /* \"众筹智能合约/Crowdfunding.sol\":1048:1053  owner */\n      0x02\n      0x00\n      swap1\n      sload\n      swap1\n      0x0100\n      exp\n      swap1\n      div\n      0xffffffffffffffffffffffffffffffffffffffff\n      and\n        /* \"众筹智能合约/Crowdfunding.sol\":1034:1053  msg.sender == owner */\n      0xffffffffffffffffffffffffffffffffffffffff\n      and\n        /* \"众筹智能合约/Crowdfunding.sol\":1034:1044  msg.sender */\n      caller\n        /* \"众筹智能合约/Crowdfunding.sol\":1034:1053  msg.sender == owner */\n      0xffffffffffffffffffffffffffffffffffffffff\n      and\n      eq\n        /* \"众筹智能合约/Crowdfunding.sol\":1026:1054  require(msg.sender == owner) */\n      tag_74\n      jumpi\n      0x00\n      dup1\n      revert\n    tag_74:\n        /* \"众筹智能合约/Crowdfunding.sol\":945:950  owner */\n      0x02\n      0x00\n      swap1\n      sload\n      swap1\n      0x0100\n      exp\n      swap1\n      div\n      0xffffffffffffffffffffffffffffffffffffffff\n      and\n        /* \"众筹智能合约/Crowdfunding.sol\":932:951  selfdestruct(owner) */\n      0xffffffffffffffffffffffffffffffffffffffff\n      and\n      selfdestruct\n        /* \"众筹智能合约/Crowdfunding.sol\":3256:3413  function setStatus(uint doneeID, bool status) public onlyOwner {    \r... */\n    tag_41:\n        /* \"众筹智能合约/Crowdfunding.sol\":1048:1053  owner */\n      0x02\n      0x00\n      swap1\n      sload\n      swap1\n      0x0100\n      exp\n      swap1\n      div\n      0xffffffffffffffffffffffffffffffffffffffff\n      and\n        /* \"众筹智能合约/Crowdfunding.sol\":1034:1053  msg.sender == owner */\n      0xffffffffffffffffffffffffffffffffffffffff\n      and\n        /* \"众筹智能合约/Crowdfunding.sol\":1034:1044  msg.sender */\n      caller\n        /* \"众筹智能合约/Crowdfunding.sol\":1034:1053  msg.sender == owner */\n      0xffffffffffffffffffffffffffffffffffffffff\n      and\n      eq\n        /* \"众筹智能合约/Crowdfunding.sol\":1026:1054  require(msg.sender == owner) */\n      tag_77\n      jumpi\n      0x00\n      dup1\n      revert\n    tag_77:\n        /* \"众筹智能合约/Crowdfunding.sol\":3334:3353  Donee storage donee */\n      0x00\n        /* \"众筹智能合约/Crowdfunding.sol\":3356:3364  doneeMap */\n      0x01\n        /* \"众筹智能合约/Crowdfunding.sol\":3356:3373  doneeMap[doneeID] */\n      0x00\n        /* \"众筹智能合约/Crowdfunding.sol\":3365:3372  doneeID */\n      dup5\n        /* \"众筹智能合约/Crowdfunding.sol\":3356:3373  doneeMap[doneeID] */\n      dup2\n      mstore\n      0x20\n      add\n      swap1\n      dup2\n      mstore\n      0x20\n      add\n      0x00\n      keccak256\n        /* \"众筹智能合约/Crowdfunding.sol\":3334:3373  Donee storage donee = doneeMap[doneeID] */\n      swap1\n      pop\n        /* \"众筹智能合约/Crowdfunding.sol\":3399:3405  status */\n      dup2\n        /* \"众筹智能合约/Crowdfunding.sol\":3384:3389  donee */\n      dup2\n        /* \"众筹智能合约/Crowdfunding.sol\":3384:3396  donee.status */\n      0x04\n      add\n      0x00\n        /* \"众筹智能合约/Crowdfunding.sol\":3384:3405  donee.status = status */\n      0x0100\n      exp\n      dup2\n      sload\n      dup2\n      0xff\n      mul\n      not\n      and\n      swap1\n      dup4\n      iszero\n      iszero\n      mul\n      or\n      swap1\n      sstore\n      pop\n        /* \"众筹智能合约/Crowdfunding.sol\":1107:1108  _ */\n      pop\n        /* \"众筹智能合约/Crowdfunding.sol\":3256:3413  function setStatus(uint doneeID, bool status) public onlyOwner {    \r... */\n      pop\n      pop\n      jump\t// out\n        /* \"众筹智能合约/Crowdfunding.sol\":2718:2834  function getDoneeCount() public view returns(uint) {    //  查询募资人数量\r... */\n    tag_44:\n        /* \"众筹智能合约/Crowdfunding.sol\":2763:2767  uint */\n      0x00\n        /* \"众筹智能合约/Crowdfunding.sol\":2816:2826  doneeCount */\n      dup1\n      sload\n        /* \"众筹智能合约/Crowdfunding.sol\":2809:2826  return doneeCount */\n      swap1\n      pop\n        /* \"众筹智能合约/Crowdfunding.sol\":2718:2834  function getDoneeCount() public view returns(uint) {    //  查询募资人数量\r... */\n      swap1\n      jump\t// out\n        /* \"众筹智能合约/Crowdfunding.sol\":1320:1766  function setDonee(address addr, uint goal) public onlyOwner {   \r... */\n    tag_48:\n        /* \"众筹智能合约/Crowdfunding.sol\":1048:1053  owner */\n      0x02\n      0x00\n      swap1\n      sload\n      swap1\n      0x0100\n      exp\n      swap1\n      div\n      0xffffffffffffffffffffffffffffffffffffffff\n      and\n        /* \"众筹智能合约/Crowdfunding.sol\":1034:1053  msg.sender == owner */\n      0xffffffffffffffffffffffffffffffffffffffff\n      and\n        /* \"众筹智能合约/Crowdfunding.sol\":1034:1044  msg.sender */\n      caller\n        /* \"众筹智能合约/Crowdfunding.sol\":1034:1053  msg.sender == owner */\n      0xffffffffffffffffffffffffffffffffffffffff\n      and\n      eq\n        /* \"众筹智能合约/Crowdfunding.sol\":1026:1054  require(msg.sender == owner) */\n      tag_81\n      jumpi\n      0x00\n      dup1\n      revert\n    tag_81:\n        /* \"众筹智能合约/Crowdfunding.sol\":1398:1404  uint i */\n      0x00\n        /* \"众筹智能合约/Crowdfunding.sol\":1394:1595  for(uint i = 0; i < doneeCount; i++) {\r... */\n    tag_83:\n        /* \"众筹智能合约/Crowdfunding.sol\":1414:1424  doneeCount */\n      sload(0x00)\n        /* \"众筹智能合约/Crowdfunding.sol\":1410:1411  i */\n      dup2\n        /* \"众筹智能合约/Crowdfunding.sol\":1410:1424  i < doneeCount */\n      lt\n        /* \"众筹智能合约/Crowdfunding.sol\":1394:1595  for(uint i = 0; i < doneeCount; i++) {\r... */\n      iszero\n      tag_84\n      jumpi\n        /* \"众筹智能合约/Crowdfunding.sol\":1446:1461  Donee storage d */\n      0x00\n        /* \"众筹智能合约/Crowdfunding.sol\":1464:1472  doneeMap */\n      0x01\n        /* \"众筹智能合约/Crowdfunding.sol\":1464:1477  doneeMap[i+1] */\n      0x00\n        /* \"众筹智能合约/Crowdfunding.sol\":1475:1476  1 */\n      0x01\n        /* \"众筹智能合约/Crowdfunding.sol\":1473:1474  i */\n      dup5\n        /* \"众筹智能合约/Crowdfunding.sol\":1473:1476  i+1 */\n      add\n        /* \"众筹智能合约/Crowdfunding.sol\":1464:1477  doneeMap[i+1] */\n      dup2\n      mstore\n      0x20\n      add\n      swap1\n      dup2\n      mstore\n      0x20\n      add\n      0x00\n      keccak256\n        /* \"众筹智能合约/Crowdfunding.sol\":1446:1477  Donee storage d = doneeMap[i+1] */\n      swap1\n      pop\n        /* \"众筹智能合约/Crowdfunding.sol\":1505:1509  addr */\n      dup4\n        /* \"众筹智能合约/Crowdfunding.sol\":1495:1509  d.addr == addr */\n      0xffffffffffffffffffffffffffffffffffffffff\n      and\n        /* \"众筹智能合约/Crowdfunding.sol\":1495:1496  d */\n      dup2\n        /* \"众筹智能合约/Crowdfunding.sol\":1495:1501  d.addr */\n      0x00\n      add\n      0x00\n      swap1\n      sload\n      swap1\n      0x0100\n      exp\n      swap1\n      div\n      0xffffffffffffffffffffffffffffffffffffffff\n      and\n        /* \"众筹智能合约/Crowdfunding.sol\":1495:1509  d.addr == addr */\n      0xffffffffffffffffffffffffffffffffffffffff\n      and\n      eq\n        /* \"众筹智能合约/Crowdfunding.sol\":1492:1584  if(d.addr == addr){\r... */\n      iszero\n      tag_86\n      jumpi\n        /* \"众筹智能合约/Crowdfunding.sol\":1538:1542  goal */\n      dup3\n        /* \"众筹智能合约/Crowdfunding.sol\":1529:1530  d */\n      dup2\n        /* \"众筹智能合约/Crowdfunding.sol\":1529:1535  d.goal */\n      0x01\n      add\n        /* \"众筹智能合约/Crowdfunding.sol\":1529:1542  d.goal = goal */\n      dup2\n      swap1\n      sstore\n      pop\n        /* \"众筹智能合约/Crowdfunding.sol\":1561:1569  return ; */\n      pop\n      pop\n      jump(tag_82)\n        /* \"众筹智能合约/Crowdfunding.sol\":1492:1584  if(d.addr == addr){\r... */\n    tag_86:\n        /* \"众筹智能合约/Crowdfunding.sol\":1394:1595  for(uint i = 0; i < doneeCount; i++) {\r... */\n      pop\n        /* \"众筹智能合约/Crowdfunding.sol\":1426:1429  i++ */\n      dup1\n      dup1\n      0x01\n      add\n      swap2\n      pop\n      pop\n        /* \"众筹智能合约/Crowdfunding.sol\":1394:1595  for(uint i = 0; i < doneeCount; i++) {\r... */\n      jump(tag_83)\n    tag_84:\n      pop\n        /* \"众筹智能合约/Crowdfunding.sol\":1607:1617  doneeCount */\n      0x00\n      dup1\n        /* \"众筹智能合约/Crowdfunding.sol\":1607:1619  doneeCount++ */\n      dup2\n      sload\n      dup1\n      swap3\n      swap2\n      swap1\n      0x01\n      add\n      swap2\n      swap1\n      pop\n      sstore\n      pop\n        /* \"众筹智能合约/Crowdfunding.sol\":1630:1649  Donee storage donee */\n      0x00\n        /* \"众筹智能合约/Crowdfunding.sol\":1652:1660  doneeMap */\n      0x01\n        /* \"众筹智能合约/Crowdfunding.sol\":1652:1672  doneeMap[doneeCount] */\n      0x00\n        /* \"众筹智能合约/Crowdfunding.sol\":1661:1671  doneeCount */\n      dup1\n      sload\n        /* \"众筹智能合约/Crowdfunding.sol\":1652:1672  doneeMap[doneeCount] */\n      dup2\n      mstore\n      0x20\n      add\n      swap1\n      dup2\n      mstore\n      0x20\n      add\n      0x00\n      keccak256\n        /* \"众筹智能合约/Crowdfunding.sol\":1630:1672  Donee storage donee = doneeMap[doneeCount] */\n      swap1\n      pop\n        /* \"众筹智能合约/Crowdfunding.sol\":1696:1700  addr */\n      dup3\n        /* \"众筹智能合约/Crowdfunding.sol\":1683:1688  donee */\n      dup2\n        /* \"众筹智能合约/Crowdfunding.sol\":1683:1693  donee.addr */\n      0x00\n      add\n      0x00\n        /* \"众筹智能合约/Crowdfunding.sol\":1683:1700  donee.addr = addr */\n      0x0100\n      exp\n      dup2\n      sload\n      dup2\n      0xffffffffffffffffffffffffffffffffffffffff\n      mul\n      not\n      and\n      swap1\n      dup4\n      0xffffffffffffffffffffffffffffffffffffffff\n      and\n      mul\n      or\n      swap1\n      sstore\n      pop\n        /* \"众筹智能合约/Crowdfunding.sol\":1724:1728  goal */\n      dup2\n        /* \"众筹智能合约/Crowdfunding.sol\":1711:1716  donee */\n      dup2\n        /* \"众筹智能合约/Crowdfunding.sol\":1711:1721  donee.goal */\n      0x01\n      add\n        /* \"众筹智能合约/Crowdfunding.sol\":1711:1728  donee.goal = goal */\n      dup2\n      swap1\n      sstore\n      pop\n        /* \"众筹智能合约/Crowdfunding.sol\":1754:1758  true */\n      0x01\n        /* \"众筹智能合约/Crowdfunding.sol\":1739:1744  donee */\n      dup2\n        /* \"众筹智能合约/Crowdfunding.sol\":1739:1751  donee.status */\n      0x04\n      add\n      0x00\n        /* \"众筹智能合约/Crowdfunding.sol\":1739:1758  donee.status = true */\n      0x0100\n      exp\n      dup2\n      sload\n      dup2\n      0xff\n      mul\n      not\n      and\n      swap1\n      dup4\n      iszero\n      iszero\n      mul\n      or\n      swap1\n      sstore\n      pop\n        /* \"众筹智能合约/Crowdfunding.sol\":1107:1108  _ */\n      pop\n    tag_82:\n        /* \"众筹智能合约/Crowdfunding.sol\":1320:1766  function setDonee(address addr, uint goal) public onlyOwner {   \r... */\n      pop\n      pop\n      jump\t// out\n        /* \"众筹智能合约/Crowdfunding.sol\":1799:2180  function donate(uint doneeID) public payable validDonee(doneeID) {  \r... */\n    tag_51:\n        /* \"众筹智能合约/Crowdfunding.sol\":1855:1862  doneeID */\n      dup1\n        /* \"众筹智能合约/Crowdfunding.sol\":1225:1226  0 */\n      0x00\n        /* \"众筹智能合约/Crowdfunding.sol\":1215:1222  doneeID */\n      dup2\n        /* \"众筹智能合约/Crowdfunding.sol\":1215:1226  doneeID > 0 */\n      gt\n        /* \"众筹智能合约/Crowdfunding.sol\":1215:1251  doneeID > 0 && doneeID <= doneeCount */\n      dup1\n      iszero\n      tag_88\n      jumpi\n      pop\n        /* \"众筹智能合约/Crowdfunding.sol\":1241:1251  doneeCount */\n      sload(0x00)\n        /* \"众筹智能合约/Crowdfunding.sol\":1230:1237  doneeID */\n      dup2\n        /* \"众筹智能合约/Crowdfunding.sol\":1230:1251  doneeID <= doneeCount */\n      gt\n      iszero\n        /* \"众筹智能合约/Crowdfunding.sol\":1215:1251  doneeID > 0 && doneeID <= doneeCount */\n    tag_88:\n        /* \"众筹智能合约/Crowdfunding.sol\":1207:1252  require(doneeID > 0 && doneeID <= doneeCount) */\n      tag_89\n      jumpi\n      0x00\n      dup1\n      revert\n    tag_89:\n        /* \"众筹智能合约/Crowdfunding.sol\":1877:1896  Donee storage donee */\n      0x00\n        /* \"众筹智能合约/Crowdfunding.sol\":1899:1907  doneeMap */\n      0x01\n        /* \"众筹智能合约/Crowdfunding.sol\":1899:1916  doneeMap[doneeID] */\n      0x00\n        /* \"众筹智能合约/Crowdfunding.sol\":1908:1915  doneeID */\n      dup5\n        /* \"众筹智能合约/Crowdfunding.sol\":1899:1916  doneeMap[doneeID] */\n      dup2\n      mstore\n      0x20\n      add\n      swap1\n      dup2\n      mstore\n      0x20\n      add\n      0x00\n      keccak256\n        /* \"众筹智能合约/Crowdfunding.sol\":1877:1916  Donee storage donee = doneeMap[doneeID] */\n      swap1\n      pop\n        /* \"众筹智能合约/Crowdfunding.sol\":1935:1940  donee */\n      dup1\n        /* \"众筹智能合约/Crowdfunding.sol\":1935:1947  donee.status */\n      0x04\n      add\n      0x00\n      swap1\n      sload\n      swap1\n      0x0100\n      exp\n      swap1\n      div\n      0xff\n      and\n        /* \"众筹智能合约/Crowdfunding.sol\":1927:1948  require(donee.status) */\n      tag_91\n      jumpi\n      0x00\n      dup1\n      revert\n    tag_91:\n        /* \"众筹智能合约/Crowdfunding.sol\":1961:1966  donee */\n      dup1\n        /* \"众筹智能合约/Crowdfunding.sol\":1961:1977  donee.donorCount */\n      0x03\n      add\n      0x00\n        /* \"众筹智能合约/Crowdfunding.sol\":1961:1979  donee.donorCount++ */\n      dup2\n      sload\n      dup1\n      swap3\n      swap2\n      swap1\n      0x01\n      add\n      swap2\n      swap1\n      pop\n      sstore\n      pop\n        /* \"众筹智能合约/Crowdfunding.sol\":2006:2015  msg.value */\n      callvalue\n        /* \"众筹智能合约/Crowdfunding.sol\":1990:1995  donee */\n      dup2\n        /* \"众筹智能合约/Crowdfunding.sol\":1990:2002  donee.amount */\n      0x02\n      add\n      0x00\n        /* \"众筹智能合约/Crowdfunding.sol\":1990:2015  donee.amount += msg.value */\n      dup3\n      dup3\n      sload\n      add\n      swap3\n      pop\n      pop\n      dup2\n      swap1\n      sstore\n      pop\n        /* \"众筹智能合约/Crowdfunding.sol\":2049:2068  Donor storage donor */\n      0x00\n        /* \"众筹智能合约/Crowdfunding.sol\":2071:2076  donee */\n      dup2\n        /* \"众筹智能合约/Crowdfunding.sol\":2071:2085  donee.donorMap */\n      0x05\n      add\n        /* \"众筹智能合约/Crowdfunding.sol\":2071:2103  donee.donorMap[donee.donorCount] */\n      0x00\n        /* \"众筹智能合约/Crowdfunding.sol\":2086:2091  donee */\n      dup4\n        /* \"众筹智能合约/Crowdfunding.sol\":2086:2102  donee.donorCount */\n      0x03\n      add\n      sload\n        /* \"众筹智能合约/Crowdfunding.sol\":2071:2103  donee.donorMap[donee.donorCount] */\n      dup2\n      mstore\n      0x20\n      add\n      swap1\n      dup2\n      mstore\n      0x20\n      add\n      0x00\n      keccak256\n        /* \"众筹智能合约/Crowdfunding.sol\":2049:2103  Donor storage donor = donee.donorMap[donee.donorCount] */\n      swap1\n      pop\n        /* \"众筹智能合约/Crowdfunding.sol\":2127:2137  msg.sender */\n      caller\n        /* \"众筹智能合约/Crowdfunding.sol\":2114:2119  donor */\n      dup2\n        /* \"众筹智能合约/Crowdfunding.sol\":2114:2124  donor.addr */\n      0x00\n      add\n      0x00\n        /* \"众筹智能合约/Crowdfunding.sol\":2114:2137  donor.addr = msg.sender */\n      0x0100\n      exp\n      dup2\n      sload\n      dup2\n      0xffffffffffffffffffffffffffffffffffffffff\n      mul\n      not\n      and\n      swap1\n      dup4\n      0xffffffffffffffffffffffffffffffffffffffff\n      and\n      mul\n      or\n      swap1\n      sstore\n      pop\n        /* \"众筹智能合约/Crowdfunding.sol\":2163:2172  msg.value */\n      callvalue\n        /* \"众筹智能合约/Crowdfunding.sol\":2148:2153  donor */\n      dup2\n        /* \"众筹智能合约/Crowdfunding.sol\":2148:2160  donor.amount */\n      0x01\n      add\n        /* \"众筹智能合约/Crowdfunding.sol\":2148:2172  donor.amount = msg.value */\n      dup2\n      swap1\n      sstore\n      pop\n        /* \"众筹智能合约/Crowdfunding.sol\":1263:1264  _ */\n      pop\n      pop\n        /* \"众筹智能合约/Crowdfunding.sol\":1799:2180  function donate(uint doneeID) public payable validDonee(doneeID) {  \r... */\n      pop\n      pop\n      jump\t// out\n\n    auxdata: 0xa26469706673582212203335c6b9c6035a6f9900cd287d933442d27b017f1226c20667655f227fad0ce164736f6c63430007060033\n}\n",
				"bytecode": {
					"linkReferences": {},
					"object": "608060405234801561001057600080fd5b5033600260006101000a81548173ffffffffffffffffffffffffffffffffffffffff021916908373ffffffffffffffffffffffffffffffffffffffff160217905550610949806100616000396000f3fe6080604052600436106100955760003560e01c806383197ef01161005957806383197ef0146101d25780638719e8ac146101e957806389aded2c14610230578063c951a1e01461025b578063f14faf6f146102b65761009c565b806312065fe0146100ab57806312514bba146100d65780633ccfd60b146101045780635c622a0e1461010e5780636b1ebb371461015f5761009c565b3661009c57005b3480156100a857600080fd5b50005b3480156100b757600080fd5b506100c06102e4565b6040518082815260200191505060405180910390f35b610102600480360360208110156100ec57600080fd5b81019080803590602001909291905050506102ec565b005b61010c610406565b005b34801561011a57600080fd5b506101476004803603602081101561013157600080fd5b81019080803590602001909291905050506104a9565b60405180821515815260200191505060405180910390f35b34801561016b57600080fd5b506101986004803603602081101561018257600080fd5b81019080803590602001909291905050506104f9565b604051808473ffffffffffffffffffffffffffffffffffffffff168152602001838152602001828152602001935050505060405180910390f35b3480156101de57600080fd5b506101e7610570565b005b3480156101f557600080fd5b5061022e6004803603604081101561020c57600080fd5b8101908080359060200190929190803515159060200190929190505050610605565b005b34801561023c57600080fd5b50610245610697565b6040518082815260200191505060405180910390f35b34801561026757600080fd5b506102b46004803603604081101561027e57600080fd5b81019080803573ffffffffffffffffffffffffffffffffffffffff169060200190929190803590602001909291905050506106a0565b005b6102e2600480360360208110156102cc57600080fd5b8101908080359060200190929190505050610830565b005b600047905090565b600260009054906101000a900473ffffffffffffffffffffffffffffffffffffffff1673ffffffffffffffffffffffffffffffffffffffff163373ffffffffffffffffffffffffffffffffffffffff161461034657600080fd5b8060008111801561035957506000548111155b61036257600080fd5b600060016000848152602001908152602001600020905080600101548160020154106103fc578060000160009054906101000a900473ffffffffffffffffffffffffffffffffffffffff1673ffffffffffffffffffffffffffffffffffffffff166108fc82600101549081150290604051600060405180830381858888f193505050501580156103f6573d6000803e3d6000fd5b50610401565b600080fd5b505050565b600260009054906101000a900473ffffffffffffffffffffffffffffffffffffffff1673ffffffffffffffffffffffffffffffffffffffff163373ffffffffffffffffffffffffffffffffffffffff161461046057600080fd5b3373ffffffffffffffffffffffffffffffffffffffff166108fc479081150290604051600060405180830381858888f193505050501580156104a6573d6000803e3d6000fd5b50565b6000816000811180156104be57506000548111155b6104c757600080fd5b60006001600085815260200190815260200160002090508060040160009054906101000a900460ff1692505050919050565b60008060006001600085815260200190815260200160002060000160009054906101000a900473ffffffffffffffffffffffffffffffffffffffff16600160008681526020019081526020016000206001015460016000878152602001908152602001600020600201549250925092509193909250565b600260009054906101000a900473ffffffffffffffffffffffffffffffffffffffff1673ffffffffffffffffffffffffffffffffffffffff163373ffffffffffffffffffffffffffffffffffffffff16146105ca57600080fd5b600260009054906101000a900473ffffffffffffffffffffffffffffffffffffffff1673ffffffffffffffffffffffffffffffffffffffff16ff5b600260009054906101000a900473ffffffffffffffffffffffffffffffffffffffff1673ffffffffffffffffffffffffffffffffffffffff163373ffffffffffffffffffffffffffffffffffffffff161461065f57600080fd5b6000600160008481526020019081526020016000209050818160040160006101000a81548160ff021916908315150217905550505050565b60008054905090565b600260009054906101000a900473ffffffffffffffffffffffffffffffffffffffff1673ffffffffffffffffffffffffffffffffffffffff163373ffffffffffffffffffffffffffffffffffffffff16146106fa57600080fd5b60005b6000548110156107975760006001600060018401815260200190815260200160002090508373ffffffffffffffffffffffffffffffffffffffff168160000160009054906101000a900473ffffffffffffffffffffffffffffffffffffffff1673ffffffffffffffffffffffffffffffffffffffff16141561078957828160010181905550505061082c565b5080806001019150506106fd565b506000808154809291906001019190505550600060016000805481526020019081526020016000209050828160000160006101000a81548173ffffffffffffffffffffffffffffffffffffffff021916908373ffffffffffffffffffffffffffffffffffffffff16021790555081816001018190555060018160040160006101000a81548160ff021916908315150217905550505b5050565b8060008111801561084357506000548111155b61084c57600080fd5b60006001600084815260200190815260200160002090508060040160009054906101000a900460ff1661087e57600080fd5b80600301600081548092919060010191905055503481600201600082825401925050819055506000816005016000836003015481526020019081526020016000209050338160000160006101000a81548173ffffffffffffffffffffffffffffffffffffffff021916908373ffffffffffffffffffffffffffffffffffffffff1602179055503481600101819055505050505056fea26469706673582212203335c6b9c6035a6f9900cd287d933442d27b017f1226c20667655f227fad0ce164736f6c63430007060033",
					"opcodes": "PUSH1 0x80 PUSH1 0x40 MSTORE CALLVALUE DUP1 ISZERO PUSH2 0x10 JUMPI PUSH1 0x0 DUP1 REVERT JUMPDEST POP CALLER PUSH1 0x2 PUSH1 0x0 PUSH2 0x100 EXP DUP2 SLOAD DUP2 PUSH20 0xFFFFFFFFFFFFFFFFFFFFFFFFFFFFFFFFFFFFFFFF MUL NOT AND SWAP1 DUP4 PUSH20 0xFFFFFFFFFFFFFFFFFFFFFFFFFFFFFFFFFFFFFFFF AND MUL OR SWAP1 SSTORE POP PUSH2 0x949 DUP1 PUSH2 0x61 PUSH1 0x0 CODECOPY PUSH1 0x0 RETURN INVALID PUSH1 0x80 PUSH1 0x40 MSTORE PUSH1 0x4 CALLDATASIZE LT PUSH2 0x95 JUMPI PUSH1 0x0 CALLDATALOAD PUSH1 0xE0 SHR DUP1 PUSH4 0x83197EF0 GT PUSH2 0x59 JUMPI DUP1 PUSH4 0x83197EF0 EQ PUSH2 0x1D2 JUMPI DUP1 PUSH4 0x8719E8AC EQ PUSH2 0x1E9 JUMPI DUP1 PUSH4 0x89ADED2C EQ PUSH2 0x230 JUMPI DUP1 PUSH4 0xC951A1E0 EQ PUSH2 0x25B JUMPI DUP1 PUSH4 0xF14FAF6F EQ PUSH2 0x2B6 JUMPI PUSH2 0x9C JUMP JUMPDEST DUP1 PUSH4 0x12065FE0 EQ PUSH2 0xAB JUMPI DUP1 PUSH4 0x12514BBA EQ PUSH2 0xD6 JUMPI DUP1 PUSH4 0x3CCFD60B EQ PUSH2 0x104 JUMPI DUP1 PUSH4 0x5C622A0E EQ PUSH2 0x10E JUMPI DUP1 PUSH4 0x6B1EBB37 EQ PUSH2 0x15F JUMPI PUSH2 0x9C JUMP JUMPDEST CALLDATASIZE PUSH2 0x9C JUMPI STOP JUMPDEST CALLVALUE DUP1 ISZERO PUSH2 0xA8 JUMPI PUSH1 0x0 DUP1 REVERT JUMPDEST POP STOP JUMPDEST CALLVALUE DUP1 ISZERO PUSH2 0xB7 JUMPI PUSH1 0x0 DUP1 REVERT JUMPDEST POP PUSH2 0xC0 PUSH2 0x2E4 JUMP JUMPDEST PUSH1 0x40 MLOAD DUP1 DUP3 DUP2 MSTORE PUSH1 0x20 ADD SWAP2 POP POP PUSH1 0x40 MLOAD DUP1 SWAP2 SUB SWAP1 RETURN JUMPDEST PUSH2 0x102 PUSH1 0x4 DUP1 CALLDATASIZE SUB PUSH1 0x20 DUP2 LT ISZERO PUSH2 0xEC JUMPI PUSH1 0x0 DUP1 REVERT JUMPDEST DUP2 ADD SWAP1 DUP1 DUP1 CALLDATALOAD SWAP1 PUSH1 0x20 ADD SWAP1 SWAP3 SWAP2 SWAP1 POP POP POP PUSH2 0x2EC JUMP JUMPDEST STOP JUMPDEST PUSH2 0x10C PUSH2 0x406 JUMP JUMPDEST STOP JUMPDEST CALLVALUE DUP1 ISZERO PUSH2 0x11A JUMPI PUSH1 0x0 DUP1 REVERT JUMPDEST POP PUSH2 0x147 PUSH1 0x4 DUP1 CALLDATASIZE SUB PUSH1 0x20 DUP2 LT ISZERO PUSH2 0x131 JUMPI PUSH1 0x0 DUP1 REVERT JUMPDEST DUP2 ADD SWAP1 DUP1 DUP1 CALLDATALOAD SWAP1 PUSH1 0x20 ADD SWAP1 SWAP3 SWAP2 SWAP1 POP POP POP PUSH2 0x4A9 JUMP JUMPDEST PUSH1 0x40 MLOAD DUP1 DUP3 ISZERO ISZERO DUP2 MSTORE PUSH1 0x20 ADD SWAP2 POP POP PUSH1 0x40 MLOAD DUP1 SWAP2 SUB SWAP1 RETURN JUMPDEST CALLVALUE DUP1 ISZERO PUSH2 0x16B JUMPI PUSH1 0x0 DUP1 REVERT JUMPDEST POP PUSH2 0x198 PUSH1 0x4 DUP1 CALLDATASIZE SUB PUSH1 0x20 DUP2 LT ISZERO PUSH2 0x182 JUMPI PUSH1 0x0 DUP1 REVERT JUMPDEST DUP2 ADD SWAP1 DUP1 DUP1 CALLDATALOAD SWAP1 PUSH1 0x20 ADD SWAP1 SWAP3 SWAP2 SWAP1 POP POP POP PUSH2 0x4F9 JUMP JUMPDEST PUSH1 0x40 MLOAD DUP1 DUP5 PUSH20 0xFFFFFFFFFFFFFFFFFFFFFFFFFFFFFFFFFFFFFFFF AND DUP2 MSTORE PUSH1 0x20 ADD DUP4 DUP2 MSTORE PUSH1 0x20 ADD DUP3 DUP2 MSTORE PUSH1 0x20 ADD SWAP4 POP POP POP POP PUSH1 0x40 MLOAD DUP1 SWAP2 SUB SWAP1 RETURN JUMPDEST CALLVALUE DUP1 ISZERO PUSH2 0x1DE JUMPI PUSH1 0x0 DUP1 REVERT JUMPDEST POP PUSH2 0x1E7 PUSH2 0x570 JUMP JUMPDEST STOP JUMPDEST CALLVALUE DUP1 ISZERO PUSH2 0x1F5 JUMPI PUSH1 0x0 DUP1 REVERT JUMPDEST POP PUSH2 0x22E PUSH1 0x4 DUP1 CALLDATASIZE SUB PUSH1 0x40 DUP2 LT ISZERO PUSH2 0x20C JUMPI PUSH1 0x0 DUP1 REVERT JUMPDEST DUP2 ADD SWAP1 DUP1 DUP1 CALLDATALOAD SWAP1 PUSH1 0x20 ADD SWAP1 SWAP3 SWAP2 SWAP1 DUP1 CALLDATALOAD ISZERO ISZERO SWAP1 PUSH1 0x20 ADD SWAP1 SWAP3 SWAP2 SWAP1 POP POP POP PUSH2 0x605 JUMP JUMPDEST STOP JUMPDEST CALLVALUE DUP1 ISZERO PUSH2 0x23C JUMPI PUSH1 0x0 DUP1 REVERT JUMPDEST POP PUSH2 0x245 PUSH2 0x697 JUMP JUMPDEST PUSH1 0x40 MLOAD DUP1 DUP3 DUP2 MSTORE PUSH1 0x20 ADD SWAP2 POP POP PUSH1 0x40 MLOAD DUP1 SWAP2 SUB SWAP1 RETURN JUMPDEST CALLVALUE DUP1 ISZERO PUSH2 0x267 JUMPI PUSH1 0x0 DUP1 REVERT JUMPDEST POP PUSH2 0x2B4 PUSH1 0x4 DUP1 CALLDATASIZE SUB PUSH1 0x40 DUP2 LT ISZERO PUSH2 0x27E JUMPI PUSH1 0x0 DUP1 REVERT JUMPDEST DUP2 ADD SWAP1 DUP1 DUP1 CALLDATALOAD PUSH20 0xFFFFFFFFFFFFFFFFFFFFFFFFFFFFFFFFFFFFFFFF AND SWAP1 PUSH1 0x20 ADD SWAP1 SWAP3 SWAP2 SWAP1 DUP1 CALLDATALOAD SWAP1 PUSH1 0x20 ADD SWAP1 SWAP3 SWAP2 SWAP1 POP POP POP PUSH2 0x6A0 JUMP JUMPDEST STOP JUMPDEST PUSH2 0x2E2 PUSH1 0x4 DUP1 CALLDATASIZE SUB PUSH1 0x20 DUP2 LT ISZERO PUSH2 0x2CC JUMPI PUSH1 0x0 DUP1 REVERT JUMPDEST DUP2 ADD SWAP1 DUP1 DUP1 CALLDATALOAD SWAP1 PUSH1 0x20 ADD SWAP1 SWAP3 SWAP2 SWAP1 POP POP POP PUSH2 0x830 JUMP JUMPDEST STOP JUMPDEST PUSH1 0x0 SELFBALANCE SWAP1 POP SWAP1 JUMP JUMPDEST PUSH1 0x2 PUSH1 0x0 SWAP1 SLOAD SWAP1 PUSH2 0x100 EXP SWAP1 DIV PUSH20 0xFFFFFFFFFFFFFFFFFFFFFFFFFFFFFFFFFFFFFFFF AND PUSH20 0xFFFFFFFFFFFFFFFFFFFFFFFFFFFFFFFFFFFFFFFF AND CALLER PUSH20 0xFFFFFFFFFFFFFFFFFFFFFFFFFFFFFFFFFFFFFFFF AND EQ PUSH2 0x346 JUMPI PUSH1 0x0 DUP1 REVERT JUMPDEST DUP1 PUSH1 0x0 DUP2 GT DUP1 ISZERO PUSH2 0x359 JUMPI POP PUSH1 0x0 SLOAD DUP2 GT ISZERO JUMPDEST PUSH2 0x362 JUMPI PUSH1 0x0 DUP1 REVERT JUMPDEST PUSH1 0x0 PUSH1 0x1 PUSH1 0x0 DUP5 DUP2 MSTORE PUSH1 0x20 ADD SWAP1 DUP2 MSTORE PUSH1 0x20 ADD PUSH1 0x0 KECCAK256 SWAP1 POP DUP1 PUSH1 0x1 ADD SLOAD DUP2 PUSH1 0x2 ADD SLOAD LT PUSH2 0x3FC JUMPI DUP1 PUSH1 0x0 ADD PUSH1 0x0 SWAP1 SLOAD SWAP1 PUSH2 0x100 EXP SWAP1 DIV PUSH20 0xFFFFFFFFFFFFFFFFFFFFFFFFFFFFFFFFFFFFFFFF AND PUSH20 0xFFFFFFFFFFFFFFFFFFFFFFFFFFFFFFFFFFFFFFFF AND PUSH2 0x8FC DUP3 PUSH1 0x1 ADD SLOAD SWAP1 DUP2 ISZERO MUL SWAP1 PUSH1 0x40 MLOAD PUSH1 0x0 PUSH1 0x40 MLOAD DUP1 DUP4 SUB DUP2 DUP6 DUP9 DUP9 CALL SWAP4 POP POP POP POP ISZERO DUP1 ISZERO PUSH2 0x3F6 JUMPI RETURNDATASIZE PUSH1 0x0 DUP1 RETURNDATACOPY RETURNDATASIZE PUSH1 0x0 REVERT JUMPDEST POP PUSH2 0x401 JUMP JUMPDEST PUSH1 0x0 DUP1 REVERT JUMPDEST POP POP POP JUMP JUMPDEST PUSH1 0x2 PUSH1 0x0 SWAP1 SLOAD SWAP1 PUSH2 0x100 EXP SWAP1 DIV PUSH20 0xFFFFFFFFFFFFFFFFFFFFFFFFFFFFFFFFFFFFFFFF AND PUSH20 0xFFFFFFFFFFFFFFFFFFFFFFFFFFFFFFFFFFFFFFFF AND CALLER PUSH20 0xFFFFFFFFFFFFFFFFFFFFFFFFFFFFFFFFFFFFFFFF AND EQ PUSH2 0x460 JUMPI PUSH1 0x0 DUP1 REVERT JUMPDEST CALLER PUSH20 0xFFFFFFFFFFFFFFFFFFFFFFFFFFFFFFFFFFFFFFFF AND PUSH2 0x8FC SELFBALANCE SWAP1 DUP2 ISZERO MUL SWAP1 PUSH1 0x40 MLOAD PUSH1 0x0 PUSH1 0x40 MLOAD DUP1 DUP4 SUB DUP2 DUP6 DUP9 DUP9 CALL SWAP4 POP POP POP POP ISZERO DUP1 ISZERO PUSH2 0x4A6 JUMPI RETURNDATASIZE PUSH1 0x0 DUP1 RETURNDATACOPY RETURNDATASIZE PUSH1 0x0 REVERT JUMPDEST POP JUMP JUMPDEST PUSH1 0x0 DUP2 PUSH1 0x0 DUP2 GT DUP1 ISZERO PUSH2 0x4BE JUMPI POP PUSH1 0x0 SLOAD DUP2 GT ISZERO JUMPDEST PUSH2 0x4C7 JUMPI PUSH1 0x0 DUP1 REVERT JUMPDEST PUSH1 0x0 PUSH1 0x1 PUSH1 0x0 DUP6 DUP2 MSTORE PUSH1 0x20 ADD SWAP1 DUP2 MSTORE PUSH1 0x20 ADD PUSH1 0x0 KECCAK256 SWAP1 POP DUP1 PUSH1 0x4 ADD PUSH1 0x0 SWAP1 SLOAD SWAP1 PUSH2 0x100 EXP SWAP1 DIV PUSH1 0xFF AND SWAP3 POP POP POP SWAP2 SWAP1 POP JUMP JUMPDEST PUSH1 0x0 DUP1 PUSH1 0x0 PUSH1 0x1 PUSH1 0x0 DUP6 DUP2 MSTORE PUSH1 0x20 ADD SWAP1 DUP2 MSTORE PUSH1 0x20 ADD PUSH1 0x0 KECCAK256 PUSH1 0x0 ADD PUSH1 0x0 SWAP1 SLOAD SWAP1 PUSH2 0x100 EXP SWAP1 DIV PUSH20 0xFFFFFFFFFFFFFFFFFFFFFFFFFFFFFFFFFFFFFFFF AND PUSH1 0x1 PUSH1 0x0 DUP7 DUP2 MSTORE PUSH1 0x20 ADD SWAP1 DUP2 MSTORE PUSH1 0x20 ADD PUSH1 0x0 KECCAK256 PUSH1 0x1 ADD SLOAD PUSH1 0x1 PUSH1 0x0 DUP8 DUP2 MSTORE PUSH1 0x20 ADD SWAP1 DUP2 MSTORE PUSH1 0x20 ADD PUSH1 0x0 KECCAK256 PUSH1 0x2 ADD SLOAD SWAP3 POP SWAP3 POP SWAP3 POP SWAP2 SWAP4 SWAP1 SWAP3 POP JUMP JUMPDEST PUSH1 0x2 PUSH1 0x0 SWAP1 SLOAD SWAP1 PUSH2 0x100 EXP SWAP1 DIV PUSH20 0xFFFFFFFFFFFFFFFFFFFFFFFFFFFFFFFFFFFFFFFF AND PUSH20 0xFFFFFFFFFFFFFFFFFFFFFFFFFFFFFFFFFFFFFFFF AND CALLER PUSH20 0xFFFFFFFFFFFFFFFFFFFFFFFFFFFFFFFFFFFFFFFF AND EQ PUSH2 0x5CA JUMPI PUSH1 0x0 DUP1 REVERT JUMPDEST PUSH1 0x2 PUSH1 0x0 SWAP1 SLOAD SWAP1 PUSH2 0x100 EXP SWAP1 DIV PUSH20 0xFFFFFFFFFFFFFFFFFFFFFFFFFFFFFFFFFFFFFFFF AND PUSH20 0xFFFFFFFFFFFFFFFFFFFFFFFFFFFFFFFFFFFFFFFF AND SELFDESTRUCT JUMPDEST PUSH1 0x2 PUSH1 0x0 SWAP1 SLOAD SWAP1 PUSH2 0x100 EXP SWAP1 DIV PUSH20 0xFFFFFFFFFFFFFFFFFFFFFFFFFFFFFFFFFFFFFFFF AND PUSH20 0xFFFFFFFFFFFFFFFFFFFFFFFFFFFFFFFFFFFFFFFF AND CALLER PUSH20 0xFFFFFFFFFFFFFFFFFFFFFFFFFFFFFFFFFFFFFFFF AND EQ PUSH2 0x65F JUMPI PUSH1 0x0 DUP1 REVERT JUMPDEST PUSH1 0x0 PUSH1 0x1 PUSH1 0x0 DUP5 DUP2 MSTORE PUSH1 0x20 ADD SWAP1 DUP2 MSTORE PUSH1 0x20 ADD PUSH1 0x0 KECCAK256 SWAP1 POP DUP2 DUP2 PUSH1 0x4 ADD PUSH1 0x0 PUSH2 0x100 EXP DUP2 SLOAD DUP2 PUSH1 0xFF MUL NOT AND SWAP1 DUP4 ISZERO ISZERO MUL OR SWAP1 SSTORE POP POP POP POP JUMP JUMPDEST PUSH1 0x0 DUP1 SLOAD SWAP1 POP SWAP1 JUMP JUMPDEST PUSH1 0x2 PUSH1 0x0 SWAP1 SLOAD SWAP1 PUSH2 0x100 EXP SWAP1 DIV PUSH20 0xFFFFFFFFFFFFFFFFFFFFFFFFFFFFFFFFFFFFFFFF AND PUSH20 0xFFFFFFFFFFFFFFFFFFFFFFFFFFFFFFFFFFFFFFFF AND CALLER PUSH20 0xFFFFFFFFFFFFFFFFFFFFFFFFFFFFFFFFFFFFFFFF AND EQ PUSH2 0x6FA JUMPI PUSH1 0x0 DUP1 REVERT JUMPDEST PUSH1 0x0 JUMPDEST PUSH1 0x0 SLOAD DUP2 LT ISZERO PUSH2 0x797 JUMPI PUSH1 0x0 PUSH1 0x1 PUSH1 0x0 PUSH1 0x1 DUP5 ADD DUP2 MSTORE PUSH1 0x20 ADD SWAP1 DUP2 MSTORE PUSH1 0x20 ADD PUSH1 0x0 KECCAK256 SWAP1 POP DUP4 PUSH20 0xFFFFFFFFFFFFFFFFFFFFFFFFFFFFFFFFFFFFFFFF AND DUP2 PUSH1 0x0 ADD PUSH1 0x0 SWAP1 SLOAD SWAP1 PUSH2 0x100 EXP SWAP1 DIV PUSH20 0xFFFFFFFFFFFFFFFFFFFFFFFFFFFFFFFFFFFFFFFF AND PUSH20 0xFFFFFFFFFFFFFFFFFFFFFFFFFFFFFFFFFFFFFFFF AND EQ ISZERO PUSH2 0x789 JUMPI DUP3 DUP2 PUSH1 0x1 ADD DUP2 SWAP1 SSTORE POP POP POP PUSH2 0x82C JUMP JUMPDEST POP DUP1 DUP1 PUSH1 0x1 ADD SWAP2 POP POP PUSH2 0x6FD JUMP JUMPDEST POP PUSH1 0x0 DUP1 DUP2 SLOAD DUP1 SWAP3 SWAP2 SWAP1 PUSH1 0x1 ADD SWAP2 SWAP1 POP SSTORE POP PUSH1 0x0 PUSH1 0x1 PUSH1 0x0 DUP1 SLOAD DUP2 MSTORE PUSH1 0x20 ADD SWAP1 DUP2 MSTORE PUSH1 0x20 ADD PUSH1 0x0 KECCAK256 SWAP1 POP DUP3 DUP2 PUSH1 0x0 ADD PUSH1 0x0 PUSH2 0x100 EXP DUP2 SLOAD DUP2 PUSH20 0xFFFFFFFFFFFFFFFFFFFFFFFFFFFFFFFFFFFFFFFF MUL NOT AND SWAP1 DUP4 PUSH20 0xFFFFFFFFFFFFFFFFFFFFFFFFFFFFFFFFFFFFFFFF AND MUL OR SWAP1 SSTORE POP DUP2 DUP2 PUSH1 0x1 ADD DUP2 SWAP1 SSTORE POP PUSH1 0x1 DUP2 PUSH1 0x4 ADD PUSH1 0x0 PUSH2 0x100 EXP DUP2 SLOAD DUP2 PUSH1 0xFF MUL NOT AND SWAP1 DUP4 ISZERO ISZERO MUL OR SWAP1 SSTORE POP POP JUMPDEST POP POP JUMP JUMPDEST DUP1 PUSH1 0x0 DUP2 GT DUP1 ISZERO PUSH2 0x843 JUMPI POP PUSH1 0x0 SLOAD DUP2 GT ISZERO JUMPDEST PUSH2 0x84C JUMPI PUSH1 0x0 DUP1 REVERT JUMPDEST PUSH1 0x0 PUSH1 0x1 PUSH1 0x0 DUP5 DUP2 MSTORE PUSH1 0x20 ADD SWAP1 DUP2 MSTORE PUSH1 0x20 ADD PUSH1 0x0 KECCAK256 SWAP1 POP DUP1 PUSH1 0x4 ADD PUSH1 0x0 SWAP1 SLOAD SWAP1 PUSH2 0x100 EXP SWAP1 DIV PUSH1 0xFF AND PUSH2 0x87E JUMPI PUSH1 0x0 DUP1 REVERT JUMPDEST DUP1 PUSH1 0x3 ADD PUSH1 0x0 DUP2 SLOAD DUP1 SWAP3 SWAP2 SWAP1 PUSH1 0x1 ADD SWAP2 SWAP1 POP SSTORE POP CALLVALUE DUP2 PUSH1 0x2 ADD PUSH1 0x0 DUP3 DUP3 SLOAD ADD SWAP3 POP POP DUP2 SWAP1 SSTORE POP PUSH1 0x0 DUP2 PUSH1 0x5 ADD PUSH1 0x0 DUP4 PUSH1 0x3 ADD SLOAD DUP2 MSTORE PUSH1 0x20 ADD SWAP1 DUP2 MSTORE PUSH1 0x20 ADD PUSH1 0x0 KECCAK256 SWAP1 POP CALLER DUP2 PUSH1 0x0 ADD PUSH1 0x0 PUSH2 0x100 EXP DUP2 SLOAD DUP2 PUSH20 0xFFFFFFFFFFFFFFFFFFFFFFFFFFFFFFFFFFFFFFFF MUL NOT AND SWAP1 DUP4 PUSH20 0xFFFFFFFFFFFFFFFFFFFFFFFFFFFFFFFFFFFFFFFF AND MUL OR SWAP1 SSTORE POP CALLVALUE DUP2 PUSH1 0x1 ADD DUP2 SWAP1 SSTORE POP POP POP POP POP JUMP INVALID LOG2 PUSH5 0x6970667358 0x22 SLT KECCAK256 CALLER CALLDATALOAD 0xC6 0xB9 0xC6 SUB GAS PUSH16 0x9900CD287D933442D27B017F1226C206 PUSH8 0x655F227FAD0CE164 PUSH20 0x6F6C634300070600330000000000000000000000 "
				},
				"gasEstimates": {
					"creation": {
						"codeDepositCost": "475400",
						"executionCost": "21377",
						"totalCost": "496777"
					},
					"external": {
						"": "223",
						"destroy()": "31850",
						"donate(uint256)": "85579",
						"getBalance()": "216",
						"getDonee(uint256)": "3151",
						"getDoneeCount()": "1057",
						"getStatus(uint256)": "2168",
						"setDonee(address,uint256)": "infinite",
						"setStatus(uint256,bool)": "22119",
						"transfer(uint256)": "infinite",
						"withdraw()": "infinite"
					}
				},
				"methodIdentifiers": {
					"destroy()": "83197ef0",
					"donate(uint256)": "f14faf6f",
					"getBalance()": "12065fe0",
					"getDonee(uint256)": "6b1ebb37",
					"getDoneeCount()": "89aded2c",
					"getStatus(uint256)": "5c622a0e",
					"setDonee(address,uint256)": "c951a1e0",
					"setStatus(uint256,bool)": "8719e8ac",
					"transfer(uint256)": "12514bba",
					"withdraw()": "3ccfd60b"
				}
			},
			"storageLayout": {
				"storage": [
					{
						"astId": 23,
						"contract": "众筹智能合约/Crowdfunding.sol:Crowdfunding",
						"label": "doneeCount",
						"offset": 0,
						"slot": "0",
						"type": "t_uint256"
					},
					{
						"astId": 27,
						"contract": "众筹智能合约/Crowdfunding.sol:Crowdfunding",
						"label": "doneeMap",
						"offset": 0,
						"slot": "1",
						"type": "t_mapping(t_uint256,t_struct(Donee)21_storage)"
					},
					{
						"astId": 29,
						"contract": "众筹智能合约/Crowdfunding.sol:Crowdfunding",
						"label": "owner",
						"offset": 0,
						"slot": "2",
						"type": "t_address_payable"
					}
				],
				"types": {
					"t_address": {
						"encoding": "inplace",
						"label": "address",
						"numberOfBytes": "20"
					},
					"t_address_payable": {
						"encoding": "inplace",
						"label": "address payable",
						"numberOfBytes": "20"
					},
					"t_bool": {
						"encoding": "inplace",
						"label": "bool",
						"numberOfBytes": "1"
					},
					"t_mapping(t_uint256,t_struct(Donee)21_storage)": {
						"encoding": "mapping",
						"key": "t_uint256",
						"label": "mapping(uint256 => struct Crowdfunding.Donee)",
						"numberOfBytes": "32",
						"value": "t_struct(Donee)21_storage"
					},
					"t_mapping(t_uint256,t_struct(Donor)6_storage)": {
						"encoding": "mapping",
						"key": "t_uint256",
						"label": "mapping(uint256 => struct Crowdfunding.Donor)",
						"numberOfBytes": "32",
						"value": "t_struct(Donor)6_storage"
					},
					"t_struct(Donee)21_storage": {
						"encoding": "inplace",
						"label": "struct Crowdfunding.Donee",
						"members": [
							{
								"astId": 8,
								"contract": "众筹智能合约/Crowdfunding.sol:Crowdfunding",
								"label": "addr",
								"offset": 0,
								"slot": "0",
								"type": "t_address"
							},
							{
								"astId": 10,
								"contract": "众筹智能合约/Crowdfunding.sol:Crowdfunding",
								"label": "goal",
								"offset": 0,
								"slot": "1",
								"type": "t_uint256"
							},
							{
								"astId": 12,
								"contract": "众筹智能合约/Crowdfunding.sol:Crowdfunding",
								"label": "amount",
								"offset": 0,
								"slot": "2",
								"type": "t_uint256"
							},
							{
								"astId": 14,
								"contract": "众筹智能合约/Crowdfunding.sol:Crowdfunding",
								"label": "donorCount",
								"offset": 0,
								"slot": "3",
								"type": "t_uint256"
							},
							{
								"astId": 16,
								"contract": "众筹智能合约/Crowdfunding.sol:Crowdfunding",
								"label": "status",
								"offset": 0,
								"slot": "4",
								"type": "t_bool"
							},
							{
								"astId": 20,
								"contract": "众筹智能合约/Crowdfunding.sol:Crowdfunding",
								"label": "donorMap",
								"offset": 0,
								"slot": "5",
								"type": "t_mapping(t_uint256,t_struct(Donor)6_storage)"
							}
						],
						"numberOfBytes": "192"
					},
					"t_struct(Donor)6_storage": {
						"encoding": "inplace",
						"label": "struct Crowdfunding.Donor",
						"members": [
							{
								"astId": 3,
								"contract": "众筹智能合约/Crowdfunding.sol:Crowdfunding",
								"label": "addr",
								"offset": 0,
								"slot": "0",
								"type": "t_address"
							},
							{
								"astId": 5,
								"contract": "众筹智能合约/Crowdfunding.sol:Crowdfunding",
								"label": "amount",
								"offset": 0,
								"slot": "1",
								"type": "t_uint256"
							}
						],
						"numberOfBytes": "64"
					},
					"t_uint256": {
						"encoding": "inplace",
						"label": "uint256",
						"numberOfBytes": "32"
					}
				}
			},
			"userdoc": {
				"kind": "user",
				"methods": {},
				"version": 1
			}
		}
	}
}