{
	"变量作用域/solidityTest.sol": {
		"C": {
			"abi": [
				{
					"inputs": [],
					"name": "data",
					"outputs": [
						{
							"internalType": "uint256",
							"name": "",
							"type": "uint256"
						}
					],
					"stateMutability": "view",
					"type": "function"
				},
				{
					"inputs": [],
					"name": "x",
					"outputs": [
						{
							"internalType": "uint256",
							"name": "",
							"type": "uint256"
						}
					],
					"stateMutability": "nonpayable",
					"type": "function"
				}
			],
			"devdoc": {
				"kind": "dev",
				"methods": {},
				"version": 1
			},
			"evm": {
				"assembly": "    /* \"\\xe5\\x8f\\x98\\xe9\\x87\\x8f\\xe4\\xbd\\x9c\\xe7\\x94\\xa8\\xe5\\x9f\\x9f/solidityTest.sol\":60:345  contract C {\r... */\n  mstore(0x40, 0x80)\n    /* \"\\xe5\\x8f\\x98\\xe9\\x87\\x8f\\xe4\\xbd\\x9c\\xe7\\x94\\xa8\\xe5\\x9f\\x9f/solidityTest.sol\":97:99  30 */\n  0x1e\n    /* \"\\xe5\\x8f\\x98\\xe9\\x87\\x8f\\xe4\\xbd\\x9c\\xe7\\x94\\xa8\\xe5\\x9f\\x9f/solidityTest.sol\":78:99  uint public data = 30 */\n  0x00\n  sstore\n    /* \"\\xe5\\x8f\\x98\\xe9\\x87\\x8f\\xe4\\xbd\\x9c\\xe7\\x94\\xa8\\xe5\\x9f\\x9f/solidityTest.sol\":128:130  20 */\n  0x14\n    /* \"\\xe5\\x8f\\x98\\xe9\\x87\\x8f\\xe4\\xbd\\x9c\\xe7\\x94\\xa8\\xe5\\x9f\\x9f/solidityTest.sol\":106:130  uint internal iData = 20 */\n  0x01\n  sstore\n    /* \"\\xe5\\x8f\\x98\\xe9\\x87\\x8f\\xe4\\xbd\\x9c\\xe7\\x94\\xa8\\xe5\\x9f\\x9f/solidityTest.sol\":158:160  10 */\n  0x0a\n    /* \"\\xe5\\x8f\\x98\\xe9\\x87\\x8f\\xe4\\xbd\\x9c\\xe7\\x94\\xa8\\xe5\\x9f\\x9f/solidityTest.sol\":137:160  uint private eData = 10 */\n  0x02\n  sstore\n    /* \"\\xe5\\x8f\\x98\\xe9\\x87\\x8f\\xe4\\xbd\\x9c\\xe7\\x94\\xa8\\xe5\\x9f\\x9f/solidityTest.sol\":60:345  contract C {\r... */\n  callvalue\n  dup1\n  iszero\n  tag_1\n  jumpi\n  0x00\n  dup1\n  revert\ntag_1:\n  pop\n  dataSize(sub_0)\n  dup1\n  dataOffset(sub_0)\n  0x00\n  codecopy\n  0x00\n  return\nstop\n\nsub_0: assembly {\n        /* \"\\xe5\\x8f\\x98\\xe9\\x87\\x8f\\xe4\\xbd\\x9c\\xe7\\x94\\xa8\\xe5\\x9f\\x9f/solidityTest.sol\":60:345  contract C {\r... */\n      mstore(0x40, 0x80)\n      callvalue\n      dup1\n      iszero\n      tag_1\n      jumpi\n      0x00\n      dup1\n      revert\n    tag_1:\n      pop\n      jumpi(tag_2, lt(calldatasize, 0x04))\n      shr(0xe0, calldataload(0x00))\n      dup1\n      0x0c55699c\n      eq\n      tag_3\n      jumpi\n      dup1\n      0x73d4a13a\n      eq\n      tag_4\n      jumpi\n    tag_2:\n      0x00\n      dup1\n      revert\n        /* \"\\xe5\\x8f\\x98\\xe9\\x87\\x8f\\xe4\\xbd\\x9c\\xe7\\x94\\xa8\\xe5\\x9f\\x9f/solidityTest.sol\":169:340  function x() public returns (uint) {\r... */\n    tag_3:\n      tag_5\n      tag_6\n      jump\t// in\n    tag_5:\n      mload(0x40)\n      tag_7\n      swap2\n      swap1\n      tag_8\n      jump\t// in\n    tag_7:\n      mload(0x40)\n      dup1\n      swap2\n      sub\n      swap1\n      return\n        /* \"\\xe5\\x8f\\x98\\xe9\\x87\\x8f\\xe4\\xbd\\x9c\\xe7\\x94\\xa8\\xe5\\x9f\\x9f/solidityTest.sol\":78:99  uint public data = 30 */\n    tag_4:\n      tag_9\n      tag_10\n      jump\t// in\n    tag_9:\n      mload(0x40)\n      tag_11\n      swap2\n      swap1\n      tag_8\n      jump\t// in\n    tag_11:\n      mload(0x40)\n      dup1\n      swap2\n      sub\n      swap1\n      return\n        /* \"\\xe5\\x8f\\x98\\xe9\\x87\\x8f\\xe4\\xbd\\x9c\\xe7\\x94\\xa8\\xe5\\x9f\\x9f/solidityTest.sol\":169:340  function x() public returns (uint) {\r... */\n    tag_6:\n        /* \"\\xe5\\x8f\\x98\\xe9\\x87\\x8f\\xe4\\xbd\\x9c\\xe7\\x94\\xa8\\xe5\\x9f\\x9f/solidityTest.sol\":198:202  uint */\n      0x00\n        /* \"\\xe5\\x8f\\x98\\xe9\\x87\\x8f\\xe4\\xbd\\x9c\\xe7\\x94\\xa8\\xe5\\x9f\\x9f/solidityTest.sol\":222:223  3 */\n      0x03\n        /* \"\\xe5\\x8f\\x98\\xe9\\x87\\x8f\\xe4\\xbd\\x9c\\xe7\\x94\\xa8\\xe5\\x9f\\x9f/solidityTest.sol\":215:219  data */\n      0x00\n        /* \"\\xe5\\x8f\\x98\\xe9\\x87\\x8f\\xe4\\xbd\\x9c\\xe7\\x94\\xa8\\xe5\\x9f\\x9f/solidityTest.sol\":215:223  data = 3 */\n      dup2\n      swap1\n      sstore\n      pop\n        /* \"\\xe5\\x8f\\x98\\xe9\\x87\\x8f\\xe4\\xbd\\x9c\\xe7\\x94\\xa8\\xe5\\x9f\\x9f/solidityTest.sol\":245:246  2 */\n      0x02\n        /* \"\\xe5\\x8f\\x98\\xe9\\x87\\x8f\\xe4\\xbd\\x9c\\xe7\\x94\\xa8\\xe5\\x9f\\x9f/solidityTest.sol\":237:242  iData */\n      0x01\n        /* \"\\xe5\\x8f\\x98\\xe9\\x87\\x8f\\xe4\\xbd\\x9c\\xe7\\x94\\xa8\\xe5\\x9f\\x9f/solidityTest.sol\":237:246  iData = 2 */\n      dup2\n      swap1\n      sstore\n      pop\n        /* \"\\xe5\\x8f\\x98\\xe9\\x87\\x8f\\xe4\\xbd\\x9c\\xe7\\x94\\xa8\\xe5\\x9f\\x9f/solidityTest.sol\":287:288  1 */\n      0x01\n        /* \"\\xe5\\x8f\\x98\\xe9\\x87\\x8f\\xe4\\xbd\\x9c\\xe7\\x94\\xa8\\xe5\\x9f\\x9f/solidityTest.sol\":279:284  eData */\n      0x02\n        /* \"\\xe5\\x8f\\x98\\xe9\\x87\\x8f\\xe4\\xbd\\x9c\\xe7\\x94\\xa8\\xe5\\x9f\\x9f/solidityTest.sol\":279:288  eData = 1 */\n      dup2\n      swap1\n      sstore\n      pop\n        /* \"\\xe5\\x8f\\x98\\xe9\\x87\\x8f\\xe4\\xbd\\x9c\\xe7\\x94\\xa8\\xe5\\x9f\\x9f/solidityTest.sol\":328:332  data */\n      sload(0x00)\n        /* \"\\xe5\\x8f\\x98\\xe9\\x87\\x8f\\xe4\\xbd\\x9c\\xe7\\x94\\xa8\\xe5\\x9f\\x9f/solidityTest.sol\":321:332  return data */\n      swap1\n      pop\n        /* \"\\xe5\\x8f\\x98\\xe9\\x87\\x8f\\xe4\\xbd\\x9c\\xe7\\x94\\xa8\\xe5\\x9f\\x9f/solidityTest.sol\":169:340  function x() public returns (uint) {\r... */\n      swap1\n      jump\t// out\n        /* \"\\xe5\\x8f\\x98\\xe9\\x87\\x8f\\xe4\\xbd\\x9c\\xe7\\x94\\xa8\\xe5\\x9f\\x9f/solidityTest.sol\":78:99  uint public data = 30 */\n    tag_10:\n      sload(0x00)\n      dup2\n      jump\t// out\n        /* \"#utility.yul\":7:125   */\n    tag_14:\n        /* \"#utility.yul\":94:118   */\n      tag_16\n        /* \"#utility.yul\":112:117   */\n      dup2\n        /* \"#utility.yul\":94:118   */\n      tag_17\n      jump\t// in\n    tag_16:\n        /* \"#utility.yul\":89:92   */\n      dup3\n        /* \"#utility.yul\":82:119   */\n      mstore\n        /* \"#utility.yul\":7:125   */\n      pop\n      pop\n      jump\t// out\n        /* \"#utility.yul\":131:353   */\n    tag_8:\n        /* \"#utility.yul\":224:228   */\n      0x00\n        /* \"#utility.yul\":262:264   */\n      0x20\n        /* \"#utility.yul\":251:260   */\n      dup3\n        /* \"#utility.yul\":247:265   */\n      add\n        /* \"#utility.yul\":239:265   */\n      swap1\n      pop\n        /* \"#utility.yul\":275:346   */\n      tag_19\n        /* \"#utility.yul\":343:344   */\n      0x00\n        /* \"#utility.yul\":332:341   */\n      dup4\n        /* \"#utility.yul\":328:345   */\n      add\n        /* \"#utility.yul\":319:325   */\n      dup5\n        /* \"#utility.yul\":275:346   */\n      tag_14\n      jump\t// in\n    tag_19:\n        /* \"#utility.yul\":131:353   */\n      swap3\n      swap2\n      pop\n      pop\n      jump\t// out\n        /* \"#utility.yul\":359:436   */\n    tag_17:\n        /* \"#utility.yul\":396:403   */\n      0x00\n        /* \"#utility.yul\":425:430   */\n      dup2\n        /* \"#utility.yul\":414:430   */\n      swap1\n      pop\n        /* \"#utility.yul\":359:436   */\n      swap2\n      swap1\n      pop\n      jump\t// out\n\n    auxdata: 0xa2646970667358221220a2568504fbe3f537c509840c638c8cd51cd60af812a50a0a5ee2c93bbf95dc3764736f6c63430008070033\n}\n",
				"bytecode": {
					"linkReferences": {},
					"object": "6080604052601e6000556014600155600a60025534801561001f57600080fd5b5060f98061002e6000396000f3fe6080604052348015600f57600080fd5b506004361060325760003560e01c80630c55699c14603757806373d4a13a146051575b600080fd5b603d606b565b6040516048919060a0565b60405180910390f35b6057608d565b6040516062919060a0565b60405180910390f35b6000600360008190555060026001819055506001600281905550600054905090565b60005481565b609a8160b9565b82525050565b600060208201905060b360008301846093565b92915050565b600081905091905056fea2646970667358221220a2568504fbe3f537c509840c638c8cd51cd60af812a50a0a5ee2c93bbf95dc3764736f6c63430008070033",
					"opcodes": "PUSH1 0x80 PUSH1 0x40 MSTORE PUSH1 0x1E PUSH1 0x0 SSTORE PUSH1 0x14 PUSH1 0x1 SSTORE PUSH1 0xA PUSH1 0x2 SSTORE CALLVALUE DUP1 ISZERO PUSH2 0x1F JUMPI PUSH1 0x0 DUP1 REVERT JUMPDEST POP PUSH1 0xF9 DUP1 PUSH2 0x2E PUSH1 0x0 CODECOPY PUSH1 0x0 RETURN INVALID PUSH1 0x80 PUSH1 0x40 MSTORE CALLVALUE DUP1 ISZERO PUSH1 0xF JUMPI PUSH1 0x0 DUP1 REVERT JUMPDEST POP PUSH1 0x4 CALLDATASIZE LT PUSH1 0x32 JUMPI PUSH1 0x0 CALLDATALOAD PUSH1 0xE0 SHR DUP1 PUSH4 0xC55699C EQ PUSH1 0x37 JUMPI DUP1 PUSH4 0x73D4A13A EQ PUSH1 0x51 JUMPI JUMPDEST PUSH1 0x0 DUP1 REVERT JUMPDEST PUSH1 0x3D PUSH1 0x6B JUMP JUMPDEST PUSH1 0x40 MLOAD PUSH1 0x48 SWAP2 SWAP1 PUSH1 0xA0 JUMP JUMPDEST PUSH1 0x40 MLOAD DUP1 SWAP2 SUB SWAP1 RETURN JUMPDEST PUSH1 0x57 PUSH1 0x8D JUMP JUMPDEST PUSH1 0x40 MLOAD PUSH1 0x62 SWAP2 SWAP1 PUSH1 0xA0 JUMP JUMPDEST PUSH1 0x40 MLOAD DUP1 SWAP2 SUB SWAP1 RETURN JUMPDEST PUSH1 0x0 PUSH1 0x3 PUSH1 0x0 DUP2 SWAP1 SSTORE POP PUSH1 0x2 PUSH1 0x1 DUP2 SWAP1 SSTORE POP PUSH1 0x1 PUSH1 0x2 DUP2 SWAP1 SSTORE POP PUSH1 0x0 SLOAD SWAP1 POP SWAP1 JUMP JUMPDEST PUSH1 0x0 SLOAD DUP2 JUMP JUMPDEST PUSH1 0x9A DUP2 PUSH1 0xB9 JUMP JUMPDEST DUP3 MSTORE POP POP JUMP JUMPDEST PUSH1 0x0 PUSH1 0x20 DUP3 ADD SWAP1 POP PUSH1 0xB3 PUSH1 0x0 DUP4 ADD DUP5 PUSH1 0x93 JUMP JUMPDEST SWAP3 SWAP2 POP POP JUMP JUMPDEST PUSH1 0x0 DUP2 SWAP1 POP SWAP2 SWAP1 POP JUMP INVALID LOG2 PUSH5 0x6970667358 0x22 SLT KECCAK256 LOG2 JUMP DUP6 DIV 0xFB 0xE3 CREATE2 CALLDATACOPY 0xC5 MULMOD DUP5 0xC PUSH4 0x8C8CD51C 0xD6 EXP 0xF8 SLT 0xA5 EXP EXP 0x5E 0xE2 0xC9 EXTCODESIZE 0xBF SWAP6 0xDC CALLDATACOPY PUSH5 0x736F6C6343 STOP ADDMOD SMOD STOP CALLER "
				},
				"gasEstimates": {
					"creation": {
						"codeDepositCost": "49800",
						"executionCost": "66417",
						"totalCost": "116217"
					},
					"external": {
						"data()": "2429",
						"x()": "68757"
					}
				},
				"methodIdentifiers": {
					"data()": "73d4a13a",
					"x()": "0c55699c"
				}
			},
			"storageLayout": {
				"storage": [
					{
						"astId": 4,
						"contract": "变量作用域/solidityTest.sol:C",
						"label": "data",
						"offset": 0,
						"slot": "0",
						"type": "t_uint256"
					},
					{
						"astId": 7,
						"contract": "变量作用域/solidityTest.sol:C",
						"label": "iData",
						"offset": 0,
						"slot": "1",
						"type": "t_uint256"
					},
					{
						"astId": 10,
						"contract": "变量作用域/solidityTest.sol:C",
						"label": "eData",
						"offset": 0,
						"slot": "2",
						"type": "t_uint256"
					}
				],
				"types": {
					"t_uint256": {
						"encoding": "inplace",
						"label": "uint256",
						"numberOfBytes": "32"
					}
				}
			},
			"userdoc": {
				"kind": "user",
				"methods": {},
				"version": 1
			}
		}
	}
}