{
	"变量作用域/solidityTest.sol": {
		"Caller": {
			"abi": [
				{
					"inputs": [],
					"name": "f",
					"outputs": [
						{
							"internalType": "uint256",
							"name": "",
							"type": "uint256"
						}
					],
					"stateMutability": "view",
					"type": "function"
				}
			],
			"devdoc": {
				"kind": "dev",
				"methods": {},
				"version": 1
			},
			"evm": {
				"assembly": "    /* \"\\xe5\\x8f\\x98\\xe9\\x87\\x8f\\xe4\\xbd\\x9c\\xe7\\x94\\xa8\\xe5\\x9f\\x9f/solidityTest.sol\":349:636  contract Caller {   //  调用外部合约\r... */\n  mstore(0x40, 0x80)\n    /* \"\\xe5\\x8f\\x98\\xe9\\x87\\x8f\\xe4\\xbd\\x9c\\xe7\\x94\\xa8\\xe5\\x9f\\x9f/solidityTest.sol\":403:410  new C() */\n  mload(0x40)\n  tag_1\n  swap1\n  tag_2\n  jump\t// in\ntag_1:\n  mload(0x40)\n  dup1\n  swap2\n  sub\n  swap1\n  0x00\n  create\n  dup1\n  iszero\n  dup1\n  iszero\n  tag_3\n  jumpi\n  returndatasize\n  0x00\n  dup1\n  returndatacopy\n  revert(0x00, returndatasize)\ntag_3:\n  pop\n    /* \"\\xe5\\x8f\\x98\\xe9\\x87\\x8f\\xe4\\xbd\\x9c\\xe7\\x94\\xa8\\xe5\\x9f\\x9f/solidityTest.sol\":397:410  C c = new C() */\n  0x00\n  dup1\n  0x0100\n  exp\n  dup2\n  sload\n  dup2\n  0xffffffffffffffffffffffffffffffffffffffff\n  mul\n  not\n  and\n  swap1\n  dup4\n  0xffffffffffffffffffffffffffffffffffffffff\n  and\n  mul\n  or\n  swap1\n  sstore\n  pop\n    /* \"\\xe5\\x8f\\x98\\xe9\\x87\\x8f\\xe4\\xbd\\x9c\\xe7\\x94\\xa8\\xe5\\x9f\\x9f/solidityTest.sol\":349:636  contract Caller {   //  调用外部合约\r... */\n  callvalue\n  dup1\n  iszero\n  tag_4\n  jumpi\n  0x00\n  dup1\n  revert\ntag_4:\n  pop\n  jump(tag_5)\ntag_2:\n  dataSize(sub_1)\n  dup1\n  dataOffset(sub_1)\n  dup4\n  codecopy\n  add\n  swap1\n  jump\t// out\ntag_5:\n  dataSize(sub_0)\n  dup1\n  dataOffset(sub_0)\n  0x00\n  codecopy\n  0x00\n  return\nstop\n\nsub_0: assembly {\n        /* \"\\xe5\\x8f\\x98\\xe9\\x87\\x8f\\xe4\\xbd\\x9c\\xe7\\x94\\xa8\\xe5\\x9f\\x9f/solidityTest.sol\":349:636  contract Caller {   //  调用外部合约\r... */\n      mstore(0x40, 0x80)\n      callvalue\n      dup1\n      iszero\n      tag_1\n      jumpi\n      0x00\n      dup1\n      revert\n    tag_1:\n      pop\n      jumpi(tag_2, lt(calldatasize, 0x04))\n      shr(0xe0, calldataload(0x00))\n      dup1\n      0x26121ff0\n      eq\n      tag_3\n      jumpi\n    tag_2:\n      0x00\n      dup1\n      revert\n        /* \"\\xe5\\x8f\\x98\\xe9\\x87\\x8f\\xe4\\xbd\\x9c\\xe7\\x94\\xa8\\xe5\\x9f\\x9f/solidityTest.sol\":417:633  function f() public view returns (uint) {\r... */\n    tag_3:\n      tag_4\n      tag_5\n      jump\t// in\n    tag_4:\n      mload(0x40)\n      tag_6\n      swap2\n      swap1\n      tag_7\n      jump\t// in\n    tag_6:\n      mload(0x40)\n      dup1\n      swap2\n      sub\n      swap1\n      return\n    tag_5:\n        /* \"\\xe5\\x8f\\x98\\xe9\\x87\\x8f\\xe4\\xbd\\x9c\\xe7\\x94\\xa8\\xe5\\x9f\\x9f/solidityTest.sol\":451:455  uint */\n      0x00\n        /* \"\\xe5\\x8f\\x98\\xe9\\x87\\x8f\\xe4\\xbd\\x9c\\xe7\\x94\\xa8\\xe5\\x9f\\x9f/solidityTest.sol\":475:476  c */\n      dup1\n      0x00\n      swap1\n      sload\n      swap1\n      0x0100\n      exp\n      swap1\n      div\n      0xffffffffffffffffffffffffffffffffffffffff\n      and\n        /* \"\\xe5\\x8f\\x98\\xe9\\x87\\x8f\\xe4\\xbd\\x9c\\xe7\\x94\\xa8\\xe5\\x9f\\x9f/solidityTest.sol\":475:481  c.data */\n      0xffffffffffffffffffffffffffffffffffffffff\n      and\n      0x73d4a13a\n        /* \"\\xe5\\x8f\\x98\\xe9\\x87\\x8f\\xe4\\xbd\\x9c\\xe7\\x94\\xa8\\xe5\\x9f\\x9f/solidityTest.sol\":475:483  c.data() */\n      mload(0x40)\n      dup2\n      0xffffffff\n      and\n      0xe0\n      shl\n      dup2\n      mstore\n      0x04\n      add\n      0x20\n      mload(0x40)\n      dup1\n      dup4\n      sub\n      dup2\n      dup7\n      dup1\n      extcodesize\n      iszero\n      dup1\n      iszero\n      tag_9\n      jumpi\n      0x00\n      dup1\n      revert\n    tag_9:\n      pop\n      gas\n      staticcall\n      iszero\n      dup1\n      iszero\n      tag_11\n      jumpi\n      returndatasize\n      0x00\n      dup1\n      returndatacopy\n      revert(0x00, returndatasize)\n    tag_11:\n      pop\n      pop\n      pop\n      pop\n      mload(0x40)\n      returndatasize\n      not(0x1f)\n      0x1f\n      dup3\n      add\n      and\n      dup3\n      add\n      dup1\n      0x40\n      mstore\n      pop\n      dup2\n      add\n      swap1\n      tag_12\n      swap2\n      swap1\n      tag_13\n      jump\t// in\n    tag_12:\n        /* \"\\xe5\\x8f\\x98\\xe9\\x87\\x8f\\xe4\\xbd\\x9c\\xe7\\x94\\xa8\\xe5\\x9f\\x9f/solidityTest.sol\":468:483  return c.data() */\n      swap1\n      pop\n        /* \"\\xe5\\x8f\\x98\\xe9\\x87\\x8f\\xe4\\xbd\\x9c\\xe7\\x94\\xa8\\xe5\\x9f\\x9f/solidityTest.sol\":417:633  function f() public view returns (uint) {\r... */\n      swap1\n      jump\t// out\n        /* \"#utility.yul\":7:150   */\n    tag_15:\n        /* \"#utility.yul\":64:69   */\n      0x00\n        /* \"#utility.yul\":95:101   */\n      dup2\n        /* \"#utility.yul\":89:102   */\n      mload\n        /* \"#utility.yul\":80:102   */\n      swap1\n      pop\n        /* \"#utility.yul\":111:144   */\n      tag_17\n        /* \"#utility.yul\":138:143   */\n      dup2\n        /* \"#utility.yul\":111:144   */\n      tag_18\n      jump\t// in\n    tag_17:\n        /* \"#utility.yul\":7:150   */\n      swap3\n      swap2\n      pop\n      pop\n      jump\t// out\n        /* \"#utility.yul\":156:507   */\n    tag_13:\n        /* \"#utility.yul\":226:232   */\n      0x00\n        /* \"#utility.yul\":275:277   */\n      0x20\n        /* \"#utility.yul\":263:272   */\n      dup3\n        /* \"#utility.yul\":254:261   */\n      dup5\n        /* \"#utility.yul\":250:273   */\n      sub\n        /* \"#utility.yul\":246:278   */\n      slt\n        /* \"#utility.yul\":243:362   */\n      iszero\n      tag_20\n      jumpi\n        /* \"#utility.yul\":281:360   */\n      tag_21\n      tag_22\n      jump\t// in\n    tag_21:\n        /* \"#utility.yul\":243:362   */\n    tag_20:\n        /* \"#utility.yul\":401:402   */\n      0x00\n        /* \"#utility.yul\":426:490   */\n      tag_23\n        /* \"#utility.yul\":482:489   */\n      dup5\n        /* \"#utility.yul\":473:479   */\n      dup3\n        /* \"#utility.yul\":462:471   */\n      dup6\n        /* \"#utility.yul\":458:480   */\n      add\n        /* \"#utility.yul\":426:490   */\n      tag_15\n      jump\t// in\n    tag_23:\n        /* \"#utility.yul\":416:490   */\n      swap2\n      pop\n        /* \"#utility.yul\":372:500   */\n      pop\n        /* \"#utility.yul\":156:507   */\n      swap3\n      swap2\n      pop\n      pop\n      jump\t// out\n        /* \"#utility.yul\":513:631   */\n    tag_24:\n        /* \"#utility.yul\":600:624   */\n      tag_26\n        /* \"#utility.yul\":618:623   */\n      dup2\n        /* \"#utility.yul\":600:624   */\n      tag_27\n      jump\t// in\n    tag_26:\n        /* \"#utility.yul\":595:598   */\n      dup3\n        /* \"#utility.yul\":588:625   */\n      mstore\n        /* \"#utility.yul\":513:631   */\n      pop\n      pop\n      jump\t// out\n        /* \"#utility.yul\":637:859   */\n    tag_7:\n        /* \"#utility.yul\":730:734   */\n      0x00\n        /* \"#utility.yul\":768:770   */\n      0x20\n        /* \"#utility.yul\":757:766   */\n      dup3\n        /* \"#utility.yul\":753:771   */\n      add\n        /* \"#utility.yul\":745:771   */\n      swap1\n      pop\n        /* \"#utility.yul\":781:852   */\n      tag_29\n        /* \"#utility.yul\":849:850   */\n      0x00\n        /* \"#utility.yul\":838:847   */\n      dup4\n        /* \"#utility.yul\":834:851   */\n      add\n        /* \"#utility.yul\":825:831   */\n      dup5\n        /* \"#utility.yul\":781:852   */\n      tag_24\n      jump\t// in\n    tag_29:\n        /* \"#utility.yul\":637:859   */\n      swap3\n      swap2\n      pop\n      pop\n      jump\t// out\n        /* \"#utility.yul\":946:1023   */\n    tag_27:\n        /* \"#utility.yul\":983:990   */\n      0x00\n        /* \"#utility.yul\":1012:1017   */\n      dup2\n        /* \"#utility.yul\":1001:1017   */\n      swap1\n      pop\n        /* \"#utility.yul\":946:1023   */\n      swap2\n      swap1\n      pop\n      jump\t// out\n        /* \"#utility.yul\":1152:1269   */\n    tag_22:\n        /* \"#utility.yul\":1261:1262   */\n      0x00\n        /* \"#utility.yul\":1258:1259   */\n      dup1\n        /* \"#utility.yul\":1251:1263   */\n      revert\n        /* \"#utility.yul\":1275:1397   */\n    tag_18:\n        /* \"#utility.yul\":1348:1372   */\n      tag_37\n        /* \"#utility.yul\":1366:1371   */\n      dup2\n        /* \"#utility.yul\":1348:1372   */\n      tag_27\n      jump\t// in\n    tag_37:\n        /* \"#utility.yul\":1341:1346   */\n      dup2\n        /* \"#utility.yul\":1338:1373   */\n      eq\n        /* \"#utility.yul\":1328:1391   */\n      tag_38\n      jumpi\n        /* \"#utility.yul\":1387:1388   */\n      0x00\n        /* \"#utility.yul\":1384:1385   */\n      dup1\n        /* \"#utility.yul\":1377:1389   */\n      revert\n        /* \"#utility.yul\":1328:1391   */\n    tag_38:\n        /* \"#utility.yul\":1275:1397   */\n      pop\n      jump\t// out\n\n    auxdata: 0xa26469706673582212208d1e497a1ab51cc94695ab14cb836f8061af3134d8d294193b15ee0ea4f5e1f064736f6c63430008070033\n}\n\nsub_1: assembly {\n        /* \"\\xe5\\x8f\\x98\\xe9\\x87\\x8f\\xe4\\xbd\\x9c\\xe7\\x94\\xa8\\xe5\\x9f\\x9f/solidityTest.sol\":60:345  contract C {\r... */\n      mstore(0x40, 0x80)\n        /* \"\\xe5\\x8f\\x98\\xe9\\x87\\x8f\\xe4\\xbd\\x9c\\xe7\\x94\\xa8\\xe5\\x9f\\x9f/solidityTest.sol\":97:99  30 */\n      0x1e\n        /* \"\\xe5\\x8f\\x98\\xe9\\x87\\x8f\\xe4\\xbd\\x9c\\xe7\\x94\\xa8\\xe5\\x9f\\x9f/solidityTest.sol\":78:99  uint public data = 30 */\n      0x00\n      sstore\n        /* \"\\xe5\\x8f\\x98\\xe9\\x87\\x8f\\xe4\\xbd\\x9c\\xe7\\x94\\xa8\\xe5\\x9f\\x9f/solidityTest.sol\":128:130  20 */\n      0x14\n        /* \"\\xe5\\x8f\\x98\\xe9\\x87\\x8f\\xe4\\xbd\\x9c\\xe7\\x94\\xa8\\xe5\\x9f\\x9f/solidityTest.sol\":106:130  uint internal iData = 20 */\n      0x01\n      sstore\n        /* \"\\xe5\\x8f\\x98\\xe9\\x87\\x8f\\xe4\\xbd\\x9c\\xe7\\x94\\xa8\\xe5\\x9f\\x9f/solidityTest.sol\":158:160  10 */\n      0x0a\n        /* \"\\xe5\\x8f\\x98\\xe9\\x87\\x8f\\xe4\\xbd\\x9c\\xe7\\x94\\xa8\\xe5\\x9f\\x9f/solidityTest.sol\":137:160  uint private eData = 10 */\n      0x02\n      sstore\n        /* \"\\xe5\\x8f\\x98\\xe9\\x87\\x8f\\xe4\\xbd\\x9c\\xe7\\x94\\xa8\\xe5\\x9f\\x9f/solidityTest.sol\":60:345  contract C {\r... */\n      callvalue\n      dup1\n      iszero\n      tag_1\n      jumpi\n      0x00\n      dup1\n      revert\n    tag_1:\n      pop\n      dataSize(sub_0)\n      dup1\n      dataOffset(sub_0)\n      0x00\n      codecopy\n      0x00\n      return\n    stop\n\n    sub_0: assembly {\n            /* \"\\xe5\\x8f\\x98\\xe9\\x87\\x8f\\xe4\\xbd\\x9c\\xe7\\x94\\xa8\\xe5\\x9f\\x9f/solidityTest.sol\":60:345  contract C {\r... */\n          mstore(0x40, 0x80)\n          callvalue\n          dup1\n          iszero\n          tag_1\n          jumpi\n          0x00\n          dup1\n          revert\n        tag_1:\n          pop\n          jumpi(tag_2, lt(calldatasize, 0x04))\n          shr(0xe0, calldataload(0x00))\n          dup1\n          0x0c55699c\n          eq\n          tag_3\n          jumpi\n          dup1\n          0x73d4a13a\n          eq\n          tag_4\n          jumpi\n        tag_2:\n          0x00\n          dup1\n          revert\n            /* \"\\xe5\\x8f\\x98\\xe9\\x87\\x8f\\xe4\\xbd\\x9c\\xe7\\x94\\xa8\\xe5\\x9f\\x9f/solidityTest.sol\":169:340  function x() public returns (uint) {\r... */\n        tag_3:\n          tag_5\n          tag_6\n          jump\t// in\n        tag_5:\n          mload(0x40)\n          tag_7\n          swap2\n          swap1\n          tag_8\n          jump\t// in\n        tag_7:\n          mload(0x40)\n          dup1\n          swap2\n          sub\n          swap1\n          return\n            /* \"\\xe5\\x8f\\x98\\xe9\\x87\\x8f\\xe4\\xbd\\x9c\\xe7\\x94\\xa8\\xe5\\x9f\\x9f/solidityTest.sol\":78:99  uint public data = 30 */\n        tag_4:\n          tag_9\n          tag_10\n          jump\t// in\n        tag_9:\n          mload(0x40)\n          tag_11\n          swap2\n          swap1\n          tag_8\n          jump\t// in\n        tag_11:\n          mload(0x40)\n          dup1\n          swap2\n          sub\n          swap1\n          return\n            /* \"\\xe5\\x8f\\x98\\xe9\\x87\\x8f\\xe4\\xbd\\x9c\\xe7\\x94\\xa8\\xe5\\x9f\\x9f/solidityTest.sol\":169:340  function x() public returns (uint) {\r... */\n        tag_6:\n            /* \"\\xe5\\x8f\\x98\\xe9\\x87\\x8f\\xe4\\xbd\\x9c\\xe7\\x94\\xa8\\xe5\\x9f\\x9f/solidityTest.sol\":198:202  uint */\n          0x00\n            /* \"\\xe5\\x8f\\x98\\xe9\\x87\\x8f\\xe4\\xbd\\x9c\\xe7\\x94\\xa8\\xe5\\x9f\\x9f/solidityTest.sol\":222:223  3 */\n          0x03\n            /* \"\\xe5\\x8f\\x98\\xe9\\x87\\x8f\\xe4\\xbd\\x9c\\xe7\\x94\\xa8\\xe5\\x9f\\x9f/solidityTest.sol\":215:219  data */\n          0x00\n            /* \"\\xe5\\x8f\\x98\\xe9\\x87\\x8f\\xe4\\xbd\\x9c\\xe7\\x94\\xa8\\xe5\\x9f\\x9f/solidityTest.sol\":215:223  data = 3 */\n          dup2\n          swap1\n          sstore\n          pop\n            /* \"\\xe5\\x8f\\x98\\xe9\\x87\\x8f\\xe4\\xbd\\x9c\\xe7\\x94\\xa8\\xe5\\x9f\\x9f/solidityTest.sol\":245:246  2 */\n          0x02\n            /* \"\\xe5\\x8f\\x98\\xe9\\x87\\x8f\\xe4\\xbd\\x9c\\xe7\\x94\\xa8\\xe5\\x9f\\x9f/solidityTest.sol\":237:242  iData */\n          0x01\n            /* \"\\xe5\\x8f\\x98\\xe9\\x87\\x8f\\xe4\\xbd\\x9c\\xe7\\x94\\xa8\\xe5\\x9f\\x9f/solidityTest.sol\":237:246  iData = 2 */\n          dup2\n          swap1\n          sstore\n          pop\n            /* \"\\xe5\\x8f\\x98\\xe9\\x87\\x8f\\xe4\\xbd\\x9c\\xe7\\x94\\xa8\\xe5\\x9f\\x9f/solidityTest.sol\":287:288  1 */\n          0x01\n            /* \"\\xe5\\x8f\\x98\\xe9\\x87\\x8f\\xe4\\xbd\\x9c\\xe7\\x94\\xa8\\xe5\\x9f\\x9f/solidityTest.sol\":279:284  eData */\n          0x02\n            /* \"\\xe5\\x8f\\x98\\xe9\\x87\\x8f\\xe4\\xbd\\x9c\\xe7\\x94\\xa8\\xe5\\x9f\\x9f/solidityTest.sol\":279:288  eData = 1 */\n          dup2\n          swap1\n          sstore\n          pop\n            /* \"\\xe5\\x8f\\x98\\xe9\\x87\\x8f\\xe4\\xbd\\x9c\\xe7\\x94\\xa8\\xe5\\x9f\\x9f/solidityTest.sol\":328:332  data */\n          sload(0x00)\n            /* \"\\xe5\\x8f\\x98\\xe9\\x87\\x8f\\xe4\\xbd\\x9c\\xe7\\x94\\xa8\\xe5\\x9f\\x9f/solidityTest.sol\":321:332  return data */\n          swap1\n          pop\n            /* \"\\xe5\\x8f\\x98\\xe9\\x87\\x8f\\xe4\\xbd\\x9c\\xe7\\x94\\xa8\\xe5\\x9f\\x9f/solidityTest.sol\":169:340  function x() public returns (uint) {\r... */\n          swap1\n          jump\t// out\n            /* \"\\xe5\\x8f\\x98\\xe9\\x87\\x8f\\xe4\\xbd\\x9c\\xe7\\x94\\xa8\\xe5\\x9f\\x9f/solidityTest.sol\":78:99  uint public data = 30 */\n        tag_10:\n          sload(0x00)\n          dup2\n          jump\t// out\n            /* \"#utility.yul\":7:125   */\n        tag_14:\n            /* \"#utility.yul\":94:118   */\n          tag_16\n            /* \"#utility.yul\":112:117   */\n          dup2\n            /* \"#utility.yul\":94:118   */\n          tag_17\n          jump\t// in\n        tag_16:\n            /* \"#utility.yul\":89:92   */\n          dup3\n            /* \"#utility.yul\":82:119   */\n          mstore\n            /* \"#utility.yul\":7:125   */\n          pop\n          pop\n          jump\t// out\n            /* \"#utility.yul\":131:353   */\n        tag_8:\n            /* \"#utility.yul\":224:228   */\n          0x00\n            /* \"#utility.yul\":262:264   */\n          0x20\n            /* \"#utility.yul\":251:260   */\n          dup3\n            /* \"#utility.yul\":247:265   */\n          add\n            /* \"#utility.yul\":239:265   */\n          swap1\n          pop\n            /* \"#utility.yul\":275:346   */\n          tag_19\n            /* \"#utility.yul\":343:344   */\n          0x00\n            /* \"#utility.yul\":332:341   */\n          dup4\n            /* \"#utility.yul\":328:345   */\n          add\n            /* \"#utility.yul\":319:325   */\n          dup5\n            /* \"#utility.yul\":275:346   */\n          tag_14\n          jump\t// in\n        tag_19:\n            /* \"#utility.yul\":131:353   */\n          swap3\n          swap2\n          pop\n          pop\n          jump\t// out\n            /* \"#utility.yul\":359:436   */\n        tag_17:\n            /* \"#utility.yul\":396:403   */\n          0x00\n            /* \"#utility.yul\":425:430   */\n          dup2\n            /* \"#utility.yul\":414:430   */\n          swap1\n          pop\n            /* \"#utility.yul\":359:436   */\n          swap2\n          swap1\n          pop\n          jump\t// out\n\n        auxdata: 0xa2646970667358221220a2568504fbe3f537c509840c638c8cd51cd60af812a50a0a5ee2c93bbf95dc3764736f6c63430008070033\n    }\n}\n",
				"bytecode": {
					"linkReferences": {},
					"object": "60806040526040516100109061007e565b604051809103906000f08015801561002c573d6000803e3d6000fd5b506000806101000a81548173ffffffffffffffffffffffffffffffffffffffff021916908373ffffffffffffffffffffffffffffffffffffffff16021790555034801561007857600080fd5b5061008b565b6101278061025683390190565b6101bc8061009a6000396000f3fe608060405234801561001057600080fd5b506004361061002b5760003560e01c806326121ff014610030575b600080fd5b61003861004e565b6040516100459190610145565b60405180910390f35b60008060009054906101000a900473ffffffffffffffffffffffffffffffffffffffff1673ffffffffffffffffffffffffffffffffffffffff166373d4a13a6040518163ffffffff1660e01b815260040160206040518083038186803b1580156100b757600080fd5b505afa1580156100cb573d6000803e3d6000fd5b505050506040513d601f19601f820116820180604052508101906100ef9190610109565b905090565b6000815190506101038161016f565b92915050565b60006020828403121561011f5761011e61016a565b5b600061012d848285016100f4565b91505092915050565b61013f81610160565b82525050565b600060208201905061015a6000830184610136565b92915050565b6000819050919050565b600080fd5b61017881610160565b811461018357600080fd5b5056fea26469706673582212208d1e497a1ab51cc94695ab14cb836f8061af3134d8d294193b15ee0ea4f5e1f064736f6c634300080700336080604052601e6000556014600155600a60025534801561001f57600080fd5b5060f98061002e6000396000f3fe6080604052348015600f57600080fd5b506004361060325760003560e01c80630c55699c14603757806373d4a13a146051575b600080fd5b603d606b565b6040516048919060a0565b60405180910390f35b6057608d565b6040516062919060a0565b60405180910390f35b6000600360008190555060026001819055506001600281905550600054905090565b60005481565b609a8160b9565b82525050565b600060208201905060b360008301846093565b92915050565b600081905091905056fea2646970667358221220a2568504fbe3f537c509840c638c8cd51cd60af812a50a0a5ee2c93bbf95dc3764736f6c63430008070033",
					"opcodes": "PUSH1 0x80 PUSH1 0x40 MSTORE PUSH1 0x40 MLOAD PUSH2 0x10 SWAP1 PUSH2 0x7E JUMP JUMPDEST PUSH1 0x40 MLOAD DUP1 SWAP2 SUB SWAP1 PUSH1 0x0 CREATE DUP1 ISZERO DUP1 ISZERO PUSH2 0x2C JUMPI RETURNDATASIZE PUSH1 0x0 DUP1 RETURNDATACOPY RETURNDATASIZE PUSH1 0x0 REVERT JUMPDEST POP PUSH1 0x0 DUP1 PUSH2 0x100 EXP DUP2 SLOAD DUP2 PUSH20 0xFFFFFFFFFFFFFFFFFFFFFFFFFFFFFFFFFFFFFFFF MUL NOT AND SWAP1 DUP4 PUSH20 0xFFFFFFFFFFFFFFFFFFFFFFFFFFFFFFFFFFFFFFFF AND MUL OR SWAP1 SSTORE POP CALLVALUE DUP1 ISZERO PUSH2 0x78 JUMPI PUSH1 0x0 DUP1 REVERT JUMPDEST POP PUSH2 0x8B JUMP JUMPDEST PUSH2 0x127 DUP1 PUSH2 0x256 DUP4 CODECOPY ADD SWAP1 JUMP JUMPDEST PUSH2 0x1BC DUP1 PUSH2 0x9A PUSH1 0x0 CODECOPY PUSH1 0x0 RETURN INVALID PUSH1 0x80 PUSH1 0x40 MSTORE CALLVALUE DUP1 ISZERO PUSH2 0x10 JUMPI PUSH1 0x0 DUP1 REVERT JUMPDEST POP PUSH1 0x4 CALLDATASIZE LT PUSH2 0x2B JUMPI PUSH1 0x0 CALLDATALOAD PUSH1 0xE0 SHR DUP1 PUSH4 0x26121FF0 EQ PUSH2 0x30 JUMPI JUMPDEST PUSH1 0x0 DUP1 REVERT JUMPDEST PUSH2 0x38 PUSH2 0x4E JUMP JUMPDEST PUSH1 0x40 MLOAD PUSH2 0x45 SWAP2 SWAP1 PUSH2 0x145 JUMP JUMPDEST PUSH1 0x40 MLOAD DUP1 SWAP2 SUB SWAP1 RETURN JUMPDEST PUSH1 0x0 DUP1 PUSH1 0x0 SWAP1 SLOAD SWAP1 PUSH2 0x100 EXP SWAP1 DIV PUSH20 0xFFFFFFFFFFFFFFFFFFFFFFFFFFFFFFFFFFFFFFFF AND PUSH20 0xFFFFFFFFFFFFFFFFFFFFFFFFFFFFFFFFFFFFFFFF AND PUSH4 0x73D4A13A PUSH1 0x40 MLOAD DUP2 PUSH4 0xFFFFFFFF AND PUSH1 0xE0 SHL DUP2 MSTORE PUSH1 0x4 ADD PUSH1 0x20 PUSH1 0x40 MLOAD DUP1 DUP4 SUB DUP2 DUP7 DUP1 EXTCODESIZE ISZERO DUP1 ISZERO PUSH2 0xB7 JUMPI PUSH1 0x0 DUP1 REVERT JUMPDEST POP GAS STATICCALL ISZERO DUP1 ISZERO PUSH2 0xCB JUMPI RETURNDATASIZE PUSH1 0x0 DUP1 RETURNDATACOPY RETURNDATASIZE PUSH1 0x0 REVERT JUMPDEST POP POP POP POP PUSH1 0x40 MLOAD RETURNDATASIZE PUSH1 0x1F NOT PUSH1 0x1F DUP3 ADD AND DUP3 ADD DUP1 PUSH1 0x40 MSTORE POP DUP2 ADD SWAP1 PUSH2 0xEF SWAP2 SWAP1 PUSH2 0x109 JUMP JUMPDEST SWAP1 POP SWAP1 JUMP JUMPDEST PUSH1 0x0 DUP2 MLOAD SWAP1 POP PUSH2 0x103 DUP2 PUSH2 0x16F JUMP JUMPDEST SWAP3 SWAP2 POP POP JUMP JUMPDEST PUSH1 0x0 PUSH1 0x20 DUP3 DUP5 SUB SLT ISZERO PUSH2 0x11F JUMPI PUSH2 0x11E PUSH2 0x16A JUMP JUMPDEST JUMPDEST PUSH1 0x0 PUSH2 0x12D DUP5 DUP3 DUP6 ADD PUSH2 0xF4 JUMP JUMPDEST SWAP2 POP POP SWAP3 SWAP2 POP POP JUMP JUMPDEST PUSH2 0x13F DUP2 PUSH2 0x160 JUMP JUMPDEST DUP3 MSTORE POP POP JUMP JUMPDEST PUSH1 0x0 PUSH1 0x20 DUP3 ADD SWAP1 POP PUSH2 0x15A PUSH1 0x0 DUP4 ADD DUP5 PUSH2 0x136 JUMP JUMPDEST SWAP3 SWAP2 POP POP JUMP JUMPDEST PUSH1 0x0 DUP2 SWAP1 POP SWAP2 SWAP1 POP JUMP JUMPDEST PUSH1 0x0 DUP1 REVERT JUMPDEST PUSH2 0x178 DUP2 PUSH2 0x160 JUMP JUMPDEST DUP2 EQ PUSH2 0x183 JUMPI PUSH1 0x0 DUP1 REVERT JUMPDEST POP JUMP INVALID LOG2 PUSH5 0x6970667358 0x22 SLT KECCAK256 DUP14 0x1E 0x49 PUSH27 0x1AB51CC94695AB14CB836F8061AF3134D8D294193B15EE0EA4F5E1 CREATE PUSH5 0x736F6C6343 STOP ADDMOD SMOD STOP CALLER PUSH1 0x80 PUSH1 0x40 MSTORE PUSH1 0x1E PUSH1 0x0 SSTORE PUSH1 0x14 PUSH1 0x1 SSTORE PUSH1 0xA PUSH1 0x2 SSTORE CALLVALUE DUP1 ISZERO PUSH2 0x1F JUMPI PUSH1 0x0 DUP1 REVERT JUMPDEST POP PUSH1 0xF9 DUP1 PUSH2 0x2E PUSH1 0x0 CODECOPY PUSH1 0x0 RETURN INVALID PUSH1 0x80 PUSH1 0x40 MSTORE CALLVALUE DUP1 ISZERO PUSH1 0xF JUMPI PUSH1 0x0 DUP1 REVERT JUMPDEST POP PUSH1 0x4 CALLDATASIZE LT PUSH1 0x32 JUMPI PUSH1 0x0 CALLDATALOAD PUSH1 0xE0 SHR DUP1 PUSH4 0xC55699C EQ PUSH1 0x37 JUMPI DUP1 PUSH4 0x73D4A13A EQ PUSH1 0x51 JUMPI JUMPDEST PUSH1 0x0 DUP1 REVERT JUMPDEST PUSH1 0x3D PUSH1 0x6B JUMP JUMPDEST PUSH1 0x40 MLOAD PUSH1 0x48 SWAP2 SWAP1 PUSH1 0xA0 JUMP JUMPDEST PUSH1 0x40 MLOAD DUP1 SWAP2 SUB SWAP1 RETURN JUMPDEST PUSH1 0x57 PUSH1 0x8D JUMP JUMPDEST PUSH1 0x40 MLOAD PUSH1 0x62 SWAP2 SWAP1 PUSH1 0xA0 JUMP JUMPDEST PUSH1 0x40 MLOAD DUP1 SWAP2 SUB SWAP1 RETURN JUMPDEST PUSH1 0x0 PUSH1 0x3 PUSH1 0x0 DUP2 SWAP1 SSTORE POP PUSH1 0x2 PUSH1 0x1 DUP2 SWAP1 SSTORE POP PUSH1 0x1 PUSH1 0x2 DUP2 SWAP1 SSTORE POP PUSH1 0x0 SLOAD SWAP1 POP SWAP1 JUMP JUMPDEST PUSH1 0x0 SLOAD DUP2 JUMP JUMPDEST PUSH1 0x9A DUP2 PUSH1 0xB9 JUMP JUMPDEST DUP3 MSTORE POP POP JUMP JUMPDEST PUSH1 0x0 PUSH1 0x20 DUP3 ADD SWAP1 POP PUSH1 0xB3 PUSH1 0x0 DUP4 ADD DUP5 PUSH1 0x93 JUMP JUMPDEST SWAP3 SWAP2 POP POP JUMP JUMPDEST PUSH1 0x0 DUP2 SWAP1 POP SWAP2 SWAP1 POP JUMP INVALID LOG2 PUSH5 0x6970667358 0x22 SLT KECCAK256 LOG2 JUMP DUP6 DIV 0xFB 0xE3 CREATE2 CALLDATACOPY 0xC5 MULMOD DUP5 0xC PUSH4 0x8C8CD51C 0xD6 EXP 0xF8 SLT 0xA5 EXP EXP 0x5E 0xE2 0xC9 EXTCODESIZE 0xBF SWAP6 0xDC CALLDATACOPY PUSH5 0x736F6C6343 STOP ADDMOD SMOD STOP CALLER "
				},
				"gasEstimates": {
					"creation": {
						"codeDepositCost": "88800",
						"executionCost": "infinite",
						"totalCost": "infinite"
					},
					"external": {
						"f()": "infinite"
					}
				},
				"methodIdentifiers": {
					"f()": "26121ff0"
				}
			},
			"storageLayout": {
				"storage": [
					{
						"astId": 38,
						"contract": "变量作用域/solidityTest.sol:Caller",
						"label": "c",
						"offset": 0,
						"slot": "0",
						"type": "t_contract(C)31"
					}
				],
				"types": {
					"t_contract(C)31": {
						"encoding": "inplace",
						"label": "contract C",
						"numberOfBytes": "20"
					}
				}
			},
			"userdoc": {
				"kind": "user",
				"methods": {},
				"version": 1
			}
		}
	}
}