{
	"逻辑运算符/solidityTest.sol": {
		"LogicalOperations": {
			"abi": [
				{
					"inputs": [],
					"stateMutability": "nonpayable",
					"type": "constructor"
				},
				{
					"inputs": [],
					"name": "andOperation",
					"outputs": [
						{
							"internalType": "bool",
							"name": "",
							"type": "bool"
						}
					],
					"stateMutability": "view",
					"type": "function"
				},
				{
					"inputs": [],
					"name": "notOperation",
					"outputs": [
						{
							"internalType": "bool",
							"name": "",
							"type": "bool"
						}
					],
					"stateMutability": "view",
					"type": "function"
				},
				{
					"inputs": [],
					"name": "orOperation",
					"outputs": [
						{
							"internalType": "bool",
							"name": "",
							"type": "bool"
						}
					],
					"stateMutability": "view",
					"type": "function"
				}
			],
			"devdoc": {
				"kind": "dev",
				"methods": {},
				"version": 1
			},
			"evm": {
				"assembly": "    /* \"\\xe9\\x80\\xbb\\xe8\\xbe\\x91\\xe8\\xbf\\x90\\xe7\\xae\\x97\\xe7\\xac\\xa6/solidityTest.sol\":60:477  contract LogicalOperations {\r... */\n  mstore(0x40, 0x80)\n    /* \"\\xe9\\x80\\xbb\\xe8\\xbe\\x91\\xe8\\xbf\\x90\\xe7\\xae\\x97\\xe7\\xac\\xa6/solidityTest.sol\":138:206  constructor() public {\r... */\n  callvalue\n  dup1\n  iszero\n  tag_1\n  jumpi\n  0x00\n  dup1\n  revert\ntag_1:\n  pop\n    /* \"\\xe9\\x80\\xbb\\xe8\\xbe\\x91\\xe8\\xbf\\x90\\xe7\\xae\\x97\\xe7\\xac\\xa6/solidityTest.sol\":174:178  true */\n  0x01\n    /* \"\\xe9\\x80\\xbb\\xe8\\xbe\\x91\\xe8\\xbf\\x90\\xe7\\xae\\x97\\xe7\\xac\\xa6/solidityTest.sol\":170:171  a */\n  0x00\n  dup1\n    /* \"\\xe9\\x80\\xbb\\xe8\\xbe\\x91\\xe8\\xbf\\x90\\xe7\\xae\\x97\\xe7\\xac\\xa6/solidityTest.sol\":170:178  a = true */\n  0x0100\n  exp\n  dup2\n  sload\n  dup2\n  0xff\n  mul\n  not\n  and\n  swap1\n  dup4\n  iszero\n  iszero\n  mul\n  or\n  swap1\n  sstore\n  pop\n    /* \"\\xe9\\x80\\xbb\\xe8\\xbe\\x91\\xe8\\xbf\\x90\\xe7\\xae\\x97\\xe7\\xac\\xa6/solidityTest.sol\":193:198  false */\n  0x00\n    /* \"\\xe9\\x80\\xbb\\xe8\\xbe\\x91\\xe8\\xbf\\x90\\xe7\\xae\\x97\\xe7\\xac\\xa6/solidityTest.sol\":189:190  b */\n  dup1\n  0x01\n    /* \"\\xe9\\x80\\xbb\\xe8\\xbe\\x91\\xe8\\xbf\\x90\\xe7\\xae\\x97\\xe7\\xac\\xa6/solidityTest.sol\":189:198  b = false */\n  0x0100\n  exp\n  dup2\n  sload\n  dup2\n  0xff\n  mul\n  not\n  and\n  swap1\n  dup4\n  iszero\n  iszero\n  mul\n  or\n  swap1\n  sstore\n  pop\n    /* \"\\xe9\\x80\\xbb\\xe8\\xbe\\x91\\xe8\\xbf\\x90\\xe7\\xae\\x97\\xe7\\xac\\xa6/solidityTest.sol\":60:477  contract LogicalOperations {\r... */\n  dataSize(sub_0)\n  dup1\n  dataOffset(sub_0)\n  0x00\n  codecopy\n  0x00\n  return\nstop\n\nsub_0: assembly {\n        /* \"\\xe9\\x80\\xbb\\xe8\\xbe\\x91\\xe8\\xbf\\x90\\xe7\\xae\\x97\\xe7\\xac\\xa6/solidityTest.sol\":60:477  contract LogicalOperations {\r... */\n      mstore(0x40, 0x80)\n      callvalue\n      dup1\n      iszero\n      tag_1\n      jumpi\n      0x00\n      dup1\n      revert\n    tag_1:\n      pop\n      jumpi(tag_2, lt(calldatasize, 0x04))\n      shr(0xe0, calldataload(0x00))\n      dup1\n      0x0e94c8d6\n      eq\n      tag_3\n      jumpi\n      dup1\n      0x420c1e6c\n      eq\n      tag_4\n      jumpi\n      dup1\n      0x541e34f3\n      eq\n      tag_5\n      jumpi\n    tag_2:\n      0x00\n      dup1\n      revert\n        /* \"\\xe9\\x80\\xbb\\xe8\\xbe\\x91\\xe8\\xbf\\x90\\xe7\\xae\\x97\\xe7\\xac\\xa6/solidityTest.sol\":214:297  function andOperation() public view returns (bool) {\r... */\n    tag_3:\n      tag_6\n      tag_7\n      jump\t// in\n    tag_6:\n      mload(0x40)\n      tag_8\n      swap2\n      swap1\n      tag_9\n      jump\t// in\n    tag_8:\n      mload(0x40)\n      dup1\n      swap2\n      sub\n      swap1\n      return\n        /* \"\\xe9\\x80\\xbb\\xe8\\xbe\\x91\\xe8\\xbf\\x90\\xe7\\xae\\x97\\xe7\\xac\\xa6/solidityTest.sol\":395:474  function notOperation() public view returns (bool) {\r... */\n    tag_4:\n      tag_10\n      tag_11\n      jump\t// in\n    tag_10:\n      mload(0x40)\n      tag_12\n      swap2\n      swap1\n      tag_9\n      jump\t// in\n    tag_12:\n      mload(0x40)\n      dup1\n      swap2\n      sub\n      swap1\n      return\n        /* \"\\xe9\\x80\\xbb\\xe8\\xbe\\x91\\xe8\\xbf\\x90\\xe7\\xae\\x97\\xe7\\xac\\xa6/solidityTest.sol\":305:387  function orOperation() public view returns (bool) {\r... */\n    tag_5:\n      tag_13\n      tag_14\n      jump\t// in\n    tag_13:\n      mload(0x40)\n      tag_15\n      swap2\n      swap1\n      tag_9\n      jump\t// in\n    tag_15:\n      mload(0x40)\n      dup1\n      swap2\n      sub\n      swap1\n      return\n        /* \"\\xe9\\x80\\xbb\\xe8\\xbe\\x91\\xe8\\xbf\\x90\\xe7\\xae\\x97\\xe7\\xac\\xa6/solidityTest.sol\":214:297  function andOperation() public view returns (bool) {\r... */\n    tag_7:\n        /* \"\\xe9\\x80\\xbb\\xe8\\xbe\\x91\\xe8\\xbf\\x90\\xe7\\xae\\x97\\xe7\\xac\\xa6/solidityTest.sol\":259:263  bool */\n      0x00\n        /* \"\\xe9\\x80\\xbb\\xe8\\xbe\\x91\\xe8\\xbf\\x90\\xe7\\xae\\x97\\xe7\\xac\\xa6/solidityTest.sol\":283:284  a */\n      dup1\n      0x00\n      swap1\n      sload\n      swap1\n      0x0100\n      exp\n      swap1\n      div\n      0xff\n      and\n        /* \"\\xe9\\x80\\xbb\\xe8\\xbe\\x91\\xe8\\xbf\\x90\\xe7\\xae\\x97\\xe7\\xac\\xa6/solidityTest.sol\":283:289  a && b */\n      dup1\n      iszero\n      tag_17\n      jumpi\n      pop\n        /* \"\\xe9\\x80\\xbb\\xe8\\xbe\\x91\\xe8\\xbf\\x90\\xe7\\xae\\x97\\xe7\\xac\\xa6/solidityTest.sol\":288:289  b */\n      0x00\n      0x01\n      swap1\n      sload\n      swap1\n      0x0100\n      exp\n      swap1\n      div\n      0xff\n      and\n        /* \"\\xe9\\x80\\xbb\\xe8\\xbe\\x91\\xe8\\xbf\\x90\\xe7\\xae\\x97\\xe7\\xac\\xa6/solidityTest.sol\":283:289  a && b */\n    tag_17:\n        /* \"\\xe9\\x80\\xbb\\xe8\\xbe\\x91\\xe8\\xbf\\x90\\xe7\\xae\\x97\\xe7\\xac\\xa6/solidityTest.sol\":276:289  return a && b */\n      swap1\n      pop\n        /* \"\\xe9\\x80\\xbb\\xe8\\xbe\\x91\\xe8\\xbf\\x90\\xe7\\xae\\x97\\xe7\\xac\\xa6/solidityTest.sol\":214:297  function andOperation() public view returns (bool) {\r... */\n      swap1\n      jump\t// out\n        /* \"\\xe9\\x80\\xbb\\xe8\\xbe\\x91\\xe8\\xbf\\x90\\xe7\\xae\\x97\\xe7\\xac\\xa6/solidityTest.sol\":395:474  function notOperation() public view returns (bool) {\r... */\n    tag_11:\n        /* \"\\xe9\\x80\\xbb\\xe8\\xbe\\x91\\xe8\\xbf\\x90\\xe7\\xae\\x97\\xe7\\xac\\xa6/solidityTest.sol\":440:444  bool */\n      0x00\n        /* \"\\xe9\\x80\\xbb\\xe8\\xbe\\x91\\xe8\\xbf\\x90\\xe7\\xae\\x97\\xe7\\xac\\xa6/solidityTest.sol\":465:466  a */\n      dup1\n      0x00\n      swap1\n      sload\n      swap1\n      0x0100\n      exp\n      swap1\n      div\n      0xff\n      and\n        /* \"\\xe9\\x80\\xbb\\xe8\\xbe\\x91\\xe8\\xbf\\x90\\xe7\\xae\\x97\\xe7\\xac\\xa6/solidityTest.sol\":464:466  !a */\n      iszero\n        /* \"\\xe9\\x80\\xbb\\xe8\\xbe\\x91\\xe8\\xbf\\x90\\xe7\\xae\\x97\\xe7\\xac\\xa6/solidityTest.sol\":457:466  return !a */\n      swap1\n      pop\n        /* \"\\xe9\\x80\\xbb\\xe8\\xbe\\x91\\xe8\\xbf\\x90\\xe7\\xae\\x97\\xe7\\xac\\xa6/solidityTest.sol\":395:474  function notOperation() public view returns (bool) {\r... */\n      swap1\n      jump\t// out\n        /* \"\\xe9\\x80\\xbb\\xe8\\xbe\\x91\\xe8\\xbf\\x90\\xe7\\xae\\x97\\xe7\\xac\\xa6/solidityTest.sol\":305:387  function orOperation() public view returns (bool) {\r... */\n    tag_14:\n        /* \"\\xe9\\x80\\xbb\\xe8\\xbe\\x91\\xe8\\xbf\\x90\\xe7\\xae\\x97\\xe7\\xac\\xa6/solidityTest.sol\":349:353  bool */\n      0x00\n        /* \"\\xe9\\x80\\xbb\\xe8\\xbe\\x91\\xe8\\xbf\\x90\\xe7\\xae\\x97\\xe7\\xac\\xa6/solidityTest.sol\":373:374  a */\n      dup1\n      0x00\n      swap1\n      sload\n      swap1\n      0x0100\n      exp\n      swap1\n      div\n      0xff\n      and\n        /* \"\\xe9\\x80\\xbb\\xe8\\xbe\\x91\\xe8\\xbf\\x90\\xe7\\xae\\x97\\xe7\\xac\\xa6/solidityTest.sol\":373:379  a || b */\n      dup1\n      tag_20\n      jumpi\n      pop\n        /* \"\\xe9\\x80\\xbb\\xe8\\xbe\\x91\\xe8\\xbf\\x90\\xe7\\xae\\x97\\xe7\\xac\\xa6/solidityTest.sol\":378:379  b */\n      0x00\n      0x01\n      swap1\n      sload\n      swap1\n      0x0100\n      exp\n      swap1\n      div\n      0xff\n      and\n        /* \"\\xe9\\x80\\xbb\\xe8\\xbe\\x91\\xe8\\xbf\\x90\\xe7\\xae\\x97\\xe7\\xac\\xa6/solidityTest.sol\":373:379  a || b */\n    tag_20:\n        /* \"\\xe9\\x80\\xbb\\xe8\\xbe\\x91\\xe8\\xbf\\x90\\xe7\\xae\\x97\\xe7\\xac\\xa6/solidityTest.sol\":366:379  return a || b */\n      swap1\n      pop\n        /* \"\\xe9\\x80\\xbb\\xe8\\xbe\\x91\\xe8\\xbf\\x90\\xe7\\xae\\x97\\xe7\\xac\\xa6/solidityTest.sol\":305:387  function orOperation() public view returns (bool) {\r... */\n      swap1\n      jump\t// out\n        /* \"#utility.yul\":7:116   */\n    tag_22:\n        /* \"#utility.yul\":88:109   */\n      tag_24\n        /* \"#utility.yul\":103:108   */\n      dup2\n        /* \"#utility.yul\":88:109   */\n      tag_25\n      jump\t// in\n    tag_24:\n        /* \"#utility.yul\":83:86   */\n      dup3\n        /* \"#utility.yul\":76:110   */\n      mstore\n        /* \"#utility.yul\":7:116   */\n      pop\n      pop\n      jump\t// out\n        /* \"#utility.yul\":122:332   */\n    tag_9:\n        /* \"#utility.yul\":209:213   */\n      0x00\n        /* \"#utility.yul\":247:249   */\n      0x20\n        /* \"#utility.yul\":236:245   */\n      dup3\n        /* \"#utility.yul\":232:250   */\n      add\n        /* \"#utility.yul\":224:250   */\n      swap1\n      pop\n        /* \"#utility.yul\":260:325   */\n      tag_27\n        /* \"#utility.yul\":322:323   */\n      0x00\n        /* \"#utility.yul\":311:320   */\n      dup4\n        /* \"#utility.yul\":307:324   */\n      add\n        /* \"#utility.yul\":298:304   */\n      dup5\n        /* \"#utility.yul\":260:325   */\n      tag_22\n      jump\t// in\n    tag_27:\n        /* \"#utility.yul\":122:332   */\n      swap3\n      swap2\n      pop\n      pop\n      jump\t// out\n        /* \"#utility.yul\":338:428   */\n    tag_25:\n        /* \"#utility.yul\":372:379   */\n      0x00\n        /* \"#utility.yul\":415:420   */\n      dup2\n        /* \"#utility.yul\":408:421   */\n      iszero\n        /* \"#utility.yul\":401:422   */\n      iszero\n        /* \"#utility.yul\":390:422   */\n      swap1\n      pop\n        /* \"#utility.yul\":338:428   */\n      swap2\n      swap1\n      pop\n      jump\t// out\n\n    auxdata: 0xa2646970667358221220bcb7a10834e7b3edbff117a1842cb81620bc914f9d3bb5c69d8555ae6aee0d3f64736f6c63430008070033\n}\n",
				"bytecode": {
					"linkReferences": {},
					"object": "608060405234801561001057600080fd5b5060016000806101000a81548160ff02191690831515021790555060008060016101000a81548160ff02191690831515021790555061017e806100546000396000f3fe608060405234801561001057600080fd5b50600436106100415760003560e01c80630e94c8d614610046578063420c1e6c14610064578063541e34f314610082575b600080fd5b61004e6100a0565b60405161005b9190610121565b60405180910390f35b61006c6100ce565b6040516100799190610121565b60405180910390f35b61008a6100e5565b6040516100979190610121565b60405180910390f35b60008060009054906101000a900460ff1680156100c95750600060019054906101000a900460ff165b905090565b60008060009054906101000a900460ff1615905090565b60008060009054906101000a900460ff168061010d5750600060019054906101000a900460ff165b905090565b61011b8161013c565b82525050565b60006020820190506101366000830184610112565b92915050565b6000811515905091905056fea2646970667358221220bcb7a10834e7b3edbff117a1842cb81620bc914f9d3bb5c69d8555ae6aee0d3f64736f6c63430008070033",
					"opcodes": "PUSH1 0x80 PUSH1 0x40 MSTORE CALLVALUE DUP1 ISZERO PUSH2 0x10 JUMPI PUSH1 0x0 DUP1 REVERT JUMPDEST POP PUSH1 0x1 PUSH1 0x0 DUP1 PUSH2 0x100 EXP DUP2 SLOAD DUP2 PUSH1 0xFF MUL NOT AND SWAP1 DUP4 ISZERO ISZERO MUL OR SWAP1 SSTORE POP PUSH1 0x0 DUP1 PUSH1 0x1 PUSH2 0x100 EXP DUP2 SLOAD DUP2 PUSH1 0xFF MUL NOT AND SWAP1 DUP4 ISZERO ISZERO MUL OR SWAP1 SSTORE POP PUSH2 0x17E DUP1 PUSH2 0x54 PUSH1 0x0 CODECOPY PUSH1 0x0 RETURN INVALID PUSH1 0x80 PUSH1 0x40 MSTORE CALLVALUE DUP1 ISZERO PUSH2 0x10 JUMPI PUSH1 0x0 DUP1 REVERT JUMPDEST POP PUSH1 0x4 CALLDATASIZE LT PUSH2 0x41 JUMPI PUSH1 0x0 CALLDATALOAD PUSH1 0xE0 SHR DUP1 PUSH4 0xE94C8D6 EQ PUSH2 0x46 JUMPI DUP1 PUSH4 0x420C1E6C EQ PUSH2 0x64 JUMPI DUP1 PUSH4 0x541E34F3 EQ PUSH2 0x82 JUMPI JUMPDEST PUSH1 0x0 DUP1 REVERT JUMPDEST PUSH2 0x4E PUSH2 0xA0 JUMP JUMPDEST PUSH1 0x40 MLOAD PUSH2 0x5B SWAP2 SWAP1 PUSH2 0x121 JUMP JUMPDEST PUSH1 0x40 MLOAD DUP1 SWAP2 SUB SWAP1 RETURN JUMPDEST PUSH2 0x6C PUSH2 0xCE JUMP JUMPDEST PUSH1 0x40 MLOAD PUSH2 0x79 SWAP2 SWAP1 PUSH2 0x121 JUMP JUMPDEST PUSH1 0x40 MLOAD DUP1 SWAP2 SUB SWAP1 RETURN JUMPDEST PUSH2 0x8A PUSH2 0xE5 JUMP JUMPDEST PUSH1 0x40 MLOAD PUSH2 0x97 SWAP2 SWAP1 PUSH2 0x121 JUMP JUMPDEST PUSH1 0x40 MLOAD DUP1 SWAP2 SUB SWAP1 RETURN JUMPDEST PUSH1 0x0 DUP1 PUSH1 0x0 SWAP1 SLOAD SWAP1 PUSH2 0x100 EXP SWAP1 DIV PUSH1 0xFF AND DUP1 ISZERO PUSH2 0xC9 JUMPI POP PUSH1 0x0 PUSH1 0x1 SWAP1 SLOAD SWAP1 PUSH2 0x100 EXP SWAP1 DIV PUSH1 0xFF AND JUMPDEST SWAP1 POP SWAP1 JUMP JUMPDEST PUSH1 0x0 DUP1 PUSH1 0x0 SWAP1 SLOAD SWAP1 PUSH2 0x100 EXP SWAP1 DIV PUSH1 0xFF AND ISZERO SWAP1 POP SWAP1 JUMP JUMPDEST PUSH1 0x0 DUP1 PUSH1 0x0 SWAP1 SLOAD SWAP1 PUSH2 0x100 EXP SWAP1 DIV PUSH1 0xFF AND DUP1 PUSH2 0x10D JUMPI POP PUSH1 0x0 PUSH1 0x1 SWAP1 SLOAD SWAP1 PUSH2 0x100 EXP SWAP1 DIV PUSH1 0xFF AND JUMPDEST SWAP1 POP SWAP1 JUMP JUMPDEST PUSH2 0x11B DUP2 PUSH2 0x13C JUMP JUMPDEST DUP3 MSTORE POP POP JUMP JUMPDEST PUSH1 0x0 PUSH1 0x20 DUP3 ADD SWAP1 POP PUSH2 0x136 PUSH1 0x0 DUP4 ADD DUP5 PUSH2 0x112 JUMP JUMPDEST SWAP3 SWAP2 POP POP JUMP JUMPDEST PUSH1 0x0 DUP2 ISZERO ISZERO SWAP1 POP SWAP2 SWAP1 POP JUMP INVALID LOG2 PUSH5 0x6970667358 0x22 SLT KECCAK256 0xBC 0xB7 LOG1 ADDMOD CALLVALUE 0xE7 0xB3 0xED 0xBF CALL OR LOG1 DUP5 0x2C 0xB8 AND KECCAK256 0xBC SWAP2 0x4F SWAP14 EXTCODESIZE 0xB5 0xC6 SWAP14 DUP6 SSTORE 0xAE PUSH11 0xEE0D3F64736F6C63430008 SMOD STOP CALLER "
				},
				"gasEstimates": {
					"creation": {
						"codeDepositCost": "76400",
						"executionCost": "48707",
						"totalCost": "125107"
					},
					"external": {
						"andOperation()": "4668",
						"notOperation()": "2482",
						"orOperation()": "4709"
					}
				},
				"methodIdentifiers": {
					"andOperation()": "0e94c8d6",
					"notOperation()": "420c1e6c",
					"orOperation()": "541e34f3"
				}
			},
			"storageLayout": {
				"storage": [
					{
						"astId": 3,
						"contract": "逻辑运算符/solidityTest.sol:LogicalOperations",
						"label": "a",
						"offset": 0,
						"slot": "0",
						"type": "t_bool"
					},
					{
						"astId": 5,
						"contract": "逻辑运算符/solidityTest.sol:LogicalOperations",
						"label": "b",
						"offset": 1,
						"slot": "0",
						"type": "t_bool"
					}
				],
				"types": {
					"t_bool": {
						"encoding": "inplace",
						"label": "bool",
						"numberOfBytes": "1"
					}
				}
			},
			"userdoc": {
				"kind": "user",
				"methods": {},
				"version": 1
			}
		}
	}
}