{
	"字符串/SolidityTest3.sol": {
		"SolidityTest": {
			"abi": [
				{
					"inputs": [],
					"stateMutability": "nonpayable",
					"type": "constructor"
				},
				{
					"inputs": [
						{
							"internalType": "string",
							"name": "s",
							"type": "string"
						}
					],
					"name": "getResult",
					"outputs": [
						{
							"internalType": "bytes",
							"name": "",
							"type": "bytes"
						}
					],
					"stateMutability": "pure",
					"type": "function"
				}
			],
			"devdoc": {
				"kind": "dev",
				"methods": {},
				"version": 1
			},
			"evm": {
				"assembly": "    /* \"\\xe5\\xad\\x97\\xe7\\xac\\xa6\\xe4\\xb8\\xb2/SolidityTest3.sol\":60:253  contract SolidityTest {\r... */\n  mstore(0x40, 0x80)\n    /* \"\\xe5\\xad\\x97\\xe7\\xac\\xa6\\xe4\\xb8\\xb2/SolidityTest3.sol\":89:110  constructor(){\r... */\n  callvalue\n  dup1\n  iszero\n  tag_1\n  jumpi\n  0x00\n  dup1\n  revert\ntag_1:\n  pop\n    /* \"\\xe5\\xad\\x97\\xe7\\xac\\xa6\\xe4\\xb8\\xb2/SolidityTest3.sol\":60:253  contract SolidityTest {\r... */\n  dataSize(sub_0)\n  dup1\n  dataOffset(sub_0)\n  0x00\n  codecopy\n  0x00\n  return\nstop\n\nsub_0: assembly {\n        /* \"\\xe5\\xad\\x97\\xe7\\xac\\xa6\\xe4\\xb8\\xb2/SolidityTest3.sol\":60:253  contract SolidityTest {\r... */\n      mstore(0x40, 0x80)\n      callvalue\n      dup1\n      iszero\n      tag_1\n      jumpi\n      0x00\n      dup1\n      revert\n    tag_1:\n      pop\n      jumpi(tag_2, lt(calldatasize, 0x04))\n      shr(0xe0, calldataload(0x00))\n      dup1\n      0x498cc70d\n      eq\n      tag_3\n      jumpi\n    tag_2:\n      0x00\n      dup1\n      revert\n        /* \"\\xe5\\xad\\x97\\xe7\\xac\\xa6\\xe4\\xb8\\xb2/SolidityTest3.sol\":118:250  function getResult(string memory s) public pure returns(bytes memory) {\r... */\n    tag_3:\n      tag_4\n      0x04\n      dup1\n      calldatasize\n      sub\n      dup2\n      add\n      swap1\n      tag_5\n      swap2\n      swap1\n      tag_6\n      jump\t// in\n    tag_5:\n      tag_7\n      jump\t// in\n    tag_4:\n      mload(0x40)\n      tag_8\n      swap2\n      swap1\n      tag_9\n      jump\t// in\n    tag_8:\n      mload(0x40)\n      dup1\n      swap2\n      sub\n      swap1\n      return\n    tag_7:\n        /* \"\\xe5\\xad\\x97\\xe7\\xac\\xa6\\xe4\\xb8\\xb2/SolidityTest3.sol\":174:186  bytes memory */\n      0x60\n        /* \"\\xe5\\xad\\x97\\xe7\\xac\\xa6\\xe4\\xb8\\xb2/SolidityTest3.sol\":212:213  s */\n      dup2\n        /* \"\\xe5\\xad\\x97\\xe7\\xac\\xa6\\xe4\\xb8\\xb2/SolidityTest3.sol\":199:214  return bytes(s) */\n      swap1\n      pop\n        /* \"\\xe5\\xad\\x97\\xe7\\xac\\xa6\\xe4\\xb8\\xb2/SolidityTest3.sol\":118:250  function getResult(string memory s) public pure returns(bytes memory) {\r... */\n      swap2\n      swap1\n      pop\n      jump\t// out\n        /* \"#utility.yul\":7:419   */\n    tag_12:\n        /* \"#utility.yul\":85:90   */\n      0x00\n        /* \"#utility.yul\":110:176   */\n      tag_14\n        /* \"#utility.yul\":126:175   */\n      tag_15\n        /* \"#utility.yul\":168:174   */\n      dup5\n        /* \"#utility.yul\":126:175   */\n      tag_16\n      jump\t// in\n    tag_15:\n        /* \"#utility.yul\":110:176   */\n      tag_17\n      jump\t// in\n    tag_14:\n        /* \"#utility.yul\":101:176   */\n      swap1\n      pop\n        /* \"#utility.yul\":199:205   */\n      dup3\n        /* \"#utility.yul\":192:197   */\n      dup2\n        /* \"#utility.yul\":185:206   */\n      mstore\n        /* \"#utility.yul\":237:241   */\n      0x20\n        /* \"#utility.yul\":230:235   */\n      dup2\n        /* \"#utility.yul\":226:242   */\n      add\n        /* \"#utility.yul\":275:278   */\n      dup5\n        /* \"#utility.yul\":266:272   */\n      dup5\n        /* \"#utility.yul\":261:264   */\n      dup5\n        /* \"#utility.yul\":257:273   */\n      add\n        /* \"#utility.yul\":254:279   */\n      gt\n        /* \"#utility.yul\":251:363   */\n      iszero\n      tag_18\n      jumpi\n        /* \"#utility.yul\":282:361   */\n      tag_19\n      tag_20\n      jump\t// in\n    tag_19:\n        /* \"#utility.yul\":251:363   */\n    tag_18:\n        /* \"#utility.yul\":372:413   */\n      tag_21\n        /* \"#utility.yul\":406:412   */\n      dup5\n        /* \"#utility.yul\":401:404   */\n      dup3\n        /* \"#utility.yul\":396:399   */\n      dup6\n        /* \"#utility.yul\":372:413   */\n      tag_22\n      jump\t// in\n    tag_21:\n        /* \"#utility.yul\":91:419   */\n      pop\n        /* \"#utility.yul\":7:419   */\n      swap4\n      swap3\n      pop\n      pop\n      pop\n      jump\t// out\n        /* \"#utility.yul\":439:779   */\n    tag_23:\n        /* \"#utility.yul\":495:500   */\n      0x00\n        /* \"#utility.yul\":544:547   */\n      dup3\n        /* \"#utility.yul\":537:541   */\n      0x1f\n        /* \"#utility.yul\":529:535   */\n      dup4\n        /* \"#utility.yul\":525:542   */\n      add\n        /* \"#utility.yul\":521:548   */\n      slt\n        /* \"#utility.yul\":511:633   */\n      tag_25\n      jumpi\n        /* \"#utility.yul\":552:631   */\n      tag_26\n      tag_27\n      jump\t// in\n    tag_26:\n        /* \"#utility.yul\":511:633   */\n    tag_25:\n        /* \"#utility.yul\":669:675   */\n      dup2\n        /* \"#utility.yul\":656:676   */\n      calldataload\n        /* \"#utility.yul\":694:773   */\n      tag_28\n        /* \"#utility.yul\":769:772   */\n      dup5\n        /* \"#utility.yul\":761:767   */\n      dup3\n        /* \"#utility.yul\":754:758   */\n      0x20\n        /* \"#utility.yul\":746:752   */\n      dup7\n        /* \"#utility.yul\":742:759   */\n      add\n        /* \"#utility.yul\":694:773   */\n      tag_12\n      jump\t// in\n    tag_28:\n        /* \"#utility.yul\":685:773   */\n      swap2\n      pop\n        /* \"#utility.yul\":501:779   */\n      pop\n        /* \"#utility.yul\":439:779   */\n      swap3\n      swap2\n      pop\n      pop\n      jump\t// out\n        /* \"#utility.yul\":785:1294   */\n    tag_6:\n        /* \"#utility.yul\":854:860   */\n      0x00\n        /* \"#utility.yul\":903:905   */\n      0x20\n        /* \"#utility.yul\":891:900   */\n      dup3\n        /* \"#utility.yul\":882:889   */\n      dup5\n        /* \"#utility.yul\":878:901   */\n      sub\n        /* \"#utility.yul\":874:906   */\n      slt\n        /* \"#utility.yul\":871:990   */\n      iszero\n      tag_30\n      jumpi\n        /* \"#utility.yul\":909:988   */\n      tag_31\n      tag_32\n      jump\t// in\n    tag_31:\n        /* \"#utility.yul\":871:990   */\n    tag_30:\n        /* \"#utility.yul\":1057:1058   */\n      0x00\n        /* \"#utility.yul\":1046:1055   */\n      dup3\n        /* \"#utility.yul\":1042:1059   */\n      add\n        /* \"#utility.yul\":1029:1060   */\n      calldataload\n        /* \"#utility.yul\":1087:1105   */\n      0xffffffffffffffff\n        /* \"#utility.yul\":1079:1085   */\n      dup2\n        /* \"#utility.yul\":1076:1106   */\n      gt\n        /* \"#utility.yul\":1073:1190   */\n      iszero\n      tag_33\n      jumpi\n        /* \"#utility.yul\":1109:1188   */\n      tag_34\n      tag_35\n      jump\t// in\n    tag_34:\n        /* \"#utility.yul\":1073:1190   */\n    tag_33:\n        /* \"#utility.yul\":1214:1277   */\n      tag_36\n        /* \"#utility.yul\":1269:1276   */\n      dup5\n        /* \"#utility.yul\":1260:1266   */\n      dup3\n        /* \"#utility.yul\":1249:1258   */\n      dup6\n        /* \"#utility.yul\":1245:1267   */\n      add\n        /* \"#utility.yul\":1214:1277   */\n      tag_23\n      jump\t// in\n    tag_36:\n        /* \"#utility.yul\":1204:1277   */\n      swap2\n      pop\n        /* \"#utility.yul\":1000:1287   */\n      pop\n        /* \"#utility.yul\":785:1294   */\n      swap3\n      swap2\n      pop\n      pop\n      jump\t// out\n        /* \"#utility.yul\":1300:1660   */\n    tag_37:\n        /* \"#utility.yul\":1386:1389   */\n      0x00\n        /* \"#utility.yul\":1414:1452   */\n      tag_39\n        /* \"#utility.yul\":1446:1451   */\n      dup3\n        /* \"#utility.yul\":1414:1452   */\n      tag_40\n      jump\t// in\n    tag_39:\n        /* \"#utility.yul\":1468:1538   */\n      tag_41\n        /* \"#utility.yul\":1531:1537   */\n      dup2\n        /* \"#utility.yul\":1526:1529   */\n      dup6\n        /* \"#utility.yul\":1468:1538   */\n      tag_42\n      jump\t// in\n    tag_41:\n        /* \"#utility.yul\":1461:1538   */\n      swap4\n      pop\n        /* \"#utility.yul\":1547:1599   */\n      tag_43\n        /* \"#utility.yul\":1592:1598   */\n      dup2\n        /* \"#utility.yul\":1587:1590   */\n      dup6\n        /* \"#utility.yul\":1580:1584   */\n      0x20\n        /* \"#utility.yul\":1573:1578   */\n      dup7\n        /* \"#utility.yul\":1569:1585   */\n      add\n        /* \"#utility.yul\":1547:1599   */\n      tag_44\n      jump\t// in\n    tag_43:\n        /* \"#utility.yul\":1624:1653   */\n      tag_45\n        /* \"#utility.yul\":1646:1652   */\n      dup2\n        /* \"#utility.yul\":1624:1653   */\n      tag_46\n      jump\t// in\n    tag_45:\n        /* \"#utility.yul\":1619:1622   */\n      dup5\n        /* \"#utility.yul\":1615:1654   */\n      add\n        /* \"#utility.yul\":1608:1654   */\n      swap2\n      pop\n        /* \"#utility.yul\":1390:1660   */\n      pop\n        /* \"#utility.yul\":1300:1660   */\n      swap3\n      swap2\n      pop\n      pop\n      jump\t// out\n        /* \"#utility.yul\":1666:1975   */\n    tag_9:\n        /* \"#utility.yul\":1777:1781   */\n      0x00\n        /* \"#utility.yul\":1815:1817   */\n      0x20\n        /* \"#utility.yul\":1804:1813   */\n      dup3\n        /* \"#utility.yul\":1800:1818   */\n      add\n        /* \"#utility.yul\":1792:1818   */\n      swap1\n      pop\n        /* \"#utility.yul\":1864:1873   */\n      dup2\n        /* \"#utility.yul\":1858:1862   */\n      dup2\n        /* \"#utility.yul\":1854:1874   */\n      sub\n        /* \"#utility.yul\":1850:1851   */\n      0x00\n        /* \"#utility.yul\":1839:1848   */\n      dup4\n        /* \"#utility.yul\":1835:1852   */\n      add\n        /* \"#utility.yul\":1828:1875   */\n      mstore\n        /* \"#utility.yul\":1892:1968   */\n      tag_48\n        /* \"#utility.yul\":1963:1967   */\n      dup2\n        /* \"#utility.yul\":1954:1960   */\n      dup5\n        /* \"#utility.yul\":1892:1968   */\n      tag_37\n      jump\t// in\n    tag_48:\n        /* \"#utility.yul\":1884:1968   */\n      swap1\n      pop\n        /* \"#utility.yul\":1666:1975   */\n      swap3\n      swap2\n      pop\n      pop\n      jump\t// out\n        /* \"#utility.yul\":1981:2110   */\n    tag_17:\n        /* \"#utility.yul\":2015:2021   */\n      0x00\n        /* \"#utility.yul\":2042:2062   */\n      tag_50\n      tag_51\n      jump\t// in\n    tag_50:\n        /* \"#utility.yul\":2032:2062   */\n      swap1\n      pop\n        /* \"#utility.yul\":2071:2104   */\n      tag_52\n        /* \"#utility.yul\":2099:2103   */\n      dup3\n        /* \"#utility.yul\":2091:2097   */\n      dup3\n        /* \"#utility.yul\":2071:2104   */\n      tag_53\n      jump\t// in\n    tag_52:\n        /* \"#utility.yul\":1981:2110   */\n      swap2\n      swap1\n      pop\n      jump\t// out\n        /* \"#utility.yul\":2116:2191   */\n    tag_51:\n        /* \"#utility.yul\":2149:2155   */\n      0x00\n        /* \"#utility.yul\":2182:2184   */\n      0x40\n        /* \"#utility.yul\":2176:2185   */\n      mload\n        /* \"#utility.yul\":2166:2185   */\n      swap1\n      pop\n        /* \"#utility.yul\":2116:2191   */\n      swap1\n      jump\t// out\n        /* \"#utility.yul\":2197:2505   */\n    tag_16:\n        /* \"#utility.yul\":2259:2263   */\n      0x00\n        /* \"#utility.yul\":2349:2367   */\n      0xffffffffffffffff\n        /* \"#utility.yul\":2341:2347   */\n      dup3\n        /* \"#utility.yul\":2338:2368   */\n      gt\n        /* \"#utility.yul\":2335:2391   */\n      iszero\n      tag_56\n      jumpi\n        /* \"#utility.yul\":2371:2389   */\n      tag_57\n      tag_58\n      jump\t// in\n    tag_57:\n        /* \"#utility.yul\":2335:2391   */\n    tag_56:\n        /* \"#utility.yul\":2409:2438   */\n      tag_59\n        /* \"#utility.yul\":2431:2437   */\n      dup3\n        /* \"#utility.yul\":2409:2438   */\n      tag_46\n      jump\t// in\n    tag_59:\n        /* \"#utility.yul\":2401:2438   */\n      swap1\n      pop\n        /* \"#utility.yul\":2493:2497   */\n      0x20\n        /* \"#utility.yul\":2487:2491   */\n      dup2\n        /* \"#utility.yul\":2483:2498   */\n      add\n        /* \"#utility.yul\":2475:2498   */\n      swap1\n      pop\n        /* \"#utility.yul\":2197:2505   */\n      swap2\n      swap1\n      pop\n      jump\t// out\n        /* \"#utility.yul\":2511:2609   */\n    tag_40:\n        /* \"#utility.yul\":2562:2568   */\n      0x00\n        /* \"#utility.yul\":2596:2601   */\n      dup2\n        /* \"#utility.yul\":2590:2602   */\n      mload\n        /* \"#utility.yul\":2580:2602   */\n      swap1\n      pop\n        /* \"#utility.yul\":2511:2609   */\n      swap2\n      swap1\n      pop\n      jump\t// out\n        /* \"#utility.yul\":2615:2783   */\n    tag_42:\n        /* \"#utility.yul\":2698:2709   */\n      0x00\n        /* \"#utility.yul\":2732:2738   */\n      dup3\n        /* \"#utility.yul\":2727:2730   */\n      dup3\n        /* \"#utility.yul\":2720:2739   */\n      mstore\n        /* \"#utility.yul\":2772:2776   */\n      0x20\n        /* \"#utility.yul\":2767:2770   */\n      dup3\n        /* \"#utility.yul\":2763:2777   */\n      add\n        /* \"#utility.yul\":2748:2777   */\n      swap1\n      pop\n        /* \"#utility.yul\":2615:2783   */\n      swap3\n      swap2\n      pop\n      pop\n      jump\t// out\n        /* \"#utility.yul\":2789:2943   */\n    tag_22:\n        /* \"#utility.yul\":2873:2879   */\n      dup3\n        /* \"#utility.yul\":2868:2871   */\n      dup2\n        /* \"#utility.yul\":2863:2866   */\n      dup4\n        /* \"#utility.yul\":2850:2880   */\n      calldatacopy\n        /* \"#utility.yul\":2935:2936   */\n      0x00\n        /* \"#utility.yul\":2926:2932   */\n      dup4\n        /* \"#utility.yul\":2921:2924   */\n      dup4\n        /* \"#utility.yul\":2917:2933   */\n      add\n        /* \"#utility.yul\":2910:2937   */\n      mstore\n        /* \"#utility.yul\":2789:2943   */\n      pop\n      pop\n      pop\n      jump\t// out\n        /* \"#utility.yul\":2949:3256   */\n    tag_44:\n        /* \"#utility.yul\":3017:3018   */\n      0x00\n        /* \"#utility.yul\":3027:3140   */\n    tag_64:\n        /* \"#utility.yul\":3041:3047   */\n      dup4\n        /* \"#utility.yul\":3038:3039   */\n      dup2\n        /* \"#utility.yul\":3035:3048   */\n      lt\n        /* \"#utility.yul\":3027:3140   */\n      iszero\n      tag_66\n      jumpi\n        /* \"#utility.yul\":3126:3127   */\n      dup1\n        /* \"#utility.yul\":3121:3124   */\n      dup3\n        /* \"#utility.yul\":3117:3128   */\n      add\n        /* \"#utility.yul\":3111:3129   */\n      mload\n        /* \"#utility.yul\":3107:3108   */\n      dup2\n        /* \"#utility.yul\":3102:3105   */\n      dup5\n        /* \"#utility.yul\":3098:3109   */\n      add\n        /* \"#utility.yul\":3091:3130   */\n      mstore\n        /* \"#utility.yul\":3063:3065   */\n      0x20\n        /* \"#utility.yul\":3060:3061   */\n      dup2\n        /* \"#utility.yul\":3056:3066   */\n      add\n        /* \"#utility.yul\":3051:3066   */\n      swap1\n      pop\n        /* \"#utility.yul\":3027:3140   */\n      jump(tag_64)\n    tag_66:\n        /* \"#utility.yul\":3158:3164   */\n      dup4\n        /* \"#utility.yul\":3155:3156   */\n      dup2\n        /* \"#utility.yul\":3152:3165   */\n      gt\n        /* \"#utility.yul\":3149:3250   */\n      iszero\n      tag_67\n      jumpi\n        /* \"#utility.yul\":3238:3239   */\n      0x00\n        /* \"#utility.yul\":3229:3235   */\n      dup5\n        /* \"#utility.yul\":3224:3227   */\n      dup5\n        /* \"#utility.yul\":3220:3236   */\n      add\n        /* \"#utility.yul\":3213:3240   */\n      mstore\n        /* \"#utility.yul\":3149:3250   */\n    tag_67:\n        /* \"#utility.yul\":2998:3256   */\n      pop\n        /* \"#utility.yul\":2949:3256   */\n      pop\n      pop\n      pop\n      jump\t// out\n        /* \"#utility.yul\":3262:3543   */\n    tag_53:\n        /* \"#utility.yul\":3345:3372   */\n      tag_69\n        /* \"#utility.yul\":3367:3371   */\n      dup3\n        /* \"#utility.yul\":3345:3372   */\n      tag_46\n      jump\t// in\n    tag_69:\n        /* \"#utility.yul\":3337:3343   */\n      dup2\n        /* \"#utility.yul\":3333:3373   */\n      add\n        /* \"#utility.yul\":3475:3481   */\n      dup2\n        /* \"#utility.yul\":3463:3473   */\n      dup2\n        /* \"#utility.yul\":3460:3482   */\n      lt\n        /* \"#utility.yul\":3439:3457   */\n      0xffffffffffffffff\n        /* \"#utility.yul\":3427:3437   */\n      dup3\n        /* \"#utility.yul\":3424:3458   */\n      gt\n        /* \"#utility.yul\":3421:3483   */\n      or\n        /* \"#utility.yul\":3418:3506   */\n      iszero\n      tag_70\n      jumpi\n        /* \"#utility.yul\":3486:3504   */\n      tag_71\n      tag_58\n      jump\t// in\n    tag_71:\n        /* \"#utility.yul\":3418:3506   */\n    tag_70:\n        /* \"#utility.yul\":3526:3536   */\n      dup1\n        /* \"#utility.yul\":3522:3524   */\n      0x40\n        /* \"#utility.yul\":3515:3537   */\n      mstore\n        /* \"#utility.yul\":3305:3543   */\n      pop\n        /* \"#utility.yul\":3262:3543   */\n      pop\n      pop\n      jump\t// out\n        /* \"#utility.yul\":3549:3729   */\n    tag_58:\n        /* \"#utility.yul\":3597:3674   */\n      0x4e487b7100000000000000000000000000000000000000000000000000000000\n        /* \"#utility.yul\":3594:3595   */\n      0x00\n        /* \"#utility.yul\":3587:3675   */\n      mstore\n        /* \"#utility.yul\":3694:3698   */\n      0x41\n        /* \"#utility.yul\":3691:3692   */\n      0x04\n        /* \"#utility.yul\":3684:3699   */\n      mstore\n        /* \"#utility.yul\":3718:3722   */\n      0x24\n        /* \"#utility.yul\":3715:3716   */\n      0x00\n        /* \"#utility.yul\":3708:3723   */\n      revert\n        /* \"#utility.yul\":3735:3852   */\n    tag_27:\n        /* \"#utility.yul\":3844:3845   */\n      0x00\n        /* \"#utility.yul\":3841:3842   */\n      dup1\n        /* \"#utility.yul\":3834:3846   */\n      revert\n        /* \"#utility.yul\":3858:3975   */\n    tag_20:\n        /* \"#utility.yul\":3967:3968   */\n      0x00\n        /* \"#utility.yul\":3964:3965   */\n      dup1\n        /* \"#utility.yul\":3957:3969   */\n      revert\n        /* \"#utility.yul\":3981:4098   */\n    tag_35:\n        /* \"#utility.yul\":4090:4091   */\n      0x00\n        /* \"#utility.yul\":4087:4088   */\n      dup1\n        /* \"#utility.yul\":4080:4092   */\n      revert\n        /* \"#utility.yul\":4104:4221   */\n    tag_32:\n        /* \"#utility.yul\":4213:4214   */\n      0x00\n        /* \"#utility.yul\":4210:4211   */\n      dup1\n        /* \"#utility.yul\":4203:4215   */\n      revert\n        /* \"#utility.yul\":4227:4329   */\n    tag_46:\n        /* \"#utility.yul\":4268:4274   */\n      0x00\n        /* \"#utility.yul\":4319:4321   */\n      0x1f\n        /* \"#utility.yul\":4315:4322   */\n      not\n        /* \"#utility.yul\":4310:4312   */\n      0x1f\n        /* \"#utility.yul\":4303:4308   */\n      dup4\n        /* \"#utility.yul\":4299:4313   */\n      add\n        /* \"#utility.yul\":4295:4323   */\n      and\n        /* \"#utility.yul\":4285:4323   */\n      swap1\n      pop\n        /* \"#utility.yul\":4227:4329   */\n      swap2\n      swap1\n      pop\n      jump\t// out\n\n    auxdata: 0xa2646970667358221220ebbcbc3045e2141b2c323b33e81896bb99b4131d1b7b63d10f8ef795104f50b264736f6c63430008070033\n}\n",
				"bytecode": {
					"linkReferences": {},
					"object": "608060405234801561001057600080fd5b506102ed806100206000396000f3fe608060405234801561001057600080fd5b506004361061002b5760003560e01c8063498cc70d14610030575b600080fd5b61004a600480360381019061004591906100da565b610060565b604051610057919061015c565b60405180910390f35b6060819050919050565b600061007d610078846101a3565b61017e565b90508281526020810184848401111561009957610098610297565b5b6100a48482856101f0565b509392505050565b600082601f8301126100c1576100c0610292565b5b81356100d184826020860161006a565b91505092915050565b6000602082840312156100f0576100ef6102a1565b5b600082013567ffffffffffffffff81111561010e5761010d61029c565b5b61011a848285016100ac565b91505092915050565b600061012e826101d4565b61013881856101df565b93506101488185602086016101ff565b610151816102a6565b840191505092915050565b600060208201905081810360008301526101768184610123565b905092915050565b6000610188610199565b90506101948282610232565b919050565b6000604051905090565b600067ffffffffffffffff8211156101be576101bd610263565b5b6101c7826102a6565b9050602081019050919050565b600081519050919050565b600082825260208201905092915050565b82818337600083830152505050565b60005b8381101561021d578082015181840152602081019050610202565b8381111561022c576000848401525b50505050565b61023b826102a6565b810181811067ffffffffffffffff8211171561025a57610259610263565b5b80604052505050565b7f4e487b7100000000000000000000000000000000000000000000000000000000600052604160045260246000fd5b600080fd5b600080fd5b600080fd5b600080fd5b6000601f19601f830116905091905056fea2646970667358221220ebbcbc3045e2141b2c323b33e81896bb99b4131d1b7b63d10f8ef795104f50b264736f6c63430008070033",
					"opcodes": "PUSH1 0x80 PUSH1 0x40 MSTORE CALLVALUE DUP1 ISZERO PUSH2 0x10 JUMPI PUSH1 0x0 DUP1 REVERT JUMPDEST POP PUSH2 0x2ED DUP1 PUSH2 0x20 PUSH1 0x0 CODECOPY PUSH1 0x0 RETURN INVALID PUSH1 0x80 PUSH1 0x40 MSTORE CALLVALUE DUP1 ISZERO PUSH2 0x10 JUMPI PUSH1 0x0 DUP1 REVERT JUMPDEST POP PUSH1 0x4 CALLDATASIZE LT PUSH2 0x2B JUMPI PUSH1 0x0 CALLDATALOAD PUSH1 0xE0 SHR DUP1 PUSH4 0x498CC70D EQ PUSH2 0x30 JUMPI JUMPDEST PUSH1 0x0 DUP1 REVERT JUMPDEST PUSH2 0x4A PUSH1 0x4 DUP1 CALLDATASIZE SUB DUP2 ADD SWAP1 PUSH2 0x45 SWAP2 SWAP1 PUSH2 0xDA JUMP JUMPDEST PUSH2 0x60 JUMP JUMPDEST PUSH1 0x40 MLOAD PUSH2 0x57 SWAP2 SWAP1 PUSH2 0x15C JUMP JUMPDEST PUSH1 0x40 MLOAD DUP1 SWAP2 SUB SWAP1 RETURN JUMPDEST PUSH1 0x60 DUP2 SWAP1 POP SWAP2 SWAP1 POP JUMP JUMPDEST PUSH1 0x0 PUSH2 0x7D PUSH2 0x78 DUP5 PUSH2 0x1A3 JUMP JUMPDEST PUSH2 0x17E JUMP JUMPDEST SWAP1 POP DUP3 DUP2 MSTORE PUSH1 0x20 DUP2 ADD DUP5 DUP5 DUP5 ADD GT ISZERO PUSH2 0x99 JUMPI PUSH2 0x98 PUSH2 0x297 JUMP JUMPDEST JUMPDEST PUSH2 0xA4 DUP5 DUP3 DUP6 PUSH2 0x1F0 JUMP JUMPDEST POP SWAP4 SWAP3 POP POP POP JUMP JUMPDEST PUSH1 0x0 DUP3 PUSH1 0x1F DUP4 ADD SLT PUSH2 0xC1 JUMPI PUSH2 0xC0 PUSH2 0x292 JUMP JUMPDEST JUMPDEST DUP2 CALLDATALOAD PUSH2 0xD1 DUP5 DUP3 PUSH1 0x20 DUP7 ADD PUSH2 0x6A JUMP JUMPDEST SWAP2 POP POP SWAP3 SWAP2 POP POP JUMP JUMPDEST PUSH1 0x0 PUSH1 0x20 DUP3 DUP5 SUB SLT ISZERO PUSH2 0xF0 JUMPI PUSH2 0xEF PUSH2 0x2A1 JUMP JUMPDEST JUMPDEST PUSH1 0x0 DUP3 ADD CALLDATALOAD PUSH8 0xFFFFFFFFFFFFFFFF DUP2 GT ISZERO PUSH2 0x10E JUMPI PUSH2 0x10D PUSH2 0x29C JUMP JUMPDEST JUMPDEST PUSH2 0x11A DUP5 DUP3 DUP6 ADD PUSH2 0xAC JUMP JUMPDEST SWAP2 POP POP SWAP3 SWAP2 POP POP JUMP JUMPDEST PUSH1 0x0 PUSH2 0x12E DUP3 PUSH2 0x1D4 JUMP JUMPDEST PUSH2 0x138 DUP2 DUP6 PUSH2 0x1DF JUMP JUMPDEST SWAP4 POP PUSH2 0x148 DUP2 DUP6 PUSH1 0x20 DUP7 ADD PUSH2 0x1FF JUMP JUMPDEST PUSH2 0x151 DUP2 PUSH2 0x2A6 JUMP JUMPDEST DUP5 ADD SWAP2 POP POP SWAP3 SWAP2 POP POP JUMP JUMPDEST PUSH1 0x0 PUSH1 0x20 DUP3 ADD SWAP1 POP DUP2 DUP2 SUB PUSH1 0x0 DUP4 ADD MSTORE PUSH2 0x176 DUP2 DUP5 PUSH2 0x123 JUMP JUMPDEST SWAP1 POP SWAP3 SWAP2 POP POP JUMP JUMPDEST PUSH1 0x0 PUSH2 0x188 PUSH2 0x199 JUMP JUMPDEST SWAP1 POP PUSH2 0x194 DUP3 DUP3 PUSH2 0x232 JUMP JUMPDEST SWAP2 SWAP1 POP JUMP JUMPDEST PUSH1 0x0 PUSH1 0x40 MLOAD SWAP1 POP SWAP1 JUMP JUMPDEST PUSH1 0x0 PUSH8 0xFFFFFFFFFFFFFFFF DUP3 GT ISZERO PUSH2 0x1BE JUMPI PUSH2 0x1BD PUSH2 0x263 JUMP JUMPDEST JUMPDEST PUSH2 0x1C7 DUP3 PUSH2 0x2A6 JUMP JUMPDEST SWAP1 POP PUSH1 0x20 DUP2 ADD SWAP1 POP SWAP2 SWAP1 POP JUMP JUMPDEST PUSH1 0x0 DUP2 MLOAD SWAP1 POP SWAP2 SWAP1 POP JUMP JUMPDEST PUSH1 0x0 DUP3 DUP3 MSTORE PUSH1 0x20 DUP3 ADD SWAP1 POP SWAP3 SWAP2 POP POP JUMP JUMPDEST DUP3 DUP2 DUP4 CALLDATACOPY PUSH1 0x0 DUP4 DUP4 ADD MSTORE POP POP POP JUMP JUMPDEST PUSH1 0x0 JUMPDEST DUP4 DUP2 LT ISZERO PUSH2 0x21D JUMPI DUP1 DUP3 ADD MLOAD DUP2 DUP5 ADD MSTORE PUSH1 0x20 DUP2 ADD SWAP1 POP PUSH2 0x202 JUMP JUMPDEST DUP4 DUP2 GT ISZERO PUSH2 0x22C JUMPI PUSH1 0x0 DUP5 DUP5 ADD MSTORE JUMPDEST POP POP POP POP JUMP JUMPDEST PUSH2 0x23B DUP3 PUSH2 0x2A6 JUMP JUMPDEST DUP2 ADD DUP2 DUP2 LT PUSH8 0xFFFFFFFFFFFFFFFF DUP3 GT OR ISZERO PUSH2 0x25A JUMPI PUSH2 0x259 PUSH2 0x263 JUMP JUMPDEST JUMPDEST DUP1 PUSH1 0x40 MSTORE POP POP POP JUMP JUMPDEST PUSH32 0x4E487B7100000000000000000000000000000000000000000000000000000000 PUSH1 0x0 MSTORE PUSH1 0x41 PUSH1 0x4 MSTORE PUSH1 0x24 PUSH1 0x0 REVERT JUMPDEST PUSH1 0x0 DUP1 REVERT JUMPDEST PUSH1 0x0 DUP1 REVERT JUMPDEST PUSH1 0x0 DUP1 REVERT JUMPDEST PUSH1 0x0 DUP1 REVERT JUMPDEST PUSH1 0x0 PUSH1 0x1F NOT PUSH1 0x1F DUP4 ADD AND SWAP1 POP SWAP2 SWAP1 POP JUMP INVALID LOG2 PUSH5 0x6970667358 0x22 SLT KECCAK256 0xEB 0xBC 0xBC ADDRESS GASLIMIT 0xE2 EQ SHL 0x2C ORIGIN EXTCODESIZE CALLER 0xE8 XOR SWAP7 0xBB SWAP10 0xB4 SGT SAR SHL PUSH28 0x63D10F8EF795104F50B264736F6C6343000807003300000000000000 "
				},
				"gasEstimates": {
					"creation": {
						"codeDepositCost": "149800",
						"executionCost": "196",
						"totalCost": "149996"
					},
					"external": {
						"getResult(string)": "infinite"
					}
				},
				"methodIdentifiers": {
					"getResult(string)": "498cc70d"
				}
			},
			"storageLayout": {
				"storage": [],
				"types": null
			},
			"userdoc": {
				"kind": "user",
				"methods": {},
				"version": 1
			}
		}
	}
}