{
	"函数返回值/funreturn.sol": {
		"funreturn": {
			"abi": [
				{
					"inputs": [],
					"name": "returnTest",
					"outputs": [
						{
							"internalType": "uint256",
							"name": "mul",
							"type": "uint256"
						}
					],
					"stateMutability": "view",
					"type": "function"
				},
				{
					"inputs": [],
					"name": "returnTest2",
					"outputs": [
						{
							"internalType": "uint256",
							"name": "mul",
							"type": "uint256"
						}
					],
					"stateMutability": "view",
					"type": "function"
				},
				{
					"inputs": [],
					"name": "returnTest3",
					"outputs": [
						{
							"internalType": "uint256",
							"name": "mul",
							"type": "uint256"
						}
					],
					"stateMutability": "view",
					"type": "function"
				},
				{
					"inputs": [],
					"name": "returnTest4",
					"outputs": [
						{
							"internalType": "uint256",
							"name": "mul",
							"type": "uint256"
						}
					],
					"stateMutability": "view",
					"type": "function"
				},
				{
					"inputs": [
						{
							"internalType": "uint256",
							"name": "a",
							"type": "uint256"
						},
						{
							"internalType": "uint256",
							"name": "b",
							"type": "uint256"
						}
					],
					"name": "returnTest5",
					"outputs": [
						{
							"internalType": "uint256",
							"name": "add",
							"type": "uint256"
						},
						{
							"internalType": "uint256",
							"name": "mul",
							"type": "uint256"
						}
					],
					"stateMutability": "view",
					"type": "function"
				},
				{
					"inputs": [
						{
							"internalType": "uint256",
							"name": "a",
							"type": "uint256"
						},
						{
							"internalType": "uint256",
							"name": "b",
							"type": "uint256"
						}
					],
					"name": "returnTest6",
					"outputs": [
						{
							"internalType": "uint256",
							"name": "add",
							"type": "uint256"
						},
						{
							"internalType": "uint256",
							"name": "mul",
							"type": "uint256"
						}
					],
					"stateMutability": "view",
					"type": "function"
				},
				{
					"inputs": [
						{
							"internalType": "uint256",
							"name": "a",
							"type": "uint256"
						},
						{
							"internalType": "uint256",
							"name": "b",
							"type": "uint256"
						}
					],
					"name": "returnTest7",
					"outputs": [
						{
							"internalType": "uint256",
							"name": "a1",
							"type": "uint256"
						},
						{
							"internalType": "uint256",
							"name": "b1",
							"type": "uint256"
						}
					],
					"stateMutability": "view",
					"type": "function"
				}
			],
			"devdoc": {
				"kind": "dev",
				"methods": {},
				"version": 1
			},
			"evm": {
				"assembly": "    /* \"\\xe5\\x87\\xbd\\xe6\\x95\\xb0\\xe8\\xbf\\x94\\xe5\\x9b\\x9e\\xe5\\x80\\xbc/funreturn.sol\":60:1233  contract funreturn {\r... */\n  mstore(0x40, 0x80)\n  callvalue\n  dup1\n  iszero\n  tag_1\n  jumpi\n  0x00\n  dup1\n  revert\ntag_1:\n  pop\n  dataSize(sub_0)\n  dup1\n  dataOffset(sub_0)\n  0x00\n  codecopy\n  0x00\n  return\nstop\n\nsub_0: assembly {\n        /* \"\\xe5\\x87\\xbd\\xe6\\x95\\xb0\\xe8\\xbf\\x94\\xe5\\x9b\\x9e\\xe5\\x80\\xbc/funreturn.sol\":60:1233  contract funreturn {\r... */\n      mstore(0x40, 0x80)\n      callvalue\n      dup1\n      iszero\n      tag_1\n      jumpi\n      0x00\n      dup1\n      revert\n    tag_1:\n      pop\n      jumpi(tag_2, lt(calldatasize, 0x04))\n      shr(0xe0, calldataload(0x00))\n      dup1\n      0xa05f46db\n      gt\n      tag_10\n      jumpi\n      dup1\n      0xa05f46db\n      eq\n      tag_6\n      jumpi\n      dup1\n      0xab2b9ab7\n      eq\n      tag_7\n      jumpi\n      dup1\n      0xcdd51d30\n      eq\n      tag_8\n      jumpi\n      dup1\n      0xea7000eb\n      eq\n      tag_9\n      jumpi\n      jump(tag_2)\n    tag_10:\n      dup1\n      0x2d802690\n      eq\n      tag_3\n      jumpi\n      dup1\n      0x57ecc147\n      eq\n      tag_4\n      jumpi\n      dup1\n      0x645988d0\n      eq\n      tag_5\n      jumpi\n    tag_2:\n      0x00\n      dup1\n      revert\n        /* \"\\xe5\\x87\\xbd\\xe6\\x95\\xb0\\xe8\\xbf\\x94\\xe5\\x9b\\x9e\\xe5\\x80\\xbc/funreturn.sol\":608:730  function returnTest4() public view returns(uint mul) {\r... */\n    tag_3:\n      tag_11\n      tag_12\n      jump\t// in\n    tag_11:\n      mload(0x40)\n      tag_13\n      swap2\n      swap1\n      tag_14\n      jump\t// in\n    tag_13:\n      mload(0x40)\n      dup1\n      swap2\n      sub\n      swap1\n      return\n        /* \"\\xe5\\x87\\xbd\\xe6\\x95\\xb0\\xe8\\xbf\\x94\\xe5\\x9b\\x9e\\xe5\\x80\\xbc/funreturn.sol\":122:223  function returnTest() public view returns(uint mul) {\r... */\n    tag_4:\n      tag_15\n      tag_16\n      jump\t// in\n    tag_15:\n      mload(0x40)\n      tag_17\n      swap2\n      swap1\n      tag_14\n      jump\t// in\n    tag_17:\n      mload(0x40)\n      dup1\n      swap2\n      sub\n      swap1\n      return\n        /* \"\\xe5\\x87\\xbd\\xe6\\x95\\xb0\\xe8\\xbf\\x94\\xe5\\x9b\\x9e\\xe5\\x80\\xbc/funreturn.sol\":271:351  function returnTest2() public view returns(uint mul) {\r... */\n    tag_5:\n      tag_18\n      tag_19\n      jump\t// in\n    tag_18:\n      mload(0x40)\n      tag_20\n      swap2\n      swap1\n      tag_14\n      jump\t// in\n    tag_20:\n      mload(0x40)\n      dup1\n      swap2\n      sub\n      swap1\n      return\n        /* \"\\xe5\\x87\\xbd\\xe6\\x95\\xb0\\xe8\\xbf\\x94\\xe5\\x9b\\x9e\\xe5\\x80\\xbc/funreturn.sol\":441:563  function returnTest3() public view returns(uint mul) {\r... */\n    tag_6:\n      tag_21\n      tag_22\n      jump\t// in\n    tag_21:\n      mload(0x40)\n      tag_23\n      swap2\n      swap1\n      tag_14\n      jump\t// in\n    tag_23:\n      mload(0x40)\n      dup1\n      swap2\n      sub\n      swap1\n      return\n        /* \"\\xe5\\x87\\xbd\\xe6\\x95\\xb0\\xe8\\xbf\\x94\\xe5\\x9b\\x9e\\xe5\\x80\\xbc/funreturn.sol\":799:928  function returnTest5(uint a, uint b) public view returns(uint add, uint mul) {\r... */\n    tag_7:\n      tag_24\n      0x04\n      dup1\n      calldatasize\n      sub\n      dup2\n      add\n      swap1\n      tag_25\n      swap2\n      swap1\n      tag_26\n      jump\t// in\n    tag_25:\n      tag_27\n      jump\t// in\n    tag_24:\n      mload(0x40)\n      tag_28\n      swap3\n      swap2\n      swap1\n      tag_29\n      jump\t// in\n    tag_28:\n      mload(0x40)\n      dup1\n      swap2\n      sub\n      swap1\n      return\n        /* \"\\xe5\\x87\\xbd\\xe6\\x95\\xb0\\xe8\\xbf\\x94\\xe5\\x9b\\x9e\\xe5\\x80\\xbc/funreturn.sol\":1001:1114  function returnTest6(uint a, uint b) public view returns(uint add, uint mul) {\r... */\n    tag_8:\n      tag_30\n      0x04\n      dup1\n      calldatasize\n      sub\n      dup2\n      add\n      swap1\n      tag_31\n      swap2\n      swap1\n      tag_26\n      jump\t// in\n    tag_31:\n      tag_32\n      jump\t// in\n    tag_30:\n      mload(0x40)\n      tag_33\n      swap3\n      swap2\n      swap1\n      tag_29\n      jump\t// in\n    tag_33:\n      mload(0x40)\n      dup1\n      swap2\n      sub\n      swap1\n      return\n        /* \"\\xe5\\x87\\xbd\\xe6\\x95\\xb0\\xe8\\xbf\\x94\\xe5\\x9b\\x9e\\xe5\\x80\\xbc/funreturn.sol\":1122:1228  function returnTest7(uint a, uint b) public view returns(uint a1, uint b1) {\r... */\n    tag_9:\n      tag_34\n      0x04\n      dup1\n      calldatasize\n      sub\n      dup2\n      add\n      swap1\n      tag_35\n      swap2\n      swap1\n      tag_26\n      jump\t// in\n    tag_35:\n      tag_36\n      jump\t// in\n    tag_34:\n      mload(0x40)\n      tag_37\n      swap3\n      swap2\n      swap1\n      tag_29\n      jump\t// in\n    tag_37:\n      mload(0x40)\n      dup1\n      swap2\n      sub\n      swap1\n      return\n        /* \"\\xe5\\x87\\xbd\\xe6\\x95\\xb0\\xe8\\xbf\\x94\\xe5\\x9b\\x9e\\xe5\\x80\\xbc/funreturn.sol\":608:730  function returnTest4() public view returns(uint mul) {\r... */\n    tag_12:\n        /* \"\\xe5\\x87\\xbd\\xe6\\x95\\xb0\\xe8\\xbf\\x94\\xe5\\x9b\\x9e\\xe5\\x80\\xbc/funreturn.sol\":651:659  uint mul */\n      0x00\n        /* \"\\xe5\\x87\\xbd\\xe6\\x95\\xb0\\xe8\\xbf\\x94\\xe5\\x9b\\x9e\\xe5\\x80\\xbc/funreturn.sol\":672:678  uint a */\n      dup1\n        /* \"\\xe5\\x87\\xbd\\xe6\\x95\\xb0\\xe8\\xbf\\x94\\xe5\\x9b\\x9e\\xe5\\x80\\xbc/funreturn.sol\":681:683  10 */\n      0x0a\n        /* \"\\xe5\\x87\\xbd\\xe6\\x95\\xb0\\xe8\\xbf\\x94\\xe5\\x9b\\x9e\\xe5\\x80\\xbc/funreturn.sol\":672:683  uint a = 10 */\n      swap1\n      pop\n        /* \"\\xe5\\x87\\xbd\\xe6\\x95\\xb0\\xe8\\xbf\\x94\\xe5\\x9b\\x9e\\xe5\\x80\\xbc/funreturn.sol\":700:703  100 */\n      0x64\n        /* \"\\xe5\\x87\\xbd\\xe6\\x95\\xb0\\xe8\\xbf\\x94\\xe5\\x9b\\x9e\\xe5\\x80\\xbc/funreturn.sol\":694:703  mul = 100 */\n      swap2\n      pop\n        /* \"\\xe5\\x87\\xbd\\xe6\\x95\\xb0\\xe8\\xbf\\x94\\xe5\\x9b\\x9e\\xe5\\x80\\xbc/funreturn.sol\":721:722  1 */\n      0x01\n        /* \"\\xe5\\x87\\xbd\\xe6\\x95\\xb0\\xe8\\xbf\\x94\\xe5\\x9b\\x9e\\xe5\\x80\\xbc/funreturn.sol\":714:722  return 1 */\n      swap2\n      pop\n      pop\n        /* \"\\xe5\\x87\\xbd\\xe6\\x95\\xb0\\xe8\\xbf\\x94\\xe5\\x9b\\x9e\\xe5\\x80\\xbc/funreturn.sol\":608:730  function returnTest4() public view returns(uint mul) {\r... */\n      swap1\n      jump\t// out\n        /* \"\\xe5\\x87\\xbd\\xe6\\x95\\xb0\\xe8\\xbf\\x94\\xe5\\x9b\\x9e\\xe5\\x80\\xbc/funreturn.sol\":122:223  function returnTest() public view returns(uint mul) {\r... */\n    tag_16:\n        /* \"\\xe5\\x87\\xbd\\xe6\\x95\\xb0\\xe8\\xbf\\x94\\xe5\\x9b\\x9e\\xe5\\x80\\xbc/funreturn.sol\":164:172  uint mul */\n      0x00\n        /* \"\\xe5\\x87\\xbd\\xe6\\x95\\xb0\\xe8\\xbf\\x94\\xe5\\x9b\\x9e\\xe5\\x80\\xbc/funreturn.sol\":185:191  uint a */\n      dup1\n        /* \"\\xe5\\x87\\xbd\\xe6\\x95\\xb0\\xe8\\xbf\\x94\\xe5\\x9b\\x9e\\xe5\\x80\\xbc/funreturn.sol\":194:196  10 */\n      0x0a\n        /* \"\\xe5\\x87\\xbd\\xe6\\x95\\xb0\\xe8\\xbf\\x94\\xe5\\x9b\\x9e\\xe5\\x80\\xbc/funreturn.sol\":185:196  uint a = 10 */\n      swap1\n      pop\n        /* \"\\xe5\\x87\\xbd\\xe6\\x95\\xb0\\xe8\\xbf\\x94\\xe5\\x9b\\x9e\\xe5\\x80\\xbc/funreturn.sol\":214:215  a */\n      dup1\n        /* \"\\xe5\\x87\\xbd\\xe6\\x95\\xb0\\xe8\\xbf\\x94\\xe5\\x9b\\x9e\\xe5\\x80\\xbc/funreturn.sol\":207:215  return a */\n      swap2\n      pop\n      pop\n        /* \"\\xe5\\x87\\xbd\\xe6\\x95\\xb0\\xe8\\xbf\\x94\\xe5\\x9b\\x9e\\xe5\\x80\\xbc/funreturn.sol\":122:223  function returnTest() public view returns(uint mul) {\r... */\n      swap1\n      jump\t// out\n        /* \"\\xe5\\x87\\xbd\\xe6\\x95\\xb0\\xe8\\xbf\\x94\\xe5\\x9b\\x9e\\xe5\\x80\\xbc/funreturn.sol\":271:351  function returnTest2() public view returns(uint mul) {\r... */\n    tag_19:\n        /* \"\\xe5\\x87\\xbd\\xe6\\x95\\xb0\\xe8\\xbf\\x94\\xe5\\x9b\\x9e\\xe5\\x80\\xbc/funreturn.sol\":314:322  uint mul */\n      0x00\n        /* \"\\xe5\\x87\\xbd\\xe6\\x95\\xb0\\xe8\\xbf\\x94\\xe5\\x9b\\x9e\\xe5\\x80\\xbc/funreturn.sol\":341:343  10 */\n      0x0a\n        /* \"\\xe5\\x87\\xbd\\xe6\\x95\\xb0\\xe8\\xbf\\x94\\xe5\\x9b\\x9e\\xe5\\x80\\xbc/funreturn.sol\":335:343  mul = 10 */\n      swap1\n      pop\n        /* \"\\xe5\\x87\\xbd\\xe6\\x95\\xb0\\xe8\\xbf\\x94\\xe5\\x9b\\x9e\\xe5\\x80\\xbc/funreturn.sol\":271:351  function returnTest2() public view returns(uint mul) {\r... */\n      swap1\n      jump\t// out\n        /* \"\\xe5\\x87\\xbd\\xe6\\x95\\xb0\\xe8\\xbf\\x94\\xe5\\x9b\\x9e\\xe5\\x80\\xbc/funreturn.sol\":441:563  function returnTest3() public view returns(uint mul) {\r... */\n    tag_22:\n        /* \"\\xe5\\x87\\xbd\\xe6\\x95\\xb0\\xe8\\xbf\\x94\\xe5\\x9b\\x9e\\xe5\\x80\\xbc/funreturn.sol\":484:492  uint mul */\n      0x00\n        /* \"\\xe5\\x87\\xbd\\xe6\\x95\\xb0\\xe8\\xbf\\x94\\xe5\\x9b\\x9e\\xe5\\x80\\xbc/funreturn.sol\":505:511  uint a */\n      dup1\n        /* \"\\xe5\\x87\\xbd\\xe6\\x95\\xb0\\xe8\\xbf\\x94\\xe5\\x9b\\x9e\\xe5\\x80\\xbc/funreturn.sol\":514:516  10 */\n      0x0a\n        /* \"\\xe5\\x87\\xbd\\xe6\\x95\\xb0\\xe8\\xbf\\x94\\xe5\\x9b\\x9e\\xe5\\x80\\xbc/funreturn.sol\":505:516  uint a = 10 */\n      swap1\n      pop\n        /* \"\\xe5\\x87\\xbd\\xe6\\x95\\xb0\\xe8\\xbf\\x94\\xe5\\x9b\\x9e\\xe5\\x80\\xbc/funreturn.sol\":533:536  100 */\n      0x64\n        /* \"\\xe5\\x87\\xbd\\xe6\\x95\\xb0\\xe8\\xbf\\x94\\xe5\\x9b\\x9e\\xe5\\x80\\xbc/funreturn.sol\":527:536  mul = 100 */\n      swap2\n      pop\n        /* \"\\xe5\\x87\\xbd\\xe6\\x95\\xb0\\xe8\\xbf\\x94\\xe5\\x9b\\x9e\\xe5\\x80\\xbc/funreturn.sol\":554:555  a */\n      dup1\n        /* \"\\xe5\\x87\\xbd\\xe6\\x95\\xb0\\xe8\\xbf\\x94\\xe5\\x9b\\x9e\\xe5\\x80\\xbc/funreturn.sol\":547:555  return a */\n      swap2\n      pop\n      pop\n        /* \"\\xe5\\x87\\xbd\\xe6\\x95\\xb0\\xe8\\xbf\\x94\\xe5\\x9b\\x9e\\xe5\\x80\\xbc/funreturn.sol\":441:563  function returnTest3() public view returns(uint mul) {\r... */\n      swap1\n      jump\t// out\n        /* \"\\xe5\\x87\\xbd\\xe6\\x95\\xb0\\xe8\\xbf\\x94\\xe5\\x9b\\x9e\\xe5\\x80\\xbc/funreturn.sol\":799:928  function returnTest5(uint a, uint b) public view returns(uint add, uint mul) {\r... */\n    tag_27:\n        /* \"\\xe5\\x87\\xbd\\xe6\\x95\\xb0\\xe8\\xbf\\x94\\xe5\\x9b\\x9e\\xe5\\x80\\xbc/funreturn.sol\":856:864  uint add */\n      0x00\n        /* \"\\xe5\\x87\\xbd\\xe6\\x95\\xb0\\xe8\\xbf\\x94\\xe5\\x9b\\x9e\\xe5\\x80\\xbc/funreturn.sol\":866:874  uint mul */\n      dup1\n        /* \"\\xe5\\x87\\xbd\\xe6\\x95\\xb0\\xe8\\xbf\\x94\\xe5\\x9b\\x9e\\xe5\\x80\\xbc/funreturn.sol\":897:898  b */\n      dup3\n        /* \"\\xe5\\x87\\xbd\\xe6\\x95\\xb0\\xe8\\xbf\\x94\\xe5\\x9b\\x9e\\xe5\\x80\\xbc/funreturn.sol\":893:894  a */\n      dup5\n        /* \"\\xe5\\x87\\xbd\\xe6\\x95\\xb0\\xe8\\xbf\\x94\\xe5\\x9b\\x9e\\xe5\\x80\\xbc/funreturn.sol\":893:898  a + b */\n      tag_43\n      swap2\n      swap1\n      tag_44\n      jump\t// in\n    tag_43:\n        /* \"\\xe5\\x87\\xbd\\xe6\\x95\\xb0\\xe8\\xbf\\x94\\xe5\\x9b\\x9e\\xe5\\x80\\xbc/funreturn.sol\":887:898  add = a + b */\n      swap2\n      pop\n        /* \"\\xe5\\x87\\xbd\\xe6\\x95\\xb0\\xe8\\xbf\\x94\\xe5\\x9b\\x9e\\xe5\\x80\\xbc/funreturn.sol\":919:920  b */\n      dup3\n        /* \"\\xe5\\x87\\xbd\\xe6\\x95\\xb0\\xe8\\xbf\\x94\\xe5\\x9b\\x9e\\xe5\\x80\\xbc/funreturn.sol\":915:916  a */\n      dup5\n        /* \"\\xe5\\x87\\xbd\\xe6\\x95\\xb0\\xe8\\xbf\\x94\\xe5\\x9b\\x9e\\xe5\\x80\\xbc/funreturn.sol\":915:920  a * b */\n      tag_45\n      swap2\n      swap1\n      tag_46\n      jump\t// in\n    tag_45:\n        /* \"\\xe5\\x87\\xbd\\xe6\\x95\\xb0\\xe8\\xbf\\x94\\xe5\\x9b\\x9e\\xe5\\x80\\xbc/funreturn.sol\":909:920  mul = a * b */\n      swap1\n      pop\n        /* \"\\xe5\\x87\\xbd\\xe6\\x95\\xb0\\xe8\\xbf\\x94\\xe5\\x9b\\x9e\\xe5\\x80\\xbc/funreturn.sol\":799:928  function returnTest5(uint a, uint b) public view returns(uint add, uint mul) {\r... */\n      swap3\n      pop\n      swap3\n      swap1\n      pop\n      jump\t// out\n        /* \"\\xe5\\x87\\xbd\\xe6\\x95\\xb0\\xe8\\xbf\\x94\\xe5\\x9b\\x9e\\xe5\\x80\\xbc/funreturn.sol\":1001:1114  function returnTest6(uint a, uint b) public view returns(uint add, uint mul) {\r... */\n    tag_32:\n        /* \"\\xe5\\x87\\xbd\\xe6\\x95\\xb0\\xe8\\xbf\\x94\\xe5\\x9b\\x9e\\xe5\\x80\\xbc/funreturn.sol\":1058:1066  uint add */\n      0x00\n        /* \"\\xe5\\x87\\xbd\\xe6\\x95\\xb0\\xe8\\xbf\\x94\\xe5\\x9b\\x9e\\xe5\\x80\\xbc/funreturn.sol\":1068:1076  uint mul */\n      dup1\n        /* \"\\xe5\\x87\\xbd\\xe6\\x95\\xb0\\xe8\\xbf\\x94\\xe5\\x9b\\x9e\\xe5\\x80\\xbc/funreturn.sol\":1099:1100  b */\n      dup3\n        /* \"\\xe5\\x87\\xbd\\xe6\\x95\\xb0\\xe8\\xbf\\x94\\xe5\\x9b\\x9e\\xe5\\x80\\xbc/funreturn.sol\":1097:1098  a */\n      dup5\n        /* \"\\xe5\\x87\\xbd\\xe6\\x95\\xb0\\xe8\\xbf\\x94\\xe5\\x9b\\x9e\\xe5\\x80\\xbc/funreturn.sol\":1097:1100  a+b */\n      tag_48\n      swap2\n      swap1\n      tag_44\n      jump\t// in\n    tag_48:\n        /* \"\\xe5\\x87\\xbd\\xe6\\x95\\xb0\\xe8\\xbf\\x94\\xe5\\x9b\\x9e\\xe5\\x80\\xbc/funreturn.sol\":1104:1105  b */\n      dup4\n        /* \"\\xe5\\x87\\xbd\\xe6\\x95\\xb0\\xe8\\xbf\\x94\\xe5\\x9b\\x9e\\xe5\\x80\\xbc/funreturn.sol\":1102:1103  a */\n      dup6\n        /* \"\\xe5\\x87\\xbd\\xe6\\x95\\xb0\\xe8\\xbf\\x94\\xe5\\x9b\\x9e\\xe5\\x80\\xbc/funreturn.sol\":1102:1105  a*b */\n      tag_49\n      swap2\n      swap1\n      tag_46\n      jump\t// in\n    tag_49:\n        /* \"\\xe5\\x87\\xbd\\xe6\\x95\\xb0\\xe8\\xbf\\x94\\xe5\\x9b\\x9e\\xe5\\x80\\xbc/funreturn.sol\":1089:1106  return (a+b, a*b) */\n      swap2\n      pop\n      swap2\n      pop\n        /* \"\\xe5\\x87\\xbd\\xe6\\x95\\xb0\\xe8\\xbf\\x94\\xe5\\x9b\\x9e\\xe5\\x80\\xbc/funreturn.sol\":1001:1114  function returnTest6(uint a, uint b) public view returns(uint add, uint mul) {\r... */\n      swap3\n      pop\n      swap3\n      swap1\n      pop\n      jump\t// out\n        /* \"\\xe5\\x87\\xbd\\xe6\\x95\\xb0\\xe8\\xbf\\x94\\xe5\\x9b\\x9e\\xe5\\x80\\xbc/funreturn.sol\":1122:1228  function returnTest7(uint a, uint b) public view returns(uint a1, uint b1) {\r... */\n    tag_36:\n        /* \"\\xe5\\x87\\xbd\\xe6\\x95\\xb0\\xe8\\xbf\\x94\\xe5\\x9b\\x9e\\xe5\\x80\\xbc/funreturn.sol\":1179:1186  uint a1 */\n      0x00\n        /* \"\\xe5\\x87\\xbd\\xe6\\x95\\xb0\\xe8\\xbf\\x94\\xe5\\x9b\\x9e\\xe5\\x80\\xbc/funreturn.sol\":1188:1195  uint b1 */\n      dup1\n        /* \"\\xe5\\x87\\xbd\\xe6\\x95\\xb0\\xe8\\xbf\\x94\\xe5\\x9b\\x9e\\xe5\\x80\\xbc/funreturn.sol\":1216:1217  b */\n      dup3\n        /* \"\\xe5\\x87\\xbd\\xe6\\x95\\xb0\\xe8\\xbf\\x94\\xe5\\x9b\\x9e\\xe5\\x80\\xbc/funreturn.sol\":1218:1219  a */\n      dup5\n        /* \"\\xe5\\x87\\xbd\\xe6\\x95\\xb0\\xe8\\xbf\\x94\\xe5\\x9b\\x9e\\xe5\\x80\\xbc/funreturn.sol\":1208:1220  return (b,a) */\n      swap2\n      pop\n      swap2\n      pop\n        /* \"\\xe5\\x87\\xbd\\xe6\\x95\\xb0\\xe8\\xbf\\x94\\xe5\\x9b\\x9e\\xe5\\x80\\xbc/funreturn.sol\":1122:1228  function returnTest7(uint a, uint b) public view returns(uint a1, uint b1) {\r... */\n      swap3\n      pop\n      swap3\n      swap1\n      pop\n      jump\t// out\n        /* \"#utility.yul\":7:146   */\n    tag_52:\n        /* \"#utility.yul\":53:58   */\n      0x00\n        /* \"#utility.yul\":91:97   */\n      dup2\n        /* \"#utility.yul\":78:98   */\n      calldataload\n        /* \"#utility.yul\":69:98   */\n      swap1\n      pop\n        /* \"#utility.yul\":107:140   */\n      tag_54\n        /* \"#utility.yul\":134:139   */\n      dup2\n        /* \"#utility.yul\":107:140   */\n      tag_55\n      jump\t// in\n    tag_54:\n        /* \"#utility.yul\":7:146   */\n      swap3\n      swap2\n      pop\n      pop\n      jump\t// out\n        /* \"#utility.yul\":152:626   */\n    tag_26:\n        /* \"#utility.yul\":220:226   */\n      0x00\n        /* \"#utility.yul\":228:234   */\n      dup1\n        /* \"#utility.yul\":277:279   */\n      0x40\n        /* \"#utility.yul\":265:274   */\n      dup4\n        /* \"#utility.yul\":256:263   */\n      dup6\n        /* \"#utility.yul\":252:275   */\n      sub\n        /* \"#utility.yul\":248:280   */\n      slt\n        /* \"#utility.yul\":245:364   */\n      iszero\n      tag_57\n      jumpi\n        /* \"#utility.yul\":283:362   */\n      tag_58\n      tag_59\n      jump\t// in\n    tag_58:\n        /* \"#utility.yul\":245:364   */\n    tag_57:\n        /* \"#utility.yul\":403:404   */\n      0x00\n        /* \"#utility.yul\":428:481   */\n      tag_60\n        /* \"#utility.yul\":473:480   */\n      dup6\n        /* \"#utility.yul\":464:470   */\n      dup3\n        /* \"#utility.yul\":453:462   */\n      dup7\n        /* \"#utility.yul\":449:471   */\n      add\n        /* \"#utility.yul\":428:481   */\n      tag_52\n      jump\t// in\n    tag_60:\n        /* \"#utility.yul\":418:481   */\n      swap3\n      pop\n        /* \"#utility.yul\":374:491   */\n      pop\n        /* \"#utility.yul\":530:532   */\n      0x20\n        /* \"#utility.yul\":556:609   */\n      tag_61\n        /* \"#utility.yul\":601:608   */\n      dup6\n        /* \"#utility.yul\":592:598   */\n      dup3\n        /* \"#utility.yul\":581:590   */\n      dup7\n        /* \"#utility.yul\":577:599   */\n      add\n        /* \"#utility.yul\":556:609   */\n      tag_52\n      jump\t// in\n    tag_61:\n        /* \"#utility.yul\":546:609   */\n      swap2\n      pop\n        /* \"#utility.yul\":501:619   */\n      pop\n        /* \"#utility.yul\":152:626   */\n      swap3\n      pop\n      swap3\n      swap1\n      pop\n      jump\t// out\n        /* \"#utility.yul\":632:750   */\n    tag_62:\n        /* \"#utility.yul\":719:743   */\n      tag_64\n        /* \"#utility.yul\":737:742   */\n      dup2\n        /* \"#utility.yul\":719:743   */\n      tag_65\n      jump\t// in\n    tag_64:\n        /* \"#utility.yul\":714:717   */\n      dup3\n        /* \"#utility.yul\":707:744   */\n      mstore\n        /* \"#utility.yul\":632:750   */\n      pop\n      pop\n      jump\t// out\n        /* \"#utility.yul\":756:978   */\n    tag_14:\n        /* \"#utility.yul\":849:853   */\n      0x00\n        /* \"#utility.yul\":887:889   */\n      0x20\n        /* \"#utility.yul\":876:885   */\n      dup3\n        /* \"#utility.yul\":872:890   */\n      add\n        /* \"#utility.yul\":864:890   */\n      swap1\n      pop\n        /* \"#utility.yul\":900:971   */\n      tag_67\n        /* \"#utility.yul\":968:969   */\n      0x00\n        /* \"#utility.yul\":957:966   */\n      dup4\n        /* \"#utility.yul\":953:970   */\n      add\n        /* \"#utility.yul\":944:950   */\n      dup5\n        /* \"#utility.yul\":900:971   */\n      tag_62\n      jump\t// in\n    tag_67:\n        /* \"#utility.yul\":756:978   */\n      swap3\n      swap2\n      pop\n      pop\n      jump\t// out\n        /* \"#utility.yul\":984:1316   */\n    tag_29:\n        /* \"#utility.yul\":1105:1109   */\n      0x00\n        /* \"#utility.yul\":1143:1145   */\n      0x40\n        /* \"#utility.yul\":1132:1141   */\n      dup3\n        /* \"#utility.yul\":1128:1146   */\n      add\n        /* \"#utility.yul\":1120:1146   */\n      swap1\n      pop\n        /* \"#utility.yul\":1156:1227   */\n      tag_69\n        /* \"#utility.yul\":1224:1225   */\n      0x00\n        /* \"#utility.yul\":1213:1222   */\n      dup4\n        /* \"#utility.yul\":1209:1226   */\n      add\n        /* \"#utility.yul\":1200:1206   */\n      dup6\n        /* \"#utility.yul\":1156:1227   */\n      tag_62\n      jump\t// in\n    tag_69:\n        /* \"#utility.yul\":1237:1309   */\n      tag_70\n        /* \"#utility.yul\":1305:1307   */\n      0x20\n        /* \"#utility.yul\":1294:1303   */\n      dup4\n        /* \"#utility.yul\":1290:1308   */\n      add\n        /* \"#utility.yul\":1281:1287   */\n      dup5\n        /* \"#utility.yul\":1237:1309   */\n      tag_62\n      jump\t// in\n    tag_70:\n        /* \"#utility.yul\":984:1316   */\n      swap4\n      swap3\n      pop\n      pop\n      pop\n      jump\t// out\n        /* \"#utility.yul\":1403:1708   */\n    tag_44:\n        /* \"#utility.yul\":1443:1446   */\n      0x00\n        /* \"#utility.yul\":1462:1482   */\n      tag_74\n        /* \"#utility.yul\":1480:1481   */\n      dup3\n        /* \"#utility.yul\":1462:1482   */\n      tag_65\n      jump\t// in\n    tag_74:\n        /* \"#utility.yul\":1457:1482   */\n      swap2\n      pop\n        /* \"#utility.yul\":1496:1516   */\n      tag_75\n        /* \"#utility.yul\":1514:1515   */\n      dup4\n        /* \"#utility.yul\":1496:1516   */\n      tag_65\n      jump\t// in\n    tag_75:\n        /* \"#utility.yul\":1491:1516   */\n      swap3\n      pop\n        /* \"#utility.yul\":1650:1651   */\n      dup3\n        /* \"#utility.yul\":1582:1648   */\n      0xffffffffffffffffffffffffffffffffffffffffffffffffffffffffffffffff\n        /* \"#utility.yul\":1578:1652   */\n      sub\n        /* \"#utility.yul\":1575:1576   */\n      dup3\n        /* \"#utility.yul\":1572:1653   */\n      gt\n        /* \"#utility.yul\":1569:1676   */\n      iszero\n      tag_76\n      jumpi\n        /* \"#utility.yul\":1656:1674   */\n      tag_77\n      tag_78\n      jump\t// in\n    tag_77:\n        /* \"#utility.yul\":1569:1676   */\n    tag_76:\n        /* \"#utility.yul\":1700:1701   */\n      dup3\n        /* \"#utility.yul\":1697:1698   */\n      dup3\n        /* \"#utility.yul\":1693:1702   */\n      add\n        /* \"#utility.yul\":1686:1702   */\n      swap1\n      pop\n        /* \"#utility.yul\":1403:1708   */\n      swap3\n      swap2\n      pop\n      pop\n      jump\t// out\n        /* \"#utility.yul\":1714:2062   */\n    tag_46:\n        /* \"#utility.yul\":1754:1761   */\n      0x00\n        /* \"#utility.yul\":1777:1797   */\n      tag_80\n        /* \"#utility.yul\":1795:1796   */\n      dup3\n        /* \"#utility.yul\":1777:1797   */\n      tag_65\n      jump\t// in\n    tag_80:\n        /* \"#utility.yul\":1772:1797   */\n      swap2\n      pop\n        /* \"#utility.yul\":1811:1831   */\n      tag_81\n        /* \"#utility.yul\":1829:1830   */\n      dup4\n        /* \"#utility.yul\":1811:1831   */\n      tag_65\n      jump\t// in\n    tag_81:\n        /* \"#utility.yul\":1806:1831   */\n      swap3\n      pop\n        /* \"#utility.yul\":1999:2000   */\n      dup2\n        /* \"#utility.yul\":1931:1997   */\n      0xffffffffffffffffffffffffffffffffffffffffffffffffffffffffffffffff\n        /* \"#utility.yul\":1927:2001   */\n      div\n        /* \"#utility.yul\":1924:1925   */\n      dup4\n        /* \"#utility.yul\":1921:2002   */\n      gt\n        /* \"#utility.yul\":1916:1917   */\n      dup3\n        /* \"#utility.yul\":1909:1918   */\n      iszero\n        /* \"#utility.yul\":1902:1919   */\n      iszero\n        /* \"#utility.yul\":1898:2003   */\n      and\n        /* \"#utility.yul\":1895:2026   */\n      iszero\n      tag_82\n      jumpi\n        /* \"#utility.yul\":2006:2024   */\n      tag_83\n      tag_78\n      jump\t// in\n    tag_83:\n        /* \"#utility.yul\":1895:2026   */\n    tag_82:\n        /* \"#utility.yul\":2054:2055   */\n      dup3\n        /* \"#utility.yul\":2051:2052   */\n      dup3\n        /* \"#utility.yul\":2047:2056   */\n      mul\n        /* \"#utility.yul\":2036:2056   */\n      swap1\n      pop\n        /* \"#utility.yul\":1714:2062   */\n      swap3\n      swap2\n      pop\n      pop\n      jump\t// out\n        /* \"#utility.yul\":2068:2145   */\n    tag_65:\n        /* \"#utility.yul\":2105:2112   */\n      0x00\n        /* \"#utility.yul\":2134:2139   */\n      dup2\n        /* \"#utility.yul\":2123:2139   */\n      swap1\n      pop\n        /* \"#utility.yul\":2068:2145   */\n      swap2\n      swap1\n      pop\n      jump\t// out\n        /* \"#utility.yul\":2151:2331   */\n    tag_78:\n        /* \"#utility.yul\":2199:2276   */\n      0x4e487b7100000000000000000000000000000000000000000000000000000000\n        /* \"#utility.yul\":2196:2197   */\n      0x00\n        /* \"#utility.yul\":2189:2277   */\n      mstore\n        /* \"#utility.yul\":2296:2300   */\n      0x11\n        /* \"#utility.yul\":2293:2294   */\n      0x04\n        /* \"#utility.yul\":2286:2301   */\n      mstore\n        /* \"#utility.yul\":2320:2324   */\n      0x24\n        /* \"#utility.yul\":2317:2318   */\n      0x00\n        /* \"#utility.yul\":2310:2325   */\n      revert\n        /* \"#utility.yul\":2460:2577   */\n    tag_59:\n        /* \"#utility.yul\":2569:2570   */\n      0x00\n        /* \"#utility.yul\":2566:2567   */\n      dup1\n        /* \"#utility.yul\":2559:2571   */\n      revert\n        /* \"#utility.yul\":2583:2705   */\n    tag_55:\n        /* \"#utility.yul\":2656:2680   */\n      tag_90\n        /* \"#utility.yul\":2674:2679   */\n      dup2\n        /* \"#utility.yul\":2656:2680   */\n      tag_65\n      jump\t// in\n    tag_90:\n        /* \"#utility.yul\":2649:2654   */\n      dup2\n        /* \"#utility.yul\":2646:2681   */\n      eq\n        /* \"#utility.yul\":2636:2699   */\n      tag_91\n      jumpi\n        /* \"#utility.yul\":2695:2696   */\n      0x00\n        /* \"#utility.yul\":2692:2693   */\n      dup1\n        /* \"#utility.yul\":2685:2697   */\n      revert\n        /* \"#utility.yul\":2636:2699   */\n    tag_91:\n        /* \"#utility.yul\":2583:2705   */\n      pop\n      jump\t// out\n\n    auxdata: 0xa2646970667358221220fd4620378a9c7ed6764ff28cd3254b4828663a43be82b2c31d4fe1bda6a039c464736f6c63430008070033\n}\n",
				"bytecode": {
					"linkReferences": {},
					"object": "608060405234801561001057600080fd5b50610408806100206000396000f3fe608060405234801561001057600080fd5b506004361061007d5760003560e01c8063a05f46db1161005b578063a05f46db146100dc578063ab2b9ab7146100fa578063cdd51d301461012b578063ea7000eb1461015c5761007d565b80632d8026901461008257806357ecc147146100a0578063645988d0146100be575b600080fd5b61008a61018d565b6040516100979190610289565b60405180910390f35b6100a86101a0565b6040516100b59190610289565b60405180910390f35b6100c66101ae565b6040516100d39190610289565b60405180910390f35b6100e46101b7565b6040516100f19190610289565b60405180910390f35b610114600480360381019061010f919061023a565b6101c9565b6040516101229291906102a4565b60405180910390f35b6101456004803603810190610140919061023a565b6101ef565b6040516101539291906102a4565b60405180910390f35b6101766004803603810190610171919061023a565b610215565b6040516101849291906102a4565b60405180910390f35b600080600a905060649150600191505090565b600080600a90508091505090565b6000600a905090565b600080600a9050606491508091505090565b60008082846101d891906102cd565b915082846101e69190610323565b90509250929050565b60008082846101fe91906102cd565b838561020a9190610323565b915091509250929050565b6000808284915091509250929050565b600081359050610234816103bb565b92915050565b60008060408385031215610251576102506103b6565b5b600061025f85828601610225565b925050602061027085828601610225565b9150509250929050565b6102838161037d565b82525050565b600060208201905061029e600083018461027a565b92915050565b60006040820190506102b9600083018561027a565b6102c6602083018461027a565b9392505050565b60006102d88261037d565b91506102e38361037d565b9250827fffffffffffffffffffffffffffffffffffffffffffffffffffffffffffffffff0382111561031857610317610387565b5b828201905092915050565b600061032e8261037d565b91506103398361037d565b9250817fffffffffffffffffffffffffffffffffffffffffffffffffffffffffffffffff048311821515161561037257610371610387565b5b828202905092915050565b6000819050919050565b7f4e487b7100000000000000000000000000000000000000000000000000000000600052601160045260246000fd5b600080fd5b6103c48161037d565b81146103cf57600080fd5b5056fea2646970667358221220fd4620378a9c7ed6764ff28cd3254b4828663a43be82b2c31d4fe1bda6a039c464736f6c63430008070033",
					"opcodes": "PUSH1 0x80 PUSH1 0x40 MSTORE CALLVALUE DUP1 ISZERO PUSH2 0x10 JUMPI PUSH1 0x0 DUP1 REVERT JUMPDEST POP PUSH2 0x408 DUP1 PUSH2 0x20 PUSH1 0x0 CODECOPY PUSH1 0x0 RETURN INVALID PUSH1 0x80 PUSH1 0x40 MSTORE CALLVALUE DUP1 ISZERO PUSH2 0x10 JUMPI PUSH1 0x0 DUP1 REVERT JUMPDEST POP PUSH1 0x4 CALLDATASIZE LT PUSH2 0x7D JUMPI PUSH1 0x0 CALLDATALOAD PUSH1 0xE0 SHR DUP1 PUSH4 0xA05F46DB GT PUSH2 0x5B JUMPI DUP1 PUSH4 0xA05F46DB EQ PUSH2 0xDC JUMPI DUP1 PUSH4 0xAB2B9AB7 EQ PUSH2 0xFA JUMPI DUP1 PUSH4 0xCDD51D30 EQ PUSH2 0x12B JUMPI DUP1 PUSH4 0xEA7000EB EQ PUSH2 0x15C JUMPI PUSH2 0x7D JUMP JUMPDEST DUP1 PUSH4 0x2D802690 EQ PUSH2 0x82 JUMPI DUP1 PUSH4 0x57ECC147 EQ PUSH2 0xA0 JUMPI DUP1 PUSH4 0x645988D0 EQ PUSH2 0xBE JUMPI JUMPDEST PUSH1 0x0 DUP1 REVERT JUMPDEST PUSH2 0x8A PUSH2 0x18D JUMP JUMPDEST PUSH1 0x40 MLOAD PUSH2 0x97 SWAP2 SWAP1 PUSH2 0x289 JUMP JUMPDEST PUSH1 0x40 MLOAD DUP1 SWAP2 SUB SWAP1 RETURN JUMPDEST PUSH2 0xA8 PUSH2 0x1A0 JUMP JUMPDEST PUSH1 0x40 MLOAD PUSH2 0xB5 SWAP2 SWAP1 PUSH2 0x289 JUMP JUMPDEST PUSH1 0x40 MLOAD DUP1 SWAP2 SUB SWAP1 RETURN JUMPDEST PUSH2 0xC6 PUSH2 0x1AE JUMP JUMPDEST PUSH1 0x40 MLOAD PUSH2 0xD3 SWAP2 SWAP1 PUSH2 0x289 JUMP JUMPDEST PUSH1 0x40 MLOAD DUP1 SWAP2 SUB SWAP1 RETURN JUMPDEST PUSH2 0xE4 PUSH2 0x1B7 JUMP JUMPDEST PUSH1 0x40 MLOAD PUSH2 0xF1 SWAP2 SWAP1 PUSH2 0x289 JUMP JUMPDEST PUSH1 0x40 MLOAD DUP1 SWAP2 SUB SWAP1 RETURN JUMPDEST PUSH2 0x114 PUSH1 0x4 DUP1 CALLDATASIZE SUB DUP2 ADD SWAP1 PUSH2 0x10F SWAP2 SWAP1 PUSH2 0x23A JUMP JUMPDEST PUSH2 0x1C9 JUMP JUMPDEST PUSH1 0x40 MLOAD PUSH2 0x122 SWAP3 SWAP2 SWAP1 PUSH2 0x2A4 JUMP JUMPDEST PUSH1 0x40 MLOAD DUP1 SWAP2 SUB SWAP1 RETURN JUMPDEST PUSH2 0x145 PUSH1 0x4 DUP1 CALLDATASIZE SUB DUP2 ADD SWAP1 PUSH2 0x140 SWAP2 SWAP1 PUSH2 0x23A JUMP JUMPDEST PUSH2 0x1EF JUMP JUMPDEST PUSH1 0x40 MLOAD PUSH2 0x153 SWAP3 SWAP2 SWAP1 PUSH2 0x2A4 JUMP JUMPDEST PUSH1 0x40 MLOAD DUP1 SWAP2 SUB SWAP1 RETURN JUMPDEST PUSH2 0x176 PUSH1 0x4 DUP1 CALLDATASIZE SUB DUP2 ADD SWAP1 PUSH2 0x171 SWAP2 SWAP1 PUSH2 0x23A JUMP JUMPDEST PUSH2 0x215 JUMP JUMPDEST PUSH1 0x40 MLOAD PUSH2 0x184 SWAP3 SWAP2 SWAP1 PUSH2 0x2A4 JUMP JUMPDEST PUSH1 0x40 MLOAD DUP1 SWAP2 SUB SWAP1 RETURN JUMPDEST PUSH1 0x0 DUP1 PUSH1 0xA SWAP1 POP PUSH1 0x64 SWAP2 POP PUSH1 0x1 SWAP2 POP POP SWAP1 JUMP JUMPDEST PUSH1 0x0 DUP1 PUSH1 0xA SWAP1 POP DUP1 SWAP2 POP POP SWAP1 JUMP JUMPDEST PUSH1 0x0 PUSH1 0xA SWAP1 POP SWAP1 JUMP JUMPDEST PUSH1 0x0 DUP1 PUSH1 0xA SWAP1 POP PUSH1 0x64 SWAP2 POP DUP1 SWAP2 POP POP SWAP1 JUMP JUMPDEST PUSH1 0x0 DUP1 DUP3 DUP5 PUSH2 0x1D8 SWAP2 SWAP1 PUSH2 0x2CD JUMP JUMPDEST SWAP2 POP DUP3 DUP5 PUSH2 0x1E6 SWAP2 SWAP1 PUSH2 0x323 JUMP JUMPDEST SWAP1 POP SWAP3 POP SWAP3 SWAP1 POP JUMP JUMPDEST PUSH1 0x0 DUP1 DUP3 DUP5 PUSH2 0x1FE SWAP2 SWAP1 PUSH2 0x2CD JUMP JUMPDEST DUP4 DUP6 PUSH2 0x20A SWAP2 SWAP1 PUSH2 0x323 JUMP JUMPDEST SWAP2 POP SWAP2 POP SWAP3 POP SWAP3 SWAP1 POP JUMP JUMPDEST PUSH1 0x0 DUP1 DUP3 DUP5 SWAP2 POP SWAP2 POP SWAP3 POP SWAP3 SWAP1 POP JUMP JUMPDEST PUSH1 0x0 DUP2 CALLDATALOAD SWAP1 POP PUSH2 0x234 DUP2 PUSH2 0x3BB JUMP JUMPDEST SWAP3 SWAP2 POP POP JUMP JUMPDEST PUSH1 0x0 DUP1 PUSH1 0x40 DUP4 DUP6 SUB SLT ISZERO PUSH2 0x251 JUMPI PUSH2 0x250 PUSH2 0x3B6 JUMP JUMPDEST JUMPDEST PUSH1 0x0 PUSH2 0x25F DUP6 DUP3 DUP7 ADD PUSH2 0x225 JUMP JUMPDEST SWAP3 POP POP PUSH1 0x20 PUSH2 0x270 DUP6 DUP3 DUP7 ADD PUSH2 0x225 JUMP JUMPDEST SWAP2 POP POP SWAP3 POP SWAP3 SWAP1 POP JUMP JUMPDEST PUSH2 0x283 DUP2 PUSH2 0x37D JUMP JUMPDEST DUP3 MSTORE POP POP JUMP JUMPDEST PUSH1 0x0 PUSH1 0x20 DUP3 ADD SWAP1 POP PUSH2 0x29E PUSH1 0x0 DUP4 ADD DUP5 PUSH2 0x27A JUMP JUMPDEST SWAP3 SWAP2 POP POP JUMP JUMPDEST PUSH1 0x0 PUSH1 0x40 DUP3 ADD SWAP1 POP PUSH2 0x2B9 PUSH1 0x0 DUP4 ADD DUP6 PUSH2 0x27A JUMP JUMPDEST PUSH2 0x2C6 PUSH1 0x20 DUP4 ADD DUP5 PUSH2 0x27A JUMP JUMPDEST SWAP4 SWAP3 POP POP POP JUMP JUMPDEST PUSH1 0x0 PUSH2 0x2D8 DUP3 PUSH2 0x37D JUMP JUMPDEST SWAP2 POP PUSH2 0x2E3 DUP4 PUSH2 0x37D JUMP JUMPDEST SWAP3 POP DUP3 PUSH32 0xFFFFFFFFFFFFFFFFFFFFFFFFFFFFFFFFFFFFFFFFFFFFFFFFFFFFFFFFFFFFFFFF SUB DUP3 GT ISZERO PUSH2 0x318 JUMPI PUSH2 0x317 PUSH2 0x387 JUMP JUMPDEST JUMPDEST DUP3 DUP3 ADD SWAP1 POP SWAP3 SWAP2 POP POP JUMP JUMPDEST PUSH1 0x0 PUSH2 0x32E DUP3 PUSH2 0x37D JUMP JUMPDEST SWAP2 POP PUSH2 0x339 DUP4 PUSH2 0x37D JUMP JUMPDEST SWAP3 POP DUP2 PUSH32 0xFFFFFFFFFFFFFFFFFFFFFFFFFFFFFFFFFFFFFFFFFFFFFFFFFFFFFFFFFFFFFFFF DIV DUP4 GT DUP3 ISZERO ISZERO AND ISZERO PUSH2 0x372 JUMPI PUSH2 0x371 PUSH2 0x387 JUMP JUMPDEST JUMPDEST DUP3 DUP3 MUL SWAP1 POP SWAP3 SWAP2 POP POP JUMP JUMPDEST PUSH1 0x0 DUP2 SWAP1 POP SWAP2 SWAP1 POP JUMP JUMPDEST PUSH32 0x4E487B7100000000000000000000000000000000000000000000000000000000 PUSH1 0x0 MSTORE PUSH1 0x11 PUSH1 0x4 MSTORE PUSH1 0x24 PUSH1 0x0 REVERT JUMPDEST PUSH1 0x0 DUP1 REVERT JUMPDEST PUSH2 0x3C4 DUP2 PUSH2 0x37D JUMP JUMPDEST DUP2 EQ PUSH2 0x3CF JUMPI PUSH1 0x0 DUP1 REVERT JUMPDEST POP JUMP INVALID LOG2 PUSH5 0x6970667358 0x22 SLT KECCAK256 REVERT CHAINID KECCAK256 CALLDATACOPY DUP11 SWAP13 PUSH31 0xD6764FF28CD3254B4828663A43BE82B2C31D4FE1BDA6A039C464736F6C6343 STOP ADDMOD SMOD STOP CALLER "
				},
				"gasEstimates": {
					"creation": {
						"codeDepositCost": "206400",
						"executionCost": "251",
						"totalCost": "206651"
					},
					"external": {
						"returnTest()": "373",
						"returnTest2()": "382",
						"returnTest3()": "358",
						"returnTest4()": "359",
						"returnTest5(uint256,uint256)": "infinite",
						"returnTest6(uint256,uint256)": "infinite",
						"returnTest7(uint256,uint256)": "infinite"
					}
				},
				"methodIdentifiers": {
					"returnTest()": "57ecc147",
					"returnTest2()": "645988d0",
					"returnTest3()": "a05f46db",
					"returnTest4()": "2d802690",
					"returnTest5(uint256,uint256)": "ab2b9ab7",
					"returnTest6(uint256,uint256)": "cdd51d30",
					"returnTest7(uint256,uint256)": "ea7000eb"
				}
			},
			"storageLayout": {
				"storage": [],
				"types": null
			},
			"userdoc": {
				"kind": "user",
				"methods": {},
				"version": 1
			}
		}
	}
}