{
	"函数返回值/funreturn1.sol": {
		"funreturn": {
			"abi": [
				{
					"inputs": [],
					"name": "callFunc",
					"outputs": [
						{
							"internalType": "uint256",
							"name": "",
							"type": "uint256"
						},
						{
							"internalType": "uint256",
							"name": "",
							"type": "uint256"
						}
					],
					"stateMutability": "pure",
					"type": "function"
				},
				{
					"inputs": [],
					"name": "callFunc1",
					"outputs": [
						{
							"internalType": "uint256",
							"name": "",
							"type": "uint256"
						},
						{
							"internalType": "uint256",
							"name": "",
							"type": "uint256"
						}
					],
					"stateMutability": "pure",
					"type": "function"
				},
				{
					"inputs": [],
					"name": "callFunc2",
					"outputs": [
						{
							"internalType": "uint256",
							"name": "",
							"type": "uint256"
						},
						{
							"internalType": "uint256",
							"name": "",
							"type": "uint256"
						}
					],
					"stateMutability": "view",
					"type": "function"
				}
			],
			"devdoc": {
				"kind": "dev",
				"methods": {},
				"version": 1
			},
			"evm": {
				"assembly": "    /* \"\\xe5\\x87\\xbd\\xe6\\x95\\xb0\\xe8\\xbf\\x94\\xe5\\x9b\\x9e\\xe5\\x80\\xbc/funreturn1.sol\":60:802  contract funreturn {\r... */\n  mstore(0x40, 0x80)\n  callvalue\n  dup1\n  iszero\n  tag_1\n  jumpi\n  0x00\n  dup1\n  revert\ntag_1:\n  pop\n  dataSize(sub_0)\n  dup1\n  dataOffset(sub_0)\n  0x00\n  codecopy\n  0x00\n  return\nstop\n\nsub_0: assembly {\n        /* \"\\xe5\\x87\\xbd\\xe6\\x95\\xb0\\xe8\\xbf\\x94\\xe5\\x9b\\x9e\\xe5\\x80\\xbc/funreturn1.sol\":60:802  contract funreturn {\r... */\n      mstore(0x40, 0x80)\n      callvalue\n      dup1\n      iszero\n      tag_1\n      jumpi\n      0x00\n      dup1\n      revert\n    tag_1:\n      pop\n      jumpi(tag_2, lt(calldatasize, 0x04))\n      shr(0xe0, calldataload(0x00))\n      dup1\n      0x9a7846b9\n      eq\n      tag_3\n      jumpi\n      dup1\n      0xd3ac2e67\n      eq\n      tag_4\n      jumpi\n      dup1\n      0xe2c37ead\n      eq\n      tag_5\n      jumpi\n    tag_2:\n      0x00\n      dup1\n      revert\n        /* \"\\xe5\\x87\\xbd\\xe6\\x95\\xb0\\xe8\\xbf\\x94\\xe5\\x9b\\x9e\\xe5\\x80\\xbc/funreturn1.sol\":255:385  function callFunc() public pure returns(uint, uint) {\r... */\n    tag_3:\n      tag_6\n      tag_7\n      jump\t// in\n    tag_6:\n      mload(0x40)\n      tag_8\n      swap3\n      swap2\n      swap1\n      tag_9\n      jump\t// in\n    tag_8:\n      mload(0x40)\n      dup1\n      swap2\n      sub\n      swap1\n      return\n        /* \"\\xe5\\x87\\xbd\\xe6\\x95\\xb0\\xe8\\xbf\\x94\\xe5\\x9b\\x9e\\xe5\\x80\\xbc/funreturn1.sol\":674:799  function callFunc2() public view returns(uint, uint) {\r... */\n    tag_4:\n      tag_10\n      tag_11\n      jump\t// in\n    tag_10:\n      mload(0x40)\n      tag_12\n      swap3\n      swap2\n      swap1\n      tag_9\n      jump\t// in\n    tag_12:\n      mload(0x40)\n      dup1\n      swap2\n      sub\n      swap1\n      return\n        /* \"\\xe5\\x87\\xbd\\xe6\\x95\\xb0\\xe8\\xbf\\x94\\xe5\\x9b\\x9e\\xe5\\x80\\xbc/funreturn1.sol\":445:602  function callFunc1() public pure returns(uint, uint) {\r... */\n    tag_5:\n      tag_13\n      tag_14\n      jump\t// in\n    tag_13:\n      mload(0x40)\n      tag_15\n      swap3\n      swap2\n      swap1\n      tag_9\n      jump\t// in\n    tag_15:\n      mload(0x40)\n      dup1\n      swap2\n      sub\n      swap1\n      return\n        /* \"\\xe5\\x87\\xbd\\xe6\\x95\\xb0\\xe8\\xbf\\x94\\xe5\\x9b\\x9e\\xe5\\x80\\xbc/funreturn1.sol\":255:385  function callFunc() public pure returns(uint, uint) {\r... */\n    tag_7:\n        /* \"\\xe5\\x87\\xbd\\xe6\\x95\\xb0\\xe8\\xbf\\x94\\xe5\\x9b\\x9e\\xe5\\x80\\xbc/funreturn1.sol\":295:299  uint */\n      0x00\n        /* \"\\xe5\\x87\\xbd\\xe6\\x95\\xb0\\xe8\\xbf\\x94\\xe5\\x9b\\x9e\\xe5\\x80\\xbc/funreturn1.sol\":301:305  uint */\n      dup1\n        /* \"\\xe5\\x87\\xbd\\xe6\\x95\\xb0\\xe8\\xbf\\x94\\xe5\\x9b\\x9e\\xe5\\x80\\xbc/funreturn1.sol\":319:326  uint r1 */\n      0x00\n        /* \"\\xe5\\x87\\xbd\\xe6\\x95\\xb0\\xe8\\xbf\\x94\\xe5\\x9b\\x9e\\xe5\\x80\\xbc/funreturn1.sol\":328:335  uint r2 */\n      dup1\n        /* \"\\xe5\\x87\\xbd\\xe6\\x95\\xb0\\xe8\\xbf\\x94\\xe5\\x9b\\x9e\\xe5\\x80\\xbc/funreturn1.sol\":339:351  returnFunc() */\n      tag_17\n        /* \"\\xe5\\x87\\xbd\\xe6\\x95\\xb0\\xe8\\xbf\\x94\\xe5\\x9b\\x9e\\xe5\\x80\\xbc/funreturn1.sol\":339:349  returnFunc */\n      tag_18\n        /* \"\\xe5\\x87\\xbd\\xe6\\x95\\xb0\\xe8\\xbf\\x94\\xe5\\x9b\\x9e\\xe5\\x80\\xbc/funreturn1.sol\":339:351  returnFunc() */\n      jump\t// in\n    tag_17:\n        /* \"\\xe5\\x87\\xbd\\xe6\\x95\\xb0\\xe8\\xbf\\x94\\xe5\\x9b\\x9e\\xe5\\x80\\xbc/funreturn1.sol\":318:351  (uint r1, uint r2) = returnFunc() */\n      swap2\n      pop\n      swap2\n      pop\n        /* \"\\xe5\\x87\\xbd\\xe6\\x95\\xb0\\xe8\\xbf\\x94\\xe5\\x9b\\x9e\\xe5\\x80\\xbc/funreturn1.sol\":370:372  r1 */\n      dup2\n        /* \"\\xe5\\x87\\xbd\\xe6\\x95\\xb0\\xe8\\xbf\\x94\\xe5\\x9b\\x9e\\xe5\\x80\\xbc/funreturn1.sol\":374:376  r2 */\n      dup2\n        /* \"\\xe5\\x87\\xbd\\xe6\\x95\\xb0\\xe8\\xbf\\x94\\xe5\\x9b\\x9e\\xe5\\x80\\xbc/funreturn1.sol\":362:377  return (r1, r2) */\n      swap4\n      pop\n      swap4\n      pop\n      pop\n      pop\n        /* \"\\xe5\\x87\\xbd\\xe6\\x95\\xb0\\xe8\\xbf\\x94\\xe5\\x9b\\x9e\\xe5\\x80\\xbc/funreturn1.sol\":255:385  function callFunc() public pure returns(uint, uint) {\r... */\n      swap1\n      swap2\n      jump\t// out\n        /* \"\\xe5\\x87\\xbd\\xe6\\x95\\xb0\\xe8\\xbf\\x94\\xe5\\x9b\\x9e\\xe5\\x80\\xbc/funreturn1.sol\":674:799  function callFunc2() public view returns(uint, uint) {\r... */\n    tag_11:\n        /* \"\\xe5\\x87\\xbd\\xe6\\x95\\xb0\\xe8\\xbf\\x94\\xe5\\x9b\\x9e\\xe5\\x80\\xbc/funreturn1.sol\":715:719  uint */\n      0x00\n        /* \"\\xe5\\x87\\xbd\\xe6\\x95\\xb0\\xe8\\xbf\\x94\\xe5\\x9b\\x9e\\xe5\\x80\\xbc/funreturn1.sol\":721:725  uint */\n      dup1\n        /* \"\\xe5\\x87\\xbd\\xe6\\x95\\xb0\\xe8\\xbf\\x94\\xe5\\x9b\\x9e\\xe5\\x80\\xbc/funreturn1.sol\":739:746  uint r1 */\n      0x00\n        /* \"\\xe5\\x87\\xbd\\xe6\\x95\\xb0\\xe8\\xbf\\x94\\xe5\\x9b\\x9e\\xe5\\x80\\xbc/funreturn1.sol\":752:764  returnFunc() */\n      tag_20\n        /* \"\\xe5\\x87\\xbd\\xe6\\x95\\xb0\\xe8\\xbf\\x94\\xe5\\x9b\\x9e\\xe5\\x80\\xbc/funreturn1.sol\":752:762  returnFunc */\n      tag_18\n        /* \"\\xe5\\x87\\xbd\\xe6\\x95\\xb0\\xe8\\xbf\\x94\\xe5\\x9b\\x9e\\xe5\\x80\\xbc/funreturn1.sol\":752:764  returnFunc() */\n      jump\t// in\n    tag_20:\n        /* \"\\xe5\\x87\\xbd\\xe6\\x95\\xb0\\xe8\\xbf\\x94\\xe5\\x9b\\x9e\\xe5\\x80\\xbc/funreturn1.sol\":738:764  (uint r1, ) = returnFunc() */\n      pop\n      swap1\n      pop\n        /* \"\\xe5\\x87\\xbd\\xe6\\x95\\xb0\\xe8\\xbf\\x94\\xe5\\x9b\\x9e\\xe5\\x80\\xbc/funreturn1.sol\":783:785  r1 */\n      dup1\n        /* \"\\xe5\\x87\\xbd\\xe6\\x95\\xb0\\xe8\\xbf\\x94\\xe5\\x9b\\x9e\\xe5\\x80\\xbc/funreturn1.sol\":787:790  100 */\n      0x64\n        /* \"\\xe5\\x87\\xbd\\xe6\\x95\\xb0\\xe8\\xbf\\x94\\xe5\\x9b\\x9e\\xe5\\x80\\xbc/funreturn1.sol\":775:791  return (r1, 100) */\n      swap3\n      pop\n      swap3\n      pop\n      pop\n        /* \"\\xe5\\x87\\xbd\\xe6\\x95\\xb0\\xe8\\xbf\\x94\\xe5\\x9b\\x9e\\xe5\\x80\\xbc/funreturn1.sol\":674:799  function callFunc2() public view returns(uint, uint) {\r... */\n      swap1\n      swap2\n      jump\t// out\n        /* \"\\xe5\\x87\\xbd\\xe6\\x95\\xb0\\xe8\\xbf\\x94\\xe5\\x9b\\x9e\\xe5\\x80\\xbc/funreturn1.sol\":445:602  function callFunc1() public pure returns(uint, uint) {\r... */\n    tag_14:\n        /* \"\\xe5\\x87\\xbd\\xe6\\x95\\xb0\\xe8\\xbf\\x94\\xe5\\x9b\\x9e\\xe5\\x80\\xbc/funreturn1.sol\":486:490  uint */\n      0x00\n        /* \"\\xe5\\x87\\xbd\\xe6\\x95\\xb0\\xe8\\xbf\\x94\\xe5\\x9b\\x9e\\xe5\\x80\\xbc/funreturn1.sol\":492:496  uint */\n      dup1\n        /* \"\\xe5\\x87\\xbd\\xe6\\x95\\xb0\\xe8\\xbf\\x94\\xe5\\x9b\\x9e\\xe5\\x80\\xbc/funreturn1.sol\":509:516  uint r1 */\n      0x00\n        /* \"\\xe5\\x87\\xbd\\xe6\\x95\\xb0\\xe8\\xbf\\x94\\xe5\\x9b\\x9e\\xe5\\x80\\xbc/funreturn1.sol\":527:534  uint r2 */\n      dup1\n        /* \"\\xe5\\x87\\xbd\\xe6\\x95\\xb0\\xe8\\xbf\\x94\\xe5\\x9b\\x9e\\xe5\\x80\\xbc/funreturn1.sol\":556:568  returnFunc() */\n      tag_22\n        /* \"\\xe5\\x87\\xbd\\xe6\\x95\\xb0\\xe8\\xbf\\x94\\xe5\\x9b\\x9e\\xe5\\x80\\xbc/funreturn1.sol\":556:566  returnFunc */\n      tag_18\n        /* \"\\xe5\\x87\\xbd\\xe6\\x95\\xb0\\xe8\\xbf\\x94\\xe5\\x9b\\x9e\\xe5\\x80\\xbc/funreturn1.sol\":556:568  returnFunc() */\n      jump\t// in\n    tag_22:\n        /* \"\\xe5\\x87\\xbd\\xe6\\x95\\xb0\\xe8\\xbf\\x94\\xe5\\x9b\\x9e\\xe5\\x80\\xbc/funreturn1.sol\":545:568  (r1, r2) = returnFunc() */\n      dup1\n      swap3\n      pop\n      dup2\n      swap4\n      pop\n      pop\n      pop\n        /* \"\\xe5\\x87\\xbd\\xe6\\x95\\xb0\\xe8\\xbf\\x94\\xe5\\x9b\\x9e\\xe5\\x80\\xbc/funreturn1.sol\":587:589  r1 */\n      dup2\n        /* \"\\xe5\\x87\\xbd\\xe6\\x95\\xb0\\xe8\\xbf\\x94\\xe5\\x9b\\x9e\\xe5\\x80\\xbc/funreturn1.sol\":591:593  r2 */\n      dup2\n        /* \"\\xe5\\x87\\xbd\\xe6\\x95\\xb0\\xe8\\xbf\\x94\\xe5\\x9b\\x9e\\xe5\\x80\\xbc/funreturn1.sol\":579:594  return (r1, r2) */\n      swap4\n      pop\n      swap4\n      pop\n      pop\n      pop\n        /* \"\\xe5\\x87\\xbd\\xe6\\x95\\xb0\\xe8\\xbf\\x94\\xe5\\x9b\\x9e\\xe5\\x80\\xbc/funreturn1.sol\":445:602  function callFunc1() public pure returns(uint, uint) {\r... */\n      swap1\n      swap2\n      jump\t// out\n        /* \"\\xe5\\x87\\xbd\\xe6\\x95\\xb0\\xe8\\xbf\\x94\\xe5\\x9b\\x9e\\xe5\\x80\\xbc/funreturn1.sol\":122:213  function returnFunc() private pure returns(uint a, uint b) {\r... */\n    tag_18:\n        /* \"\\xe5\\x87\\xbd\\xe6\\x95\\xb0\\xe8\\xbf\\x94\\xe5\\x9b\\x9e\\xe5\\x80\\xbc/funreturn1.sol\":165:171  uint a */\n      0x00\n        /* \"\\xe5\\x87\\xbd\\xe6\\x95\\xb0\\xe8\\xbf\\x94\\xe5\\x9b\\x9e\\xe5\\x80\\xbc/funreturn1.sol\":173:179  uint b */\n      dup1\n        /* \"\\xe5\\x87\\xbd\\xe6\\x95\\xb0\\xe8\\xbf\\x94\\xe5\\x9b\\x9e\\xe5\\x80\\xbc/funreturn1.sol\":200:201  1 */\n      0x01\n        /* \"\\xe5\\x87\\xbd\\xe6\\x95\\xb0\\xe8\\xbf\\x94\\xe5\\x9b\\x9e\\xe5\\x80\\xbc/funreturn1.sol\":203:204  2 */\n      0x02\n        /* \"\\xe5\\x87\\xbd\\xe6\\x95\\xb0\\xe8\\xbf\\x94\\xe5\\x9b\\x9e\\xe5\\x80\\xbc/funreturn1.sol\":192:205  return (1, 2) */\n      swap2\n      pop\n      swap2\n      pop\n        /* \"\\xe5\\x87\\xbd\\xe6\\x95\\xb0\\xe8\\xbf\\x94\\xe5\\x9b\\x9e\\xe5\\x80\\xbc/funreturn1.sol\":122:213  function returnFunc() private pure returns(uint a, uint b) {\r... */\n      swap1\n      swap2\n      jump\t// out\n        /* \"#utility.yul\":7:125   */\n    tag_25:\n        /* \"#utility.yul\":94:118   */\n      tag_27\n        /* \"#utility.yul\":112:117   */\n      dup2\n        /* \"#utility.yul\":94:118   */\n      tag_28\n      jump\t// in\n    tag_27:\n        /* \"#utility.yul\":89:92   */\n      dup3\n        /* \"#utility.yul\":82:119   */\n      mstore\n        /* \"#utility.yul\":7:125   */\n      pop\n      pop\n      jump\t// out\n        /* \"#utility.yul\":131:463   */\n    tag_9:\n        /* \"#utility.yul\":252:256   */\n      0x00\n        /* \"#utility.yul\":290:292   */\n      0x40\n        /* \"#utility.yul\":279:288   */\n      dup3\n        /* \"#utility.yul\":275:293   */\n      add\n        /* \"#utility.yul\":267:293   */\n      swap1\n      pop\n        /* \"#utility.yul\":303:374   */\n      tag_30\n        /* \"#utility.yul\":371:372   */\n      0x00\n        /* \"#utility.yul\":360:369   */\n      dup4\n        /* \"#utility.yul\":356:373   */\n      add\n        /* \"#utility.yul\":347:353   */\n      dup6\n        /* \"#utility.yul\":303:374   */\n      tag_25\n      jump\t// in\n    tag_30:\n        /* \"#utility.yul\":384:456   */\n      tag_31\n        /* \"#utility.yul\":452:454   */\n      0x20\n        /* \"#utility.yul\":441:450   */\n      dup4\n        /* \"#utility.yul\":437:455   */\n      add\n        /* \"#utility.yul\":428:434   */\n      dup5\n        /* \"#utility.yul\":384:456   */\n      tag_25\n      jump\t// in\n    tag_31:\n        /* \"#utility.yul\":131:463   */\n      swap4\n      swap3\n      pop\n      pop\n      pop\n      jump\t// out\n        /* \"#utility.yul\":469:546   */\n    tag_28:\n        /* \"#utility.yul\":506:513   */\n      0x00\n        /* \"#utility.yul\":535:540   */\n      dup2\n        /* \"#utility.yul\":524:540   */\n      swap1\n      pop\n        /* \"#utility.yul\":469:546   */\n      swap2\n      swap1\n      pop\n      jump\t// out\n\n    auxdata: 0xa2646970667358221220d6a035e5738158212c237947073c39470bae056cfc81c41c3cd050474f51b2a164736f6c63430008070033\n}\n",
				"bytecode": {
					"linkReferences": {},
					"object": "608060405234801561001057600080fd5b50610186806100206000396000f3fe608060405234801561001057600080fd5b50600436106100415760003560e01c80639a7846b914610046578063d3ac2e6714610065578063e2c37ead14610084575b600080fd5b61004e6100a3565b60405161005c92919061011d565b60405180910390f35b61006d6100c1565b60405161007b92919061011d565b60405180910390f35b61008c6100dd565b60405161009a92919061011d565b60405180910390f35b6000806000806100b16100ff565b9150915081819350935050509091565b60008060006100ce6100ff565b50905080606492509250509091565b6000806000806100eb6100ff565b809250819350505081819350935050509091565b60008060016002915091509091565b61011781610146565b82525050565b6000604082019050610132600083018561010e565b61013f602083018461010e565b9392505050565b600081905091905056fea2646970667358221220d6a035e5738158212c237947073c39470bae056cfc81c41c3cd050474f51b2a164736f6c63430008070033",
					"opcodes": "PUSH1 0x80 PUSH1 0x40 MSTORE CALLVALUE DUP1 ISZERO PUSH2 0x10 JUMPI PUSH1 0x0 DUP1 REVERT JUMPDEST POP PUSH2 0x186 DUP1 PUSH2 0x20 PUSH1 0x0 CODECOPY PUSH1 0x0 RETURN INVALID PUSH1 0x80 PUSH1 0x40 MSTORE CALLVALUE DUP1 ISZERO PUSH2 0x10 JUMPI PUSH1 0x0 DUP1 REVERT JUMPDEST POP PUSH1 0x4 CALLDATASIZE LT PUSH2 0x41 JUMPI PUSH1 0x0 CALLDATALOAD PUSH1 0xE0 SHR DUP1 PUSH4 0x9A7846B9 EQ PUSH2 0x46 JUMPI DUP1 PUSH4 0xD3AC2E67 EQ PUSH2 0x65 JUMPI DUP1 PUSH4 0xE2C37EAD EQ PUSH2 0x84 JUMPI JUMPDEST PUSH1 0x0 DUP1 REVERT JUMPDEST PUSH2 0x4E PUSH2 0xA3 JUMP JUMPDEST PUSH1 0x40 MLOAD PUSH2 0x5C SWAP3 SWAP2 SWAP1 PUSH2 0x11D JUMP JUMPDEST PUSH1 0x40 MLOAD DUP1 SWAP2 SUB SWAP1 RETURN JUMPDEST PUSH2 0x6D PUSH2 0xC1 JUMP JUMPDEST PUSH1 0x40 MLOAD PUSH2 0x7B SWAP3 SWAP2 SWAP1 PUSH2 0x11D JUMP JUMPDEST PUSH1 0x40 MLOAD DUP1 SWAP2 SUB SWAP1 RETURN JUMPDEST PUSH2 0x8C PUSH2 0xDD JUMP JUMPDEST PUSH1 0x40 MLOAD PUSH2 0x9A SWAP3 SWAP2 SWAP1 PUSH2 0x11D JUMP JUMPDEST PUSH1 0x40 MLOAD DUP1 SWAP2 SUB SWAP1 RETURN JUMPDEST PUSH1 0x0 DUP1 PUSH1 0x0 DUP1 PUSH2 0xB1 PUSH2 0xFF JUMP JUMPDEST SWAP2 POP SWAP2 POP DUP2 DUP2 SWAP4 POP SWAP4 POP POP POP SWAP1 SWAP2 JUMP JUMPDEST PUSH1 0x0 DUP1 PUSH1 0x0 PUSH2 0xCE PUSH2 0xFF JUMP JUMPDEST POP SWAP1 POP DUP1 PUSH1 0x64 SWAP3 POP SWAP3 POP POP SWAP1 SWAP2 JUMP JUMPDEST PUSH1 0x0 DUP1 PUSH1 0x0 DUP1 PUSH2 0xEB PUSH2 0xFF JUMP JUMPDEST DUP1 SWAP3 POP DUP2 SWAP4 POP POP POP DUP2 DUP2 SWAP4 POP SWAP4 POP POP POP SWAP1 SWAP2 JUMP JUMPDEST PUSH1 0x0 DUP1 PUSH1 0x1 PUSH1 0x2 SWAP2 POP SWAP2 POP SWAP1 SWAP2 JUMP JUMPDEST PUSH2 0x117 DUP2 PUSH2 0x146 JUMP JUMPDEST DUP3 MSTORE POP POP JUMP JUMPDEST PUSH1 0x0 PUSH1 0x40 DUP3 ADD SWAP1 POP PUSH2 0x132 PUSH1 0x0 DUP4 ADD DUP6 PUSH2 0x10E JUMP JUMPDEST PUSH2 0x13F PUSH1 0x20 DUP4 ADD DUP5 PUSH2 0x10E JUMP JUMPDEST SWAP4 SWAP3 POP POP POP JUMP JUMPDEST PUSH1 0x0 DUP2 SWAP1 POP SWAP2 SWAP1 POP JUMP INVALID LOG2 PUSH5 0x6970667358 0x22 SLT KECCAK256 0xD6 LOG0 CALLDATALOAD 0xE5 PUSH20 0x8158212C237947073C39470BAE056CFC81C41C3C 0xD0 POP SELFBALANCE 0x4F MLOAD 0xB2 LOG1 PUSH5 0x736F6C6343 STOP ADDMOD SMOD STOP CALLER "
				},
				"gasEstimates": {
					"creation": {
						"codeDepositCost": "78000",
						"executionCost": "129",
						"totalCost": "78129"
					},
					"external": {
						"callFunc()": "infinite",
						"callFunc1()": "infinite",
						"callFunc2()": "infinite"
					},
					"internal": {
						"returnFunc()": "37"
					}
				},
				"methodIdentifiers": {
					"callFunc()": "9a7846b9",
					"callFunc1()": "e2c37ead",
					"callFunc2()": "d3ac2e67"
				}
			},
			"storageLayout": {
				"storage": [],
				"types": null
			},
			"userdoc": {
				"kind": "user",
				"methods": {},
				"version": 1
			}
		}
	}
}