{
	"赋值的数据位置规则/赋值的数据位置规则.sol": {
		"Locations": {
			"abi": [
				{
					"inputs": [],
					"name": "_do",
					"outputs": [
						{
							"internalType": "uint256",
							"name": "",
							"type": "uint256"
						}
					],
					"stateMutability": "nonpayable",
					"type": "function"
				},
				{
					"inputs": [],
					"name": "stateVar1",
					"outputs": [
						{
							"internalType": "uint256",
							"name": "",
							"type": "uint256"
						}
					],
					"stateMutability": "view",
					"type": "function"
				},
				{
					"inputs": [],
					"name": "stateVar2",
					"outputs": [
						{
							"internalType": "uint256",
							"name": "",
							"type": "uint256"
						}
					],
					"stateMutability": "view",
					"type": "function"
				}
			],
			"devdoc": {
				"kind": "dev",
				"methods": {},
				"version": 1
			},
			"evm": {
				"assembly": "    /* \"\\xe8\\xb5\\x8b\\xe5\\x80\\xbc\\xe7\\x9a\\x84\\xe6\\x95\\xb0\\xe6\\x8d\\xae\\xe4\\xbd\\x8d\\xe7\\xbd\\xae\\xe8\\xa7\\x84\\xe5\\x88\\x99/\\xe8\\xb5\\x8b\\xe5\\x80\\xbc\\xe7\\x9a\\x84\\xe6\\x95\\xb0\\xe6\\x8d\\xae\\xe4\\xbd\\x8d\\xe7\\xbd\\xae\\xe8\\xa7\\x84\\xe5\\x88\\x99.sol\":60:304  contract Locations {\r... */\n  mstore(0x40, 0x80)\n    /* \"\\xe8\\xb5\\x8b\\xe5\\x80\\xbc\\xe7\\x9a\\x84\\xe6\\x95\\xb0\\xe6\\x8d\\xae\\xe4\\xbd\\x8d\\xe7\\xbd\\xae\\xe8\\xa7\\x84\\xe5\\x88\\x99/\\xe8\\xb5\\x8b\\xe5\\x80\\xbc\\xe7\\x9a\\x84\\xe6\\x95\\xb0\\xe6\\x8d\\xae\\xe4\\xbd\\x8d\\xe7\\xbd\\xae\\xe8\\xa7\\x84\\xe5\\x88\\x99.sol\":110:112  10 */\n  0x0a\n    /* \"\\xe8\\xb5\\x8b\\xe5\\x80\\xbc\\xe7\\x9a\\x84\\xe6\\x95\\xb0\\xe6\\x8d\\xae\\xe4\\xbd\\x8d\\xe7\\xbd\\xae\\xe8\\xa7\\x84\\xe5\\x88\\x99/\\xe8\\xb5\\x8b\\xe5\\x80\\xbc\\xe7\\x9a\\x84\\xe6\\x95\\xb0\\xe6\\x8d\\xae\\xe4\\xbd\\x8d\\xe7\\xbd\\xae\\xe8\\xa7\\x84\\xe5\\x88\\x99.sol\":86:112  uint public stateVar1 = 10 */\n  0x00\n  sstore\n    /* \"\\xe8\\xb5\\x8b\\xe5\\x80\\xbc\\xe7\\x9a\\x84\\xe6\\x95\\xb0\\xe6\\x8d\\xae\\xe4\\xbd\\x8d\\xe7\\xbd\\xae\\xe8\\xa7\\x84\\xe5\\x88\\x99/\\xe8\\xb5\\x8b\\xe5\\x80\\xbc\\xe7\\x9a\\x84\\xe6\\x95\\xb0\\xe6\\x8d\\xae\\xe4\\xbd\\x8d\\xe7\\xbd\\xae\\xe8\\xa7\\x84\\xe5\\x88\\x99.sol\":143:145  20 */\n  0x14\n    /* \"\\xe8\\xb5\\x8b\\xe5\\x80\\xbc\\xe7\\x9a\\x84\\xe6\\x95\\xb0\\xe6\\x8d\\xae\\xe4\\xbd\\x8d\\xe7\\xbd\\xae\\xe8\\xa7\\x84\\xe5\\x88\\x99/\\xe8\\xb5\\x8b\\xe5\\x80\\xbc\\xe7\\x9a\\x84\\xe6\\x95\\xb0\\xe6\\x8d\\xae\\xe4\\xbd\\x8d\\xe7\\xbd\\xae\\xe8\\xa7\\x84\\xe5\\x88\\x99.sol\":119:145  uint public stateVar2 = 20 */\n  0x01\n  sstore\n    /* \"\\xe8\\xb5\\x8b\\xe5\\x80\\xbc\\xe7\\x9a\\x84\\xe6\\x95\\xb0\\xe6\\x8d\\xae\\xe4\\xbd\\x8d\\xe7\\xbd\\xae\\xe8\\xa7\\x84\\xe5\\x88\\x99/\\xe8\\xb5\\x8b\\xe5\\x80\\xbc\\xe7\\x9a\\x84\\xe6\\x95\\xb0\\xe6\\x8d\\xae\\xe4\\xbd\\x8d\\xe7\\xbd\\xae\\xe8\\xa7\\x84\\xe5\\x88\\x99.sol\":60:304  contract Locations {\r... */\n  callvalue\n  dup1\n  iszero\n  tag_1\n  jumpi\n  0x00\n  dup1\n  revert\ntag_1:\n  pop\n  dataSize(sub_0)\n  dup1\n  dataOffset(sub_0)\n  0x00\n  codecopy\n  0x00\n  return\nstop\n\nsub_0: assembly {\n        /* \"\\xe8\\xb5\\x8b\\xe5\\x80\\xbc\\xe7\\x9a\\x84\\xe6\\x95\\xb0\\xe6\\x8d\\xae\\xe4\\xbd\\x8d\\xe7\\xbd\\xae\\xe8\\xa7\\x84\\xe5\\x88\\x99/\\xe8\\xb5\\x8b\\xe5\\x80\\xbc\\xe7\\x9a\\x84\\xe6\\x95\\xb0\\xe6\\x8d\\xae\\xe4\\xbd\\x8d\\xe7\\xbd\\xae\\xe8\\xa7\\x84\\xe5\\x88\\x99.sol\":60:304  contract Locations {\r... */\n      mstore(0x40, 0x80)\n      callvalue\n      dup1\n      iszero\n      tag_1\n      jumpi\n      0x00\n      dup1\n      revert\n    tag_1:\n      pop\n      jumpi(tag_2, lt(calldatasize, 0x04))\n      shr(0xe0, calldataload(0x00))\n      dup1\n      0xc7b50df3\n      eq\n      tag_3\n      jumpi\n      dup1\n      0xd664b8dc\n      eq\n      tag_4\n      jumpi\n      dup1\n      0xfdd4fe90\n      eq\n      tag_5\n      jumpi\n    tag_2:\n      0x00\n      dup1\n      revert\n        /* \"\\xe8\\xb5\\x8b\\xe5\\x80\\xbc\\xe7\\x9a\\x84\\xe6\\x95\\xb0\\xe6\\x8d\\xae\\xe4\\xbd\\x8d\\xe7\\xbd\\xae\\xe8\\xa7\\x84\\xe5\\x88\\x99/\\xe8\\xb5\\x8b\\xe5\\x80\\xbc\\xe7\\x9a\\x84\\xe6\\x95\\xb0\\xe6\\x8d\\xae\\xe4\\xbd\\x8d\\xe7\\xbd\\xae\\xe8\\xa7\\x84\\xe5\\x88\\x99.sol\":86:112  uint public stateVar1 = 10 */\n    tag_3:\n      tag_6\n      tag_7\n      jump\t// in\n    tag_6:\n      mload(0x40)\n      tag_8\n      swap2\n      swap1\n      tag_9\n      jump\t// in\n    tag_8:\n      mload(0x40)\n      dup1\n      swap2\n      sub\n      swap1\n      return\n        /* \"\\xe8\\xb5\\x8b\\xe5\\x80\\xbc\\xe7\\x9a\\x84\\xe6\\x95\\xb0\\xe6\\x8d\\xae\\xe4\\xbd\\x8d\\xe7\\xbd\\xae\\xe8\\xa7\\x84\\xe5\\x88\\x99/\\xe8\\xb5\\x8b\\xe5\\x80\\xbc\\xe7\\x9a\\x84\\xe6\\x95\\xb0\\xe6\\x8d\\xae\\xe4\\xbd\\x8d\\xe7\\xbd\\xae\\xe8\\xa7\\x84\\xe5\\x88\\x99.sol\":154:298  function _do() public returns(uint) {\r... */\n    tag_4:\n      tag_10\n      tag_11\n      jump\t// in\n    tag_10:\n      mload(0x40)\n      tag_12\n      swap2\n      swap1\n      tag_9\n      jump\t// in\n    tag_12:\n      mload(0x40)\n      dup1\n      swap2\n      sub\n      swap1\n      return\n        /* \"\\xe8\\xb5\\x8b\\xe5\\x80\\xbc\\xe7\\x9a\\x84\\xe6\\x95\\xb0\\xe6\\x8d\\xae\\xe4\\xbd\\x8d\\xe7\\xbd\\xae\\xe8\\xa7\\x84\\xe5\\x88\\x99/\\xe8\\xb5\\x8b\\xe5\\x80\\xbc\\xe7\\x9a\\x84\\xe6\\x95\\xb0\\xe6\\x8d\\xae\\xe4\\xbd\\x8d\\xe7\\xbd\\xae\\xe8\\xa7\\x84\\xe5\\x88\\x99.sol\":119:145  uint public stateVar2 = 20 */\n    tag_5:\n      tag_13\n      tag_14\n      jump\t// in\n    tag_13:\n      mload(0x40)\n      tag_15\n      swap2\n      swap1\n      tag_9\n      jump\t// in\n    tag_15:\n      mload(0x40)\n      dup1\n      swap2\n      sub\n      swap1\n      return\n        /* \"\\xe8\\xb5\\x8b\\xe5\\x80\\xbc\\xe7\\x9a\\x84\\xe6\\x95\\xb0\\xe6\\x8d\\xae\\xe4\\xbd\\x8d\\xe7\\xbd\\xae\\xe8\\xa7\\x84\\xe5\\x88\\x99/\\xe8\\xb5\\x8b\\xe5\\x80\\xbc\\xe7\\x9a\\x84\\xe6\\x95\\xb0\\xe6\\x8d\\xae\\xe4\\xbd\\x8d\\xe7\\xbd\\xae\\xe8\\xa7\\x84\\xe5\\x88\\x99.sol\":86:112  uint public stateVar1 = 10 */\n    tag_7:\n      sload(0x00)\n      dup2\n      jump\t// out\n        /* \"\\xe8\\xb5\\x8b\\xe5\\x80\\xbc\\xe7\\x9a\\x84\\xe6\\x95\\xb0\\xe6\\x8d\\xae\\xe4\\xbd\\x8d\\xe7\\xbd\\xae\\xe8\\xa7\\x84\\xe5\\x88\\x99/\\xe8\\xb5\\x8b\\xe5\\x80\\xbc\\xe7\\x9a\\x84\\xe6\\x95\\xb0\\xe6\\x8d\\xae\\xe4\\xbd\\x8d\\xe7\\xbd\\xae\\xe8\\xa7\\x84\\xe5\\x88\\x99.sol\":154:298  function _do() public returns(uint) {\r... */\n    tag_11:\n        /* \"\\xe8\\xb5\\x8b\\xe5\\x80\\xbc\\xe7\\x9a\\x84\\xe6\\x95\\xb0\\xe6\\x8d\\xae\\xe4\\xbd\\x8d\\xe7\\xbd\\xae\\xe8\\xa7\\x84\\xe5\\x88\\x99/\\xe8\\xb5\\x8b\\xe5\\x80\\xbc\\xe7\\x9a\\x84\\xe6\\x95\\xb0\\xe6\\x8d\\xae\\xe4\\xbd\\x8d\\xe7\\xbd\\xae\\xe8\\xa7\\x84\\xe5\\x88\\x99.sol\":184:188  uint */\n      0x00\n        /* \"\\xe8\\xb5\\x8b\\xe5\\x80\\xbc\\xe7\\x9a\\x84\\xe6\\x95\\xb0\\xe6\\x8d\\xae\\xe4\\xbd\\x8d\\xe7\\xbd\\xae\\xe8\\xa7\\x84\\xe5\\x88\\x99/\\xe8\\xb5\\x8b\\xe5\\x80\\xbc\\xe7\\x9a\\x84\\xe6\\x95\\xb0\\xe6\\x8d\\xae\\xe4\\xbd\\x8d\\xe7\\xbd\\xae\\xe8\\xa7\\x84\\xe5\\x88\\x99.sol\":213:222  stateVar2 */\n      sload(0x01)\n        /* \"\\xe8\\xb5\\x8b\\xe5\\x80\\xbc\\xe7\\x9a\\x84\\xe6\\x95\\xb0\\xe6\\x8d\\xae\\xe4\\xbd\\x8d\\xe7\\xbd\\xae\\xe8\\xa7\\x84\\xe5\\x88\\x99/\\xe8\\xb5\\x8b\\xe5\\x80\\xbc\\xe7\\x9a\\x84\\xe6\\x95\\xb0\\xe6\\x8d\\xae\\xe4\\xbd\\x8d\\xe7\\xbd\\xae\\xe8\\xa7\\x84\\xe5\\x88\\x99.sol\":201:210  stateVar1 */\n      0x00\n        /* \"\\xe8\\xb5\\x8b\\xe5\\x80\\xbc\\xe7\\x9a\\x84\\xe6\\x95\\xb0\\xe6\\x8d\\xae\\xe4\\xbd\\x8d\\xe7\\xbd\\xae\\xe8\\xa7\\x84\\xe5\\x88\\x99/\\xe8\\xb5\\x8b\\xe5\\x80\\xbc\\xe7\\x9a\\x84\\xe6\\x95\\xb0\\xe6\\x8d\\xae\\xe4\\xbd\\x8d\\xe7\\xbd\\xae\\xe8\\xa7\\x84\\xe5\\x88\\x99.sol\":201:222  stateVar1 = stateVar2 */\n      dup2\n      swap1\n      sstore\n      pop\n        /* \"\\xe8\\xb5\\x8b\\xe5\\x80\\xbc\\xe7\\x9a\\x84\\xe6\\x95\\xb0\\xe6\\x8d\\xae\\xe4\\xbd\\x8d\\xe7\\xbd\\xae\\xe8\\xa7\\x84\\xe5\\x88\\x99/\\xe8\\xb5\\x8b\\xe5\\x80\\xbc\\xe7\\x9a\\x84\\xe6\\x95\\xb0\\xe6\\x8d\\xae\\xe4\\xbd\\x8d\\xe7\\xbd\\xae\\xe8\\xa7\\x84\\xe5\\x88\\x99.sol\":245:247  30 */\n      0x1e\n        /* \"\\xe8\\xb5\\x8b\\xe5\\x80\\xbc\\xe7\\x9a\\x84\\xe6\\x95\\xb0\\xe6\\x8d\\xae\\xe4\\xbd\\x8d\\xe7\\xbd\\xae\\xe8\\xa7\\x84\\xe5\\x88\\x99/\\xe8\\xb5\\x8b\\xe5\\x80\\xbc\\xe7\\x9a\\x84\\xe6\\x95\\xb0\\xe6\\x8d\\xae\\xe4\\xbd\\x8d\\xe7\\xbd\\xae\\xe8\\xa7\\x84\\xe5\\x88\\x99.sol\":233:242  stateVar2 */\n      0x01\n        /* \"\\xe8\\xb5\\x8b\\xe5\\x80\\xbc\\xe7\\x9a\\x84\\xe6\\x95\\xb0\\xe6\\x8d\\xae\\xe4\\xbd\\x8d\\xe7\\xbd\\xae\\xe8\\xa7\\x84\\xe5\\x88\\x99/\\xe8\\xb5\\x8b\\xe5\\x80\\xbc\\xe7\\x9a\\x84\\xe6\\x95\\xb0\\xe6\\x8d\\xae\\xe4\\xbd\\x8d\\xe7\\xbd\\xae\\xe8\\xa7\\x84\\xe5\\x88\\x99.sol\":233:247  stateVar2 = 30 */\n      dup2\n      swap1\n      sstore\n      pop\n        /* \"\\xe8\\xb5\\x8b\\xe5\\x80\\xbc\\xe7\\x9a\\x84\\xe6\\x95\\xb0\\xe6\\x8d\\xae\\xe4\\xbd\\x8d\\xe7\\xbd\\xae\\xe8\\xa7\\x84\\xe5\\x88\\x99/\\xe8\\xb5\\x8b\\xe5\\x80\\xbc\\xe7\\x9a\\x84\\xe6\\x95\\xb0\\xe6\\x8d\\xae\\xe4\\xbd\\x8d\\xe7\\xbd\\xae\\xe8\\xa7\\x84\\xe5\\x88\\x99.sol\":265:274  stateVar1 */\n      sload(0x00)\n        /* \"\\xe8\\xb5\\x8b\\xe5\\x80\\xbc\\xe7\\x9a\\x84\\xe6\\x95\\xb0\\xe6\\x8d\\xae\\xe4\\xbd\\x8d\\xe7\\xbd\\xae\\xe8\\xa7\\x84\\xe5\\x88\\x99/\\xe8\\xb5\\x8b\\xe5\\x80\\xbc\\xe7\\x9a\\x84\\xe6\\x95\\xb0\\xe6\\x8d\\xae\\xe4\\xbd\\x8d\\xe7\\xbd\\xae\\xe8\\xa7\\x84\\xe5\\x88\\x99.sol\":258:274  return stateVar1 */\n      swap1\n      pop\n        /* \"\\xe8\\xb5\\x8b\\xe5\\x80\\xbc\\xe7\\x9a\\x84\\xe6\\x95\\xb0\\xe6\\x8d\\xae\\xe4\\xbd\\x8d\\xe7\\xbd\\xae\\xe8\\xa7\\x84\\xe5\\x88\\x99/\\xe8\\xb5\\x8b\\xe5\\x80\\xbc\\xe7\\x9a\\x84\\xe6\\x95\\xb0\\xe6\\x8d\\xae\\xe4\\xbd\\x8d\\xe7\\xbd\\xae\\xe8\\xa7\\x84\\xe5\\x88\\x99.sol\":154:298  function _do() public returns(uint) {\r... */\n      swap1\n      jump\t// out\n        /* \"\\xe8\\xb5\\x8b\\xe5\\x80\\xbc\\xe7\\x9a\\x84\\xe6\\x95\\xb0\\xe6\\x8d\\xae\\xe4\\xbd\\x8d\\xe7\\xbd\\xae\\xe8\\xa7\\x84\\xe5\\x88\\x99/\\xe8\\xb5\\x8b\\xe5\\x80\\xbc\\xe7\\x9a\\x84\\xe6\\x95\\xb0\\xe6\\x8d\\xae\\xe4\\xbd\\x8d\\xe7\\xbd\\xae\\xe8\\xa7\\x84\\xe5\\x88\\x99.sol\":119:145  uint public stateVar2 = 20 */\n    tag_14:\n      sload(0x01)\n      dup2\n      jump\t// out\n        /* \"#utility.yul\":7:125   */\n    tag_18:\n        /* \"#utility.yul\":94:118   */\n      tag_20\n        /* \"#utility.yul\":112:117   */\n      dup2\n        /* \"#utility.yul\":94:118   */\n      tag_21\n      jump\t// in\n    tag_20:\n        /* \"#utility.yul\":89:92   */\n      dup3\n        /* \"#utility.yul\":82:119   */\n      mstore\n        /* \"#utility.yul\":7:125   */\n      pop\n      pop\n      jump\t// out\n        /* \"#utility.yul\":131:353   */\n    tag_9:\n        /* \"#utility.yul\":224:228   */\n      0x00\n        /* \"#utility.yul\":262:264   */\n      0x20\n        /* \"#utility.yul\":251:260   */\n      dup3\n        /* \"#utility.yul\":247:265   */\n      add\n        /* \"#utility.yul\":239:265   */\n      swap1\n      pop\n        /* \"#utility.yul\":275:346   */\n      tag_23\n        /* \"#utility.yul\":343:344   */\n      0x00\n        /* \"#utility.yul\":332:341   */\n      dup4\n        /* \"#utility.yul\":328:345   */\n      add\n        /* \"#utility.yul\":319:325   */\n      dup5\n        /* \"#utility.yul\":275:346   */\n      tag_18\n      jump\t// in\n    tag_23:\n        /* \"#utility.yul\":131:353   */\n      swap3\n      swap2\n      pop\n      pop\n      jump\t// out\n        /* \"#utility.yul\":359:436   */\n    tag_21:\n        /* \"#utility.yul\":396:403   */\n      0x00\n        /* \"#utility.yul\":425:430   */\n      dup2\n        /* \"#utility.yul\":414:430   */\n      swap1\n      pop\n        /* \"#utility.yul\":359:436   */\n      swap2\n      swap1\n      pop\n      jump\t// out\n\n    auxdata: 0xa2646970667358221220800b0f9ff9fd7d488979778bfab26b71fa9b1e83d9908cdd0674cd63cc52f0a964736f6c63430008070033\n}\n",
				"bytecode": {
					"linkReferences": {},
					"object": "6080604052600a600055601460015534801561001a57600080fd5b5061011c8061002a6000396000f3fe6080604052348015600f57600080fd5b5060043610603c5760003560e01c8063c7b50df3146041578063d664b8dc14605b578063fdd4fe90146075575b600080fd5b6047608f565b6040516052919060c3565b60405180910390f35b60616095565b604051606c919060c3565b60405180910390f35b607b60b0565b6040516086919060c3565b60405180910390f35b60005481565b6000600154600081905550601e600181905550600054905090565b60015481565b60bd8160dc565b82525050565b600060208201905060d6600083018460b6565b92915050565b600081905091905056fea2646970667358221220800b0f9ff9fd7d488979778bfab26b71fa9b1e83d9908cdd0674cd63cc52f0a964736f6c63430008070033",
					"opcodes": "PUSH1 0x80 PUSH1 0x40 MSTORE PUSH1 0xA PUSH1 0x0 SSTORE PUSH1 0x14 PUSH1 0x1 SSTORE CALLVALUE DUP1 ISZERO PUSH2 0x1A JUMPI PUSH1 0x0 DUP1 REVERT JUMPDEST POP PUSH2 0x11C DUP1 PUSH2 0x2A PUSH1 0x0 CODECOPY PUSH1 0x0 RETURN INVALID PUSH1 0x80 PUSH1 0x40 MSTORE CALLVALUE DUP1 ISZERO PUSH1 0xF JUMPI PUSH1 0x0 DUP1 REVERT JUMPDEST POP PUSH1 0x4 CALLDATASIZE LT PUSH1 0x3C JUMPI PUSH1 0x0 CALLDATALOAD PUSH1 0xE0 SHR DUP1 PUSH4 0xC7B50DF3 EQ PUSH1 0x41 JUMPI DUP1 PUSH4 0xD664B8DC EQ PUSH1 0x5B JUMPI DUP1 PUSH4 0xFDD4FE90 EQ PUSH1 0x75 JUMPI JUMPDEST PUSH1 0x0 DUP1 REVERT JUMPDEST PUSH1 0x47 PUSH1 0x8F JUMP JUMPDEST PUSH1 0x40 MLOAD PUSH1 0x52 SWAP2 SWAP1 PUSH1 0xC3 JUMP JUMPDEST PUSH1 0x40 MLOAD DUP1 SWAP2 SUB SWAP1 RETURN JUMPDEST PUSH1 0x61 PUSH1 0x95 JUMP JUMPDEST PUSH1 0x40 MLOAD PUSH1 0x6C SWAP2 SWAP1 PUSH1 0xC3 JUMP JUMPDEST PUSH1 0x40 MLOAD DUP1 SWAP2 SUB SWAP1 RETURN JUMPDEST PUSH1 0x7B PUSH1 0xB0 JUMP JUMPDEST PUSH1 0x40 MLOAD PUSH1 0x86 SWAP2 SWAP1 PUSH1 0xC3 JUMP JUMPDEST PUSH1 0x40 MLOAD DUP1 SWAP2 SUB SWAP1 RETURN JUMPDEST PUSH1 0x0 SLOAD DUP2 JUMP JUMPDEST PUSH1 0x0 PUSH1 0x1 SLOAD PUSH1 0x0 DUP2 SWAP1 SSTORE POP PUSH1 0x1E PUSH1 0x1 DUP2 SWAP1 SSTORE POP PUSH1 0x0 SLOAD SWAP1 POP SWAP1 JUMP JUMPDEST PUSH1 0x1 SLOAD DUP2 JUMP JUMPDEST PUSH1 0xBD DUP2 PUSH1 0xDC JUMP JUMPDEST DUP3 MSTORE POP POP JUMP JUMPDEST PUSH1 0x0 PUSH1 0x20 DUP3 ADD SWAP1 POP PUSH1 0xD6 PUSH1 0x0 DUP4 ADD DUP5 PUSH1 0xB6 JUMP JUMPDEST SWAP3 SWAP2 POP POP JUMP JUMPDEST PUSH1 0x0 DUP2 SWAP1 POP SWAP2 SWAP1 POP JUMP INVALID LOG2 PUSH5 0x6970667358 0x22 SLT KECCAK256 DUP1 SIGNEXTEND 0xF SWAP16 0xF9 REVERT PUSH30 0x488979778BFAB26B71FA9B1E83D9908CDD0674CD63CC52F0A964736F6C63 NUMBER STOP ADDMOD SMOD STOP CALLER "
				},
				"gasEstimates": {
					"creation": {
						"codeDepositCost": "56800",
						"executionCost": "44317",
						"totalCost": "101117"
					},
					"external": {
						"_do()": "48765",
						"stateVar1()": "2407",
						"stateVar2()": "2451"
					}
				},
				"methodIdentifiers": {
					"_do()": "d664b8dc",
					"stateVar1()": "c7b50df3",
					"stateVar2()": "fdd4fe90"
				}
			},
			"storageLayout": {
				"storage": [
					{
						"astId": 4,
						"contract": "赋值的数据位置规则/赋值的数据位置规则.sol:Locations",
						"label": "stateVar1",
						"offset": 0,
						"slot": "0",
						"type": "t_uint256"
					},
					{
						"astId": 7,
						"contract": "赋值的数据位置规则/赋值的数据位置规则.sol:Locations",
						"label": "stateVar2",
						"offset": 0,
						"slot": "1",
						"type": "t_uint256"
					}
				],
				"types": {
					"t_uint256": {
						"encoding": "inplace",
						"label": "uint256",
						"numberOfBytes": "32"
					}
				}
			},
			"userdoc": {
				"kind": "user",
				"methods": {},
				"version": 1
			}
		}
	}
}