{
	"赋值的数据位置规则/Locations2.sol": {
		"Locations": {
			"abi": [
				{
					"inputs": [],
					"name": "doSomething",
					"outputs": [
						{
							"internalType": "uint256[]",
							"name": "",
							"type": "uint256[]"
						},
						{
							"internalType": "uint256[]",
							"name": "",
							"type": "uint256[]"
						}
					],
					"stateMutability": "pure",
					"type": "function"
				}
			],
			"devdoc": {
				"kind": "dev",
				"methods": {},
				"version": 1
			},
			"evm": {
				"assembly": "    /* \"\\xe8\\xb5\\x8b\\xe5\\x80\\xbc\\xe7\\x9a\\x84\\xe6\\x95\\xb0\\xe6\\x8d\\xae\\xe4\\xbd\\x8d\\xe7\\xbd\\xae\\xe8\\xa7\\x84\\xe5\\x88\\x99/Locations2.sol\":60:523  contract Locations {\r... */\n  mstore(0x40, 0x80)\n  callvalue\n  dup1\n  iszero\n  tag_1\n  jumpi\n  0x00\n  dup1\n  revert\ntag_1:\n  pop\n  dataSize(sub_0)\n  dup1\n  dataOffset(sub_0)\n  0x00\n  codecopy\n  0x00\n  return\nstop\n\nsub_0: assembly {\n        /* \"\\xe8\\xb5\\x8b\\xe5\\x80\\xbc\\xe7\\x9a\\x84\\xe6\\x95\\xb0\\xe6\\x8d\\xae\\xe4\\xbd\\x8d\\xe7\\xbd\\xae\\xe8\\xa7\\x84\\xe5\\x88\\x99/Locations2.sol\":60:523  contract Locations {\r... */\n      mstore(0x40, 0x80)\n      callvalue\n      dup1\n      iszero\n      tag_1\n      jumpi\n      0x00\n      dup1\n      revert\n    tag_1:\n      pop\n      jumpi(tag_2, lt(calldatasize, 0x04))\n      shr(0xe0, calldataload(0x00))\n      dup1\n      0x82692679\n      eq\n      tag_3\n      jumpi\n    tag_2:\n      0x00\n      dup1\n      revert\n        /* \"\\xe8\\xb5\\x8b\\xe5\\x80\\xbc\\xe7\\x9a\\x84\\xe6\\x95\\xb0\\xe6\\x8d\\xae\\xe4\\xbd\\x8d\\xe7\\xbd\\xae\\xe8\\xa7\\x84\\xe5\\x88\\x99/Locations2.sol\":88:518  function doSomething() public pure returns(uint[] memory, uint[] memory) {\r... */\n    tag_3:\n      tag_4\n      tag_5\n      jump\t// in\n    tag_4:\n      mload(0x40)\n      tag_6\n      swap3\n      swap2\n      swap1\n      tag_7\n      jump\t// in\n    tag_6:\n      mload(0x40)\n      dup1\n      swap2\n      sub\n      swap1\n      return\n    tag_5:\n        /* \"\\xe8\\xb5\\x8b\\xe5\\x80\\xbc\\xe7\\x9a\\x84\\xe6\\x95\\xb0\\xe6\\x8d\\xae\\xe4\\xbd\\x8d\\xe7\\xbd\\xae\\xe8\\xa7\\x84\\xe5\\x88\\x99/Locations2.sol\":131:144  uint[] memory */\n      0x60\n        /* \"\\xe8\\xb5\\x8b\\xe5\\x80\\xbc\\xe7\\x9a\\x84\\xe6\\x95\\xb0\\xe6\\x8d\\xae\\xe4\\xbd\\x8d\\xe7\\xbd\\xae\\xe8\\xa7\\x84\\xe5\\x88\\x99/Locations2.sol\":146:159  uint[] memory */\n      dup1\n        /* \"\\xe8\\xb5\\x8b\\xe5\\x80\\xbc\\xe7\\x9a\\x84\\xe6\\x95\\xb0\\xe6\\x8d\\xae\\xe4\\xbd\\x8d\\xe7\\xbd\\xae\\xe8\\xa7\\x84\\xe5\\x88\\x99/Locations2.sol\":172:203  uint[] memory localMemoryArray1 */\n      0x00\n        /* \"\\xe8\\xb5\\x8b\\xe5\\x80\\xbc\\xe7\\x9a\\x84\\xe6\\x95\\xb0\\xe6\\x8d\\xae\\xe4\\xbd\\x8d\\xe7\\xbd\\xae\\xe8\\xa7\\x84\\xe5\\x88\\x99/Locations2.sol\":217:218  3 */\n      0x03\n        /* \"\\xe8\\xb5\\x8b\\xe5\\x80\\xbc\\xe7\\x9a\\x84\\xe6\\x95\\xb0\\xe6\\x8d\\xae\\xe4\\xbd\\x8d\\xe7\\xbd\\xae\\xe8\\xa7\\x84\\xe5\\x88\\x99/Locations2.sol\":206:219  new uint[](3) */\n      0xffffffffffffffff\n      dup2\n      gt\n      iszero\n      tag_9\n      jumpi\n      tag_10\n      tag_11\n      jump\t// in\n    tag_10:\n    tag_9:\n      mload(0x40)\n      swap1\n      dup1\n      dup3\n      mstore\n      dup1\n      0x20\n      mul\n      0x20\n      add\n      dup3\n      add\n      0x40\n      mstore\n      dup1\n      iszero\n      tag_12\n      jumpi\n      dup2\n      0x20\n      add\n      0x20\n      dup3\n      mul\n      dup1\n      calldatasize\n      dup4\n      calldatacopy\n      dup1\n      dup3\n      add\n      swap2\n      pop\n      pop\n      swap1\n      pop\n    tag_12:\n      pop\n        /* \"\\xe8\\xb5\\x8b\\xe5\\x80\\xbc\\xe7\\x9a\\x84\\xe6\\x95\\xb0\\xe6\\x8d\\xae\\xe4\\xbd\\x8d\\xe7\\xbd\\xae\\xe8\\xa7\\x84\\xe5\\x88\\x99/Locations2.sol\":172:219  uint[] memory localMemoryArray1 = new uint[](3) */\n      swap1\n      pop\n        /* \"\\xe8\\xb5\\x8b\\xe5\\x80\\xbc\\xe7\\x9a\\x84\\xe6\\x95\\xb0\\xe6\\x8d\\xae\\xe4\\xbd\\x8d\\xe7\\xbd\\xae\\xe8\\xa7\\x84\\xe5\\x88\\x99/Locations2.sol\":253:254  4 */\n      0x04\n        /* \"\\xe8\\xb5\\x8b\\xe5\\x80\\xbc\\xe7\\x9a\\x84\\xe6\\x95\\xb0\\xe6\\x8d\\xae\\xe4\\xbd\\x8d\\xe7\\xbd\\xae\\xe8\\xa7\\x84\\xe5\\x88\\x99/Locations2.sol\":230:247  localMemoryArray1 */\n      dup2\n        /* \"\\xe8\\xb5\\x8b\\xe5\\x80\\xbc\\xe7\\x9a\\x84\\xe6\\x95\\xb0\\xe6\\x8d\\xae\\xe4\\xbd\\x8d\\xe7\\xbd\\xae\\xe8\\xa7\\x84\\xe5\\x88\\x99/Locations2.sol\":248:249  0 */\n      0x00\n        /* \"\\xe8\\xb5\\x8b\\xe5\\x80\\xbc\\xe7\\x9a\\x84\\xe6\\x95\\xb0\\xe6\\x8d\\xae\\xe4\\xbd\\x8d\\xe7\\xbd\\xae\\xe8\\xa7\\x84\\xe5\\x88\\x99/Locations2.sol\":230:250  localMemoryArray1[0] */\n      dup2\n      mload\n      dup2\n      lt\n      tag_13\n      jumpi\n      tag_14\n      tag_15\n      jump\t// in\n    tag_14:\n    tag_13:\n      0x20\n      mul\n      0x20\n      add\n      add\n        /* \"\\xe8\\xb5\\x8b\\xe5\\x80\\xbc\\xe7\\x9a\\x84\\xe6\\x95\\xb0\\xe6\\x8d\\xae\\xe4\\xbd\\x8d\\xe7\\xbd\\xae\\xe8\\xa7\\x84\\xe5\\x88\\x99/Locations2.sol\":230:254  localMemoryArray1[0] = 4 */\n      dup2\n      dup2\n      mstore\n      pop\n      pop\n        /* \"\\xe8\\xb5\\x8b\\xe5\\x80\\xbc\\xe7\\x9a\\x84\\xe6\\x95\\xb0\\xe6\\x8d\\xae\\xe4\\xbd\\x8d\\xe7\\xbd\\xae\\xe8\\xa7\\x84\\xe5\\x88\\x99/Locations2.sol\":288:289  5 */\n      0x05\n        /* \"\\xe8\\xb5\\x8b\\xe5\\x80\\xbc\\xe7\\x9a\\x84\\xe6\\x95\\xb0\\xe6\\x8d\\xae\\xe4\\xbd\\x8d\\xe7\\xbd\\xae\\xe8\\xa7\\x84\\xe5\\x88\\x99/Locations2.sol\":265:282  localMemoryArray1 */\n      dup2\n        /* \"\\xe8\\xb5\\x8b\\xe5\\x80\\xbc\\xe7\\x9a\\x84\\xe6\\x95\\xb0\\xe6\\x8d\\xae\\xe4\\xbd\\x8d\\xe7\\xbd\\xae\\xe8\\xa7\\x84\\xe5\\x88\\x99/Locations2.sol\":283:284  1 */\n      0x01\n        /* \"\\xe8\\xb5\\x8b\\xe5\\x80\\xbc\\xe7\\x9a\\x84\\xe6\\x95\\xb0\\xe6\\x8d\\xae\\xe4\\xbd\\x8d\\xe7\\xbd\\xae\\xe8\\xa7\\x84\\xe5\\x88\\x99/Locations2.sol\":265:285  localMemoryArray1[1] */\n      dup2\n      mload\n      dup2\n      lt\n      tag_16\n      jumpi\n      tag_17\n      tag_15\n      jump\t// in\n    tag_17:\n    tag_16:\n      0x20\n      mul\n      0x20\n      add\n      add\n        /* \"\\xe8\\xb5\\x8b\\xe5\\x80\\xbc\\xe7\\x9a\\x84\\xe6\\x95\\xb0\\xe6\\x8d\\xae\\xe4\\xbd\\x8d\\xe7\\xbd\\xae\\xe8\\xa7\\x84\\xe5\\x88\\x99/Locations2.sol\":265:289  localMemoryArray1[1] = 5 */\n      dup2\n      dup2\n      mstore\n      pop\n      pop\n        /* \"\\xe8\\xb5\\x8b\\xe5\\x80\\xbc\\xe7\\x9a\\x84\\xe6\\x95\\xb0\\xe6\\x8d\\xae\\xe4\\xbd\\x8d\\xe7\\xbd\\xae\\xe8\\xa7\\x84\\xe5\\x88\\x99/Locations2.sol\":323:324  6 */\n      0x06\n        /* \"\\xe8\\xb5\\x8b\\xe5\\x80\\xbc\\xe7\\x9a\\x84\\xe6\\x95\\xb0\\xe6\\x8d\\xae\\xe4\\xbd\\x8d\\xe7\\xbd\\xae\\xe8\\xa7\\x84\\xe5\\x88\\x99/Locations2.sol\":300:317  localMemoryArray1 */\n      dup2\n        /* \"\\xe8\\xb5\\x8b\\xe5\\x80\\xbc\\xe7\\x9a\\x84\\xe6\\x95\\xb0\\xe6\\x8d\\xae\\xe4\\xbd\\x8d\\xe7\\xbd\\xae\\xe8\\xa7\\x84\\xe5\\x88\\x99/Locations2.sol\":318:319  2 */\n      0x02\n        /* \"\\xe8\\xb5\\x8b\\xe5\\x80\\xbc\\xe7\\x9a\\x84\\xe6\\x95\\xb0\\xe6\\x8d\\xae\\xe4\\xbd\\x8d\\xe7\\xbd\\xae\\xe8\\xa7\\x84\\xe5\\x88\\x99/Locations2.sol\":300:320  localMemoryArray1[2] */\n      dup2\n      mload\n      dup2\n      lt\n      tag_18\n      jumpi\n      tag_19\n      tag_15\n      jump\t// in\n    tag_19:\n    tag_18:\n      0x20\n      mul\n      0x20\n      add\n      add\n        /* \"\\xe8\\xb5\\x8b\\xe5\\x80\\xbc\\xe7\\x9a\\x84\\xe6\\x95\\xb0\\xe6\\x8d\\xae\\xe4\\xbd\\x8d\\xe7\\xbd\\xae\\xe8\\xa7\\x84\\xe5\\x88\\x99/Locations2.sol\":300:324  localMemoryArray1[2] = 6 */\n      dup2\n      dup2\n      mstore\n      pop\n      pop\n        /* \"\\xe8\\xb5\\x8b\\xe5\\x80\\xbc\\xe7\\x9a\\x84\\xe6\\x95\\xb0\\xe6\\x8d\\xae\\xe4\\xbd\\x8d\\xe7\\xbd\\xae\\xe8\\xa7\\x84\\xe5\\x88\\x99/Locations2.sol\":337:368  uint[] memory localMemoryArray2 */\n      0x00\n        /* \"\\xe8\\xb5\\x8b\\xe5\\x80\\xbc\\xe7\\x9a\\x84\\xe6\\x95\\xb0\\xe6\\x8d\\xae\\xe4\\xbd\\x8d\\xe7\\xbd\\xae\\xe8\\xa7\\x84\\xe5\\x88\\x99/Locations2.sol\":371:388  localMemoryArray1 */\n      dup2\n        /* \"\\xe8\\xb5\\x8b\\xe5\\x80\\xbc\\xe7\\x9a\\x84\\xe6\\x95\\xb0\\xe6\\x8d\\xae\\xe4\\xbd\\x8d\\xe7\\xbd\\xae\\xe8\\xa7\\x84\\xe5\\x88\\x99/Locations2.sol\":337:388  uint[] memory localMemoryArray2 = localMemoryArray1 */\n      swap1\n      pop\n        /* \"\\xe8\\xb5\\x8b\\xe5\\x80\\xbc\\xe7\\x9a\\x84\\xe6\\x95\\xb0\\xe6\\x8d\\xae\\xe4\\xbd\\x8d\\xe7\\xbd\\xae\\xe8\\xa7\\x84\\xe5\\x88\\x99/Locations2.sol\":422:424  10 */\n      0x0a\n        /* \"\\xe8\\xb5\\x8b\\xe5\\x80\\xbc\\xe7\\x9a\\x84\\xe6\\x95\\xb0\\xe6\\x8d\\xae\\xe4\\xbd\\x8d\\xe7\\xbd\\xae\\xe8\\xa7\\x84\\xe5\\x88\\x99/Locations2.sol\":399:416  localMemoryArray1 */\n      dup3\n        /* \"\\xe8\\xb5\\x8b\\xe5\\x80\\xbc\\xe7\\x9a\\x84\\xe6\\x95\\xb0\\xe6\\x8d\\xae\\xe4\\xbd\\x8d\\xe7\\xbd\\xae\\xe8\\xa7\\x84\\xe5\\x88\\x99/Locations2.sol\":417:418  0 */\n      0x00\n        /* \"\\xe8\\xb5\\x8b\\xe5\\x80\\xbc\\xe7\\x9a\\x84\\xe6\\x95\\xb0\\xe6\\x8d\\xae\\xe4\\xbd\\x8d\\xe7\\xbd\\xae\\xe8\\xa7\\x84\\xe5\\x88\\x99/Locations2.sol\":399:419  localMemoryArray1[0] */\n      dup2\n      mload\n      dup2\n      lt\n      tag_20\n      jumpi\n      tag_21\n      tag_15\n      jump\t// in\n    tag_21:\n    tag_20:\n      0x20\n      mul\n      0x20\n      add\n      add\n        /* \"\\xe8\\xb5\\x8b\\xe5\\x80\\xbc\\xe7\\x9a\\x84\\xe6\\x95\\xb0\\xe6\\x8d\\xae\\xe4\\xbd\\x8d\\xe7\\xbd\\xae\\xe8\\xa7\\x84\\xe5\\x88\\x99/Locations2.sol\":399:424  localMemoryArray1[0] = 10 */\n      dup2\n      dup2\n      mstore\n      pop\n      pop\n        /* \"\\xe8\\xb5\\x8b\\xe5\\x80\\xbc\\xe7\\x9a\\x84\\xe6\\x95\\xb0\\xe6\\x8d\\xae\\xe4\\xbd\\x8d\\xe7\\xbd\\xae\\xe8\\xa7\\x84\\xe5\\x88\\x99/Locations2.sol\":445:462  localMemoryArray1 */\n      dup2\n        /* \"\\xe8\\xb5\\x8b\\xe5\\x80\\xbc\\xe7\\x9a\\x84\\xe6\\x95\\xb0\\xe6\\x8d\\xae\\xe4\\xbd\\x8d\\xe7\\xbd\\xae\\xe8\\xa7\\x84\\xe5\\x88\\x99/Locations2.sol\":464:481  localMemoryArray2 */\n      dup2\n        /* \"\\xe8\\xb5\\x8b\\xe5\\x80\\xbc\\xe7\\x9a\\x84\\xe6\\x95\\xb0\\xe6\\x8d\\xae\\xe4\\xbd\\x8d\\xe7\\xbd\\xae\\xe8\\xa7\\x84\\xe5\\x88\\x99/Locations2.sol\":437:482  return (localMemoryArray1, localMemoryArray2) */\n      swap4\n      pop\n      swap4\n      pop\n      pop\n      pop\n        /* \"\\xe8\\xb5\\x8b\\xe5\\x80\\xbc\\xe7\\x9a\\x84\\xe6\\x95\\xb0\\xe6\\x8d\\xae\\xe4\\xbd\\x8d\\xe7\\xbd\\xae\\xe8\\xa7\\x84\\xe5\\x88\\x99/Locations2.sol\":88:518  function doSomething() public pure returns(uint[] memory, uint[] memory) {\r... */\n      swap1\n      swap2\n      jump\t// out\n        /* \"#utility.yul\":7:186   */\n    tag_23:\n        /* \"#utility.yul\":76:86   */\n      0x00\n        /* \"#utility.yul\":97:143   */\n      tag_25\n        /* \"#utility.yul\":139:142   */\n      dup4\n        /* \"#utility.yul\":131:137   */\n      dup4\n        /* \"#utility.yul\":97:143   */\n      tag_26\n      jump\t// in\n    tag_25:\n        /* \"#utility.yul\":175:179   */\n      0x20\n        /* \"#utility.yul\":170:173   */\n      dup4\n        /* \"#utility.yul\":166:180   */\n      add\n        /* \"#utility.yul\":152:180   */\n      swap1\n      pop\n        /* \"#utility.yul\":7:186   */\n      swap3\n      swap2\n      pop\n      pop\n      jump\t// out\n        /* \"#utility.yul\":222:954   */\n    tag_27:\n        /* \"#utility.yul\":341:344   */\n      0x00\n        /* \"#utility.yul\":370:424   */\n      tag_29\n        /* \"#utility.yul\":418:423   */\n      dup3\n        /* \"#utility.yul\":370:424   */\n      tag_30\n      jump\t// in\n    tag_29:\n        /* \"#utility.yul\":440:526   */\n      tag_31\n        /* \"#utility.yul\":519:525   */\n      dup2\n        /* \"#utility.yul\":514:517   */\n      dup6\n        /* \"#utility.yul\":440:526   */\n      tag_32\n      jump\t// in\n    tag_31:\n        /* \"#utility.yul\":433:526   */\n      swap4\n      pop\n        /* \"#utility.yul\":550:606   */\n      tag_33\n        /* \"#utility.yul\":600:605   */\n      dup4\n        /* \"#utility.yul\":550:606   */\n      tag_34\n      jump\t// in\n    tag_33:\n        /* \"#utility.yul\":629:636   */\n      dup1\n        /* \"#utility.yul\":660:661   */\n      0x00\n        /* \"#utility.yul\":645:929   */\n    tag_35:\n        /* \"#utility.yul\":670:676   */\n      dup4\n        /* \"#utility.yul\":667:668   */\n      dup2\n        /* \"#utility.yul\":664:677   */\n      lt\n        /* \"#utility.yul\":645:929   */\n      iszero\n      tag_37\n      jumpi\n        /* \"#utility.yul\":746:752   */\n      dup2\n        /* \"#utility.yul\":740:753   */\n      mload\n        /* \"#utility.yul\":773:836   */\n      tag_38\n        /* \"#utility.yul\":832:835   */\n      dup9\n        /* \"#utility.yul\":817:830   */\n      dup3\n        /* \"#utility.yul\":773:836   */\n      tag_23\n      jump\t// in\n    tag_38:\n        /* \"#utility.yul\":766:836   */\n      swap8\n      pop\n        /* \"#utility.yul\":859:919   */\n      tag_39\n        /* \"#utility.yul\":912:918   */\n      dup4\n        /* \"#utility.yul\":859:919   */\n      tag_40\n      jump\t// in\n    tag_39:\n        /* \"#utility.yul\":849:919   */\n      swap3\n      pop\n        /* \"#utility.yul\":705:929   */\n      pop\n        /* \"#utility.yul\":692:693   */\n      0x01\n        /* \"#utility.yul\":689:690   */\n      dup2\n        /* \"#utility.yul\":685:694   */\n      add\n        /* \"#utility.yul\":680:694   */\n      swap1\n      pop\n        /* \"#utility.yul\":645:929   */\n      jump(tag_35)\n    tag_37:\n        /* \"#utility.yul\":649:663   */\n      pop\n        /* \"#utility.yul\":945:948   */\n      dup6\n        /* \"#utility.yul\":938:948   */\n      swap4\n      pop\n        /* \"#utility.yul\":346:954   */\n      pop\n      pop\n      pop\n        /* \"#utility.yul\":222:954   */\n      swap3\n      swap2\n      pop\n      pop\n      jump\t// out\n        /* \"#utility.yul\":960:1068   */\n    tag_26:\n        /* \"#utility.yul\":1037:1061   */\n      tag_42\n        /* \"#utility.yul\":1055:1060   */\n      dup2\n        /* \"#utility.yul\":1037:1061   */\n      tag_43\n      jump\t// in\n    tag_42:\n        /* \"#utility.yul\":1032:1035   */\n      dup3\n        /* \"#utility.yul\":1025:1062   */\n      mstore\n        /* \"#utility.yul\":960:1068   */\n      pop\n      pop\n      jump\t// out\n        /* \"#utility.yul\":1074:1708   */\n    tag_7:\n        /* \"#utility.yul\":1295:1299   */\n      0x00\n        /* \"#utility.yul\":1333:1335   */\n      0x40\n        /* \"#utility.yul\":1322:1331   */\n      dup3\n        /* \"#utility.yul\":1318:1336   */\n      add\n        /* \"#utility.yul\":1310:1336   */\n      swap1\n      pop\n        /* \"#utility.yul\":1382:1391   */\n      dup2\n        /* \"#utility.yul\":1376:1380   */\n      dup2\n        /* \"#utility.yul\":1372:1392   */\n      sub\n        /* \"#utility.yul\":1368:1369   */\n      0x00\n        /* \"#utility.yul\":1357:1366   */\n      dup4\n        /* \"#utility.yul\":1353:1370   */\n      add\n        /* \"#utility.yul\":1346:1393   */\n      mstore\n        /* \"#utility.yul\":1410:1518   */\n      tag_45\n        /* \"#utility.yul\":1513:1517   */\n      dup2\n        /* \"#utility.yul\":1504:1510   */\n      dup6\n        /* \"#utility.yul\":1410:1518   */\n      tag_27\n      jump\t// in\n    tag_45:\n        /* \"#utility.yul\":1402:1518   */\n      swap1\n      pop\n        /* \"#utility.yul\":1565:1574   */\n      dup2\n        /* \"#utility.yul\":1559:1563   */\n      dup2\n        /* \"#utility.yul\":1555:1575   */\n      sub\n        /* \"#utility.yul\":1550:1552   */\n      0x20\n        /* \"#utility.yul\":1539:1548   */\n      dup4\n        /* \"#utility.yul\":1535:1553   */\n      add\n        /* \"#utility.yul\":1528:1576   */\n      mstore\n        /* \"#utility.yul\":1593:1701   */\n      tag_46\n        /* \"#utility.yul\":1696:1700   */\n      dup2\n        /* \"#utility.yul\":1687:1693   */\n      dup5\n        /* \"#utility.yul\":1593:1701   */\n      tag_27\n      jump\t// in\n    tag_46:\n        /* \"#utility.yul\":1585:1701   */\n      swap1\n      pop\n        /* \"#utility.yul\":1074:1708   */\n      swap4\n      swap3\n      pop\n      pop\n      pop\n      jump\t// out\n        /* \"#utility.yul\":1714:1846   */\n    tag_34:\n        /* \"#utility.yul\":1781:1785   */\n      0x00\n        /* \"#utility.yul\":1804:1807   */\n      dup2\n        /* \"#utility.yul\":1796:1807   */\n      swap1\n      pop\n        /* \"#utility.yul\":1834:1838   */\n      0x20\n        /* \"#utility.yul\":1829:1832   */\n      dup3\n        /* \"#utility.yul\":1825:1839   */\n      add\n        /* \"#utility.yul\":1817:1839   */\n      swap1\n      pop\n        /* \"#utility.yul\":1714:1846   */\n      swap2\n      swap1\n      pop\n      jump\t// out\n        /* \"#utility.yul\":1852:1966   */\n    tag_30:\n        /* \"#utility.yul\":1919:1925   */\n      0x00\n        /* \"#utility.yul\":1953:1958   */\n      dup2\n        /* \"#utility.yul\":1947:1959   */\n      mload\n        /* \"#utility.yul\":1937:1959   */\n      swap1\n      pop\n        /* \"#utility.yul\":1852:1966   */\n      swap2\n      swap1\n      pop\n      jump\t// out\n        /* \"#utility.yul\":1972:2085   */\n    tag_40:\n        /* \"#utility.yul\":2042:2046   */\n      0x00\n        /* \"#utility.yul\":2074:2078   */\n      0x20\n        /* \"#utility.yul\":2069:2072   */\n      dup3\n        /* \"#utility.yul\":2065:2079   */\n      add\n        /* \"#utility.yul\":2057:2079   */\n      swap1\n      pop\n        /* \"#utility.yul\":1972:2085   */\n      swap2\n      swap1\n      pop\n      jump\t// out\n        /* \"#utility.yul\":2091:2275   */\n    tag_32:\n        /* \"#utility.yul\":2190:2201   */\n      0x00\n        /* \"#utility.yul\":2224:2230   */\n      dup3\n        /* \"#utility.yul\":2219:2222   */\n      dup3\n        /* \"#utility.yul\":2212:2231   */\n      mstore\n        /* \"#utility.yul\":2264:2268   */\n      0x20\n        /* \"#utility.yul\":2259:2262   */\n      dup3\n        /* \"#utility.yul\":2255:2269   */\n      add\n        /* \"#utility.yul\":2240:2269   */\n      swap1\n      pop\n        /* \"#utility.yul\":2091:2275   */\n      swap3\n      swap2\n      pop\n      pop\n      jump\t// out\n        /* \"#utility.yul\":2281:2358   */\n    tag_43:\n        /* \"#utility.yul\":2318:2325   */\n      0x00\n        /* \"#utility.yul\":2347:2352   */\n      dup2\n        /* \"#utility.yul\":2336:2352   */\n      swap1\n      pop\n        /* \"#utility.yul\":2281:2358   */\n      swap2\n      swap1\n      pop\n      jump\t// out\n        /* \"#utility.yul\":2364:2544   */\n    tag_15:\n        /* \"#utility.yul\":2412:2489   */\n      0x4e487b7100000000000000000000000000000000000000000000000000000000\n        /* \"#utility.yul\":2409:2410   */\n      0x00\n        /* \"#utility.yul\":2402:2490   */\n      mstore\n        /* \"#utility.yul\":2509:2513   */\n      0x32\n        /* \"#utility.yul\":2506:2507   */\n      0x04\n        /* \"#utility.yul\":2499:2514   */\n      mstore\n        /* \"#utility.yul\":2533:2537   */\n      0x24\n        /* \"#utility.yul\":2530:2531   */\n      0x00\n        /* \"#utility.yul\":2523:2538   */\n      revert\n        /* \"#utility.yul\":2550:2730   */\n    tag_11:\n        /* \"#utility.yul\":2598:2675   */\n      0x4e487b7100000000000000000000000000000000000000000000000000000000\n        /* \"#utility.yul\":2595:2596   */\n      0x00\n        /* \"#utility.yul\":2588:2676   */\n      mstore\n        /* \"#utility.yul\":2695:2699   */\n      0x41\n        /* \"#utility.yul\":2692:2693   */\n      0x04\n        /* \"#utility.yul\":2685:2700   */\n      mstore\n        /* \"#utility.yul\":2719:2723   */\n      0x24\n        /* \"#utility.yul\":2716:2717   */\n      0x00\n        /* \"#utility.yul\":2709:2724   */\n      revert\n\n    auxdata: 0xa2646970667358221220696c68477db9c5725e609e3427e86c97f287ee54dc9f8f1c837650c1ac061d1d64736f6c63430008070033\n}\n",
				"bytecode": {
					"linkReferences": {},
					"object": "608060405234801561001057600080fd5b506102cc806100206000396000f3fe608060405234801561001057600080fd5b506004361061002b5760003560e01c80638269267914610030575b600080fd5b61003861004f565b6040516100469291906101be565b60405180910390f35b6060806000600367ffffffffffffffff81111561006f5761006e610267565b5b60405190808252806020026020018201604052801561009d5781602001602082028036833780820191505090505b5090506004816000815181106100b6576100b5610238565b5b6020026020010181815250506005816001815181106100d8576100d7610238565b5b6020026020010181815250506006816002815181106100fa576100f9610238565b5b6020026020010181815250506000819050600a8260008151811061012157610120610238565b5b60200260200101818152505081819350935050509091565b600061014583836101af565b60208301905092915050565b600061015c82610205565b610166818561021d565b9350610171836101f5565b8060005b838110156101a25781516101898882610139565b975061019483610210565b925050600181019050610175565b5085935050505092915050565b6101b88161022e565b82525050565b600060408201905081810360008301526101d88185610151565b905081810360208301526101ec8184610151565b90509392505050565b6000819050602082019050919050565b600081519050919050565b6000602082019050919050565b600082825260208201905092915050565b6000819050919050565b7f4e487b7100000000000000000000000000000000000000000000000000000000600052603260045260246000fd5b7f4e487b7100000000000000000000000000000000000000000000000000000000600052604160045260246000fdfea2646970667358221220696c68477db9c5725e609e3427e86c97f287ee54dc9f8f1c837650c1ac061d1d64736f6c63430008070033",
					"opcodes": "PUSH1 0x80 PUSH1 0x40 MSTORE CALLVALUE DUP1 ISZERO PUSH2 0x10 JUMPI PUSH1 0x0 DUP1 REVERT JUMPDEST POP PUSH2 0x2CC DUP1 PUSH2 0x20 PUSH1 0x0 CODECOPY PUSH1 0x0 RETURN INVALID PUSH1 0x80 PUSH1 0x40 MSTORE CALLVALUE DUP1 ISZERO PUSH2 0x10 JUMPI PUSH1 0x0 DUP1 REVERT JUMPDEST POP PUSH1 0x4 CALLDATASIZE LT PUSH2 0x2B JUMPI PUSH1 0x0 CALLDATALOAD PUSH1 0xE0 SHR DUP1 PUSH4 0x82692679 EQ PUSH2 0x30 JUMPI JUMPDEST PUSH1 0x0 DUP1 REVERT JUMPDEST PUSH2 0x38 PUSH2 0x4F JUMP JUMPDEST PUSH1 0x40 MLOAD PUSH2 0x46 SWAP3 SWAP2 SWAP1 PUSH2 0x1BE JUMP JUMPDEST PUSH1 0x40 MLOAD DUP1 SWAP2 SUB SWAP1 RETURN JUMPDEST PUSH1 0x60 DUP1 PUSH1 0x0 PUSH1 0x3 PUSH8 0xFFFFFFFFFFFFFFFF DUP2 GT ISZERO PUSH2 0x6F JUMPI PUSH2 0x6E PUSH2 0x267 JUMP JUMPDEST JUMPDEST PUSH1 0x40 MLOAD SWAP1 DUP1 DUP3 MSTORE DUP1 PUSH1 0x20 MUL PUSH1 0x20 ADD DUP3 ADD PUSH1 0x40 MSTORE DUP1 ISZERO PUSH2 0x9D JUMPI DUP2 PUSH1 0x20 ADD PUSH1 0x20 DUP3 MUL DUP1 CALLDATASIZE DUP4 CALLDATACOPY DUP1 DUP3 ADD SWAP2 POP POP SWAP1 POP JUMPDEST POP SWAP1 POP PUSH1 0x4 DUP2 PUSH1 0x0 DUP2 MLOAD DUP2 LT PUSH2 0xB6 JUMPI PUSH2 0xB5 PUSH2 0x238 JUMP JUMPDEST JUMPDEST PUSH1 0x20 MUL PUSH1 0x20 ADD ADD DUP2 DUP2 MSTORE POP POP PUSH1 0x5 DUP2 PUSH1 0x1 DUP2 MLOAD DUP2 LT PUSH2 0xD8 JUMPI PUSH2 0xD7 PUSH2 0x238 JUMP JUMPDEST JUMPDEST PUSH1 0x20 MUL PUSH1 0x20 ADD ADD DUP2 DUP2 MSTORE POP POP PUSH1 0x6 DUP2 PUSH1 0x2 DUP2 MLOAD DUP2 LT PUSH2 0xFA JUMPI PUSH2 0xF9 PUSH2 0x238 JUMP JUMPDEST JUMPDEST PUSH1 0x20 MUL PUSH1 0x20 ADD ADD DUP2 DUP2 MSTORE POP POP PUSH1 0x0 DUP2 SWAP1 POP PUSH1 0xA DUP3 PUSH1 0x0 DUP2 MLOAD DUP2 LT PUSH2 0x121 JUMPI PUSH2 0x120 PUSH2 0x238 JUMP JUMPDEST JUMPDEST PUSH1 0x20 MUL PUSH1 0x20 ADD ADD DUP2 DUP2 MSTORE POP POP DUP2 DUP2 SWAP4 POP SWAP4 POP POP POP SWAP1 SWAP2 JUMP JUMPDEST PUSH1 0x0 PUSH2 0x145 DUP4 DUP4 PUSH2 0x1AF JUMP JUMPDEST PUSH1 0x20 DUP4 ADD SWAP1 POP SWAP3 SWAP2 POP POP JUMP JUMPDEST PUSH1 0x0 PUSH2 0x15C DUP3 PUSH2 0x205 JUMP JUMPDEST PUSH2 0x166 DUP2 DUP6 PUSH2 0x21D JUMP JUMPDEST SWAP4 POP PUSH2 0x171 DUP4 PUSH2 0x1F5 JUMP JUMPDEST DUP1 PUSH1 0x0 JUMPDEST DUP4 DUP2 LT ISZERO PUSH2 0x1A2 JUMPI DUP2 MLOAD PUSH2 0x189 DUP9 DUP3 PUSH2 0x139 JUMP JUMPDEST SWAP8 POP PUSH2 0x194 DUP4 PUSH2 0x210 JUMP JUMPDEST SWAP3 POP POP PUSH1 0x1 DUP2 ADD SWAP1 POP PUSH2 0x175 JUMP JUMPDEST POP DUP6 SWAP4 POP POP POP POP SWAP3 SWAP2 POP POP JUMP JUMPDEST PUSH2 0x1B8 DUP2 PUSH2 0x22E JUMP JUMPDEST DUP3 MSTORE POP POP JUMP JUMPDEST PUSH1 0x0 PUSH1 0x40 DUP3 ADD SWAP1 POP DUP2 DUP2 SUB PUSH1 0x0 DUP4 ADD MSTORE PUSH2 0x1D8 DUP2 DUP6 PUSH2 0x151 JUMP JUMPDEST SWAP1 POP DUP2 DUP2 SUB PUSH1 0x20 DUP4 ADD MSTORE PUSH2 0x1EC DUP2 DUP5 PUSH2 0x151 JUMP JUMPDEST SWAP1 POP SWAP4 SWAP3 POP POP POP JUMP JUMPDEST PUSH1 0x0 DUP2 SWAP1 POP PUSH1 0x20 DUP3 ADD SWAP1 POP SWAP2 SWAP1 POP JUMP JUMPDEST PUSH1 0x0 DUP2 MLOAD SWAP1 POP SWAP2 SWAP1 POP JUMP JUMPDEST PUSH1 0x0 PUSH1 0x20 DUP3 ADD SWAP1 POP SWAP2 SWAP1 POP JUMP JUMPDEST PUSH1 0x0 DUP3 DUP3 MSTORE PUSH1 0x20 DUP3 ADD SWAP1 POP SWAP3 SWAP2 POP POP JUMP JUMPDEST PUSH1 0x0 DUP2 SWAP1 POP SWAP2 SWAP1 POP JUMP JUMPDEST PUSH32 0x4E487B7100000000000000000000000000000000000000000000000000000000 PUSH1 0x0 MSTORE PUSH1 0x32 PUSH1 0x4 MSTORE PUSH1 0x24 PUSH1 0x0 REVERT JUMPDEST PUSH32 0x4E487B7100000000000000000000000000000000000000000000000000000000 PUSH1 0x0 MSTORE PUSH1 0x41 PUSH1 0x4 MSTORE PUSH1 0x24 PUSH1 0x0 REVERT INVALID LOG2 PUSH5 0x6970667358 0x22 SLT KECCAK256 PUSH10 0x6C68477DB9C5725E609E CALLVALUE 0x27 0xE8 PUSH13 0x97F287EE54DC9F8F1C837650C1 0xAC MOD SAR SAR PUSH5 0x736F6C6343 STOP ADDMOD SMOD STOP CALLER "
				},
				"gasEstimates": {
					"creation": {
						"codeDepositCost": "143200",
						"executionCost": "190",
						"totalCost": "143390"
					},
					"external": {
						"doSomething()": "infinite"
					}
				},
				"methodIdentifiers": {
					"doSomething()": "82692679"
				}
			},
			"storageLayout": {
				"storage": [],
				"types": null
			},
			"userdoc": {
				"kind": "user",
				"methods": {},
				"version": 1
			}
		}
	}
}