{
	"data": {
		"bytecode": {
			"linkReferences": {},
			"object": "6080604052601e6000556014600155600a60025534801561001f57600080fd5b5061017f8061002f6000396000f3fe608060405234801561001057600080fd5b506004361061004c5760003560e01c80630c55699c1461005157806373d4a13a1461006f578063a56dfe4a1461008d578063de292789146100ab575b600080fd5b6100596100c9565b6040516100669190610124565b60405180910390f35b6100776100eb565b6040516100849190610124565b60405180910390f35b6100956100f1565b6040516100a29190610124565b60405180910390f35b6100b361010b565b6040516100c09190610124565b60405180910390f35b6000600360008190555060026001819055506001600281905550600054905090565b60005481565b600060036000819055506002600181905550600154905090565b6000600354905090565b61011e8161013f565b82525050565b60006020820190506101396000830184610115565b92915050565b600081905091905056fea26469706673582212207f8f567c199787211ec351e8f884698404a06b19c105b0239b8f02994fa22e3564736f6c63430008070033",
			"opcodes": "PUSH1 0x80 PUSH1 0x40 MSTORE PUSH1 0x1E PUSH1 0x0 SSTORE PUSH1 0x14 PUSH1 0x1 SSTORE PUSH1 0xA PUSH1 0x2 SSTORE CALLVALUE DUP1 ISZERO PUSH2 0x1F JUMPI PUSH1 0x0 DUP1 REVERT JUMPDEST POP PUSH2 0x17F DUP1 PUSH2 0x2F PUSH1 0x0 CODECOPY PUSH1 0x0 RETURN INVALID PUSH1 0x80 PUSH1 0x40 MSTORE CALLVALUE DUP1 ISZERO PUSH2 0x10 JUMPI PUSH1 0x0 DUP1 REVERT JUMPDEST POP PUSH1 0x4 CALLDATASIZE LT PUSH2 0x4C JUMPI PUSH1 0x0 CALLDATALOAD PUSH1 0xE0 SHR DUP1 PUSH4 0xC55699C EQ PUSH2 0x51 JUMPI DUP1 PUSH4 0x73D4A13A EQ PUSH2 0x6F JUMPI DUP1 PUSH4 0xA56DFE4A EQ PUSH2 0x8D JUMPI DUP1 PUSH4 0xDE292789 EQ PUSH2 0xAB JUMPI JUMPDEST PUSH1 0x0 DUP1 REVERT JUMPDEST PUSH2 0x59 PUSH2 0xC9 JUMP JUMPDEST PUSH1 0x40 MLOAD PUSH2 0x66 SWAP2 SWAP1 PUSH2 0x124 JUMP JUMPDEST PUSH1 0x40 MLOAD DUP1 SWAP2 SUB SWAP1 RETURN JUMPDEST PUSH2 0x77 PUSH2 0xEB JUMP JUMPDEST PUSH1 0x40 MLOAD PUSH2 0x84 SWAP2 SWAP1 PUSH2 0x124 JUMP JUMPDEST PUSH1 0x40 MLOAD DUP1 SWAP2 SUB SWAP1 RETURN JUMPDEST PUSH2 0x95 PUSH2 0xF1 JUMP JUMPDEST PUSH1 0x40 MLOAD PUSH2 0xA2 SWAP2 SWAP1 PUSH2 0x124 JUMP JUMPDEST PUSH1 0x40 MLOAD DUP1 SWAP2 SUB SWAP1 RETURN JUMPDEST PUSH2 0xB3 PUSH2 0x10B JUMP JUMPDEST PUSH1 0x40 MLOAD PUSH2 0xC0 SWAP2 SWAP1 PUSH2 0x124 JUMP JUMPDEST PUSH1 0x40 MLOAD DUP1 SWAP2 SUB SWAP1 RETURN JUMPDEST PUSH1 0x0 PUSH1 0x3 PUSH1 0x0 DUP2 SWAP1 SSTORE POP PUSH1 0x2 PUSH1 0x1 DUP2 SWAP1 SSTORE POP PUSH1 0x1 PUSH1 0x2 DUP2 SWAP1 SSTORE POP PUSH1 0x0 SLOAD SWAP1 POP SWAP1 JUMP JUMPDEST PUSH1 0x0 SLOAD DUP2 JUMP JUMPDEST PUSH1 0x0 PUSH1 0x3 PUSH1 0x0 DUP2 SWAP1 SSTORE POP PUSH1 0x2 PUSH1 0x1 DUP2 SWAP1 SSTORE POP PUSH1 0x1 SLOAD SWAP1 POP SWAP1 JUMP JUMPDEST PUSH1 0x0 PUSH1 0x3 SLOAD SWAP1 POP SWAP1 JUMP JUMPDEST PUSH2 0x11E DUP2 PUSH2 0x13F JUMP JUMPDEST DUP3 MSTORE POP POP JUMP JUMPDEST PUSH1 0x0 PUSH1 0x20 DUP3 ADD SWAP1 POP PUSH2 0x139 PUSH1 0x0 DUP4 ADD DUP5 PUSH2 0x115 JUMP JUMPDEST SWAP3 SWAP2 POP POP JUMP JUMPDEST PUSH1 0x0 DUP2 SWAP1 POP SWAP2 SWAP1 POP JUMP INVALID LOG2 PUSH5 0x6970667358 0x22 SLT KECCAK256 PUSH32 0x8F567C199787211EC351E8F884698404A06B19C105B0239B8F02994FA22E3564 PUSH20 0x6F6C634300080700330000000000000000000000 "
		},
		"gasEstimates": {
			"creation": {
				"codeDepositCost": "76600",
				"executionCost": "66441",
				"totalCost": "143041"
			},
			"external": {
				"data()": "2429",
				"getResult()": "2481",
				"x()": "68757",
				"y()": "46687"
			}
		},
		"methodIdentifiers": {
			"data()": "73d4a13a",
			"getResult()": "de292789",
			"x()": "0c55699c",
			"y()": "a56dfe4a"
		}
	},
	"abi": [
		{
			"inputs": [],
			"name": "data",
			"outputs": [
				{
					"internalType": "uint256",
					"name": "",
					"type": "uint256"
				}
			],
			"stateMutability": "view",
			"type": "function"
		},
		{
			"inputs": [],
			"name": "getResult",
			"outputs": [
				{
					"internalType": "uint256",
					"name": "",
					"type": "uint256"
				}
			],
			"stateMutability": "view",
			"type": "function"
		},
		{
			"inputs": [],
			"name": "x",
			"outputs": [
				{
					"internalType": "uint256",
					"name": "",
					"type": "uint256"
				}
			],
			"stateMutability": "nonpayable",
			"type": "function"
		},
		{
			"inputs": [],
			"name": "y",
			"outputs": [
				{
					"internalType": "uint256",
					"name": "",
					"type": "uint256"
				}
			],
			"stateMutability": "nonpayable",
			"type": "function"
		}
	]
}