{
	"调用合约/Test2.sol": {
		"SolidityTest": {
			"abi": [
				{
					"inputs": [
						{
							"internalType": "address",
							"name": "addr",
							"type": "address"
						}
					],
					"name": "callHello",
					"outputs": [
						{
							"internalType": "string",
							"name": "",
							"type": "string"
						}
					],
					"stateMutability": "view",
					"type": "function"
				}
			],
			"devdoc": {
				"kind": "dev",
				"methods": {},
				"version": 1
			},
			"evm": {
				"assembly": "    /* \"\\xe8\\xb0\\x83\\xe7\\x94\\xa8\\xe5\\x90\\x88\\xe7\\xba\\xa6/Test2.sol\":60:499  contract SolidityTest {... */\n  mstore(0x40, 0x80)\n  callvalue\n  dup1\n  iszero\n  tag_1\n  jumpi\n  0x00\n  dup1\n  revert\ntag_1:\n  pop\n  dataSize(sub_0)\n  dup1\n  dataOffset(sub_0)\n  0x00\n  codecopy\n  0x00\n  return\nstop\n\nsub_0: assembly {\n        /* \"\\xe8\\xb0\\x83\\xe7\\x94\\xa8\\xe5\\x90\\x88\\xe7\\xba\\xa6/Test2.sol\":60:499  contract SolidityTest {... */\n      mstore(0x40, 0x80)\n      callvalue\n      dup1\n      iszero\n      tag_1\n      jumpi\n      0x00\n      dup1\n      revert\n    tag_1:\n      pop\n      jumpi(tag_2, lt(calldatasize, 0x04))\n      shr(0xe0, calldataload(0x00))\n      dup1\n      0x286f478e\n      eq\n      tag_3\n      jumpi\n    tag_2:\n      0x00\n      dup1\n      revert\n        /* \"\\xe8\\xb0\\x83\\xe7\\x94\\xa8\\xe5\\x90\\x88\\xe7\\xba\\xa6/Test2.sol\":89:496  function callHello(address addr) external view returns(string memory) {... */\n    tag_3:\n      tag_4\n      0x04\n      dup1\n      calldatasize\n      sub\n      dup2\n      add\n      swap1\n      tag_5\n      swap2\n      swap1\n      tag_6\n      jump\t// in\n    tag_5:\n      tag_7\n      jump\t// in\n    tag_4:\n      mload(0x40)\n      tag_8\n      swap2\n      swap1\n      tag_9\n      jump\t// in\n    tag_8:\n      mload(0x40)\n      dup1\n      swap2\n      sub\n      swap1\n      return\n    tag_7:\n        /* \"\\xe8\\xb0\\x83\\xe7\\x94\\xa8\\xe5\\x90\\x88\\xe7\\xba\\xa6/Test2.sol\":144:157  string memory */\n      0x60\n        /* \"\\xe8\\xb0\\x83\\xe7\\x94\\xa8\\xe5\\x90\\x88\\xe7\\xba\\xa6/Test2.sol\":217:232  bytes4 methodId */\n      0x00\n        /* \"\\xe8\\xb0\\x83\\xe7\\x94\\xa8\\xe5\\x90\\x88\\xe7\\xba\\xa6/Test2.sol\":242:261  keccak256(\"echo()\") */\n      0x29f4acb0ed8a5b2201afd96e6e3bcbca8f3ea01c1a7ccdacf8c292a92d60067f\n        /* \"\\xe8\\xb0\\x83\\xe7\\x94\\xa8\\xe5\\x90\\x88\\xe7\\xba\\xa6/Test2.sol\":217:262  bytes4 methodId = bytes4(keccak256(\"echo()\")) */\n      swap1\n      pop\n        /* \"\\xe8\\xb0\\x83\\xe7\\x94\\xa8\\xe5\\x90\\x88\\xe7\\xba\\xa6/Test2.sol\":276:288  bool success */\n      0x00\n        /* \"\\xe8\\xb0\\x83\\xe7\\x94\\xa8\\xe5\\x90\\x88\\xe7\\xba\\xa6/Test2.sol\":290:307  bytes memory data */\n      dup1\n        /* \"\\xe8\\xb0\\x83\\xe7\\x94\\xa8\\xe5\\x90\\x88\\xe7\\xba\\xa6/Test2.sol\":311:315  addr */\n      dup5\n        /* \"\\xe8\\xb0\\x83\\xe7\\x94\\xa8\\xe5\\x90\\x88\\xe7\\xba\\xa6/Test2.sol\":311:326  addr.staticcall */\n      0xffffffffffffffffffffffffffffffffffffffff\n      and\n        /* \"\\xe8\\xb0\\x83\\xe7\\x94\\xa8\\xe5\\x90\\x88\\xe7\\xba\\xa6/Test2.sol\":350:358  methodId */\n      dup4\n        /* \"\\xe8\\xb0\\x83\\xe7\\x94\\xa8\\xe5\\x90\\x88\\xe7\\xba\\xa6/Test2.sol\":327:359  abi.encodeWithSelector(methodId) */\n      add(0x24, mload(0x40))\n      mload(0x40)\n      0x20\n      dup2\n      dup4\n      sub\n      sub\n      dup2\n      mstore\n      swap1\n      0x40\n      mstore\n      swap1\n      not(0xffffffffffffffffffffffffffffffffffffffffffffffffffffffff)\n      and\n      0x20\n      dup3\n      add\n      dup1\n      mload\n      0xffffffffffffffffffffffffffffffffffffffffffffffffffffffff\n      dup4\n      dup2\n      dup4\n      and\n      or\n      dup4\n      mstore\n      pop\n      pop\n      pop\n      pop\n        /* \"\\xe8\\xb0\\x83\\xe7\\x94\\xa8\\xe5\\x90\\x88\\xe7\\xba\\xa6/Test2.sol\":311:360  addr.staticcall(abi.encodeWithSelector(methodId)) */\n      mload(0x40)\n      tag_11\n      swap2\n      swap1\n      tag_12\n      jump\t// in\n    tag_11:\n      0x00\n      mload(0x40)\n      dup1\n      dup4\n      sub\n      dup2\n      dup6\n      gas\n      staticcall\n      swap2\n      pop\n      pop\n      returndatasize\n      dup1\n      0x00\n      dup2\n      eq\n      tag_15\n      jumpi\n      mload(0x40)\n      swap2\n      pop\n      and(add(returndatasize, 0x3f), not(0x1f))\n      dup3\n      add\n      0x40\n      mstore\n      returndatasize\n      dup3\n      mstore\n      returndatasize\n      0x00\n      0x20\n      dup5\n      add\n      returndatacopy\n      jump(tag_14)\n    tag_15:\n      0x60\n      swap2\n      pop\n    tag_14:\n      pop\n        /* \"\\xe8\\xb0\\x83\\xe7\\x94\\xa8\\xe5\\x90\\x88\\xe7\\xba\\xa6/Test2.sol\":275:360  (bool success, bytes memory data) = addr.staticcall(abi.encodeWithSelector(methodId)) */\n      swap2\n      pop\n      swap2\n      pop\n        /* \"\\xe8\\xb0\\x83\\xe7\\x94\\xa8\\xe5\\x90\\x88\\xe7\\xba\\xa6/Test2.sol\":374:381  success */\n      dup2\n        /* \"\\xe8\\xb0\\x83\\xe7\\x94\\xa8\\xe5\\x90\\x88\\xe7\\xba\\xa6/Test2.sol\":371:489  if(success) {... */\n      iszero\n      tag_16\n      jumpi\n        /* \"\\xe8\\xb0\\x83\\xe7\\x94\\xa8\\xe5\\x90\\x88\\xe7\\xba\\xa6/Test2.sol\":416:420  data */\n      dup1\n        /* \"\\xe8\\xb0\\x83\\xe7\\x94\\xa8\\xe5\\x90\\x88\\xe7\\xba\\xa6/Test2.sol\":405:430  abi.decode(data,(string)) */\n      dup1\n      0x20\n      add\n      swap1\n      mload\n      dup2\n      add\n      swap1\n      tag_17\n      swap2\n      swap1\n      tag_18\n      jump\t// in\n    tag_17:\n        /* \"\\xe8\\xb0\\x83\\xe7\\x94\\xa8\\xe5\\x90\\x88\\xe7\\xba\\xa6/Test2.sol\":398:430  return abi.decode(data,(string)) */\n      swap4\n      pop\n      pop\n      pop\n      pop\n      jump(tag_10)\n        /* \"\\xe8\\xb0\\x83\\xe7\\x94\\xa8\\xe5\\x90\\x88\\xe7\\xba\\xa6/Test2.sol\":371:489  if(success) {... */\n    tag_16:\n        /* \"\\xe8\\xb0\\x83\\xe7\\x94\\xa8\\xe5\\x90\\x88\\xe7\\xba\\xa6/Test2.sol\":463:477  return \"error\" */\n      mload(0x40)\n      dup1\n      0x40\n      add\n      0x40\n      mstore\n      dup1\n      0x05\n      dup2\n      mstore\n      0x20\n      add\n      0x6572726f72000000000000000000000000000000000000000000000000000000\n      dup2\n      mstore\n      pop\n      swap4\n      pop\n      pop\n      pop\n      pop\n        /* \"\\xe8\\xb0\\x83\\xe7\\x94\\xa8\\xe5\\x90\\x88\\xe7\\xba\\xa6/Test2.sol\":89:496  function callHello(address addr) external view returns(string memory) {... */\n    tag_10:\n      swap2\n      swap1\n      pop\n      jump\t// out\n        /* \"#utility.yul\":7:82   */\n    tag_20:\n        /* \"#utility.yul\":40:46   */\n      0x00\n        /* \"#utility.yul\":73:75   */\n      0x40\n        /* \"#utility.yul\":67:76   */\n      mload\n        /* \"#utility.yul\":57:76   */\n      swap1\n      pop\n        /* \"#utility.yul\":7:82   */\n      swap1\n      jump\t// out\n        /* \"#utility.yul\":88:205   */\n    tag_21:\n        /* \"#utility.yul\":197:198   */\n      0x00\n        /* \"#utility.yul\":194:195   */\n      dup1\n        /* \"#utility.yul\":187:199   */\n      revert\n        /* \"#utility.yul\":211:328   */\n    tag_22:\n        /* \"#utility.yul\":320:321   */\n      0x00\n        /* \"#utility.yul\":317:318   */\n      dup1\n        /* \"#utility.yul\":310:322   */\n      revert\n        /* \"#utility.yul\":334:460   */\n    tag_23:\n        /* \"#utility.yul\":371:378   */\n      0x00\n        /* \"#utility.yul\":411:453   */\n      0xffffffffffffffffffffffffffffffffffffffff\n        /* \"#utility.yul\":404:409   */\n      dup3\n        /* \"#utility.yul\":400:454   */\n      and\n        /* \"#utility.yul\":389:454   */\n      swap1\n      pop\n        /* \"#utility.yul\":334:460   */\n      swap2\n      swap1\n      pop\n      jump\t// out\n        /* \"#utility.yul\":466:562   */\n    tag_24:\n        /* \"#utility.yul\":503:510   */\n      0x00\n        /* \"#utility.yul\":532:556   */\n      tag_49\n        /* \"#utility.yul\":550:555   */\n      dup3\n        /* \"#utility.yul\":532:556   */\n      tag_23\n      jump\t// in\n    tag_49:\n        /* \"#utility.yul\":521:556   */\n      swap1\n      pop\n        /* \"#utility.yul\":466:562   */\n      swap2\n      swap1\n      pop\n      jump\t// out\n        /* \"#utility.yul\":568:690   */\n    tag_25:\n        /* \"#utility.yul\":641:665   */\n      tag_51\n        /* \"#utility.yul\":659:664   */\n      dup2\n        /* \"#utility.yul\":641:665   */\n      tag_24\n      jump\t// in\n    tag_51:\n        /* \"#utility.yul\":634:639   */\n      dup2\n        /* \"#utility.yul\":631:666   */\n      eq\n        /* \"#utility.yul\":621:684   */\n      tag_52\n      jumpi\n        /* \"#utility.yul\":680:681   */\n      0x00\n        /* \"#utility.yul\":677:678   */\n      dup1\n        /* \"#utility.yul\":670:682   */\n      revert\n        /* \"#utility.yul\":621:684   */\n    tag_52:\n        /* \"#utility.yul\":568:690   */\n      pop\n      jump\t// out\n        /* \"#utility.yul\":696:835   */\n    tag_26:\n        /* \"#utility.yul\":742:747   */\n      0x00\n        /* \"#utility.yul\":780:786   */\n      dup2\n        /* \"#utility.yul\":767:787   */\n      calldataload\n        /* \"#utility.yul\":758:787   */\n      swap1\n      pop\n        /* \"#utility.yul\":796:829   */\n      tag_54\n        /* \"#utility.yul\":823:828   */\n      dup2\n        /* \"#utility.yul\":796:829   */\n      tag_25\n      jump\t// in\n    tag_54:\n        /* \"#utility.yul\":696:835   */\n      swap3\n      swap2\n      pop\n      pop\n      jump\t// out\n        /* \"#utility.yul\":841:1170   */\n    tag_6:\n        /* \"#utility.yul\":900:906   */\n      0x00\n        /* \"#utility.yul\":949:951   */\n      0x20\n        /* \"#utility.yul\":937:946   */\n      dup3\n        /* \"#utility.yul\":928:935   */\n      dup5\n        /* \"#utility.yul\":924:947   */\n      sub\n        /* \"#utility.yul\":920:952   */\n      slt\n        /* \"#utility.yul\":917:1036   */\n      iszero\n      tag_56\n      jumpi\n        /* \"#utility.yul\":955:1034   */\n      tag_57\n      tag_21\n      jump\t// in\n    tag_57:\n        /* \"#utility.yul\":917:1036   */\n    tag_56:\n        /* \"#utility.yul\":1075:1076   */\n      0x00\n        /* \"#utility.yul\":1100:1153   */\n      tag_58\n        /* \"#utility.yul\":1145:1152   */\n      dup5\n        /* \"#utility.yul\":1136:1142   */\n      dup3\n        /* \"#utility.yul\":1125:1134   */\n      dup6\n        /* \"#utility.yul\":1121:1143   */\n      add\n        /* \"#utility.yul\":1100:1153   */\n      tag_26\n      jump\t// in\n    tag_58:\n        /* \"#utility.yul\":1090:1153   */\n      swap2\n      pop\n        /* \"#utility.yul\":1046:1163   */\n      pop\n        /* \"#utility.yul\":841:1170   */\n      swap3\n      swap2\n      pop\n      pop\n      jump\t// out\n        /* \"#utility.yul\":1176:1275   */\n    tag_27:\n        /* \"#utility.yul\":1228:1234   */\n      0x00\n        /* \"#utility.yul\":1262:1267   */\n      dup2\n        /* \"#utility.yul\":1256:1268   */\n      mload\n        /* \"#utility.yul\":1246:1268   */\n      swap1\n      pop\n        /* \"#utility.yul\":1176:1275   */\n      swap2\n      swap1\n      pop\n      jump\t// out\n        /* \"#utility.yul\":1281:1450   */\n    tag_28:\n        /* \"#utility.yul\":1365:1376   */\n      0x00\n        /* \"#utility.yul\":1399:1405   */\n      dup3\n        /* \"#utility.yul\":1394:1397   */\n      dup3\n        /* \"#utility.yul\":1387:1406   */\n      mstore\n        /* \"#utility.yul\":1439:1443   */\n      0x20\n        /* \"#utility.yul\":1434:1437   */\n      dup3\n        /* \"#utility.yul\":1430:1444   */\n      add\n        /* \"#utility.yul\":1415:1444   */\n      swap1\n      pop\n        /* \"#utility.yul\":1281:1450   */\n      swap3\n      swap2\n      pop\n      pop\n      jump\t// out\n        /* \"#utility.yul\":1456:1702   */\n    tag_29:\n        /* \"#utility.yul\":1537:1538   */\n      0x00\n        /* \"#utility.yul\":1547:1660   */\n    tag_62:\n        /* \"#utility.yul\":1561:1567   */\n      dup4\n        /* \"#utility.yul\":1558:1559   */\n      dup2\n        /* \"#utility.yul\":1555:1568   */\n      lt\n        /* \"#utility.yul\":1547:1660   */\n      iszero\n      tag_64\n      jumpi\n        /* \"#utility.yul\":1646:1647   */\n      dup1\n        /* \"#utility.yul\":1641:1644   */\n      dup3\n        /* \"#utility.yul\":1637:1648   */\n      add\n        /* \"#utility.yul\":1631:1649   */\n      mload\n        /* \"#utility.yul\":1627:1628   */\n      dup2\n        /* \"#utility.yul\":1622:1625   */\n      dup5\n        /* \"#utility.yul\":1618:1629   */\n      add\n        /* \"#utility.yul\":1611:1650   */\n      mstore\n        /* \"#utility.yul\":1583:1585   */\n      0x20\n        /* \"#utility.yul\":1580:1581   */\n      dup2\n        /* \"#utility.yul\":1576:1586   */\n      add\n        /* \"#utility.yul\":1571:1586   */\n      swap1\n      pop\n        /* \"#utility.yul\":1547:1660   */\n      jump(tag_62)\n    tag_64:\n        /* \"#utility.yul\":1694:1695   */\n      0x00\n        /* \"#utility.yul\":1685:1691   */\n      dup5\n        /* \"#utility.yul\":1680:1683   */\n      dup5\n        /* \"#utility.yul\":1676:1692   */\n      add\n        /* \"#utility.yul\":1669:1696   */\n      mstore\n        /* \"#utility.yul\":1518:1702   */\n      pop\n        /* \"#utility.yul\":1456:1702   */\n      pop\n      pop\n      pop\n      jump\t// out\n        /* \"#utility.yul\":1708:1810   */\n    tag_30:\n        /* \"#utility.yul\":1749:1755   */\n      0x00\n        /* \"#utility.yul\":1800:1802   */\n      0x1f\n        /* \"#utility.yul\":1796:1803   */\n      not\n        /* \"#utility.yul\":1791:1793   */\n      0x1f\n        /* \"#utility.yul\":1784:1789   */\n      dup4\n        /* \"#utility.yul\":1780:1794   */\n      add\n        /* \"#utility.yul\":1776:1804   */\n      and\n        /* \"#utility.yul\":1766:1804   */\n      swap1\n      pop\n        /* \"#utility.yul\":1708:1810   */\n      swap2\n      swap1\n      pop\n      jump\t// out\n        /* \"#utility.yul\":1816:2193   */\n    tag_31:\n        /* \"#utility.yul\":1904:1907   */\n      0x00\n        /* \"#utility.yul\":1932:1971   */\n      tag_67\n        /* \"#utility.yul\":1965:1970   */\n      dup3\n        /* \"#utility.yul\":1932:1971   */\n      tag_27\n      jump\t// in\n    tag_67:\n        /* \"#utility.yul\":1987:2058   */\n      tag_68\n        /* \"#utility.yul\":2051:2057   */\n      dup2\n        /* \"#utility.yul\":2046:2049   */\n      dup6\n        /* \"#utility.yul\":1987:2058   */\n      tag_28\n      jump\t// in\n    tag_68:\n        /* \"#utility.yul\":1980:2058   */\n      swap4\n      pop\n        /* \"#utility.yul\":2067:2132   */\n      tag_69\n        /* \"#utility.yul\":2125:2131   */\n      dup2\n        /* \"#utility.yul\":2120:2123   */\n      dup6\n        /* \"#utility.yul\":2113:2117   */\n      0x20\n        /* \"#utility.yul\":2106:2111   */\n      dup7\n        /* \"#utility.yul\":2102:2118   */\n      add\n        /* \"#utility.yul\":2067:2132   */\n      tag_29\n      jump\t// in\n    tag_69:\n        /* \"#utility.yul\":2157:2186   */\n      tag_70\n        /* \"#utility.yul\":2179:2185   */\n      dup2\n        /* \"#utility.yul\":2157:2186   */\n      tag_30\n      jump\t// in\n    tag_70:\n        /* \"#utility.yul\":2152:2155   */\n      dup5\n        /* \"#utility.yul\":2148:2187   */\n      add\n        /* \"#utility.yul\":2141:2187   */\n      swap2\n      pop\n        /* \"#utility.yul\":1908:2193   */\n      pop\n        /* \"#utility.yul\":1816:2193   */\n      swap3\n      swap2\n      pop\n      pop\n      jump\t// out\n        /* \"#utility.yul\":2199:2512   */\n    tag_9:\n        /* \"#utility.yul\":2312:2316   */\n      0x00\n        /* \"#utility.yul\":2350:2352   */\n      0x20\n        /* \"#utility.yul\":2339:2348   */\n      dup3\n        /* \"#utility.yul\":2335:2353   */\n      add\n        /* \"#utility.yul\":2327:2353   */\n      swap1\n      pop\n        /* \"#utility.yul\":2399:2408   */\n      dup2\n        /* \"#utility.yul\":2393:2397   */\n      dup2\n        /* \"#utility.yul\":2389:2409   */\n      sub\n        /* \"#utility.yul\":2385:2386   */\n      0x00\n        /* \"#utility.yul\":2374:2383   */\n      dup4\n        /* \"#utility.yul\":2370:2387   */\n      add\n        /* \"#utility.yul\":2363:2410   */\n      mstore\n        /* \"#utility.yul\":2427:2505   */\n      tag_72\n        /* \"#utility.yul\":2500:2504   */\n      dup2\n        /* \"#utility.yul\":2491:2497   */\n      dup5\n        /* \"#utility.yul\":2427:2505   */\n      tag_31\n      jump\t// in\n    tag_72:\n        /* \"#utility.yul\":2419:2505   */\n      swap1\n      pop\n        /* \"#utility.yul\":2199:2512   */\n      swap3\n      swap2\n      pop\n      pop\n      jump\t// out\n        /* \"#utility.yul\":2518:2616   */\n    tag_32:\n        /* \"#utility.yul\":2569:2575   */\n      0x00\n        /* \"#utility.yul\":2603:2608   */\n      dup2\n        /* \"#utility.yul\":2597:2609   */\n      mload\n        /* \"#utility.yul\":2587:2609   */\n      swap1\n      pop\n        /* \"#utility.yul\":2518:2616   */\n      swap2\n      swap1\n      pop\n      jump\t// out\n        /* \"#utility.yul\":2622:2769   */\n    tag_33:\n        /* \"#utility.yul\":2723:2734   */\n      0x00\n        /* \"#utility.yul\":2760:2763   */\n      dup2\n        /* \"#utility.yul\":2745:2763   */\n      swap1\n      pop\n        /* \"#utility.yul\":2622:2769   */\n      swap3\n      swap2\n      pop\n      pop\n      jump\t// out\n        /* \"#utility.yul\":2775:3161   */\n    tag_34:\n        /* \"#utility.yul\":2879:2882   */\n      0x00\n        /* \"#utility.yul\":2907:2945   */\n      tag_76\n        /* \"#utility.yul\":2939:2944   */\n      dup3\n        /* \"#utility.yul\":2907:2945   */\n      tag_32\n      jump\t// in\n    tag_76:\n        /* \"#utility.yul\":2961:3049   */\n      tag_77\n        /* \"#utility.yul\":3042:3048   */\n      dup2\n        /* \"#utility.yul\":3037:3040   */\n      dup6\n        /* \"#utility.yul\":2961:3049   */\n      tag_33\n      jump\t// in\n    tag_77:\n        /* \"#utility.yul\":2954:3049   */\n      swap4\n      pop\n        /* \"#utility.yul\":3058:3123   */\n      tag_78\n        /* \"#utility.yul\":3116:3122   */\n      dup2\n        /* \"#utility.yul\":3111:3114   */\n      dup6\n        /* \"#utility.yul\":3104:3108   */\n      0x20\n        /* \"#utility.yul\":3097:3102   */\n      dup7\n        /* \"#utility.yul\":3093:3109   */\n      add\n        /* \"#utility.yul\":3058:3123   */\n      tag_29\n      jump\t// in\n    tag_78:\n        /* \"#utility.yul\":3148:3154   */\n      dup1\n        /* \"#utility.yul\":3143:3146   */\n      dup5\n        /* \"#utility.yul\":3139:3155   */\n      add\n        /* \"#utility.yul\":3132:3155   */\n      swap2\n      pop\n        /* \"#utility.yul\":2883:3161   */\n      pop\n        /* \"#utility.yul\":2775:3161   */\n      swap3\n      swap2\n      pop\n      pop\n      jump\t// out\n        /* \"#utility.yul\":3167:3438   */\n    tag_12:\n        /* \"#utility.yul\":3297:3300   */\n      0x00\n        /* \"#utility.yul\":3319:3412   */\n      tag_80\n        /* \"#utility.yul\":3408:3411   */\n      dup3\n        /* \"#utility.yul\":3399:3405   */\n      dup5\n        /* \"#utility.yul\":3319:3412   */\n      tag_34\n      jump\t// in\n    tag_80:\n        /* \"#utility.yul\":3312:3412   */\n      swap2\n      pop\n        /* \"#utility.yul\":3429:3432   */\n      dup2\n        /* \"#utility.yul\":3422:3432   */\n      swap1\n      pop\n        /* \"#utility.yul\":3167:3438   */\n      swap3\n      swap2\n      pop\n      pop\n      jump\t// out\n        /* \"#utility.yul\":3444:3561   */\n    tag_35:\n        /* \"#utility.yul\":3553:3554   */\n      0x00\n        /* \"#utility.yul\":3550:3551   */\n      dup1\n        /* \"#utility.yul\":3543:3555   */\n      revert\n        /* \"#utility.yul\":3567:3684   */\n    tag_36:\n        /* \"#utility.yul\":3676:3677   */\n      0x00\n        /* \"#utility.yul\":3673:3674   */\n      dup1\n        /* \"#utility.yul\":3666:3678   */\n      revert\n        /* \"#utility.yul\":3690:3870   */\n    tag_37:\n        /* \"#utility.yul\":3738:3815   */\n      0x4e487b7100000000000000000000000000000000000000000000000000000000\n        /* \"#utility.yul\":3735:3736   */\n      0x00\n        /* \"#utility.yul\":3728:3816   */\n      mstore\n        /* \"#utility.yul\":3835:3839   */\n      0x41\n        /* \"#utility.yul\":3832:3833   */\n      0x04\n        /* \"#utility.yul\":3825:3840   */\n      mstore\n        /* \"#utility.yul\":3859:3863   */\n      0x24\n        /* \"#utility.yul\":3856:3857   */\n      0x00\n        /* \"#utility.yul\":3849:3864   */\n      revert\n        /* \"#utility.yul\":3876:4157   */\n    tag_38:\n        /* \"#utility.yul\":3959:3986   */\n      tag_85\n        /* \"#utility.yul\":3981:3985   */\n      dup3\n        /* \"#utility.yul\":3959:3986   */\n      tag_30\n      jump\t// in\n    tag_85:\n        /* \"#utility.yul\":3951:3957   */\n      dup2\n        /* \"#utility.yul\":3947:3987   */\n      add\n        /* \"#utility.yul\":4089:4095   */\n      dup2\n        /* \"#utility.yul\":4077:4087   */\n      dup2\n        /* \"#utility.yul\":4074:4096   */\n      lt\n        /* \"#utility.yul\":4053:4071   */\n      0xffffffffffffffff\n        /* \"#utility.yul\":4041:4051   */\n      dup3\n        /* \"#utility.yul\":4038:4072   */\n      gt\n        /* \"#utility.yul\":4035:4097   */\n      or\n        /* \"#utility.yul\":4032:4120   */\n      iszero\n      tag_86\n      jumpi\n        /* \"#utility.yul\":4100:4118   */\n      tag_87\n      tag_37\n      jump\t// in\n    tag_87:\n        /* \"#utility.yul\":4032:4120   */\n    tag_86:\n        /* \"#utility.yul\":4140:4150   */\n      dup1\n        /* \"#utility.yul\":4136:4138   */\n      0x40\n        /* \"#utility.yul\":4129:4151   */\n      mstore\n        /* \"#utility.yul\":3919:4157   */\n      pop\n        /* \"#utility.yul\":3876:4157   */\n      pop\n      pop\n      jump\t// out\n        /* \"#utility.yul\":4163:4292   */\n    tag_39:\n        /* \"#utility.yul\":4197:4203   */\n      0x00\n        /* \"#utility.yul\":4224:4244   */\n      tag_89\n      tag_20\n      jump\t// in\n    tag_89:\n        /* \"#utility.yul\":4214:4244   */\n      swap1\n      pop\n        /* \"#utility.yul\":4253:4286   */\n      tag_90\n        /* \"#utility.yul\":4281:4285   */\n      dup3\n        /* \"#utility.yul\":4273:4279   */\n      dup3\n        /* \"#utility.yul\":4253:4286   */\n      tag_38\n      jump\t// in\n    tag_90:\n        /* \"#utility.yul\":4163:4292   */\n      swap2\n      swap1\n      pop\n      jump\t// out\n        /* \"#utility.yul\":4298:4606   */\n    tag_40:\n        /* \"#utility.yul\":4360:4364   */\n      0x00\n        /* \"#utility.yul\":4450:4468   */\n      0xffffffffffffffff\n        /* \"#utility.yul\":4442:4448   */\n      dup3\n        /* \"#utility.yul\":4439:4469   */\n      gt\n        /* \"#utility.yul\":4436:4492   */\n      iszero\n      tag_92\n      jumpi\n        /* \"#utility.yul\":4472:4490   */\n      tag_93\n      tag_37\n      jump\t// in\n    tag_93:\n        /* \"#utility.yul\":4436:4492   */\n    tag_92:\n        /* \"#utility.yul\":4510:4539   */\n      tag_94\n        /* \"#utility.yul\":4532:4538   */\n      dup3\n        /* \"#utility.yul\":4510:4539   */\n      tag_30\n      jump\t// in\n    tag_94:\n        /* \"#utility.yul\":4502:4539   */\n      swap1\n      pop\n        /* \"#utility.yul\":4594:4598   */\n      0x20\n        /* \"#utility.yul\":4588:4592   */\n      dup2\n        /* \"#utility.yul\":4584:4599   */\n      add\n        /* \"#utility.yul\":4576:4599   */\n      swap1\n      pop\n        /* \"#utility.yul\":4298:4606   */\n      swap2\n      swap1\n      pop\n      jump\t// out\n        /* \"#utility.yul\":4612:5046   */\n    tag_41:\n        /* \"#utility.yul\":4701:4706   */\n      0x00\n        /* \"#utility.yul\":4726:4792   */\n      tag_96\n        /* \"#utility.yul\":4742:4791   */\n      tag_97\n        /* \"#utility.yul\":4784:4790   */\n      dup5\n        /* \"#utility.yul\":4742:4791   */\n      tag_40\n      jump\t// in\n    tag_97:\n        /* \"#utility.yul\":4726:4792   */\n      tag_39\n      jump\t// in\n    tag_96:\n        /* \"#utility.yul\":4717:4792   */\n      swap1\n      pop\n        /* \"#utility.yul\":4815:4821   */\n      dup3\n        /* \"#utility.yul\":4808:4813   */\n      dup2\n        /* \"#utility.yul\":4801:4822   */\n      mstore\n        /* \"#utility.yul\":4853:4857   */\n      0x20\n        /* \"#utility.yul\":4846:4851   */\n      dup2\n        /* \"#utility.yul\":4842:4858   */\n      add\n        /* \"#utility.yul\":4891:4894   */\n      dup5\n        /* \"#utility.yul\":4882:4888   */\n      dup5\n        /* \"#utility.yul\":4877:4880   */\n      dup5\n        /* \"#utility.yul\":4873:4889   */\n      add\n        /* \"#utility.yul\":4870:4895   */\n      gt\n        /* \"#utility.yul\":4867:4979   */\n      iszero\n      tag_98\n      jumpi\n        /* \"#utility.yul\":4898:4977   */\n      tag_99\n      tag_36\n      jump\t// in\n    tag_99:\n        /* \"#utility.yul\":4867:4979   */\n    tag_98:\n        /* \"#utility.yul\":4988:5040   */\n      tag_100\n        /* \"#utility.yul\":5033:5039   */\n      dup5\n        /* \"#utility.yul\":5028:5031   */\n      dup3\n        /* \"#utility.yul\":5023:5026   */\n      dup6\n        /* \"#utility.yul\":4988:5040   */\n      tag_29\n      jump\t// in\n    tag_100:\n        /* \"#utility.yul\":4707:5046   */\n      pop\n        /* \"#utility.yul\":4612:5046   */\n      swap4\n      swap3\n      pop\n      pop\n      pop\n      jump\t// out\n        /* \"#utility.yul\":5066:5421   */\n    tag_42:\n        /* \"#utility.yul\":5133:5138   */\n      0x00\n        /* \"#utility.yul\":5182:5185   */\n      dup3\n        /* \"#utility.yul\":5175:5179   */\n      0x1f\n        /* \"#utility.yul\":5167:5173   */\n      dup4\n        /* \"#utility.yul\":5163:5180   */\n      add\n        /* \"#utility.yul\":5159:5186   */\n      slt\n        /* \"#utility.yul\":5149:5271   */\n      tag_102\n      jumpi\n        /* \"#utility.yul\":5190:5269   */\n      tag_103\n      tag_35\n      jump\t// in\n    tag_103:\n        /* \"#utility.yul\":5149:5271   */\n    tag_102:\n        /* \"#utility.yul\":5300:5306   */\n      dup2\n        /* \"#utility.yul\":5294:5307   */\n      mload\n        /* \"#utility.yul\":5325:5415   */\n      tag_104\n        /* \"#utility.yul\":5411:5414   */\n      dup5\n        /* \"#utility.yul\":5403:5409   */\n      dup3\n        /* \"#utility.yul\":5396:5400   */\n      0x20\n        /* \"#utility.yul\":5388:5394   */\n      dup7\n        /* \"#utility.yul\":5384:5401   */\n      add\n        /* \"#utility.yul\":5325:5415   */\n      tag_41\n      jump\t// in\n    tag_104:\n        /* \"#utility.yul\":5316:5415   */\n      swap2\n      pop\n        /* \"#utility.yul\":5139:5421   */\n      pop\n        /* \"#utility.yul\":5066:5421   */\n      swap3\n      swap2\n      pop\n      pop\n      jump\t// out\n        /* \"#utility.yul\":5427:5951   */\n    tag_18:\n        /* \"#utility.yul\":5507:5513   */\n      0x00\n        /* \"#utility.yul\":5556:5558   */\n      0x20\n        /* \"#utility.yul\":5544:5553   */\n      dup3\n        /* \"#utility.yul\":5535:5542   */\n      dup5\n        /* \"#utility.yul\":5531:5554   */\n      sub\n        /* \"#utility.yul\":5527:5559   */\n      slt\n        /* \"#utility.yul\":5524:5643   */\n      iszero\n      tag_106\n      jumpi\n        /* \"#utility.yul\":5562:5641   */\n      tag_107\n      tag_21\n      jump\t// in\n    tag_107:\n        /* \"#utility.yul\":5524:5643   */\n    tag_106:\n        /* \"#utility.yul\":5703:5704   */\n      0x00\n        /* \"#utility.yul\":5692:5701   */\n      dup3\n        /* \"#utility.yul\":5688:5705   */\n      add\n        /* \"#utility.yul\":5682:5706   */\n      mload\n        /* \"#utility.yul\":5733:5751   */\n      0xffffffffffffffff\n        /* \"#utility.yul\":5725:5731   */\n      dup2\n        /* \"#utility.yul\":5722:5752   */\n      gt\n        /* \"#utility.yul\":5719:5836   */\n      iszero\n      tag_108\n      jumpi\n        /* \"#utility.yul\":5755:5834   */\n      tag_109\n      tag_22\n      jump\t// in\n    tag_109:\n        /* \"#utility.yul\":5719:5836   */\n    tag_108:\n        /* \"#utility.yul\":5860:5934   */\n      tag_110\n        /* \"#utility.yul\":5926:5933   */\n      dup5\n        /* \"#utility.yul\":5917:5923   */\n      dup3\n        /* \"#utility.yul\":5906:5915   */\n      dup6\n        /* \"#utility.yul\":5902:5924   */\n      add\n        /* \"#utility.yul\":5860:5934   */\n      tag_42\n      jump\t// in\n    tag_110:\n        /* \"#utility.yul\":5850:5934   */\n      swap2\n      pop\n        /* \"#utility.yul\":5653:5944   */\n      pop\n        /* \"#utility.yul\":5427:5951   */\n      swap3\n      swap2\n      pop\n      pop\n      jump\t// out\n\n    auxdata: 0xa264697066735822122080a642a857cc4d2f622151beecbcdda0451c02b300ca7c88ee3255df3e26f2f064736f6c63430008120033\n}\n",
				"bytecode": {
					"linkReferences": {},
					"object": "608060405234801561001057600080fd5b50610510806100206000396000f3fe608060405234801561001057600080fd5b506004361061002b5760003560e01c8063286f478e14610030575b600080fd5b61004a6004803603810190610045919061022e565b610060565b60405161005791906102eb565b60405180910390f35b606060007f29f4acb0ed8a5b2201afd96e6e3bcbca8f3ea01c1a7ccdacf8c292a92d60067f90506000808473ffffffffffffffffffffffffffffffffffffffff1683604051602401604051602081830303815290604052907bffffffffffffffffffffffffffffffffffffffffffffffffffffffff19166020820180517bffffffffffffffffffffffffffffffffffffffffffffffffffffffff83818316178352505050506040516101129190610354565b600060405180830381855afa9150503d806000811461014d576040519150601f19603f3d011682016040523d82523d6000602084013e610152565b606091505b5091509150811561017b57808060200190518101906101719190610491565b93505050506101b7565b6040518060400160405280600581526020017f6572726f7200000000000000000000000000000000000000000000000000000081525093505050505b919050565b6000604051905090565b600080fd5b600080fd5b600073ffffffffffffffffffffffffffffffffffffffff82169050919050565b60006101fb826101d0565b9050919050565b61020b816101f0565b811461021657600080fd5b50565b60008135905061022881610202565b92915050565b600060208284031215610244576102436101c6565b5b600061025284828501610219565b91505092915050565b600081519050919050565b600082825260208201905092915050565b60005b8381101561029557808201518184015260208101905061027a565b60008484015250505050565b6000601f19601f8301169050919050565b60006102bd8261025b565b6102c78185610266565b93506102d7818560208601610277565b6102e0816102a1565b840191505092915050565b6000602082019050818103600083015261030581846102b2565b905092915050565b600081519050919050565b600081905092915050565b600061032e8261030d565b6103388185610318565b9350610348818560208601610277565b80840191505092915050565b60006103608284610323565b915081905092915050565b600080fd5b600080fd5b7f4e487b7100000000000000000000000000000000000000000000000000000000600052604160045260246000fd5b6103ad826102a1565b810181811067ffffffffffffffff821117156103cc576103cb610375565b5b80604052505050565b60006103df6101bc565b90506103eb82826103a4565b919050565b600067ffffffffffffffff82111561040b5761040a610375565b5b610414826102a1565b9050602081019050919050565b600061043461042f846103f0565b6103d5565b9050828152602081018484840111156104505761044f610370565b5b61045b848285610277565b509392505050565b600082601f8301126104785761047761036b565b5b8151610488848260208601610421565b91505092915050565b6000602082840312156104a7576104a66101c6565b5b600082015167ffffffffffffffff8111156104c5576104c46101cb565b5b6104d184828501610463565b9150509291505056fea264697066735822122080a642a857cc4d2f622151beecbcdda0451c02b300ca7c88ee3255df3e26f2f064736f6c63430008120033",
					"opcodes": "PUSH1 0x80 PUSH1 0x40 MSTORE CALLVALUE DUP1 ISZERO PUSH2 0x10 JUMPI PUSH1 0x0 DUP1 REVERT JUMPDEST POP PUSH2 0x510 DUP1 PUSH2 0x20 PUSH1 0x0 CODECOPY PUSH1 0x0 RETURN INVALID PUSH1 0x80 PUSH1 0x40 MSTORE CALLVALUE DUP1 ISZERO PUSH2 0x10 JUMPI PUSH1 0x0 DUP1 REVERT JUMPDEST POP PUSH1 0x4 CALLDATASIZE LT PUSH2 0x2B JUMPI PUSH1 0x0 CALLDATALOAD PUSH1 0xE0 SHR DUP1 PUSH4 0x286F478E EQ PUSH2 0x30 JUMPI JUMPDEST PUSH1 0x0 DUP1 REVERT JUMPDEST PUSH2 0x4A PUSH1 0x4 DUP1 CALLDATASIZE SUB DUP2 ADD SWAP1 PUSH2 0x45 SWAP2 SWAP1 PUSH2 0x22E JUMP JUMPDEST PUSH2 0x60 JUMP JUMPDEST PUSH1 0x40 MLOAD PUSH2 0x57 SWAP2 SWAP1 PUSH2 0x2EB JUMP JUMPDEST PUSH1 0x40 MLOAD DUP1 SWAP2 SUB SWAP1 RETURN JUMPDEST PUSH1 0x60 PUSH1 0x0 PUSH32 0x29F4ACB0ED8A5B2201AFD96E6E3BCBCA8F3EA01C1A7CCDACF8C292A92D60067F SWAP1 POP PUSH1 0x0 DUP1 DUP5 PUSH20 0xFFFFFFFFFFFFFFFFFFFFFFFFFFFFFFFFFFFFFFFF AND DUP4 PUSH1 0x40 MLOAD PUSH1 0x24 ADD PUSH1 0x40 MLOAD PUSH1 0x20 DUP2 DUP4 SUB SUB DUP2 MSTORE SWAP1 PUSH1 0x40 MSTORE SWAP1 PUSH28 0xFFFFFFFFFFFFFFFFFFFFFFFFFFFFFFFFFFFFFFFFFFFFFFFFFFFFFFFF NOT AND PUSH1 0x20 DUP3 ADD DUP1 MLOAD PUSH28 0xFFFFFFFFFFFFFFFFFFFFFFFFFFFFFFFFFFFFFFFFFFFFFFFFFFFFFFFF DUP4 DUP2 DUP4 AND OR DUP4 MSTORE POP POP POP POP PUSH1 0x40 MLOAD PUSH2 0x112 SWAP2 SWAP1 PUSH2 0x354 JUMP JUMPDEST PUSH1 0x0 PUSH1 0x40 MLOAD DUP1 DUP4 SUB DUP2 DUP6 GAS STATICCALL SWAP2 POP POP RETURNDATASIZE DUP1 PUSH1 0x0 DUP2 EQ PUSH2 0x14D JUMPI PUSH1 0x40 MLOAD SWAP2 POP PUSH1 0x1F NOT PUSH1 0x3F RETURNDATASIZE ADD AND DUP3 ADD PUSH1 0x40 MSTORE RETURNDATASIZE DUP3 MSTORE RETURNDATASIZE PUSH1 0x0 PUSH1 0x20 DUP5 ADD RETURNDATACOPY PUSH2 0x152 JUMP JUMPDEST PUSH1 0x60 SWAP2 POP JUMPDEST POP SWAP2 POP SWAP2 POP DUP2 ISZERO PUSH2 0x17B JUMPI DUP1 DUP1 PUSH1 0x20 ADD SWAP1 MLOAD DUP2 ADD SWAP1 PUSH2 0x171 SWAP2 SWAP1 PUSH2 0x491 JUMP JUMPDEST SWAP4 POP POP POP POP PUSH2 0x1B7 JUMP JUMPDEST PUSH1 0x40 MLOAD DUP1 PUSH1 0x40 ADD PUSH1 0x40 MSTORE DUP1 PUSH1 0x5 DUP2 MSTORE PUSH1 0x20 ADD PUSH32 0x6572726F72000000000000000000000000000000000000000000000000000000 DUP2 MSTORE POP SWAP4 POP POP POP POP JUMPDEST SWAP2 SWAP1 POP JUMP JUMPDEST PUSH1 0x0 PUSH1 0x40 MLOAD SWAP1 POP SWAP1 JUMP JUMPDEST PUSH1 0x0 DUP1 REVERT JUMPDEST PUSH1 0x0 DUP1 REVERT JUMPDEST PUSH1 0x0 PUSH20 0xFFFFFFFFFFFFFFFFFFFFFFFFFFFFFFFFFFFFFFFF DUP3 AND SWAP1 POP SWAP2 SWAP1 POP JUMP JUMPDEST PUSH1 0x0 PUSH2 0x1FB DUP3 PUSH2 0x1D0 JUMP JUMPDEST SWAP1 POP SWAP2 SWAP1 POP JUMP JUMPDEST PUSH2 0x20B DUP2 PUSH2 0x1F0 JUMP JUMPDEST DUP2 EQ PUSH2 0x216 JUMPI PUSH1 0x0 DUP1 REVERT JUMPDEST POP JUMP JUMPDEST PUSH1 0x0 DUP2 CALLDATALOAD SWAP1 POP PUSH2 0x228 DUP2 PUSH2 0x202 JUMP JUMPDEST SWAP3 SWAP2 POP POP JUMP JUMPDEST PUSH1 0x0 PUSH1 0x20 DUP3 DUP5 SUB SLT ISZERO PUSH2 0x244 JUMPI PUSH2 0x243 PUSH2 0x1C6 JUMP JUMPDEST JUMPDEST PUSH1 0x0 PUSH2 0x252 DUP5 DUP3 DUP6 ADD PUSH2 0x219 JUMP JUMPDEST SWAP2 POP POP SWAP3 SWAP2 POP POP JUMP JUMPDEST PUSH1 0x0 DUP2 MLOAD SWAP1 POP SWAP2 SWAP1 POP JUMP JUMPDEST PUSH1 0x0 DUP3 DUP3 MSTORE PUSH1 0x20 DUP3 ADD SWAP1 POP SWAP3 SWAP2 POP POP JUMP JUMPDEST PUSH1 0x0 JUMPDEST DUP4 DUP2 LT ISZERO PUSH2 0x295 JUMPI DUP1 DUP3 ADD MLOAD DUP2 DUP5 ADD MSTORE PUSH1 0x20 DUP2 ADD SWAP1 POP PUSH2 0x27A JUMP JUMPDEST PUSH1 0x0 DUP5 DUP5 ADD MSTORE POP POP POP POP JUMP JUMPDEST PUSH1 0x0 PUSH1 0x1F NOT PUSH1 0x1F DUP4 ADD AND SWAP1 POP SWAP2 SWAP1 POP JUMP JUMPDEST PUSH1 0x0 PUSH2 0x2BD DUP3 PUSH2 0x25B JUMP JUMPDEST PUSH2 0x2C7 DUP2 DUP6 PUSH2 0x266 JUMP JUMPDEST SWAP4 POP PUSH2 0x2D7 DUP2 DUP6 PUSH1 0x20 DUP7 ADD PUSH2 0x277 JUMP JUMPDEST PUSH2 0x2E0 DUP2 PUSH2 0x2A1 JUMP JUMPDEST DUP5 ADD SWAP2 POP POP SWAP3 SWAP2 POP POP JUMP JUMPDEST PUSH1 0x0 PUSH1 0x20 DUP3 ADD SWAP1 POP DUP2 DUP2 SUB PUSH1 0x0 DUP4 ADD MSTORE PUSH2 0x305 DUP2 DUP5 PUSH2 0x2B2 JUMP JUMPDEST SWAP1 POP SWAP3 SWAP2 POP POP JUMP JUMPDEST PUSH1 0x0 DUP2 MLOAD SWAP1 POP SWAP2 SWAP1 POP JUMP JUMPDEST PUSH1 0x0 DUP2 SWAP1 POP SWAP3 SWAP2 POP POP JUMP JUMPDEST PUSH1 0x0 PUSH2 0x32E DUP3 PUSH2 0x30D JUMP JUMPDEST PUSH2 0x338 DUP2 DUP6 PUSH2 0x318 JUMP JUMPDEST SWAP4 POP PUSH2 0x348 DUP2 DUP6 PUSH1 0x20 DUP7 ADD PUSH2 0x277 JUMP JUMPDEST DUP1 DUP5 ADD SWAP2 POP POP SWAP3 SWAP2 POP POP JUMP JUMPDEST PUSH1 0x0 PUSH2 0x360 DUP3 DUP5 PUSH2 0x323 JUMP JUMPDEST SWAP2 POP DUP2 SWAP1 POP SWAP3 SWAP2 POP POP JUMP JUMPDEST PUSH1 0x0 DUP1 REVERT JUMPDEST PUSH1 0x0 DUP1 REVERT JUMPDEST PUSH32 0x4E487B7100000000000000000000000000000000000000000000000000000000 PUSH1 0x0 MSTORE PUSH1 0x41 PUSH1 0x4 MSTORE PUSH1 0x24 PUSH1 0x0 REVERT JUMPDEST PUSH2 0x3AD DUP3 PUSH2 0x2A1 JUMP JUMPDEST DUP2 ADD DUP2 DUP2 LT PUSH8 0xFFFFFFFFFFFFFFFF DUP3 GT OR ISZERO PUSH2 0x3CC JUMPI PUSH2 0x3CB PUSH2 0x375 JUMP JUMPDEST JUMPDEST DUP1 PUSH1 0x40 MSTORE POP POP POP JUMP JUMPDEST PUSH1 0x0 PUSH2 0x3DF PUSH2 0x1BC JUMP JUMPDEST SWAP1 POP PUSH2 0x3EB DUP3 DUP3 PUSH2 0x3A4 JUMP JUMPDEST SWAP2 SWAP1 POP JUMP JUMPDEST PUSH1 0x0 PUSH8 0xFFFFFFFFFFFFFFFF DUP3 GT ISZERO PUSH2 0x40B JUMPI PUSH2 0x40A PUSH2 0x375 JUMP JUMPDEST JUMPDEST PUSH2 0x414 DUP3 PUSH2 0x2A1 JUMP JUMPDEST SWAP1 POP PUSH1 0x20 DUP2 ADD SWAP1 POP SWAP2 SWAP1 POP JUMP JUMPDEST PUSH1 0x0 PUSH2 0x434 PUSH2 0x42F DUP5 PUSH2 0x3F0 JUMP JUMPDEST PUSH2 0x3D5 JUMP JUMPDEST SWAP1 POP DUP3 DUP2 MSTORE PUSH1 0x20 DUP2 ADD DUP5 DUP5 DUP5 ADD GT ISZERO PUSH2 0x450 JUMPI PUSH2 0x44F PUSH2 0x370 JUMP JUMPDEST JUMPDEST PUSH2 0x45B DUP5 DUP3 DUP6 PUSH2 0x277 JUMP JUMPDEST POP SWAP4 SWAP3 POP POP POP JUMP JUMPDEST PUSH1 0x0 DUP3 PUSH1 0x1F DUP4 ADD SLT PUSH2 0x478 JUMPI PUSH2 0x477 PUSH2 0x36B JUMP JUMPDEST JUMPDEST DUP2 MLOAD PUSH2 0x488 DUP5 DUP3 PUSH1 0x20 DUP7 ADD PUSH2 0x421 JUMP JUMPDEST SWAP2 POP POP SWAP3 SWAP2 POP POP JUMP JUMPDEST PUSH1 0x0 PUSH1 0x20 DUP3 DUP5 SUB SLT ISZERO PUSH2 0x4A7 JUMPI PUSH2 0x4A6 PUSH2 0x1C6 JUMP JUMPDEST JUMPDEST PUSH1 0x0 DUP3 ADD MLOAD PUSH8 0xFFFFFFFFFFFFFFFF DUP2 GT ISZERO PUSH2 0x4C5 JUMPI PUSH2 0x4C4 PUSH2 0x1CB JUMP JUMPDEST JUMPDEST PUSH2 0x4D1 DUP5 DUP3 DUP6 ADD PUSH2 0x463 JUMP JUMPDEST SWAP2 POP POP SWAP3 SWAP2 POP POP JUMP INVALID LOG2 PUSH5 0x6970667358 0x22 SLT KECCAK256 DUP1 0xA6 TIMESTAMP 0xA8 JUMPI 0xCC 0x4D 0x2F PUSH3 0x2151BE 0xEC 0xBC 0xDD LOG0 GASLIMIT SHR MUL 0xB3 STOP 0xCA PUSH29 0x88EE3255DF3E26F2F064736F6C63430008120033000000000000000000 "
				},
				"gasEstimates": {
					"creation": {
						"codeDepositCost": "259200",
						"executionCost": "300",
						"totalCost": "259500"
					},
					"external": {
						"callHello(address)": "infinite"
					}
				},
				"methodIdentifiers": {
					"callHello(address)": "286f478e"
				}
			},
			"storageLayout": {
				"storage": [],
				"types": null
			},
			"userdoc": {
				"kind": "user",
				"methods": {},
				"version": 1
			}
		}
	}
}