{
	"调用合约/HelloAndSolidityTest.sol": {
		"SolidityTest": {
			"abi": [
				{
					"inputs": [
						{
							"internalType": "address",
							"name": "addr",
							"type": "address"
						}
					],
					"name": "callHello",
					"outputs": [
						{
							"internalType": "string",
							"name": "",
							"type": "string"
						}
					],
					"stateMutability": "pure",
					"type": "function"
				},
				{
					"inputs": [
						{
							"internalType": "contract Hello",
							"name": "hello",
							"type": "address"
						}
					],
					"name": "callHelloOr",
					"outputs": [
						{
							"internalType": "string",
							"name": "",
							"type": "string"
						}
					],
					"stateMutability": "pure",
					"type": "function"
				}
			],
			"devdoc": {
				"kind": "dev",
				"methods": {},
				"version": 1
			},
			"evm": {
				"assembly": "    /* \"\\xe8\\xb0\\x83\\xe7\\x94\\xa8\\xe5\\x90\\x88\\xe7\\xba\\xa6/HelloAndSolidityTest.sol\":185:572  contract SolidityTest {... */\n  mstore(0x40, 0x80)\n  callvalue\n  dup1\n  iszero\n  tag_1\n  jumpi\n  0x00\n  dup1\n  revert\ntag_1:\n  pop\n  dataSize(sub_0)\n  dup1\n  dataOffset(sub_0)\n  0x00\n  codecopy\n  0x00\n  return\nstop\n\nsub_0: assembly {\n        /* \"\\xe8\\xb0\\x83\\xe7\\x94\\xa8\\xe5\\x90\\x88\\xe7\\xba\\xa6/HelloAndSolidityTest.sol\":185:572  contract SolidityTest {... */\n      mstore(0x40, 0x80)\n      callvalue\n      dup1\n      iszero\n      tag_1\n      jumpi\n      0x00\n      dup1\n      revert\n    tag_1:\n      pop\n      jumpi(tag_2, lt(calldatasize, 0x04))\n      shr(0xe0, calldataload(0x00))\n      dup1\n      0x286f478e\n      eq\n      tag_3\n      jumpi\n      dup1\n      0xa32b9544\n      eq\n      tag_4\n      jumpi\n    tag_2:\n      0x00\n      dup1\n      revert\n        /* \"\\xe8\\xb0\\x83\\xe7\\x94\\xa8\\xe5\\x90\\x88\\xe7\\xba\\xa6/HelloAndSolidityTest.sol\":214:376  function callHello(address addr) external pure returns(string memory) {... */\n    tag_3:\n      tag_5\n      0x04\n      dup1\n      calldatasize\n      sub\n      dup2\n      add\n      swap1\n      tag_6\n      swap2\n      swap1\n      tag_7\n      jump\t// in\n    tag_6:\n      tag_8\n      jump\t// in\n    tag_5:\n      mload(0x40)\n      tag_9\n      swap2\n      swap1\n      tag_10\n      jump\t// in\n    tag_9:\n      mload(0x40)\n      dup1\n      swap2\n      sub\n      swap1\n      return\n        /* \"\\xe8\\xb0\\x83\\xe7\\x94\\xa8\\xe5\\x90\\x88\\xe7\\xba\\xa6/HelloAndSolidityTest.sol\":409:569  function callHelloOr(Hello hello) external pure returns(string memory) {... */\n    tag_4:\n      tag_11\n      0x04\n      dup1\n      calldatasize\n      sub\n      dup2\n      add\n      swap1\n      tag_12\n      swap2\n      swap1\n      tag_13\n      jump\t// in\n    tag_12:\n      tag_14\n      jump\t// in\n    tag_11:\n      mload(0x40)\n      tag_15\n      swap2\n      swap1\n      tag_10\n      jump\t// in\n    tag_15:\n      mload(0x40)\n      dup1\n      swap2\n      sub\n      swap1\n      return\n        /* \"\\xe8\\xb0\\x83\\xe7\\x94\\xa8\\xe5\\x90\\x88\\xe7\\xba\\xa6/HelloAndSolidityTest.sol\":214:376  function callHello(address addr) external pure returns(string memory) {... */\n    tag_8:\n        /* \"\\xe8\\xb0\\x83\\xe7\\x94\\xa8\\xe5\\x90\\x88\\xe7\\xba\\xa6/HelloAndSolidityTest.sol\":269:282  string memory */\n      0x60\n        /* \"\\xe8\\xb0\\x83\\xe7\\x94\\xa8\\xe5\\x90\\x88\\xe7\\xba\\xa6/HelloAndSolidityTest.sol\":308:312  addr */\n      dup2\n        /* \"\\xe8\\xb0\\x83\\xe7\\x94\\xa8\\xe5\\x90\\x88\\xe7\\xba\\xa6/HelloAndSolidityTest.sol\":302:318  Hello(addr).echo */\n      0xffffffffffffffffffffffffffffffffffffffff\n      and\n      0x29f4acb0\n        /* \"\\xe8\\xb0\\x83\\xe7\\x94\\xa8\\xe5\\x90\\x88\\xe7\\xba\\xa6/HelloAndSolidityTest.sol\":302:320  Hello(addr).echo() */\n      mload(0x40)\n      dup2\n      0xffffffff\n      and\n      0xe0\n      shl\n      dup2\n      mstore\n      0x04\n      add\n      0x00\n      mload(0x40)\n      dup1\n      dup4\n      sub\n      dup2\n      dup7\n      gas\n      staticcall\n      iszero\n      dup1\n      iszero\n      tag_18\n      jumpi\n      returndatasize\n      0x00\n      dup1\n      returndatacopy\n      revert(0x00, returndatasize)\n    tag_18:\n      pop\n      pop\n      pop\n      pop\n      mload(0x40)\n      returndatasize\n      0x00\n      dup3\n      returndatacopy\n      returndatasize\n      not(0x1f)\n      0x1f\n      dup3\n      add\n      and\n      dup3\n      add\n      dup1\n      0x40\n      mstore\n      pop\n      dup2\n      add\n      swap1\n      tag_19\n      swap2\n      swap1\n      tag_20\n      jump\t// in\n    tag_19:\n        /* \"\\xe8\\xb0\\x83\\xe7\\x94\\xa8\\xe5\\x90\\x88\\xe7\\xba\\xa6/HelloAndSolidityTest.sol\":295:320  return Hello(addr).echo() */\n      swap1\n      pop\n        /* \"\\xe8\\xb0\\x83\\xe7\\x94\\xa8\\xe5\\x90\\x88\\xe7\\xba\\xa6/HelloAndSolidityTest.sol\":214:376  function callHello(address addr) external pure returns(string memory) {... */\n      swap2\n      swap1\n      pop\n      jump\t// out\n        /* \"\\xe8\\xb0\\x83\\xe7\\x94\\xa8\\xe5\\x90\\x88\\xe7\\xba\\xa6/HelloAndSolidityTest.sol\":409:569  function callHelloOr(Hello hello) external pure returns(string memory) {... */\n    tag_14:\n        /* \"\\xe8\\xb0\\x83\\xe7\\x94\\xa8\\xe5\\x90\\x88\\xe7\\xba\\xa6/HelloAndSolidityTest.sol\":465:478  string memory */\n      0x60\n        /* \"\\xe8\\xb0\\x83\\xe7\\x94\\xa8\\xe5\\x90\\x88\\xe7\\xba\\xa6/HelloAndSolidityTest.sol\":498:503  hello */\n      dup2\n        /* \"\\xe8\\xb0\\x83\\xe7\\x94\\xa8\\xe5\\x90\\x88\\xe7\\xba\\xa6/HelloAndSolidityTest.sol\":498:508  hello.echo */\n      0xffffffffffffffffffffffffffffffffffffffff\n      and\n      0x29f4acb0\n        /* \"\\xe8\\xb0\\x83\\xe7\\x94\\xa8\\xe5\\x90\\x88\\xe7\\xba\\xa6/HelloAndSolidityTest.sol\":498:510  hello.echo() */\n      mload(0x40)\n      dup2\n      0xffffffff\n      and\n      0xe0\n      shl\n      dup2\n      mstore\n      0x04\n      add\n      0x00\n      mload(0x40)\n      dup1\n      dup4\n      sub\n      dup2\n      dup7\n      gas\n      staticcall\n      iszero\n      dup1\n      iszero\n      tag_23\n      jumpi\n      returndatasize\n      0x00\n      dup1\n      returndatacopy\n      revert(0x00, returndatasize)\n    tag_23:\n      pop\n      pop\n      pop\n      pop\n      mload(0x40)\n      returndatasize\n      0x00\n      dup3\n      returndatacopy\n      returndatasize\n      not(0x1f)\n      0x1f\n      dup3\n      add\n      and\n      dup3\n      add\n      dup1\n      0x40\n      mstore\n      pop\n      dup2\n      add\n      swap1\n      tag_24\n      swap2\n      swap1\n      tag_20\n      jump\t// in\n    tag_24:\n        /* \"\\xe8\\xb0\\x83\\xe7\\x94\\xa8\\xe5\\x90\\x88\\xe7\\xba\\xa6/HelloAndSolidityTest.sol\":491:510  return hello.echo() */\n      swap1\n      pop\n        /* \"\\xe8\\xb0\\x83\\xe7\\x94\\xa8\\xe5\\x90\\x88\\xe7\\xba\\xa6/HelloAndSolidityTest.sol\":409:569  function callHelloOr(Hello hello) external pure returns(string memory) {... */\n      swap2\n      swap1\n      pop\n      jump\t// out\n        /* \"#utility.yul\":7:82   */\n    tag_25:\n        /* \"#utility.yul\":40:46   */\n      0x00\n        /* \"#utility.yul\":73:75   */\n      0x40\n        /* \"#utility.yul\":67:76   */\n      mload\n        /* \"#utility.yul\":57:76   */\n      swap1\n      pop\n        /* \"#utility.yul\":7:82   */\n      swap1\n      jump\t// out\n        /* \"#utility.yul\":88:205   */\n    tag_26:\n        /* \"#utility.yul\":197:198   */\n      0x00\n        /* \"#utility.yul\":194:195   */\n      dup1\n        /* \"#utility.yul\":187:199   */\n      revert\n        /* \"#utility.yul\":211:328   */\n    tag_27:\n        /* \"#utility.yul\":320:321   */\n      0x00\n        /* \"#utility.yul\":317:318   */\n      dup1\n        /* \"#utility.yul\":310:322   */\n      revert\n        /* \"#utility.yul\":334:460   */\n    tag_28:\n        /* \"#utility.yul\":371:378   */\n      0x00\n        /* \"#utility.yul\":411:453   */\n      0xffffffffffffffffffffffffffffffffffffffff\n        /* \"#utility.yul\":404:409   */\n      dup3\n        /* \"#utility.yul\":400:454   */\n      and\n        /* \"#utility.yul\":389:454   */\n      swap1\n      pop\n        /* \"#utility.yul\":334:460   */\n      swap2\n      swap1\n      pop\n      jump\t// out\n        /* \"#utility.yul\":466:562   */\n    tag_29:\n        /* \"#utility.yul\":503:510   */\n      0x00\n        /* \"#utility.yul\":532:556   */\n      tag_54\n        /* \"#utility.yul\":550:555   */\n      dup3\n        /* \"#utility.yul\":532:556   */\n      tag_28\n      jump\t// in\n    tag_54:\n        /* \"#utility.yul\":521:556   */\n      swap1\n      pop\n        /* \"#utility.yul\":466:562   */\n      swap2\n      swap1\n      pop\n      jump\t// out\n        /* \"#utility.yul\":568:690   */\n    tag_30:\n        /* \"#utility.yul\":641:665   */\n      tag_56\n        /* \"#utility.yul\":659:664   */\n      dup2\n        /* \"#utility.yul\":641:665   */\n      tag_29\n      jump\t// in\n    tag_56:\n        /* \"#utility.yul\":634:639   */\n      dup2\n        /* \"#utility.yul\":631:666   */\n      eq\n        /* \"#utility.yul\":621:684   */\n      tag_57\n      jumpi\n        /* \"#utility.yul\":680:681   */\n      0x00\n        /* \"#utility.yul\":677:678   */\n      dup1\n        /* \"#utility.yul\":670:682   */\n      revert\n        /* \"#utility.yul\":621:684   */\n    tag_57:\n        /* \"#utility.yul\":568:690   */\n      pop\n      jump\t// out\n        /* \"#utility.yul\":696:835   */\n    tag_31:\n        /* \"#utility.yul\":742:747   */\n      0x00\n        /* \"#utility.yul\":780:786   */\n      dup2\n        /* \"#utility.yul\":767:787   */\n      calldataload\n        /* \"#utility.yul\":758:787   */\n      swap1\n      pop\n        /* \"#utility.yul\":796:829   */\n      tag_59\n        /* \"#utility.yul\":823:828   */\n      dup2\n        /* \"#utility.yul\":796:829   */\n      tag_30\n      jump\t// in\n    tag_59:\n        /* \"#utility.yul\":696:835   */\n      swap3\n      swap2\n      pop\n      pop\n      jump\t// out\n        /* \"#utility.yul\":841:1170   */\n    tag_7:\n        /* \"#utility.yul\":900:906   */\n      0x00\n        /* \"#utility.yul\":949:951   */\n      0x20\n        /* \"#utility.yul\":937:946   */\n      dup3\n        /* \"#utility.yul\":928:935   */\n      dup5\n        /* \"#utility.yul\":924:947   */\n      sub\n        /* \"#utility.yul\":920:952   */\n      slt\n        /* \"#utility.yul\":917:1036   */\n      iszero\n      tag_61\n      jumpi\n        /* \"#utility.yul\":955:1034   */\n      tag_62\n      tag_26\n      jump\t// in\n    tag_62:\n        /* \"#utility.yul\":917:1036   */\n    tag_61:\n        /* \"#utility.yul\":1075:1076   */\n      0x00\n        /* \"#utility.yul\":1100:1153   */\n      tag_63\n        /* \"#utility.yul\":1145:1152   */\n      dup5\n        /* \"#utility.yul\":1136:1142   */\n      dup3\n        /* \"#utility.yul\":1125:1134   */\n      dup6\n        /* \"#utility.yul\":1121:1143   */\n      add\n        /* \"#utility.yul\":1100:1153   */\n      tag_31\n      jump\t// in\n    tag_63:\n        /* \"#utility.yul\":1090:1153   */\n      swap2\n      pop\n        /* \"#utility.yul\":1046:1163   */\n      pop\n        /* \"#utility.yul\":841:1170   */\n      swap3\n      swap2\n      pop\n      pop\n      jump\t// out\n        /* \"#utility.yul\":1176:1275   */\n    tag_32:\n        /* \"#utility.yul\":1228:1234   */\n      0x00\n        /* \"#utility.yul\":1262:1267   */\n      dup2\n        /* \"#utility.yul\":1256:1268   */\n      mload\n        /* \"#utility.yul\":1246:1268   */\n      swap1\n      pop\n        /* \"#utility.yul\":1176:1275   */\n      swap2\n      swap1\n      pop\n      jump\t// out\n        /* \"#utility.yul\":1281:1450   */\n    tag_33:\n        /* \"#utility.yul\":1365:1376   */\n      0x00\n        /* \"#utility.yul\":1399:1405   */\n      dup3\n        /* \"#utility.yul\":1394:1397   */\n      dup3\n        /* \"#utility.yul\":1387:1406   */\n      mstore\n        /* \"#utility.yul\":1439:1443   */\n      0x20\n        /* \"#utility.yul\":1434:1437   */\n      dup3\n        /* \"#utility.yul\":1430:1444   */\n      add\n        /* \"#utility.yul\":1415:1444   */\n      swap1\n      pop\n        /* \"#utility.yul\":1281:1450   */\n      swap3\n      swap2\n      pop\n      pop\n      jump\t// out\n        /* \"#utility.yul\":1456:1702   */\n    tag_34:\n        /* \"#utility.yul\":1537:1538   */\n      0x00\n        /* \"#utility.yul\":1547:1660   */\n    tag_67:\n        /* \"#utility.yul\":1561:1567   */\n      dup4\n        /* \"#utility.yul\":1558:1559   */\n      dup2\n        /* \"#utility.yul\":1555:1568   */\n      lt\n        /* \"#utility.yul\":1547:1660   */\n      iszero\n      tag_69\n      jumpi\n        /* \"#utility.yul\":1646:1647   */\n      dup1\n        /* \"#utility.yul\":1641:1644   */\n      dup3\n        /* \"#utility.yul\":1637:1648   */\n      add\n        /* \"#utility.yul\":1631:1649   */\n      mload\n        /* \"#utility.yul\":1627:1628   */\n      dup2\n        /* \"#utility.yul\":1622:1625   */\n      dup5\n        /* \"#utility.yul\":1618:1629   */\n      add\n        /* \"#utility.yul\":1611:1650   */\n      mstore\n        /* \"#utility.yul\":1583:1585   */\n      0x20\n        /* \"#utility.yul\":1580:1581   */\n      dup2\n        /* \"#utility.yul\":1576:1586   */\n      add\n        /* \"#utility.yul\":1571:1586   */\n      swap1\n      pop\n        /* \"#utility.yul\":1547:1660   */\n      jump(tag_67)\n    tag_69:\n        /* \"#utility.yul\":1694:1695   */\n      0x00\n        /* \"#utility.yul\":1685:1691   */\n      dup5\n        /* \"#utility.yul\":1680:1683   */\n      dup5\n        /* \"#utility.yul\":1676:1692   */\n      add\n        /* \"#utility.yul\":1669:1696   */\n      mstore\n        /* \"#utility.yul\":1518:1702   */\n      pop\n        /* \"#utility.yul\":1456:1702   */\n      pop\n      pop\n      pop\n      jump\t// out\n        /* \"#utility.yul\":1708:1810   */\n    tag_35:\n        /* \"#utility.yul\":1749:1755   */\n      0x00\n        /* \"#utility.yul\":1800:1802   */\n      0x1f\n        /* \"#utility.yul\":1796:1803   */\n      not\n        /* \"#utility.yul\":1791:1793   */\n      0x1f\n        /* \"#utility.yul\":1784:1789   */\n      dup4\n        /* \"#utility.yul\":1780:1794   */\n      add\n        /* \"#utility.yul\":1776:1804   */\n      and\n        /* \"#utility.yul\":1766:1804   */\n      swap1\n      pop\n        /* \"#utility.yul\":1708:1810   */\n      swap2\n      swap1\n      pop\n      jump\t// out\n        /* \"#utility.yul\":1816:2193   */\n    tag_36:\n        /* \"#utility.yul\":1904:1907   */\n      0x00\n        /* \"#utility.yul\":1932:1971   */\n      tag_72\n        /* \"#utility.yul\":1965:1970   */\n      dup3\n        /* \"#utility.yul\":1932:1971   */\n      tag_32\n      jump\t// in\n    tag_72:\n        /* \"#utility.yul\":1987:2058   */\n      tag_73\n        /* \"#utility.yul\":2051:2057   */\n      dup2\n        /* \"#utility.yul\":2046:2049   */\n      dup6\n        /* \"#utility.yul\":1987:2058   */\n      tag_33\n      jump\t// in\n    tag_73:\n        /* \"#utility.yul\":1980:2058   */\n      swap4\n      pop\n        /* \"#utility.yul\":2067:2132   */\n      tag_74\n        /* \"#utility.yul\":2125:2131   */\n      dup2\n        /* \"#utility.yul\":2120:2123   */\n      dup6\n        /* \"#utility.yul\":2113:2117   */\n      0x20\n        /* \"#utility.yul\":2106:2111   */\n      dup7\n        /* \"#utility.yul\":2102:2118   */\n      add\n        /* \"#utility.yul\":2067:2132   */\n      tag_34\n      jump\t// in\n    tag_74:\n        /* \"#utility.yul\":2157:2186   */\n      tag_75\n        /* \"#utility.yul\":2179:2185   */\n      dup2\n        /* \"#utility.yul\":2157:2186   */\n      tag_35\n      jump\t// in\n    tag_75:\n        /* \"#utility.yul\":2152:2155   */\n      dup5\n        /* \"#utility.yul\":2148:2187   */\n      add\n        /* \"#utility.yul\":2141:2187   */\n      swap2\n      pop\n        /* \"#utility.yul\":1908:2193   */\n      pop\n        /* \"#utility.yul\":1816:2193   */\n      swap3\n      swap2\n      pop\n      pop\n      jump\t// out\n        /* \"#utility.yul\":2199:2512   */\n    tag_10:\n        /* \"#utility.yul\":2312:2316   */\n      0x00\n        /* \"#utility.yul\":2350:2352   */\n      0x20\n        /* \"#utility.yul\":2339:2348   */\n      dup3\n        /* \"#utility.yul\":2335:2353   */\n      add\n        /* \"#utility.yul\":2327:2353   */\n      swap1\n      pop\n        /* \"#utility.yul\":2399:2408   */\n      dup2\n        /* \"#utility.yul\":2393:2397   */\n      dup2\n        /* \"#utility.yul\":2389:2409   */\n      sub\n        /* \"#utility.yul\":2385:2386   */\n      0x00\n        /* \"#utility.yul\":2374:2383   */\n      dup4\n        /* \"#utility.yul\":2370:2387   */\n      add\n        /* \"#utility.yul\":2363:2410   */\n      mstore\n        /* \"#utility.yul\":2427:2505   */\n      tag_77\n        /* \"#utility.yul\":2500:2504   */\n      dup2\n        /* \"#utility.yul\":2491:2497   */\n      dup5\n        /* \"#utility.yul\":2427:2505   */\n      tag_36\n      jump\t// in\n    tag_77:\n        /* \"#utility.yul\":2419:2505   */\n      swap1\n      pop\n        /* \"#utility.yul\":2199:2512   */\n      swap3\n      swap2\n      pop\n      pop\n      jump\t// out\n        /* \"#utility.yul\":2518:2626   */\n    tag_37:\n        /* \"#utility.yul\":2567:2574   */\n      0x00\n        /* \"#utility.yul\":2596:2620   */\n      tag_79\n        /* \"#utility.yul\":2614:2619   */\n      dup3\n        /* \"#utility.yul\":2596:2620   */\n      tag_29\n      jump\t// in\n    tag_79:\n        /* \"#utility.yul\":2585:2620   */\n      swap1\n      pop\n        /* \"#utility.yul\":2518:2626   */\n      swap2\n      swap1\n      pop\n      jump\t// out\n        /* \"#utility.yul\":2632:2778   */\n    tag_38:\n        /* \"#utility.yul\":2717:2753   */\n      tag_81\n        /* \"#utility.yul\":2747:2752   */\n      dup2\n        /* \"#utility.yul\":2717:2753   */\n      tag_37\n      jump\t// in\n    tag_81:\n        /* \"#utility.yul\":2710:2715   */\n      dup2\n        /* \"#utility.yul\":2707:2754   */\n      eq\n        /* \"#utility.yul\":2697:2772   */\n      tag_82\n      jumpi\n        /* \"#utility.yul\":2768:2769   */\n      0x00\n        /* \"#utility.yul\":2765:2766   */\n      dup1\n        /* \"#utility.yul\":2758:2770   */\n      revert\n        /* \"#utility.yul\":2697:2772   */\n    tag_82:\n        /* \"#utility.yul\":2632:2778   */\n      pop\n      jump\t// out\n        /* \"#utility.yul\":2784:2947   */\n    tag_39:\n        /* \"#utility.yul\":2842:2847   */\n      0x00\n        /* \"#utility.yul\":2880:2886   */\n      dup2\n        /* \"#utility.yul\":2867:2887   */\n      calldataload\n        /* \"#utility.yul\":2858:2887   */\n      swap1\n      pop\n        /* \"#utility.yul\":2896:2941   */\n      tag_84\n        /* \"#utility.yul\":2935:2940   */\n      dup2\n        /* \"#utility.yul\":2896:2941   */\n      tag_38\n      jump\t// in\n    tag_84:\n        /* \"#utility.yul\":2784:2947   */\n      swap3\n      swap2\n      pop\n      pop\n      jump\t// out\n        /* \"#utility.yul\":2953:3306   */\n    tag_13:\n        /* \"#utility.yul\":3024:3030   */\n      0x00\n        /* \"#utility.yul\":3073:3075   */\n      0x20\n        /* \"#utility.yul\":3061:3070   */\n      dup3\n        /* \"#utility.yul\":3052:3059   */\n      dup5\n        /* \"#utility.yul\":3048:3071   */\n      sub\n        /* \"#utility.yul\":3044:3076   */\n      slt\n        /* \"#utility.yul\":3041:3160   */\n      iszero\n      tag_86\n      jumpi\n        /* \"#utility.yul\":3079:3158   */\n      tag_87\n      tag_26\n      jump\t// in\n    tag_87:\n        /* \"#utility.yul\":3041:3160   */\n    tag_86:\n        /* \"#utility.yul\":3199:3200   */\n      0x00\n        /* \"#utility.yul\":3224:3289   */\n      tag_88\n        /* \"#utility.yul\":3281:3288   */\n      dup5\n        /* \"#utility.yul\":3272:3278   */\n      dup3\n        /* \"#utility.yul\":3261:3270   */\n      dup6\n        /* \"#utility.yul\":3257:3279   */\n      add\n        /* \"#utility.yul\":3224:3289   */\n      tag_39\n      jump\t// in\n    tag_88:\n        /* \"#utility.yul\":3214:3289   */\n      swap2\n      pop\n        /* \"#utility.yul\":3170:3299   */\n      pop\n        /* \"#utility.yul\":2953:3306   */\n      swap3\n      swap2\n      pop\n      pop\n      jump\t// out\n        /* \"#utility.yul\":3312:3429   */\n    tag_40:\n        /* \"#utility.yul\":3421:3422   */\n      0x00\n        /* \"#utility.yul\":3418:3419   */\n      dup1\n        /* \"#utility.yul\":3411:3423   */\n      revert\n        /* \"#utility.yul\":3435:3552   */\n    tag_41:\n        /* \"#utility.yul\":3544:3545   */\n      0x00\n        /* \"#utility.yul\":3541:3542   */\n      dup1\n        /* \"#utility.yul\":3534:3546   */\n      revert\n        /* \"#utility.yul\":3558:3738   */\n    tag_42:\n        /* \"#utility.yul\":3606:3683   */\n      0x4e487b7100000000000000000000000000000000000000000000000000000000\n        /* \"#utility.yul\":3603:3604   */\n      0x00\n        /* \"#utility.yul\":3596:3684   */\n      mstore\n        /* \"#utility.yul\":3703:3707   */\n      0x41\n        /* \"#utility.yul\":3700:3701   */\n      0x04\n        /* \"#utility.yul\":3693:3708   */\n      mstore\n        /* \"#utility.yul\":3727:3731   */\n      0x24\n        /* \"#utility.yul\":3724:3725   */\n      0x00\n        /* \"#utility.yul\":3717:3732   */\n      revert\n        /* \"#utility.yul\":3744:4025   */\n    tag_43:\n        /* \"#utility.yul\":3827:3854   */\n      tag_93\n        /* \"#utility.yul\":3849:3853   */\n      dup3\n        /* \"#utility.yul\":3827:3854   */\n      tag_35\n      jump\t// in\n    tag_93:\n        /* \"#utility.yul\":3819:3825   */\n      dup2\n        /* \"#utility.yul\":3815:3855   */\n      add\n        /* \"#utility.yul\":3957:3963   */\n      dup2\n        /* \"#utility.yul\":3945:3955   */\n      dup2\n        /* \"#utility.yul\":3942:3964   */\n      lt\n        /* \"#utility.yul\":3921:3939   */\n      0xffffffffffffffff\n        /* \"#utility.yul\":3909:3919   */\n      dup3\n        /* \"#utility.yul\":3906:3940   */\n      gt\n        /* \"#utility.yul\":3903:3965   */\n      or\n        /* \"#utility.yul\":3900:3988   */\n      iszero\n      tag_94\n      jumpi\n        /* \"#utility.yul\":3968:3986   */\n      tag_95\n      tag_42\n      jump\t// in\n    tag_95:\n        /* \"#utility.yul\":3900:3988   */\n    tag_94:\n        /* \"#utility.yul\":4008:4018   */\n      dup1\n        /* \"#utility.yul\":4004:4006   */\n      0x40\n        /* \"#utility.yul\":3997:4019   */\n      mstore\n        /* \"#utility.yul\":3787:4025   */\n      pop\n        /* \"#utility.yul\":3744:4025   */\n      pop\n      pop\n      jump\t// out\n        /* \"#utility.yul\":4031:4160   */\n    tag_44:\n        /* \"#utility.yul\":4065:4071   */\n      0x00\n        /* \"#utility.yul\":4092:4112   */\n      tag_97\n      tag_25\n      jump\t// in\n    tag_97:\n        /* \"#utility.yul\":4082:4112   */\n      swap1\n      pop\n        /* \"#utility.yul\":4121:4154   */\n      tag_98\n        /* \"#utility.yul\":4149:4153   */\n      dup3\n        /* \"#utility.yul\":4141:4147   */\n      dup3\n        /* \"#utility.yul\":4121:4154   */\n      tag_43\n      jump\t// in\n    tag_98:\n        /* \"#utility.yul\":4031:4160   */\n      swap2\n      swap1\n      pop\n      jump\t// out\n        /* \"#utility.yul\":4166:4474   */\n    tag_45:\n        /* \"#utility.yul\":4228:4232   */\n      0x00\n        /* \"#utility.yul\":4318:4336   */\n      0xffffffffffffffff\n        /* \"#utility.yul\":4310:4316   */\n      dup3\n        /* \"#utility.yul\":4307:4337   */\n      gt\n        /* \"#utility.yul\":4304:4360   */\n      iszero\n      tag_100\n      jumpi\n        /* \"#utility.yul\":4340:4358   */\n      tag_101\n      tag_42\n      jump\t// in\n    tag_101:\n        /* \"#utility.yul\":4304:4360   */\n    tag_100:\n        /* \"#utility.yul\":4378:4407   */\n      tag_102\n        /* \"#utility.yul\":4400:4406   */\n      dup3\n        /* \"#utility.yul\":4378:4407   */\n      tag_35\n      jump\t// in\n    tag_102:\n        /* \"#utility.yul\":4370:4407   */\n      swap1\n      pop\n        /* \"#utility.yul\":4462:4466   */\n      0x20\n        /* \"#utility.yul\":4456:4460   */\n      dup2\n        /* \"#utility.yul\":4452:4467   */\n      add\n        /* \"#utility.yul\":4444:4467   */\n      swap1\n      pop\n        /* \"#utility.yul\":4166:4474   */\n      swap2\n      swap1\n      pop\n      jump\t// out\n        /* \"#utility.yul\":4480:4914   */\n    tag_46:\n        /* \"#utility.yul\":4569:4574   */\n      0x00\n        /* \"#utility.yul\":4594:4660   */\n      tag_104\n        /* \"#utility.yul\":4610:4659   */\n      tag_105\n        /* \"#utility.yul\":4652:4658   */\n      dup5\n        /* \"#utility.yul\":4610:4659   */\n      tag_45\n      jump\t// in\n    tag_105:\n        /* \"#utility.yul\":4594:4660   */\n      tag_44\n      jump\t// in\n    tag_104:\n        /* \"#utility.yul\":4585:4660   */\n      swap1\n      pop\n        /* \"#utility.yul\":4683:4689   */\n      dup3\n        /* \"#utility.yul\":4676:4681   */\n      dup2\n        /* \"#utility.yul\":4669:4690   */\n      mstore\n        /* \"#utility.yul\":4721:4725   */\n      0x20\n        /* \"#utility.yul\":4714:4719   */\n      dup2\n        /* \"#utility.yul\":4710:4726   */\n      add\n        /* \"#utility.yul\":4759:4762   */\n      dup5\n        /* \"#utility.yul\":4750:4756   */\n      dup5\n        /* \"#utility.yul\":4745:4748   */\n      dup5\n        /* \"#utility.yul\":4741:4757   */\n      add\n        /* \"#utility.yul\":4738:4763   */\n      gt\n        /* \"#utility.yul\":4735:4847   */\n      iszero\n      tag_106\n      jumpi\n        /* \"#utility.yul\":4766:4845   */\n      tag_107\n      tag_41\n      jump\t// in\n    tag_107:\n        /* \"#utility.yul\":4735:4847   */\n    tag_106:\n        /* \"#utility.yul\":4856:4908   */\n      tag_108\n        /* \"#utility.yul\":4901:4907   */\n      dup5\n        /* \"#utility.yul\":4896:4899   */\n      dup3\n        /* \"#utility.yul\":4891:4894   */\n      dup6\n        /* \"#utility.yul\":4856:4908   */\n      tag_34\n      jump\t// in\n    tag_108:\n        /* \"#utility.yul\":4575:4914   */\n      pop\n        /* \"#utility.yul\":4480:4914   */\n      swap4\n      swap3\n      pop\n      pop\n      pop\n      jump\t// out\n        /* \"#utility.yul\":4934:5289   */\n    tag_47:\n        /* \"#utility.yul\":5001:5006   */\n      0x00\n        /* \"#utility.yul\":5050:5053   */\n      dup3\n        /* \"#utility.yul\":5043:5047   */\n      0x1f\n        /* \"#utility.yul\":5035:5041   */\n      dup4\n        /* \"#utility.yul\":5031:5048   */\n      add\n        /* \"#utility.yul\":5027:5054   */\n      slt\n        /* \"#utility.yul\":5017:5139   */\n      tag_110\n      jumpi\n        /* \"#utility.yul\":5058:5137   */\n      tag_111\n      tag_40\n      jump\t// in\n    tag_111:\n        /* \"#utility.yul\":5017:5139   */\n    tag_110:\n        /* \"#utility.yul\":5168:5174   */\n      dup2\n        /* \"#utility.yul\":5162:5175   */\n      mload\n        /* \"#utility.yul\":5193:5283   */\n      tag_112\n        /* \"#utility.yul\":5279:5282   */\n      dup5\n        /* \"#utility.yul\":5271:5277   */\n      dup3\n        /* \"#utility.yul\":5264:5268   */\n      0x20\n        /* \"#utility.yul\":5256:5262   */\n      dup7\n        /* \"#utility.yul\":5252:5269   */\n      add\n        /* \"#utility.yul\":5193:5283   */\n      tag_46\n      jump\t// in\n    tag_112:\n        /* \"#utility.yul\":5184:5283   */\n      swap2\n      pop\n        /* \"#utility.yul\":5007:5289   */\n      pop\n        /* \"#utility.yul\":4934:5289   */\n      swap3\n      swap2\n      pop\n      pop\n      jump\t// out\n        /* \"#utility.yul\":5295:5819   */\n    tag_20:\n        /* \"#utility.yul\":5375:5381   */\n      0x00\n        /* \"#utility.yul\":5424:5426   */\n      0x20\n        /* \"#utility.yul\":5412:5421   */\n      dup3\n        /* \"#utility.yul\":5403:5410   */\n      dup5\n        /* \"#utility.yul\":5399:5422   */\n      sub\n        /* \"#utility.yul\":5395:5427   */\n      slt\n        /* \"#utility.yul\":5392:5511   */\n      iszero\n      tag_114\n      jumpi\n        /* \"#utility.yul\":5430:5509   */\n      tag_115\n      tag_26\n      jump\t// in\n    tag_115:\n        /* \"#utility.yul\":5392:5511   */\n    tag_114:\n        /* \"#utility.yul\":5571:5572   */\n      0x00\n        /* \"#utility.yul\":5560:5569   */\n      dup3\n        /* \"#utility.yul\":5556:5573   */\n      add\n        /* \"#utility.yul\":5550:5574   */\n      mload\n        /* \"#utility.yul\":5601:5619   */\n      0xffffffffffffffff\n        /* \"#utility.yul\":5593:5599   */\n      dup2\n        /* \"#utility.yul\":5590:5620   */\n      gt\n        /* \"#utility.yul\":5587:5704   */\n      iszero\n      tag_116\n      jumpi\n        /* \"#utility.yul\":5623:5702   */\n      tag_117\n      tag_27\n      jump\t// in\n    tag_117:\n        /* \"#utility.yul\":5587:5704   */\n    tag_116:\n        /* \"#utility.yul\":5728:5802   */\n      tag_118\n        /* \"#utility.yul\":5794:5801   */\n      dup5\n        /* \"#utility.yul\":5785:5791   */\n      dup3\n        /* \"#utility.yul\":5774:5783   */\n      dup6\n        /* \"#utility.yul\":5770:5792   */\n      add\n        /* \"#utility.yul\":5728:5802   */\n      tag_47\n      jump\t// in\n    tag_118:\n        /* \"#utility.yul\":5718:5802   */\n      swap2\n      pop\n        /* \"#utility.yul\":5521:5812   */\n      pop\n        /* \"#utility.yul\":5295:5819   */\n      swap3\n      swap2\n      pop\n      pop\n      jump\t// out\n\n    auxdata: 0xa26469706673582212200681a9a3727fb8ee30221628c074f8f98ce9d6b9fe481c8c79eb759fc35f925864736f6c63430008120033\n}\n",
				"bytecode": {
					"linkReferences": {},
					"object": "608060405234801561001057600080fd5b506104f6806100206000396000f3fe608060405234801561001057600080fd5b50600436106100365760003560e01c8063286f478e1461003b578063a32b95441461006b575b600080fd5b61005560048036038101906100509190610207565b61009b565b60405161006291906102c4565b60405180910390f35b61008560048036038101906100809190610324565b610118565b60405161009291906102c4565b60405180910390f35b60608173ffffffffffffffffffffffffffffffffffffffff166329f4acb06040518163ffffffff1660e01b8152600401600060405180830381865afa1580156100e8573d6000803e3d6000fd5b505050506040513d6000823e3d601f19601f820116820180604052508101906101119190610477565b9050919050565b60608173ffffffffffffffffffffffffffffffffffffffff166329f4acb06040518163ffffffff1660e01b8152600401600060405180830381865afa158015610165573d6000803e3d6000fd5b505050506040513d6000823e3d601f19601f8201168201806040525081019061018e9190610477565b9050919050565b6000604051905090565b600080fd5b600080fd5b600073ffffffffffffffffffffffffffffffffffffffff82169050919050565b60006101d4826101a9565b9050919050565b6101e4816101c9565b81146101ef57600080fd5b50565b600081359050610201816101db565b92915050565b60006020828403121561021d5761021c61019f565b5b600061022b848285016101f2565b91505092915050565b600081519050919050565b600082825260208201905092915050565b60005b8381101561026e578082015181840152602081019050610253565b60008484015250505050565b6000601f19601f8301169050919050565b600061029682610234565b6102a0818561023f565b93506102b0818560208601610250565b6102b98161027a565b840191505092915050565b600060208201905081810360008301526102de818461028b565b905092915050565b60006102f1826101c9565b9050919050565b610301816102e6565b811461030c57600080fd5b50565b60008135905061031e816102f8565b92915050565b60006020828403121561033a5761033961019f565b5b60006103488482850161030f565b91505092915050565b600080fd5b600080fd5b7f4e487b7100000000000000000000000000000000000000000000000000000000600052604160045260246000fd5b6103938261027a565b810181811067ffffffffffffffff821117156103b2576103b161035b565b5b80604052505050565b60006103c5610195565b90506103d1828261038a565b919050565b600067ffffffffffffffff8211156103f1576103f061035b565b5b6103fa8261027a565b9050602081019050919050565b600061041a610415846103d6565b6103bb565b90508281526020810184848401111561043657610435610356565b5b610441848285610250565b509392505050565b600082601f83011261045e5761045d610351565b5b815161046e848260208601610407565b91505092915050565b60006020828403121561048d5761048c61019f565b5b600082015167ffffffffffffffff8111156104ab576104aa6101a4565b5b6104b784828501610449565b9150509291505056fea26469706673582212200681a9a3727fb8ee30221628c074f8f98ce9d6b9fe481c8c79eb759fc35f925864736f6c63430008120033",
					"opcodes": "PUSH1 0x80 PUSH1 0x40 MSTORE CALLVALUE DUP1 ISZERO PUSH2 0x10 JUMPI PUSH1 0x0 DUP1 REVERT JUMPDEST POP PUSH2 0x4F6 DUP1 PUSH2 0x20 PUSH1 0x0 CODECOPY PUSH1 0x0 RETURN INVALID PUSH1 0x80 PUSH1 0x40 MSTORE CALLVALUE DUP1 ISZERO PUSH2 0x10 JUMPI PUSH1 0x0 DUP1 REVERT JUMPDEST POP PUSH1 0x4 CALLDATASIZE LT PUSH2 0x36 JUMPI PUSH1 0x0 CALLDATALOAD PUSH1 0xE0 SHR DUP1 PUSH4 0x286F478E EQ PUSH2 0x3B JUMPI DUP1 PUSH4 0xA32B9544 EQ PUSH2 0x6B JUMPI JUMPDEST PUSH1 0x0 DUP1 REVERT JUMPDEST PUSH2 0x55 PUSH1 0x4 DUP1 CALLDATASIZE SUB DUP2 ADD SWAP1 PUSH2 0x50 SWAP2 SWAP1 PUSH2 0x207 JUMP JUMPDEST PUSH2 0x9B JUMP JUMPDEST PUSH1 0x40 MLOAD PUSH2 0x62 SWAP2 SWAP1 PUSH2 0x2C4 JUMP JUMPDEST PUSH1 0x40 MLOAD DUP1 SWAP2 SUB SWAP1 RETURN JUMPDEST PUSH2 0x85 PUSH1 0x4 DUP1 CALLDATASIZE SUB DUP2 ADD SWAP1 PUSH2 0x80 SWAP2 SWAP1 PUSH2 0x324 JUMP JUMPDEST PUSH2 0x118 JUMP JUMPDEST PUSH1 0x40 MLOAD PUSH2 0x92 SWAP2 SWAP1 PUSH2 0x2C4 JUMP JUMPDEST PUSH1 0x40 MLOAD DUP1 SWAP2 SUB SWAP1 RETURN JUMPDEST PUSH1 0x60 DUP2 PUSH20 0xFFFFFFFFFFFFFFFFFFFFFFFFFFFFFFFFFFFFFFFF AND PUSH4 0x29F4ACB0 PUSH1 0x40 MLOAD DUP2 PUSH4 0xFFFFFFFF AND PUSH1 0xE0 SHL DUP2 MSTORE PUSH1 0x4 ADD PUSH1 0x0 PUSH1 0x40 MLOAD DUP1 DUP4 SUB DUP2 DUP7 GAS STATICCALL ISZERO DUP1 ISZERO PUSH2 0xE8 JUMPI RETURNDATASIZE PUSH1 0x0 DUP1 RETURNDATACOPY RETURNDATASIZE PUSH1 0x0 REVERT JUMPDEST POP POP POP POP PUSH1 0x40 MLOAD RETURNDATASIZE PUSH1 0x0 DUP3 RETURNDATACOPY RETURNDATASIZE PUSH1 0x1F NOT PUSH1 0x1F DUP3 ADD AND DUP3 ADD DUP1 PUSH1 0x40 MSTORE POP DUP2 ADD SWAP1 PUSH2 0x111 SWAP2 SWAP1 PUSH2 0x477 JUMP JUMPDEST SWAP1 POP SWAP2 SWAP1 POP JUMP JUMPDEST PUSH1 0x60 DUP2 PUSH20 0xFFFFFFFFFFFFFFFFFFFFFFFFFFFFFFFFFFFFFFFF AND PUSH4 0x29F4ACB0 PUSH1 0x40 MLOAD DUP2 PUSH4 0xFFFFFFFF AND PUSH1 0xE0 SHL DUP2 MSTORE PUSH1 0x4 ADD PUSH1 0x0 PUSH1 0x40 MLOAD DUP1 DUP4 SUB DUP2 DUP7 GAS STATICCALL ISZERO DUP1 ISZERO PUSH2 0x165 JUMPI RETURNDATASIZE PUSH1 0x0 DUP1 RETURNDATACOPY RETURNDATASIZE PUSH1 0x0 REVERT JUMPDEST POP POP POP POP PUSH1 0x40 MLOAD RETURNDATASIZE PUSH1 0x0 DUP3 RETURNDATACOPY RETURNDATASIZE PUSH1 0x1F NOT PUSH1 0x1F DUP3 ADD AND DUP3 ADD DUP1 PUSH1 0x40 MSTORE POP DUP2 ADD SWAP1 PUSH2 0x18E SWAP2 SWAP1 PUSH2 0x477 JUMP JUMPDEST SWAP1 POP SWAP2 SWAP1 POP JUMP JUMPDEST PUSH1 0x0 PUSH1 0x40 MLOAD SWAP1 POP SWAP1 JUMP JUMPDEST PUSH1 0x0 DUP1 REVERT JUMPDEST PUSH1 0x0 DUP1 REVERT JUMPDEST PUSH1 0x0 PUSH20 0xFFFFFFFFFFFFFFFFFFFFFFFFFFFFFFFFFFFFFFFF DUP3 AND SWAP1 POP SWAP2 SWAP1 POP JUMP JUMPDEST PUSH1 0x0 PUSH2 0x1D4 DUP3 PUSH2 0x1A9 JUMP JUMPDEST SWAP1 POP SWAP2 SWAP1 POP JUMP JUMPDEST PUSH2 0x1E4 DUP2 PUSH2 0x1C9 JUMP JUMPDEST DUP2 EQ PUSH2 0x1EF JUMPI PUSH1 0x0 DUP1 REVERT JUMPDEST POP JUMP JUMPDEST PUSH1 0x0 DUP2 CALLDATALOAD SWAP1 POP PUSH2 0x201 DUP2 PUSH2 0x1DB JUMP JUMPDEST SWAP3 SWAP2 POP POP JUMP JUMPDEST PUSH1 0x0 PUSH1 0x20 DUP3 DUP5 SUB SLT ISZERO PUSH2 0x21D JUMPI PUSH2 0x21C PUSH2 0x19F JUMP JUMPDEST JUMPDEST PUSH1 0x0 PUSH2 0x22B DUP5 DUP3 DUP6 ADD PUSH2 0x1F2 JUMP JUMPDEST SWAP2 POP POP SWAP3 SWAP2 POP POP JUMP JUMPDEST PUSH1 0x0 DUP2 MLOAD SWAP1 POP SWAP2 SWAP1 POP JUMP JUMPDEST PUSH1 0x0 DUP3 DUP3 MSTORE PUSH1 0x20 DUP3 ADD SWAP1 POP SWAP3 SWAP2 POP POP JUMP JUMPDEST PUSH1 0x0 JUMPDEST DUP4 DUP2 LT ISZERO PUSH2 0x26E JUMPI DUP1 DUP3 ADD MLOAD DUP2 DUP5 ADD MSTORE PUSH1 0x20 DUP2 ADD SWAP1 POP PUSH2 0x253 JUMP JUMPDEST PUSH1 0x0 DUP5 DUP5 ADD MSTORE POP POP POP POP JUMP JUMPDEST PUSH1 0x0 PUSH1 0x1F NOT PUSH1 0x1F DUP4 ADD AND SWAP1 POP SWAP2 SWAP1 POP JUMP JUMPDEST PUSH1 0x0 PUSH2 0x296 DUP3 PUSH2 0x234 JUMP JUMPDEST PUSH2 0x2A0 DUP2 DUP6 PUSH2 0x23F JUMP JUMPDEST SWAP4 POP PUSH2 0x2B0 DUP2 DUP6 PUSH1 0x20 DUP7 ADD PUSH2 0x250 JUMP JUMPDEST PUSH2 0x2B9 DUP2 PUSH2 0x27A JUMP JUMPDEST DUP5 ADD SWAP2 POP POP SWAP3 SWAP2 POP POP JUMP JUMPDEST PUSH1 0x0 PUSH1 0x20 DUP3 ADD SWAP1 POP DUP2 DUP2 SUB PUSH1 0x0 DUP4 ADD MSTORE PUSH2 0x2DE DUP2 DUP5 PUSH2 0x28B JUMP JUMPDEST SWAP1 POP SWAP3 SWAP2 POP POP JUMP JUMPDEST PUSH1 0x0 PUSH2 0x2F1 DUP3 PUSH2 0x1C9 JUMP JUMPDEST SWAP1 POP SWAP2 SWAP1 POP JUMP JUMPDEST PUSH2 0x301 DUP2 PUSH2 0x2E6 JUMP JUMPDEST DUP2 EQ PUSH2 0x30C JUMPI PUSH1 0x0 DUP1 REVERT JUMPDEST POP JUMP JUMPDEST PUSH1 0x0 DUP2 CALLDATALOAD SWAP1 POP PUSH2 0x31E DUP2 PUSH2 0x2F8 JUMP JUMPDEST SWAP3 SWAP2 POP POP JUMP JUMPDEST PUSH1 0x0 PUSH1 0x20 DUP3 DUP5 SUB SLT ISZERO PUSH2 0x33A JUMPI PUSH2 0x339 PUSH2 0x19F JUMP JUMPDEST JUMPDEST PUSH1 0x0 PUSH2 0x348 DUP5 DUP3 DUP6 ADD PUSH2 0x30F JUMP JUMPDEST SWAP2 POP POP SWAP3 SWAP2 POP POP JUMP JUMPDEST PUSH1 0x0 DUP1 REVERT JUMPDEST PUSH1 0x0 DUP1 REVERT JUMPDEST PUSH32 0x4E487B7100000000000000000000000000000000000000000000000000000000 PUSH1 0x0 MSTORE PUSH1 0x41 PUSH1 0x4 MSTORE PUSH1 0x24 PUSH1 0x0 REVERT JUMPDEST PUSH2 0x393 DUP3 PUSH2 0x27A JUMP JUMPDEST DUP2 ADD DUP2 DUP2 LT PUSH8 0xFFFFFFFFFFFFFFFF DUP3 GT OR ISZERO PUSH2 0x3B2 JUMPI PUSH2 0x3B1 PUSH2 0x35B JUMP JUMPDEST JUMPDEST DUP1 PUSH1 0x40 MSTORE POP POP POP JUMP JUMPDEST PUSH1 0x0 PUSH2 0x3C5 PUSH2 0x195 JUMP JUMPDEST SWAP1 POP PUSH2 0x3D1 DUP3 DUP3 PUSH2 0x38A JUMP JUMPDEST SWAP2 SWAP1 POP JUMP JUMPDEST PUSH1 0x0 PUSH8 0xFFFFFFFFFFFFFFFF DUP3 GT ISZERO PUSH2 0x3F1 JUMPI PUSH2 0x3F0 PUSH2 0x35B JUMP JUMPDEST JUMPDEST PUSH2 0x3FA DUP3 PUSH2 0x27A JUMP JUMPDEST SWAP1 POP PUSH1 0x20 DUP2 ADD SWAP1 POP SWAP2 SWAP1 POP JUMP JUMPDEST PUSH1 0x0 PUSH2 0x41A PUSH2 0x415 DUP5 PUSH2 0x3D6 JUMP JUMPDEST PUSH2 0x3BB JUMP JUMPDEST SWAP1 POP DUP3 DUP2 MSTORE PUSH1 0x20 DUP2 ADD DUP5 DUP5 DUP5 ADD GT ISZERO PUSH2 0x436 JUMPI PUSH2 0x435 PUSH2 0x356 JUMP JUMPDEST JUMPDEST PUSH2 0x441 DUP5 DUP3 DUP6 PUSH2 0x250 JUMP JUMPDEST POP SWAP4 SWAP3 POP POP POP JUMP JUMPDEST PUSH1 0x0 DUP3 PUSH1 0x1F DUP4 ADD SLT PUSH2 0x45E JUMPI PUSH2 0x45D PUSH2 0x351 JUMP JUMPDEST JUMPDEST DUP2 MLOAD PUSH2 0x46E DUP5 DUP3 PUSH1 0x20 DUP7 ADD PUSH2 0x407 JUMP JUMPDEST SWAP2 POP POP SWAP3 SWAP2 POP POP JUMP JUMPDEST PUSH1 0x0 PUSH1 0x20 DUP3 DUP5 SUB SLT ISZERO PUSH2 0x48D JUMPI PUSH2 0x48C PUSH2 0x19F JUMP JUMPDEST JUMPDEST PUSH1 0x0 DUP3 ADD MLOAD PUSH8 0xFFFFFFFFFFFFFFFF DUP2 GT ISZERO PUSH2 0x4AB JUMPI PUSH2 0x4AA PUSH2 0x1A4 JUMP JUMPDEST JUMPDEST PUSH2 0x4B7 DUP5 DUP3 DUP6 ADD PUSH2 0x449 JUMP JUMPDEST SWAP2 POP POP SWAP3 SWAP2 POP POP JUMP INVALID LOG2 PUSH5 0x6970667358 0x22 SLT KECCAK256 MOD DUP2 0xA9 LOG3 PUSH19 0x7FB8EE30221628C074F8F98CE9D6B9FE481C8C PUSH26 0xEB759FC35F925864736F6C634300081200330000000000000000 "
				},
				"gasEstimates": {
					"creation": {
						"codeDepositCost": "254000",
						"executionCost": "294",
						"totalCost": "254294"
					},
					"external": {
						"callHello(address)": "infinite",
						"callHelloOr(address)": "infinite"
					}
				},
				"methodIdentifiers": {
					"callHello(address)": "286f478e",
					"callHelloOr(address)": "a32b9544"
				}
			},
			"storageLayout": {
				"storage": [],
				"types": null
			},
			"userdoc": {
				"kind": "user",
				"methods": {},
				"version": 1
			}
		}
	}
}