{
	"继承/ATest.sol": {
		"A": {
			"abi": [
				{
					"inputs": [],
					"name": "somPublicFun",
					"outputs": [],
					"stateMutability": "nonpayable",
					"type": "function"
				}
			],
			"devdoc": {
				"kind": "dev",
				"methods": {},
				"version": 1
			},
			"evm": {
				"assembly": "    /* \"\\xe7\\xbb\\xa7\\xe6\\x89\\xbf/ATest.sol\":60:220  contract A {\r... */\n  mstore(0x40, 0x80)\n  callvalue\n  dup1\n  iszero\n  tag_1\n  jumpi\n  0x00\n  dup1\n  revert\ntag_1:\n  pop\n  dataSize(sub_0)\n  dup1\n  dataOffset(sub_0)\n  0x00\n  codecopy\n  0x00\n  return\nstop\n\nsub_0: assembly {\n        /* \"\\xe7\\xbb\\xa7\\xe6\\x89\\xbf/ATest.sol\":60:220  contract A {\r... */\n      mstore(0x40, 0x80)\n      callvalue\n      dup1\n      iszero\n      tag_1\n      jumpi\n      0x00\n      dup1\n      revert\n    tag_1:\n      pop\n      jumpi(tag_2, lt(calldatasize, 0x04))\n      shr(0xe0, calldataload(0x00))\n      dup1\n      0x981ede9c\n      eq\n      tag_3\n      jumpi\n    tag_2:\n      0x00\n      dup1\n      revert\n        /* \"\\xe7\\xbb\\xa7\\xe6\\x89\\xbf/ATest.sol\":100:133  function somPublicFun() public {} */\n    tag_3:\n      tag_4\n      tag_5\n      jump\t// in\n    tag_4:\n      stop\n    tag_5:\n      jump\t// out\n\n    auxdata: 0xa2646970667358221220414f5e6804557917d03275b889cb468aa3d7cb1feeff9d1c0ddd96f2b37b12d764736f6c63430008070033\n}\n",
				"bytecode": {
					"linkReferences": {},
					"object": "6080604052348015600f57600080fd5b50606d80601d6000396000f3fe6080604052348015600f57600080fd5b506004361060285760003560e01c8063981ede9c14602d575b600080fd5b60336035565b005b56fea2646970667358221220414f5e6804557917d03275b889cb468aa3d7cb1feeff9d1c0ddd96f2b37b12d764736f6c63430008070033",
					"opcodes": "PUSH1 0x80 PUSH1 0x40 MSTORE CALLVALUE DUP1 ISZERO PUSH1 0xF JUMPI PUSH1 0x0 DUP1 REVERT JUMPDEST POP PUSH1 0x6D DUP1 PUSH1 0x1D PUSH1 0x0 CODECOPY PUSH1 0x0 RETURN INVALID PUSH1 0x80 PUSH1 0x40 MSTORE CALLVALUE DUP1 ISZERO PUSH1 0xF JUMPI PUSH1 0x0 DUP1 REVERT JUMPDEST POP PUSH1 0x4 CALLDATASIZE LT PUSH1 0x28 JUMPI PUSH1 0x0 CALLDATALOAD PUSH1 0xE0 SHR DUP1 PUSH4 0x981EDE9C EQ PUSH1 0x2D JUMPI JUMPDEST PUSH1 0x0 DUP1 REVERT JUMPDEST PUSH1 0x33 PUSH1 0x35 JUMP JUMPDEST STOP JUMPDEST JUMP INVALID LOG2 PUSH5 0x6970667358 0x22 SLT KECCAK256 COINBASE 0x4F 0x5E PUSH9 0x4557917D03275B889 0xCB CHAINID DUP11 LOG3 0xD7 0xCB 0x1F 0xEE SELFDESTRUCT SWAP14 SHR 0xD 0xDD SWAP7 CALLCODE 0xB3 PUSH28 0x12D764736F6C63430008070033000000000000000000000000000000 "
				},
				"gasEstimates": {
					"creation": {
						"codeDepositCost": "21800",
						"executionCost": "75",
						"totalCost": "21875"
					},
					"external": {
						"somPublicFun()": "122"
					},
					"internal": {
						"somInternalFun()": "infinite",
						"somPrivateFun()": "infinite"
					}
				},
				"methodIdentifiers": {
					"somPublicFun()": "981ede9c"
				}
			},
			"storageLayout": {
				"storage": [
					{
						"astId": 3,
						"contract": "继承/ATest.sol:A",
						"label": "stateVar",
						"offset": 0,
						"slot": "0",
						"type": "t_uint256"
					}
				],
				"types": {
					"t_uint256": {
						"encoding": "inplace",
						"label": "uint256",
						"numberOfBytes": "32"
					}
				}
			},
			"userdoc": {
				"kind": "user",
				"methods": {},
				"version": 1
			}
		}
	}
}