{
	"继承/abstractTest1.sol": {
		"Cat2": {
			"abi": [
				{
					"inputs": [
						{
							"internalType": "uint256",
							"name": "_num",
							"type": "uint256"
						}
					],
					"name": "base",
					"outputs": [
						{
							"internalType": "uint256",
							"name": "",
							"type": "uint256"
						},
						{
							"internalType": "string",
							"name": "",
							"type": "string"
						}
					],
					"stateMutability": "nonpayable",
					"type": "function"
				},
				{
					"inputs": [],
					"name": "num",
					"outputs": [
						{
							"internalType": "uint256",
							"name": "",
							"type": "uint256"
						}
					],
					"stateMutability": "view",
					"type": "function"
				},
				{
					"inputs": [],
					"name": "species",
					"outputs": [
						{
							"internalType": "string",
							"name": "",
							"type": "string"
						}
					],
					"stateMutability": "view",
					"type": "function"
				},
				{
					"inputs": [],
					"name": "utterance",
					"outputs": [
						{
							"internalType": "bytes32",
							"name": "",
							"type": "bytes32"
						}
					],
					"stateMutability": "pure",
					"type": "function"
				}
			],
			"devdoc": {
				"kind": "dev",
				"methods": {},
				"version": 1
			},
			"evm": {
				"assembly": "    /* \"\\xe7\\xbb\\xa7\\xe6\\x89\\xbf/abstractTest1.sol\":704:875  contract Cat2 is Feline, Animal(\"Animal\") {\r... */\n  mstore(0x40, 0x80)\n  callvalue\n  dup1\n  iszero\n  tag_1\n  jumpi\n  0x00\n  dup1\n  revert\ntag_1:\n  pop\n    /* \"\\xe7\\xbb\\xa7\\xe6\\x89\\xbf/abstractTest1.sol\":133:200  constructor(string memory _base) {\r... */\n  mload(0x40)\n  dup1\n  0x40\n  add\n  0x40\n  mstore\n  dup1\n  0x06\n  dup2\n  mstore\n  0x20\n  add\n  0x416e696d616c0000000000000000000000000000000000000000000000000000\n  dup2\n  mstore\n  pop\n    /* \"\\xe7\\xbb\\xa7\\xe6\\x89\\xbf/abstractTest1.sol\":187:192  _base */\n  dup1\n    /* \"\\xe7\\xbb\\xa7\\xe6\\x89\\xbf/abstractTest1.sol\":177:184  species */\n  0x01\n    /* \"\\xe7\\xbb\\xa7\\xe6\\x89\\xbf/abstractTest1.sol\":177:192  species = _base */\n  swap1\n  dup1\n  mload\n  swap1\n  0x20\n  add\n  swap1\n  tag_4\n  swap3\n  swap2\n  swap1\n  tag_5\n  jump\t// in\ntag_4:\n  pop\n    /* \"\\xe7\\xbb\\xa7\\xe6\\x89\\xbf/abstractTest1.sol\":133:200  constructor(string memory _base) {\r... */\n  pop\n    /* \"\\xe7\\xbb\\xa7\\xe6\\x89\\xbf/abstractTest1.sol\":704:875  contract Cat2 is Feline, Animal(\"Animal\") {\r... */\n  jump(tag_6)\ntag_5:\n  dup3\n  dup1\n  sload\n  tag_7\n  swap1\n  tag_8\n  jump\t// in\ntag_7:\n  swap1\n  0x00\n  mstore\n  keccak256(0x00, 0x20)\n  swap1\n  0x1f\n  add\n  0x20\n  swap1\n  div\n  dup2\n  add\n  swap3\n  dup3\n  tag_10\n  jumpi\n  0x00\n  dup6\n  sstore\n  jump(tag_9)\ntag_10:\n  dup3\n  0x1f\n  lt\n  tag_11\n  jumpi\n  dup1\n  mload\n  not(0xff)\n  and\n  dup4\n  dup1\n  add\n  or\n  dup6\n  sstore\n  jump(tag_9)\ntag_11:\n  dup3\n  dup1\n  add\n  0x01\n  add\n  dup6\n  sstore\n  dup3\n  iszero\n  tag_9\n  jumpi\n  swap2\n  dup3\n  add\ntag_12:\n  dup3\n  dup2\n  gt\n  iszero\n  tag_13\n  jumpi\n  dup3\n  mload\n  dup3\n  sstore\n  swap2\n  0x20\n  add\n  swap2\n  swap1\n  0x01\n  add\n  swap1\n  jump(tag_12)\ntag_13:\ntag_9:\n  pop\n  swap1\n  pop\n  tag_14\n  swap2\n  swap1\n  tag_15\n  jump\t// in\ntag_14:\n  pop\n  swap1\n  jump\t// out\ntag_15:\ntag_16:\n  dup1\n  dup3\n  gt\n  iszero\n  tag_17\n  jumpi\n  0x00\n  dup2\n  0x00\n  swap1\n  sstore\n  pop\n  0x01\n  add\n  jump(tag_16)\ntag_17:\n  pop\n  swap1\n  jump\t// out\n    /* \"#utility.yul\":7:327   */\ntag_8:\n    /* \"#utility.yul\":51:57   */\n  0x00\n    /* \"#utility.yul\":88:89   */\n  0x02\n    /* \"#utility.yul\":82:86   */\n  dup3\n    /* \"#utility.yul\":78:90   */\n  div\n    /* \"#utility.yul\":68:90   */\n  swap1\n  pop\n    /* \"#utility.yul\":135:136   */\n  0x01\n    /* \"#utility.yul\":129:133   */\n  dup3\n    /* \"#utility.yul\":125:137   */\n  and\n    /* \"#utility.yul\":156:174   */\n  dup1\n    /* \"#utility.yul\":146:227   */\n  tag_20\n  jumpi\n    /* \"#utility.yul\":212:216   */\n  0x7f\n    /* \"#utility.yul\":204:210   */\n  dup3\n    /* \"#utility.yul\":200:217   */\n  and\n    /* \"#utility.yul\":190:217   */\n  swap2\n  pop\n    /* \"#utility.yul\":146:227   */\ntag_20:\n    /* \"#utility.yul\":274:276   */\n  0x20\n    /* \"#utility.yul\":266:272   */\n  dup3\n    /* \"#utility.yul\":263:277   */\n  lt\n    /* \"#utility.yul\":243:261   */\n  dup2\n    /* \"#utility.yul\":240:278   */\n  eq\n    /* \"#utility.yul\":237:321   */\n  iszero\n  tag_21\n  jumpi\n    /* \"#utility.yul\":293:311   */\n  tag_22\n  tag_23\n  jump\t// in\ntag_22:\n    /* \"#utility.yul\":237:321   */\ntag_21:\n    /* \"#utility.yul\":58:327   */\n  pop\n    /* \"#utility.yul\":7:327   */\n  swap2\n  swap1\n  pop\n  jump\t// out\n    /* \"#utility.yul\":333:513   */\ntag_23:\n    /* \"#utility.yul\":381:458   */\n  0x4e487b7100000000000000000000000000000000000000000000000000000000\n    /* \"#utility.yul\":378:379   */\n  0x00\n    /* \"#utility.yul\":371:459   */\n  mstore\n    /* \"#utility.yul\":478:482   */\n  0x22\n    /* \"#utility.yul\":475:476   */\n  0x04\n    /* \"#utility.yul\":468:483   */\n  mstore\n    /* \"#utility.yul\":502:506   */\n  0x24\n    /* \"#utility.yul\":499:500   */\n  0x00\n    /* \"#utility.yul\":492:507   */\n  revert\n    /* \"\\xe7\\xbb\\xa7\\xe6\\x89\\xbf/abstractTest1.sol\":704:875  contract Cat2 is Feline, Animal(\"Animal\") {\r... */\ntag_6:\n  dataSize(sub_0)\n  dup1\n  dataOffset(sub_0)\n  0x00\n  codecopy\n  0x00\n  return\nstop\n\nsub_0: assembly {\n        /* \"\\xe7\\xbb\\xa7\\xe6\\x89\\xbf/abstractTest1.sol\":704:875  contract Cat2 is Feline, Animal(\"Animal\") {\r... */\n      mstore(0x40, 0x80)\n      callvalue\n      dup1\n      iszero\n      tag_1\n      jumpi\n      0x00\n      dup1\n      revert\n    tag_1:\n      pop\n      jumpi(tag_2, lt(calldatasize, 0x04))\n      shr(0xe0, calldataload(0x00))\n      dup1\n      0x4e70b1dc\n      eq\n      tag_3\n      jumpi\n      dup1\n      0x6c6eb9d1\n      eq\n      tag_4\n      jumpi\n      dup1\n      0x9dd807b1\n      eq\n      tag_5\n      jumpi\n      dup1\n      0xdba7ab6c\n      eq\n      tag_6\n      jumpi\n    tag_2:\n      0x00\n      dup1\n      revert\n        /* \"\\xe7\\xbb\\xa7\\xe6\\x89\\xbf/abstractTest1.sol\":239:254  uint public num */\n    tag_3:\n      tag_7\n      tag_8\n      jump\t// in\n    tag_7:\n      mload(0x40)\n      tag_9\n      swap2\n      swap1\n      tag_10\n      jump\t// in\n    tag_9:\n      mload(0x40)\n      dup1\n      swap2\n      sub\n      swap1\n      return\n        /* \"\\xe7\\xbb\\xa7\\xe6\\x89\\xbf/abstractTest1.sol\":328:457  function base(uint _num) public returns(uint, string memory) {\r... */\n    tag_4:\n      tag_11\n      0x04\n      dup1\n      calldatasize\n      sub\n      dup2\n      add\n      swap1\n      tag_12\n      swap2\n      swap1\n      tag_13\n      jump\t// in\n    tag_12:\n      tag_14\n      jump\t// in\n    tag_11:\n      mload(0x40)\n      tag_15\n      swap3\n      swap2\n      swap1\n      tag_16\n      jump\t// in\n    tag_15:\n      mload(0x40)\n      dup1\n      swap2\n      sub\n      swap1\n      return\n        /* \"\\xe7\\xbb\\xa7\\xe6\\x89\\xbf/abstractTest1.sol\":105:126  string public species */\n    tag_5:\n      tag_17\n      tag_18\n      jump\t// in\n    tag_17:\n      mload(0x40)\n      tag_19\n      swap2\n      swap1\n      tag_20\n      jump\t// in\n    tag_19:\n      mload(0x40)\n      dup1\n      swap2\n      sub\n      swap1\n      return\n        /* \"\\xe7\\xbb\\xa7\\xe6\\x89\\xbf/abstractTest1.sol\":753:872  function utterance() public pure override returns (bytes32) {\r... */\n    tag_6:\n      tag_21\n      tag_22\n      jump\t// in\n    tag_21:\n      mload(0x40)\n      tag_23\n      swap2\n      swap1\n      tag_24\n      jump\t// in\n    tag_23:\n      mload(0x40)\n      dup1\n      swap2\n      sub\n      swap1\n      return\n        /* \"\\xe7\\xbb\\xa7\\xe6\\x89\\xbf/abstractTest1.sol\":239:254  uint public num */\n    tag_8:\n      sload(0x00)\n      dup2\n      jump\t// out\n        /* \"\\xe7\\xbb\\xa7\\xe6\\x89\\xbf/abstractTest1.sol\":328:457  function base(uint _num) public returns(uint, string memory) {\r... */\n    tag_14:\n        /* \"\\xe7\\xbb\\xa7\\xe6\\x89\\xbf/abstractTest1.sol\":368:372  uint */\n      0x00\n        /* \"\\xe7\\xbb\\xa7\\xe6\\x89\\xbf/abstractTest1.sol\":374:387  string memory */\n      0x60\n        /* \"\\xe7\\xbb\\xa7\\xe6\\x89\\xbf/abstractTest1.sol\":406:410  _num */\n      dup3\n        /* \"\\xe7\\xbb\\xa7\\xe6\\x89\\xbf/abstractTest1.sol\":400:403  num */\n      0x00\n        /* \"\\xe7\\xbb\\xa7\\xe6\\x89\\xbf/abstractTest1.sol\":400:410  num = _num */\n      dup2\n      swap1\n      sstore\n      pop\n        /* \"\\xe7\\xbb\\xa7\\xe6\\x89\\xbf/abstractTest1.sol\":429:432  num */\n      sload(0x00)\n        /* \"\\xe7\\xbb\\xa7\\xe6\\x89\\xbf/abstractTest1.sol\":421:449  return (num, \"hello world!\") */\n      mload(0x40)\n      dup1\n      0x40\n      add\n      0x40\n      mstore\n      dup1\n      0x0c\n      dup2\n      mstore\n      0x20\n      add\n      0x68656c6c6f20776f726c64210000000000000000000000000000000000000000\n      dup2\n      mstore\n      pop\n      swap2\n      pop\n      swap2\n      pop\n        /* \"\\xe7\\xbb\\xa7\\xe6\\x89\\xbf/abstractTest1.sol\":328:457  function base(uint _num) public returns(uint, string memory) {\r... */\n      swap2\n      pop\n      swap2\n      jump\t// out\n        /* \"\\xe7\\xbb\\xa7\\xe6\\x89\\xbf/abstractTest1.sol\":105:126  string public species */\n    tag_18:\n      0x01\n      dup1\n      sload\n      tag_26\n      swap1\n      tag_27\n      jump\t// in\n    tag_26:\n      dup1\n      0x1f\n      add\n      0x20\n      dup1\n      swap2\n      div\n      mul\n      0x20\n      add\n      mload(0x40)\n      swap1\n      dup2\n      add\n      0x40\n      mstore\n      dup1\n      swap3\n      swap2\n      swap1\n      dup2\n      dup2\n      mstore\n      0x20\n      add\n      dup3\n      dup1\n      sload\n      tag_28\n      swap1\n      tag_27\n      jump\t// in\n    tag_28:\n      dup1\n      iszero\n      tag_29\n      jumpi\n      dup1\n      0x1f\n      lt\n      tag_30\n      jumpi\n      0x0100\n      dup1\n      dup4\n      sload\n      div\n      mul\n      dup4\n      mstore\n      swap2\n      0x20\n      add\n      swap2\n      jump(tag_29)\n    tag_30:\n      dup3\n      add\n      swap2\n      swap1\n      0x00\n      mstore\n      keccak256(0x00, 0x20)\n      swap1\n    tag_31:\n      dup2\n      sload\n      dup2\n      mstore\n      swap1\n      0x01\n      add\n      swap1\n      0x20\n      add\n      dup1\n      dup4\n      gt\n      tag_31\n      jumpi\n      dup3\n      swap1\n      sub\n      0x1f\n      and\n      dup3\n      add\n      swap2\n    tag_29:\n      pop\n      pop\n      pop\n      pop\n      pop\n      dup2\n      jump\t// out\n        /* \"\\xe7\\xbb\\xa7\\xe6\\x89\\xbf/abstractTest1.sol\":753:872  function utterance() public pure override returns (bytes32) {\r... */\n    tag_22:\n        /* \"\\xe7\\xbb\\xa7\\xe6\\x89\\xbf/abstractTest1.sol\":804:811  bytes32 */\n      0x00\n        /* \"\\xe7\\xbb\\xa7\\xe6\\x89\\xbf/abstractTest1.sol\":852:864  return \"123\" */\n      0x3132330000000000000000000000000000000000000000000000000000000000\n      swap1\n      pop\n        /* \"\\xe7\\xbb\\xa7\\xe6\\x89\\xbf/abstractTest1.sol\":753:872  function utterance() public pure override returns (bytes32) {\r... */\n      swap1\n      jump\t// out\n        /* \"#utility.yul\":7:146   */\n    tag_34:\n        /* \"#utility.yul\":53:58   */\n      0x00\n        /* \"#utility.yul\":91:97   */\n      dup2\n        /* \"#utility.yul\":78:98   */\n      calldataload\n        /* \"#utility.yul\":69:98   */\n      swap1\n      pop\n        /* \"#utility.yul\":107:140   */\n      tag_36\n        /* \"#utility.yul\":134:139   */\n      dup2\n        /* \"#utility.yul\":107:140   */\n      tag_37\n      jump\t// in\n    tag_36:\n        /* \"#utility.yul\":7:146   */\n      swap3\n      swap2\n      pop\n      pop\n      jump\t// out\n        /* \"#utility.yul\":152:481   */\n    tag_13:\n        /* \"#utility.yul\":211:217   */\n      0x00\n        /* \"#utility.yul\":260:262   */\n      0x20\n        /* \"#utility.yul\":248:257   */\n      dup3\n        /* \"#utility.yul\":239:246   */\n      dup5\n        /* \"#utility.yul\":235:258   */\n      sub\n        /* \"#utility.yul\":231:263   */\n      slt\n        /* \"#utility.yul\":228:347   */\n      iszero\n      tag_39\n      jumpi\n        /* \"#utility.yul\":266:345   */\n      tag_40\n      tag_41\n      jump\t// in\n    tag_40:\n        /* \"#utility.yul\":228:347   */\n    tag_39:\n        /* \"#utility.yul\":386:387   */\n      0x00\n        /* \"#utility.yul\":411:464   */\n      tag_42\n        /* \"#utility.yul\":456:463   */\n      dup5\n        /* \"#utility.yul\":447:453   */\n      dup3\n        /* \"#utility.yul\":436:445   */\n      dup6\n        /* \"#utility.yul\":432:454   */\n      add\n        /* \"#utility.yul\":411:464   */\n      tag_34\n      jump\t// in\n    tag_42:\n        /* \"#utility.yul\":401:464   */\n      swap2\n      pop\n        /* \"#utility.yul\":357:474   */\n      pop\n        /* \"#utility.yul\":152:481   */\n      swap3\n      swap2\n      pop\n      pop\n      jump\t// out\n        /* \"#utility.yul\":487:605   */\n    tag_43:\n        /* \"#utility.yul\":574:598   */\n      tag_45\n        /* \"#utility.yul\":592:597   */\n      dup2\n        /* \"#utility.yul\":574:598   */\n      tag_46\n      jump\t// in\n    tag_45:\n        /* \"#utility.yul\":569:572   */\n      dup3\n        /* \"#utility.yul\":562:599   */\n      mstore\n        /* \"#utility.yul\":487:605   */\n      pop\n      pop\n      jump\t// out\n        /* \"#utility.yul\":611:975   */\n    tag_47:\n        /* \"#utility.yul\":699:702   */\n      0x00\n        /* \"#utility.yul\":727:766   */\n      tag_49\n        /* \"#utility.yul\":760:765   */\n      dup3\n        /* \"#utility.yul\":727:766   */\n      tag_50\n      jump\t// in\n    tag_49:\n        /* \"#utility.yul\":782:853   */\n      tag_51\n        /* \"#utility.yul\":846:852   */\n      dup2\n        /* \"#utility.yul\":841:844   */\n      dup6\n        /* \"#utility.yul\":782:853   */\n      tag_52\n      jump\t// in\n    tag_51:\n        /* \"#utility.yul\":775:853   */\n      swap4\n      pop\n        /* \"#utility.yul\":862:914   */\n      tag_53\n        /* \"#utility.yul\":907:913   */\n      dup2\n        /* \"#utility.yul\":902:905   */\n      dup6\n        /* \"#utility.yul\":895:899   */\n      0x20\n        /* \"#utility.yul\":888:893   */\n      dup7\n        /* \"#utility.yul\":884:900   */\n      add\n        /* \"#utility.yul\":862:914   */\n      tag_54\n      jump\t// in\n    tag_53:\n        /* \"#utility.yul\":939:968   */\n      tag_55\n        /* \"#utility.yul\":961:967   */\n      dup2\n        /* \"#utility.yul\":939:968   */\n      tag_56\n      jump\t// in\n    tag_55:\n        /* \"#utility.yul\":934:937   */\n      dup5\n        /* \"#utility.yul\":930:969   */\n      add\n        /* \"#utility.yul\":923:969   */\n      swap2\n      pop\n        /* \"#utility.yul\":703:975   */\n      pop\n        /* \"#utility.yul\":611:975   */\n      swap3\n      swap2\n      pop\n      pop\n      jump\t// out\n        /* \"#utility.yul\":981:1099   */\n    tag_57:\n        /* \"#utility.yul\":1068:1092   */\n      tag_59\n        /* \"#utility.yul\":1086:1091   */\n      dup2\n        /* \"#utility.yul\":1068:1092   */\n      tag_60\n      jump\t// in\n    tag_59:\n        /* \"#utility.yul\":1063:1066   */\n      dup3\n        /* \"#utility.yul\":1056:1093   */\n      mstore\n        /* \"#utility.yul\":981:1099   */\n      pop\n      pop\n      jump\t// out\n        /* \"#utility.yul\":1105:1327   */\n    tag_24:\n        /* \"#utility.yul\":1198:1202   */\n      0x00\n        /* \"#utility.yul\":1236:1238   */\n      0x20\n        /* \"#utility.yul\":1225:1234   */\n      dup3\n        /* \"#utility.yul\":1221:1239   */\n      add\n        /* \"#utility.yul\":1213:1239   */\n      swap1\n      pop\n        /* \"#utility.yul\":1249:1320   */\n      tag_62\n        /* \"#utility.yul\":1317:1318   */\n      0x00\n        /* \"#utility.yul\":1306:1315   */\n      dup4\n        /* \"#utility.yul\":1302:1319   */\n      add\n        /* \"#utility.yul\":1293:1299   */\n      dup5\n        /* \"#utility.yul\":1249:1320   */\n      tag_43\n      jump\t// in\n    tag_62:\n        /* \"#utility.yul\":1105:1327   */\n      swap3\n      swap2\n      pop\n      pop\n      jump\t// out\n        /* \"#utility.yul\":1333:1646   */\n    tag_20:\n        /* \"#utility.yul\":1446:1450   */\n      0x00\n        /* \"#utility.yul\":1484:1486   */\n      0x20\n        /* \"#utility.yul\":1473:1482   */\n      dup3\n        /* \"#utility.yul\":1469:1487   */\n      add\n        /* \"#utility.yul\":1461:1487   */\n      swap1\n      pop\n        /* \"#utility.yul\":1533:1542   */\n      dup2\n        /* \"#utility.yul\":1527:1531   */\n      dup2\n        /* \"#utility.yul\":1523:1543   */\n      sub\n        /* \"#utility.yul\":1519:1520   */\n      0x00\n        /* \"#utility.yul\":1508:1517   */\n      dup4\n        /* \"#utility.yul\":1504:1521   */\n      add\n        /* \"#utility.yul\":1497:1544   */\n      mstore\n        /* \"#utility.yul\":1561:1639   */\n      tag_64\n        /* \"#utility.yul\":1634:1638   */\n      dup2\n        /* \"#utility.yul\":1625:1631   */\n      dup5\n        /* \"#utility.yul\":1561:1639   */\n      tag_47\n      jump\t// in\n    tag_64:\n        /* \"#utility.yul\":1553:1639   */\n      swap1\n      pop\n        /* \"#utility.yul\":1333:1646   */\n      swap3\n      swap2\n      pop\n      pop\n      jump\t// out\n        /* \"#utility.yul\":1652:1874   */\n    tag_10:\n        /* \"#utility.yul\":1745:1749   */\n      0x00\n        /* \"#utility.yul\":1783:1785   */\n      0x20\n        /* \"#utility.yul\":1772:1781   */\n      dup3\n        /* \"#utility.yul\":1768:1786   */\n      add\n        /* \"#utility.yul\":1760:1786   */\n      swap1\n      pop\n        /* \"#utility.yul\":1796:1867   */\n      tag_66\n        /* \"#utility.yul\":1864:1865   */\n      0x00\n        /* \"#utility.yul\":1853:1862   */\n      dup4\n        /* \"#utility.yul\":1849:1866   */\n      add\n        /* \"#utility.yul\":1840:1846   */\n      dup5\n        /* \"#utility.yul\":1796:1867   */\n      tag_57\n      jump\t// in\n    tag_66:\n        /* \"#utility.yul\":1652:1874   */\n      swap3\n      swap2\n      pop\n      pop\n      jump\t// out\n        /* \"#utility.yul\":1880:2303   */\n    tag_16:\n        /* \"#utility.yul\":2021:2025   */\n      0x00\n        /* \"#utility.yul\":2059:2061   */\n      0x40\n        /* \"#utility.yul\":2048:2057   */\n      dup3\n        /* \"#utility.yul\":2044:2062   */\n      add\n        /* \"#utility.yul\":2036:2062   */\n      swap1\n      pop\n        /* \"#utility.yul\":2072:2143   */\n      tag_68\n        /* \"#utility.yul\":2140:2141   */\n      0x00\n        /* \"#utility.yul\":2129:2138   */\n      dup4\n        /* \"#utility.yul\":2125:2142   */\n      add\n        /* \"#utility.yul\":2116:2122   */\n      dup6\n        /* \"#utility.yul\":2072:2143   */\n      tag_57\n      jump\t// in\n    tag_68:\n        /* \"#utility.yul\":2190:2199   */\n      dup2\n        /* \"#utility.yul\":2184:2188   */\n      dup2\n        /* \"#utility.yul\":2180:2200   */\n      sub\n        /* \"#utility.yul\":2175:2177   */\n      0x20\n        /* \"#utility.yul\":2164:2173   */\n      dup4\n        /* \"#utility.yul\":2160:2178   */\n      add\n        /* \"#utility.yul\":2153:2201   */\n      mstore\n        /* \"#utility.yul\":2218:2296   */\n      tag_69\n        /* \"#utility.yul\":2291:2295   */\n      dup2\n        /* \"#utility.yul\":2282:2288   */\n      dup5\n        /* \"#utility.yul\":2218:2296   */\n      tag_47\n      jump\t// in\n    tag_69:\n        /* \"#utility.yul\":2210:2296   */\n      swap1\n      pop\n        /* \"#utility.yul\":1880:2303   */\n      swap4\n      swap3\n      pop\n      pop\n      pop\n      jump\t// out\n        /* \"#utility.yul\":2390:2489   */\n    tag_50:\n        /* \"#utility.yul\":2442:2448   */\n      0x00\n        /* \"#utility.yul\":2476:2481   */\n      dup2\n        /* \"#utility.yul\":2470:2482   */\n      mload\n        /* \"#utility.yul\":2460:2482   */\n      swap1\n      pop\n        /* \"#utility.yul\":2390:2489   */\n      swap2\n      swap1\n      pop\n      jump\t// out\n        /* \"#utility.yul\":2495:2664   */\n    tag_52:\n        /* \"#utility.yul\":2579:2590   */\n      0x00\n        /* \"#utility.yul\":2613:2619   */\n      dup3\n        /* \"#utility.yul\":2608:2611   */\n      dup3\n        /* \"#utility.yul\":2601:2620   */\n      mstore\n        /* \"#utility.yul\":2653:2657   */\n      0x20\n        /* \"#utility.yul\":2648:2651   */\n      dup3\n        /* \"#utility.yul\":2644:2658   */\n      add\n        /* \"#utility.yul\":2629:2658   */\n      swap1\n      pop\n        /* \"#utility.yul\":2495:2664   */\n      swap3\n      swap2\n      pop\n      pop\n      jump\t// out\n        /* \"#utility.yul\":2670:2747   */\n    tag_46:\n        /* \"#utility.yul\":2707:2714   */\n      0x00\n        /* \"#utility.yul\":2736:2741   */\n      dup2\n        /* \"#utility.yul\":2725:2741   */\n      swap1\n      pop\n        /* \"#utility.yul\":2670:2747   */\n      swap2\n      swap1\n      pop\n      jump\t// out\n        /* \"#utility.yul\":2753:2830   */\n    tag_60:\n        /* \"#utility.yul\":2790:2797   */\n      0x00\n        /* \"#utility.yul\":2819:2824   */\n      dup2\n        /* \"#utility.yul\":2808:2824   */\n      swap1\n      pop\n        /* \"#utility.yul\":2753:2830   */\n      swap2\n      swap1\n      pop\n      jump\t// out\n        /* \"#utility.yul\":2836:3143   */\n    tag_54:\n        /* \"#utility.yul\":2904:2905   */\n      0x00\n        /* \"#utility.yul\":2914:3027   */\n    tag_77:\n        /* \"#utility.yul\":2928:2934   */\n      dup4\n        /* \"#utility.yul\":2925:2926   */\n      dup2\n        /* \"#utility.yul\":2922:2935   */\n      lt\n        /* \"#utility.yul\":2914:3027   */\n      iszero\n      tag_79\n      jumpi\n        /* \"#utility.yul\":3013:3014   */\n      dup1\n        /* \"#utility.yul\":3008:3011   */\n      dup3\n        /* \"#utility.yul\":3004:3015   */\n      add\n        /* \"#utility.yul\":2998:3016   */\n      mload\n        /* \"#utility.yul\":2994:2995   */\n      dup2\n        /* \"#utility.yul\":2989:2992   */\n      dup5\n        /* \"#utility.yul\":2985:2996   */\n      add\n        /* \"#utility.yul\":2978:3017   */\n      mstore\n        /* \"#utility.yul\":2950:2952   */\n      0x20\n        /* \"#utility.yul\":2947:2948   */\n      dup2\n        /* \"#utility.yul\":2943:2953   */\n      add\n        /* \"#utility.yul\":2938:2953   */\n      swap1\n      pop\n        /* \"#utility.yul\":2914:3027   */\n      jump(tag_77)\n    tag_79:\n        /* \"#utility.yul\":3045:3051   */\n      dup4\n        /* \"#utility.yul\":3042:3043   */\n      dup2\n        /* \"#utility.yul\":3039:3052   */\n      gt\n        /* \"#utility.yul\":3036:3137   */\n      iszero\n      tag_80\n      jumpi\n        /* \"#utility.yul\":3125:3126   */\n      0x00\n        /* \"#utility.yul\":3116:3122   */\n      dup5\n        /* \"#utility.yul\":3111:3114   */\n      dup5\n        /* \"#utility.yul\":3107:3123   */\n      add\n        /* \"#utility.yul\":3100:3127   */\n      mstore\n        /* \"#utility.yul\":3036:3137   */\n    tag_80:\n        /* \"#utility.yul\":2885:3143   */\n      pop\n        /* \"#utility.yul\":2836:3143   */\n      pop\n      pop\n      pop\n      jump\t// out\n        /* \"#utility.yul\":3149:3469   */\n    tag_27:\n        /* \"#utility.yul\":3193:3199   */\n      0x00\n        /* \"#utility.yul\":3230:3231   */\n      0x02\n        /* \"#utility.yul\":3224:3228   */\n      dup3\n        /* \"#utility.yul\":3220:3232   */\n      div\n        /* \"#utility.yul\":3210:3232   */\n      swap1\n      pop\n        /* \"#utility.yul\":3277:3278   */\n      0x01\n        /* \"#utility.yul\":3271:3275   */\n      dup3\n        /* \"#utility.yul\":3267:3279   */\n      and\n        /* \"#utility.yul\":3298:3316   */\n      dup1\n        /* \"#utility.yul\":3288:3369   */\n      tag_82\n      jumpi\n        /* \"#utility.yul\":3354:3358   */\n      0x7f\n        /* \"#utility.yul\":3346:3352   */\n      dup3\n        /* \"#utility.yul\":3342:3359   */\n      and\n        /* \"#utility.yul\":3332:3359   */\n      swap2\n      pop\n        /* \"#utility.yul\":3288:3369   */\n    tag_82:\n        /* \"#utility.yul\":3416:3418   */\n      0x20\n        /* \"#utility.yul\":3408:3414   */\n      dup3\n        /* \"#utility.yul\":3405:3419   */\n      lt\n        /* \"#utility.yul\":3385:3403   */\n      dup2\n        /* \"#utility.yul\":3382:3420   */\n      eq\n        /* \"#utility.yul\":3379:3463   */\n      iszero\n      tag_83\n      jumpi\n        /* \"#utility.yul\":3435:3453   */\n      tag_84\n      tag_85\n      jump\t// in\n    tag_84:\n        /* \"#utility.yul\":3379:3463   */\n    tag_83:\n        /* \"#utility.yul\":3200:3469   */\n      pop\n        /* \"#utility.yul\":3149:3469   */\n      swap2\n      swap1\n      pop\n      jump\t// out\n        /* \"#utility.yul\":3475:3655   */\n    tag_85:\n        /* \"#utility.yul\":3523:3600   */\n      0x4e487b7100000000000000000000000000000000000000000000000000000000\n        /* \"#utility.yul\":3520:3521   */\n      0x00\n        /* \"#utility.yul\":3513:3601   */\n      mstore\n        /* \"#utility.yul\":3620:3624   */\n      0x22\n        /* \"#utility.yul\":3617:3618   */\n      0x04\n        /* \"#utility.yul\":3610:3625   */\n      mstore\n        /* \"#utility.yul\":3644:3648   */\n      0x24\n        /* \"#utility.yul\":3641:3642   */\n      0x00\n        /* \"#utility.yul\":3634:3649   */\n      revert\n        /* \"#utility.yul\":3784:3901   */\n    tag_41:\n        /* \"#utility.yul\":3893:3894   */\n      0x00\n        /* \"#utility.yul\":3890:3891   */\n      dup1\n        /* \"#utility.yul\":3883:3895   */\n      revert\n        /* \"#utility.yul\":3907:4009   */\n    tag_56:\n        /* \"#utility.yul\":3948:3954   */\n      0x00\n        /* \"#utility.yul\":3999:4001   */\n      0x1f\n        /* \"#utility.yul\":3995:4002   */\n      not\n        /* \"#utility.yul\":3990:3992   */\n      0x1f\n        /* \"#utility.yul\":3983:3988   */\n      dup4\n        /* \"#utility.yul\":3979:3993   */\n      add\n        /* \"#utility.yul\":3975:4003   */\n      and\n        /* \"#utility.yul\":3965:4003   */\n      swap1\n      pop\n        /* \"#utility.yul\":3907:4009   */\n      swap2\n      swap1\n      pop\n      jump\t// out\n        /* \"#utility.yul\":4015:4137   */\n    tag_37:\n        /* \"#utility.yul\":4088:4112   */\n      tag_92\n        /* \"#utility.yul\":4106:4111   */\n      dup2\n        /* \"#utility.yul\":4088:4112   */\n      tag_60\n      jump\t// in\n    tag_92:\n        /* \"#utility.yul\":4081:4086   */\n      dup2\n        /* \"#utility.yul\":4078:4113   */\n      eq\n        /* \"#utility.yul\":4068:4131   */\n      tag_93\n      jumpi\n        /* \"#utility.yul\":4127:4128   */\n      0x00\n        /* \"#utility.yul\":4124:4125   */\n      dup1\n        /* \"#utility.yul\":4117:4129   */\n      revert\n        /* \"#utility.yul\":4068:4131   */\n    tag_93:\n        /* \"#utility.yul\":4015:4137   */\n      pop\n      jump\t// out\n\n    auxdata: 0xa26469706673582212208976f8d0773e5897e7d5bf692c2a726661a750640420e51960970665a5762fac64736f6c63430008070033\n}\n",
				"bytecode": {
					"linkReferences": {},
					"object": "608060405234801561001057600080fd5b506040518060400160405280600681526020017f416e696d616c0000000000000000000000000000000000000000000000000000815250806001908051906020019061005d929190610064565b5050610168565b82805461007090610107565b90600052602060002090601f01602090048101928261009257600085556100d9565b82601f106100ab57805160ff19168380011785556100d9565b828001600101855582156100d9579182015b828111156100d85782518255916020019190600101906100bd565b5b5090506100e691906100ea565b5090565b5b808211156101035760008160009055506001016100eb565b5090565b6000600282049050600182168061011f57607f821691505b6020821081141561013357610132610139565b5b50919050565b7f4e487b7100000000000000000000000000000000000000000000000000000000600052602260045260246000fd5b61042d806101776000396000f3fe608060405234801561001057600080fd5b506004361061004c5760003560e01c80634e70b1dc146100515780636c6eb9d11461006f5780639dd807b1146100a0578063dba7ab6c146100be575b600080fd5b6100596100dc565b60405161006691906102bb565b60405180910390f35b610089600480360381019061008491906101fa565b6100e2565b6040516100979291906102d6565b60405180910390f35b6100a861012f565b6040516100b59190610299565b60405180910390f35b6100c66101bd565b6040516100d3919061027e565b60405180910390f35b60005481565b60006060826000819055506000546040518060400160405280600c81526020017f68656c6c6f20776f726c6421000000000000000000000000000000000000000081525091509150915091565b6001805461013c90610369565b80601f016020809104026020016040519081016040528092919081815260200182805461016890610369565b80156101b55780601f1061018a576101008083540402835291602001916101b5565b820191906000526020600020905b81548152906001019060200180831161019857829003601f168201915b505050505081565b60007f3132330000000000000000000000000000000000000000000000000000000000905090565b6000813590506101f4816103e0565b92915050565b6000602082840312156102105761020f6103ca565b5b600061021e848285016101e5565b91505092915050565b61023081610322565b82525050565b600061024182610306565b61024b8185610311565b935061025b818560208601610336565b610264816103cf565b840191505092915050565b6102788161032c565b82525050565b60006020820190506102936000830184610227565b92915050565b600060208201905081810360008301526102b38184610236565b905092915050565b60006020820190506102d0600083018461026f565b92915050565b60006040820190506102eb600083018561026f565b81810360208301526102fd8184610236565b90509392505050565b600081519050919050565b600082825260208201905092915050565b6000819050919050565b6000819050919050565b60005b83811015610354578082015181840152602081019050610339565b83811115610363576000848401525b50505050565b6000600282049050600182168061038157607f821691505b602082108114156103955761039461039b565b5b50919050565b7f4e487b7100000000000000000000000000000000000000000000000000000000600052602260045260246000fd5b600080fd5b6000601f19601f8301169050919050565b6103e98161032c565b81146103f457600080fd5b5056fea26469706673582212208976f8d0773e5897e7d5bf692c2a726661a750640420e51960970665a5762fac64736f6c63430008070033",
					"opcodes": "PUSH1 0x80 PUSH1 0x40 MSTORE CALLVALUE DUP1 ISZERO PUSH2 0x10 JUMPI PUSH1 0x0 DUP1 REVERT JUMPDEST POP PUSH1 0x40 MLOAD DUP1 PUSH1 0x40 ADD PUSH1 0x40 MSTORE DUP1 PUSH1 0x6 DUP2 MSTORE PUSH1 0x20 ADD PUSH32 0x416E696D616C0000000000000000000000000000000000000000000000000000 DUP2 MSTORE POP DUP1 PUSH1 0x1 SWAP1 DUP1 MLOAD SWAP1 PUSH1 0x20 ADD SWAP1 PUSH2 0x5D SWAP3 SWAP2 SWAP1 PUSH2 0x64 JUMP JUMPDEST POP POP PUSH2 0x168 JUMP JUMPDEST DUP3 DUP1 SLOAD PUSH2 0x70 SWAP1 PUSH2 0x107 JUMP JUMPDEST SWAP1 PUSH1 0x0 MSTORE PUSH1 0x20 PUSH1 0x0 KECCAK256 SWAP1 PUSH1 0x1F ADD PUSH1 0x20 SWAP1 DIV DUP2 ADD SWAP3 DUP3 PUSH2 0x92 JUMPI PUSH1 0x0 DUP6 SSTORE PUSH2 0xD9 JUMP JUMPDEST DUP3 PUSH1 0x1F LT PUSH2 0xAB JUMPI DUP1 MLOAD PUSH1 0xFF NOT AND DUP4 DUP1 ADD OR DUP6 SSTORE PUSH2 0xD9 JUMP JUMPDEST DUP3 DUP1 ADD PUSH1 0x1 ADD DUP6 SSTORE DUP3 ISZERO PUSH2 0xD9 JUMPI SWAP2 DUP3 ADD JUMPDEST DUP3 DUP2 GT ISZERO PUSH2 0xD8 JUMPI DUP3 MLOAD DUP3 SSTORE SWAP2 PUSH1 0x20 ADD SWAP2 SWAP1 PUSH1 0x1 ADD SWAP1 PUSH2 0xBD JUMP JUMPDEST JUMPDEST POP SWAP1 POP PUSH2 0xE6 SWAP2 SWAP1 PUSH2 0xEA JUMP JUMPDEST POP SWAP1 JUMP JUMPDEST JUMPDEST DUP1 DUP3 GT ISZERO PUSH2 0x103 JUMPI PUSH1 0x0 DUP2 PUSH1 0x0 SWAP1 SSTORE POP PUSH1 0x1 ADD PUSH2 0xEB JUMP JUMPDEST POP SWAP1 JUMP JUMPDEST PUSH1 0x0 PUSH1 0x2 DUP3 DIV SWAP1 POP PUSH1 0x1 DUP3 AND DUP1 PUSH2 0x11F JUMPI PUSH1 0x7F DUP3 AND SWAP2 POP JUMPDEST PUSH1 0x20 DUP3 LT DUP2 EQ ISZERO PUSH2 0x133 JUMPI PUSH2 0x132 PUSH2 0x139 JUMP JUMPDEST JUMPDEST POP SWAP2 SWAP1 POP JUMP JUMPDEST PUSH32 0x4E487B7100000000000000000000000000000000000000000000000000000000 PUSH1 0x0 MSTORE PUSH1 0x22 PUSH1 0x4 MSTORE PUSH1 0x24 PUSH1 0x0 REVERT JUMPDEST PUSH2 0x42D DUP1 PUSH2 0x177 PUSH1 0x0 CODECOPY PUSH1 0x0 RETURN INVALID PUSH1 0x80 PUSH1 0x40 MSTORE CALLVALUE DUP1 ISZERO PUSH2 0x10 JUMPI PUSH1 0x0 DUP1 REVERT JUMPDEST POP PUSH1 0x4 CALLDATASIZE LT PUSH2 0x4C JUMPI PUSH1 0x0 CALLDATALOAD PUSH1 0xE0 SHR DUP1 PUSH4 0x4E70B1DC EQ PUSH2 0x51 JUMPI DUP1 PUSH4 0x6C6EB9D1 EQ PUSH2 0x6F JUMPI DUP1 PUSH4 0x9DD807B1 EQ PUSH2 0xA0 JUMPI DUP1 PUSH4 0xDBA7AB6C EQ PUSH2 0xBE JUMPI JUMPDEST PUSH1 0x0 DUP1 REVERT JUMPDEST PUSH2 0x59 PUSH2 0xDC JUMP JUMPDEST PUSH1 0x40 MLOAD PUSH2 0x66 SWAP2 SWAP1 PUSH2 0x2BB JUMP JUMPDEST PUSH1 0x40 MLOAD DUP1 SWAP2 SUB SWAP1 RETURN JUMPDEST PUSH2 0x89 PUSH1 0x4 DUP1 CALLDATASIZE SUB DUP2 ADD SWAP1 PUSH2 0x84 SWAP2 SWAP1 PUSH2 0x1FA JUMP JUMPDEST PUSH2 0xE2 JUMP JUMPDEST PUSH1 0x40 MLOAD PUSH2 0x97 SWAP3 SWAP2 SWAP1 PUSH2 0x2D6 JUMP JUMPDEST PUSH1 0x40 MLOAD DUP1 SWAP2 SUB SWAP1 RETURN JUMPDEST PUSH2 0xA8 PUSH2 0x12F JUMP JUMPDEST PUSH1 0x40 MLOAD PUSH2 0xB5 SWAP2 SWAP1 PUSH2 0x299 JUMP JUMPDEST PUSH1 0x40 MLOAD DUP1 SWAP2 SUB SWAP1 RETURN JUMPDEST PUSH2 0xC6 PUSH2 0x1BD JUMP JUMPDEST PUSH1 0x40 MLOAD PUSH2 0xD3 SWAP2 SWAP1 PUSH2 0x27E JUMP JUMPDEST PUSH1 0x40 MLOAD DUP1 SWAP2 SUB SWAP1 RETURN JUMPDEST PUSH1 0x0 SLOAD DUP2 JUMP JUMPDEST PUSH1 0x0 PUSH1 0x60 DUP3 PUSH1 0x0 DUP2 SWAP1 SSTORE POP PUSH1 0x0 SLOAD PUSH1 0x40 MLOAD DUP1 PUSH1 0x40 ADD PUSH1 0x40 MSTORE DUP1 PUSH1 0xC DUP2 MSTORE PUSH1 0x20 ADD PUSH32 0x68656C6C6F20776F726C64210000000000000000000000000000000000000000 DUP2 MSTORE POP SWAP2 POP SWAP2 POP SWAP2 POP SWAP2 JUMP JUMPDEST PUSH1 0x1 DUP1 SLOAD PUSH2 0x13C SWAP1 PUSH2 0x369 JUMP JUMPDEST DUP1 PUSH1 0x1F ADD PUSH1 0x20 DUP1 SWAP2 DIV MUL PUSH1 0x20 ADD PUSH1 0x40 MLOAD SWAP1 DUP2 ADD PUSH1 0x40 MSTORE DUP1 SWAP3 SWAP2 SWAP1 DUP2 DUP2 MSTORE PUSH1 0x20 ADD DUP3 DUP1 SLOAD PUSH2 0x168 SWAP1 PUSH2 0x369 JUMP JUMPDEST DUP1 ISZERO PUSH2 0x1B5 JUMPI DUP1 PUSH1 0x1F LT PUSH2 0x18A JUMPI PUSH2 0x100 DUP1 DUP4 SLOAD DIV MUL DUP4 MSTORE SWAP2 PUSH1 0x20 ADD SWAP2 PUSH2 0x1B5 JUMP JUMPDEST DUP3 ADD SWAP2 SWAP1 PUSH1 0x0 MSTORE PUSH1 0x20 PUSH1 0x0 KECCAK256 SWAP1 JUMPDEST DUP2 SLOAD DUP2 MSTORE SWAP1 PUSH1 0x1 ADD SWAP1 PUSH1 0x20 ADD DUP1 DUP4 GT PUSH2 0x198 JUMPI DUP3 SWAP1 SUB PUSH1 0x1F AND DUP3 ADD SWAP2 JUMPDEST POP POP POP POP POP DUP2 JUMP JUMPDEST PUSH1 0x0 PUSH32 0x3132330000000000000000000000000000000000000000000000000000000000 SWAP1 POP SWAP1 JUMP JUMPDEST PUSH1 0x0 DUP2 CALLDATALOAD SWAP1 POP PUSH2 0x1F4 DUP2 PUSH2 0x3E0 JUMP JUMPDEST SWAP3 SWAP2 POP POP JUMP JUMPDEST PUSH1 0x0 PUSH1 0x20 DUP3 DUP5 SUB SLT ISZERO PUSH2 0x210 JUMPI PUSH2 0x20F PUSH2 0x3CA JUMP JUMPDEST JUMPDEST PUSH1 0x0 PUSH2 0x21E DUP5 DUP3 DUP6 ADD PUSH2 0x1E5 JUMP JUMPDEST SWAP2 POP POP SWAP3 SWAP2 POP POP JUMP JUMPDEST PUSH2 0x230 DUP2 PUSH2 0x322 JUMP JUMPDEST DUP3 MSTORE POP POP JUMP JUMPDEST PUSH1 0x0 PUSH2 0x241 DUP3 PUSH2 0x306 JUMP JUMPDEST PUSH2 0x24B DUP2 DUP6 PUSH2 0x311 JUMP JUMPDEST SWAP4 POP PUSH2 0x25B DUP2 DUP6 PUSH1 0x20 DUP7 ADD PUSH2 0x336 JUMP JUMPDEST PUSH2 0x264 DUP2 PUSH2 0x3CF JUMP JUMPDEST DUP5 ADD SWAP2 POP POP SWAP3 SWAP2 POP POP JUMP JUMPDEST PUSH2 0x278 DUP2 PUSH2 0x32C JUMP JUMPDEST DUP3 MSTORE POP POP JUMP JUMPDEST PUSH1 0x0 PUSH1 0x20 DUP3 ADD SWAP1 POP PUSH2 0x293 PUSH1 0x0 DUP4 ADD DUP5 PUSH2 0x227 JUMP JUMPDEST SWAP3 SWAP2 POP POP JUMP JUMPDEST PUSH1 0x0 PUSH1 0x20 DUP3 ADD SWAP1 POP DUP2 DUP2 SUB PUSH1 0x0 DUP4 ADD MSTORE PUSH2 0x2B3 DUP2 DUP5 PUSH2 0x236 JUMP JUMPDEST SWAP1 POP SWAP3 SWAP2 POP POP JUMP JUMPDEST PUSH1 0x0 PUSH1 0x20 DUP3 ADD SWAP1 POP PUSH2 0x2D0 PUSH1 0x0 DUP4 ADD DUP5 PUSH2 0x26F JUMP JUMPDEST SWAP3 SWAP2 POP POP JUMP JUMPDEST PUSH1 0x0 PUSH1 0x40 DUP3 ADD SWAP1 POP PUSH2 0x2EB PUSH1 0x0 DUP4 ADD DUP6 PUSH2 0x26F JUMP JUMPDEST DUP2 DUP2 SUB PUSH1 0x20 DUP4 ADD MSTORE PUSH2 0x2FD DUP2 DUP5 PUSH2 0x236 JUMP JUMPDEST SWAP1 POP SWAP4 SWAP3 POP POP POP JUMP JUMPDEST PUSH1 0x0 DUP2 MLOAD SWAP1 POP SWAP2 SWAP1 POP JUMP JUMPDEST PUSH1 0x0 DUP3 DUP3 MSTORE PUSH1 0x20 DUP3 ADD SWAP1 POP SWAP3 SWAP2 POP POP JUMP JUMPDEST PUSH1 0x0 DUP2 SWAP1 POP SWAP2 SWAP1 POP JUMP JUMPDEST PUSH1 0x0 DUP2 SWAP1 POP SWAP2 SWAP1 POP JUMP JUMPDEST PUSH1 0x0 JUMPDEST DUP4 DUP2 LT ISZERO PUSH2 0x354 JUMPI DUP1 DUP3 ADD MLOAD DUP2 DUP5 ADD MSTORE PUSH1 0x20 DUP2 ADD SWAP1 POP PUSH2 0x339 JUMP JUMPDEST DUP4 DUP2 GT ISZERO PUSH2 0x363 JUMPI PUSH1 0x0 DUP5 DUP5 ADD MSTORE JUMPDEST POP POP POP POP JUMP JUMPDEST PUSH1 0x0 PUSH1 0x2 DUP3 DIV SWAP1 POP PUSH1 0x1 DUP3 AND DUP1 PUSH2 0x381 JUMPI PUSH1 0x7F DUP3 AND SWAP2 POP JUMPDEST PUSH1 0x20 DUP3 LT DUP2 EQ ISZERO PUSH2 0x395 JUMPI PUSH2 0x394 PUSH2 0x39B JUMP JUMPDEST JUMPDEST POP SWAP2 SWAP1 POP JUMP JUMPDEST PUSH32 0x4E487B7100000000000000000000000000000000000000000000000000000000 PUSH1 0x0 MSTORE PUSH1 0x22 PUSH1 0x4 MSTORE PUSH1 0x24 PUSH1 0x0 REVERT JUMPDEST PUSH1 0x0 DUP1 REVERT JUMPDEST PUSH1 0x0 PUSH1 0x1F NOT PUSH1 0x1F DUP4 ADD AND SWAP1 POP SWAP2 SWAP1 POP JUMP JUMPDEST PUSH2 0x3E9 DUP2 PUSH2 0x32C JUMP JUMPDEST DUP2 EQ PUSH2 0x3F4 JUMPI PUSH1 0x0 DUP1 REVERT JUMPDEST POP JUMP INVALID LOG2 PUSH5 0x6970667358 0x22 SLT KECCAK256 DUP10 PUSH23 0xF8D0773E5897E7D5BF692C2A726661A750640420E51960 SWAP8 MOD PUSH6 0xA5762FAC6473 PUSH16 0x6C634300080700330000000000000000 "
				},
				"gasEstimates": {
					"creation": {
						"codeDepositCost": "213800",
						"executionCost": "infinite",
						"totalCost": "infinite"
					},
					"external": {
						"base(uint256)": "infinite",
						"num()": "2407",
						"species()": "infinite",
						"utterance()": "381"
					}
				},
				"methodIdentifiers": {
					"base(uint256)": "6c6eb9d1",
					"num()": "4e70b1dc",
					"species()": "9dd807b1",
					"utterance()": "dba7ab6c"
				}
			},
			"storageLayout": {
				"storage": [
					{
						"astId": 16,
						"contract": "继承/abstractTest1.sol:Cat2",
						"label": "num",
						"offset": 0,
						"slot": "0",
						"type": "t_uint256"
					},
					{
						"astId": 3,
						"contract": "继承/abstractTest1.sol:Cat2",
						"label": "species",
						"offset": 0,
						"slot": "1",
						"type": "t_string_storage"
					}
				],
				"types": {
					"t_string_storage": {
						"encoding": "bytes",
						"label": "string",
						"numberOfBytes": "32"
					},
					"t_uint256": {
						"encoding": "inplace",
						"label": "uint256",
						"numberOfBytes": "32"
					}
				}
			},
			"userdoc": {
				"kind": "user",
				"methods": {},
				"version": 1
			}
		}
	}
}