{
	"继承/abstractTest.sol": {
		"Manager": {
			"abi": [
				{
					"inputs": [],
					"name": "getSalary",
					"outputs": [
						{
							"internalType": "int256",
							"name": "",
							"type": "int256"
						}
					],
					"stateMutability": "pure",
					"type": "function"
				}
			],
			"devdoc": {
				"kind": "dev",
				"methods": {},
				"version": 1
			},
			"evm": {
				"assembly": "    /* \"\\xe7\\xbb\\xa7\\xe6\\x89\\xbf/abstractTest.sol\":156:280  contract Manager is Employee {\r... */\n  mstore(0x40, 0x80)\n  callvalue\n  dup1\n  iszero\n  tag_1\n  jumpi\n  0x00\n  dup1\n  revert\ntag_1:\n  pop\n  dataSize(sub_0)\n  dup1\n  dataOffset(sub_0)\n  0x00\n  codecopy\n  0x00\n  return\nstop\n\nsub_0: assembly {\n        /* \"\\xe7\\xbb\\xa7\\xe6\\x89\\xbf/abstractTest.sol\":156:280  contract Manager is Employee {\r... */\n      mstore(0x40, 0x80)\n      callvalue\n      dup1\n      iszero\n      tag_1\n      jumpi\n      0x00\n      dup1\n      revert\n    tag_1:\n      pop\n      jumpi(tag_2, lt(calldatasize, 0x04))\n      shr(0xe0, calldataload(0x00))\n      dup1\n      0x58b08d2e\n      eq\n      tag_3\n      jumpi\n    tag_2:\n      0x00\n      dup1\n      revert\n        /* \"\\xe7\\xbb\\xa7\\xe6\\x89\\xbf/abstractTest.sol\":192:277  function getSalary() public pure override returns(int) {\r... */\n    tag_3:\n      tag_4\n      tag_5\n      jump\t// in\n    tag_4:\n      mload(0x40)\n      tag_6\n      swap2\n      swap1\n      tag_7\n      jump\t// in\n    tag_6:\n      mload(0x40)\n      dup1\n      swap2\n      sub\n      swap1\n      return\n    tag_5:\n        /* \"\\xe7\\xbb\\xa7\\xe6\\x89\\xbf/abstractTest.sol\":242:245  int */\n      0x00\n        /* \"\\xe7\\xbb\\xa7\\xe6\\x89\\xbf/abstractTest.sol\":265:269  2000 */\n      0x07d0\n        /* \"\\xe7\\xbb\\xa7\\xe6\\x89\\xbf/abstractTest.sol\":258:269  return 2000 */\n      swap1\n      pop\n        /* \"\\xe7\\xbb\\xa7\\xe6\\x89\\xbf/abstractTest.sol\":192:277  function getSalary() public pure override returns(int) {\r... */\n      swap1\n      jump\t// out\n        /* \"#utility.yul\":7:122   */\n    tag_10:\n        /* \"#utility.yul\":92:115   */\n      tag_12\n        /* \"#utility.yul\":109:114   */\n      dup2\n        /* \"#utility.yul\":92:115   */\n      tag_13\n      jump\t// in\n    tag_12:\n        /* \"#utility.yul\":87:90   */\n      dup3\n        /* \"#utility.yul\":80:116   */\n      mstore\n        /* \"#utility.yul\":7:122   */\n      pop\n      pop\n      jump\t// out\n        /* \"#utility.yul\":128:346   */\n    tag_7:\n        /* \"#utility.yul\":219:223   */\n      0x00\n        /* \"#utility.yul\":257:259   */\n      0x20\n        /* \"#utility.yul\":246:255   */\n      dup3\n        /* \"#utility.yul\":242:260   */\n      add\n        /* \"#utility.yul\":234:260   */\n      swap1\n      pop\n        /* \"#utility.yul\":270:339   */\n      tag_15\n        /* \"#utility.yul\":336:337   */\n      0x00\n        /* \"#utility.yul\":325:334   */\n      dup4\n        /* \"#utility.yul\":321:338   */\n      add\n        /* \"#utility.yul\":312:318   */\n      dup5\n        /* \"#utility.yul\":270:339   */\n      tag_10\n      jump\t// in\n    tag_15:\n        /* \"#utility.yul\":128:346   */\n      swap3\n      swap2\n      pop\n      pop\n      jump\t// out\n        /* \"#utility.yul\":352:428   */\n    tag_13:\n        /* \"#utility.yul\":388:395   */\n      0x00\n        /* \"#utility.yul\":417:422   */\n      dup2\n        /* \"#utility.yul\":406:422   */\n      swap1\n      pop\n        /* \"#utility.yul\":352:428   */\n      swap2\n      swap1\n      pop\n      jump\t// out\n\n    auxdata: 0xa264697066735822122060eb9b18fca87b621d0cdf93b0904bd69eba3b86c628448645b18deec102ccf964736f6c63430008070033\n}\n",
				"bytecode": {
					"linkReferences": {},
					"object": "608060405234801561001057600080fd5b5060b78061001f6000396000f3fe6080604052348015600f57600080fd5b506004361060285760003560e01c806358b08d2e14602d575b600080fd5b60336047565b604051603e9190605e565b60405180910390f35b60006107d0905090565b6058816077565b82525050565b6000602082019050607160008301846051565b92915050565b600081905091905056fea264697066735822122060eb9b18fca87b621d0cdf93b0904bd69eba3b86c628448645b18deec102ccf964736f6c63430008070033",
					"opcodes": "PUSH1 0x80 PUSH1 0x40 MSTORE CALLVALUE DUP1 ISZERO PUSH2 0x10 JUMPI PUSH1 0x0 DUP1 REVERT JUMPDEST POP PUSH1 0xB7 DUP1 PUSH2 0x1F PUSH1 0x0 CODECOPY PUSH1 0x0 RETURN INVALID PUSH1 0x80 PUSH1 0x40 MSTORE CALLVALUE DUP1 ISZERO PUSH1 0xF JUMPI PUSH1 0x0 DUP1 REVERT JUMPDEST POP PUSH1 0x4 CALLDATASIZE LT PUSH1 0x28 JUMPI PUSH1 0x0 CALLDATALOAD PUSH1 0xE0 SHR DUP1 PUSH4 0x58B08D2E EQ PUSH1 0x2D JUMPI JUMPDEST PUSH1 0x0 DUP1 REVERT JUMPDEST PUSH1 0x33 PUSH1 0x47 JUMP JUMPDEST PUSH1 0x40 MLOAD PUSH1 0x3E SWAP2 SWAP1 PUSH1 0x5E JUMP JUMPDEST PUSH1 0x40 MLOAD DUP1 SWAP2 SUB SWAP1 RETURN JUMPDEST PUSH1 0x0 PUSH2 0x7D0 SWAP1 POP SWAP1 JUMP JUMPDEST PUSH1 0x58 DUP2 PUSH1 0x77 JUMP JUMPDEST DUP3 MSTORE POP POP JUMP JUMPDEST PUSH1 0x0 PUSH1 0x20 DUP3 ADD SWAP1 POP PUSH1 0x71 PUSH1 0x0 DUP4 ADD DUP5 PUSH1 0x51 JUMP JUMPDEST SWAP3 SWAP2 POP POP JUMP JUMPDEST PUSH1 0x0 DUP2 SWAP1 POP SWAP2 SWAP1 POP JUMP INVALID LOG2 PUSH5 0x6970667358 0x22 SLT KECCAK256 PUSH1 0xEB SWAP12 XOR 0xFC 0xA8 PUSH28 0x621D0CDF93B0904BD69EBA3B86C628448645B18DEEC102CCF964736F PUSH13 0x63430008070033000000000000 "
				},
				"gasEstimates": {
					"creation": {
						"codeDepositCost": "36600",
						"executionCost": "87",
						"totalCost": "36687"
					},
					"external": {
						"getSalary()": "315"
					}
				},
				"methodIdentifiers": {
					"getSalary()": "58b08d2e"
				}
			},
			"storageLayout": {
				"storage": [],
				"types": null
			},
			"userdoc": {
				"kind": "user",
				"methods": {},
				"version": 1
			}
		}
	}
}