{
	"data": {
		"bytecode": {
			"linkReferences": {},
			"object": "608060405234801561001057600080fd5b50610160806100206000396000f3fe608060405234801561001057600080fd5b506004361061002b5760003560e01c80638b33b4b214610030575b600080fd5b61003861003a565b005b7fdd970dd9b5bfe707922155b058a407655cb18288b807e2216442bca8ad83d6b5607b60405161006a91906100a6565b60405180910390a1565b61007d816100ef565b82525050565b60006100906004836100d4565b915061009b82610101565b602082019050919050565b600060408201905081810360008301526100bf81610083565b90506100ce6020830184610074565b92915050565b600082825260208201905092915050565b6000819050919050565b60006100fa826100e5565b9050919050565b7f496e666f0000000000000000000000000000000000000000000000000000000060008201525056fea2646970667358221220719b1f53f3f3cdab40601bfd18cfe3e12963482be19cc1721bae56b9ef07a28a64736f6c63430008070033",
			"opcodes": "PUSH1 0x80 PUSH1 0x40 MSTORE CALLVALUE DUP1 ISZERO PUSH2 0x10 JUMPI PUSH1 0x0 DUP1 REVERT JUMPDEST POP PUSH2 0x160 DUP1 PUSH2 0x20 PUSH1 0x0 CODECOPY PUSH1 0x0 RETURN INVALID PUSH1 0x80 PUSH1 0x40 MSTORE CALLVALUE DUP1 ISZERO PUSH2 0x10 JUMPI PUSH1 0x0 DUP1 REVERT JUMPDEST POP PUSH1 0x4 CALLDATASIZE LT PUSH2 0x2B JUMPI PUSH1 0x0 CALLDATALOAD PUSH1 0xE0 SHR DUP1 PUSH4 0x8B33B4B2 EQ PUSH2 0x30 JUMPI JUMPDEST PUSH1 0x0 DUP1 REVERT JUMPDEST PUSH2 0x38 PUSH2 0x3A JUMP JUMPDEST STOP JUMPDEST PUSH32 0xDD970DD9B5BFE707922155B058A407655CB18288B807E2216442BCA8AD83D6B5 PUSH1 0x7B PUSH1 0x40 MLOAD PUSH2 0x6A SWAP2 SWAP1 PUSH2 0xA6 JUMP JUMPDEST PUSH1 0x40 MLOAD DUP1 SWAP2 SUB SWAP1 LOG1 JUMP JUMPDEST PUSH2 0x7D DUP2 PUSH2 0xEF JUMP JUMPDEST DUP3 MSTORE POP POP JUMP JUMPDEST PUSH1 0x0 PUSH2 0x90 PUSH1 0x4 DUP4 PUSH2 0xD4 JUMP JUMPDEST SWAP2 POP PUSH2 0x9B DUP3 PUSH2 0x101 JUMP JUMPDEST PUSH1 0x20 DUP3 ADD SWAP1 POP SWAP2 SWAP1 POP JUMP JUMPDEST PUSH1 0x0 PUSH1 0x40 DUP3 ADD SWAP1 POP DUP2 DUP2 SUB PUSH1 0x0 DUP4 ADD MSTORE PUSH2 0xBF DUP2 PUSH2 0x83 JUMP JUMPDEST SWAP1 POP PUSH2 0xCE PUSH1 0x20 DUP4 ADD DUP5 PUSH2 0x74 JUMP JUMPDEST SWAP3 SWAP2 POP POP JUMP JUMPDEST PUSH1 0x0 DUP3 DUP3 MSTORE PUSH1 0x20 DUP3 ADD SWAP1 POP SWAP3 SWAP2 POP POP JUMP JUMPDEST PUSH1 0x0 DUP2 SWAP1 POP SWAP2 SWAP1 POP JUMP JUMPDEST PUSH1 0x0 PUSH2 0xFA DUP3 PUSH2 0xE5 JUMP JUMPDEST SWAP1 POP SWAP2 SWAP1 POP JUMP JUMPDEST PUSH32 0x496E666F00000000000000000000000000000000000000000000000000000000 PUSH1 0x0 DUP3 ADD MSTORE POP JUMP INVALID LOG2 PUSH5 0x6970667358 0x22 SLT KECCAK256 PUSH18 0x9B1F53F3F3CDAB40601BFD18CFE3E1296348 0x2B 0xE1 SWAP13 0xC1 PUSH19 0x1BAE56B9EF07A28A64736F6C63430008070033 "
		},
		"gasEstimates": {
			"creation": {
				"codeDepositCost": "70400",
				"executionCost": "117",
				"totalCost": "70517"
			},
			"external": {
				"operations()": "2326"
			}
		},
		"methodIdentifiers": {
			"operations()": "8b33b4b2"
		}
	},
	"abi": [
		{
			"anonymous": false,
			"inputs": [
				{
					"indexed": false,
					"internalType": "string",
					"name": "",
					"type": "string"
				},
				{
					"indexed": false,
					"internalType": "uint256",
					"name": "",
					"type": "uint256"
				}
			],
			"name": "Log",
			"type": "event"
		},
		{
			"inputs": [],
			"name": "operations",
			"outputs": [],
			"stateMutability": "nonpayable",
			"type": "function"
		}
	]
}