{
	"data": {
		"bytecode": {
			"linkReferences": {},
			"object": "608060405234801561001057600080fd5b5061012e806100206000396000f3fe6080604052348015600f57600080fd5b506004361060285760003560e01c80638b33b4b214602d575b600080fd5b60336035565b005b3373ffffffffffffffffffffffffffffffffffffffff167f0738f4da267a110d810e6e89fc59e46be6de0c37b1d5cd559b267dc3688e74e060405160779060a0565b60405180910390a2565b6000608c60048360be565b915060958260cf565b602082019050919050565b6000602082019050818103600083015260b7816081565b9050919050565b600082825260208201905092915050565b7f496e666f0000000000000000000000000000000000000000000000000000000060008201525056fea264697066735822122000cf32482b9f6e1299d769d3da826871c8606e60257ce2769f7a9c31593a1dac64736f6c63430008070033",
			"opcodes": "PUSH1 0x80 PUSH1 0x40 MSTORE CALLVALUE DUP1 ISZERO PUSH2 0x10 JUMPI PUSH1 0x0 DUP1 REVERT JUMPDEST POP PUSH2 0x12E DUP1 PUSH2 0x20 PUSH1 0x0 CODECOPY PUSH1 0x0 RETURN INVALID PUSH1 0x80 PUSH1 0x40 MSTORE CALLVALUE DUP1 ISZERO PUSH1 0xF JUMPI PUSH1 0x0 DUP1 REVERT JUMPDEST POP PUSH1 0x4 CALLDATASIZE LT PUSH1 0x28 JUMPI PUSH1 0x0 CALLDATALOAD PUSH1 0xE0 SHR DUP1 PUSH4 0x8B33B4B2 EQ PUSH1 0x2D JUMPI JUMPDEST PUSH1 0x0 DUP1 REVERT JUMPDEST PUSH1 0x33 PUSH1 0x35 JUMP JUMPDEST STOP JUMPDEST CALLER PUSH20 0xFFFFFFFFFFFFFFFFFFFFFFFFFFFFFFFFFFFFFFFF AND PUSH32 0x738F4DA267A110D810E6E89FC59E46BE6DE0C37B1D5CD559B267DC3688E74E0 PUSH1 0x40 MLOAD PUSH1 0x77 SWAP1 PUSH1 0xA0 JUMP JUMPDEST PUSH1 0x40 MLOAD DUP1 SWAP2 SUB SWAP1 LOG2 JUMP JUMPDEST PUSH1 0x0 PUSH1 0x8C PUSH1 0x4 DUP4 PUSH1 0xBE JUMP JUMPDEST SWAP2 POP PUSH1 0x95 DUP3 PUSH1 0xCF JUMP JUMPDEST PUSH1 0x20 DUP3 ADD SWAP1 POP SWAP2 SWAP1 POP JUMP JUMPDEST PUSH1 0x0 PUSH1 0x20 DUP3 ADD SWAP1 POP DUP2 DUP2 SUB PUSH1 0x0 DUP4 ADD MSTORE PUSH1 0xB7 DUP2 PUSH1 0x81 JUMP JUMPDEST SWAP1 POP SWAP2 SWAP1 POP JUMP JUMPDEST PUSH1 0x0 DUP3 DUP3 MSTORE PUSH1 0x20 DUP3 ADD SWAP1 POP SWAP3 SWAP2 POP POP JUMP JUMPDEST PUSH32 0x496E666F00000000000000000000000000000000000000000000000000000000 PUSH1 0x0 DUP3 ADD MSTORE POP JUMP INVALID LOG2 PUSH5 0x6970667358 0x22 SLT KECCAK256 STOP 0xCF ORIGIN BASEFEE 0x2B SWAP16 PUSH15 0x1299D769D3DA826871C8606E60257C 0xE2 PUSH23 0x9F7A9C31593A1DAC64736F6C6343000807003300000000 "
		},
		"gasEstimates": {
			"creation": {
				"codeDepositCost": "60400",
				"executionCost": "111",
				"totalCost": "60511"
			},
			"external": {
				"operations()": "2307"
			}
		},
		"methodIdentifiers": {
			"operations()": "8b33b4b2"
		}
	},
	"abi": [
		{
			"anonymous": false,
			"inputs": [
				{
					"indexed": true,
					"internalType": "address",
					"name": "",
					"type": "address"
				},
				{
					"indexed": false,
					"internalType": "string",
					"name": "",
					"type": "string"
				}
			],
			"name": "Log",
			"type": "event"
		},
		{
			"inputs": [],
			"name": "operations",
			"outputs": [],
			"stateMutability": "nonpayable",
			"type": "function"
		}
	]
}