{
	"modifier 函数修改器/ModifierTest.sol": {
		"ModifierTest": {
			"abi": [
				{
					"inputs": [],
					"name": "add",
					"outputs": [],
					"stateMutability": "nonpayable",
					"type": "function"
				},
				{
					"inputs": [],
					"name": "counter",
					"outputs": [
						{
							"internalType": "uint256",
							"name": "",
							"type": "uint256"
						}
					],
					"stateMutability": "view",
					"type": "function"
				},
				{
					"inputs": [],
					"name": "paused",
					"outputs": [
						{
							"internalType": "bool",
							"name": "",
							"type": "bool"
						}
					],
					"stateMutability": "view",
					"type": "function"
				},
				{
					"inputs": [
						{
							"internalType": "bool",
							"name": "_paused",
							"type": "bool"
						}
					],
					"name": "setPaused",
					"outputs": [],
					"stateMutability": "nonpayable",
					"type": "function"
				}
			],
			"devdoc": {
				"kind": "dev",
				"methods": {},
				"version": 1
			},
			"evm": {
				"assembly": "    /* \"modifier \\xe5\\x87\\xbd\\xe6\\x95\\xb0\\xe4\\xbf\\xae\\xe6\\x94\\xb9\\xe5\\x99\\xa8/ModifierTest.sol\":60:530  contract ModifierTest {\r... */\n  mstore(0x40, 0x80)\n  callvalue\n  dup1\n  iszero\n  tag_1\n  jumpi\n  0x00\n  dup1\n  revert\ntag_1:\n  pop\n  dataSize(sub_0)\n  dup1\n  dataOffset(sub_0)\n  0x00\n  codecopy\n  0x00\n  return\nstop\n\nsub_0: assembly {\n        /* \"modifier \\xe5\\x87\\xbd\\xe6\\x95\\xb0\\xe4\\xbf\\xae\\xe6\\x94\\xb9\\xe5\\x99\\xa8/ModifierTest.sol\":60:530  contract ModifierTest {\r... */\n      mstore(0x40, 0x80)\n      callvalue\n      dup1\n      iszero\n      tag_1\n      jumpi\n      0x00\n      dup1\n      revert\n    tag_1:\n      pop\n      jumpi(tag_2, lt(calldatasize, 0x04))\n      shr(0xe0, calldataload(0x00))\n      dup1\n      0x16c38b3c\n      eq\n      tag_3\n      jumpi\n      dup1\n      0x4f2be91f\n      eq\n      tag_4\n      jumpi\n      dup1\n      0x5c975abb\n      eq\n      tag_5\n      jumpi\n      dup1\n      0x61bc221a\n      eq\n      tag_6\n      jumpi\n    tag_2:\n      0x00\n      dup1\n      revert\n        /* \"modifier \\xe5\\x87\\xbd\\xe6\\x95\\xb0\\xe4\\xbf\\xae\\xe6\\x94\\xb9\\xe5\\x99\\xa8/ModifierTest.sol\":142:219  function setPaused(bool _paused) external {\r... */\n    tag_3:\n      tag_7\n      0x04\n      dup1\n      calldatasize\n      sub\n      dup2\n      add\n      swap1\n      tag_8\n      swap2\n      swap1\n      tag_9\n      jump\t// in\n    tag_8:\n      tag_10\n      jump\t// in\n    tag_7:\n      stop\n        /* \"modifier \\xe5\\x87\\xbd\\xe6\\x95\\xb0\\xe4\\xbf\\xae\\xe6\\x94\\xb9\\xe5\\x99\\xa8/ModifierTest.sol\":463:527  function add() external isNotPaused {\r... */\n    tag_4:\n      tag_11\n      tag_12\n      jump\t// in\n    tag_11:\n      stop\n        /* \"modifier \\xe5\\x87\\xbd\\xe6\\x95\\xb0\\xe4\\xbf\\xae\\xe6\\x94\\xb9\\xe5\\x99\\xa8/ModifierTest.sol\":89:107  bool public paused */\n    tag_5:\n      tag_13\n      tag_14\n      jump\t// in\n    tag_13:\n      mload(0x40)\n      tag_15\n      swap2\n      swap1\n      tag_16\n      jump\t// in\n    tag_15:\n      mload(0x40)\n      dup1\n      swap2\n      sub\n      swap1\n      return\n        /* \"modifier \\xe5\\x87\\xbd\\xe6\\x95\\xb0\\xe4\\xbf\\xae\\xe6\\x94\\xb9\\xe5\\x99\\xa8/ModifierTest.sol\":114:133  uint public counter */\n    tag_6:\n      tag_17\n      tag_18\n      jump\t// in\n    tag_17:\n      mload(0x40)\n      tag_19\n      swap2\n      swap1\n      tag_20\n      jump\t// in\n    tag_19:\n      mload(0x40)\n      dup1\n      swap2\n      sub\n      swap1\n      return\n        /* \"modifier \\xe5\\x87\\xbd\\xe6\\x95\\xb0\\xe4\\xbf\\xae\\xe6\\x94\\xb9\\xe5\\x99\\xa8/ModifierTest.sol\":142:219  function setPaused(bool _paused) external {\r... */\n    tag_10:\n        /* \"modifier \\xe5\\x87\\xbd\\xe6\\x95\\xb0\\xe4\\xbf\\xae\\xe6\\x94\\xb9\\xe5\\x99\\xa8/ModifierTest.sol\":204:211  _paused */\n      dup1\n        /* \"modifier \\xe5\\x87\\xbd\\xe6\\x95\\xb0\\xe4\\xbf\\xae\\xe6\\x94\\xb9\\xe5\\x99\\xa8/ModifierTest.sol\":195:201  paused */\n      0x00\n      dup1\n        /* \"modifier \\xe5\\x87\\xbd\\xe6\\x95\\xb0\\xe4\\xbf\\xae\\xe6\\x94\\xb9\\xe5\\x99\\xa8/ModifierTest.sol\":195:211  paused = _paused */\n      0x0100\n      exp\n      dup2\n      sload\n      dup2\n      0xff\n      mul\n      not\n      and\n      swap1\n      dup4\n      iszero\n      iszero\n      mul\n      or\n      swap1\n      sstore\n      pop\n        /* \"modifier \\xe5\\x87\\xbd\\xe6\\x95\\xb0\\xe4\\xbf\\xae\\xe6\\x94\\xb9\\xe5\\x99\\xa8/ModifierTest.sol\":142:219  function setPaused(bool _paused) external {\r... */\n      pop\n      jump\t// out\n        /* \"modifier \\xe5\\x87\\xbd\\xe6\\x95\\xb0\\xe4\\xbf\\xae\\xe6\\x94\\xb9\\xe5\\x99\\xa8/ModifierTest.sol\":463:527  function add() external isNotPaused {\r... */\n    tag_12:\n        /* \"modifier \\xe5\\x87\\xbd\\xe6\\x95\\xb0\\xe4\\xbf\\xae\\xe6\\x94\\xb9\\xe5\\x99\\xa8/ModifierTest.sol\":374:380  paused */\n      0x00\n      dup1\n      sload\n      swap1\n      0x0100\n      exp\n      swap1\n      div\n      0xff\n      and\n        /* \"modifier \\xe5\\x87\\xbd\\xe6\\x95\\xb0\\xe4\\xbf\\xae\\xe6\\x94\\xb9\\xe5\\x99\\xa8/ModifierTest.sol\":373:380  !paused */\n      iszero\n        /* \"modifier \\xe5\\x87\\xbd\\xe6\\x95\\xb0\\xe4\\xbf\\xae\\xe6\\x94\\xb9\\xe5\\x99\\xa8/ModifierTest.sol\":365:381  require(!paused) */\n      tag_23\n      jumpi\n      0x00\n      dup1\n      revert\n    tag_23:\n        /* \"modifier \\xe5\\x87\\xbd\\xe6\\x95\\xb0\\xe4\\xbf\\xae\\xe6\\x94\\xb9\\xe5\\x99\\xa8/ModifierTest.sol\":510:517  counter */\n      0x01\n      0x00\n        /* \"modifier \\xe5\\x87\\xbd\\xe6\\x95\\xb0\\xe4\\xbf\\xae\\xe6\\x94\\xb9\\xe5\\x99\\xa8/ModifierTest.sol\":510:519  counter++ */\n      dup2\n      sload\n      dup1\n      swap3\n      swap2\n      swap1\n      tag_25\n      swap1\n      tag_26\n      jump\t// in\n    tag_25:\n      swap2\n      swap1\n      pop\n      sstore\n      pop\n        /* \"modifier \\xe5\\x87\\xbd\\xe6\\x95\\xb0\\xe4\\xbf\\xae\\xe6\\x94\\xb9\\xe5\\x99\\xa8/ModifierTest.sol\":463:527  function add() external isNotPaused {\r... */\n      jump\t// out\n        /* \"modifier \\xe5\\x87\\xbd\\xe6\\x95\\xb0\\xe4\\xbf\\xae\\xe6\\x94\\xb9\\xe5\\x99\\xa8/ModifierTest.sol\":89:107  bool public paused */\n    tag_14:\n      0x00\n      dup1\n      sload\n      swap1\n      0x0100\n      exp\n      swap1\n      div\n      0xff\n      and\n      dup2\n      jump\t// out\n        /* \"modifier \\xe5\\x87\\xbd\\xe6\\x95\\xb0\\xe4\\xbf\\xae\\xe6\\x94\\xb9\\xe5\\x99\\xa8/ModifierTest.sol\":114:133  uint public counter */\n    tag_18:\n      sload(0x01)\n      dup2\n      jump\t// out\n        /* \"#utility.yul\":7:140   */\n    tag_28:\n        /* \"#utility.yul\":50:55   */\n      0x00\n        /* \"#utility.yul\":88:94   */\n      dup2\n        /* \"#utility.yul\":75:95   */\n      calldataload\n        /* \"#utility.yul\":66:95   */\n      swap1\n      pop\n        /* \"#utility.yul\":104:134   */\n      tag_30\n        /* \"#utility.yul\":128:133   */\n      dup2\n        /* \"#utility.yul\":104:134   */\n      tag_31\n      jump\t// in\n    tag_30:\n        /* \"#utility.yul\":7:140   */\n      swap3\n      swap2\n      pop\n      pop\n      jump\t// out\n        /* \"#utility.yul\":146:469   */\n    tag_9:\n        /* \"#utility.yul\":202:208   */\n      0x00\n        /* \"#utility.yul\":251:253   */\n      0x20\n        /* \"#utility.yul\":239:248   */\n      dup3\n        /* \"#utility.yul\":230:237   */\n      dup5\n        /* \"#utility.yul\":226:249   */\n      sub\n        /* \"#utility.yul\":222:254   */\n      slt\n        /* \"#utility.yul\":219:338   */\n      iszero\n      tag_33\n      jumpi\n        /* \"#utility.yul\":257:336   */\n      tag_34\n      tag_35\n      jump\t// in\n    tag_34:\n        /* \"#utility.yul\":219:338   */\n    tag_33:\n        /* \"#utility.yul\":377:378   */\n      0x00\n        /* \"#utility.yul\":402:452   */\n      tag_36\n        /* \"#utility.yul\":444:451   */\n      dup5\n        /* \"#utility.yul\":435:441   */\n      dup3\n        /* \"#utility.yul\":424:433   */\n      dup6\n        /* \"#utility.yul\":420:442   */\n      add\n        /* \"#utility.yul\":402:452   */\n      tag_28\n      jump\t// in\n    tag_36:\n        /* \"#utility.yul\":392:452   */\n      swap2\n      pop\n        /* \"#utility.yul\":348:462   */\n      pop\n        /* \"#utility.yul\":146:469   */\n      swap3\n      swap2\n      pop\n      pop\n      jump\t// out\n        /* \"#utility.yul\":475:584   */\n    tag_37:\n        /* \"#utility.yul\":556:577   */\n      tag_39\n        /* \"#utility.yul\":571:576   */\n      dup2\n        /* \"#utility.yul\":556:577   */\n      tag_40\n      jump\t// in\n    tag_39:\n        /* \"#utility.yul\":551:554   */\n      dup3\n        /* \"#utility.yul\":544:578   */\n      mstore\n        /* \"#utility.yul\":475:584   */\n      pop\n      pop\n      jump\t// out\n        /* \"#utility.yul\":590:708   */\n    tag_41:\n        /* \"#utility.yul\":677:701   */\n      tag_43\n        /* \"#utility.yul\":695:700   */\n      dup2\n        /* \"#utility.yul\":677:701   */\n      tag_44\n      jump\t// in\n    tag_43:\n        /* \"#utility.yul\":672:675   */\n      dup3\n        /* \"#utility.yul\":665:702   */\n      mstore\n        /* \"#utility.yul\":590:708   */\n      pop\n      pop\n      jump\t// out\n        /* \"#utility.yul\":714:924   */\n    tag_16:\n        /* \"#utility.yul\":801:805   */\n      0x00\n        /* \"#utility.yul\":839:841   */\n      0x20\n        /* \"#utility.yul\":828:837   */\n      dup3\n        /* \"#utility.yul\":824:842   */\n      add\n        /* \"#utility.yul\":816:842   */\n      swap1\n      pop\n        /* \"#utility.yul\":852:917   */\n      tag_46\n        /* \"#utility.yul\":914:915   */\n      0x00\n        /* \"#utility.yul\":903:912   */\n      dup4\n        /* \"#utility.yul\":899:916   */\n      add\n        /* \"#utility.yul\":890:896   */\n      dup5\n        /* \"#utility.yul\":852:917   */\n      tag_37\n      jump\t// in\n    tag_46:\n        /* \"#utility.yul\":714:924   */\n      swap3\n      swap2\n      pop\n      pop\n      jump\t// out\n        /* \"#utility.yul\":930:1152   */\n    tag_20:\n        /* \"#utility.yul\":1023:1027   */\n      0x00\n        /* \"#utility.yul\":1061:1063   */\n      0x20\n        /* \"#utility.yul\":1050:1059   */\n      dup3\n        /* \"#utility.yul\":1046:1064   */\n      add\n        /* \"#utility.yul\":1038:1064   */\n      swap1\n      pop\n        /* \"#utility.yul\":1074:1145   */\n      tag_48\n        /* \"#utility.yul\":1142:1143   */\n      0x00\n        /* \"#utility.yul\":1131:1140   */\n      dup4\n        /* \"#utility.yul\":1127:1144   */\n      add\n        /* \"#utility.yul\":1118:1124   */\n      dup5\n        /* \"#utility.yul\":1074:1145   */\n      tag_41\n      jump\t// in\n    tag_48:\n        /* \"#utility.yul\":930:1152   */\n      swap3\n      swap2\n      pop\n      pop\n      jump\t// out\n        /* \"#utility.yul\":1239:1329   */\n    tag_40:\n        /* \"#utility.yul\":1273:1280   */\n      0x00\n        /* \"#utility.yul\":1316:1321   */\n      dup2\n        /* \"#utility.yul\":1309:1322   */\n      iszero\n        /* \"#utility.yul\":1302:1323   */\n      iszero\n        /* \"#utility.yul\":1291:1323   */\n      swap1\n      pop\n        /* \"#utility.yul\":1239:1329   */\n      swap2\n      swap1\n      pop\n      jump\t// out\n        /* \"#utility.yul\":1335:1412   */\n    tag_44:\n        /* \"#utility.yul\":1372:1379   */\n      0x00\n        /* \"#utility.yul\":1401:1406   */\n      dup2\n        /* \"#utility.yul\":1390:1406   */\n      swap1\n      pop\n        /* \"#utility.yul\":1335:1412   */\n      swap2\n      swap1\n      pop\n      jump\t// out\n        /* \"#utility.yul\":1418:1651   */\n    tag_26:\n        /* \"#utility.yul\":1457:1460   */\n      0x00\n        /* \"#utility.yul\":1480:1504   */\n      tag_54\n        /* \"#utility.yul\":1498:1503   */\n      dup3\n        /* \"#utility.yul\":1480:1504   */\n      tag_44\n      jump\t// in\n    tag_54:\n        /* \"#utility.yul\":1471:1504   */\n      swap2\n      pop\n        /* \"#utility.yul\":1526:1592   */\n      0xffffffffffffffffffffffffffffffffffffffffffffffffffffffffffffffff\n        /* \"#utility.yul\":1519:1524   */\n      dup3\n        /* \"#utility.yul\":1516:1593   */\n      eq\n        /* \"#utility.yul\":1513:1616   */\n      iszero\n      tag_55\n      jumpi\n        /* \"#utility.yul\":1596:1614   */\n      tag_56\n      tag_57\n      jump\t// in\n    tag_56:\n        /* \"#utility.yul\":1513:1616   */\n    tag_55:\n        /* \"#utility.yul\":1643:1644   */\n      0x01\n        /* \"#utility.yul\":1636:1641   */\n      dup3\n        /* \"#utility.yul\":1632:1645   */\n      add\n        /* \"#utility.yul\":1625:1645   */\n      swap1\n      pop\n        /* \"#utility.yul\":1418:1651   */\n      swap2\n      swap1\n      pop\n      jump\t// out\n        /* \"#utility.yul\":1657:1837   */\n    tag_57:\n        /* \"#utility.yul\":1705:1782   */\n      0x4e487b7100000000000000000000000000000000000000000000000000000000\n        /* \"#utility.yul\":1702:1703   */\n      0x00\n        /* \"#utility.yul\":1695:1783   */\n      mstore\n        /* \"#utility.yul\":1802:1806   */\n      0x11\n        /* \"#utility.yul\":1799:1800   */\n      0x04\n        /* \"#utility.yul\":1792:1807   */\n      mstore\n        /* \"#utility.yul\":1826:1830   */\n      0x24\n        /* \"#utility.yul\":1823:1824   */\n      0x00\n        /* \"#utility.yul\":1816:1831   */\n      revert\n        /* \"#utility.yul\":1966:2083   */\n    tag_35:\n        /* \"#utility.yul\":2075:2076   */\n      0x00\n        /* \"#utility.yul\":2072:2073   */\n      dup1\n        /* \"#utility.yul\":2065:2077   */\n      revert\n        /* \"#utility.yul\":2089:2205   */\n    tag_31:\n        /* \"#utility.yul\":2159:2180   */\n      tag_63\n        /* \"#utility.yul\":2174:2179   */\n      dup2\n        /* \"#utility.yul\":2159:2180   */\n      tag_40\n      jump\t// in\n    tag_63:\n        /* \"#utility.yul\":2152:2157   */\n      dup2\n        /* \"#utility.yul\":2149:2181   */\n      eq\n        /* \"#utility.yul\":2139:2199   */\n      tag_64\n      jumpi\n        /* \"#utility.yul\":2195:2196   */\n      0x00\n        /* \"#utility.yul\":2192:2193   */\n      dup1\n        /* \"#utility.yul\":2185:2197   */\n      revert\n        /* \"#utility.yul\":2139:2199   */\n    tag_64:\n        /* \"#utility.yul\":2089:2205   */\n      pop\n      jump\t// out\n\n    auxdata: 0xa2646970667358221220044933f04b31c19d0ff8b12618b2fcb5db86470c63a837d8c613ba4c5abb54ef64736f6c63430008070033\n}\n",
				"bytecode": {
					"linkReferences": {},
					"object": "608060405234801561001057600080fd5b5061028e806100206000396000f3fe608060405234801561001057600080fd5b506004361061004c5760003560e01c806316c38b3c146100515780634f2be91f1461006d5780635c975abb1461007757806361bc221a14610095575b600080fd5b61006b6004803603810190610066919061012d565b6100b3565b005b6100756100cf565b005b61007f610101565b60405161008c9190610178565b60405180910390f35b61009d610112565b6040516100aa9190610193565b60405180910390f35b806000806101000a81548160ff02191690831515021790555050565b60008054906101000a900460ff16156100e757600080fd5b600160008154809291906100fa906101c4565b9190505550565b60008054906101000a900460ff1681565b60015481565b60008135905061012781610241565b92915050565b6000602082840312156101435761014261023c565b5b600061015184828501610118565b91505092915050565b610163816101ae565b82525050565b610172816101ba565b82525050565b600060208201905061018d600083018461015a565b92915050565b60006020820190506101a86000830184610169565b92915050565b60008115159050919050565b6000819050919050565b60006101cf826101ba565b91507fffffffffffffffffffffffffffffffffffffffffffffffffffffffffffffffff8214156102025761020161020d565b5b600182019050919050565b7f4e487b7100000000000000000000000000000000000000000000000000000000600052601160045260246000fd5b600080fd5b61024a816101ae565b811461025557600080fd5b5056fea2646970667358221220044933f04b31c19d0ff8b12618b2fcb5db86470c63a837d8c613ba4c5abb54ef64736f6c63430008070033",
					"opcodes": "PUSH1 0x80 PUSH1 0x40 MSTORE CALLVALUE DUP1 ISZERO PUSH2 0x10 JUMPI PUSH1 0x0 DUP1 REVERT JUMPDEST POP PUSH2 0x28E DUP1 PUSH2 0x20 PUSH1 0x0 CODECOPY PUSH1 0x0 RETURN INVALID PUSH1 0x80 PUSH1 0x40 MSTORE CALLVALUE DUP1 ISZERO PUSH2 0x10 JUMPI PUSH1 0x0 DUP1 REVERT JUMPDEST POP PUSH1 0x4 CALLDATASIZE LT PUSH2 0x4C JUMPI PUSH1 0x0 CALLDATALOAD PUSH1 0xE0 SHR DUP1 PUSH4 0x16C38B3C EQ PUSH2 0x51 JUMPI DUP1 PUSH4 0x4F2BE91F EQ PUSH2 0x6D JUMPI DUP1 PUSH4 0x5C975ABB EQ PUSH2 0x77 JUMPI DUP1 PUSH4 0x61BC221A EQ PUSH2 0x95 JUMPI JUMPDEST PUSH1 0x0 DUP1 REVERT JUMPDEST PUSH2 0x6B PUSH1 0x4 DUP1 CALLDATASIZE SUB DUP2 ADD SWAP1 PUSH2 0x66 SWAP2 SWAP1 PUSH2 0x12D JUMP JUMPDEST PUSH2 0xB3 JUMP JUMPDEST STOP JUMPDEST PUSH2 0x75 PUSH2 0xCF JUMP JUMPDEST STOP JUMPDEST PUSH2 0x7F PUSH2 0x101 JUMP JUMPDEST PUSH1 0x40 MLOAD PUSH2 0x8C SWAP2 SWAP1 PUSH2 0x178 JUMP JUMPDEST PUSH1 0x40 MLOAD DUP1 SWAP2 SUB SWAP1 RETURN JUMPDEST PUSH2 0x9D PUSH2 0x112 JUMP JUMPDEST PUSH1 0x40 MLOAD PUSH2 0xAA SWAP2 SWAP1 PUSH2 0x193 JUMP JUMPDEST PUSH1 0x40 MLOAD DUP1 SWAP2 SUB SWAP1 RETURN JUMPDEST DUP1 PUSH1 0x0 DUP1 PUSH2 0x100 EXP DUP2 SLOAD DUP2 PUSH1 0xFF MUL NOT AND SWAP1 DUP4 ISZERO ISZERO MUL OR SWAP1 SSTORE POP POP JUMP JUMPDEST PUSH1 0x0 DUP1 SLOAD SWAP1 PUSH2 0x100 EXP SWAP1 DIV PUSH1 0xFF AND ISZERO PUSH2 0xE7 JUMPI PUSH1 0x0 DUP1 REVERT JUMPDEST PUSH1 0x1 PUSH1 0x0 DUP2 SLOAD DUP1 SWAP3 SWAP2 SWAP1 PUSH2 0xFA SWAP1 PUSH2 0x1C4 JUMP JUMPDEST SWAP2 SWAP1 POP SSTORE POP JUMP JUMPDEST PUSH1 0x0 DUP1 SLOAD SWAP1 PUSH2 0x100 EXP SWAP1 DIV PUSH1 0xFF AND DUP2 JUMP JUMPDEST PUSH1 0x1 SLOAD DUP2 JUMP JUMPDEST PUSH1 0x0 DUP2 CALLDATALOAD SWAP1 POP PUSH2 0x127 DUP2 PUSH2 0x241 JUMP JUMPDEST SWAP3 SWAP2 POP POP JUMP JUMPDEST PUSH1 0x0 PUSH1 0x20 DUP3 DUP5 SUB SLT ISZERO PUSH2 0x143 JUMPI PUSH2 0x142 PUSH2 0x23C JUMP JUMPDEST JUMPDEST PUSH1 0x0 PUSH2 0x151 DUP5 DUP3 DUP6 ADD PUSH2 0x118 JUMP JUMPDEST SWAP2 POP POP SWAP3 SWAP2 POP POP JUMP JUMPDEST PUSH2 0x163 DUP2 PUSH2 0x1AE JUMP JUMPDEST DUP3 MSTORE POP POP JUMP JUMPDEST PUSH2 0x172 DUP2 PUSH2 0x1BA JUMP JUMPDEST DUP3 MSTORE POP POP JUMP JUMPDEST PUSH1 0x0 PUSH1 0x20 DUP3 ADD SWAP1 POP PUSH2 0x18D PUSH1 0x0 DUP4 ADD DUP5 PUSH2 0x15A JUMP JUMPDEST SWAP3 SWAP2 POP POP JUMP JUMPDEST PUSH1 0x0 PUSH1 0x20 DUP3 ADD SWAP1 POP PUSH2 0x1A8 PUSH1 0x0 DUP4 ADD DUP5 PUSH2 0x169 JUMP JUMPDEST SWAP3 SWAP2 POP POP JUMP JUMPDEST PUSH1 0x0 DUP2 ISZERO ISZERO SWAP1 POP SWAP2 SWAP1 POP JUMP JUMPDEST PUSH1 0x0 DUP2 SWAP1 POP SWAP2 SWAP1 POP JUMP JUMPDEST PUSH1 0x0 PUSH2 0x1CF DUP3 PUSH2 0x1BA JUMP JUMPDEST SWAP2 POP PUSH32 0xFFFFFFFFFFFFFFFFFFFFFFFFFFFFFFFFFFFFFFFFFFFFFFFFFFFFFFFFFFFFFFFF DUP3 EQ ISZERO PUSH2 0x202 JUMPI PUSH2 0x201 PUSH2 0x20D JUMP JUMPDEST JUMPDEST PUSH1 0x1 DUP3 ADD SWAP1 POP SWAP2 SWAP1 POP JUMP JUMPDEST PUSH32 0x4E487B7100000000000000000000000000000000000000000000000000000000 PUSH1 0x0 MSTORE PUSH1 0x11 PUSH1 0x4 MSTORE PUSH1 0x24 PUSH1 0x0 REVERT JUMPDEST PUSH1 0x0 DUP1 REVERT JUMPDEST PUSH2 0x24A DUP2 PUSH2 0x1AE JUMP JUMPDEST DUP2 EQ PUSH2 0x255 JUMPI PUSH1 0x0 DUP1 REVERT JUMPDEST POP JUMP INVALID LOG2 PUSH5 0x6970667358 0x22 SLT KECCAK256 DIV 0x49 CALLER CREATE 0x4B BALANCE 0xC1 SWAP14 0xF 0xF8 0xB1 0x26 XOR 0xB2 0xFC 0xB5 0xDB DUP7 SELFBALANCE 0xC PUSH4 0xA837D8C6 SGT 0xBA 0x4C GAS 0xBB SLOAD 0xEF PUSH5 0x736F6C6343 STOP ADDMOD SMOD STOP CALLER "
				},
				"gasEstimates": {
					"creation": {
						"codeDepositCost": "130800",
						"executionCost": "177",
						"totalCost": "130977"
					},
					"external": {
						"add()": "26657",
						"counter()": "2473",
						"paused()": "2490",
						"setPaused(bool)": "24657"
					}
				},
				"methodIdentifiers": {
					"add()": "4f2be91f",
					"counter()": "61bc221a",
					"paused()": "5c975abb",
					"setPaused(bool)": "16c38b3c"
				}
			},
			"storageLayout": {
				"storage": [
					{
						"astId": 3,
						"contract": "modifier 函数修改器/ModifierTest.sol:ModifierTest",
						"label": "paused",
						"offset": 0,
						"slot": "0",
						"type": "t_bool"
					},
					{
						"astId": 5,
						"contract": "modifier 函数修改器/ModifierTest.sol:ModifierTest",
						"label": "counter",
						"offset": 0,
						"slot": "1",
						"type": "t_uint256"
					}
				],
				"types": {
					"t_bool": {
						"encoding": "inplace",
						"label": "bool",
						"numberOfBytes": "1"
					},
					"t_uint256": {
						"encoding": "inplace",
						"label": "uint256",
						"numberOfBytes": "32"
					}
				}
			},
			"userdoc": {
				"kind": "user",
				"methods": {},
				"version": 1
			}
		}
	}
}