{
	"data": {
		"bytecode": {
			"linkReferences": {},
			"object": "608060405234801561001057600080fd5b506102dd806100206000396000f3fe608060405234801561001057600080fd5b50600436106100625760003560e01c806301a9b8ed146100675780631685fa98146100975780635d48bcb4146100c7578063643a5366146100f75780637602448b14610127578063a589d21214610157575b600080fd5b610081600480360381019061007c9190610210565b610187565b60405161008e919061025f565b60405180910390f35b6100b160048036038101906100ac9190610210565b610194565b6040516100be919061025f565b60405180910390f35b6100e160048036038101906100dc9190610210565b6101a2565b6040516100ee919061025f565b60405180910390f35b610111600480360381019061010c9190610210565b6101af565b60405161011e919061025f565b60405180910390f35b610141600480360381019061013c919061027a565b6101bc565b60405161014e919061025f565b60405180910390f35b610171600480360381019061016c9190610210565b6101c7565b60405161017e919061025f565b60405180910390f35b6000818317905092915050565b60008183901c905092915050565b6000818318905092915050565b6000818316905092915050565b600081199050919050565b60008183901b905092915050565b600080fd5b6000819050919050565b6101ed816101da565b81146101f857600080fd5b50565b60008135905061020a816101e4565b92915050565b60008060408385031215610227576102266101d5565b5b6000610235858286016101fb565b9250506020610246858286016101fb565b9150509250929050565b610259816101da565b82525050565b60006020820190506102746000830184610250565b92915050565b6000602082840312156102905761028f6101d5565b5b600061029e848285016101fb565b9150509291505056fea264697066735822122034795084674b49ea9b71ab549da09503a273b5dcfd7ae9fa6ef6b2c6e9c5768164736f6c63430008120033",
			"opcodes": "PUSH1 0x80 PUSH1 0x40 MSTORE CALLVALUE DUP1 ISZERO PUSH2 0x10 JUMPI PUSH1 0x0 DUP1 REVERT JUMPDEST POP PUSH2 0x2DD DUP1 PUSH2 0x20 PUSH1 0x0 CODECOPY PUSH1 0x0 RETURN INVALID PUSH1 0x80 PUSH1 0x40 MSTORE CALLVALUE DUP1 ISZERO PUSH2 0x10 JUMPI PUSH1 0x0 DUP1 REVERT JUMPDEST POP PUSH1 0x4 CALLDATASIZE LT PUSH2 0x62 JUMPI PUSH1 0x0 CALLDATALOAD PUSH1 0xE0 SHR DUP1 PUSH4 0x1A9B8ED EQ PUSH2 0x67 JUMPI DUP1 PUSH4 0x1685FA98 EQ PUSH2 0x97 JUMPI DUP1 PUSH4 0x5D48BCB4 EQ PUSH2 0xC7 JUMPI DUP1 PUSH4 0x643A5366 EQ PUSH2 0xF7 JUMPI DUP1 PUSH4 0x7602448B EQ PUSH2 0x127 JUMPI DUP1 PUSH4 0xA589D212 EQ PUSH2 0x157 JUMPI JUMPDEST PUSH1 0x0 DUP1 REVERT JUMPDEST PUSH2 0x81 PUSH1 0x4 DUP1 CALLDATASIZE SUB DUP2 ADD SWAP1 PUSH2 0x7C SWAP2 SWAP1 PUSH2 0x210 JUMP JUMPDEST PUSH2 0x187 JUMP JUMPDEST PUSH1 0x40 MLOAD PUSH2 0x8E SWAP2 SWAP1 PUSH2 0x25F JUMP JUMPDEST PUSH1 0x40 MLOAD DUP1 SWAP2 SUB SWAP1 RETURN JUMPDEST PUSH2 0xB1 PUSH1 0x4 DUP1 CALLDATASIZE SUB DUP2 ADD SWAP1 PUSH2 0xAC SWAP2 SWAP1 PUSH2 0x210 JUMP JUMPDEST PUSH2 0x194 JUMP JUMPDEST PUSH1 0x40 MLOAD PUSH2 0xBE SWAP2 SWAP1 PUSH2 0x25F JUMP JUMPDEST PUSH1 0x40 MLOAD DUP1 SWAP2 SUB SWAP1 RETURN JUMPDEST PUSH2 0xE1 PUSH1 0x4 DUP1 CALLDATASIZE SUB DUP2 ADD SWAP1 PUSH2 0xDC SWAP2 SWAP1 PUSH2 0x210 JUMP JUMPDEST PUSH2 0x1A2 JUMP JUMPDEST PUSH1 0x40 MLOAD PUSH2 0xEE SWAP2 SWAP1 PUSH2 0x25F JUMP JUMPDEST PUSH1 0x40 MLOAD DUP1 SWAP2 SUB SWAP1 RETURN JUMPDEST PUSH2 0x111 PUSH1 0x4 DUP1 CALLDATASIZE SUB DUP2 ADD SWAP1 PUSH2 0x10C SWAP2 SWAP1 PUSH2 0x210 JUMP JUMPDEST PUSH2 0x1AF JUMP JUMPDEST PUSH1 0x40 MLOAD PUSH2 0x11E SWAP2 SWAP1 PUSH2 0x25F JUMP JUMPDEST PUSH1 0x40 MLOAD DUP1 SWAP2 SUB SWAP1 RETURN JUMPDEST PUSH2 0x141 PUSH1 0x4 DUP1 CALLDATASIZE SUB DUP2 ADD SWAP1 PUSH2 0x13C SWAP2 SWAP1 PUSH2 0x27A JUMP JUMPDEST PUSH2 0x1BC JUMP JUMPDEST PUSH1 0x40 MLOAD PUSH2 0x14E SWAP2 SWAP1 PUSH2 0x25F JUMP JUMPDEST PUSH1 0x40 MLOAD DUP1 SWAP2 SUB SWAP1 RETURN JUMPDEST PUSH2 0x171 PUSH1 0x4 DUP1 CALLDATASIZE SUB DUP2 ADD SWAP1 PUSH2 0x16C SWAP2 SWAP1 PUSH2 0x210 JUMP JUMPDEST PUSH2 0x1C7 JUMP JUMPDEST PUSH1 0x40 MLOAD PUSH2 0x17E SWAP2 SWAP1 PUSH2 0x25F JUMP JUMPDEST PUSH1 0x40 MLOAD DUP1 SWAP2 SUB SWAP1 RETURN JUMPDEST PUSH1 0x0 DUP2 DUP4 OR SWAP1 POP SWAP3 SWAP2 POP POP JUMP JUMPDEST PUSH1 0x0 DUP2 DUP4 SWAP1 SHR SWAP1 POP SWAP3 SWAP2 POP POP JUMP JUMPDEST PUSH1 0x0 DUP2 DUP4 XOR SWAP1 POP SWAP3 SWAP2 POP POP JUMP JUMPDEST PUSH1 0x0 DUP2 DUP4 AND SWAP1 POP SWAP3 SWAP2 POP POP JUMP JUMPDEST PUSH1 0x0 DUP2 NOT SWAP1 POP SWAP2 SWAP1 POP JUMP JUMPDEST PUSH1 0x0 DUP2 DUP4 SWAP1 SHL SWAP1 POP SWAP3 SWAP2 POP POP JUMP JUMPDEST PUSH1 0x0 DUP1 REVERT JUMPDEST PUSH1 0x0 DUP2 SWAP1 POP SWAP2 SWAP1 POP JUMP JUMPDEST PUSH2 0x1ED DUP2 PUSH2 0x1DA JUMP JUMPDEST DUP2 EQ PUSH2 0x1F8 JUMPI PUSH1 0x0 DUP1 REVERT JUMPDEST POP JUMP JUMPDEST PUSH1 0x0 DUP2 CALLDATALOAD SWAP1 POP PUSH2 0x20A DUP2 PUSH2 0x1E4 JUMP JUMPDEST SWAP3 SWAP2 POP POP JUMP JUMPDEST PUSH1 0x0 DUP1 PUSH1 0x40 DUP4 DUP6 SUB SLT ISZERO PUSH2 0x227 JUMPI PUSH2 0x226 PUSH2 0x1D5 JUMP JUMPDEST JUMPDEST PUSH1 0x0 PUSH2 0x235 DUP6 DUP3 DUP7 ADD PUSH2 0x1FB JUMP JUMPDEST SWAP3 POP POP PUSH1 0x20 PUSH2 0x246 DUP6 DUP3 DUP7 ADD PUSH2 0x1FB JUMP JUMPDEST SWAP2 POP POP SWAP3 POP SWAP3 SWAP1 POP JUMP JUMPDEST PUSH2 0x259 DUP2 PUSH2 0x1DA JUMP JUMPDEST DUP3 MSTORE POP POP JUMP JUMPDEST PUSH1 0x0 PUSH1 0x20 DUP3 ADD SWAP1 POP PUSH2 0x274 PUSH1 0x0 DUP4 ADD DUP5 PUSH2 0x250 JUMP JUMPDEST SWAP3 SWAP2 POP POP JUMP JUMPDEST PUSH1 0x0 PUSH1 0x20 DUP3 DUP5 SUB SLT ISZERO PUSH2 0x290 JUMPI PUSH2 0x28F PUSH2 0x1D5 JUMP JUMPDEST JUMPDEST PUSH1 0x0 PUSH2 0x29E DUP5 DUP3 DUP6 ADD PUSH2 0x1FB JUMP JUMPDEST SWAP2 POP POP SWAP3 SWAP2 POP POP JUMP INVALID LOG2 PUSH5 0x6970667358 0x22 SLT KECCAK256 CALLVALUE PUSH26 0x5084674B49EA9B71AB549DA09503A273B5DCFD7AE9FA6EF6B2C6 0xE9 0xC5 PUSH23 0x8164736F6C634300081200330000000000000000000000 "
		},
		"gasEstimates": {
			"creation": {
				"codeDepositCost": "146600",
				"executionCost": "190",
				"totalCost": "146790"
			},
			"external": {
				"bitwiseAnd(uint256,uint256)": "infinite",
				"bitwiseNot(uint256)": "infinite",
				"bitwiseOr(uint256,uint256)": "infinite",
				"bitwiseXor(uint256,uint256)": "infinite",
				"shiftLeft(uint256,uint256)": "infinite",
				"shiftRight(uint256,uint256)": "infinite"
			}
		},
		"methodIdentifiers": {
			"bitwiseAnd(uint256,uint256)": "643a5366",
			"bitwiseNot(uint256)": "7602448b",
			"bitwiseOr(uint256,uint256)": "01a9b8ed",
			"bitwiseXor(uint256,uint256)": "5d48bcb4",
			"shiftLeft(uint256,uint256)": "a589d212",
			"shiftRight(uint256,uint256)": "1685fa98"
		}
	},
	"abi": [
		{
			"inputs": [
				{
					"internalType": "uint256",
					"name": "x",
					"type": "uint256"
				},
				{
					"internalType": "uint256",
					"name": "y",
					"type": "uint256"
				}
			],
			"name": "bitwiseAnd",
			"outputs": [
				{
					"internalType": "uint256",
					"name": "",
					"type": "uint256"
				}
			],
			"stateMutability": "pure",
			"type": "function"
		},
		{
			"inputs": [
				{
					"internalType": "uint256",
					"name": "x",
					"type": "uint256"
				}
			],
			"name": "bitwiseNot",
			"outputs": [
				{
					"internalType": "uint256",
					"name": "",
					"type": "uint256"
				}
			],
			"stateMutability": "pure",
			"type": "function"
		},
		{
			"inputs": [
				{
					"internalType": "uint256",
					"name": "x",
					"type": "uint256"
				},
				{
					"internalType": "uint256",
					"name": "y",
					"type": "uint256"
				}
			],
			"name": "bitwiseOr",
			"outputs": [
				{
					"internalType": "uint256",
					"name": "",
					"type": "uint256"
				}
			],
			"stateMutability": "pure",
			"type": "function"
		},
		{
			"inputs": [
				{
					"internalType": "uint256",
					"name": "x",
					"type": "uint256"
				},
				{
					"internalType": "uint256",
					"name": "y",
					"type": "uint256"
				}
			],
			"name": "bitwiseXor",
			"outputs": [
				{
					"internalType": "uint256",
					"name": "",
					"type": "uint256"
				}
			],
			"stateMutability": "pure",
			"type": "function"
		},
		{
			"inputs": [
				{
					"internalType": "uint256",
					"name": "x",
					"type": "uint256"
				},
				{
					"internalType": "uint256",
					"name": "y",
					"type": "uint256"
				}
			],
			"name": "shiftLeft",
			"outputs": [
				{
					"internalType": "uint256",
					"name": "",
					"type": "uint256"
				}
			],
			"stateMutability": "pure",
			"type": "function"
		},
		{
			"inputs": [
				{
					"internalType": "uint256",
					"name": "x",
					"type": "uint256"
				},
				{
					"internalType": "uint256",
					"name": "y",
					"type": "uint256"
				}
			],
			"name": "shiftRight",
			"outputs": [
				{
					"internalType": "uint256",
					"name": "",
					"type": "uint256"
				}
			],
			"stateMutability": "pure",
			"type": "function"
		}
	]
}