{
	"data": {
		"bytecode": {
			"linkReferences": {},
			"object": "608060405234801561001057600080fd5b50600a6000819055506104fa806100286000396000f3fe608060405234801561001057600080fd5b506004361061002b5760003560e01c8063de29278914610030575b600080fd5b61003861004e565b604051610045919061021d565b60405180910390f35b60606000600290506000600290506000818316905061006c81610074565b935050505090565b606060008214156100bc576040518060400160405280600181526020017f300000000000000000000000000000000000000000000000000000000000000081525090506101df565b600082905060005b600082146100ee5780806100d79061037d565b915050600a826100e791906102b1565b91506100c4565b60008167ffffffffffffffff81111561010a57610109610484565b5b6040519080825280601f01601f19166020018201604052801561013c5781602001600182028036833780820191505090505b509050600060018361014e91906102e2565b90505b600086146101d757600a8661016691906103c6565b6030610172919061025b565b60f81b82828061018190610353565b93508151811061019457610193610455565b5b60200101907effffffffffffffffffffffffffffffffffffffffffffffffffffffffffffff1916908160001a905350600a866101d091906102b1565b9550610151565b819450505050505b919050565b60006101ef8261023f565b6101f9818561024a565b9350610209818560208601610320565b610212816104b3565b840191505092915050565b6000602082019050818103600083015261023781846101e4565b905092915050565b600081519050919050565b600082825260208201905092915050565b600061026682610316565b915061027183610316565b9250827fffffffffffffffffffffffffffffffffffffffffffffffffffffffffffffffff038211156102a6576102a56103f7565b5b828201905092915050565b60006102bc82610316565b91506102c783610316565b9250826102d7576102d6610426565b5b828204905092915050565b60006102ed82610316565b91506102f883610316565b92508282101561030b5761030a6103f7565b5b828203905092915050565b6000819050919050565b60005b8381101561033e578082015181840152602081019050610323565b8381111561034d576000848401525b50505050565b600061035e82610316565b91506000821415610372576103716103f7565b5b600182039050919050565b600061038882610316565b91507fffffffffffffffffffffffffffffffffffffffffffffffffffffffffffffffff8214156103bb576103ba6103f7565b5b600182019050919050565b60006103d182610316565b91506103dc83610316565b9250826103ec576103eb610426565b5b828206905092915050565b7f4e487b7100000000000000000000000000000000000000000000000000000000600052601160045260246000fd5b7f4e487b7100000000000000000000000000000000000000000000000000000000600052601260045260246000fd5b7f4e487b7100000000000000000000000000000000000000000000000000000000600052603260045260246000fd5b7f4e487b7100000000000000000000000000000000000000000000000000000000600052604160045260246000fd5b6000601f19601f830116905091905056fea2646970667358221220d1217e780e3cdd835f6e8f4a766cf4b98a6ebc5612fd664c8e0967ccea43c0e864736f6c63430008070033",
			"opcodes": "PUSH1 0x80 PUSH1 0x40 MSTORE CALLVALUE DUP1 ISZERO PUSH2 0x10 JUMPI PUSH1 0x0 DUP1 REVERT JUMPDEST POP PUSH1 0xA PUSH1 0x0 DUP2 SWAP1 SSTORE POP PUSH2 0x4FA DUP1 PUSH2 0x28 PUSH1 0x0 CODECOPY PUSH1 0x0 RETURN INVALID PUSH1 0x80 PUSH1 0x40 MSTORE CALLVALUE DUP1 ISZERO PUSH2 0x10 JUMPI PUSH1 0x0 DUP1 REVERT JUMPDEST POP PUSH1 0x4 CALLDATASIZE LT PUSH2 0x2B JUMPI PUSH1 0x0 CALLDATALOAD PUSH1 0xE0 SHR DUP1 PUSH4 0xDE292789 EQ PUSH2 0x30 JUMPI JUMPDEST PUSH1 0x0 DUP1 REVERT JUMPDEST PUSH2 0x38 PUSH2 0x4E JUMP JUMPDEST PUSH1 0x40 MLOAD PUSH2 0x45 SWAP2 SWAP1 PUSH2 0x21D JUMP JUMPDEST PUSH1 0x40 MLOAD DUP1 SWAP2 SUB SWAP1 RETURN JUMPDEST PUSH1 0x60 PUSH1 0x0 PUSH1 0x2 SWAP1 POP PUSH1 0x0 PUSH1 0x2 SWAP1 POP PUSH1 0x0 DUP2 DUP4 AND SWAP1 POP PUSH2 0x6C DUP2 PUSH2 0x74 JUMP JUMPDEST SWAP4 POP POP POP POP SWAP1 JUMP JUMPDEST PUSH1 0x60 PUSH1 0x0 DUP3 EQ ISZERO PUSH2 0xBC JUMPI PUSH1 0x40 MLOAD DUP1 PUSH1 0x40 ADD PUSH1 0x40 MSTORE DUP1 PUSH1 0x1 DUP2 MSTORE PUSH1 0x20 ADD PUSH32 0x3000000000000000000000000000000000000000000000000000000000000000 DUP2 MSTORE POP SWAP1 POP PUSH2 0x1DF JUMP JUMPDEST PUSH1 0x0 DUP3 SWAP1 POP PUSH1 0x0 JUMPDEST PUSH1 0x0 DUP3 EQ PUSH2 0xEE JUMPI DUP1 DUP1 PUSH2 0xD7 SWAP1 PUSH2 0x37D JUMP JUMPDEST SWAP2 POP POP PUSH1 0xA DUP3 PUSH2 0xE7 SWAP2 SWAP1 PUSH2 0x2B1 JUMP JUMPDEST SWAP2 POP PUSH2 0xC4 JUMP JUMPDEST PUSH1 0x0 DUP2 PUSH8 0xFFFFFFFFFFFFFFFF DUP2 GT ISZERO PUSH2 0x10A JUMPI PUSH2 0x109 PUSH2 0x484 JUMP JUMPDEST JUMPDEST PUSH1 0x40 MLOAD SWAP1 DUP1 DUP3 MSTORE DUP1 PUSH1 0x1F ADD PUSH1 0x1F NOT AND PUSH1 0x20 ADD DUP3 ADD PUSH1 0x40 MSTORE DUP1 ISZERO PUSH2 0x13C JUMPI DUP2 PUSH1 0x20 ADD PUSH1 0x1 DUP3 MUL DUP1 CALLDATASIZE DUP4 CALLDATACOPY DUP1 DUP3 ADD SWAP2 POP POP SWAP1 POP JUMPDEST POP SWAP1 POP PUSH1 0x0 PUSH1 0x1 DUP4 PUSH2 0x14E SWAP2 SWAP1 PUSH2 0x2E2 JUMP JUMPDEST SWAP1 POP JUMPDEST PUSH1 0x0 DUP7 EQ PUSH2 0x1D7 JUMPI PUSH1 0xA DUP7 PUSH2 0x166 SWAP2 SWAP1 PUSH2 0x3C6 JUMP JUMPDEST PUSH1 0x30 PUSH2 0x172 SWAP2 SWAP1 PUSH2 0x25B JUMP JUMPDEST PUSH1 0xF8 SHL DUP3 DUP3 DUP1 PUSH2 0x181 SWAP1 PUSH2 0x353 JUMP JUMPDEST SWAP4 POP DUP2 MLOAD DUP2 LT PUSH2 0x194 JUMPI PUSH2 0x193 PUSH2 0x455 JUMP JUMPDEST JUMPDEST PUSH1 0x20 ADD ADD SWAP1 PUSH31 0xFFFFFFFFFFFFFFFFFFFFFFFFFFFFFFFFFFFFFFFFFFFFFFFFFFFFFFFFFFFFFF NOT AND SWAP1 DUP2 PUSH1 0x0 BYTE SWAP1 MSTORE8 POP PUSH1 0xA DUP7 PUSH2 0x1D0 SWAP2 SWAP1 PUSH2 0x2B1 JUMP JUMPDEST SWAP6 POP PUSH2 0x151 JUMP JUMPDEST DUP2 SWAP5 POP POP POP POP POP JUMPDEST SWAP2 SWAP1 POP JUMP JUMPDEST PUSH1 0x0 PUSH2 0x1EF DUP3 PUSH2 0x23F JUMP JUMPDEST PUSH2 0x1F9 DUP2 DUP6 PUSH2 0x24A JUMP JUMPDEST SWAP4 POP PUSH2 0x209 DUP2 DUP6 PUSH1 0x20 DUP7 ADD PUSH2 0x320 JUMP JUMPDEST PUSH2 0x212 DUP2 PUSH2 0x4B3 JUMP JUMPDEST DUP5 ADD SWAP2 POP POP SWAP3 SWAP2 POP POP JUMP JUMPDEST PUSH1 0x0 PUSH1 0x20 DUP3 ADD SWAP1 POP DUP2 DUP2 SUB PUSH1 0x0 DUP4 ADD MSTORE PUSH2 0x237 DUP2 DUP5 PUSH2 0x1E4 JUMP JUMPDEST SWAP1 POP SWAP3 SWAP2 POP POP JUMP JUMPDEST PUSH1 0x0 DUP2 MLOAD SWAP1 POP SWAP2 SWAP1 POP JUMP JUMPDEST PUSH1 0x0 DUP3 DUP3 MSTORE PUSH1 0x20 DUP3 ADD SWAP1 POP SWAP3 SWAP2 POP POP JUMP JUMPDEST PUSH1 0x0 PUSH2 0x266 DUP3 PUSH2 0x316 JUMP JUMPDEST SWAP2 POP PUSH2 0x271 DUP4 PUSH2 0x316 JUMP JUMPDEST SWAP3 POP DUP3 PUSH32 0xFFFFFFFFFFFFFFFFFFFFFFFFFFFFFFFFFFFFFFFFFFFFFFFFFFFFFFFFFFFFFFFF SUB DUP3 GT ISZERO PUSH2 0x2A6 JUMPI PUSH2 0x2A5 PUSH2 0x3F7 JUMP JUMPDEST JUMPDEST DUP3 DUP3 ADD SWAP1 POP SWAP3 SWAP2 POP POP JUMP JUMPDEST PUSH1 0x0 PUSH2 0x2BC DUP3 PUSH2 0x316 JUMP JUMPDEST SWAP2 POP PUSH2 0x2C7 DUP4 PUSH2 0x316 JUMP JUMPDEST SWAP3 POP DUP3 PUSH2 0x2D7 JUMPI PUSH2 0x2D6 PUSH2 0x426 JUMP JUMPDEST JUMPDEST DUP3 DUP3 DIV SWAP1 POP SWAP3 SWAP2 POP POP JUMP JUMPDEST PUSH1 0x0 PUSH2 0x2ED DUP3 PUSH2 0x316 JUMP JUMPDEST SWAP2 POP PUSH2 0x2F8 DUP4 PUSH2 0x316 JUMP JUMPDEST SWAP3 POP DUP3 DUP3 LT ISZERO PUSH2 0x30B JUMPI PUSH2 0x30A PUSH2 0x3F7 JUMP JUMPDEST JUMPDEST DUP3 DUP3 SUB SWAP1 POP SWAP3 SWAP2 POP POP JUMP JUMPDEST PUSH1 0x0 DUP2 SWAP1 POP SWAP2 SWAP1 POP JUMP JUMPDEST PUSH1 0x0 JUMPDEST DUP4 DUP2 LT ISZERO PUSH2 0x33E JUMPI DUP1 DUP3 ADD MLOAD DUP2 DUP5 ADD MSTORE PUSH1 0x20 DUP2 ADD SWAP1 POP PUSH2 0x323 JUMP JUMPDEST DUP4 DUP2 GT ISZERO PUSH2 0x34D JUMPI PUSH1 0x0 DUP5 DUP5 ADD MSTORE JUMPDEST POP POP POP POP JUMP JUMPDEST PUSH1 0x0 PUSH2 0x35E DUP3 PUSH2 0x316 JUMP JUMPDEST SWAP2 POP PUSH1 0x0 DUP3 EQ ISZERO PUSH2 0x372 JUMPI PUSH2 0x371 PUSH2 0x3F7 JUMP JUMPDEST JUMPDEST PUSH1 0x1 DUP3 SUB SWAP1 POP SWAP2 SWAP1 POP JUMP JUMPDEST PUSH1 0x0 PUSH2 0x388 DUP3 PUSH2 0x316 JUMP JUMPDEST SWAP2 POP PUSH32 0xFFFFFFFFFFFFFFFFFFFFFFFFFFFFFFFFFFFFFFFFFFFFFFFFFFFFFFFFFFFFFFFF DUP3 EQ ISZERO PUSH2 0x3BB JUMPI PUSH2 0x3BA PUSH2 0x3F7 JUMP JUMPDEST JUMPDEST PUSH1 0x1 DUP3 ADD SWAP1 POP SWAP2 SWAP1 POP JUMP JUMPDEST PUSH1 0x0 PUSH2 0x3D1 DUP3 PUSH2 0x316 JUMP JUMPDEST SWAP2 POP PUSH2 0x3DC DUP4 PUSH2 0x316 JUMP JUMPDEST SWAP3 POP DUP3 PUSH2 0x3EC JUMPI PUSH2 0x3EB PUSH2 0x426 JUMP JUMPDEST JUMPDEST DUP3 DUP3 MOD SWAP1 POP SWAP3 SWAP2 POP POP JUMP JUMPDEST PUSH32 0x4E487B7100000000000000000000000000000000000000000000000000000000 PUSH1 0x0 MSTORE PUSH1 0x11 PUSH1 0x4 MSTORE PUSH1 0x24 PUSH1 0x0 REVERT JUMPDEST PUSH32 0x4E487B7100000000000000000000000000000000000000000000000000000000 PUSH1 0x0 MSTORE PUSH1 0x12 PUSH1 0x4 MSTORE PUSH1 0x24 PUSH1 0x0 REVERT JUMPDEST PUSH32 0x4E487B7100000000000000000000000000000000000000000000000000000000 PUSH1 0x0 MSTORE PUSH1 0x32 PUSH1 0x4 MSTORE PUSH1 0x24 PUSH1 0x0 REVERT JUMPDEST PUSH32 0x4E487B7100000000000000000000000000000000000000000000000000000000 PUSH1 0x0 MSTORE PUSH1 0x41 PUSH1 0x4 MSTORE PUSH1 0x24 PUSH1 0x0 REVERT JUMPDEST PUSH1 0x0 PUSH1 0x1F NOT PUSH1 0x1F DUP4 ADD AND SWAP1 POP SWAP2 SWAP1 POP JUMP INVALID LOG2 PUSH5 0x6970667358 0x22 SLT KECCAK256 0xD1 0x21 PUSH31 0x780E3CDD835F6E8F4A766CF4B98A6EBC5612FD664C8E0967CCEA43C0E86473 PUSH16 0x6C634300080700330000000000000000 "
		},
		"gasEstimates": {
			"creation": {
				"codeDepositCost": "254800",
				"executionCost": "22408",
				"totalCost": "277208"
			},
			"external": {
				"getResult()": "infinite"
			},
			"internal": {
				"integerToString(uint256)": "infinite"
			}
		},
		"methodIdentifiers": {
			"getResult()": "de292789"
		}
	},
	"abi": [
		{
			"inputs": [],
			"stateMutability": "nonpayable",
			"type": "constructor"
		},
		{
			"inputs": [],
			"name": "getResult",
			"outputs": [
				{
					"internalType": "string",
					"name": "",
					"type": "string"
				}
			],
			"stateMutability": "pure",
			"type": "function"
		}
	]
}