{
	"data": {
		"bytecode": {
			"linkReferences": {},
			"object": "6080604052348015600f57600080fd5b5060978061001e6000396000f3fe6080604052348015600f57600080fd5b506004361060325760003560e01c806328b5e32b146037578063981ede9c14603f575b600080fd5b603d6047565b005b6045605d565b005b604d605d565b600a600081905550605b605f565b565b565b56fea26469706673582212208aa4a0134f3ce9aede9461db572e0f70e5da3c740a4c0a9bea22aede3e3fec8764736f6c63430008070033",
			"opcodes": "PUSH1 0x80 PUSH1 0x40 MSTORE CALLVALUE DUP1 ISZERO PUSH1 0xF JUMPI PUSH1 0x0 DUP1 REVERT JUMPDEST POP PUSH1 0x97 DUP1 PUSH2 0x1E PUSH1 0x0 CODECOPY PUSH1 0x0 RETURN INVALID PUSH1 0x80 PUSH1 0x40 MSTORE CALLVALUE DUP1 ISZERO PUSH1 0xF JUMPI PUSH1 0x0 DUP1 REVERT JUMPDEST POP PUSH1 0x4 CALLDATASIZE LT PUSH1 0x32 JUMPI PUSH1 0x0 CALLDATALOAD PUSH1 0xE0 SHR DUP1 PUSH4 0x28B5E32B EQ PUSH1 0x37 JUMPI DUP1 PUSH4 0x981EDE9C EQ PUSH1 0x3F JUMPI JUMPDEST PUSH1 0x0 DUP1 REVERT JUMPDEST PUSH1 0x3D PUSH1 0x47 JUMP JUMPDEST STOP JUMPDEST PUSH1 0x45 PUSH1 0x5D JUMP JUMPDEST STOP JUMPDEST PUSH1 0x4D PUSH1 0x5D JUMP JUMPDEST PUSH1 0xA PUSH1 0x0 DUP2 SWAP1 SSTORE POP PUSH1 0x5B PUSH1 0x5F JUMP JUMPDEST JUMP JUMPDEST JUMP JUMPDEST JUMP INVALID LOG2 PUSH5 0x6970667358 0x22 SLT KECCAK256 DUP11 LOG4 LOG0 SGT 0x4F EXTCODECOPY 0xE9 0xAE 0xDE SWAP5 PUSH2 0xDB57 0x2E 0xF PUSH17 0xE5DA3C740A4C0A9BEA22AEDE3E3FEC8764 PUSH20 0x6F6C634300080700330000000000000000000000 "
		},
		"gasEstimates": {
			"creation": {
				"codeDepositCost": "30200",
				"executionCost": "81",
				"totalCost": "30281"
			},
			"external": {
				"call()": "22284",
				"somPublicFun()": "144"
			}
		},
		"methodIdentifiers": {
			"call()": "28b5e32b",
			"somPublicFun()": "981ede9c"
		}
	},
	"abi": [
		{
			"inputs": [],
			"name": "call",
			"outputs": [],
			"stateMutability": "nonpayable",
			"type": "function"
		},
		{
			"inputs": [],
			"name": "somPublicFun",
			"outputs": [],
			"stateMutability": "nonpayable",
			"type": "function"
		}
	]
}