{
	"transfer_send/cs.sol": {
		"cs": {
			"abi": [
				{
					"inputs": [],
					"stateMutability": "payable",
					"type": "constructor"
				},
				{
					"inputs": [],
					"name": "getETH",
					"outputs": [
						{
							"internalType": "bool",
							"name": "",
							"type": "bool"
						}
					],
					"stateMutability": "nonpayable",
					"type": "function"
				}
			],
			"devdoc": {
				"kind": "dev",
				"methods": {},
				"version": 1
			},
			"evm": {
				"assembly": "    /* \"transfer_send/cs.sol\":60:227  contract cs {\r... */\n  mstore(0x40, 0x80)\n  dataSize(sub_0)\n  dup1\n  dataOffset(sub_0)\n  0x00\n  codecopy\n  0x00\n  return\nstop\n\nsub_0: assembly {\n        /* \"transfer_send/cs.sol\":60:227  contract cs {\r... */\n      mstore(0x40, 0x80)\n      callvalue\n      dup1\n      iszero\n      tag_1\n      jumpi\n      0x00\n      dup1\n      revert\n    tag_1:\n      pop\n      jumpi(tag_2, lt(calldatasize, 0x04))\n      shr(0xe0, calldataload(0x00))\n      dup1\n      0x14f6c3be\n      eq\n      tag_3\n      jumpi\n    tag_2:\n      0x00\n      dup1\n      revert\n        /* \"transfer_send/cs.sol\":119:222  function getETH() public returns(bool) {\r... */\n    tag_3:\n      tag_4\n      tag_5\n      jump\t// in\n    tag_4:\n      mload(0x40)\n      dup1\n      dup3\n      iszero\n      iszero\n      dup2\n      mstore\n      0x20\n      add\n      swap2\n      pop\n      pop\n      mload(0x40)\n      dup1\n      swap2\n      sub\n      swap1\n      return\n    tag_5:\n        /* \"transfer_send/cs.sol\":152:156  bool */\n      0x00\n        /* \"transfer_send/cs.sol\":169:191  address payable _owner */\n      dup1\n        /* \"transfer_send/cs.sol\":194:204  msg.sender */\n      caller\n        /* \"transfer_send/cs.sol\":169:204  address payable _owner = msg.sender */\n      swap1\n      pop\n        /* \"transfer_send/cs.sol\":119:222  function getETH() public returns(bool) {\r... */\n      pop\n      swap1\n      jump\t// out\n\n    auxdata: 0xa264697066735822122073b66a54941bad7e902bc39b547c2d72c3e3a998750ee3283d294798d958292364736f6c63430007060033\n}\n",
				"bytecode": {
					"linkReferences": {},
					"object": "6080604052608b8060116000396000f3fe6080604052348015600f57600080fd5b506004361060285760003560e01c806314f6c3be14602d575b600080fd5b6033604b565b60405180821515815260200191505060405180910390f35b600080339050509056fea264697066735822122073b66a54941bad7e902bc39b547c2d72c3e3a998750ee3283d294798d958292364736f6c63430007060033",
					"opcodes": "PUSH1 0x80 PUSH1 0x40 MSTORE PUSH1 0x8B DUP1 PUSH1 0x11 PUSH1 0x0 CODECOPY PUSH1 0x0 RETURN INVALID PUSH1 0x80 PUSH1 0x40 MSTORE CALLVALUE DUP1 ISZERO PUSH1 0xF JUMPI PUSH1 0x0 DUP1 REVERT JUMPDEST POP PUSH1 0x4 CALLDATASIZE LT PUSH1 0x28 JUMPI PUSH1 0x0 CALLDATALOAD PUSH1 0xE0 SHR DUP1 PUSH4 0x14F6C3BE EQ PUSH1 0x2D JUMPI JUMPDEST PUSH1 0x0 DUP1 REVERT JUMPDEST PUSH1 0x33 PUSH1 0x4B JUMP JUMPDEST PUSH1 0x40 MLOAD DUP1 DUP3 ISZERO ISZERO DUP2 MSTORE PUSH1 0x20 ADD SWAP2 POP POP PUSH1 0x40 MLOAD DUP1 SWAP2 SUB SWAP1 RETURN JUMPDEST PUSH1 0x0 DUP1 CALLER SWAP1 POP POP SWAP1 JUMP INVALID LOG2 PUSH5 0x6970667358 0x22 SLT KECCAK256 PUSH20 0xB66A54941BAD7E902BC39B547C2D72C3E3A99875 0xE 0xE3 0x28 RETURNDATASIZE 0x29 SELFBALANCE SWAP9 0xD9 PC 0x29 0x23 PUSH5 0x736F6C6343 STOP SMOD MOD STOP CALLER "
				},
				"gasEstimates": {
					"creation": {
						"codeDepositCost": "27800",
						"executionCost": "57",
						"totalCost": "27857"
					},
					"external": {
						"getETH()": "201"
					}
				},
				"methodIdentifiers": {
					"getETH()": "14f6c3be"
				}
			},
			"storageLayout": {
				"storage": [],
				"types": null
			},
			"userdoc": {
				"kind": "user",
				"methods": {},
				"version": 1
			}
		}
	}
}