{
	"data": {
		"bytecode": {
			"linkReferences": {},
			"object": "608060405234801561001057600080fd5b5061053c806100206000396000f3fe608060405234801561001057600080fd5b506004361061009e5760003560e01c8063b53b8d7a11610066578063b53b8d7a146100fb578063d09de08a14610105578063e1ce4d3f1461010f578063f3593cd014610119578063ff4b0400146101235761009e565b80632baeceb7146100a35780634f2be91f146100ad5780635197c7aa146100b75780636deebae3146100d557806370ab01a0146100df575b600080fd5b6100ab61012d565b005b6100b5610146565b005b6100bf610162565b6040516100cc91906102ae565b60405180910390f35b6100dd61016b565b005b6100f960048036038101906100f4919061024c565b610187565b005b6101036101a1565b005b61010d6101bd565b005b6101176101d6565b005b6101216101ff565b005b61012b61021b565b005b60008081548092919061013f906103e8565b9190505550565b60015460008082825461015991906102c9565b92505081905550565b60008054905090565b60015460008082825461017e91906103aa565b92505081905550565b826000819055508160018190555080600281905550505050565b6001546000808282546101b4919061031f565b92505081905550565b6000808154809291906101cf90610412565b9190505550565b6002546001546101e69190610350565b6000808282546101f691906102c9565b92505081905550565b6001546000808282546102129190610350565b92505081905550565b60015460008082825461022e919061045b565b92505081905550565b600081359050610246816104ef565b92915050565b600080600060608486031215610265576102646104ea565b5b600061027386828701610237565b935050602061028486828701610237565b925050604061029586828701610237565b9150509250925092565b6102a8816103de565b82525050565b60006020820190506102c3600083018461029f565b92915050565b60006102d4826103de565b91506102df836103de565b9250827fffffffffffffffffffffffffffffffffffffffffffffffffffffffffffffffff038211156103145761031361048c565b5b828201905092915050565b600061032a826103de565b9150610335836103de565b925082610345576103446104bb565b5b828204905092915050565b600061035b826103de565b9150610366836103de565b9250817fffffffffffffffffffffffffffffffffffffffffffffffffffffffffffffffff048311821515161561039f5761039e61048c565b5b828202905092915050565b60006103b5826103de565b91506103c0836103de565b9250828210156103d3576103d261048c565b5b828203905092915050565b6000819050919050565b60006103f3826103de565b915060008214156104075761040661048c565b5b600182039050919050565b600061041d826103de565b91507fffffffffffffffffffffffffffffffffffffffffffffffffffffffffffffffff8214156104505761044f61048c565b5b600182019050919050565b6000610466826103de565b9150610471836103de565b925082610481576104806104bb565b5b828206905092915050565b7f4e487b7100000000000000000000000000000000000000000000000000000000600052601160045260246000fd5b7f4e487b7100000000000000000000000000000000000000000000000000000000600052601260045260246000fd5b600080fd5b6104f8816103de565b811461050357600080fd5b5056fea2646970667358221220c5a7285511f9674d992b724d904a760a2a943bfc7e29ea4047703c5383f413bb64736f6c63430008070033",
			"opcodes": "PUSH1 0x80 PUSH1 0x40 MSTORE CALLVALUE DUP1 ISZERO PUSH2 0x10 JUMPI PUSH1 0x0 DUP1 REVERT JUMPDEST POP PUSH2 0x53C DUP1 PUSH2 0x20 PUSH1 0x0 CODECOPY PUSH1 0x0 RETURN INVALID PUSH1 0x80 PUSH1 0x40 MSTORE CALLVALUE DUP1 ISZERO PUSH2 0x10 JUMPI PUSH1 0x0 DUP1 REVERT JUMPDEST POP PUSH1 0x4 CALLDATASIZE LT PUSH2 0x9E JUMPI PUSH1 0x0 CALLDATALOAD PUSH1 0xE0 SHR DUP1 PUSH4 0xB53B8D7A GT PUSH2 0x66 JUMPI DUP1 PUSH4 0xB53B8D7A EQ PUSH2 0xFB JUMPI DUP1 PUSH4 0xD09DE08A EQ PUSH2 0x105 JUMPI DUP1 PUSH4 0xE1CE4D3F EQ PUSH2 0x10F JUMPI DUP1 PUSH4 0xF3593CD0 EQ PUSH2 0x119 JUMPI DUP1 PUSH4 0xFF4B0400 EQ PUSH2 0x123 JUMPI PUSH2 0x9E JUMP JUMPDEST DUP1 PUSH4 0x2BAECEB7 EQ PUSH2 0xA3 JUMPI DUP1 PUSH4 0x4F2BE91F EQ PUSH2 0xAD JUMPI DUP1 PUSH4 0x5197C7AA EQ PUSH2 0xB7 JUMPI DUP1 PUSH4 0x6DEEBAE3 EQ PUSH2 0xD5 JUMPI DUP1 PUSH4 0x70AB01A0 EQ PUSH2 0xDF JUMPI JUMPDEST PUSH1 0x0 DUP1 REVERT JUMPDEST PUSH2 0xAB PUSH2 0x12D JUMP JUMPDEST STOP JUMPDEST PUSH2 0xB5 PUSH2 0x146 JUMP JUMPDEST STOP JUMPDEST PUSH2 0xBF PUSH2 0x162 JUMP JUMPDEST PUSH1 0x40 MLOAD PUSH2 0xCC SWAP2 SWAP1 PUSH2 0x2AE JUMP JUMPDEST PUSH1 0x40 MLOAD DUP1 SWAP2 SUB SWAP1 RETURN JUMPDEST PUSH2 0xDD PUSH2 0x16B JUMP JUMPDEST STOP JUMPDEST PUSH2 0xF9 PUSH1 0x4 DUP1 CALLDATASIZE SUB DUP2 ADD SWAP1 PUSH2 0xF4 SWAP2 SWAP1 PUSH2 0x24C JUMP JUMPDEST PUSH2 0x187 JUMP JUMPDEST STOP JUMPDEST PUSH2 0x103 PUSH2 0x1A1 JUMP JUMPDEST STOP JUMPDEST PUSH2 0x10D PUSH2 0x1BD JUMP JUMPDEST STOP JUMPDEST PUSH2 0x117 PUSH2 0x1D6 JUMP JUMPDEST STOP JUMPDEST PUSH2 0x121 PUSH2 0x1FF JUMP JUMPDEST STOP JUMPDEST PUSH2 0x12B PUSH2 0x21B JUMP JUMPDEST STOP JUMPDEST PUSH1 0x0 DUP1 DUP2 SLOAD DUP1 SWAP3 SWAP2 SWAP1 PUSH2 0x13F SWAP1 PUSH2 0x3E8 JUMP JUMPDEST SWAP2 SWAP1 POP SSTORE POP JUMP JUMPDEST PUSH1 0x1 SLOAD PUSH1 0x0 DUP1 DUP3 DUP3 SLOAD PUSH2 0x159 SWAP2 SWAP1 PUSH2 0x2C9 JUMP JUMPDEST SWAP3 POP POP DUP2 SWAP1 SSTORE POP JUMP JUMPDEST PUSH1 0x0 DUP1 SLOAD SWAP1 POP SWAP1 JUMP JUMPDEST PUSH1 0x1 SLOAD PUSH1 0x0 DUP1 DUP3 DUP3 SLOAD PUSH2 0x17E SWAP2 SWAP1 PUSH2 0x3AA JUMP JUMPDEST SWAP3 POP POP DUP2 SWAP1 SSTORE POP JUMP JUMPDEST DUP3 PUSH1 0x0 DUP2 SWAP1 SSTORE POP DUP2 PUSH1 0x1 DUP2 SWAP1 SSTORE POP DUP1 PUSH1 0x2 DUP2 SWAP1 SSTORE POP POP POP POP JUMP JUMPDEST PUSH1 0x1 SLOAD PUSH1 0x0 DUP1 DUP3 DUP3 SLOAD PUSH2 0x1B4 SWAP2 SWAP1 PUSH2 0x31F JUMP JUMPDEST SWAP3 POP POP DUP2 SWAP1 SSTORE POP JUMP JUMPDEST PUSH1 0x0 DUP1 DUP2 SLOAD DUP1 SWAP3 SWAP2 SWAP1 PUSH2 0x1CF SWAP1 PUSH2 0x412 JUMP JUMPDEST SWAP2 SWAP1 POP SSTORE POP JUMP JUMPDEST PUSH1 0x2 SLOAD PUSH1 0x1 SLOAD PUSH2 0x1E6 SWAP2 SWAP1 PUSH2 0x350 JUMP JUMPDEST PUSH1 0x0 DUP1 DUP3 DUP3 SLOAD PUSH2 0x1F6 SWAP2 SWAP1 PUSH2 0x2C9 JUMP JUMPDEST SWAP3 POP POP DUP2 SWAP1 SSTORE POP JUMP JUMPDEST PUSH1 0x1 SLOAD PUSH1 0x0 DUP1 DUP3 DUP3 SLOAD PUSH2 0x212 SWAP2 SWAP1 PUSH2 0x350 JUMP JUMPDEST SWAP3 POP POP DUP2 SWAP1 SSTORE POP JUMP JUMPDEST PUSH1 0x1 SLOAD PUSH1 0x0 DUP1 DUP3 DUP3 SLOAD PUSH2 0x22E SWAP2 SWAP1 PUSH2 0x45B JUMP JUMPDEST SWAP3 POP POP DUP2 SWAP1 SSTORE POP JUMP JUMPDEST PUSH1 0x0 DUP2 CALLDATALOAD SWAP1 POP PUSH2 0x246 DUP2 PUSH2 0x4EF JUMP JUMPDEST SWAP3 SWAP2 POP POP JUMP JUMPDEST PUSH1 0x0 DUP1 PUSH1 0x0 PUSH1 0x60 DUP5 DUP7 SUB SLT ISZERO PUSH2 0x265 JUMPI PUSH2 0x264 PUSH2 0x4EA JUMP JUMPDEST JUMPDEST PUSH1 0x0 PUSH2 0x273 DUP7 DUP3 DUP8 ADD PUSH2 0x237 JUMP JUMPDEST SWAP4 POP POP PUSH1 0x20 PUSH2 0x284 DUP7 DUP3 DUP8 ADD PUSH2 0x237 JUMP JUMPDEST SWAP3 POP POP PUSH1 0x40 PUSH2 0x295 DUP7 DUP3 DUP8 ADD PUSH2 0x237 JUMP JUMPDEST SWAP2 POP POP SWAP3 POP SWAP3 POP SWAP3 JUMP JUMPDEST PUSH2 0x2A8 DUP2 PUSH2 0x3DE JUMP JUMPDEST DUP3 MSTORE POP POP JUMP JUMPDEST PUSH1 0x0 PUSH1 0x20 DUP3 ADD SWAP1 POP PUSH2 0x2C3 PUSH1 0x0 DUP4 ADD DUP5 PUSH2 0x29F JUMP JUMPDEST SWAP3 SWAP2 POP POP JUMP JUMPDEST PUSH1 0x0 PUSH2 0x2D4 DUP3 PUSH2 0x3DE JUMP JUMPDEST SWAP2 POP PUSH2 0x2DF DUP4 PUSH2 0x3DE JUMP JUMPDEST SWAP3 POP DUP3 PUSH32 0xFFFFFFFFFFFFFFFFFFFFFFFFFFFFFFFFFFFFFFFFFFFFFFFFFFFFFFFFFFFFFFFF SUB DUP3 GT ISZERO PUSH2 0x314 JUMPI PUSH2 0x313 PUSH2 0x48C JUMP JUMPDEST JUMPDEST DUP3 DUP3 ADD SWAP1 POP SWAP3 SWAP2 POP POP JUMP JUMPDEST PUSH1 0x0 PUSH2 0x32A DUP3 PUSH2 0x3DE JUMP JUMPDEST SWAP2 POP PUSH2 0x335 DUP4 PUSH2 0x3DE JUMP JUMPDEST SWAP3 POP DUP3 PUSH2 0x345 JUMPI PUSH2 0x344 PUSH2 0x4BB JUMP JUMPDEST JUMPDEST DUP3 DUP3 DIV SWAP1 POP SWAP3 SWAP2 POP POP JUMP JUMPDEST PUSH1 0x0 PUSH2 0x35B DUP3 PUSH2 0x3DE JUMP JUMPDEST SWAP2 POP PUSH2 0x366 DUP4 PUSH2 0x3DE JUMP JUMPDEST SWAP3 POP DUP2 PUSH32 0xFFFFFFFFFFFFFFFFFFFFFFFFFFFFFFFFFFFFFFFFFFFFFFFFFFFFFFFFFFFFFFFF DIV DUP4 GT DUP3 ISZERO ISZERO AND ISZERO PUSH2 0x39F JUMPI PUSH2 0x39E PUSH2 0x48C JUMP JUMPDEST JUMPDEST DUP3 DUP3 MUL SWAP1 POP SWAP3 SWAP2 POP POP JUMP JUMPDEST PUSH1 0x0 PUSH2 0x3B5 DUP3 PUSH2 0x3DE JUMP JUMPDEST SWAP2 POP PUSH2 0x3C0 DUP4 PUSH2 0x3DE JUMP JUMPDEST SWAP3 POP DUP3 DUP3 LT ISZERO PUSH2 0x3D3 JUMPI PUSH2 0x3D2 PUSH2 0x48C JUMP JUMPDEST JUMPDEST DUP3 DUP3 SUB SWAP1 POP SWAP3 SWAP2 POP POP JUMP JUMPDEST PUSH1 0x0 DUP2 SWAP1 POP SWAP2 SWAP1 POP JUMP JUMPDEST PUSH1 0x0 PUSH2 0x3F3 DUP3 PUSH2 0x3DE JUMP JUMPDEST SWAP2 POP PUSH1 0x0 DUP3 EQ ISZERO PUSH2 0x407 JUMPI PUSH2 0x406 PUSH2 0x48C JUMP JUMPDEST JUMPDEST PUSH1 0x1 DUP3 SUB SWAP1 POP SWAP2 SWAP1 POP JUMP JUMPDEST PUSH1 0x0 PUSH2 0x41D DUP3 PUSH2 0x3DE JUMP JUMPDEST SWAP2 POP PUSH32 0xFFFFFFFFFFFFFFFFFFFFFFFFFFFFFFFFFFFFFFFFFFFFFFFFFFFFFFFFFFFFFFFF DUP3 EQ ISZERO PUSH2 0x450 JUMPI PUSH2 0x44F PUSH2 0x48C JUMP JUMPDEST JUMPDEST PUSH1 0x1 DUP3 ADD SWAP1 POP SWAP2 SWAP1 POP JUMP JUMPDEST PUSH1 0x0 PUSH2 0x466 DUP3 PUSH2 0x3DE JUMP JUMPDEST SWAP2 POP PUSH2 0x471 DUP4 PUSH2 0x3DE JUMP JUMPDEST SWAP3 POP DUP3 PUSH2 0x481 JUMPI PUSH2 0x480 PUSH2 0x4BB JUMP JUMPDEST JUMPDEST DUP3 DUP3 MOD SWAP1 POP SWAP3 SWAP2 POP POP JUMP JUMPDEST PUSH32 0x4E487B7100000000000000000000000000000000000000000000000000000000 PUSH1 0x0 MSTORE PUSH1 0x11 PUSH1 0x4 MSTORE PUSH1 0x24 PUSH1 0x0 REVERT JUMPDEST PUSH32 0x4E487B7100000000000000000000000000000000000000000000000000000000 PUSH1 0x0 MSTORE PUSH1 0x12 PUSH1 0x4 MSTORE PUSH1 0x24 PUSH1 0x0 REVERT JUMPDEST PUSH1 0x0 DUP1 REVERT JUMPDEST PUSH2 0x4F8 DUP2 PUSH2 0x3DE JUMP JUMPDEST DUP2 EQ PUSH2 0x503 JUMPI PUSH1 0x0 DUP1 REVERT JUMPDEST POP JUMP INVALID LOG2 PUSH5 0x6970667358 0x22 SLT KECCAK256 0xC5 0xA7 0x28 SSTORE GT 0xF9 PUSH8 0x4D992B724D904A76 EXP 0x2A SWAP5 EXTCODESIZE 0xFC PUSH31 0x29EA4047703C5383F413BB64736F6C63430008070033000000000000000000 "
		},
		"gasEstimates": {
			"creation": {
				"codeDepositCost": "268000",
				"executionCost": "306",
				"totalCost": "268306"
			},
			"external": {
				"add()": "infinite",
				"compoundAssignment()": "infinite",
				"decrement()": "24505",
				"divide()": "infinite",
				"getX()": "2482",
				"increment()": "24526",
				"modulus()": "infinite",
				"multiply()": "infinite",
				"setXYZ(uint256,uint256,uint256)": "infinite",
				"subtract()": "infinite"
			}
		},
		"methodIdentifiers": {
			"add()": "4f2be91f",
			"compoundAssignment()": "e1ce4d3f",
			"decrement()": "2baeceb7",
			"divide()": "b53b8d7a",
			"getX()": "5197c7aa",
			"increment()": "d09de08a",
			"modulus()": "ff4b0400",
			"multiply()": "f3593cd0",
			"setXYZ(uint256,uint256,uint256)": "70ab01a0",
			"subtract()": "6deebae3"
		}
	},
	"abi": [
		{
			"inputs": [],
			"name": "add",
			"outputs": [],
			"stateMutability": "nonpayable",
			"type": "function"
		},
		{
			"inputs": [],
			"name": "compoundAssignment",
			"outputs": [],
			"stateMutability": "nonpayable",
			"type": "function"
		},
		{
			"inputs": [],
			"name": "decrement",
			"outputs": [],
			"stateMutability": "nonpayable",
			"type": "function"
		},
		{
			"inputs": [],
			"name": "divide",
			"outputs": [],
			"stateMutability": "nonpayable",
			"type": "function"
		},
		{
			"inputs": [],
			"name": "getX",
			"outputs": [
				{
					"internalType": "uint256",
					"name": "",
					"type": "uint256"
				}
			],
			"stateMutability": "view",
			"type": "function"
		},
		{
			"inputs": [],
			"name": "increment",
			"outputs": [],
			"stateMutability": "nonpayable",
			"type": "function"
		},
		{
			"inputs": [],
			"name": "modulus",
			"outputs": [],
			"stateMutability": "nonpayable",
			"type": "function"
		},
		{
			"inputs": [],
			"name": "multiply",
			"outputs": [],
			"stateMutability": "nonpayable",
			"type": "function"
		},
		{
			"inputs": [
				{
					"internalType": "uint256",
					"name": "newX",
					"type": "uint256"
				},
				{
					"internalType": "uint256",
					"name": "newY",
					"type": "uint256"
				},
				{
					"internalType": "uint256",
					"name": "newZ",
					"type": "uint256"
				}
			],
			"name": "setXYZ",
			"outputs": [],
			"stateMutability": "nonpayable",
			"type": "function"
		},
		{
			"inputs": [],
			"name": "subtract",
			"outputs": [],
			"stateMutability": "nonpayable",
			"type": "function"
		}
	]
}