{
	"data": {
		"bytecode": {
			"linkReferences": {},
			"object": "608060405234801561001057600080fd5b5060c98061001f6000396000f3fe6080604052348015600f57600080fd5b506004361060285760003560e01c8063d664b8dc14602d575b600080fd5b60336047565b604051603e91906070565b60405180910390f35b600080600a905060006014905080915060289050819250505090565b606a816089565b82525050565b6000602082019050608360008301846063565b92915050565b600081905091905056fea2646970667358221220e1e33ab6c3dd8329080b90fd5d70d3eaa89a3a74de1531066fcd5a7bf6db036b64736f6c63430008070033",
			"opcodes": "PUSH1 0x80 PUSH1 0x40 MSTORE CALLVALUE DUP1 ISZERO PUSH2 0x10 JUMPI PUSH1 0x0 DUP1 REVERT JUMPDEST POP PUSH1 0xC9 DUP1 PUSH2 0x1F PUSH1 0x0 CODECOPY PUSH1 0x0 RETURN INVALID PUSH1 0x80 PUSH1 0x40 MSTORE CALLVALUE DUP1 ISZERO PUSH1 0xF JUMPI PUSH1 0x0 DUP1 REVERT JUMPDEST POP PUSH1 0x4 CALLDATASIZE LT PUSH1 0x28 JUMPI PUSH1 0x0 CALLDATALOAD PUSH1 0xE0 SHR DUP1 PUSH4 0xD664B8DC EQ PUSH1 0x2D JUMPI JUMPDEST PUSH1 0x0 DUP1 REVERT JUMPDEST PUSH1 0x33 PUSH1 0x47 JUMP JUMPDEST PUSH1 0x40 MLOAD PUSH1 0x3E SWAP2 SWAP1 PUSH1 0x70 JUMP JUMPDEST PUSH1 0x40 MLOAD DUP1 SWAP2 SUB SWAP1 RETURN JUMPDEST PUSH1 0x0 DUP1 PUSH1 0xA SWAP1 POP PUSH1 0x0 PUSH1 0x14 SWAP1 POP DUP1 SWAP2 POP PUSH1 0x28 SWAP1 POP DUP2 SWAP3 POP POP POP SWAP1 JUMP JUMPDEST PUSH1 0x6A DUP2 PUSH1 0x89 JUMP JUMPDEST DUP3 MSTORE POP POP JUMP JUMPDEST PUSH1 0x0 PUSH1 0x20 DUP3 ADD SWAP1 POP PUSH1 0x83 PUSH1 0x0 DUP4 ADD DUP5 PUSH1 0x63 JUMP JUMPDEST SWAP3 SWAP2 POP POP JUMP JUMPDEST PUSH1 0x0 DUP2 SWAP1 POP SWAP2 SWAP1 POP JUMP INVALID LOG2 PUSH5 0x6970667358 0x22 SLT KECCAK256 0xE1 0xE3 GASPRICE 0xB6 0xC3 0xDD DUP4 0x29 ADDMOD SIGNEXTEND SWAP1 REVERT 0x5D PUSH17 0xD3EAA89A3A74DE1531066FCD5A7BF6DB03 PUSH12 0x64736F6C6343000807003300 "
		},
		"gasEstimates": {
			"creation": {
				"codeDepositCost": "40200",
				"executionCost": "93",
				"totalCost": "40293"
			},
			"external": {
				"_do()": "357"
			}
		},
		"methodIdentifiers": {
			"_do()": "d664b8dc"
		}
	},
	"abi": [
		{
			"inputs": [],
			"name": "_do",
			"outputs": [
				{
					"internalType": "uint256",
					"name": "",
					"type": "uint256"
				}
			],
			"stateMutability": "pure",
			"type": "function"
		}
	]
}