{
	"Delete/A.sol": {
		"A": {
			"abi": [
				{
					"inputs": [
						{
							"internalType": "uint256",
							"name": "i",
							"type": "uint256"
						}
					],
					"name": "change",
					"outputs": [],
					"stateMutability": "nonpayable",
					"type": "function"
				},
				{
					"inputs": [],
					"name": "getData",
					"outputs": [
						{
							"internalType": "uint256",
							"name": "",
							"type": "uint256"
						}
					],
					"stateMutability": "nonpayable",
					"type": "function"
				}
			],
			"devdoc": {
				"kind": "dev",
				"methods": {},
				"version": 1
			},
			"evm": {
				"assembly": "    /* \"Delete/A.sol\":60:263  contract A {\r... */\n  mstore(0x40, 0x80)\n  callvalue\n  dup1\n  iszero\n  tag_1\n  jumpi\n  0x00\n  dup1\n  revert\ntag_1:\n  pop\n  dataSize(sub_0)\n  dup1\n  dataOffset(sub_0)\n  0x00\n  codecopy\n  0x00\n  return\nstop\n\nsub_0: assembly {\n        /* \"Delete/A.sol\":60:263  contract A {\r... */\n      mstore(0x40, 0x80)\n      callvalue\n      dup1\n      iszero\n      tag_1\n      jumpi\n      0x00\n      dup1\n      revert\n    tag_1:\n      pop\n      jumpi(tag_2, lt(calldatasize, 0x04))\n      shr(0xe0, calldataload(0x00))\n      dup1\n      0x3bc5de30\n      eq\n      tag_3\n      jumpi\n      dup1\n      0x75322e47\n      eq\n      tag_4\n      jumpi\n    tag_2:\n      0x00\n      dup1\n      revert\n        /* \"Delete/A.sol\":166:258  function getData() public returns(uint) {\r... */\n    tag_3:\n      tag_5\n      tag_6\n      jump\t// in\n    tag_5:\n      mload(0x40)\n      dup1\n      dup3\n      dup2\n      mstore\n      0x20\n      add\n      swap2\n      pop\n      pop\n      mload(0x40)\n      dup1\n      swap2\n      sub\n      swap1\n      return\n        /* \"Delete/A.sol\":98:158  function change(uint i) external {\r... */\n    tag_4:\n      tag_7\n      0x04\n      dup1\n      calldatasize\n      sub\n      0x20\n      dup2\n      lt\n      iszero\n      tag_8\n      jumpi\n      0x00\n      dup1\n      revert\n    tag_8:\n      dup2\n      add\n      swap1\n      dup1\n      dup1\n      calldataload\n      swap1\n      0x20\n      add\n      swap1\n      swap3\n      swap2\n      swap1\n      pop\n      pop\n      pop\n      tag_9\n      jump\t// in\n    tag_7:\n      stop\n        /* \"Delete/A.sol\":166:258  function getData() public returns(uint) {\r... */\n    tag_6:\n        /* \"Delete/A.sol\":200:204  uint */\n      0x00\n        /* \"Delete/A.sol\":224:228  data */\n      dup1\n        /* \"Delete/A.sol\":217:228  delete data */\n      0x00\n      swap1\n      sstore\n        /* \"Delete/A.sol\":246:250  data */\n      sload(0x00)\n        /* \"Delete/A.sol\":239:250  return data */\n      swap1\n      pop\n        /* \"Delete/A.sol\":166:258  function getData() public returns(uint) {\r... */\n      swap1\n      jump\t// out\n        /* \"Delete/A.sol\":98:158  function change(uint i) external {\r... */\n    tag_9:\n        /* \"Delete/A.sol\":149:150  i */\n      dup1\n        /* \"Delete/A.sol\":142:146  data */\n      0x00\n        /* \"Delete/A.sol\":142:150  data = i */\n      dup2\n      swap1\n      sstore\n      pop\n        /* \"Delete/A.sol\":98:158  function change(uint i) external {\r... */\n      pop\n      jump\t// out\n\n    auxdata: 0xa26469706673582212204bed36bd1843ff3d44a191eb9a07f9c8e67a15f4558ee3b83562f3bc589d58fb64736f6c63430007060033\n}\n",
				"bytecode": {
					"linkReferences": {},
					"object": "608060405234801561001057600080fd5b5060cd8061001f6000396000f3fe6080604052348015600f57600080fd5b506004361060325760003560e01c80633bc5de3014603757806375322e47146053575b600080fd5b603d607e565b6040518082815260200191505060405180910390f35b607c60048036036020811015606757600080fd5b8101908080359060200190929190505050608d565b005b60008060009055600054905090565b806000819055505056fea26469706673582212204bed36bd1843ff3d44a191eb9a07f9c8e67a15f4558ee3b83562f3bc589d58fb64736f6c63430007060033",
					"opcodes": "PUSH1 0x80 PUSH1 0x40 MSTORE CALLVALUE DUP1 ISZERO PUSH2 0x10 JUMPI PUSH1 0x0 DUP1 REVERT JUMPDEST POP PUSH1 0xCD DUP1 PUSH2 0x1F PUSH1 0x0 CODECOPY PUSH1 0x0 RETURN INVALID PUSH1 0x80 PUSH1 0x40 MSTORE CALLVALUE DUP1 ISZERO PUSH1 0xF JUMPI PUSH1 0x0 DUP1 REVERT JUMPDEST POP PUSH1 0x4 CALLDATASIZE LT PUSH1 0x32 JUMPI PUSH1 0x0 CALLDATALOAD PUSH1 0xE0 SHR DUP1 PUSH4 0x3BC5DE30 EQ PUSH1 0x37 JUMPI DUP1 PUSH4 0x75322E47 EQ PUSH1 0x53 JUMPI JUMPDEST PUSH1 0x0 DUP1 REVERT JUMPDEST PUSH1 0x3D PUSH1 0x7E JUMP JUMPDEST PUSH1 0x40 MLOAD DUP1 DUP3 DUP2 MSTORE PUSH1 0x20 ADD SWAP2 POP POP PUSH1 0x40 MLOAD DUP1 SWAP2 SUB SWAP1 RETURN JUMPDEST PUSH1 0x7C PUSH1 0x4 DUP1 CALLDATASIZE SUB PUSH1 0x20 DUP2 LT ISZERO PUSH1 0x67 JUMPI PUSH1 0x0 DUP1 REVERT JUMPDEST DUP2 ADD SWAP1 DUP1 DUP1 CALLDATALOAD SWAP1 PUSH1 0x20 ADD SWAP1 SWAP3 SWAP2 SWAP1 POP POP POP PUSH1 0x8D JUMP JUMPDEST STOP JUMPDEST PUSH1 0x0 DUP1 PUSH1 0x0 SWAP1 SSTORE PUSH1 0x0 SLOAD SWAP1 POP SWAP1 JUMP JUMPDEST DUP1 PUSH1 0x0 DUP2 SWAP1 SSTORE POP POP JUMP INVALID LOG2 PUSH5 0x6970667358 0x22 SLT KECCAK256 0x4B 0xED CALLDATASIZE 0xBD XOR NUMBER SELFDESTRUCT RETURNDATASIZE DIFFICULTY LOG1 SWAP2 0xEB SWAP11 SMOD 0xF9 0xC8 0xE6 PUSH27 0x15F4558EE3B83562F3BC589D58FB64736F6C634300070600330000 "
				},
				"gasEstimates": {
					"creation": {
						"codeDepositCost": "41000",
						"executionCost": "93",
						"totalCost": "41093"
					},
					"external": {
						"change(uint256)": "20242",
						"getData()": "6000"
					}
				},
				"methodIdentifiers": {
					"change(uint256)": "75322e47",
					"getData()": "3bc5de30"
				}
			},
			"storageLayout": {
				"storage": [
					{
						"astId": 3,
						"contract": "Delete/A.sol:A",
						"label": "data",
						"offset": 0,
						"slot": "0",
						"type": "t_uint256"
					}
				],
				"types": {
					"t_uint256": {
						"encoding": "inplace",
						"label": "uint256",
						"numberOfBytes": "32"
					}
				}
			},
			"userdoc": {
				"kind": "user",
				"methods": {},
				"version": 1
			}
		}
	}
}