{
	"哈希算法/Hash2.sol": {
		"Hash": {
			"abi": [
				{
					"inputs": [],
					"name": "encode1",
					"outputs": [
						{
							"internalType": "bytes",
							"name": "",
							"type": "bytes"
						}
					],
					"stateMutability": "pure",
					"type": "function"
				},
				{
					"inputs": [],
					"name": "encode2",
					"outputs": [
						{
							"internalType": "bytes",
							"name": "",
							"type": "bytes"
						}
					],
					"stateMutability": "pure",
					"type": "function"
				}
			],
			"devdoc": {
				"kind": "dev",
				"methods": {},
				"version": 1
			},
			"evm": {
				"assembly": "    /* \"\\xe5\\x93\\x88\\xe5\\xb8\\x8c\\xe7\\xae\\x97\\xe6\\xb3\\x95/Hash2.sol\":60:324  contract Hash {... */\n  mstore(0x40, 0x80)\n  callvalue\n  dup1\n  iszero\n  tag_1\n  jumpi\n  0x00\n  dup1\n  revert\ntag_1:\n  pop\n  dataSize(sub_0)\n  dup1\n  dataOffset(sub_0)\n  0x00\n  codecopy\n  0x00\n  return\nstop\n\nsub_0: assembly {\n        /* \"\\xe5\\x93\\x88\\xe5\\xb8\\x8c\\xe7\\xae\\x97\\xe6\\xb3\\x95/Hash2.sol\":60:324  contract Hash {... */\n      mstore(0x40, 0x80)\n      callvalue\n      dup1\n      iszero\n      tag_1\n      jumpi\n      0x00\n      dup1\n      revert\n    tag_1:\n      pop\n      jumpi(tag_2, lt(calldatasize, 0x04))\n      shr(0xe0, calldataload(0x00))\n      dup1\n      0xbed7532c\n      eq\n      tag_3\n      jumpi\n      dup1\n      0xed18232b\n      eq\n      tag_4\n      jumpi\n    tag_2:\n      0x00\n      dup1\n      revert\n        /* \"\\xe5\\x93\\x88\\xe5\\xb8\\x8c\\xe7\\xae\\x97\\xe6\\xb3\\x95/Hash2.sol\":205:321  function encode2() external pure returns(bytes memory) {... */\n    tag_3:\n      tag_5\n      tag_6\n      jump\t// in\n    tag_5:\n      mload(0x40)\n      tag_7\n      swap2\n      swap1\n      tag_8\n      jump\t// in\n    tag_7:\n      mload(0x40)\n      dup1\n      swap2\n      sub\n      swap1\n      return\n        /* \"\\xe5\\x93\\x88\\xe5\\xb8\\x8c\\xe7\\xae\\x97\\xe6\\xb3\\x95/Hash2.sol\":81:197  function encode1() external pure returns(bytes memory) {... */\n    tag_4:\n      tag_9\n      tag_10\n      jump\t// in\n    tag_9:\n      mload(0x40)\n      tag_11\n      swap2\n      swap1\n      tag_8\n      jump\t// in\n    tag_11:\n      mload(0x40)\n      dup1\n      swap2\n      sub\n      swap1\n      return\n        /* \"\\xe5\\x93\\x88\\xe5\\xb8\\x8c\\xe7\\xae\\x97\\xe6\\xb3\\x95/Hash2.sol\":205:321  function encode2() external pure returns(bytes memory) {... */\n    tag_6:\n        /* \"\\xe5\\x93\\x88\\xe5\\xb8\\x8c\\xe7\\xae\\x97\\xe6\\xb3\\x95/Hash2.sol\":246:258  bytes memory */\n      0x60\n        /* \"\\xe5\\x93\\x88\\xe5\\xb8\\x8c\\xe7\\xae\\x97\\xe6\\xb3\\x95/Hash2.sol\":306:307  1 */\n      0x01\n        /* \"\\xe5\\x93\\x88\\xe5\\xb8\\x8c\\xe7\\xae\\x97\\xe6\\xb3\\x95/Hash2.sol\":278:313  abi.encodePacked(\"aab\",uint(1),\"b\") */\n      add(0x20, mload(0x40))\n      tag_13\n      swap2\n      swap1\n      tag_14\n      jump\t// in\n    tag_13:\n      mload(0x40)\n      0x20\n      dup2\n      dup4\n      sub\n      sub\n      dup2\n      mstore\n      swap1\n      0x40\n      mstore\n        /* \"\\xe5\\x93\\x88\\xe5\\xb8\\x8c\\xe7\\xae\\x97\\xe6\\xb3\\x95/Hash2.sol\":271:313  return abi.encodePacked(\"aab\",uint(1),\"b\") */\n      swap1\n      pop\n        /* \"\\xe5\\x93\\x88\\xe5\\xb8\\x8c\\xe7\\xae\\x97\\xe6\\xb3\\x95/Hash2.sol\":205:321  function encode2() external pure returns(bytes memory) {... */\n      swap1\n      jump\t// out\n        /* \"\\xe5\\x93\\x88\\xe5\\xb8\\x8c\\xe7\\xae\\x97\\xe6\\xb3\\x95/Hash2.sol\":81:197  function encode1() external pure returns(bytes memory) {... */\n    tag_10:\n        /* \"\\xe5\\x93\\x88\\xe5\\xb8\\x8c\\xe7\\xae\\x97\\xe6\\xb3\\x95/Hash2.sol\":122:134  bytes memory */\n      0x60\n        /* \"\\xe5\\x93\\x88\\xe5\\xb8\\x8c\\xe7\\xae\\x97\\xe6\\xb3\\x95/Hash2.sol\":181:182  1 */\n      0x01\n        /* \"\\xe5\\x93\\x88\\xe5\\xb8\\x8c\\xe7\\xae\\x97\\xe6\\xb3\\x95/Hash2.sol\":154:189  abi.encodePacked(\"aa\",uint(1),\"bb\") */\n      add(0x20, mload(0x40))\n      tag_16\n      swap2\n      swap1\n      tag_17\n      jump\t// in\n    tag_16:\n      mload(0x40)\n      0x20\n      dup2\n      dup4\n      sub\n      sub\n      dup2\n      mstore\n      swap1\n      0x40\n      mstore\n        /* \"\\xe5\\x93\\x88\\xe5\\xb8\\x8c\\xe7\\xae\\x97\\xe6\\xb3\\x95/Hash2.sol\":147:189  return abi.encodePacked(\"aa\",uint(1),\"bb\") */\n      swap1\n      pop\n        /* \"\\xe5\\x93\\x88\\xe5\\xb8\\x8c\\xe7\\xae\\x97\\xe6\\xb3\\x95/Hash2.sol\":81:197  function encode1() external pure returns(bytes memory) {... */\n      swap1\n      jump\t// out\n        /* \"#utility.yul\":7:105   */\n    tag_18:\n        /* \"#utility.yul\":58:64   */\n      0x00\n        /* \"#utility.yul\":92:97   */\n      dup2\n        /* \"#utility.yul\":86:98   */\n      mload\n        /* \"#utility.yul\":76:98   */\n      swap1\n      pop\n        /* \"#utility.yul\":7:105   */\n      swap2\n      swap1\n      pop\n      jump\t// out\n        /* \"#utility.yul\":111:279   */\n    tag_19:\n        /* \"#utility.yul\":194:205   */\n      0x00\n        /* \"#utility.yul\":228:234   */\n      dup3\n        /* \"#utility.yul\":223:226   */\n      dup3\n        /* \"#utility.yul\":216:235   */\n      mstore\n        /* \"#utility.yul\":268:272   */\n      0x20\n        /* \"#utility.yul\":263:266   */\n      dup3\n        /* \"#utility.yul\":259:273   */\n      add\n        /* \"#utility.yul\":244:273   */\n      swap1\n      pop\n        /* \"#utility.yul\":111:279   */\n      swap3\n      swap2\n      pop\n      pop\n      jump\t// out\n        /* \"#utility.yul\":285:531   */\n    tag_20:\n        /* \"#utility.yul\":366:367   */\n      0x00\n        /* \"#utility.yul\":376:489   */\n    tag_39:\n        /* \"#utility.yul\":390:396   */\n      dup4\n        /* \"#utility.yul\":387:388   */\n      dup2\n        /* \"#utility.yul\":384:397   */\n      lt\n        /* \"#utility.yul\":376:489   */\n      iszero\n      tag_41\n      jumpi\n        /* \"#utility.yul\":475:476   */\n      dup1\n        /* \"#utility.yul\":470:473   */\n      dup3\n        /* \"#utility.yul\":466:477   */\n      add\n        /* \"#utility.yul\":460:478   */\n      mload\n        /* \"#utility.yul\":456:457   */\n      dup2\n        /* \"#utility.yul\":451:454   */\n      dup5\n        /* \"#utility.yul\":447:458   */\n      add\n        /* \"#utility.yul\":440:479   */\n      mstore\n        /* \"#utility.yul\":412:414   */\n      0x20\n        /* \"#utility.yul\":409:410   */\n      dup2\n        /* \"#utility.yul\":405:415   */\n      add\n        /* \"#utility.yul\":400:415   */\n      swap1\n      pop\n        /* \"#utility.yul\":376:489   */\n      jump(tag_39)\n    tag_41:\n        /* \"#utility.yul\":523:524   */\n      0x00\n        /* \"#utility.yul\":514:520   */\n      dup5\n        /* \"#utility.yul\":509:512   */\n      dup5\n        /* \"#utility.yul\":505:521   */\n      add\n        /* \"#utility.yul\":498:525   */\n      mstore\n        /* \"#utility.yul\":347:531   */\n      pop\n        /* \"#utility.yul\":285:531   */\n      pop\n      pop\n      pop\n      jump\t// out\n        /* \"#utility.yul\":537:639   */\n    tag_21:\n        /* \"#utility.yul\":578:584   */\n      0x00\n        /* \"#utility.yul\":629:631   */\n      0x1f\n        /* \"#utility.yul\":625:632   */\n      not\n        /* \"#utility.yul\":620:622   */\n      0x1f\n        /* \"#utility.yul\":613:618   */\n      dup4\n        /* \"#utility.yul\":609:623   */\n      add\n        /* \"#utility.yul\":605:633   */\n      and\n        /* \"#utility.yul\":595:633   */\n      swap1\n      pop\n        /* \"#utility.yul\":537:639   */\n      swap2\n      swap1\n      pop\n      jump\t// out\n        /* \"#utility.yul\":645:1018   */\n    tag_22:\n        /* \"#utility.yul\":731:734   */\n      0x00\n        /* \"#utility.yul\":759:797   */\n      tag_44\n        /* \"#utility.yul\":791:796   */\n      dup3\n        /* \"#utility.yul\":759:797   */\n      tag_18\n      jump\t// in\n    tag_44:\n        /* \"#utility.yul\":813:883   */\n      tag_45\n        /* \"#utility.yul\":876:882   */\n      dup2\n        /* \"#utility.yul\":871:874   */\n      dup6\n        /* \"#utility.yul\":813:883   */\n      tag_19\n      jump\t// in\n    tag_45:\n        /* \"#utility.yul\":806:883   */\n      swap4\n      pop\n        /* \"#utility.yul\":892:957   */\n      tag_46\n        /* \"#utility.yul\":950:956   */\n      dup2\n        /* \"#utility.yul\":945:948   */\n      dup6\n        /* \"#utility.yul\":938:942   */\n      0x20\n        /* \"#utility.yul\":931:936   */\n      dup7\n        /* \"#utility.yul\":927:943   */\n      add\n        /* \"#utility.yul\":892:957   */\n      tag_20\n      jump\t// in\n    tag_46:\n        /* \"#utility.yul\":982:1011   */\n      tag_47\n        /* \"#utility.yul\":1004:1010   */\n      dup2\n        /* \"#utility.yul\":982:1011   */\n      tag_21\n      jump\t// in\n    tag_47:\n        /* \"#utility.yul\":977:980   */\n      dup5\n        /* \"#utility.yul\":973:1012   */\n      add\n        /* \"#utility.yul\":966:1012   */\n      swap2\n      pop\n        /* \"#utility.yul\":735:1018   */\n      pop\n        /* \"#utility.yul\":645:1018   */\n      swap3\n      swap2\n      pop\n      pop\n      jump\t// out\n        /* \"#utility.yul\":1024:1333   */\n    tag_8:\n        /* \"#utility.yul\":1135:1139   */\n      0x00\n        /* \"#utility.yul\":1173:1175   */\n      0x20\n        /* \"#utility.yul\":1162:1171   */\n      dup3\n        /* \"#utility.yul\":1158:1176   */\n      add\n        /* \"#utility.yul\":1150:1176   */\n      swap1\n      pop\n        /* \"#utility.yul\":1222:1231   */\n      dup2\n        /* \"#utility.yul\":1216:1220   */\n      dup2\n        /* \"#utility.yul\":1212:1232   */\n      sub\n        /* \"#utility.yul\":1208:1209   */\n      0x00\n        /* \"#utility.yul\":1197:1206   */\n      dup4\n        /* \"#utility.yul\":1193:1210   */\n      add\n        /* \"#utility.yul\":1186:1233   */\n      mstore\n        /* \"#utility.yul\":1250:1326   */\n      tag_49\n        /* \"#utility.yul\":1321:1325   */\n      dup2\n        /* \"#utility.yul\":1312:1318   */\n      dup5\n        /* \"#utility.yul\":1250:1326   */\n      tag_22\n      jump\t// in\n    tag_49:\n        /* \"#utility.yul\":1242:1326   */\n      swap1\n      pop\n        /* \"#utility.yul\":1024:1333   */\n      swap3\n      swap2\n      pop\n      pop\n      jump\t// out\n        /* \"#utility.yul\":1339:1487   */\n    tag_23:\n        /* \"#utility.yul\":1441:1452   */\n      0x00\n        /* \"#utility.yul\":1478:1481   */\n      dup2\n        /* \"#utility.yul\":1463:1481   */\n      swap1\n      pop\n        /* \"#utility.yul\":1339:1487   */\n      swap3\n      swap2\n      pop\n      pop\n      jump\t// out\n        /* \"#utility.yul\":1493:1646   */\n    tag_24:\n        /* \"#utility.yul\":1633:1638   */\n      0x6161620000000000000000000000000000000000000000000000000000000000\n        /* \"#utility.yul\":1629:1630   */\n      0x00\n        /* \"#utility.yul\":1621:1627   */\n      dup3\n        /* \"#utility.yul\":1617:1631   */\n      add\n        /* \"#utility.yul\":1610:1639   */\n      mstore\n        /* \"#utility.yul\":1493:1646   */\n      pop\n      jump\t// out\n        /* \"#utility.yul\":1652:2052   */\n    tag_25:\n        /* \"#utility.yul\":1812:1815   */\n      0x00\n        /* \"#utility.yul\":1833:1917   */\n      tag_53\n        /* \"#utility.yul\":1915:1916   */\n      0x03\n        /* \"#utility.yul\":1910:1913   */\n      dup4\n        /* \"#utility.yul\":1833:1917   */\n      tag_23\n      jump\t// in\n    tag_53:\n        /* \"#utility.yul\":1826:1917   */\n      swap2\n      pop\n        /* \"#utility.yul\":1926:2019   */\n      tag_54\n        /* \"#utility.yul\":2015:2018   */\n      dup3\n        /* \"#utility.yul\":1926:2019   */\n      tag_24\n      jump\t// in\n    tag_54:\n        /* \"#utility.yul\":2044:2045   */\n      0x03\n        /* \"#utility.yul\":2039:2042   */\n      dup3\n        /* \"#utility.yul\":2035:2046   */\n      add\n        /* \"#utility.yul\":2028:2046   */\n      swap1\n      pop\n        /* \"#utility.yul\":1652:2052   */\n      swap2\n      swap1\n      pop\n      jump\t// out\n        /* \"#utility.yul\":2058:2135   */\n    tag_26:\n        /* \"#utility.yul\":2095:2102   */\n      0x00\n        /* \"#utility.yul\":2124:2129   */\n      dup2\n        /* \"#utility.yul\":2113:2129   */\n      swap1\n      pop\n        /* \"#utility.yul\":2058:2135   */\n      swap2\n      swap1\n      pop\n      jump\t// out\n        /* \"#utility.yul\":2141:2220   */\n    tag_27:\n        /* \"#utility.yul\":2180:2187   */\n      0x00\n        /* \"#utility.yul\":2209:2214   */\n      dup2\n        /* \"#utility.yul\":2198:2214   */\n      swap1\n      pop\n        /* \"#utility.yul\":2141:2220   */\n      swap2\n      swap1\n      pop\n      jump\t// out\n        /* \"#utility.yul\":2226:2383   */\n    tag_28:\n        /* \"#utility.yul\":2331:2376   */\n      tag_58\n        /* \"#utility.yul\":2351:2375   */\n      tag_59\n        /* \"#utility.yul\":2369:2374   */\n      dup3\n        /* \"#utility.yul\":2351:2375   */\n      tag_26\n      jump\t// in\n    tag_59:\n        /* \"#utility.yul\":2331:2376   */\n      tag_27\n      jump\t// in\n    tag_58:\n        /* \"#utility.yul\":2326:2329   */\n      dup3\n        /* \"#utility.yul\":2319:2377   */\n      mstore\n        /* \"#utility.yul\":2226:2383   */\n      pop\n      pop\n      jump\t// out\n        /* \"#utility.yul\":2389:2540   */\n    tag_29:\n        /* \"#utility.yul\":2529:2532   */\n      0x6200000000000000000000000000000000000000000000000000000000000000\n        /* \"#utility.yul\":2525:2526   */\n      0x00\n        /* \"#utility.yul\":2517:2523   */\n      dup3\n        /* \"#utility.yul\":2513:2527   */\n      add\n        /* \"#utility.yul\":2506:2533   */\n      mstore\n        /* \"#utility.yul\":2389:2540   */\n      pop\n      jump\t// out\n        /* \"#utility.yul\":2546:2946   */\n    tag_30:\n        /* \"#utility.yul\":2706:2709   */\n      0x00\n        /* \"#utility.yul\":2727:2811   */\n      tag_62\n        /* \"#utility.yul\":2809:2810   */\n      0x01\n        /* \"#utility.yul\":2804:2807   */\n      dup4\n        /* \"#utility.yul\":2727:2811   */\n      tag_23\n      jump\t// in\n    tag_62:\n        /* \"#utility.yul\":2720:2811   */\n      swap2\n      pop\n        /* \"#utility.yul\":2820:2913   */\n      tag_63\n        /* \"#utility.yul\":2909:2912   */\n      dup3\n        /* \"#utility.yul\":2820:2913   */\n      tag_29\n      jump\t// in\n    tag_63:\n        /* \"#utility.yul\":2938:2939   */\n      0x01\n        /* \"#utility.yul\":2933:2936   */\n      dup3\n        /* \"#utility.yul\":2929:2940   */\n      add\n        /* \"#utility.yul\":2922:2940   */\n      swap1\n      pop\n        /* \"#utility.yul\":2546:2946   */\n      swap2\n      swap1\n      pop\n      jump\t// out\n        /* \"#utility.yul\":2952:3740   */\n    tag_14:\n        /* \"#utility.yul\":3266:3269   */\n      0x00\n        /* \"#utility.yul\":3288:3436   */\n      tag_65\n        /* \"#utility.yul\":3432:3435   */\n      dup3\n        /* \"#utility.yul\":3288:3436   */\n      tag_25\n      jump\t// in\n    tag_65:\n        /* \"#utility.yul\":3281:3436   */\n      swap2\n      pop\n        /* \"#utility.yul\":3446:3521   */\n      tag_66\n        /* \"#utility.yul\":3517:3520   */\n      dup3\n        /* \"#utility.yul\":3508:3514   */\n      dup5\n        /* \"#utility.yul\":3446:3521   */\n      tag_28\n      jump\t// in\n    tag_66:\n        /* \"#utility.yul\":3546:3548   */\n      0x20\n        /* \"#utility.yul\":3541:3544   */\n      dup3\n        /* \"#utility.yul\":3537:3549   */\n      add\n        /* \"#utility.yul\":3530:3549   */\n      swap2\n      pop\n        /* \"#utility.yul\":3566:3714   */\n      tag_67\n        /* \"#utility.yul\":3710:3713   */\n      dup3\n        /* \"#utility.yul\":3566:3714   */\n      tag_30\n      jump\t// in\n    tag_67:\n        /* \"#utility.yul\":3559:3714   */\n      swap2\n      pop\n        /* \"#utility.yul\":3731:3734   */\n      dup2\n        /* \"#utility.yul\":3724:3734   */\n      swap1\n      pop\n        /* \"#utility.yul\":2952:3740   */\n      swap3\n      swap2\n      pop\n      pop\n      jump\t// out\n        /* \"#utility.yul\":3746:3898   */\n    tag_31:\n        /* \"#utility.yul\":3886:3890   */\n      0x6161000000000000000000000000000000000000000000000000000000000000\n        /* \"#utility.yul\":3882:3883   */\n      0x00\n        /* \"#utility.yul\":3874:3880   */\n      dup3\n        /* \"#utility.yul\":3870:3884   */\n      add\n        /* \"#utility.yul\":3863:3891   */\n      mstore\n        /* \"#utility.yul\":3746:3898   */\n      pop\n      jump\t// out\n        /* \"#utility.yul\":3904:4304   */\n    tag_32:\n        /* \"#utility.yul\":4064:4067   */\n      0x00\n        /* \"#utility.yul\":4085:4169   */\n      tag_70\n        /* \"#utility.yul\":4167:4168   */\n      0x02\n        /* \"#utility.yul\":4162:4165   */\n      dup4\n        /* \"#utility.yul\":4085:4169   */\n      tag_23\n      jump\t// in\n    tag_70:\n        /* \"#utility.yul\":4078:4169   */\n      swap2\n      pop\n        /* \"#utility.yul\":4178:4271   */\n      tag_71\n        /* \"#utility.yul\":4267:4270   */\n      dup3\n        /* \"#utility.yul\":4178:4271   */\n      tag_31\n      jump\t// in\n    tag_71:\n        /* \"#utility.yul\":4296:4297   */\n      0x02\n        /* \"#utility.yul\":4291:4294   */\n      dup3\n        /* \"#utility.yul\":4287:4298   */\n      add\n        /* \"#utility.yul\":4280:4298   */\n      swap1\n      pop\n        /* \"#utility.yul\":3904:4304   */\n      swap2\n      swap1\n      pop\n      jump\t// out\n        /* \"#utility.yul\":4310:4462   */\n    tag_33:\n        /* \"#utility.yul\":4450:4454   */\n      0x6262000000000000000000000000000000000000000000000000000000000000\n        /* \"#utility.yul\":4446:4447   */\n      0x00\n        /* \"#utility.yul\":4438:4444   */\n      dup3\n        /* \"#utility.yul\":4434:4448   */\n      add\n        /* \"#utility.yul\":4427:4455   */\n      mstore\n        /* \"#utility.yul\":4310:4462   */\n      pop\n      jump\t// out\n        /* \"#utility.yul\":4468:4868   */\n    tag_34:\n        /* \"#utility.yul\":4628:4631   */\n      0x00\n        /* \"#utility.yul\":4649:4733   */\n      tag_74\n        /* \"#utility.yul\":4731:4732   */\n      0x02\n        /* \"#utility.yul\":4726:4729   */\n      dup4\n        /* \"#utility.yul\":4649:4733   */\n      tag_23\n      jump\t// in\n    tag_74:\n        /* \"#utility.yul\":4642:4733   */\n      swap2\n      pop\n        /* \"#utility.yul\":4742:4835   */\n      tag_75\n        /* \"#utility.yul\":4831:4834   */\n      dup3\n        /* \"#utility.yul\":4742:4835   */\n      tag_33\n      jump\t// in\n    tag_75:\n        /* \"#utility.yul\":4860:4861   */\n      0x02\n        /* \"#utility.yul\":4855:4858   */\n      dup3\n        /* \"#utility.yul\":4851:4862   */\n      add\n        /* \"#utility.yul\":4844:4862   */\n      swap1\n      pop\n        /* \"#utility.yul\":4468:4868   */\n      swap2\n      swap1\n      pop\n      jump\t// out\n        /* \"#utility.yul\":4874:5662   */\n    tag_17:\n        /* \"#utility.yul\":5188:5191   */\n      0x00\n        /* \"#utility.yul\":5210:5358   */\n      tag_77\n        /* \"#utility.yul\":5354:5357   */\n      dup3\n        /* \"#utility.yul\":5210:5358   */\n      tag_32\n      jump\t// in\n    tag_77:\n        /* \"#utility.yul\":5203:5358   */\n      swap2\n      pop\n        /* \"#utility.yul\":5368:5443   */\n      tag_78\n        /* \"#utility.yul\":5439:5442   */\n      dup3\n        /* \"#utility.yul\":5430:5436   */\n      dup5\n        /* \"#utility.yul\":5368:5443   */\n      tag_28\n      jump\t// in\n    tag_78:\n        /* \"#utility.yul\":5468:5470   */\n      0x20\n        /* \"#utility.yul\":5463:5466   */\n      dup3\n        /* \"#utility.yul\":5459:5471   */\n      add\n        /* \"#utility.yul\":5452:5471   */\n      swap2\n      pop\n        /* \"#utility.yul\":5488:5636   */\n      tag_79\n        /* \"#utility.yul\":5632:5635   */\n      dup3\n        /* \"#utility.yul\":5488:5636   */\n      tag_34\n      jump\t// in\n    tag_79:\n        /* \"#utility.yul\":5481:5636   */\n      swap2\n      pop\n        /* \"#utility.yul\":5653:5656   */\n      dup2\n        /* \"#utility.yul\":5646:5656   */\n      swap1\n      pop\n        /* \"#utility.yul\":4874:5662   */\n      swap3\n      swap2\n      pop\n      pop\n      jump\t// out\n\n    auxdata: 0xa264697066735822122018f01f92a825c0e050982affb7fd1915f412d6af92638e64675122317b5e483064736f6c63430008120033\n}\n",
				"bytecode": {
					"linkReferences": {},
					"object": "608060405234801561001057600080fd5b50610377806100206000396000f3fe608060405234801561001057600080fd5b50600436106100365760003560e01c8063bed7532c1461003b578063ed18232b14610059575b600080fd5b610043610077565b6040516100509190610157565b60405180910390f35b61006161009f565b60405161006e9190610157565b60405180910390f35b6060600160405160200161008b9190610247565b604051602081830303815290604052905090565b606060016040516020016100b39190610310565b604051602081830303815290604052905090565b600081519050919050565b600082825260208201905092915050565b60005b838110156101015780820151818401526020810190506100e6565b60008484015250505050565b6000601f19601f8301169050919050565b6000610129826100c7565b61013381856100d2565b93506101438185602086016100e3565b61014c8161010d565b840191505092915050565b60006020820190508181036000830152610171818461011e565b905092915050565b600081905092915050565b7f6161620000000000000000000000000000000000000000000000000000000000600082015250565b60006101ba600383610179565b91506101c582610184565b600382019050919050565b6000819050919050565b6000819050919050565b6101f56101f0826101d0565b6101da565b82525050565b7f6200000000000000000000000000000000000000000000000000000000000000600082015250565b6000610231600183610179565b915061023c826101fb565b600182019050919050565b6000610252826101ad565b915061025e82846101e4565b60208201915061026d82610224565b915081905092915050565b7f6161000000000000000000000000000000000000000000000000000000000000600082015250565b60006102ae600283610179565b91506102b982610278565b600282019050919050565b7f6262000000000000000000000000000000000000000000000000000000000000600082015250565b60006102fa600283610179565b9150610305826102c4565b600282019050919050565b600061031b826102a1565b915061032782846101e4565b602082019150610336826102ed565b91508190509291505056fea264697066735822122018f01f92a825c0e050982affb7fd1915f412d6af92638e64675122317b5e483064736f6c63430008120033",
					"opcodes": "PUSH1 0x80 PUSH1 0x40 MSTORE CALLVALUE DUP1 ISZERO PUSH2 0x10 JUMPI PUSH1 0x0 DUP1 REVERT JUMPDEST POP PUSH2 0x377 DUP1 PUSH2 0x20 PUSH1 0x0 CODECOPY PUSH1 0x0 RETURN INVALID PUSH1 0x80 PUSH1 0x40 MSTORE CALLVALUE DUP1 ISZERO PUSH2 0x10 JUMPI PUSH1 0x0 DUP1 REVERT JUMPDEST POP PUSH1 0x4 CALLDATASIZE LT PUSH2 0x36 JUMPI PUSH1 0x0 CALLDATALOAD PUSH1 0xE0 SHR DUP1 PUSH4 0xBED7532C EQ PUSH2 0x3B JUMPI DUP1 PUSH4 0xED18232B EQ PUSH2 0x59 JUMPI JUMPDEST PUSH1 0x0 DUP1 REVERT JUMPDEST PUSH2 0x43 PUSH2 0x77 JUMP JUMPDEST PUSH1 0x40 MLOAD PUSH2 0x50 SWAP2 SWAP1 PUSH2 0x157 JUMP JUMPDEST PUSH1 0x40 MLOAD DUP1 SWAP2 SUB SWAP1 RETURN JUMPDEST PUSH2 0x61 PUSH2 0x9F JUMP JUMPDEST PUSH1 0x40 MLOAD PUSH2 0x6E SWAP2 SWAP1 PUSH2 0x157 JUMP JUMPDEST PUSH1 0x40 MLOAD DUP1 SWAP2 SUB SWAP1 RETURN JUMPDEST PUSH1 0x60 PUSH1 0x1 PUSH1 0x40 MLOAD PUSH1 0x20 ADD PUSH2 0x8B SWAP2 SWAP1 PUSH2 0x247 JUMP JUMPDEST PUSH1 0x40 MLOAD PUSH1 0x20 DUP2 DUP4 SUB SUB DUP2 MSTORE SWAP1 PUSH1 0x40 MSTORE SWAP1 POP SWAP1 JUMP JUMPDEST PUSH1 0x60 PUSH1 0x1 PUSH1 0x40 MLOAD PUSH1 0x20 ADD PUSH2 0xB3 SWAP2 SWAP1 PUSH2 0x310 JUMP JUMPDEST PUSH1 0x40 MLOAD PUSH1 0x20 DUP2 DUP4 SUB SUB DUP2 MSTORE SWAP1 PUSH1 0x40 MSTORE SWAP1 POP SWAP1 JUMP JUMPDEST PUSH1 0x0 DUP2 MLOAD SWAP1 POP SWAP2 SWAP1 POP JUMP JUMPDEST PUSH1 0x0 DUP3 DUP3 MSTORE PUSH1 0x20 DUP3 ADD SWAP1 POP SWAP3 SWAP2 POP POP JUMP JUMPDEST PUSH1 0x0 JUMPDEST DUP4 DUP2 LT ISZERO PUSH2 0x101 JUMPI DUP1 DUP3 ADD MLOAD DUP2 DUP5 ADD MSTORE PUSH1 0x20 DUP2 ADD SWAP1 POP PUSH2 0xE6 JUMP JUMPDEST PUSH1 0x0 DUP5 DUP5 ADD MSTORE POP POP POP POP JUMP JUMPDEST PUSH1 0x0 PUSH1 0x1F NOT PUSH1 0x1F DUP4 ADD AND SWAP1 POP SWAP2 SWAP1 POP JUMP JUMPDEST PUSH1 0x0 PUSH2 0x129 DUP3 PUSH2 0xC7 JUMP JUMPDEST PUSH2 0x133 DUP2 DUP6 PUSH2 0xD2 JUMP JUMPDEST SWAP4 POP PUSH2 0x143 DUP2 DUP6 PUSH1 0x20 DUP7 ADD PUSH2 0xE3 JUMP JUMPDEST PUSH2 0x14C DUP2 PUSH2 0x10D JUMP JUMPDEST DUP5 ADD SWAP2 POP POP SWAP3 SWAP2 POP POP JUMP JUMPDEST PUSH1 0x0 PUSH1 0x20 DUP3 ADD SWAP1 POP DUP2 DUP2 SUB PUSH1 0x0 DUP4 ADD MSTORE PUSH2 0x171 DUP2 DUP5 PUSH2 0x11E JUMP JUMPDEST SWAP1 POP SWAP3 SWAP2 POP POP JUMP JUMPDEST PUSH1 0x0 DUP2 SWAP1 POP SWAP3 SWAP2 POP POP JUMP JUMPDEST PUSH32 0x6161620000000000000000000000000000000000000000000000000000000000 PUSH1 0x0 DUP3 ADD MSTORE POP JUMP JUMPDEST PUSH1 0x0 PUSH2 0x1BA PUSH1 0x3 DUP4 PUSH2 0x179 JUMP JUMPDEST SWAP2 POP PUSH2 0x1C5 DUP3 PUSH2 0x184 JUMP JUMPDEST PUSH1 0x3 DUP3 ADD SWAP1 POP SWAP2 SWAP1 POP JUMP JUMPDEST PUSH1 0x0 DUP2 SWAP1 POP SWAP2 SWAP1 POP JUMP JUMPDEST PUSH1 0x0 DUP2 SWAP1 POP SWAP2 SWAP1 POP JUMP JUMPDEST PUSH2 0x1F5 PUSH2 0x1F0 DUP3 PUSH2 0x1D0 JUMP JUMPDEST PUSH2 0x1DA JUMP JUMPDEST DUP3 MSTORE POP POP JUMP JUMPDEST PUSH32 0x6200000000000000000000000000000000000000000000000000000000000000 PUSH1 0x0 DUP3 ADD MSTORE POP JUMP JUMPDEST PUSH1 0x0 PUSH2 0x231 PUSH1 0x1 DUP4 PUSH2 0x179 JUMP JUMPDEST SWAP2 POP PUSH2 0x23C DUP3 PUSH2 0x1FB JUMP JUMPDEST PUSH1 0x1 DUP3 ADD SWAP1 POP SWAP2 SWAP1 POP JUMP JUMPDEST PUSH1 0x0 PUSH2 0x252 DUP3 PUSH2 0x1AD JUMP JUMPDEST SWAP2 POP PUSH2 0x25E DUP3 DUP5 PUSH2 0x1E4 JUMP JUMPDEST PUSH1 0x20 DUP3 ADD SWAP2 POP PUSH2 0x26D DUP3 PUSH2 0x224 JUMP JUMPDEST SWAP2 POP DUP2 SWAP1 POP SWAP3 SWAP2 POP POP JUMP JUMPDEST PUSH32 0x6161000000000000000000000000000000000000000000000000000000000000 PUSH1 0x0 DUP3 ADD MSTORE POP JUMP JUMPDEST PUSH1 0x0 PUSH2 0x2AE PUSH1 0x2 DUP4 PUSH2 0x179 JUMP JUMPDEST SWAP2 POP PUSH2 0x2B9 DUP3 PUSH2 0x278 JUMP JUMPDEST PUSH1 0x2 DUP3 ADD SWAP1 POP SWAP2 SWAP1 POP JUMP JUMPDEST PUSH32 0x6262000000000000000000000000000000000000000000000000000000000000 PUSH1 0x0 DUP3 ADD MSTORE POP JUMP JUMPDEST PUSH1 0x0 PUSH2 0x2FA PUSH1 0x2 DUP4 PUSH2 0x179 JUMP JUMPDEST SWAP2 POP PUSH2 0x305 DUP3 PUSH2 0x2C4 JUMP JUMPDEST PUSH1 0x2 DUP3 ADD SWAP1 POP SWAP2 SWAP1 POP JUMP JUMPDEST PUSH1 0x0 PUSH2 0x31B DUP3 PUSH2 0x2A1 JUMP JUMPDEST SWAP2 POP PUSH2 0x327 DUP3 DUP5 PUSH2 0x1E4 JUMP JUMPDEST PUSH1 0x20 DUP3 ADD SWAP2 POP PUSH2 0x336 DUP3 PUSH2 0x2ED JUMP JUMPDEST SWAP2 POP DUP2 SWAP1 POP SWAP3 SWAP2 POP POP JUMP INVALID LOG2 PUSH5 0x6970667358 0x22 SLT KECCAK256 XOR CREATE 0x1F SWAP3 0xA8 0x25 0xC0 0xE0 POP SWAP9 0x2A SELFDESTRUCT 0xB7 REVERT NOT ISZERO DELEGATECALL SLT 0xD6 0xAF SWAP3 PUSH4 0x8E646751 0x22 BALANCE PUSH28 0x5E483064736F6C634300081200330000000000000000000000000000 "
				},
				"gasEstimates": {
					"creation": {
						"codeDepositCost": "177400",
						"executionCost": "220",
						"totalCost": "177620"
					},
					"external": {
						"encode1()": "infinite",
						"encode2()": "infinite"
					}
				},
				"methodIdentifiers": {
					"encode1()": "ed18232b",
					"encode2()": "bed7532c"
				}
			},
			"storageLayout": {
				"storage": [],
				"types": null
			},
			"userdoc": {
				"kind": "user",
				"methods": {},
				"version": 1
			}
		}
	}
}