{
	"哈希算法/Hash1.sol": {
		"Hash": {
			"abi": [
				{
					"inputs": [],
					"name": "encode1",
					"outputs": [
						{
							"internalType": "bytes",
							"name": "",
							"type": "bytes"
						}
					],
					"stateMutability": "pure",
					"type": "function"
				},
				{
					"inputs": [],
					"name": "encode2",
					"outputs": [
						{
							"internalType": "bytes",
							"name": "",
							"type": "bytes"
						}
					],
					"stateMutability": "pure",
					"type": "function"
				}
			],
			"devdoc": {
				"kind": "dev",
				"methods": {},
				"version": 1
			},
			"evm": {
				"assembly": "    /* \"\\xe5\\x93\\x88\\xe5\\xb8\\x8c\\xe7\\xae\\x97\\xe6\\xb3\\x95/Hash1.sol\":60:308  contract Hash {... */\n  mstore(0x40, 0x80)\n  callvalue\n  dup1\n  iszero\n  tag_1\n  jumpi\n  0x00\n  dup1\n  revert\ntag_1:\n  pop\n  dataSize(sub_0)\n  dup1\n  dataOffset(sub_0)\n  0x00\n  codecopy\n  0x00\n  return\nstop\n\nsub_0: assembly {\n        /* \"\\xe5\\x93\\x88\\xe5\\xb8\\x8c\\xe7\\xae\\x97\\xe6\\xb3\\x95/Hash1.sol\":60:308  contract Hash {... */\n      mstore(0x40, 0x80)\n      callvalue\n      dup1\n      iszero\n      tag_1\n      jumpi\n      0x00\n      dup1\n      revert\n    tag_1:\n      pop\n      jumpi(tag_2, lt(calldatasize, 0x04))\n      shr(0xe0, calldataload(0x00))\n      dup1\n      0xbed7532c\n      eq\n      tag_3\n      jumpi\n      dup1\n      0xed18232b\n      eq\n      tag_4\n      jumpi\n    tag_2:\n      0x00\n      dup1\n      revert\n        /* \"\\xe5\\x93\\x88\\xe5\\xb8\\x8c\\xe7\\xae\\x97\\xe6\\xb3\\x95/Hash1.sol\":197:305  function encode2() external pure returns(bytes memory) {... */\n    tag_3:\n      tag_5\n      tag_6\n      jump\t// in\n    tag_5:\n      mload(0x40)\n      tag_7\n      swap2\n      swap1\n      tag_8\n      jump\t// in\n    tag_7:\n      mload(0x40)\n      dup1\n      swap2\n      sub\n      swap1\n      return\n        /* \"\\xe5\\x93\\x88\\xe5\\xb8\\x8c\\xe7\\xae\\x97\\xe6\\xb3\\x95/Hash1.sol\":81:189  function encode1() external pure returns(bytes memory) {... */\n    tag_4:\n      tag_9\n      tag_10\n      jump\t// in\n    tag_9:\n      mload(0x40)\n      tag_11\n      swap2\n      swap1\n      tag_8\n      jump\t// in\n    tag_11:\n      mload(0x40)\n      dup1\n      swap2\n      sub\n      swap1\n      return\n        /* \"\\xe5\\x93\\x88\\xe5\\xb8\\x8c\\xe7\\xae\\x97\\xe6\\xb3\\x95/Hash1.sol\":197:305  function encode2() external pure returns(bytes memory) {... */\n    tag_6:\n        /* \"\\xe5\\x93\\x88\\xe5\\xb8\\x8c\\xe7\\xae\\x97\\xe6\\xb3\\x95/Hash1.sol\":238:250  bytes memory */\n      0x60\n        /* \"\\xe5\\x93\\x88\\xe5\\xb8\\x8c\\xe7\\xae\\x97\\xe6\\xb3\\x95/Hash1.sol\":270:297  abi.encodePacked(\"aab\",\"b\") */\n      add(0x20, mload(0x40))\n      tag_13\n      swap1\n      tag_14\n      jump\t// in\n    tag_13:\n      mload(0x40)\n      0x20\n      dup2\n      dup4\n      sub\n      sub\n      dup2\n      mstore\n      swap1\n      0x40\n      mstore\n        /* \"\\xe5\\x93\\x88\\xe5\\xb8\\x8c\\xe7\\xae\\x97\\xe6\\xb3\\x95/Hash1.sol\":263:297  return abi.encodePacked(\"aab\",\"b\") */\n      swap1\n      pop\n        /* \"\\xe5\\x93\\x88\\xe5\\xb8\\x8c\\xe7\\xae\\x97\\xe6\\xb3\\x95/Hash1.sol\":197:305  function encode2() external pure returns(bytes memory) {... */\n      swap1\n      jump\t// out\n        /* \"\\xe5\\x93\\x88\\xe5\\xb8\\x8c\\xe7\\xae\\x97\\xe6\\xb3\\x95/Hash1.sol\":81:189  function encode1() external pure returns(bytes memory) {... */\n    tag_10:\n        /* \"\\xe5\\x93\\x88\\xe5\\xb8\\x8c\\xe7\\xae\\x97\\xe6\\xb3\\x95/Hash1.sol\":122:134  bytes memory */\n      0x60\n        /* \"\\xe5\\x93\\x88\\xe5\\xb8\\x8c\\xe7\\xae\\x97\\xe6\\xb3\\x95/Hash1.sol\":154:181  abi.encodePacked(\"aa\",\"bb\") */\n      add(0x20, mload(0x40))\n      tag_16\n      swap1\n      tag_17\n      jump\t// in\n    tag_16:\n      mload(0x40)\n      0x20\n      dup2\n      dup4\n      sub\n      sub\n      dup2\n      mstore\n      swap1\n      0x40\n      mstore\n        /* \"\\xe5\\x93\\x88\\xe5\\xb8\\x8c\\xe7\\xae\\x97\\xe6\\xb3\\x95/Hash1.sol\":147:181  return abi.encodePacked(\"aa\",\"bb\") */\n      swap1\n      pop\n        /* \"\\xe5\\x93\\x88\\xe5\\xb8\\x8c\\xe7\\xae\\x97\\xe6\\xb3\\x95/Hash1.sol\":81:189  function encode1() external pure returns(bytes memory) {... */\n      swap1\n      jump\t// out\n        /* \"#utility.yul\":7:105   */\n    tag_18:\n        /* \"#utility.yul\":58:64   */\n      0x00\n        /* \"#utility.yul\":92:97   */\n      dup2\n        /* \"#utility.yul\":86:98   */\n      mload\n        /* \"#utility.yul\":76:98   */\n      swap1\n      pop\n        /* \"#utility.yul\":7:105   */\n      swap2\n      swap1\n      pop\n      jump\t// out\n        /* \"#utility.yul\":111:279   */\n    tag_19:\n        /* \"#utility.yul\":194:205   */\n      0x00\n        /* \"#utility.yul\":228:234   */\n      dup3\n        /* \"#utility.yul\":223:226   */\n      dup3\n        /* \"#utility.yul\":216:235   */\n      mstore\n        /* \"#utility.yul\":268:272   */\n      0x20\n        /* \"#utility.yul\":263:266   */\n      dup3\n        /* \"#utility.yul\":259:273   */\n      add\n        /* \"#utility.yul\":244:273   */\n      swap1\n      pop\n        /* \"#utility.yul\":111:279   */\n      swap3\n      swap2\n      pop\n      pop\n      jump\t// out\n        /* \"#utility.yul\":285:531   */\n    tag_20:\n        /* \"#utility.yul\":366:367   */\n      0x00\n        /* \"#utility.yul\":376:489   */\n    tag_36:\n        /* \"#utility.yul\":390:396   */\n      dup4\n        /* \"#utility.yul\":387:388   */\n      dup2\n        /* \"#utility.yul\":384:397   */\n      lt\n        /* \"#utility.yul\":376:489   */\n      iszero\n      tag_38\n      jumpi\n        /* \"#utility.yul\":475:476   */\n      dup1\n        /* \"#utility.yul\":470:473   */\n      dup3\n        /* \"#utility.yul\":466:477   */\n      add\n        /* \"#utility.yul\":460:478   */\n      mload\n        /* \"#utility.yul\":456:457   */\n      dup2\n        /* \"#utility.yul\":451:454   */\n      dup5\n        /* \"#utility.yul\":447:458   */\n      add\n        /* \"#utility.yul\":440:479   */\n      mstore\n        /* \"#utility.yul\":412:414   */\n      0x20\n        /* \"#utility.yul\":409:410   */\n      dup2\n        /* \"#utility.yul\":405:415   */\n      add\n        /* \"#utility.yul\":400:415   */\n      swap1\n      pop\n        /* \"#utility.yul\":376:489   */\n      jump(tag_36)\n    tag_38:\n        /* \"#utility.yul\":523:524   */\n      0x00\n        /* \"#utility.yul\":514:520   */\n      dup5\n        /* \"#utility.yul\":509:512   */\n      dup5\n        /* \"#utility.yul\":505:521   */\n      add\n        /* \"#utility.yul\":498:525   */\n      mstore\n        /* \"#utility.yul\":347:531   */\n      pop\n        /* \"#utility.yul\":285:531   */\n      pop\n      pop\n      pop\n      jump\t// out\n        /* \"#utility.yul\":537:639   */\n    tag_21:\n        /* \"#utility.yul\":578:584   */\n      0x00\n        /* \"#utility.yul\":629:631   */\n      0x1f\n        /* \"#utility.yul\":625:632   */\n      not\n        /* \"#utility.yul\":620:622   */\n      0x1f\n        /* \"#utility.yul\":613:618   */\n      dup4\n        /* \"#utility.yul\":609:623   */\n      add\n        /* \"#utility.yul\":605:633   */\n      and\n        /* \"#utility.yul\":595:633   */\n      swap1\n      pop\n        /* \"#utility.yul\":537:639   */\n      swap2\n      swap1\n      pop\n      jump\t// out\n        /* \"#utility.yul\":645:1018   */\n    tag_22:\n        /* \"#utility.yul\":731:734   */\n      0x00\n        /* \"#utility.yul\":759:797   */\n      tag_41\n        /* \"#utility.yul\":791:796   */\n      dup3\n        /* \"#utility.yul\":759:797   */\n      tag_18\n      jump\t// in\n    tag_41:\n        /* \"#utility.yul\":813:883   */\n      tag_42\n        /* \"#utility.yul\":876:882   */\n      dup2\n        /* \"#utility.yul\":871:874   */\n      dup6\n        /* \"#utility.yul\":813:883   */\n      tag_19\n      jump\t// in\n    tag_42:\n        /* \"#utility.yul\":806:883   */\n      swap4\n      pop\n        /* \"#utility.yul\":892:957   */\n      tag_43\n        /* \"#utility.yul\":950:956   */\n      dup2\n        /* \"#utility.yul\":945:948   */\n      dup6\n        /* \"#utility.yul\":938:942   */\n      0x20\n        /* \"#utility.yul\":931:936   */\n      dup7\n        /* \"#utility.yul\":927:943   */\n      add\n        /* \"#utility.yul\":892:957   */\n      tag_20\n      jump\t// in\n    tag_43:\n        /* \"#utility.yul\":982:1011   */\n      tag_44\n        /* \"#utility.yul\":1004:1010   */\n      dup2\n        /* \"#utility.yul\":982:1011   */\n      tag_21\n      jump\t// in\n    tag_44:\n        /* \"#utility.yul\":977:980   */\n      dup5\n        /* \"#utility.yul\":973:1012   */\n      add\n        /* \"#utility.yul\":966:1012   */\n      swap2\n      pop\n        /* \"#utility.yul\":735:1018   */\n      pop\n        /* \"#utility.yul\":645:1018   */\n      swap3\n      swap2\n      pop\n      pop\n      jump\t// out\n        /* \"#utility.yul\":1024:1333   */\n    tag_8:\n        /* \"#utility.yul\":1135:1139   */\n      0x00\n        /* \"#utility.yul\":1173:1175   */\n      0x20\n        /* \"#utility.yul\":1162:1171   */\n      dup3\n        /* \"#utility.yul\":1158:1176   */\n      add\n        /* \"#utility.yul\":1150:1176   */\n      swap1\n      pop\n        /* \"#utility.yul\":1222:1231   */\n      dup2\n        /* \"#utility.yul\":1216:1220   */\n      dup2\n        /* \"#utility.yul\":1212:1232   */\n      sub\n        /* \"#utility.yul\":1208:1209   */\n      0x00\n        /* \"#utility.yul\":1197:1206   */\n      dup4\n        /* \"#utility.yul\":1193:1210   */\n      add\n        /* \"#utility.yul\":1186:1233   */\n      mstore\n        /* \"#utility.yul\":1250:1326   */\n      tag_46\n        /* \"#utility.yul\":1321:1325   */\n      dup2\n        /* \"#utility.yul\":1312:1318   */\n      dup5\n        /* \"#utility.yul\":1250:1326   */\n      tag_22\n      jump\t// in\n    tag_46:\n        /* \"#utility.yul\":1242:1326   */\n      swap1\n      pop\n        /* \"#utility.yul\":1024:1333   */\n      swap3\n      swap2\n      pop\n      pop\n      jump\t// out\n        /* \"#utility.yul\":1339:1487   */\n    tag_23:\n        /* \"#utility.yul\":1441:1452   */\n      0x00\n        /* \"#utility.yul\":1478:1481   */\n      dup2\n        /* \"#utility.yul\":1463:1481   */\n      swap1\n      pop\n        /* \"#utility.yul\":1339:1487   */\n      swap3\n      swap2\n      pop\n      pop\n      jump\t// out\n        /* \"#utility.yul\":1493:1646   */\n    tag_24:\n        /* \"#utility.yul\":1633:1638   */\n      0x6161620000000000000000000000000000000000000000000000000000000000\n        /* \"#utility.yul\":1629:1630   */\n      0x00\n        /* \"#utility.yul\":1621:1627   */\n      dup3\n        /* \"#utility.yul\":1617:1631   */\n      add\n        /* \"#utility.yul\":1610:1639   */\n      mstore\n        /* \"#utility.yul\":1493:1646   */\n      pop\n      jump\t// out\n        /* \"#utility.yul\":1652:2052   */\n    tag_25:\n        /* \"#utility.yul\":1812:1815   */\n      0x00\n        /* \"#utility.yul\":1833:1917   */\n      tag_50\n        /* \"#utility.yul\":1915:1916   */\n      0x03\n        /* \"#utility.yul\":1910:1913   */\n      dup4\n        /* \"#utility.yul\":1833:1917   */\n      tag_23\n      jump\t// in\n    tag_50:\n        /* \"#utility.yul\":1826:1917   */\n      swap2\n      pop\n        /* \"#utility.yul\":1926:2019   */\n      tag_51\n        /* \"#utility.yul\":2015:2018   */\n      dup3\n        /* \"#utility.yul\":1926:2019   */\n      tag_24\n      jump\t// in\n    tag_51:\n        /* \"#utility.yul\":2044:2045   */\n      0x03\n        /* \"#utility.yul\":2039:2042   */\n      dup3\n        /* \"#utility.yul\":2035:2046   */\n      add\n        /* \"#utility.yul\":2028:2046   */\n      swap1\n      pop\n        /* \"#utility.yul\":1652:2052   */\n      swap2\n      swap1\n      pop\n      jump\t// out\n        /* \"#utility.yul\":2058:2209   */\n    tag_26:\n        /* \"#utility.yul\":2198:2201   */\n      0x6200000000000000000000000000000000000000000000000000000000000000\n        /* \"#utility.yul\":2194:2195   */\n      0x00\n        /* \"#utility.yul\":2186:2192   */\n      dup3\n        /* \"#utility.yul\":2182:2196   */\n      add\n        /* \"#utility.yul\":2175:2202   */\n      mstore\n        /* \"#utility.yul\":2058:2209   */\n      pop\n      jump\t// out\n        /* \"#utility.yul\":2215:2615   */\n    tag_27:\n        /* \"#utility.yul\":2375:2378   */\n      0x00\n        /* \"#utility.yul\":2396:2480   */\n      tag_54\n        /* \"#utility.yul\":2478:2479   */\n      0x01\n        /* \"#utility.yul\":2473:2476   */\n      dup4\n        /* \"#utility.yul\":2396:2480   */\n      tag_23\n      jump\t// in\n    tag_54:\n        /* \"#utility.yul\":2389:2480   */\n      swap2\n      pop\n        /* \"#utility.yul\":2489:2582   */\n      tag_55\n        /* \"#utility.yul\":2578:2581   */\n      dup3\n        /* \"#utility.yul\":2489:2582   */\n      tag_26\n      jump\t// in\n    tag_55:\n        /* \"#utility.yul\":2607:2608   */\n      0x01\n        /* \"#utility.yul\":2602:2605   */\n      dup3\n        /* \"#utility.yul\":2598:2609   */\n      add\n        /* \"#utility.yul\":2591:2609   */\n      swap1\n      pop\n        /* \"#utility.yul\":2215:2615   */\n      swap2\n      swap1\n      pop\n      jump\t// out\n        /* \"#utility.yul\":2621:3268   */\n    tag_14:\n        /* \"#utility.yul\":2907:2910   */\n      0x00\n        /* \"#utility.yul\":2929:3077   */\n      tag_57\n        /* \"#utility.yul\":3073:3076   */\n      dup3\n        /* \"#utility.yul\":2929:3077   */\n      tag_25\n      jump\t// in\n    tag_57:\n        /* \"#utility.yul\":2922:3077   */\n      swap2\n      pop\n        /* \"#utility.yul\":3094:3242   */\n      tag_58\n        /* \"#utility.yul\":3238:3241   */\n      dup3\n        /* \"#utility.yul\":3094:3242   */\n      tag_27\n      jump\t// in\n    tag_58:\n        /* \"#utility.yul\":3087:3242   */\n      swap2\n      pop\n        /* \"#utility.yul\":3259:3262   */\n      dup2\n        /* \"#utility.yul\":3252:3262   */\n      swap1\n      pop\n        /* \"#utility.yul\":2621:3268   */\n      swap2\n      swap1\n      pop\n      jump\t// out\n        /* \"#utility.yul\":3274:3426   */\n    tag_28:\n        /* \"#utility.yul\":3414:3418   */\n      0x6161000000000000000000000000000000000000000000000000000000000000\n        /* \"#utility.yul\":3410:3411   */\n      0x00\n        /* \"#utility.yul\":3402:3408   */\n      dup3\n        /* \"#utility.yul\":3398:3412   */\n      add\n        /* \"#utility.yul\":3391:3419   */\n      mstore\n        /* \"#utility.yul\":3274:3426   */\n      pop\n      jump\t// out\n        /* \"#utility.yul\":3432:3832   */\n    tag_29:\n        /* \"#utility.yul\":3592:3595   */\n      0x00\n        /* \"#utility.yul\":3613:3697   */\n      tag_61\n        /* \"#utility.yul\":3695:3696   */\n      0x02\n        /* \"#utility.yul\":3690:3693   */\n      dup4\n        /* \"#utility.yul\":3613:3697   */\n      tag_23\n      jump\t// in\n    tag_61:\n        /* \"#utility.yul\":3606:3697   */\n      swap2\n      pop\n        /* \"#utility.yul\":3706:3799   */\n      tag_62\n        /* \"#utility.yul\":3795:3798   */\n      dup3\n        /* \"#utility.yul\":3706:3799   */\n      tag_28\n      jump\t// in\n    tag_62:\n        /* \"#utility.yul\":3824:3825   */\n      0x02\n        /* \"#utility.yul\":3819:3822   */\n      dup3\n        /* \"#utility.yul\":3815:3826   */\n      add\n        /* \"#utility.yul\":3808:3826   */\n      swap1\n      pop\n        /* \"#utility.yul\":3432:3832   */\n      swap2\n      swap1\n      pop\n      jump\t// out\n        /* \"#utility.yul\":3838:3990   */\n    tag_30:\n        /* \"#utility.yul\":3978:3982   */\n      0x6262000000000000000000000000000000000000000000000000000000000000\n        /* \"#utility.yul\":3974:3975   */\n      0x00\n        /* \"#utility.yul\":3966:3972   */\n      dup3\n        /* \"#utility.yul\":3962:3976   */\n      add\n        /* \"#utility.yul\":3955:3983   */\n      mstore\n        /* \"#utility.yul\":3838:3990   */\n      pop\n      jump\t// out\n        /* \"#utility.yul\":3996:4396   */\n    tag_31:\n        /* \"#utility.yul\":4156:4159   */\n      0x00\n        /* \"#utility.yul\":4177:4261   */\n      tag_65\n        /* \"#utility.yul\":4259:4260   */\n      0x02\n        /* \"#utility.yul\":4254:4257   */\n      dup4\n        /* \"#utility.yul\":4177:4261   */\n      tag_23\n      jump\t// in\n    tag_65:\n        /* \"#utility.yul\":4170:4261   */\n      swap2\n      pop\n        /* \"#utility.yul\":4270:4363   */\n      tag_66\n        /* \"#utility.yul\":4359:4362   */\n      dup3\n        /* \"#utility.yul\":4270:4363   */\n      tag_30\n      jump\t// in\n    tag_66:\n        /* \"#utility.yul\":4388:4389   */\n      0x02\n        /* \"#utility.yul\":4383:4386   */\n      dup3\n        /* \"#utility.yul\":4379:4390   */\n      add\n        /* \"#utility.yul\":4372:4390   */\n      swap1\n      pop\n        /* \"#utility.yul\":3996:4396   */\n      swap2\n      swap1\n      pop\n      jump\t// out\n        /* \"#utility.yul\":4402:5049   */\n    tag_17:\n        /* \"#utility.yul\":4688:4691   */\n      0x00\n        /* \"#utility.yul\":4710:4858   */\n      tag_68\n        /* \"#utility.yul\":4854:4857   */\n      dup3\n        /* \"#utility.yul\":4710:4858   */\n      tag_29\n      jump\t// in\n    tag_68:\n        /* \"#utility.yul\":4703:4858   */\n      swap2\n      pop\n        /* \"#utility.yul\":4875:5023   */\n      tag_69\n        /* \"#utility.yul\":5019:5022   */\n      dup3\n        /* \"#utility.yul\":4875:5023   */\n      tag_31\n      jump\t// in\n    tag_69:\n        /* \"#utility.yul\":4868:5023   */\n      swap2\n      pop\n        /* \"#utility.yul\":5040:5043   */\n      dup2\n        /* \"#utility.yul\":5033:5043   */\n      swap1\n      pop\n        /* \"#utility.yul\":4402:5049   */\n      swap2\n      swap1\n      pop\n      jump\t// out\n\n    auxdata: 0xa264697066735822122017a55cc7db3d2805ccbb38c5621589425ad78318248fce4f958bbbcd974d5b4c64736f6c63430008120033\n}\n",
				"bytecode": {
					"linkReferences": {},
					"object": "608060405234801561001057600080fd5b50610324806100206000396000f3fe608060405234801561001057600080fd5b50600436106100365760003560e01c8063bed7532c1461003b578063ed18232b14610059575b600080fd5b610043610077565b6040516100509190610151565b60405180910390f35b61006161009c565b60405161006e9190610151565b60405180910390f35b606060405160200161008890610216565b604051602081830303815290604052905090565b60606040516020016100ad906102ce565b604051602081830303815290604052905090565b600081519050919050565b600082825260208201905092915050565b60005b838110156100fb5780820151818401526020810190506100e0565b60008484015250505050565b6000601f19601f8301169050919050565b6000610123826100c1565b61012d81856100cc565b935061013d8185602086016100dd565b61014681610107565b840191505092915050565b6000602082019050818103600083015261016b8184610118565b905092915050565b600081905092915050565b7f6161620000000000000000000000000000000000000000000000000000000000600082015250565b60006101b4600383610173565b91506101bf8261017e565b600382019050919050565b7f6200000000000000000000000000000000000000000000000000000000000000600082015250565b6000610200600183610173565b915061020b826101ca565b600182019050919050565b6000610221826101a7565b915061022c826101f3565b9150819050919050565b7f6161000000000000000000000000000000000000000000000000000000000000600082015250565b600061026c600283610173565b915061027782610236565b600282019050919050565b7f6262000000000000000000000000000000000000000000000000000000000000600082015250565b60006102b8600283610173565b91506102c382610282565b600282019050919050565b60006102d98261025f565b91506102e4826102ab565b915081905091905056fea264697066735822122017a55cc7db3d2805ccbb38c5621589425ad78318248fce4f958bbbcd974d5b4c64736f6c63430008120033",
					"opcodes": "PUSH1 0x80 PUSH1 0x40 MSTORE CALLVALUE DUP1 ISZERO PUSH2 0x10 JUMPI PUSH1 0x0 DUP1 REVERT JUMPDEST POP PUSH2 0x324 DUP1 PUSH2 0x20 PUSH1 0x0 CODECOPY PUSH1 0x0 RETURN INVALID PUSH1 0x80 PUSH1 0x40 MSTORE CALLVALUE DUP1 ISZERO PUSH2 0x10 JUMPI PUSH1 0x0 DUP1 REVERT JUMPDEST POP PUSH1 0x4 CALLDATASIZE LT PUSH2 0x36 JUMPI PUSH1 0x0 CALLDATALOAD PUSH1 0xE0 SHR DUP1 PUSH4 0xBED7532C EQ PUSH2 0x3B JUMPI DUP1 PUSH4 0xED18232B EQ PUSH2 0x59 JUMPI JUMPDEST PUSH1 0x0 DUP1 REVERT JUMPDEST PUSH2 0x43 PUSH2 0x77 JUMP JUMPDEST PUSH1 0x40 MLOAD PUSH2 0x50 SWAP2 SWAP1 PUSH2 0x151 JUMP JUMPDEST PUSH1 0x40 MLOAD DUP1 SWAP2 SUB SWAP1 RETURN JUMPDEST PUSH2 0x61 PUSH2 0x9C JUMP JUMPDEST PUSH1 0x40 MLOAD PUSH2 0x6E SWAP2 SWAP1 PUSH2 0x151 JUMP JUMPDEST PUSH1 0x40 MLOAD DUP1 SWAP2 SUB SWAP1 RETURN JUMPDEST PUSH1 0x60 PUSH1 0x40 MLOAD PUSH1 0x20 ADD PUSH2 0x88 SWAP1 PUSH2 0x216 JUMP JUMPDEST PUSH1 0x40 MLOAD PUSH1 0x20 DUP2 DUP4 SUB SUB DUP2 MSTORE SWAP1 PUSH1 0x40 MSTORE SWAP1 POP SWAP1 JUMP JUMPDEST PUSH1 0x60 PUSH1 0x40 MLOAD PUSH1 0x20 ADD PUSH2 0xAD SWAP1 PUSH2 0x2CE JUMP JUMPDEST PUSH1 0x40 MLOAD PUSH1 0x20 DUP2 DUP4 SUB SUB DUP2 MSTORE SWAP1 PUSH1 0x40 MSTORE SWAP1 POP SWAP1 JUMP JUMPDEST PUSH1 0x0 DUP2 MLOAD SWAP1 POP SWAP2 SWAP1 POP JUMP JUMPDEST PUSH1 0x0 DUP3 DUP3 MSTORE PUSH1 0x20 DUP3 ADD SWAP1 POP SWAP3 SWAP2 POP POP JUMP JUMPDEST PUSH1 0x0 JUMPDEST DUP4 DUP2 LT ISZERO PUSH2 0xFB JUMPI DUP1 DUP3 ADD MLOAD DUP2 DUP5 ADD MSTORE PUSH1 0x20 DUP2 ADD SWAP1 POP PUSH2 0xE0 JUMP JUMPDEST PUSH1 0x0 DUP5 DUP5 ADD MSTORE POP POP POP POP JUMP JUMPDEST PUSH1 0x0 PUSH1 0x1F NOT PUSH1 0x1F DUP4 ADD AND SWAP1 POP SWAP2 SWAP1 POP JUMP JUMPDEST PUSH1 0x0 PUSH2 0x123 DUP3 PUSH2 0xC1 JUMP JUMPDEST PUSH2 0x12D DUP2 DUP6 PUSH2 0xCC JUMP JUMPDEST SWAP4 POP PUSH2 0x13D DUP2 DUP6 PUSH1 0x20 DUP7 ADD PUSH2 0xDD JUMP JUMPDEST PUSH2 0x146 DUP2 PUSH2 0x107 JUMP JUMPDEST DUP5 ADD SWAP2 POP POP SWAP3 SWAP2 POP POP JUMP JUMPDEST PUSH1 0x0 PUSH1 0x20 DUP3 ADD SWAP1 POP DUP2 DUP2 SUB PUSH1 0x0 DUP4 ADD MSTORE PUSH2 0x16B DUP2 DUP5 PUSH2 0x118 JUMP JUMPDEST SWAP1 POP SWAP3 SWAP2 POP POP JUMP JUMPDEST PUSH1 0x0 DUP2 SWAP1 POP SWAP3 SWAP2 POP POP JUMP JUMPDEST PUSH32 0x6161620000000000000000000000000000000000000000000000000000000000 PUSH1 0x0 DUP3 ADD MSTORE POP JUMP JUMPDEST PUSH1 0x0 PUSH2 0x1B4 PUSH1 0x3 DUP4 PUSH2 0x173 JUMP JUMPDEST SWAP2 POP PUSH2 0x1BF DUP3 PUSH2 0x17E JUMP JUMPDEST PUSH1 0x3 DUP3 ADD SWAP1 POP SWAP2 SWAP1 POP JUMP JUMPDEST PUSH32 0x6200000000000000000000000000000000000000000000000000000000000000 PUSH1 0x0 DUP3 ADD MSTORE POP JUMP JUMPDEST PUSH1 0x0 PUSH2 0x200 PUSH1 0x1 DUP4 PUSH2 0x173 JUMP JUMPDEST SWAP2 POP PUSH2 0x20B DUP3 PUSH2 0x1CA JUMP JUMPDEST PUSH1 0x1 DUP3 ADD SWAP1 POP SWAP2 SWAP1 POP JUMP JUMPDEST PUSH1 0x0 PUSH2 0x221 DUP3 PUSH2 0x1A7 JUMP JUMPDEST SWAP2 POP PUSH2 0x22C DUP3 PUSH2 0x1F3 JUMP JUMPDEST SWAP2 POP DUP2 SWAP1 POP SWAP2 SWAP1 POP JUMP JUMPDEST PUSH32 0x6161000000000000000000000000000000000000000000000000000000000000 PUSH1 0x0 DUP3 ADD MSTORE POP JUMP JUMPDEST PUSH1 0x0 PUSH2 0x26C PUSH1 0x2 DUP4 PUSH2 0x173 JUMP JUMPDEST SWAP2 POP PUSH2 0x277 DUP3 PUSH2 0x236 JUMP JUMPDEST PUSH1 0x2 DUP3 ADD SWAP1 POP SWAP2 SWAP1 POP JUMP JUMPDEST PUSH32 0x6262000000000000000000000000000000000000000000000000000000000000 PUSH1 0x0 DUP3 ADD MSTORE POP JUMP JUMPDEST PUSH1 0x0 PUSH2 0x2B8 PUSH1 0x2 DUP4 PUSH2 0x173 JUMP JUMPDEST SWAP2 POP PUSH2 0x2C3 DUP3 PUSH2 0x282 JUMP JUMPDEST PUSH1 0x2 DUP3 ADD SWAP1 POP SWAP2 SWAP1 POP JUMP JUMPDEST PUSH1 0x0 PUSH2 0x2D9 DUP3 PUSH2 0x25F JUMP JUMPDEST SWAP2 POP PUSH2 0x2E4 DUP3 PUSH2 0x2AB JUMP JUMPDEST SWAP2 POP DUP2 SWAP1 POP SWAP2 SWAP1 POP JUMP INVALID LOG2 PUSH5 0x6970667358 0x22 SLT KECCAK256 OR 0xA5 0x5C 0xC7 0xDB RETURNDATASIZE 0x28 SDIV 0xCC 0xBB CODESIZE 0xC5 PUSH3 0x158942 GAS 0xD7 DUP4 XOR 0x24 DUP16 0xCE 0x4F SWAP6 DUP12 0xBB 0xCD SWAP8 0x4D JUMPDEST 0x4C PUSH5 0x736F6C6343 STOP ADDMOD SLT STOP CALLER "
				},
				"gasEstimates": {
					"creation": {
						"codeDepositCost": "160800",
						"executionCost": "208",
						"totalCost": "161008"
					},
					"external": {
						"encode1()": "infinite",
						"encode2()": "infinite"
					}
				},
				"methodIdentifiers": {
					"encode1()": "ed18232b",
					"encode2()": "bed7532c"
				}
			},
			"storageLayout": {
				"storage": [],
				"types": null
			},
			"userdoc": {
				"kind": "user",
				"methods": {},
				"version": 1
			}
		}
	}
}