{
	"address/PayableKeyword.sol": {
		"PayableKeyword": {
			"abi": [
				{
					"constant": true,
					"inputs": [],
					"name": "getOwnerBalance",
					"outputs": [
						{
							"name": "",
							"type": "uint256"
						}
					],
					"payable": false,
					"stateMutability": "view",
					"type": "function"
				},
				{
					"constant": true,
					"inputs": [],
					"name": "getAccount2Balance",
					"outputs": [
						{
							"name": "",
							"type": "uint256"
						}
					],
					"payable": false,
					"stateMutability": "view",
					"type": "function"
				},
				{
					"constant": false,
					"inputs": [],
					"name": "deposit",
					"outputs": [],
					"payable": true,
					"stateMutability": "payable",
					"type": "function"
				}
			],
			"devdoc": {
				"methods": {}
			},
			"evm": {
				"assembly": "    /* \"address/PayableKeyword.sol\":60:796  contract PayableKeyword {\r... */\n  mstore(0x40, 0x80)\n  callvalue\n    /* \"--CODEGEN--\":8:17   */\n  dup1\n    /* \"--CODEGEN--\":5:7   */\n  iszero\n  tag_1\n  jumpi\n    /* \"--CODEGEN--\":30:31   */\n  0x0\n    /* \"--CODEGEN--\":27:28   */\n  dup1\n    /* \"--CODEGEN--\":20:32   */\n  revert\n    /* \"--CODEGEN--\":5:7   */\ntag_1:\n    /* \"address/PayableKeyword.sol\":60:796  contract PayableKeyword {\r... */\n  pop\n  dataSize(sub_0)\n  dup1\n  dataOffset(sub_0)\n  0x0\n  codecopy\n  0x0\n  return\nstop\n\nsub_0: assembly {\n        /* \"address/PayableKeyword.sol\":60:796  contract PayableKeyword {\r... */\n      mstore(0x40, 0x80)\n      jumpi(tag_1, lt(calldatasize, 0x4))\n      calldataload(0x0)\n      0x100000000000000000000000000000000000000000000000000000000\n      swap1\n      div\n      0xffffffff\n      and\n      dup1\n      0x590791f2\n      eq\n      tag_2\n      jumpi\n      dup1\n      0xa27ef644\n      eq\n      tag_3\n      jumpi\n      dup1\n      0xd0e30db0\n      eq\n      tag_4\n      jumpi\n    tag_1:\n      0x0\n      dup1\n      revert\n        /* \"address/PayableKeyword.sol\":664:791  function getOwnerBalance() constant returns (uint) {\r... */\n    tag_2:\n      callvalue\n        /* \"--CODEGEN--\":8:17   */\n      dup1\n        /* \"--CODEGEN--\":5:7   */\n      iszero\n      tag_5\n      jumpi\n        /* \"--CODEGEN--\":30:31   */\n      0x0\n        /* \"--CODEGEN--\":27:28   */\n      dup1\n        /* \"--CODEGEN--\":20:32   */\n      revert\n        /* \"--CODEGEN--\":5:7   */\n    tag_5:\n        /* \"address/PayableKeyword.sol\":664:791  function getOwnerBalance() constant returns (uint) {\r... */\n      pop\n      tag_6\n      jump(tag_7)\n    tag_6:\n      mload(0x40)\n      dup1\n      dup3\n      dup2\n      mstore\n      0x20\n      add\n      swap2\n      pop\n      pop\n      mload(0x40)\n      dup1\n      swap2\n      sub\n      swap1\n      return\n        /* \"address/PayableKeyword.sol\":448:616  function getAccount2Balance() constant returns (uint) {\r... */\n    tag_3:\n      callvalue\n        /* \"--CODEGEN--\":8:17   */\n      dup1\n        /* \"--CODEGEN--\":5:7   */\n      iszero\n      tag_8\n      jumpi\n        /* \"--CODEGEN--\":30:31   */\n      0x0\n        /* \"--CODEGEN--\":27:28   */\n      dup1\n        /* \"--CODEGEN--\":20:32   */\n      revert\n        /* \"--CODEGEN--\":5:7   */\n    tag_8:\n        /* \"address/PayableKeyword.sol\":448:616  function getAccount2Balance() constant returns (uint) {\r... */\n      pop\n      tag_9\n      jump(tag_10)\n    tag_9:\n      mload(0x40)\n      dup1\n      dup3\n      dup2\n      mstore\n      0x20\n      add\n      swap2\n      pop\n      pop\n      mload(0x40)\n      dup1\n      swap2\n      sub\n      swap1\n      return\n        /* \"address/PayableKeyword.sol\":219:365  function deposit() payable {\r... */\n    tag_4:\n      tag_11\n      jump(tag_12)\n    tag_11:\n      stop\n        /* \"address/PayableKeyword.sol\":664:791  function getOwnerBalance() constant returns (uint) {\r... */\n    tag_7:\n        /* \"address/PayableKeyword.sol\":709:713  uint */\n      0x0\n        /* \"address/PayableKeyword.sol\":726:739  address Owner */\n      dup1\n        /* \"address/PayableKeyword.sol\":742:752  msg.sender */\n      caller\n        /* \"address/PayableKeyword.sol\":726:752  address Owner = msg.sender */\n      swap1\n      pop\n        /* \"address/PayableKeyword.sol\":770:775  Owner */\n      dup1\n        /* \"address/PayableKeyword.sol\":770:783  Owner.balance */\n      0xffffffffffffffffffffffffffffffffffffffff\n      and\n      balance\n        /* \"address/PayableKeyword.sol\":763:783  return Owner.balance */\n      swap2\n      pop\n        /* \"address/PayableKeyword.sol\":664:791  function getOwnerBalance() constant returns (uint) {\r... */\n      pop\n      swap1\n      jump\t// out\n        /* \"address/PayableKeyword.sol\":448:616  function getAccount2Balance() constant returns (uint) {\r... */\n    tag_10:\n        /* \"address/PayableKeyword.sol\":496:500  uint */\n      0x0\n        /* \"address/PayableKeyword.sol\":513:529  address Account2 */\n      dup1\n        /* \"address/PayableKeyword.sol\":532:574  0x78731D3Ca6b7E34aC0F824c42a7cC18A495cabaB */\n      0x78731d3ca6b7e34ac0f824c42a7cc18a495cabab\n        /* \"address/PayableKeyword.sol\":513:574  address Account2 = 0x78731D3Ca6b7E34aC0F824c42a7cC18A495cabaB */\n      swap1\n      pop\n        /* \"address/PayableKeyword.sol\":592:600  Account2 */\n      dup1\n        /* \"address/PayableKeyword.sol\":592:608  Account2.balance */\n      0xffffffffffffffffffffffffffffffffffffffff\n      and\n      balance\n        /* \"address/PayableKeyword.sol\":585:608  return Account2.balance */\n      swap2\n      pop\n        /* \"address/PayableKeyword.sol\":448:616  function getAccount2Balance() constant returns (uint) {\r... */\n      pop\n      swap1\n      jump\t// out\n        /* \"address/PayableKeyword.sol\":219:365  function deposit() payable {\r... */\n    tag_12:\n        /* \"address/PayableKeyword.sol\":257:273  address Account2 */\n      0x0\n        /* \"address/PayableKeyword.sol\":276:318  0x78731D3Ca6b7E34aC0F824c42a7cC18A495cabaB */\n      0x78731d3ca6b7e34ac0f824c42a7cc18a495cabab\n        /* \"address/PayableKeyword.sol\":257:318  address Account2 = 0x78731D3Ca6b7E34aC0F824c42a7cC18A495cabaB */\n      swap1\n      pop\n        /* \"address/PayableKeyword.sol\":329:337  Account2 */\n      dup1\n        /* \"address/PayableKeyword.sol\":329:346  Account2.transfer */\n      0xffffffffffffffffffffffffffffffffffffffff\n      and\n        /* \"address/PayableKeyword.sol\":329:357  Account2.transfer(msg.value) */\n      0x8fc\n        /* \"address/PayableKeyword.sol\":347:356  msg.value */\n      callvalue\n        /* \"address/PayableKeyword.sol\":329:357  Account2.transfer(msg.value) */\n      swap1\n      dup2\n      iszero\n      mul\n      swap1\n      mload(0x40)\n      0x0\n      mload(0x40)\n      dup1\n      dup4\n      sub\n      dup2\n      dup6\n      dup9\n      dup9\n      call\n      swap4\n      pop\n      pop\n      pop\n      pop\n      iszero\n        /* \"--CODEGEN--\":8:17   */\n      dup1\n        /* \"--CODEGEN--\":5:7   */\n      iszero\n      tag_16\n      jumpi\n        /* \"--CODEGEN--\":45:61   */\n      returndatasize\n        /* \"--CODEGEN--\":42:43   */\n      0x0\n        /* \"--CODEGEN--\":39:40   */\n      dup1\n        /* \"--CODEGEN--\":24:62   */\n      returndatacopy\n        /* \"--CODEGEN--\":77:93   */\n      returndatasize\n        /* \"--CODEGEN--\":74:75   */\n      0x0\n        /* \"--CODEGEN--\":67:94   */\n      revert\n        /* \"--CODEGEN--\":5:7   */\n    tag_16:\n        /* \"address/PayableKeyword.sol\":329:357  Account2.transfer(msg.value) */\n      pop\n        /* \"address/PayableKeyword.sol\":219:365  function deposit() payable {\r... */\n      pop\n      jump\t// out\n\n    auxdata: 0xa165627a7a723058206131e7fc819cdafe7fc0f9a8c060020dc500068d61b365b8b783dc6c20ed24c90029\n}\n",
				"bytecode": {
					"linkReferences": {},
					"object": "608060405234801561001057600080fd5b506101a7806100206000396000f300608060405260043610610057576000357c0100000000000000000000000000000000000000000000000000000000900463ffffffff168063590791f21461005c578063a27ef64414610087578063d0e30db0146100b2575b600080fd5b34801561006857600080fd5b506100716100bc565b6040518082815260200191505060405180910390f35b34801561009357600080fd5b5061009c6100e0565b6040518082815260200191505060405180910390f35b6100ba610118565b005b6000803390508073ffffffffffffffffffffffffffffffffffffffff163191505090565b6000807378731d3ca6b7e34ac0f824c42a7cc18a495cabab90508073ffffffffffffffffffffffffffffffffffffffff163191505090565b60007378731d3ca6b7e34ac0f824c42a7cc18a495cabab90508073ffffffffffffffffffffffffffffffffffffffff166108fc349081150290604051600060405180830381858888f19350505050158015610177573d6000803e3d6000fd5b50505600a165627a7a723058206131e7fc819cdafe7fc0f9a8c060020dc500068d61b365b8b783dc6c20ed24c90029",
					"opcodes": "PUSH1 0x80 PUSH1 0x40 MSTORE CALLVALUE DUP1 ISZERO PUSH2 0x10 JUMPI PUSH1 0x0 DUP1 REVERT JUMPDEST POP PUSH2 0x1A7 DUP1 PUSH2 0x20 PUSH1 0x0 CODECOPY PUSH1 0x0 RETURN STOP PUSH1 0x80 PUSH1 0x40 MSTORE PUSH1 0x4 CALLDATASIZE LT PUSH2 0x57 JUMPI PUSH1 0x0 CALLDATALOAD PUSH29 0x100000000000000000000000000000000000000000000000000000000 SWAP1 DIV PUSH4 0xFFFFFFFF AND DUP1 PUSH4 0x590791F2 EQ PUSH2 0x5C JUMPI DUP1 PUSH4 0xA27EF644 EQ PUSH2 0x87 JUMPI DUP1 PUSH4 0xD0E30DB0 EQ PUSH2 0xB2 JUMPI JUMPDEST PUSH1 0x0 DUP1 REVERT JUMPDEST CALLVALUE DUP1 ISZERO PUSH2 0x68 JUMPI PUSH1 0x0 DUP1 REVERT JUMPDEST POP PUSH2 0x71 PUSH2 0xBC JUMP JUMPDEST PUSH1 0x40 MLOAD DUP1 DUP3 DUP2 MSTORE PUSH1 0x20 ADD SWAP2 POP POP PUSH1 0x40 MLOAD DUP1 SWAP2 SUB SWAP1 RETURN JUMPDEST CALLVALUE DUP1 ISZERO PUSH2 0x93 JUMPI PUSH1 0x0 DUP1 REVERT JUMPDEST POP PUSH2 0x9C PUSH2 0xE0 JUMP JUMPDEST PUSH1 0x40 MLOAD DUP1 DUP3 DUP2 MSTORE PUSH1 0x20 ADD SWAP2 POP POP PUSH1 0x40 MLOAD DUP1 SWAP2 SUB SWAP1 RETURN JUMPDEST PUSH2 0xBA PUSH2 0x118 JUMP JUMPDEST STOP JUMPDEST PUSH1 0x0 DUP1 CALLER SWAP1 POP DUP1 PUSH20 0xFFFFFFFFFFFFFFFFFFFFFFFFFFFFFFFFFFFFFFFF AND BALANCE SWAP2 POP POP SWAP1 JUMP JUMPDEST PUSH1 0x0 DUP1 PUSH20 0x78731D3CA6B7E34AC0F824C42A7CC18A495CABAB SWAP1 POP DUP1 PUSH20 0xFFFFFFFFFFFFFFFFFFFFFFFFFFFFFFFFFFFFFFFF AND BALANCE SWAP2 POP POP SWAP1 JUMP JUMPDEST PUSH1 0x0 PUSH20 0x78731D3CA6B7E34AC0F824C42A7CC18A495CABAB SWAP1 POP DUP1 PUSH20 0xFFFFFFFFFFFFFFFFFFFFFFFFFFFFFFFFFFFFFFFF AND PUSH2 0x8FC CALLVALUE SWAP1 DUP2 ISZERO MUL SWAP1 PUSH1 0x40 MLOAD PUSH1 0x0 PUSH1 0x40 MLOAD DUP1 DUP4 SUB DUP2 DUP6 DUP9 DUP9 CALL SWAP4 POP POP POP POP ISZERO DUP1 ISZERO PUSH2 0x177 JUMPI RETURNDATASIZE PUSH1 0x0 DUP1 RETURNDATACOPY RETURNDATASIZE PUSH1 0x0 REVERT JUMPDEST POP POP JUMP STOP LOG1 PUSH6 0x627A7A723058 KECCAK256 PUSH2 0x31E7 0xfc DUP2 SWAP13 0xda INVALID PUSH32 0xC0F9A8C060020DC500068D61B365B8B783DC6C20ED24C9002900000000000000 "
				},
				"gasEstimates": {
					"creation": {
						"codeDepositCost": "84600",
						"executionCost": "135",
						"totalCost": "84735"
					},
					"external": {
						"deposit()": "infinite",
						"getAccount2Balance()": "643",
						"getOwnerBalance()": "620"
					}
				},
				"methodIdentifiers": {
					"deposit()": "d0e30db0",
					"getAccount2Balance()": "a27ef644",
					"getOwnerBalance()": "590791f2"
				}
			},
			"userdoc": {
				"methods": {}
			}
		}
	}
}