{
	"address/test1.sol": {
		"Test": {
			"abi": [
				{
					"constant": true,
					"inputs": [],
					"name": "returnContractAddress",
					"outputs": [
						{
							"name": "",
							"type": "address"
						}
					],
					"payable": false,
					"stateMutability": "view",
					"type": "function"
				},
				{
					"constant": false,
					"inputs": [],
					"name": "setNumberAdd1",
					"outputs": [],
					"payable": false,
					"stateMutability": "nonpayable",
					"type": "function"
				},
				{
					"constant": true,
					"inputs": [],
					"name": "msgSenderAddress",
					"outputs": [
						{
							"name": "",
							"type": "address"
						}
					],
					"payable": false,
					"stateMutability": "view",
					"type": "function"
				},
				{
					"constant": true,
					"inputs": [],
					"name": "_owner",
					"outputs": [
						{
							"name": "",
							"type": "address"
						}
					],
					"payable": false,
					"stateMutability": "view",
					"type": "function"
				},
				{
					"constant": false,
					"inputs": [],
					"name": "setNumberAdd2",
					"outputs": [],
					"payable": false,
					"stateMutability": "nonpayable",
					"type": "function"
				},
				{
					"constant": true,
					"inputs": [],
					"name": "_number",
					"outputs": [
						{
							"name": "",
							"type": "uint256"
						}
					],
					"payable": false,
					"stateMutability": "view",
					"type": "function"
				},
				{
					"inputs": [],
					"payable": false,
					"stateMutability": "nonpayable",
					"type": "constructor"
				}
			],
			"devdoc": {
				"methods": {}
			},
			"evm": {
				"assembly": "    /* \"address/test1.sol\":60:618  contract Test {\r... */\n  mstore(0x40, 0x80)\n    /* \"address/test1.sol\":141:219  function Test() {\r... */\n  callvalue\n    /* \"--CODEGEN--\":8:17   */\n  dup1\n    /* \"--CODEGEN--\":5:7   */\n  iszero\n  tag_1\n  jumpi\n    /* \"--CODEGEN--\":30:31   */\n  0x0\n    /* \"--CODEGEN--\":27:28   */\n  dup1\n    /* \"--CODEGEN--\":20:32   */\n  revert\n    /* \"--CODEGEN--\":5:7   */\ntag_1:\n    /* \"address/test1.sol\":141:219  function Test() {\r... */\n  pop\n    /* \"address/test1.sol\":177:187  msg.sender */\n  caller\n    /* \"address/test1.sol\":168:174  _owner */\n  0x0\n  dup1\n    /* \"address/test1.sol\":168:187  _owner = msg.sender */\n  0x100\n  exp\n  dup2\n  sload\n  dup2\n  0xffffffffffffffffffffffffffffffffffffffff\n  mul\n  not\n  and\n  swap1\n  dup4\n  0xffffffffffffffffffffffffffffffffffffffff\n  and\n  mul\n  or\n  swap1\n  sstore\n  pop\n    /* \"address/test1.sol\":208:211  100 */\n  0x64\n    /* \"address/test1.sol\":198:205  _number */\n  0x1\n    /* \"address/test1.sol\":198:211  _number = 100 */\n  dup2\n  swap1\n  sstore\n  pop\n    /* \"address/test1.sol\":60:618  contract Test {\r... */\n  dataSize(sub_0)\n  dup1\n  dataOffset(sub_0)\n  0x0\n  codecopy\n  0x0\n  return\nstop\n\nsub_0: assembly {\n        /* \"address/test1.sol\":60:618  contract Test {\r... */\n      mstore(0x40, 0x80)\n      jumpi(tag_1, lt(calldatasize, 0x4))\n      calldataload(0x0)\n      0x100000000000000000000000000000000000000000000000000000000\n      swap1\n      div\n      0xffffffff\n      and\n      dup1\n      0x589a27c\n      eq\n      tag_2\n      jumpi\n      dup1\n      0x36760c39\n      eq\n      tag_3\n      jumpi\n      dup1\n      0x971f7b91\n      eq\n      tag_4\n      jumpi\n      dup1\n      0xb2bdfa7b\n      eq\n      tag_5\n      jumpi\n      dup1\n      0xc5d72930\n      eq\n      tag_6\n      jumpi\n      dup1\n      0xf9bd55cc\n      eq\n      tag_7\n      jumpi\n    tag_1:\n      0x0\n      dup1\n      revert\n        /* \"address/test1.sol\":524:613  function returnContractAddress() constant returns(address) {\r... */\n    tag_2:\n      callvalue\n        /* \"--CODEGEN--\":8:17   */\n      dup1\n        /* \"--CODEGEN--\":5:7   */\n      iszero\n      tag_8\n      jumpi\n        /* \"--CODEGEN--\":30:31   */\n      0x0\n        /* \"--CODEGEN--\":27:28   */\n      dup1\n        /* \"--CODEGEN--\":20:32   */\n      revert\n        /* \"--CODEGEN--\":5:7   */\n    tag_8:\n        /* \"address/test1.sol\":524:613  function returnContractAddress() constant returns(address) {\r... */\n      pop\n      tag_9\n      jump(tag_10)\n    tag_9:\n      mload(0x40)\n      dup1\n      dup3\n      0xffffffffffffffffffffffffffffffffffffffff\n      and\n      0xffffffffffffffffffffffffffffffffffffffff\n      and\n      dup2\n      mstore\n      0x20\n      add\n      swap2\n      pop\n      pop\n      mload(0x40)\n      dup1\n      swap2\n      sub\n      swap1\n      return\n        /* \"address/test1.sol\":325:390  function setNumberAdd1() {\r... */\n    tag_3:\n      callvalue\n        /* \"--CODEGEN--\":8:17   */\n      dup1\n        /* \"--CODEGEN--\":5:7   */\n      iszero\n      tag_11\n      jumpi\n        /* \"--CODEGEN--\":30:31   */\n      0x0\n        /* \"--CODEGEN--\":27:28   */\n      dup1\n        /* \"--CODEGEN--\":20:32   */\n      revert\n        /* \"--CODEGEN--\":5:7   */\n    tag_11:\n        /* \"address/test1.sol\":325:390  function setNumberAdd1() {\r... */\n      pop\n      tag_12\n      jump(tag_13)\n    tag_12:\n      stop\n        /* \"address/test1.sol\":227:317  function msgSenderAddress() constant returns(address) {\r... */\n    tag_4:\n      callvalue\n        /* \"--CODEGEN--\":8:17   */\n      dup1\n        /* \"--CODEGEN--\":5:7   */\n      iszero\n      tag_14\n      jumpi\n        /* \"--CODEGEN--\":30:31   */\n      0x0\n        /* \"--CODEGEN--\":27:28   */\n      dup1\n        /* \"--CODEGEN--\":20:32   */\n      revert\n        /* \"--CODEGEN--\":5:7   */\n    tag_14:\n        /* \"address/test1.sol\":227:317  function msgSenderAddress() constant returns(address) {\r... */\n      pop\n      tag_15\n      jump(tag_16)\n    tag_15:\n      mload(0x40)\n      dup1\n      dup3\n      0xffffffffffffffffffffffffffffffffffffffff\n      and\n      0xffffffffffffffffffffffffffffffffffffffff\n      and\n      dup2\n      mstore\n      0x20\n      add\n      swap2\n      pop\n      pop\n      mload(0x40)\n      dup1\n      swap2\n      sub\n      swap1\n      return\n        /* \"address/test1.sol\":83:104  address public _owner */\n    tag_5:\n      callvalue\n        /* \"--CODEGEN--\":8:17   */\n      dup1\n        /* \"--CODEGEN--\":5:7   */\n      iszero\n      tag_17\n      jumpi\n        /* \"--CODEGEN--\":30:31   */\n      0x0\n        /* \"--CODEGEN--\":27:28   */\n      dup1\n        /* \"--CODEGEN--\":20:32   */\n      revert\n        /* \"--CODEGEN--\":5:7   */\n    tag_17:\n        /* \"address/test1.sol\":83:104  address public _owner */\n      pop\n      tag_18\n      jump(tag_19)\n    tag_18:\n      mload(0x40)\n      dup1\n      dup3\n      0xffffffffffffffffffffffffffffffffffffffff\n      and\n      0xffffffffffffffffffffffffffffffffffffffff\n      and\n      dup2\n      mstore\n      0x20\n      add\n      swap2\n      pop\n      pop\n      mload(0x40)\n      dup1\n      swap2\n      sub\n      swap1\n      return\n        /* \"address/test1.sol\":398:516  function setNumberAdd2() {\r... */\n    tag_6:\n      callvalue\n        /* \"--CODEGEN--\":8:17   */\n      dup1\n        /* \"--CODEGEN--\":5:7   */\n      iszero\n      tag_20\n      jumpi\n        /* \"--CODEGEN--\":30:31   */\n      0x0\n        /* \"--CODEGEN--\":27:28   */\n      dup1\n        /* \"--CODEGEN--\":20:32   */\n      revert\n        /* \"--CODEGEN--\":5:7   */\n    tag_20:\n        /* \"address/test1.sol\":398:516  function setNumberAdd2() {\r... */\n      pop\n      tag_21\n      jump(tag_22)\n    tag_21:\n      stop\n        /* \"address/test1.sol\":113:132  uint public _number */\n    tag_7:\n      callvalue\n        /* \"--CODEGEN--\":8:17   */\n      dup1\n        /* \"--CODEGEN--\":5:7   */\n      iszero\n      tag_23\n      jumpi\n        /* \"--CODEGEN--\":30:31   */\n      0x0\n        /* \"--CODEGEN--\":27:28   */\n      dup1\n        /* \"--CODEGEN--\":20:32   */\n      revert\n        /* \"--CODEGEN--\":5:7   */\n    tag_23:\n        /* \"address/test1.sol\":113:132  uint public _number */\n      pop\n      tag_24\n      jump(tag_25)\n    tag_24:\n      mload(0x40)\n      dup1\n      dup3\n      dup2\n      mstore\n      0x20\n      add\n      swap2\n      pop\n      pop\n      mload(0x40)\n      dup1\n      swap2\n      sub\n      swap1\n      return\n        /* \"address/test1.sol\":524:613  function returnContractAddress() constant returns(address) {\r... */\n    tag_10:\n        /* \"address/test1.sol\":574:581  address */\n      0x0\n        /* \"address/test1.sol\":601:605  this */\n      address\n        /* \"address/test1.sol\":594:605  return this */\n      swap1\n      pop\n        /* \"address/test1.sol\":524:613  function returnContractAddress() constant returns(address) {\r... */\n      swap1\n      jump\t// out\n        /* \"address/test1.sol\":325:390  function setNumberAdd1() {\r... */\n    tag_13:\n        /* \"address/test1.sol\":381:382  5 */\n      0x5\n        /* \"address/test1.sol\":371:378  _number */\n      sload(0x1)\n        /* \"address/test1.sol\":371:382  _number + 5 */\n      add\n        /* \"address/test1.sol\":361:368  _number */\n      0x1\n        /* \"address/test1.sol\":361:382  _number = _number + 5 */\n      dup2\n      swap1\n      sstore\n      pop\n        /* \"address/test1.sol\":325:390  function setNumberAdd1() {\r... */\n      jump\t// out\n        /* \"address/test1.sol\":227:317  function msgSenderAddress() constant returns(address) {\r... */\n    tag_16:\n        /* \"address/test1.sol\":272:279  address */\n      0x0\n        /* \"address/test1.sol\":299:309  msg.sender */\n      caller\n        /* \"address/test1.sol\":292:309  return msg.sender */\n      swap1\n      pop\n        /* \"address/test1.sol\":227:317  function msgSenderAddress() constant returns(address) {\r... */\n      swap1\n      jump\t// out\n        /* \"address/test1.sol\":83:104  address public _owner */\n    tag_19:\n      0x0\n      dup1\n      swap1\n      sload\n      swap1\n      0x100\n      exp\n      swap1\n      div\n      0xffffffffffffffffffffffffffffffffffffffff\n      and\n      dup2\n      jump\t// out\n        /* \"address/test1.sol\":398:516  function setNumberAdd2() {\r... */\n    tag_22:\n        /* \"address/test1.sol\":448:458  msg.sender */\n      caller\n        /* \"address/test1.sol\":438:458  _owner == msg.sender */\n      0xffffffffffffffffffffffffffffffffffffffff\n      and\n        /* \"address/test1.sol\":438:444  _owner */\n      0x0\n      dup1\n      swap1\n      sload\n      swap1\n      0x100\n      exp\n      swap1\n      div\n      0xffffffffffffffffffffffffffffffffffffffff\n      and\n        /* \"address/test1.sol\":438:458  _owner == msg.sender */\n      0xffffffffffffffffffffffffffffffffffffffff\n      and\n      eq\n        /* \"address/test1.sol\":434:509  if (_owner == msg.sender) {\r... */\n      iszero\n      tag_30\n      jumpi\n        /* \"address/test1.sol\":495:497  10 */\n      0xa\n        /* \"address/test1.sol\":485:492  _number */\n      sload(0x1)\n        /* \"address/test1.sol\":485:497  _number + 10 */\n      add\n        /* \"address/test1.sol\":475:482  _number */\n      0x1\n        /* \"address/test1.sol\":475:497  _number = _number + 10 */\n      dup2\n      swap1\n      sstore\n      pop\n        /* \"address/test1.sol\":434:509  if (_owner == msg.sender) {\r... */\n    tag_30:\n        /* \"address/test1.sol\":398:516  function setNumberAdd2() {\r... */\n      jump\t// out\n        /* \"address/test1.sol\":113:132  uint public _number */\n    tag_25:\n      sload(0x1)\n      dup2\n      jump\t// out\n\n    auxdata: 0xa165627a7a7230582026ea71aa0b31a38c08f27454a3c29ddc9e77fbcc1bde139204199de52bc755db0029\n}\n",
				"bytecode": {
					"linkReferences": {},
					"object": "608060405234801561001057600080fd5b50336000806101000a81548173ffffffffffffffffffffffffffffffffffffffff021916908373ffffffffffffffffffffffffffffffffffffffff16021790555060646001819055506102b4806100686000396000f300608060405260043610610078576000357c0100000000000000000000000000000000000000000000000000000000900463ffffffff1680630589a27c1461007d57806336760c39146100d4578063971f7b91146100eb578063b2bdfa7b14610142578063c5d7293014610199578063f9bd55cc146101b0575b600080fd5b34801561008957600080fd5b506100926101db565b604051808273ffffffffffffffffffffffffffffffffffffffff1673ffffffffffffffffffffffffffffffffffffffff16815260200191505060405180910390f35b3480156100e057600080fd5b506100e96101e3565b005b3480156100f757600080fd5b506101006101f1565b604051808273ffffffffffffffffffffffffffffffffffffffff1673ffffffffffffffffffffffffffffffffffffffff16815260200191505060405180910390f35b34801561014e57600080fd5b506101576101f9565b604051808273ffffffffffffffffffffffffffffffffffffffff1673ffffffffffffffffffffffffffffffffffffffff16815260200191505060405180910390f35b3480156101a557600080fd5b506101ae61021e565b005b3480156101bc57600080fd5b506101c5610282565b6040518082815260200191505060405180910390f35b600030905090565b600560015401600181905550565b600033905090565b6000809054906101000a900473ffffffffffffffffffffffffffffffffffffffff1681565b3373ffffffffffffffffffffffffffffffffffffffff166000809054906101000a900473ffffffffffffffffffffffffffffffffffffffff1673ffffffffffffffffffffffffffffffffffffffff16141561028057600a600154016001819055505b565b600154815600a165627a7a7230582026ea71aa0b31a38c08f27454a3c29ddc9e77fbcc1bde139204199de52bc755db0029",
					"opcodes": "PUSH1 0x80 PUSH1 0x40 MSTORE CALLVALUE DUP1 ISZERO PUSH2 0x10 JUMPI PUSH1 0x0 DUP1 REVERT JUMPDEST POP CALLER PUSH1 0x0 DUP1 PUSH2 0x100 EXP DUP2 SLOAD DUP2 PUSH20 0xFFFFFFFFFFFFFFFFFFFFFFFFFFFFFFFFFFFFFFFF MUL NOT AND SWAP1 DUP4 PUSH20 0xFFFFFFFFFFFFFFFFFFFFFFFFFFFFFFFFFFFFFFFF AND MUL OR SWAP1 SSTORE POP PUSH1 0x64 PUSH1 0x1 DUP2 SWAP1 SSTORE POP PUSH2 0x2B4 DUP1 PUSH2 0x68 PUSH1 0x0 CODECOPY PUSH1 0x0 RETURN STOP PUSH1 0x80 PUSH1 0x40 MSTORE PUSH1 0x4 CALLDATASIZE LT PUSH2 0x78 JUMPI PUSH1 0x0 CALLDATALOAD PUSH29 0x100000000000000000000000000000000000000000000000000000000 SWAP1 DIV PUSH4 0xFFFFFFFF AND DUP1 PUSH4 0x589A27C EQ PUSH2 0x7D JUMPI DUP1 PUSH4 0x36760C39 EQ PUSH2 0xD4 JUMPI DUP1 PUSH4 0x971F7B91 EQ PUSH2 0xEB JUMPI DUP1 PUSH4 0xB2BDFA7B EQ PUSH2 0x142 JUMPI DUP1 PUSH4 0xC5D72930 EQ PUSH2 0x199 JUMPI DUP1 PUSH4 0xF9BD55CC EQ PUSH2 0x1B0 JUMPI JUMPDEST PUSH1 0x0 DUP1 REVERT JUMPDEST CALLVALUE DUP1 ISZERO PUSH2 0x89 JUMPI PUSH1 0x0 DUP1 REVERT JUMPDEST POP PUSH2 0x92 PUSH2 0x1DB JUMP JUMPDEST PUSH1 0x40 MLOAD DUP1 DUP3 PUSH20 0xFFFFFFFFFFFFFFFFFFFFFFFFFFFFFFFFFFFFFFFF AND PUSH20 0xFFFFFFFFFFFFFFFFFFFFFFFFFFFFFFFFFFFFFFFF AND DUP2 MSTORE PUSH1 0x20 ADD SWAP2 POP POP PUSH1 0x40 MLOAD DUP1 SWAP2 SUB SWAP1 RETURN JUMPDEST CALLVALUE DUP1 ISZERO PUSH2 0xE0 JUMPI PUSH1 0x0 DUP1 REVERT JUMPDEST POP PUSH2 0xE9 PUSH2 0x1E3 JUMP JUMPDEST STOP JUMPDEST CALLVALUE DUP1 ISZERO PUSH2 0xF7 JUMPI PUSH1 0x0 DUP1 REVERT JUMPDEST POP PUSH2 0x100 PUSH2 0x1F1 JUMP JUMPDEST PUSH1 0x40 MLOAD DUP1 DUP3 PUSH20 0xFFFFFFFFFFFFFFFFFFFFFFFFFFFFFFFFFFFFFFFF AND PUSH20 0xFFFFFFFFFFFFFFFFFFFFFFFFFFFFFFFFFFFFFFFF AND DUP2 MSTORE PUSH1 0x20 ADD SWAP2 POP POP PUSH1 0x40 MLOAD DUP1 SWAP2 SUB SWAP1 RETURN JUMPDEST CALLVALUE DUP1 ISZERO PUSH2 0x14E JUMPI PUSH1 0x0 DUP1 REVERT JUMPDEST POP PUSH2 0x157 PUSH2 0x1F9 JUMP JUMPDEST PUSH1 0x40 MLOAD DUP1 DUP3 PUSH20 0xFFFFFFFFFFFFFFFFFFFFFFFFFFFFFFFFFFFFFFFF AND PUSH20 0xFFFFFFFFFFFFFFFFFFFFFFFFFFFFFFFFFFFFFFFF AND DUP2 MSTORE PUSH1 0x20 ADD SWAP2 POP POP PUSH1 0x40 MLOAD DUP1 SWAP2 SUB SWAP1 RETURN JUMPDEST CALLVALUE DUP1 ISZERO PUSH2 0x1A5 JUMPI PUSH1 0x0 DUP1 REVERT JUMPDEST POP PUSH2 0x1AE PUSH2 0x21E JUMP JUMPDEST STOP JUMPDEST CALLVALUE DUP1 ISZERO PUSH2 0x1BC JUMPI PUSH1 0x0 DUP1 REVERT JUMPDEST POP PUSH2 0x1C5 PUSH2 0x282 JUMP JUMPDEST PUSH1 0x40 MLOAD DUP1 DUP3 DUP2 MSTORE PUSH1 0x20 ADD SWAP2 POP POP PUSH1 0x40 MLOAD DUP1 SWAP2 SUB SWAP1 RETURN JUMPDEST PUSH1 0x0 ADDRESS SWAP1 POP SWAP1 JUMP JUMPDEST PUSH1 0x5 PUSH1 0x1 SLOAD ADD PUSH1 0x1 DUP2 SWAP1 SSTORE POP JUMP JUMPDEST PUSH1 0x0 CALLER SWAP1 POP SWAP1 JUMP JUMPDEST PUSH1 0x0 DUP1 SWAP1 SLOAD SWAP1 PUSH2 0x100 EXP SWAP1 DIV PUSH20 0xFFFFFFFFFFFFFFFFFFFFFFFFFFFFFFFFFFFFFFFF AND DUP2 JUMP JUMPDEST CALLER PUSH20 0xFFFFFFFFFFFFFFFFFFFFFFFFFFFFFFFFFFFFFFFF AND PUSH1 0x0 DUP1 SWAP1 SLOAD SWAP1 PUSH2 0x100 EXP SWAP1 DIV PUSH20 0xFFFFFFFFFFFFFFFFFFFFFFFFFFFFFFFFFFFFFFFF AND PUSH20 0xFFFFFFFFFFFFFFFFFFFFFFFFFFFFFFFFFFFFFFFF AND EQ ISZERO PUSH2 0x280 JUMPI PUSH1 0xA PUSH1 0x1 SLOAD ADD PUSH1 0x1 DUP2 SWAP1 SSTORE POP JUMPDEST JUMP JUMPDEST PUSH1 0x1 SLOAD DUP2 JUMP STOP LOG1 PUSH6 0x627A7A723058 KECCAK256 0x26 0xea PUSH18 0xAA0B31A38C08F27454A3C29DDC9E77FBCC1B 0xde SGT SWAP3 DIV NOT SWAP14 0xe5 0x2b 0xc7 SSTORE 0xdb STOP 0x29 "
				},
				"gasEstimates": {
					"creation": {
						"codeDepositCost": "138400",
						"executionCost": "40463",
						"totalCost": "178863"
					},
					"external": {
						"_number()": "504",
						"_owner()": "508",
						"msgSenderAddress()": "257",
						"returnContractAddress()": "213",
						"setNumberAdd1()": "20375",
						"setNumberAdd2()": "20714"
					}
				},
				"methodIdentifiers": {
					"_number()": "f9bd55cc",
					"_owner()": "b2bdfa7b",
					"msgSenderAddress()": "971f7b91",
					"returnContractAddress()": "0589a27c",
					"setNumberAdd1()": "36760c39",
					"setNumberAdd2()": "c5d72930"
				}
			},
			"userdoc": {
				"methods": {}
			}
		}
	}
}