{
	"view函数/test.sol": {
		"ViewDemo": {
			"abi": [
				{
					"inputs": [
						{
							"internalType": "uint256",
							"name": "num",
							"type": "uint256"
						}
					],
					"name": "getResult",
					"outputs": [
						{
							"internalType": "uint256",
							"name": "",
							"type": "uint256"
						}
					],
					"stateMutability": "view",
					"type": "function"
				}
			],
			"devdoc": {
				"kind": "dev",
				"methods": {},
				"version": 1
			},
			"evm": {
				"assembly": "    /* \"view\\xe5\\x87\\xbd\\xe6\\x95\\xb0/test.sol\":60:255  contract ViewDemo {\r... */\n  mstore(0x40, 0x80)\n    /* \"view\\xe5\\x87\\xbd\\xe6\\x95\\xb0/test.sol\":99:100  2 */\n  0x02\n    /* \"view\\xe5\\x87\\xbd\\xe6\\x95\\xb0/test.sol\":85:100  uint factor = 2 */\n  0x00\n  sstore\n    /* \"view\\xe5\\x87\\xbd\\xe6\\x95\\xb0/test.sol\":60:255  contract ViewDemo {\r... */\n  callvalue\n  dup1\n  iszero\n  tag_1\n  jumpi\n  0x00\n  dup1\n  revert\ntag_1:\n  pop\n  dataSize(sub_0)\n  dup1\n  dataOffset(sub_0)\n  0x00\n  codecopy\n  0x00\n  return\nstop\n\nsub_0: assembly {\n        /* \"view\\xe5\\x87\\xbd\\xe6\\x95\\xb0/test.sol\":60:255  contract ViewDemo {\r... */\n      mstore(0x40, 0x80)\n      callvalue\n      dup1\n      iszero\n      tag_1\n      jumpi\n      0x00\n      dup1\n      revert\n    tag_1:\n      pop\n      jumpi(tag_2, lt(calldatasize, 0x04))\n      shr(0xe0, calldataload(0x00))\n      dup1\n      0x995e4339\n      eq\n      tag_3\n      jumpi\n    tag_2:\n      0x00\n      dup1\n      revert\n        /* \"view\\xe5\\x87\\xbd\\xe6\\x95\\xb0/test.sol\":128:252  function getResult(uint num) public view returns(uint) {\r... */\n    tag_3:\n      tag_4\n      0x04\n      dup1\n      calldatasize\n      sub\n      dup2\n      add\n      swap1\n      tag_5\n      swap2\n      swap1\n      tag_6\n      jump\t// in\n    tag_5:\n      tag_7\n      jump\t// in\n    tag_4:\n      mload(0x40)\n      tag_8\n      swap2\n      swap1\n      tag_9\n      jump\t// in\n    tag_8:\n      mload(0x40)\n      dup1\n      swap2\n      sub\n      swap1\n      return\n    tag_7:\n        /* \"view\\xe5\\x87\\xbd\\xe6\\x95\\xb0/test.sol\":177:181  uint */\n      0x00\n        /* \"view\\xe5\\x87\\xbd\\xe6\\x95\\xb0/test.sol\":194:205  uint result */\n      dup1\n        /* \"view\\xe5\\x87\\xbd\\xe6\\x95\\xb0/test.sol\":214:220  factor */\n      sload(0x00)\n        /* \"view\\xe5\\x87\\xbd\\xe6\\x95\\xb0/test.sol\":208:211  num */\n      dup4\n        /* \"view\\xe5\\x87\\xbd\\xe6\\x95\\xb0/test.sol\":208:220  num * factor */\n      tag_11\n      swap2\n      swap1\n      tag_12\n      jump\t// in\n    tag_11:\n        /* \"view\\xe5\\x87\\xbd\\xe6\\x95\\xb0/test.sol\":194:220  uint result = num * factor */\n      swap1\n      pop\n        /* \"view\\xe5\\x87\\xbd\\xe6\\x95\\xb0/test.sol\":238:244  result */\n      dup1\n        /* \"view\\xe5\\x87\\xbd\\xe6\\x95\\xb0/test.sol\":231:244  return result */\n      swap2\n      pop\n      pop\n        /* \"view\\xe5\\x87\\xbd\\xe6\\x95\\xb0/test.sol\":128:252  function getResult(uint num) public view returns(uint) {\r... */\n      swap2\n      swap1\n      pop\n      jump\t// out\n        /* \"#utility.yul\":7:146   */\n    tag_14:\n        /* \"#utility.yul\":53:58   */\n      0x00\n        /* \"#utility.yul\":91:97   */\n      dup2\n        /* \"#utility.yul\":78:98   */\n      calldataload\n        /* \"#utility.yul\":69:98   */\n      swap1\n      pop\n        /* \"#utility.yul\":107:140   */\n      tag_16\n        /* \"#utility.yul\":134:139   */\n      dup2\n        /* \"#utility.yul\":107:140   */\n      tag_17\n      jump\t// in\n    tag_16:\n        /* \"#utility.yul\":7:146   */\n      swap3\n      swap2\n      pop\n      pop\n      jump\t// out\n        /* \"#utility.yul\":152:481   */\n    tag_6:\n        /* \"#utility.yul\":211:217   */\n      0x00\n        /* \"#utility.yul\":260:262   */\n      0x20\n        /* \"#utility.yul\":248:257   */\n      dup3\n        /* \"#utility.yul\":239:246   */\n      dup5\n        /* \"#utility.yul\":235:258   */\n      sub\n        /* \"#utility.yul\":231:263   */\n      slt\n        /* \"#utility.yul\":228:347   */\n      iszero\n      tag_19\n      jumpi\n        /* \"#utility.yul\":266:345   */\n      tag_20\n      tag_21\n      jump\t// in\n    tag_20:\n        /* \"#utility.yul\":228:347   */\n    tag_19:\n        /* \"#utility.yul\":386:387   */\n      0x00\n        /* \"#utility.yul\":411:464   */\n      tag_22\n        /* \"#utility.yul\":456:463   */\n      dup5\n        /* \"#utility.yul\":447:453   */\n      dup3\n        /* \"#utility.yul\":436:445   */\n      dup6\n        /* \"#utility.yul\":432:454   */\n      add\n        /* \"#utility.yul\":411:464   */\n      tag_14\n      jump\t// in\n    tag_22:\n        /* \"#utility.yul\":401:464   */\n      swap2\n      pop\n        /* \"#utility.yul\":357:474   */\n      pop\n        /* \"#utility.yul\":152:481   */\n      swap3\n      swap2\n      pop\n      pop\n      jump\t// out\n        /* \"#utility.yul\":487:605   */\n    tag_23:\n        /* \"#utility.yul\":574:598   */\n      tag_25\n        /* \"#utility.yul\":592:597   */\n      dup2\n        /* \"#utility.yul\":574:598   */\n      tag_26\n      jump\t// in\n    tag_25:\n        /* \"#utility.yul\":569:572   */\n      dup3\n        /* \"#utility.yul\":562:599   */\n      mstore\n        /* \"#utility.yul\":487:605   */\n      pop\n      pop\n      jump\t// out\n        /* \"#utility.yul\":611:833   */\n    tag_9:\n        /* \"#utility.yul\":704:708   */\n      0x00\n        /* \"#utility.yul\":742:744   */\n      0x20\n        /* \"#utility.yul\":731:740   */\n      dup3\n        /* \"#utility.yul\":727:745   */\n      add\n        /* \"#utility.yul\":719:745   */\n      swap1\n      pop\n        /* \"#utility.yul\":755:826   */\n      tag_28\n        /* \"#utility.yul\":823:824   */\n      0x00\n        /* \"#utility.yul\":812:821   */\n      dup4\n        /* \"#utility.yul\":808:825   */\n      add\n        /* \"#utility.yul\":799:805   */\n      dup5\n        /* \"#utility.yul\":755:826   */\n      tag_23\n      jump\t// in\n    tag_28:\n        /* \"#utility.yul\":611:833   */\n      swap3\n      swap2\n      pop\n      pop\n      jump\t// out\n        /* \"#utility.yul\":920:1268   */\n    tag_12:\n        /* \"#utility.yul\":960:967   */\n      0x00\n        /* \"#utility.yul\":983:1003   */\n      tag_32\n        /* \"#utility.yul\":1001:1002   */\n      dup3\n        /* \"#utility.yul\":983:1003   */\n      tag_26\n      jump\t// in\n    tag_32:\n        /* \"#utility.yul\":978:1003   */\n      swap2\n      pop\n        /* \"#utility.yul\":1017:1037   */\n      tag_33\n        /* \"#utility.yul\":1035:1036   */\n      dup4\n        /* \"#utility.yul\":1017:1037   */\n      tag_26\n      jump\t// in\n    tag_33:\n        /* \"#utility.yul\":1012:1037   */\n      swap3\n      pop\n        /* \"#utility.yul\":1205:1206   */\n      dup2\n        /* \"#utility.yul\":1137:1203   */\n      0xffffffffffffffffffffffffffffffffffffffffffffffffffffffffffffffff\n        /* \"#utility.yul\":1133:1207   */\n      div\n        /* \"#utility.yul\":1130:1131   */\n      dup4\n        /* \"#utility.yul\":1127:1208   */\n      gt\n        /* \"#utility.yul\":1122:1123   */\n      dup3\n        /* \"#utility.yul\":1115:1124   */\n      iszero\n        /* \"#utility.yul\":1108:1125   */\n      iszero\n        /* \"#utility.yul\":1104:1209   */\n      and\n        /* \"#utility.yul\":1101:1232   */\n      iszero\n      tag_34\n      jumpi\n        /* \"#utility.yul\":1212:1230   */\n      tag_35\n      tag_36\n      jump\t// in\n    tag_35:\n        /* \"#utility.yul\":1101:1232   */\n    tag_34:\n        /* \"#utility.yul\":1260:1261   */\n      dup3\n        /* \"#utility.yul\":1257:1258   */\n      dup3\n        /* \"#utility.yul\":1253:1262   */\n      mul\n        /* \"#utility.yul\":1242:1262   */\n      swap1\n      pop\n        /* \"#utility.yul\":920:1268   */\n      swap3\n      swap2\n      pop\n      pop\n      jump\t// out\n        /* \"#utility.yul\":1274:1351   */\n    tag_26:\n        /* \"#utility.yul\":1311:1318   */\n      0x00\n        /* \"#utility.yul\":1340:1345   */\n      dup2\n        /* \"#utility.yul\":1329:1345   */\n      swap1\n      pop\n        /* \"#utility.yul\":1274:1351   */\n      swap2\n      swap1\n      pop\n      jump\t// out\n        /* \"#utility.yul\":1357:1537   */\n    tag_36:\n        /* \"#utility.yul\":1405:1482   */\n      0x4e487b7100000000000000000000000000000000000000000000000000000000\n        /* \"#utility.yul\":1402:1403   */\n      0x00\n        /* \"#utility.yul\":1395:1483   */\n      mstore\n        /* \"#utility.yul\":1502:1506   */\n      0x11\n        /* \"#utility.yul\":1499:1500   */\n      0x04\n        /* \"#utility.yul\":1492:1507   */\n      mstore\n        /* \"#utility.yul\":1526:1530   */\n      0x24\n        /* \"#utility.yul\":1523:1524   */\n      0x00\n        /* \"#utility.yul\":1516:1531   */\n      revert\n        /* \"#utility.yul\":1666:1783   */\n    tag_21:\n        /* \"#utility.yul\":1775:1776   */\n      0x00\n        /* \"#utility.yul\":1772:1773   */\n      dup1\n        /* \"#utility.yul\":1765:1777   */\n      revert\n        /* \"#utility.yul\":1789:1911   */\n    tag_17:\n        /* \"#utility.yul\":1862:1886   */\n      tag_43\n        /* \"#utility.yul\":1880:1885   */\n      dup2\n        /* \"#utility.yul\":1862:1886   */\n      tag_26\n      jump\t// in\n    tag_43:\n        /* \"#utility.yul\":1855:1860   */\n      dup2\n        /* \"#utility.yul\":1852:1887   */\n      eq\n        /* \"#utility.yul\":1842:1905   */\n      tag_44\n      jumpi\n        /* \"#utility.yul\":1901:1902   */\n      0x00\n        /* \"#utility.yul\":1898:1899   */\n      dup1\n        /* \"#utility.yul\":1891:1903   */\n      revert\n        /* \"#utility.yul\":1842:1905   */\n    tag_44:\n        /* \"#utility.yul\":1789:1911   */\n      pop\n      jump\t// out\n\n    auxdata: 0xa264697066735822122080dc2b48d5fd96cef0f06ac9415701956e492efc20774f794c3ffb1a8144261464736f6c63430008070033\n}\n",
				"bytecode": {
					"linkReferences": {},
					"object": "6080604052600260005534801561001557600080fd5b506101cd806100256000396000f3fe608060405234801561001057600080fd5b506004361061002b5760003560e01c8063995e433914610030575b600080fd5b61004a60048036038101906100459190610091565b610060565b60405161005791906100cd565b60405180910390f35b6000806000548361007191906100e8565b905080915050919050565b60008135905061008b81610180565b92915050565b6000602082840312156100a7576100a661017b565b5b60006100b58482850161007c565b91505092915050565b6100c781610142565b82525050565b60006020820190506100e260008301846100be565b92915050565b60006100f382610142565b91506100fe83610142565b9250817fffffffffffffffffffffffffffffffffffffffffffffffffffffffffffffffff04831182151516156101375761013661014c565b5b828202905092915050565b6000819050919050565b7f4e487b7100000000000000000000000000000000000000000000000000000000600052601160045260246000fd5b600080fd5b61018981610142565b811461019457600080fd5b5056fea264697066735822122080dc2b48d5fd96cef0f06ac9415701956e492efc20774f794c3ffb1a8144261464736f6c63430008070033",
					"opcodes": "PUSH1 0x80 PUSH1 0x40 MSTORE PUSH1 0x2 PUSH1 0x0 SSTORE CALLVALUE DUP1 ISZERO PUSH2 0x15 JUMPI PUSH1 0x0 DUP1 REVERT JUMPDEST POP PUSH2 0x1CD DUP1 PUSH2 0x25 PUSH1 0x0 CODECOPY PUSH1 0x0 RETURN INVALID PUSH1 0x80 PUSH1 0x40 MSTORE CALLVALUE DUP1 ISZERO PUSH2 0x10 JUMPI PUSH1 0x0 DUP1 REVERT JUMPDEST POP PUSH1 0x4 CALLDATASIZE LT PUSH2 0x2B JUMPI PUSH1 0x0 CALLDATALOAD PUSH1 0xE0 SHR DUP1 PUSH4 0x995E4339 EQ PUSH2 0x30 JUMPI JUMPDEST PUSH1 0x0 DUP1 REVERT JUMPDEST PUSH2 0x4A PUSH1 0x4 DUP1 CALLDATASIZE SUB DUP2 ADD SWAP1 PUSH2 0x45 SWAP2 SWAP1 PUSH2 0x91 JUMP JUMPDEST PUSH2 0x60 JUMP JUMPDEST PUSH1 0x40 MLOAD PUSH2 0x57 SWAP2 SWAP1 PUSH2 0xCD JUMP JUMPDEST PUSH1 0x40 MLOAD DUP1 SWAP2 SUB SWAP1 RETURN JUMPDEST PUSH1 0x0 DUP1 PUSH1 0x0 SLOAD DUP4 PUSH2 0x71 SWAP2 SWAP1 PUSH2 0xE8 JUMP JUMPDEST SWAP1 POP DUP1 SWAP2 POP POP SWAP2 SWAP1 POP JUMP JUMPDEST PUSH1 0x0 DUP2 CALLDATALOAD SWAP1 POP PUSH2 0x8B DUP2 PUSH2 0x180 JUMP JUMPDEST SWAP3 SWAP2 POP POP JUMP JUMPDEST PUSH1 0x0 PUSH1 0x20 DUP3 DUP5 SUB SLT ISZERO PUSH2 0xA7 JUMPI PUSH2 0xA6 PUSH2 0x17B JUMP JUMPDEST JUMPDEST PUSH1 0x0 PUSH2 0xB5 DUP5 DUP3 DUP6 ADD PUSH2 0x7C JUMP JUMPDEST SWAP2 POP POP SWAP3 SWAP2 POP POP JUMP JUMPDEST PUSH2 0xC7 DUP2 PUSH2 0x142 JUMP JUMPDEST DUP3 MSTORE POP POP JUMP JUMPDEST PUSH1 0x0 PUSH1 0x20 DUP3 ADD SWAP1 POP PUSH2 0xE2 PUSH1 0x0 DUP4 ADD DUP5 PUSH2 0xBE JUMP JUMPDEST SWAP3 SWAP2 POP POP JUMP JUMPDEST PUSH1 0x0 PUSH2 0xF3 DUP3 PUSH2 0x142 JUMP JUMPDEST SWAP2 POP PUSH2 0xFE DUP4 PUSH2 0x142 JUMP JUMPDEST SWAP3 POP DUP2 PUSH32 0xFFFFFFFFFFFFFFFFFFFFFFFFFFFFFFFFFFFFFFFFFFFFFFFFFFFFFFFFFFFFFFFF DIV DUP4 GT DUP3 ISZERO ISZERO AND ISZERO PUSH2 0x137 JUMPI PUSH2 0x136 PUSH2 0x14C JUMP JUMPDEST JUMPDEST DUP3 DUP3 MUL SWAP1 POP SWAP3 SWAP2 POP POP JUMP JUMPDEST PUSH1 0x0 DUP2 SWAP1 POP SWAP2 SWAP1 POP JUMP JUMPDEST PUSH32 0x4E487B7100000000000000000000000000000000000000000000000000000000 PUSH1 0x0 MSTORE PUSH1 0x11 PUSH1 0x4 MSTORE PUSH1 0x24 PUSH1 0x0 REVERT JUMPDEST PUSH1 0x0 DUP1 REVERT JUMPDEST PUSH2 0x189 DUP2 PUSH2 0x142 JUMP JUMPDEST DUP2 EQ PUSH2 0x194 JUMPI PUSH1 0x0 DUP1 REVERT JUMPDEST POP JUMP INVALID LOG2 PUSH5 0x6970667358 0x22 SLT KECCAK256 DUP1 0xDC 0x2B BASEFEE 0xD5 REVERT SWAP7 0xCE CREATE CREATE PUSH11 0xC9415701956E492EFC2077 0x4F PUSH26 0x4C3FFB1A8144261464736F6C6343000807003300000000000000 "
				},
				"gasEstimates": {
					"creation": {
						"codeDepositCost": "92200",
						"executionCost": "22247",
						"totalCost": "114447"
					},
					"external": {
						"getResult(uint256)": "infinite"
					}
				},
				"methodIdentifiers": {
					"getResult(uint256)": "995e4339"
				}
			},
			"storageLayout": {
				"storage": [
					{
						"astId": 4,
						"contract": "view函数/test.sol:ViewDemo",
						"label": "factor",
						"offset": 0,
						"slot": "0",
						"type": "t_uint256"
					}
				],
				"types": {
					"t_uint256": {
						"encoding": "inplace",
						"label": "uint256",
						"numberOfBytes": "32"
					}
				}
			},
			"userdoc": {
				"kind": "user",
				"methods": {},
				"version": 1
			}
		}
	}
}