{
	"break与continue/ContinueExample.sol": {
		"ContinueExample": {
			"abi": [
				{
					"inputs": [
						{
							"internalType": "uint256",
							"name": "counter",
							"type": "uint256"
						}
					],
					"name": "fillNumbers",
					"outputs": [
						{
							"internalType": "uint256",
							"name": "",
							"type": "uint256"
						}
					],
					"stateMutability": "payable",
					"type": "function"
				},
				{
					"inputs": [
						{
							"internalType": "uint256",
							"name": "",
							"type": "uint256"
						}
					],
					"name": "numbers",
					"outputs": [
						{
							"internalType": "uint256",
							"name": "",
							"type": "uint256"
						}
					],
					"stateMutability": "view",
					"type": "function"
				}
			],
			"devdoc": {
				"kind": "dev",
				"methods": {},
				"version": 1
			},
			"evm": {
				"assembly": "    /* \"break\\xe4\\xb8\\x8econtinue/ContinueExample.sol\":60:413  contract ContinueExample {\r... */\n  mstore(0x40, 0x80)\n  callvalue\n  dup1\n  iszero\n  tag_1\n  jumpi\n  0x00\n  dup1\n  revert\ntag_1:\n  pop\n  dataSize(sub_0)\n  dup1\n  dataOffset(sub_0)\n  0x00\n  codecopy\n  0x00\n  return\nstop\n\nsub_0: assembly {\n        /* \"break\\xe4\\xb8\\x8econtinue/ContinueExample.sol\":60:413  contract ContinueExample {\r... */\n      mstore(0x40, 0x80)\n      jumpi(tag_1, lt(calldatasize, 0x04))\n      shr(0xe0, calldataload(0x00))\n      dup1\n      0x6d748ce5\n      eq\n      tag_2\n      jumpi\n      dup1\n      0xd39fa233\n      eq\n      tag_3\n      jumpi\n    tag_1:\n      0x00\n      dup1\n      revert\n        /* \"break\\xe4\\xb8\\x8econtinue/ContinueExample.sol\":137:410  function fillNumbers(uint counter) public payable returns(uint) {\r... */\n    tag_2:\n      tag_4\n      0x04\n      dup1\n      calldatasize\n      sub\n      dup2\n      add\n      swap1\n      tag_5\n      swap2\n      swap1\n      tag_6\n      jump\t// in\n    tag_5:\n      tag_7\n      jump\t// in\n    tag_4:\n      mload(0x40)\n      tag_8\n      swap2\n      swap1\n      tag_9\n      jump\t// in\n    tag_8:\n      mload(0x40)\n      dup1\n      swap2\n      sub\n      swap1\n      return\n        /* \"break\\xe4\\xb8\\x8econtinue/ContinueExample.sol\":92:128  mapping(uint => uint) public numbers */\n    tag_3:\n      callvalue\n      dup1\n      iszero\n      tag_10\n      jumpi\n      0x00\n      dup1\n      revert\n    tag_10:\n      pop\n      tag_11\n      0x04\n      dup1\n      calldatasize\n      sub\n      dup2\n      add\n      swap1\n      tag_12\n      swap2\n      swap1\n      tag_6\n      jump\t// in\n    tag_12:\n      tag_13\n      jump\t// in\n    tag_11:\n      mload(0x40)\n      tag_14\n      swap2\n      swap1\n      tag_9\n      jump\t// in\n    tag_14:\n      mload(0x40)\n      dup1\n      swap2\n      sub\n      swap1\n      return\n        /* \"break\\xe4\\xb8\\x8econtinue/ContinueExample.sol\":137:410  function fillNumbers(uint counter) public payable returns(uint) {\r... */\n    tag_7:\n        /* \"break\\xe4\\xb8\\x8econtinue/ContinueExample.sol\":195:199  uint */\n      0x00\n        /* \"break\\xe4\\xb8\\x8econtinue/ContinueExample.sol\":217:223  uint i */\n      dup1\n        /* \"break\\xe4\\xb8\\x8econtinue/ContinueExample.sol\":226:227  0 */\n      0x00\n        /* \"break\\xe4\\xb8\\x8econtinue/ContinueExample.sol\":217:227  uint i = 0 */\n      swap1\n      pop\n        /* \"break\\xe4\\xb8\\x8econtinue/ContinueExample.sol\":212:365  for (uint i = 0; i < counter; i++) {\r... */\n    tag_16:\n        /* \"break\\xe4\\xb8\\x8econtinue/ContinueExample.sol\":233:240  counter */\n      dup3\n        /* \"break\\xe4\\xb8\\x8econtinue/ContinueExample.sol\":229:230  i */\n      dup2\n        /* \"break\\xe4\\xb8\\x8econtinue/ContinueExample.sol\":229:240  i < counter */\n      lt\n        /* \"break\\xe4\\xb8\\x8econtinue/ContinueExample.sol\":212:365  for (uint i = 0; i < counter; i++) {\r... */\n      iszero\n      tag_17\n      jumpi\n        /* \"break\\xe4\\xb8\\x8econtinue/ContinueExample.sol\":275:276  0 */\n      0x00\n        /* \"break\\xe4\\xb8\\x8econtinue/ContinueExample.sol\":270:271  2 */\n      0x02\n        /* \"break\\xe4\\xb8\\x8econtinue/ContinueExample.sol\":266:267  i */\n      dup3\n        /* \"break\\xe4\\xb8\\x8econtinue/ContinueExample.sol\":266:271  i % 2 */\n      tag_19\n      swap2\n      swap1\n      tag_20\n      jump\t// in\n    tag_19:\n        /* \"break\\xe4\\xb8\\x8econtinue/ContinueExample.sol\":266:276  i % 2 == 0 */\n      eq\n        /* \"break\\xe4\\xb8\\x8econtinue/ContinueExample.sol\":262:321  if (i % 2 == 0) {\r... */\n      iszero\n      tag_21\n      jumpi\n        /* \"break\\xe4\\xb8\\x8econtinue/ContinueExample.sol\":297:305  continue */\n      jump(tag_18)\n        /* \"break\\xe4\\xb8\\x8econtinue/ContinueExample.sol\":262:321  if (i % 2 == 0) {\r... */\n    tag_21:\n        /* \"break\\xe4\\xb8\\x8econtinue/ContinueExample.sol\":352:353  2 */\n      0x02\n        /* \"break\\xe4\\xb8\\x8econtinue/ContinueExample.sol\":348:349  i */\n      dup2\n        /* \"break\\xe4\\xb8\\x8econtinue/ContinueExample.sol\":348:353  i * 2 */\n      tag_22\n      swap2\n      swap1\n      tag_23\n      jump\t// in\n    tag_22:\n        /* \"break\\xe4\\xb8\\x8econtinue/ContinueExample.sol\":335:342  numbers */\n      0x00\n        /* \"break\\xe4\\xb8\\x8econtinue/ContinueExample.sol\":335:345  numbers[i] */\n      dup1\n        /* \"break\\xe4\\xb8\\x8econtinue/ContinueExample.sol\":343:344  i */\n      dup4\n        /* \"break\\xe4\\xb8\\x8econtinue/ContinueExample.sol\":335:345  numbers[i] */\n      dup2\n      mstore\n      0x20\n      add\n      swap1\n      dup2\n      mstore\n      0x20\n      add\n      0x00\n      keccak256\n        /* \"break\\xe4\\xb8\\x8econtinue/ContinueExample.sol\":335:353  numbers[i] = i * 2 */\n      dup2\n      swap1\n      sstore\n      pop\n        /* \"break\\xe4\\xb8\\x8econtinue/ContinueExample.sol\":212:365  for (uint i = 0; i < counter; i++) {\r... */\n    tag_18:\n        /* \"break\\xe4\\xb8\\x8econtinue/ContinueExample.sol\":242:245  i++ */\n      dup1\n      dup1\n      tag_24\n      swap1\n      tag_25\n      jump\t// in\n    tag_24:\n      swap2\n      pop\n      pop\n        /* \"break\\xe4\\xb8\\x8econtinue/ContinueExample.sol\":212:365  for (uint i = 0; i < counter; i++) {\r... */\n      jump(tag_16)\n    tag_17:\n      pop\n        /* \"break\\xe4\\xb8\\x8econtinue/ContinueExample.sol\":382:389  numbers */\n      0x00\n        /* \"break\\xe4\\xb8\\x8econtinue/ContinueExample.sol\":382:402  numbers[counter - 1] */\n      dup1\n        /* \"break\\xe4\\xb8\\x8econtinue/ContinueExample.sol\":400:401  1 */\n      0x01\n        /* \"break\\xe4\\xb8\\x8econtinue/ContinueExample.sol\":390:397  counter */\n      dup5\n        /* \"break\\xe4\\xb8\\x8econtinue/ContinueExample.sol\":390:401  counter - 1 */\n      tag_26\n      swap2\n      swap1\n      tag_27\n      jump\t// in\n    tag_26:\n        /* \"break\\xe4\\xb8\\x8econtinue/ContinueExample.sol\":382:402  numbers[counter - 1] */\n      dup2\n      mstore\n      0x20\n      add\n      swap1\n      dup2\n      mstore\n      0x20\n      add\n      0x00\n      keccak256\n      sload\n        /* \"break\\xe4\\xb8\\x8econtinue/ContinueExample.sol\":375:402  return numbers[counter - 1] */\n      swap1\n      pop\n        /* \"break\\xe4\\xb8\\x8econtinue/ContinueExample.sol\":137:410  function fillNumbers(uint counter) public payable returns(uint) {\r... */\n      swap2\n      swap1\n      pop\n      jump\t// out\n        /* \"break\\xe4\\xb8\\x8econtinue/ContinueExample.sol\":92:128  mapping(uint => uint) public numbers */\n    tag_13:\n      mstore(0x20, 0x00)\n      dup1\n      0x00\n      mstore\n      keccak256(0x00, 0x40)\n      0x00\n      swap2\n      pop\n      swap1\n      pop\n      sload\n      dup2\n      jump\t// out\n        /* \"#utility.yul\":7:146   */\n    tag_29:\n        /* \"#utility.yul\":53:58   */\n      0x00\n        /* \"#utility.yul\":91:97   */\n      dup2\n        /* \"#utility.yul\":78:98   */\n      calldataload\n        /* \"#utility.yul\":69:98   */\n      swap1\n      pop\n        /* \"#utility.yul\":107:140   */\n      tag_31\n        /* \"#utility.yul\":134:139   */\n      dup2\n        /* \"#utility.yul\":107:140   */\n      tag_32\n      jump\t// in\n    tag_31:\n        /* \"#utility.yul\":7:146   */\n      swap3\n      swap2\n      pop\n      pop\n      jump\t// out\n        /* \"#utility.yul\":152:481   */\n    tag_6:\n        /* \"#utility.yul\":211:217   */\n      0x00\n        /* \"#utility.yul\":260:262   */\n      0x20\n        /* \"#utility.yul\":248:257   */\n      dup3\n        /* \"#utility.yul\":239:246   */\n      dup5\n        /* \"#utility.yul\":235:258   */\n      sub\n        /* \"#utility.yul\":231:263   */\n      slt\n        /* \"#utility.yul\":228:347   */\n      iszero\n      tag_34\n      jumpi\n        /* \"#utility.yul\":266:345   */\n      tag_35\n      tag_36\n      jump\t// in\n    tag_35:\n        /* \"#utility.yul\":228:347   */\n    tag_34:\n        /* \"#utility.yul\":386:387   */\n      0x00\n        /* \"#utility.yul\":411:464   */\n      tag_37\n        /* \"#utility.yul\":456:463   */\n      dup5\n        /* \"#utility.yul\":447:453   */\n      dup3\n        /* \"#utility.yul\":436:445   */\n      dup6\n        /* \"#utility.yul\":432:454   */\n      add\n        /* \"#utility.yul\":411:464   */\n      tag_29\n      jump\t// in\n    tag_37:\n        /* \"#utility.yul\":401:464   */\n      swap2\n      pop\n        /* \"#utility.yul\":357:474   */\n      pop\n        /* \"#utility.yul\":152:481   */\n      swap3\n      swap2\n      pop\n      pop\n      jump\t// out\n        /* \"#utility.yul\":487:605   */\n    tag_38:\n        /* \"#utility.yul\":574:598   */\n      tag_40\n        /* \"#utility.yul\":592:597   */\n      dup2\n        /* \"#utility.yul\":574:598   */\n      tag_41\n      jump\t// in\n    tag_40:\n        /* \"#utility.yul\":569:572   */\n      dup3\n        /* \"#utility.yul\":562:599   */\n      mstore\n        /* \"#utility.yul\":487:605   */\n      pop\n      pop\n      jump\t// out\n        /* \"#utility.yul\":611:833   */\n    tag_9:\n        /* \"#utility.yul\":704:708   */\n      0x00\n        /* \"#utility.yul\":742:744   */\n      0x20\n        /* \"#utility.yul\":731:740   */\n      dup3\n        /* \"#utility.yul\":727:745   */\n      add\n        /* \"#utility.yul\":719:745   */\n      swap1\n      pop\n        /* \"#utility.yul\":755:826   */\n      tag_43\n        /* \"#utility.yul\":823:824   */\n      0x00\n        /* \"#utility.yul\":812:821   */\n      dup4\n        /* \"#utility.yul\":808:825   */\n      add\n        /* \"#utility.yul\":799:805   */\n      dup5\n        /* \"#utility.yul\":755:826   */\n      tag_38\n      jump\t// in\n    tag_43:\n        /* \"#utility.yul\":611:833   */\n      swap3\n      swap2\n      pop\n      pop\n      jump\t// out\n        /* \"#utility.yul\":920:1268   */\n    tag_23:\n        /* \"#utility.yul\":960:967   */\n      0x00\n        /* \"#utility.yul\":983:1003   */\n      tag_47\n        /* \"#utility.yul\":1001:1002   */\n      dup3\n        /* \"#utility.yul\":983:1003   */\n      tag_41\n      jump\t// in\n    tag_47:\n        /* \"#utility.yul\":978:1003   */\n      swap2\n      pop\n        /* \"#utility.yul\":1017:1037   */\n      tag_48\n        /* \"#utility.yul\":1035:1036   */\n      dup4\n        /* \"#utility.yul\":1017:1037   */\n      tag_41\n      jump\t// in\n    tag_48:\n        /* \"#utility.yul\":1012:1037   */\n      swap3\n      pop\n        /* \"#utility.yul\":1205:1206   */\n      dup2\n        /* \"#utility.yul\":1137:1203   */\n      0xffffffffffffffffffffffffffffffffffffffffffffffffffffffffffffffff\n        /* \"#utility.yul\":1133:1207   */\n      div\n        /* \"#utility.yul\":1130:1131   */\n      dup4\n        /* \"#utility.yul\":1127:1208   */\n      gt\n        /* \"#utility.yul\":1122:1123   */\n      dup3\n        /* \"#utility.yul\":1115:1124   */\n      iszero\n        /* \"#utility.yul\":1108:1125   */\n      iszero\n        /* \"#utility.yul\":1104:1209   */\n      and\n        /* \"#utility.yul\":1101:1232   */\n      iszero\n      tag_49\n      jumpi\n        /* \"#utility.yul\":1212:1230   */\n      tag_50\n      tag_51\n      jump\t// in\n    tag_50:\n        /* \"#utility.yul\":1101:1232   */\n    tag_49:\n        /* \"#utility.yul\":1260:1261   */\n      dup3\n        /* \"#utility.yul\":1257:1258   */\n      dup3\n        /* \"#utility.yul\":1253:1262   */\n      mul\n        /* \"#utility.yul\":1242:1262   */\n      swap1\n      pop\n        /* \"#utility.yul\":920:1268   */\n      swap3\n      swap2\n      pop\n      pop\n      jump\t// out\n        /* \"#utility.yul\":1274:1465   */\n    tag_27:\n        /* \"#utility.yul\":1314:1318   */\n      0x00\n        /* \"#utility.yul\":1334:1354   */\n      tag_53\n        /* \"#utility.yul\":1352:1353   */\n      dup3\n        /* \"#utility.yul\":1334:1354   */\n      tag_41\n      jump\t// in\n    tag_53:\n        /* \"#utility.yul\":1329:1354   */\n      swap2\n      pop\n        /* \"#utility.yul\":1368:1388   */\n      tag_54\n        /* \"#utility.yul\":1386:1387   */\n      dup4\n        /* \"#utility.yul\":1368:1388   */\n      tag_41\n      jump\t// in\n    tag_54:\n        /* \"#utility.yul\":1363:1388   */\n      swap3\n      pop\n        /* \"#utility.yul\":1407:1408   */\n      dup3\n        /* \"#utility.yul\":1404:1405   */\n      dup3\n        /* \"#utility.yul\":1401:1409   */\n      lt\n        /* \"#utility.yul\":1398:1432   */\n      iszero\n      tag_55\n      jumpi\n        /* \"#utility.yul\":1412:1430   */\n      tag_56\n      tag_51\n      jump\t// in\n    tag_56:\n        /* \"#utility.yul\":1398:1432   */\n    tag_55:\n        /* \"#utility.yul\":1457:1458   */\n      dup3\n        /* \"#utility.yul\":1454:1455   */\n      dup3\n        /* \"#utility.yul\":1450:1459   */\n      sub\n        /* \"#utility.yul\":1442:1459   */\n      swap1\n      pop\n        /* \"#utility.yul\":1274:1465   */\n      swap3\n      swap2\n      pop\n      pop\n      jump\t// out\n        /* \"#utility.yul\":1471:1548   */\n    tag_41:\n        /* \"#utility.yul\":1508:1515   */\n      0x00\n        /* \"#utility.yul\":1537:1542   */\n      dup2\n        /* \"#utility.yul\":1526:1542   */\n      swap1\n      pop\n        /* \"#utility.yul\":1471:1548   */\n      swap2\n      swap1\n      pop\n      jump\t// out\n        /* \"#utility.yul\":1554:1787   */\n    tag_25:\n        /* \"#utility.yul\":1593:1596   */\n      0x00\n        /* \"#utility.yul\":1616:1640   */\n      tag_59\n        /* \"#utility.yul\":1634:1639   */\n      dup3\n        /* \"#utility.yul\":1616:1640   */\n      tag_41\n      jump\t// in\n    tag_59:\n        /* \"#utility.yul\":1607:1640   */\n      swap2\n      pop\n        /* \"#utility.yul\":1662:1728   */\n      0xffffffffffffffffffffffffffffffffffffffffffffffffffffffffffffffff\n        /* \"#utility.yul\":1655:1660   */\n      dup3\n        /* \"#utility.yul\":1652:1729   */\n      eq\n        /* \"#utility.yul\":1649:1752   */\n      iszero\n      tag_60\n      jumpi\n        /* \"#utility.yul\":1732:1750   */\n      tag_61\n      tag_51\n      jump\t// in\n    tag_61:\n        /* \"#utility.yul\":1649:1752   */\n    tag_60:\n        /* \"#utility.yul\":1779:1780   */\n      0x01\n        /* \"#utility.yul\":1772:1777   */\n      dup3\n        /* \"#utility.yul\":1768:1781   */\n      add\n        /* \"#utility.yul\":1761:1781   */\n      swap1\n      pop\n        /* \"#utility.yul\":1554:1787   */\n      swap2\n      swap1\n      pop\n      jump\t// out\n        /* \"#utility.yul\":1793:1969   */\n    tag_20:\n        /* \"#utility.yul\":1825:1826   */\n      0x00\n        /* \"#utility.yul\":1842:1862   */\n      tag_63\n        /* \"#utility.yul\":1860:1861   */\n      dup3\n        /* \"#utility.yul\":1842:1862   */\n      tag_41\n      jump\t// in\n    tag_63:\n        /* \"#utility.yul\":1837:1862   */\n      swap2\n      pop\n        /* \"#utility.yul\":1876:1896   */\n      tag_64\n        /* \"#utility.yul\":1894:1895   */\n      dup4\n        /* \"#utility.yul\":1876:1896   */\n      tag_41\n      jump\t// in\n    tag_64:\n        /* \"#utility.yul\":1871:1896   */\n      swap3\n      pop\n        /* \"#utility.yul\":1915:1916   */\n      dup3\n        /* \"#utility.yul\":1905:1940   */\n      tag_65\n      jumpi\n        /* \"#utility.yul\":1920:1938   */\n      tag_66\n      tag_67\n      jump\t// in\n    tag_66:\n        /* \"#utility.yul\":1905:1940   */\n    tag_65:\n        /* \"#utility.yul\":1961:1962   */\n      dup3\n        /* \"#utility.yul\":1958:1959   */\n      dup3\n        /* \"#utility.yul\":1954:1963   */\n      mod\n        /* \"#utility.yul\":1949:1963   */\n      swap1\n      pop\n        /* \"#utility.yul\":1793:1969   */\n      swap3\n      swap2\n      pop\n      pop\n      jump\t// out\n        /* \"#utility.yul\":1975:2155   */\n    tag_51:\n        /* \"#utility.yul\":2023:2100   */\n      0x4e487b7100000000000000000000000000000000000000000000000000000000\n        /* \"#utility.yul\":2020:2021   */\n      0x00\n        /* \"#utility.yul\":2013:2101   */\n      mstore\n        /* \"#utility.yul\":2120:2124   */\n      0x11\n        /* \"#utility.yul\":2117:2118   */\n      0x04\n        /* \"#utility.yul\":2110:2125   */\n      mstore\n        /* \"#utility.yul\":2144:2148   */\n      0x24\n        /* \"#utility.yul\":2141:2142   */\n      0x00\n        /* \"#utility.yul\":2134:2149   */\n      revert\n        /* \"#utility.yul\":2161:2341   */\n    tag_67:\n        /* \"#utility.yul\":2209:2286   */\n      0x4e487b7100000000000000000000000000000000000000000000000000000000\n        /* \"#utility.yul\":2206:2207   */\n      0x00\n        /* \"#utility.yul\":2199:2287   */\n      mstore\n        /* \"#utility.yul\":2306:2310   */\n      0x12\n        /* \"#utility.yul\":2303:2304   */\n      0x04\n        /* \"#utility.yul\":2296:2311   */\n      mstore\n        /* \"#utility.yul\":2330:2334   */\n      0x24\n        /* \"#utility.yul\":2327:2328   */\n      0x00\n        /* \"#utility.yul\":2320:2335   */\n      revert\n        /* \"#utility.yul\":2470:2587   */\n    tag_36:\n        /* \"#utility.yul\":2579:2580   */\n      0x00\n        /* \"#utility.yul\":2576:2577   */\n      dup1\n        /* \"#utility.yul\":2569:2581   */\n      revert\n        /* \"#utility.yul\":2593:2715   */\n    tag_32:\n        /* \"#utility.yul\":2666:2690   */\n      tag_74\n        /* \"#utility.yul\":2684:2689   */\n      dup2\n        /* \"#utility.yul\":2666:2690   */\n      tag_41\n      jump\t// in\n    tag_74:\n        /* \"#utility.yul\":2659:2664   */\n      dup2\n        /* \"#utility.yul\":2656:2691   */\n      eq\n        /* \"#utility.yul\":2646:2709   */\n      tag_75\n      jumpi\n        /* \"#utility.yul\":2705:2706   */\n      0x00\n        /* \"#utility.yul\":2702:2703   */\n      dup1\n        /* \"#utility.yul\":2695:2707   */\n      revert\n        /* \"#utility.yul\":2646:2709   */\n    tag_75:\n        /* \"#utility.yul\":2593:2715   */\n      pop\n      jump\t// out\n\n    auxdata: 0xa2646970667358221220542e05eeedf76846231c84323aef9c2f8ac0bf8d724fa3adca207b9e941c666364736f6c63430008070033\n}\n",
				"bytecode": {
					"linkReferences": {},
					"object": "608060405234801561001057600080fd5b50610369806100206000396000f3fe6080604052600436106100295760003560e01c80636d748ce51461002e578063d39fa2331461005e575b600080fd5b61004860048036038101906100439190610150565b61009b565b604051610055919061018c565b60405180910390f35b34801561006a57600080fd5b5061008560048036038101906100809190610150565b610123565b604051610092919061018c565b60405180910390f35b600080600090505b828110156100fc5760006002826100ba9190610288565b14156100c5576100e9565b6002816100d291906101a7565b600080838152602001908152602001600020819055505b80806100f49061023f565b9150506100a3565b5060008060018461010d9190610201565b8152602001908152602001600020549050919050565b60006020528060005260406000206000915090505481565b60008135905061014a8161031c565b92915050565b60006020828403121561016657610165610317565b5b60006101748482850161013b565b91505092915050565b61018681610235565b82525050565b60006020820190506101a1600083018461017d565b92915050565b60006101b282610235565b91506101bd83610235565b9250817fffffffffffffffffffffffffffffffffffffffffffffffffffffffffffffffff04831182151516156101f6576101f56102b9565b5b828202905092915050565b600061020c82610235565b915061021783610235565b92508282101561022a576102296102b9565b5b828203905092915050565b6000819050919050565b600061024a82610235565b91507fffffffffffffffffffffffffffffffffffffffffffffffffffffffffffffffff82141561027d5761027c6102b9565b5b600182019050919050565b600061029382610235565b915061029e83610235565b9250826102ae576102ad6102e8565b5b828206905092915050565b7f4e487b7100000000000000000000000000000000000000000000000000000000600052601160045260246000fd5b7f4e487b7100000000000000000000000000000000000000000000000000000000600052601260045260246000fd5b600080fd5b61032581610235565b811461033057600080fd5b5056fea2646970667358221220542e05eeedf76846231c84323aef9c2f8ac0bf8d724fa3adca207b9e941c666364736f6c63430008070033",
					"opcodes": "PUSH1 0x80 PUSH1 0x40 MSTORE CALLVALUE DUP1 ISZERO PUSH2 0x10 JUMPI PUSH1 0x0 DUP1 REVERT JUMPDEST POP PUSH2 0x369 DUP1 PUSH2 0x20 PUSH1 0x0 CODECOPY PUSH1 0x0 RETURN INVALID PUSH1 0x80 PUSH1 0x40 MSTORE PUSH1 0x4 CALLDATASIZE LT PUSH2 0x29 JUMPI PUSH1 0x0 CALLDATALOAD PUSH1 0xE0 SHR DUP1 PUSH4 0x6D748CE5 EQ PUSH2 0x2E JUMPI DUP1 PUSH4 0xD39FA233 EQ PUSH2 0x5E JUMPI JUMPDEST PUSH1 0x0 DUP1 REVERT JUMPDEST PUSH2 0x48 PUSH1 0x4 DUP1 CALLDATASIZE SUB DUP2 ADD SWAP1 PUSH2 0x43 SWAP2 SWAP1 PUSH2 0x150 JUMP JUMPDEST PUSH2 0x9B JUMP JUMPDEST PUSH1 0x40 MLOAD PUSH2 0x55 SWAP2 SWAP1 PUSH2 0x18C JUMP JUMPDEST PUSH1 0x40 MLOAD DUP1 SWAP2 SUB SWAP1 RETURN JUMPDEST CALLVALUE DUP1 ISZERO PUSH2 0x6A JUMPI PUSH1 0x0 DUP1 REVERT JUMPDEST POP PUSH2 0x85 PUSH1 0x4 DUP1 CALLDATASIZE SUB DUP2 ADD SWAP1 PUSH2 0x80 SWAP2 SWAP1 PUSH2 0x150 JUMP JUMPDEST PUSH2 0x123 JUMP JUMPDEST PUSH1 0x40 MLOAD PUSH2 0x92 SWAP2 SWAP1 PUSH2 0x18C JUMP JUMPDEST PUSH1 0x40 MLOAD DUP1 SWAP2 SUB SWAP1 RETURN JUMPDEST PUSH1 0x0 DUP1 PUSH1 0x0 SWAP1 POP JUMPDEST DUP3 DUP2 LT ISZERO PUSH2 0xFC JUMPI PUSH1 0x0 PUSH1 0x2 DUP3 PUSH2 0xBA SWAP2 SWAP1 PUSH2 0x288 JUMP JUMPDEST EQ ISZERO PUSH2 0xC5 JUMPI PUSH2 0xE9 JUMP JUMPDEST PUSH1 0x2 DUP2 PUSH2 0xD2 SWAP2 SWAP1 PUSH2 0x1A7 JUMP JUMPDEST PUSH1 0x0 DUP1 DUP4 DUP2 MSTORE PUSH1 0x20 ADD SWAP1 DUP2 MSTORE PUSH1 0x20 ADD PUSH1 0x0 KECCAK256 DUP2 SWAP1 SSTORE POP JUMPDEST DUP1 DUP1 PUSH2 0xF4 SWAP1 PUSH2 0x23F JUMP JUMPDEST SWAP2 POP POP PUSH2 0xA3 JUMP JUMPDEST POP PUSH1 0x0 DUP1 PUSH1 0x1 DUP5 PUSH2 0x10D SWAP2 SWAP1 PUSH2 0x201 JUMP JUMPDEST DUP2 MSTORE PUSH1 0x20 ADD SWAP1 DUP2 MSTORE PUSH1 0x20 ADD PUSH1 0x0 KECCAK256 SLOAD SWAP1 POP SWAP2 SWAP1 POP JUMP JUMPDEST PUSH1 0x0 PUSH1 0x20 MSTORE DUP1 PUSH1 0x0 MSTORE PUSH1 0x40 PUSH1 0x0 KECCAK256 PUSH1 0x0 SWAP2 POP SWAP1 POP SLOAD DUP2 JUMP JUMPDEST PUSH1 0x0 DUP2 CALLDATALOAD SWAP1 POP PUSH2 0x14A DUP2 PUSH2 0x31C JUMP JUMPDEST SWAP3 SWAP2 POP POP JUMP JUMPDEST PUSH1 0x0 PUSH1 0x20 DUP3 DUP5 SUB SLT ISZERO PUSH2 0x166 JUMPI PUSH2 0x165 PUSH2 0x317 JUMP JUMPDEST JUMPDEST PUSH1 0x0 PUSH2 0x174 DUP5 DUP3 DUP6 ADD PUSH2 0x13B JUMP JUMPDEST SWAP2 POP POP SWAP3 SWAP2 POP POP JUMP JUMPDEST PUSH2 0x186 DUP2 PUSH2 0x235 JUMP JUMPDEST DUP3 MSTORE POP POP JUMP JUMPDEST PUSH1 0x0 PUSH1 0x20 DUP3 ADD SWAP1 POP PUSH2 0x1A1 PUSH1 0x0 DUP4 ADD DUP5 PUSH2 0x17D JUMP JUMPDEST SWAP3 SWAP2 POP POP JUMP JUMPDEST PUSH1 0x0 PUSH2 0x1B2 DUP3 PUSH2 0x235 JUMP JUMPDEST SWAP2 POP PUSH2 0x1BD DUP4 PUSH2 0x235 JUMP JUMPDEST SWAP3 POP DUP2 PUSH32 0xFFFFFFFFFFFFFFFFFFFFFFFFFFFFFFFFFFFFFFFFFFFFFFFFFFFFFFFFFFFFFFFF DIV DUP4 GT DUP3 ISZERO ISZERO AND ISZERO PUSH2 0x1F6 JUMPI PUSH2 0x1F5 PUSH2 0x2B9 JUMP JUMPDEST JUMPDEST DUP3 DUP3 MUL SWAP1 POP SWAP3 SWAP2 POP POP JUMP JUMPDEST PUSH1 0x0 PUSH2 0x20C DUP3 PUSH2 0x235 JUMP JUMPDEST SWAP2 POP PUSH2 0x217 DUP4 PUSH2 0x235 JUMP JUMPDEST SWAP3 POP DUP3 DUP3 LT ISZERO PUSH2 0x22A JUMPI PUSH2 0x229 PUSH2 0x2B9 JUMP JUMPDEST JUMPDEST DUP3 DUP3 SUB SWAP1 POP SWAP3 SWAP2 POP POP JUMP JUMPDEST PUSH1 0x0 DUP2 SWAP1 POP SWAP2 SWAP1 POP JUMP JUMPDEST PUSH1 0x0 PUSH2 0x24A DUP3 PUSH2 0x235 JUMP JUMPDEST SWAP2 POP PUSH32 0xFFFFFFFFFFFFFFFFFFFFFFFFFFFFFFFFFFFFFFFFFFFFFFFFFFFFFFFFFFFFFFFF DUP3 EQ ISZERO PUSH2 0x27D JUMPI PUSH2 0x27C PUSH2 0x2B9 JUMP JUMPDEST JUMPDEST PUSH1 0x1 DUP3 ADD SWAP1 POP SWAP2 SWAP1 POP JUMP JUMPDEST PUSH1 0x0 PUSH2 0x293 DUP3 PUSH2 0x235 JUMP JUMPDEST SWAP2 POP PUSH2 0x29E DUP4 PUSH2 0x235 JUMP JUMPDEST SWAP3 POP DUP3 PUSH2 0x2AE JUMPI PUSH2 0x2AD PUSH2 0x2E8 JUMP JUMPDEST JUMPDEST DUP3 DUP3 MOD SWAP1 POP SWAP3 SWAP2 POP POP JUMP JUMPDEST PUSH32 0x4E487B7100000000000000000000000000000000000000000000000000000000 PUSH1 0x0 MSTORE PUSH1 0x11 PUSH1 0x4 MSTORE PUSH1 0x24 PUSH1 0x0 REVERT JUMPDEST PUSH32 0x4E487B7100000000000000000000000000000000000000000000000000000000 PUSH1 0x0 MSTORE PUSH1 0x12 PUSH1 0x4 MSTORE PUSH1 0x24 PUSH1 0x0 REVERT JUMPDEST PUSH1 0x0 DUP1 REVERT JUMPDEST PUSH2 0x325 DUP2 PUSH2 0x235 JUMP JUMPDEST DUP2 EQ PUSH2 0x330 JUMPI PUSH1 0x0 DUP1 REVERT JUMPDEST POP JUMP INVALID LOG2 PUSH5 0x6970667358 0x22 SLT KECCAK256 SLOAD 0x2E SDIV 0xEE 0xED 0xF7 PUSH9 0x46231C84323AEF9C2F DUP11 0xC0 0xBF DUP14 PUSH19 0x4FA3ADCA207B9E941C666364736F6C63430008 SMOD STOP CALLER "
				},
				"gasEstimates": {
					"creation": {
						"codeDepositCost": "174600",
						"executionCost": "220",
						"totalCost": "174820"
					},
					"external": {
						"fillNumbers(uint256)": "infinite",
						"numbers(uint256)": "infinite"
					}
				},
				"methodIdentifiers": {
					"fillNumbers(uint256)": "6d748ce5",
					"numbers(uint256)": "d39fa233"
				}
			},
			"storageLayout": {
				"storage": [
					{
						"astId": 5,
						"contract": "break与continue/ContinueExample.sol:ContinueExample",
						"label": "numbers",
						"offset": 0,
						"slot": "0",
						"type": "t_mapping(t_uint256,t_uint256)"
					}
				],
				"types": {
					"t_mapping(t_uint256,t_uint256)": {
						"encoding": "mapping",
						"key": "t_uint256",
						"label": "mapping(uint256 => uint256)",
						"numberOfBytes": "32",
						"value": "t_uint256"
					},
					"t_uint256": {
						"encoding": "inplace",
						"label": "uint256",
						"numberOfBytes": "32"
					}
				}
			},
			"userdoc": {
				"kind": "user",
				"methods": {},
				"version": 1
			}
		}
	}
}