{
	"break与continue/BreakExample.sol": {
		"BreakExample": {
			"abi": [
				{
					"inputs": [
						{
							"internalType": "uint256",
							"name": "_counter",
							"type": "uint256"
						}
					],
					"name": "fillNumbers",
					"outputs": [
						{
							"internalType": "uint256",
							"name": "",
							"type": "uint256"
						}
					],
					"stateMutability": "payable",
					"type": "function"
				},
				{
					"inputs": [
						{
							"internalType": "uint256",
							"name": "",
							"type": "uint256"
						}
					],
					"name": "numbers",
					"outputs": [
						{
							"internalType": "uint256",
							"name": "",
							"type": "uint256"
						}
					],
					"stateMutability": "view",
					"type": "function"
				}
			],
			"devdoc": {
				"kind": "dev",
				"methods": {},
				"version": 1
			},
			"evm": {
				"assembly": "    /* \"break\\xe4\\xb8\\x8econtinue/BreakExample.sol\":60:404  contract BreakExample {\r... */\n  mstore(0x40, 0x80)\n  callvalue\n  dup1\n  iszero\n  tag_1\n  jumpi\n  0x00\n  dup1\n  revert\ntag_1:\n  pop\n  dataSize(sub_0)\n  dup1\n  dataOffset(sub_0)\n  0x00\n  codecopy\n  0x00\n  return\nstop\n\nsub_0: assembly {\n        /* \"break\\xe4\\xb8\\x8econtinue/BreakExample.sol\":60:404  contract BreakExample {\r... */\n      mstore(0x40, 0x80)\n      jumpi(tag_1, lt(calldatasize, 0x04))\n      shr(0xe0, calldataload(0x00))\n      dup1\n      0x6d748ce5\n      eq\n      tag_2\n      jumpi\n      dup1\n      0xd39fa233\n      eq\n      tag_3\n      jumpi\n    tag_1:\n      0x00\n      dup1\n      revert\n        /* \"break\\xe4\\xb8\\x8econtinue/BreakExample.sol\":134:401  function fillNumbers(uint _counter) public payable returns(uint) {\r... */\n    tag_2:\n      tag_4\n      0x04\n      dup1\n      calldatasize\n      sub\n      dup2\n      add\n      swap1\n      tag_5\n      swap2\n      swap1\n      tag_6\n      jump\t// in\n    tag_5:\n      tag_7\n      jump\t// in\n    tag_4:\n      mload(0x40)\n      tag_8\n      swap2\n      swap1\n      tag_9\n      jump\t// in\n    tag_8:\n      mload(0x40)\n      dup1\n      swap2\n      sub\n      swap1\n      return\n        /* \"break\\xe4\\xb8\\x8econtinue/BreakExample.sol\":89:125  mapping(uint => uint) public numbers */\n    tag_3:\n      callvalue\n      dup1\n      iszero\n      tag_10\n      jumpi\n      0x00\n      dup1\n      revert\n    tag_10:\n      pop\n      tag_11\n      0x04\n      dup1\n      calldatasize\n      sub\n      dup2\n      add\n      swap1\n      tag_12\n      swap2\n      swap1\n      tag_6\n      jump\t// in\n    tag_12:\n      tag_13\n      jump\t// in\n    tag_11:\n      mload(0x40)\n      tag_14\n      swap2\n      swap1\n      tag_9\n      jump\t// in\n    tag_14:\n      mload(0x40)\n      dup1\n      swap2\n      sub\n      swap1\n      return\n        /* \"break\\xe4\\xb8\\x8econtinue/BreakExample.sol\":134:401  function fillNumbers(uint _counter) public payable returns(uint) {\r... */\n    tag_7:\n        /* \"break\\xe4\\xb8\\x8econtinue/BreakExample.sol\":193:197  uint */\n      0x00\n        /* \"break\\xe4\\xb8\\x8econtinue/BreakExample.sol\":215:221  uint i */\n      dup1\n        /* \"break\\xe4\\xb8\\x8econtinue/BreakExample.sol\":224:225  0 */\n      0x00\n        /* \"break\\xe4\\xb8\\x8econtinue/BreakExample.sol\":215:225  uint i = 0 */\n      swap1\n      pop\n        /* \"break\\xe4\\xb8\\x8econtinue/BreakExample.sol\":210:357  for (uint i = 0; i < _counter; i++) {\r... */\n    tag_16:\n        /* \"break\\xe4\\xb8\\x8econtinue/BreakExample.sol\":231:239  _counter */\n      dup3\n        /* \"break\\xe4\\xb8\\x8econtinue/BreakExample.sol\":227:228  i */\n      dup2\n        /* \"break\\xe4\\xb8\\x8econtinue/BreakExample.sol\":227:239  i < _counter */\n      lt\n        /* \"break\\xe4\\xb8\\x8econtinue/BreakExample.sol\":210:357  for (uint i = 0; i < _counter; i++) {\r... */\n      iszero\n      tag_17\n      jumpi\n        /* \"break\\xe4\\xb8\\x8econtinue/BreakExample.sol\":270:271  5 */\n      0x05\n        /* \"break\\xe4\\xb8\\x8econtinue/BreakExample.sol\":265:266  i */\n      dup2\n        /* \"break\\xe4\\xb8\\x8econtinue/BreakExample.sol\":265:271  i == 5 */\n      eq\n        /* \"break\\xe4\\xb8\\x8econtinue/BreakExample.sol\":261:313  if (i == 5) {\r... */\n      iszero\n      tag_19\n      jumpi\n        /* \"break\\xe4\\xb8\\x8econtinue/BreakExample.sol\":292:297  break */\n      jump(tag_17)\n        /* \"break\\xe4\\xb8\\x8econtinue/BreakExample.sol\":261:313  if (i == 5) {\r... */\n    tag_19:\n        /* \"break\\xe4\\xb8\\x8econtinue/BreakExample.sol\":344:345  2 */\n      0x02\n        /* \"break\\xe4\\xb8\\x8econtinue/BreakExample.sol\":340:341  i */\n      dup2\n        /* \"break\\xe4\\xb8\\x8econtinue/BreakExample.sol\":340:345  i * 2 */\n      tag_20\n      swap2\n      swap1\n      tag_21\n      jump\t// in\n    tag_20:\n        /* \"break\\xe4\\xb8\\x8econtinue/BreakExample.sol\":327:334  numbers */\n      0x00\n        /* \"break\\xe4\\xb8\\x8econtinue/BreakExample.sol\":327:337  numbers[i] */\n      dup1\n        /* \"break\\xe4\\xb8\\x8econtinue/BreakExample.sol\":335:336  i */\n      dup4\n        /* \"break\\xe4\\xb8\\x8econtinue/BreakExample.sol\":327:337  numbers[i] */\n      dup2\n      mstore\n      0x20\n      add\n      swap1\n      dup2\n      mstore\n      0x20\n      add\n      0x00\n      keccak256\n        /* \"break\\xe4\\xb8\\x8econtinue/BreakExample.sol\":327:345  numbers[i] = i * 2 */\n      dup2\n      swap1\n      sstore\n      pop\n        /* \"break\\xe4\\xb8\\x8econtinue/BreakExample.sol\":241:244  i++ */\n      dup1\n      dup1\n      tag_22\n      swap1\n      tag_23\n      jump\t// in\n    tag_22:\n      swap2\n      pop\n      pop\n        /* \"break\\xe4\\xb8\\x8econtinue/BreakExample.sol\":210:357  for (uint i = 0; i < _counter; i++) {\r... */\n      jump(tag_16)\n    tag_17:\n      pop\n        /* \"break\\xe4\\xb8\\x8econtinue/BreakExample.sol\":374:381  numbers */\n      0x00\n        /* \"break\\xe4\\xb8\\x8econtinue/BreakExample.sol\":374:393  numbers[_counter-1] */\n      dup1\n        /* \"break\\xe4\\xb8\\x8econtinue/BreakExample.sol\":391:392  1 */\n      0x01\n        /* \"break\\xe4\\xb8\\x8econtinue/BreakExample.sol\":382:390  _counter */\n      dup5\n        /* \"break\\xe4\\xb8\\x8econtinue/BreakExample.sol\":382:392  _counter-1 */\n      tag_24\n      swap2\n      swap1\n      tag_25\n      jump\t// in\n    tag_24:\n        /* \"break\\xe4\\xb8\\x8econtinue/BreakExample.sol\":374:393  numbers[_counter-1] */\n      dup2\n      mstore\n      0x20\n      add\n      swap1\n      dup2\n      mstore\n      0x20\n      add\n      0x00\n      keccak256\n      sload\n        /* \"break\\xe4\\xb8\\x8econtinue/BreakExample.sol\":367:393  return numbers[_counter-1] */\n      swap1\n      pop\n        /* \"break\\xe4\\xb8\\x8econtinue/BreakExample.sol\":134:401  function fillNumbers(uint _counter) public payable returns(uint) {\r... */\n      swap2\n      swap1\n      pop\n      jump\t// out\n        /* \"break\\xe4\\xb8\\x8econtinue/BreakExample.sol\":89:125  mapping(uint => uint) public numbers */\n    tag_13:\n      mstore(0x20, 0x00)\n      dup1\n      0x00\n      mstore\n      keccak256(0x00, 0x40)\n      0x00\n      swap2\n      pop\n      swap1\n      pop\n      sload\n      dup2\n      jump\t// out\n        /* \"#utility.yul\":7:146   */\n    tag_27:\n        /* \"#utility.yul\":53:58   */\n      0x00\n        /* \"#utility.yul\":91:97   */\n      dup2\n        /* \"#utility.yul\":78:98   */\n      calldataload\n        /* \"#utility.yul\":69:98   */\n      swap1\n      pop\n        /* \"#utility.yul\":107:140   */\n      tag_29\n        /* \"#utility.yul\":134:139   */\n      dup2\n        /* \"#utility.yul\":107:140   */\n      tag_30\n      jump\t// in\n    tag_29:\n        /* \"#utility.yul\":7:146   */\n      swap3\n      swap2\n      pop\n      pop\n      jump\t// out\n        /* \"#utility.yul\":152:481   */\n    tag_6:\n        /* \"#utility.yul\":211:217   */\n      0x00\n        /* \"#utility.yul\":260:262   */\n      0x20\n        /* \"#utility.yul\":248:257   */\n      dup3\n        /* \"#utility.yul\":239:246   */\n      dup5\n        /* \"#utility.yul\":235:258   */\n      sub\n        /* \"#utility.yul\":231:263   */\n      slt\n        /* \"#utility.yul\":228:347   */\n      iszero\n      tag_32\n      jumpi\n        /* \"#utility.yul\":266:345   */\n      tag_33\n      tag_34\n      jump\t// in\n    tag_33:\n        /* \"#utility.yul\":228:347   */\n    tag_32:\n        /* \"#utility.yul\":386:387   */\n      0x00\n        /* \"#utility.yul\":411:464   */\n      tag_35\n        /* \"#utility.yul\":456:463   */\n      dup5\n        /* \"#utility.yul\":447:453   */\n      dup3\n        /* \"#utility.yul\":436:445   */\n      dup6\n        /* \"#utility.yul\":432:454   */\n      add\n        /* \"#utility.yul\":411:464   */\n      tag_27\n      jump\t// in\n    tag_35:\n        /* \"#utility.yul\":401:464   */\n      swap2\n      pop\n        /* \"#utility.yul\":357:474   */\n      pop\n        /* \"#utility.yul\":152:481   */\n      swap3\n      swap2\n      pop\n      pop\n      jump\t// out\n        /* \"#utility.yul\":487:605   */\n    tag_36:\n        /* \"#utility.yul\":574:598   */\n      tag_38\n        /* \"#utility.yul\":592:597   */\n      dup2\n        /* \"#utility.yul\":574:598   */\n      tag_39\n      jump\t// in\n    tag_38:\n        /* \"#utility.yul\":569:572   */\n      dup3\n        /* \"#utility.yul\":562:599   */\n      mstore\n        /* \"#utility.yul\":487:605   */\n      pop\n      pop\n      jump\t// out\n        /* \"#utility.yul\":611:833   */\n    tag_9:\n        /* \"#utility.yul\":704:708   */\n      0x00\n        /* \"#utility.yul\":742:744   */\n      0x20\n        /* \"#utility.yul\":731:740   */\n      dup3\n        /* \"#utility.yul\":727:745   */\n      add\n        /* \"#utility.yul\":719:745   */\n      swap1\n      pop\n        /* \"#utility.yul\":755:826   */\n      tag_41\n        /* \"#utility.yul\":823:824   */\n      0x00\n        /* \"#utility.yul\":812:821   */\n      dup4\n        /* \"#utility.yul\":808:825   */\n      add\n        /* \"#utility.yul\":799:805   */\n      dup5\n        /* \"#utility.yul\":755:826   */\n      tag_36\n      jump\t// in\n    tag_41:\n        /* \"#utility.yul\":611:833   */\n      swap3\n      swap2\n      pop\n      pop\n      jump\t// out\n        /* \"#utility.yul\":920:1268   */\n    tag_21:\n        /* \"#utility.yul\":960:967   */\n      0x00\n        /* \"#utility.yul\":983:1003   */\n      tag_45\n        /* \"#utility.yul\":1001:1002   */\n      dup3\n        /* \"#utility.yul\":983:1003   */\n      tag_39\n      jump\t// in\n    tag_45:\n        /* \"#utility.yul\":978:1003   */\n      swap2\n      pop\n        /* \"#utility.yul\":1017:1037   */\n      tag_46\n        /* \"#utility.yul\":1035:1036   */\n      dup4\n        /* \"#utility.yul\":1017:1037   */\n      tag_39\n      jump\t// in\n    tag_46:\n        /* \"#utility.yul\":1012:1037   */\n      swap3\n      pop\n        /* \"#utility.yul\":1205:1206   */\n      dup2\n        /* \"#utility.yul\":1137:1203   */\n      0xffffffffffffffffffffffffffffffffffffffffffffffffffffffffffffffff\n        /* \"#utility.yul\":1133:1207   */\n      div\n        /* \"#utility.yul\":1130:1131   */\n      dup4\n        /* \"#utility.yul\":1127:1208   */\n      gt\n        /* \"#utility.yul\":1122:1123   */\n      dup3\n        /* \"#utility.yul\":1115:1124   */\n      iszero\n        /* \"#utility.yul\":1108:1125   */\n      iszero\n        /* \"#utility.yul\":1104:1209   */\n      and\n        /* \"#utility.yul\":1101:1232   */\n      iszero\n      tag_47\n      jumpi\n        /* \"#utility.yul\":1212:1230   */\n      tag_48\n      tag_49\n      jump\t// in\n    tag_48:\n        /* \"#utility.yul\":1101:1232   */\n    tag_47:\n        /* \"#utility.yul\":1260:1261   */\n      dup3\n        /* \"#utility.yul\":1257:1258   */\n      dup3\n        /* \"#utility.yul\":1253:1262   */\n      mul\n        /* \"#utility.yul\":1242:1262   */\n      swap1\n      pop\n        /* \"#utility.yul\":920:1268   */\n      swap3\n      swap2\n      pop\n      pop\n      jump\t// out\n        /* \"#utility.yul\":1274:1465   */\n    tag_25:\n        /* \"#utility.yul\":1314:1318   */\n      0x00\n        /* \"#utility.yul\":1334:1354   */\n      tag_51\n        /* \"#utility.yul\":1352:1353   */\n      dup3\n        /* \"#utility.yul\":1334:1354   */\n      tag_39\n      jump\t// in\n    tag_51:\n        /* \"#utility.yul\":1329:1354   */\n      swap2\n      pop\n        /* \"#utility.yul\":1368:1388   */\n      tag_52\n        /* \"#utility.yul\":1386:1387   */\n      dup4\n        /* \"#utility.yul\":1368:1388   */\n      tag_39\n      jump\t// in\n    tag_52:\n        /* \"#utility.yul\":1363:1388   */\n      swap3\n      pop\n        /* \"#utility.yul\":1407:1408   */\n      dup3\n        /* \"#utility.yul\":1404:1405   */\n      dup3\n        /* \"#utility.yul\":1401:1409   */\n      lt\n        /* \"#utility.yul\":1398:1432   */\n      iszero\n      tag_53\n      jumpi\n        /* \"#utility.yul\":1412:1430   */\n      tag_54\n      tag_49\n      jump\t// in\n    tag_54:\n        /* \"#utility.yul\":1398:1432   */\n    tag_53:\n        /* \"#utility.yul\":1457:1458   */\n      dup3\n        /* \"#utility.yul\":1454:1455   */\n      dup3\n        /* \"#utility.yul\":1450:1459   */\n      sub\n        /* \"#utility.yul\":1442:1459   */\n      swap1\n      pop\n        /* \"#utility.yul\":1274:1465   */\n      swap3\n      swap2\n      pop\n      pop\n      jump\t// out\n        /* \"#utility.yul\":1471:1548   */\n    tag_39:\n        /* \"#utility.yul\":1508:1515   */\n      0x00\n        /* \"#utility.yul\":1537:1542   */\n      dup2\n        /* \"#utility.yul\":1526:1542   */\n      swap1\n      pop\n        /* \"#utility.yul\":1471:1548   */\n      swap2\n      swap1\n      pop\n      jump\t// out\n        /* \"#utility.yul\":1554:1787   */\n    tag_23:\n        /* \"#utility.yul\":1593:1596   */\n      0x00\n        /* \"#utility.yul\":1616:1640   */\n      tag_57\n        /* \"#utility.yul\":1634:1639   */\n      dup3\n        /* \"#utility.yul\":1616:1640   */\n      tag_39\n      jump\t// in\n    tag_57:\n        /* \"#utility.yul\":1607:1640   */\n      swap2\n      pop\n        /* \"#utility.yul\":1662:1728   */\n      0xffffffffffffffffffffffffffffffffffffffffffffffffffffffffffffffff\n        /* \"#utility.yul\":1655:1660   */\n      dup3\n        /* \"#utility.yul\":1652:1729   */\n      eq\n        /* \"#utility.yul\":1649:1752   */\n      iszero\n      tag_58\n      jumpi\n        /* \"#utility.yul\":1732:1750   */\n      tag_59\n      tag_49\n      jump\t// in\n    tag_59:\n        /* \"#utility.yul\":1649:1752   */\n    tag_58:\n        /* \"#utility.yul\":1779:1780   */\n      0x01\n        /* \"#utility.yul\":1772:1777   */\n      dup3\n        /* \"#utility.yul\":1768:1781   */\n      add\n        /* \"#utility.yul\":1761:1781   */\n      swap1\n      pop\n        /* \"#utility.yul\":1554:1787   */\n      swap2\n      swap1\n      pop\n      jump\t// out\n        /* \"#utility.yul\":1793:1973   */\n    tag_49:\n        /* \"#utility.yul\":1841:1918   */\n      0x4e487b7100000000000000000000000000000000000000000000000000000000\n        /* \"#utility.yul\":1838:1839   */\n      0x00\n        /* \"#utility.yul\":1831:1919   */\n      mstore\n        /* \"#utility.yul\":1938:1942   */\n      0x11\n        /* \"#utility.yul\":1935:1936   */\n      0x04\n        /* \"#utility.yul\":1928:1943   */\n      mstore\n        /* \"#utility.yul\":1962:1966   */\n      0x24\n        /* \"#utility.yul\":1959:1960   */\n      0x00\n        /* \"#utility.yul\":1952:1967   */\n      revert\n        /* \"#utility.yul\":2102:2219   */\n    tag_34:\n        /* \"#utility.yul\":2211:2212   */\n      0x00\n        /* \"#utility.yul\":2208:2209   */\n      dup1\n        /* \"#utility.yul\":2201:2213   */\n      revert\n        /* \"#utility.yul\":2225:2347   */\n    tag_30:\n        /* \"#utility.yul\":2298:2322   */\n      tag_65\n        /* \"#utility.yul\":2316:2321   */\n      dup2\n        /* \"#utility.yul\":2298:2322   */\n      tag_39\n      jump\t// in\n    tag_65:\n        /* \"#utility.yul\":2291:2296   */\n      dup2\n        /* \"#utility.yul\":2288:2323   */\n      eq\n        /* \"#utility.yul\":2278:2341   */\n      tag_66\n      jumpi\n        /* \"#utility.yul\":2337:2338   */\n      0x00\n        /* \"#utility.yul\":2334:2335   */\n      dup1\n        /* \"#utility.yul\":2327:2339   */\n      revert\n        /* \"#utility.yul\":2278:2341   */\n    tag_66:\n        /* \"#utility.yul\":2225:2347   */\n      pop\n      jump\t// out\n\n    auxdata: 0xa2646970667358221220d92c691ac43c90427d0ee7b566f4233612121336ed5c39ae4d1b1cd5becfd69164736f6c63430008070033\n}\n",
				"bytecode": {
					"linkReferences": {},
					"object": "608060405234801561001057600080fd5b506102fc806100206000396000f3fe6080604052600436106100295760003560e01c80636d748ce51461002e578063d39fa2331461005e575b600080fd5b61004860048036038101906100439190610143565b61009b565b604051610055919061017f565b60405180910390f35b34801561006a57600080fd5b5061008560048036038101906100809190610143565b610116565b604051610092919061017f565b60405180910390f35b600080600090505b828110156100ef5760058114156100b9576100ef565b6002816100c6919061019a565b6000808381526020019081526020016000208190555080806100e790610232565b9150506100a3565b5060008060018461010091906101f4565b8152602001908152602001600020549050919050565b60006020528060005260406000206000915090505481565b60008135905061013d816102af565b92915050565b600060208284031215610159576101586102aa565b5b60006101678482850161012e565b91505092915050565b61017981610228565b82525050565b60006020820190506101946000830184610170565b92915050565b60006101a582610228565b91506101b083610228565b9250817fffffffffffffffffffffffffffffffffffffffffffffffffffffffffffffffff04831182151516156101e9576101e861027b565b5b828202905092915050565b60006101ff82610228565b915061020a83610228565b92508282101561021d5761021c61027b565b5b828203905092915050565b6000819050919050565b600061023d82610228565b91507fffffffffffffffffffffffffffffffffffffffffffffffffffffffffffffffff8214156102705761026f61027b565b5b600182019050919050565b7f4e487b7100000000000000000000000000000000000000000000000000000000600052601160045260246000fd5b600080fd5b6102b881610228565b81146102c357600080fd5b5056fea2646970667358221220d92c691ac43c90427d0ee7b566f4233612121336ed5c39ae4d1b1cd5becfd69164736f6c63430008070033",
					"opcodes": "PUSH1 0x80 PUSH1 0x40 MSTORE CALLVALUE DUP1 ISZERO PUSH2 0x10 JUMPI PUSH1 0x0 DUP1 REVERT JUMPDEST POP PUSH2 0x2FC DUP1 PUSH2 0x20 PUSH1 0x0 CODECOPY PUSH1 0x0 RETURN INVALID PUSH1 0x80 PUSH1 0x40 MSTORE PUSH1 0x4 CALLDATASIZE LT PUSH2 0x29 JUMPI PUSH1 0x0 CALLDATALOAD PUSH1 0xE0 SHR DUP1 PUSH4 0x6D748CE5 EQ PUSH2 0x2E JUMPI DUP1 PUSH4 0xD39FA233 EQ PUSH2 0x5E JUMPI JUMPDEST PUSH1 0x0 DUP1 REVERT JUMPDEST PUSH2 0x48 PUSH1 0x4 DUP1 CALLDATASIZE SUB DUP2 ADD SWAP1 PUSH2 0x43 SWAP2 SWAP1 PUSH2 0x143 JUMP JUMPDEST PUSH2 0x9B JUMP JUMPDEST PUSH1 0x40 MLOAD PUSH2 0x55 SWAP2 SWAP1 PUSH2 0x17F JUMP JUMPDEST PUSH1 0x40 MLOAD DUP1 SWAP2 SUB SWAP1 RETURN JUMPDEST CALLVALUE DUP1 ISZERO PUSH2 0x6A JUMPI PUSH1 0x0 DUP1 REVERT JUMPDEST POP PUSH2 0x85 PUSH1 0x4 DUP1 CALLDATASIZE SUB DUP2 ADD SWAP1 PUSH2 0x80 SWAP2 SWAP1 PUSH2 0x143 JUMP JUMPDEST PUSH2 0x116 JUMP JUMPDEST PUSH1 0x40 MLOAD PUSH2 0x92 SWAP2 SWAP1 PUSH2 0x17F JUMP JUMPDEST PUSH1 0x40 MLOAD DUP1 SWAP2 SUB SWAP1 RETURN JUMPDEST PUSH1 0x0 DUP1 PUSH1 0x0 SWAP1 POP JUMPDEST DUP3 DUP2 LT ISZERO PUSH2 0xEF JUMPI PUSH1 0x5 DUP2 EQ ISZERO PUSH2 0xB9 JUMPI PUSH2 0xEF JUMP JUMPDEST PUSH1 0x2 DUP2 PUSH2 0xC6 SWAP2 SWAP1 PUSH2 0x19A JUMP JUMPDEST PUSH1 0x0 DUP1 DUP4 DUP2 MSTORE PUSH1 0x20 ADD SWAP1 DUP2 MSTORE PUSH1 0x20 ADD PUSH1 0x0 KECCAK256 DUP2 SWAP1 SSTORE POP DUP1 DUP1 PUSH2 0xE7 SWAP1 PUSH2 0x232 JUMP JUMPDEST SWAP2 POP POP PUSH2 0xA3 JUMP JUMPDEST POP PUSH1 0x0 DUP1 PUSH1 0x1 DUP5 PUSH2 0x100 SWAP2 SWAP1 PUSH2 0x1F4 JUMP JUMPDEST DUP2 MSTORE PUSH1 0x20 ADD SWAP1 DUP2 MSTORE PUSH1 0x20 ADD PUSH1 0x0 KECCAK256 SLOAD SWAP1 POP SWAP2 SWAP1 POP JUMP JUMPDEST PUSH1 0x0 PUSH1 0x20 MSTORE DUP1 PUSH1 0x0 MSTORE PUSH1 0x40 PUSH1 0x0 KECCAK256 PUSH1 0x0 SWAP2 POP SWAP1 POP SLOAD DUP2 JUMP JUMPDEST PUSH1 0x0 DUP2 CALLDATALOAD SWAP1 POP PUSH2 0x13D DUP2 PUSH2 0x2AF JUMP JUMPDEST SWAP3 SWAP2 POP POP JUMP JUMPDEST PUSH1 0x0 PUSH1 0x20 DUP3 DUP5 SUB SLT ISZERO PUSH2 0x159 JUMPI PUSH2 0x158 PUSH2 0x2AA JUMP JUMPDEST JUMPDEST PUSH1 0x0 PUSH2 0x167 DUP5 DUP3 DUP6 ADD PUSH2 0x12E JUMP JUMPDEST SWAP2 POP POP SWAP3 SWAP2 POP POP JUMP JUMPDEST PUSH2 0x179 DUP2 PUSH2 0x228 JUMP JUMPDEST DUP3 MSTORE POP POP JUMP JUMPDEST PUSH1 0x0 PUSH1 0x20 DUP3 ADD SWAP1 POP PUSH2 0x194 PUSH1 0x0 DUP4 ADD DUP5 PUSH2 0x170 JUMP JUMPDEST SWAP3 SWAP2 POP POP JUMP JUMPDEST PUSH1 0x0 PUSH2 0x1A5 DUP3 PUSH2 0x228 JUMP JUMPDEST SWAP2 POP PUSH2 0x1B0 DUP4 PUSH2 0x228 JUMP JUMPDEST SWAP3 POP DUP2 PUSH32 0xFFFFFFFFFFFFFFFFFFFFFFFFFFFFFFFFFFFFFFFFFFFFFFFFFFFFFFFFFFFFFFFF DIV DUP4 GT DUP3 ISZERO ISZERO AND ISZERO PUSH2 0x1E9 JUMPI PUSH2 0x1E8 PUSH2 0x27B JUMP JUMPDEST JUMPDEST DUP3 DUP3 MUL SWAP1 POP SWAP3 SWAP2 POP POP JUMP JUMPDEST PUSH1 0x0 PUSH2 0x1FF DUP3 PUSH2 0x228 JUMP JUMPDEST SWAP2 POP PUSH2 0x20A DUP4 PUSH2 0x228 JUMP JUMPDEST SWAP3 POP DUP3 DUP3 LT ISZERO PUSH2 0x21D JUMPI PUSH2 0x21C PUSH2 0x27B JUMP JUMPDEST JUMPDEST DUP3 DUP3 SUB SWAP1 POP SWAP3 SWAP2 POP POP JUMP JUMPDEST PUSH1 0x0 DUP2 SWAP1 POP SWAP2 SWAP1 POP JUMP JUMPDEST PUSH1 0x0 PUSH2 0x23D DUP3 PUSH2 0x228 JUMP JUMPDEST SWAP2 POP PUSH32 0xFFFFFFFFFFFFFFFFFFFFFFFFFFFFFFFFFFFFFFFFFFFFFFFFFFFFFFFFFFFFFFFF DUP3 EQ ISZERO PUSH2 0x270 JUMPI PUSH2 0x26F PUSH2 0x27B JUMP JUMPDEST JUMPDEST PUSH1 0x1 DUP3 ADD SWAP1 POP SWAP2 SWAP1 POP JUMP JUMPDEST PUSH32 0x4E487B7100000000000000000000000000000000000000000000000000000000 PUSH1 0x0 MSTORE PUSH1 0x11 PUSH1 0x4 MSTORE PUSH1 0x24 PUSH1 0x0 REVERT JUMPDEST PUSH1 0x0 DUP1 REVERT JUMPDEST PUSH2 0x2B8 DUP2 PUSH2 0x228 JUMP JUMPDEST DUP2 EQ PUSH2 0x2C3 JUMPI PUSH1 0x0 DUP1 REVERT JUMPDEST POP JUMP INVALID LOG2 PUSH5 0x6970667358 0x22 SLT KECCAK256 0xD9 0x2C PUSH10 0x1AC43C90427D0EE7B566 DELEGATECALL 0x23 CALLDATASIZE SLT SLT SGT CALLDATASIZE 0xED 0x5C CODECOPY 0xAE 0x4D SHL SHR 0xD5 0xBE 0xCF 0xD6 SWAP2 PUSH5 0x736F6C6343 STOP ADDMOD SMOD STOP CALLER "
				},
				"gasEstimates": {
					"creation": {
						"codeDepositCost": "152800",
						"executionCost": "196",
						"totalCost": "152996"
					},
					"external": {
						"fillNumbers(uint256)": "infinite",
						"numbers(uint256)": "infinite"
					}
				},
				"methodIdentifiers": {
					"fillNumbers(uint256)": "6d748ce5",
					"numbers(uint256)": "d39fa233"
				}
			},
			"storageLayout": {
				"storage": [
					{
						"astId": 5,
						"contract": "break与continue/BreakExample.sol:BreakExample",
						"label": "numbers",
						"offset": 0,
						"slot": "0",
						"type": "t_mapping(t_uint256,t_uint256)"
					}
				],
				"types": {
					"t_mapping(t_uint256,t_uint256)": {
						"encoding": "mapping",
						"key": "t_uint256",
						"label": "mapping(uint256 => uint256)",
						"numberOfBytes": "32",
						"value": "t_uint256"
					},
					"t_uint256": {
						"encoding": "inplace",
						"label": "uint256",
						"numberOfBytes": "32"
					}
				}
			},
			"userdoc": {
				"kind": "user",
				"methods": {},
				"version": 1
			}
		}
	}
}