{
	"data": {
		"bytecode": {
			"linkReferences": {},
			"object": "60806040526005600055600a60015534801561001a57600080fd5b506101de8061002a6000396000f3fe608060405234801561001057600080fd5b50600436106100625760003560e01c80631e2285141461006757806332f020b4146100855780635ba0b6e8146100a357806368644659146100c1578063826fcd0f146100df578063e1ad5fbb146100fd575b600080fd5b61006f61011b565b60405161007c9190610181565b60405180910390f35b61008d610129565b60405161009a9190610181565b60405180910390f35b6100ab610138565b6040516100b89190610181565b60405180910390f35b6100c9610146565b6040516100d69190610181565b60405180910390f35b6100e7610155565b6040516100f49190610181565b60405180910390f35b610105610164565b6040516101129190610181565b60405180910390f35b600060015460005414905090565b60006001546000541115905090565b600060015460005410905090565b60006001546000541415905090565b60006001546000541015905090565b600060015460005411905090565b61017b8161019c565b82525050565b60006020820190506101966000830184610172565b92915050565b6000811515905091905056fea2646970667358221220590917a0b9a68435c439f102e642276e29774d1e60caf162cee002189e0473b664736f6c63430008070033",
			"opcodes": "PUSH1 0x80 PUSH1 0x40 MSTORE PUSH1 0x5 PUSH1 0x0 SSTORE PUSH1 0xA PUSH1 0x1 SSTORE CALLVALUE DUP1 ISZERO PUSH2 0x1A JUMPI PUSH1 0x0 DUP1 REVERT JUMPDEST POP PUSH2 0x1DE DUP1 PUSH2 0x2A PUSH1 0x0 CODECOPY PUSH1 0x0 RETURN INVALID PUSH1 0x80 PUSH1 0x40 MSTORE CALLVALUE DUP1 ISZERO PUSH2 0x10 JUMPI PUSH1 0x0 DUP1 REVERT JUMPDEST POP PUSH1 0x4 CALLDATASIZE LT PUSH2 0x62 JUMPI PUSH1 0x0 CALLDATALOAD PUSH1 0xE0 SHR DUP1 PUSH4 0x1E228514 EQ PUSH2 0x67 JUMPI DUP1 PUSH4 0x32F020B4 EQ PUSH2 0x85 JUMPI DUP1 PUSH4 0x5BA0B6E8 EQ PUSH2 0xA3 JUMPI DUP1 PUSH4 0x68644659 EQ PUSH2 0xC1 JUMPI DUP1 PUSH4 0x826FCD0F EQ PUSH2 0xDF JUMPI DUP1 PUSH4 0xE1AD5FBB EQ PUSH2 0xFD JUMPI JUMPDEST PUSH1 0x0 DUP1 REVERT JUMPDEST PUSH2 0x6F PUSH2 0x11B JUMP JUMPDEST PUSH1 0x40 MLOAD PUSH2 0x7C SWAP2 SWAP1 PUSH2 0x181 JUMP JUMPDEST PUSH1 0x40 MLOAD DUP1 SWAP2 SUB SWAP1 RETURN JUMPDEST PUSH2 0x8D PUSH2 0x129 JUMP JUMPDEST PUSH1 0x40 MLOAD PUSH2 0x9A SWAP2 SWAP1 PUSH2 0x181 JUMP JUMPDEST PUSH1 0x40 MLOAD DUP1 SWAP2 SUB SWAP1 RETURN JUMPDEST PUSH2 0xAB PUSH2 0x138 JUMP JUMPDEST PUSH1 0x40 MLOAD PUSH2 0xB8 SWAP2 SWAP1 PUSH2 0x181 JUMP JUMPDEST PUSH1 0x40 MLOAD DUP1 SWAP2 SUB SWAP1 RETURN JUMPDEST PUSH2 0xC9 PUSH2 0x146 JUMP JUMPDEST PUSH1 0x40 MLOAD PUSH2 0xD6 SWAP2 SWAP1 PUSH2 0x181 JUMP JUMPDEST PUSH1 0x40 MLOAD DUP1 SWAP2 SUB SWAP1 RETURN JUMPDEST PUSH2 0xE7 PUSH2 0x155 JUMP JUMPDEST PUSH1 0x40 MLOAD PUSH2 0xF4 SWAP2 SWAP1 PUSH2 0x181 JUMP JUMPDEST PUSH1 0x40 MLOAD DUP1 SWAP2 SUB SWAP1 RETURN JUMPDEST PUSH2 0x105 PUSH2 0x164 JUMP JUMPDEST PUSH1 0x40 MLOAD PUSH2 0x112 SWAP2 SWAP1 PUSH2 0x181 JUMP JUMPDEST PUSH1 0x40 MLOAD DUP1 SWAP2 SUB SWAP1 RETURN JUMPDEST PUSH1 0x0 PUSH1 0x1 SLOAD PUSH1 0x0 SLOAD EQ SWAP1 POP SWAP1 JUMP JUMPDEST PUSH1 0x0 PUSH1 0x1 SLOAD PUSH1 0x0 SLOAD GT ISZERO SWAP1 POP SWAP1 JUMP JUMPDEST PUSH1 0x0 PUSH1 0x1 SLOAD PUSH1 0x0 SLOAD LT SWAP1 POP SWAP1 JUMP JUMPDEST PUSH1 0x0 PUSH1 0x1 SLOAD PUSH1 0x0 SLOAD EQ ISZERO SWAP1 POP SWAP1 JUMP JUMPDEST PUSH1 0x0 PUSH1 0x1 SLOAD PUSH1 0x0 SLOAD LT ISZERO SWAP1 POP SWAP1 JUMP JUMPDEST PUSH1 0x0 PUSH1 0x1 SLOAD PUSH1 0x0 SLOAD GT SWAP1 POP SWAP1 JUMP JUMPDEST PUSH2 0x17B DUP2 PUSH2 0x19C JUMP JUMPDEST DUP3 MSTORE POP POP JUMP JUMPDEST PUSH1 0x0 PUSH1 0x20 DUP3 ADD SWAP1 POP PUSH2 0x196 PUSH1 0x0 DUP4 ADD DUP5 PUSH2 0x172 JUMP JUMPDEST SWAP3 SWAP2 POP POP JUMP JUMPDEST PUSH1 0x0 DUP2 ISZERO ISZERO SWAP1 POP SWAP2 SWAP1 POP JUMP INVALID LOG2 PUSH5 0x6970667358 0x22 SLT KECCAK256 MSIZE MULMOD OR LOG0 0xB9 0xA6 DUP5 CALLDATALOAD 0xC4 CODECOPY CALL MUL 0xE6 TIMESTAMP 0x27 PUSH15 0x29774D1E60CAF162CEE002189E0473 0xB6 PUSH5 0x736F6C6343 STOP ADDMOD SMOD STOP CALLER "
		},
		"gasEstimates": {
			"creation": {
				"codeDepositCost": "95600",
				"executionCost": "44353",
				"totalCost": "139953"
			},
			"external": {
				"equal()": "4527",
				"greaterThan()": "4637",
				"greaterThanOrEqual()": "4618",
				"lessThan()": "4571",
				"lessThanOrEqual()": "4552",
				"notEqual()": "4596"
			}
		},
		"methodIdentifiers": {
			"equal()": "1e228514",
			"greaterThan()": "e1ad5fbb",
			"greaterThanOrEqual()": "826fcd0f",
			"lessThan()": "5ba0b6e8",
			"lessThanOrEqual()": "32f020b4",
			"notEqual()": "68644659"
		}
	},
	"abi": [
		{
			"inputs": [],
			"name": "equal",
			"outputs": [
				{
					"internalType": "bool",
					"name": "",
					"type": "bool"
				}
			],
			"stateMutability": "view",
			"type": "function"
		},
		{
			"inputs": [],
			"name": "greaterThan",
			"outputs": [
				{
					"internalType": "bool",
					"name": "",
					"type": "bool"
				}
			],
			"stateMutability": "view",
			"type": "function"
		},
		{
			"inputs": [],
			"name": "greaterThanOrEqual",
			"outputs": [
				{
					"internalType": "bool",
					"name": "",
					"type": "bool"
				}
			],
			"stateMutability": "view",
			"type": "function"
		},
		{
			"inputs": [],
			"name": "lessThan",
			"outputs": [
				{
					"internalType": "bool",
					"name": "",
					"type": "bool"
				}
			],
			"stateMutability": "view",
			"type": "function"
		},
		{
			"inputs": [],
			"name": "lessThanOrEqual",
			"outputs": [
				{
					"internalType": "bool",
					"name": "",
					"type": "bool"
				}
			],
			"stateMutability": "view",
			"type": "function"
		},
		{
			"inputs": [],
			"name": "notEqual",
			"outputs": [
				{
					"internalType": "bool",
					"name": "",
					"type": "bool"
				}
			],
			"stateMutability": "view",
			"type": "function"
		}
	]
}