{
	"fallback/FallbackTest.sol": {
		"SolidityTest": {
			"abi": [
				{
					"inputs": [
						{
							"internalType": "address",
							"name": "addr",
							"type": "address"
						}
					],
					"stateMutability": "nonpayable",
					"type": "constructor"
				},
				{
					"inputs": [],
					"name": "callFallback",
					"outputs": [
						{
							"internalType": "string",
							"name": "",
							"type": "string"
						}
					],
					"stateMutability": "view",
					"type": "function"
				}
			],
			"devdoc": {
				"kind": "dev",
				"methods": {},
				"version": 1
			},
			"evm": {
				"assembly": "    /* \"fallback/FallbackTest.sol\":207:791  contract SolidityTest {... */\n  mstore(0x40, 0x80)\n    /* \"fallback/FallbackTest.sol\":284:338  constructor(address addr) {... */\n  callvalue\n  dup1\n  iszero\n  tag_1\n  jumpi\n  0x00\n  dup1\n  revert\ntag_1:\n  pop\n  mload(0x40)\n  sub(codesize, bytecodeSize)\n  dup1\n  bytecodeSize\n  dup4\n  codecopy\n  dup2\n  dup2\n  add\n  0x40\n  mstore\n  dup2\n  add\n  swap1\n  tag_2\n  swap2\n  swap1\n  tag_3\n  jump\t// in\ntag_2:\n    /* \"fallback/FallbackTest.sol\":326:330  addr */\n  dup1\n    /* \"fallback/FallbackTest.sol\":321:323  fb */\n  0x00\n  dup1\n    /* \"fallback/FallbackTest.sol\":321:330  fb = addr */\n  0x0100\n  exp\n  dup2\n  sload\n  dup2\n  0xffffffffffffffffffffffffffffffffffffffff\n  mul\n  not\n  and\n  swap1\n  dup4\n  0xffffffffffffffffffffffffffffffffffffffff\n  and\n  mul\n  or\n  swap1\n  sstore\n  pop\n    /* \"fallback/FallbackTest.sol\":284:338  constructor(address addr) {... */\n  pop\n    /* \"fallback/FallbackTest.sol\":207:791  contract SolidityTest {... */\n  jump(tag_6)\n    /* \"#utility.yul\":88:205   */\ntag_8:\n    /* \"#utility.yul\":197:198   */\n  0x00\n    /* \"#utility.yul\":194:195   */\n  dup1\n    /* \"#utility.yul\":187:199   */\n  revert\n    /* \"#utility.yul\":334:460   */\ntag_10:\n    /* \"#utility.yul\":371:378   */\n  0x00\n    /* \"#utility.yul\":411:453   */\n  0xffffffffffffffffffffffffffffffffffffffff\n    /* \"#utility.yul\":404:409   */\n  dup3\n    /* \"#utility.yul\":400:454   */\n  and\n    /* \"#utility.yul\":389:454   */\n  swap1\n  pop\n    /* \"#utility.yul\":334:460   */\n  swap2\n  swap1\n  pop\n  jump\t// out\n    /* \"#utility.yul\":466:562   */\ntag_11:\n    /* \"#utility.yul\":503:510   */\n  0x00\n    /* \"#utility.yul\":532:556   */\n  tag_20\n    /* \"#utility.yul\":550:555   */\n  dup3\n    /* \"#utility.yul\":532:556   */\n  tag_10\n  jump\t// in\ntag_20:\n    /* \"#utility.yul\":521:556   */\n  swap1\n  pop\n    /* \"#utility.yul\":466:562   */\n  swap2\n  swap1\n  pop\n  jump\t// out\n    /* \"#utility.yul\":568:690   */\ntag_12:\n    /* \"#utility.yul\":641:665   */\n  tag_22\n    /* \"#utility.yul\":659:664   */\n  dup2\n    /* \"#utility.yul\":641:665   */\n  tag_11\n  jump\t// in\ntag_22:\n    /* \"#utility.yul\":634:639   */\n  dup2\n    /* \"#utility.yul\":631:666   */\n  eq\n    /* \"#utility.yul\":621:684   */\n  tag_23\n  jumpi\n    /* \"#utility.yul\":680:681   */\n  0x00\n    /* \"#utility.yul\":677:678   */\n  dup1\n    /* \"#utility.yul\":670:682   */\n  revert\n    /* \"#utility.yul\":621:684   */\ntag_23:\n    /* \"#utility.yul\":568:690   */\n  pop\n  jump\t// out\n    /* \"#utility.yul\":696:839   */\ntag_13:\n    /* \"#utility.yul\":753:758   */\n  0x00\n    /* \"#utility.yul\":784:790   */\n  dup2\n    /* \"#utility.yul\":778:791   */\n  mload\n    /* \"#utility.yul\":769:791   */\n  swap1\n  pop\n    /* \"#utility.yul\":800:833   */\n  tag_25\n    /* \"#utility.yul\":827:832   */\n  dup2\n    /* \"#utility.yul\":800:833   */\n  tag_12\n  jump\t// in\ntag_25:\n    /* \"#utility.yul\":696:839   */\n  swap3\n  swap2\n  pop\n  pop\n  jump\t// out\n    /* \"#utility.yul\":845:1196   */\ntag_3:\n    /* \"#utility.yul\":915:921   */\n  0x00\n    /* \"#utility.yul\":964:966   */\n  0x20\n    /* \"#utility.yul\":952:961   */\n  dup3\n    /* \"#utility.yul\":943:950   */\n  dup5\n    /* \"#utility.yul\":939:962   */\n  sub\n    /* \"#utility.yul\":935:967   */\n  slt\n    /* \"#utility.yul\":932:1051   */\n  iszero\n  tag_27\n  jumpi\n    /* \"#utility.yul\":970:1049   */\n  tag_28\n  tag_8\n  jump\t// in\ntag_28:\n    /* \"#utility.yul\":932:1051   */\ntag_27:\n    /* \"#utility.yul\":1090:1091   */\n  0x00\n    /* \"#utility.yul\":1115:1179   */\n  tag_29\n    /* \"#utility.yul\":1171:1178   */\n  dup5\n    /* \"#utility.yul\":1162:1168   */\n  dup3\n    /* \"#utility.yul\":1151:1160   */\n  dup6\n    /* \"#utility.yul\":1147:1169   */\n  add\n    /* \"#utility.yul\":1115:1179   */\n  tag_13\n  jump\t// in\ntag_29:\n    /* \"#utility.yul\":1105:1179   */\n  swap2\n  pop\n    /* \"#utility.yul\":1061:1189   */\n  pop\n    /* \"#utility.yul\":845:1196   */\n  swap3\n  swap2\n  pop\n  pop\n  jump\t// out\n    /* \"fallback/FallbackTest.sol\":207:791  contract SolidityTest {... */\ntag_6:\n  dataSize(sub_0)\n  dup1\n  dataOffset(sub_0)\n  0x00\n  codecopy\n  0x00\n  return\nstop\n\nsub_0: assembly {\n        /* \"fallback/FallbackTest.sol\":207:791  contract SolidityTest {... */\n      mstore(0x40, 0x80)\n      callvalue\n      dup1\n      iszero\n      tag_1\n      jumpi\n      0x00\n      dup1\n      revert\n    tag_1:\n      pop\n      jumpi(tag_2, lt(calldatasize, 0x04))\n      shr(0xe0, calldataload(0x00))\n      dup1\n      0x366a4a1e\n      eq\n      tag_3\n      jumpi\n    tag_2:\n      0x00\n      dup1\n      revert\n        /* \"fallback/FallbackTest.sol\":346:788  function callFallback() external view returns(string memory) {... */\n    tag_3:\n      tag_4\n      tag_5\n      jump\t// in\n    tag_4:\n      mload(0x40)\n      tag_6\n      swap2\n      swap1\n      tag_7\n      jump\t// in\n    tag_6:\n      mload(0x40)\n      dup1\n      swap2\n      sub\n      swap1\n      return\n    tag_5:\n        /* \"fallback/FallbackTest.sol\":392:405  string memory */\n      0x60\n        /* \"fallback/FallbackTest.sol\":479:494  bytes4 methodId */\n      0x00\n        /* \"fallback/FallbackTest.sol\":506:525  keccak256(\"echo()\") */\n      0x29f4acb0ed8a5b2201afd96e6e3bcbca8f3ea01c1a7ccdacf8c292a92d60067f\n        /* \"fallback/FallbackTest.sol\":479:526  bytes4 methodId =   bytes4(keccak256(\"echo()\")) */\n      swap1\n      pop\n        /* \"fallback/FallbackTest.sol\":570:582  bool success */\n      0x00\n        /* \"fallback/FallbackTest.sol\":584:601  bytes memory data */\n      dup1\n        /* \"fallback/FallbackTest.sol\":605:607  fb */\n      0x00\n      dup1\n      sload\n      swap1\n      0x0100\n      exp\n      swap1\n      div\n      0xffffffffffffffffffffffffffffffffffffffff\n      and\n        /* \"fallback/FallbackTest.sol\":605:618  fb.staticcall */\n      0xffffffffffffffffffffffffffffffffffffffff\n      and\n        /* \"fallback/FallbackTest.sol\":642:650  methodId */\n      dup4\n        /* \"fallback/FallbackTest.sol\":619:651  abi.encodeWithSelector(methodId) */\n      add(0x24, mload(0x40))\n      mload(0x40)\n      0x20\n      dup2\n      dup4\n      sub\n      sub\n      dup2\n      mstore\n      swap1\n      0x40\n      mstore\n      swap1\n      not(0xffffffffffffffffffffffffffffffffffffffffffffffffffffffff)\n      and\n      0x20\n      dup3\n      add\n      dup1\n      mload\n      0xffffffffffffffffffffffffffffffffffffffffffffffffffffffff\n      dup4\n      dup2\n      dup4\n      and\n      or\n      dup4\n      mstore\n      pop\n      pop\n      pop\n      pop\n        /* \"fallback/FallbackTest.sol\":605:652  fb.staticcall(abi.encodeWithSelector(methodId)) */\n      mload(0x40)\n      tag_9\n      swap2\n      swap1\n      tag_10\n      jump\t// in\n    tag_9:\n      0x00\n      mload(0x40)\n      dup1\n      dup4\n      sub\n      dup2\n      dup6\n      gas\n      staticcall\n      swap2\n      pop\n      pop\n      returndatasize\n      dup1\n      0x00\n      dup2\n      eq\n      tag_13\n      jumpi\n      mload(0x40)\n      swap2\n      pop\n      and(add(returndatasize, 0x3f), not(0x1f))\n      dup3\n      add\n      0x40\n      mstore\n      returndatasize\n      dup3\n      mstore\n      returndatasize\n      0x00\n      0x20\n      dup5\n      add\n      returndatacopy\n      jump(tag_12)\n    tag_13:\n      0x60\n      swap2\n      pop\n    tag_12:\n      pop\n        /* \"fallback/FallbackTest.sol\":569:652  (bool success, bytes memory data) = fb.staticcall(abi.encodeWithSelector(methodId)) */\n      swap2\n      pop\n      swap2\n      pop\n        /* \"fallback/FallbackTest.sol\":666:673  success */\n      dup2\n        /* \"fallback/FallbackTest.sol\":663:781  if(success) {... */\n      iszero\n      tag_14\n      jumpi\n        /* \"fallback/FallbackTest.sol\":708:712  data */\n      dup1\n        /* \"fallback/FallbackTest.sol\":697:722  abi.decode(data,(string)) */\n      dup1\n      0x20\n      add\n      swap1\n      mload\n      dup2\n      add\n      swap1\n      tag_15\n      swap2\n      swap1\n      tag_16\n      jump\t// in\n    tag_15:\n        /* \"fallback/FallbackTest.sol\":690:722  return abi.decode(data,(string)) */\n      swap4\n      pop\n      pop\n      pop\n      pop\n      jump(tag_8)\n        /* \"fallback/FallbackTest.sol\":663:781  if(success) {... */\n    tag_14:\n        /* \"fallback/FallbackTest.sol\":755:769  return \"error\" */\n      mload(0x40)\n      dup1\n      0x40\n      add\n      0x40\n      mstore\n      dup1\n      0x05\n      dup2\n      mstore\n      0x20\n      add\n      0x6572726f72000000000000000000000000000000000000000000000000000000\n      dup2\n      mstore\n      pop\n      swap4\n      pop\n      pop\n      pop\n      pop\n        /* \"fallback/FallbackTest.sol\":346:788  function callFallback() external view returns(string memory) {... */\n    tag_8:\n      swap1\n      jump\t// out\n        /* \"#utility.yul\":7:106   */\n    tag_18:\n        /* \"#utility.yul\":59:65   */\n      0x00\n        /* \"#utility.yul\":93:98   */\n      dup2\n        /* \"#utility.yul\":87:99   */\n      mload\n        /* \"#utility.yul\":77:99   */\n      swap1\n      pop\n        /* \"#utility.yul\":7:106   */\n      swap2\n      swap1\n      pop\n      jump\t// out\n        /* \"#utility.yul\":112:281   */\n    tag_19:\n        /* \"#utility.yul\":196:207   */\n      0x00\n        /* \"#utility.yul\":230:236   */\n      dup3\n        /* \"#utility.yul\":225:228   */\n      dup3\n        /* \"#utility.yul\":218:237   */\n      mstore\n        /* \"#utility.yul\":270:274   */\n      0x20\n        /* \"#utility.yul\":265:268   */\n      dup3\n        /* \"#utility.yul\":261:275   */\n      add\n        /* \"#utility.yul\":246:275   */\n      swap1\n      pop\n        /* \"#utility.yul\":112:281   */\n      swap3\n      swap2\n      pop\n      pop\n      jump\t// out\n        /* \"#utility.yul\":287:533   */\n    tag_20:\n        /* \"#utility.yul\":368:369   */\n      0x00\n        /* \"#utility.yul\":378:491   */\n    tag_41:\n        /* \"#utility.yul\":392:398   */\n      dup4\n        /* \"#utility.yul\":389:390   */\n      dup2\n        /* \"#utility.yul\":386:399   */\n      lt\n        /* \"#utility.yul\":378:491   */\n      iszero\n      tag_43\n      jumpi\n        /* \"#utility.yul\":477:478   */\n      dup1\n        /* \"#utility.yul\":472:475   */\n      dup3\n        /* \"#utility.yul\":468:479   */\n      add\n        /* \"#utility.yul\":462:480   */\n      mload\n        /* \"#utility.yul\":458:459   */\n      dup2\n        /* \"#utility.yul\":453:456   */\n      dup5\n        /* \"#utility.yul\":449:460   */\n      add\n        /* \"#utility.yul\":442:481   */\n      mstore\n        /* \"#utility.yul\":414:416   */\n      0x20\n        /* \"#utility.yul\":411:412   */\n      dup2\n        /* \"#utility.yul\":407:417   */\n      add\n        /* \"#utility.yul\":402:417   */\n      swap1\n      pop\n        /* \"#utility.yul\":378:491   */\n      jump(tag_41)\n    tag_43:\n        /* \"#utility.yul\":525:526   */\n      0x00\n        /* \"#utility.yul\":516:522   */\n      dup5\n        /* \"#utility.yul\":511:514   */\n      dup5\n        /* \"#utility.yul\":507:523   */\n      add\n        /* \"#utility.yul\":500:527   */\n      mstore\n        /* \"#utility.yul\":349:533   */\n      pop\n        /* \"#utility.yul\":287:533   */\n      pop\n      pop\n      pop\n      jump\t// out\n        /* \"#utility.yul\":539:641   */\n    tag_21:\n        /* \"#utility.yul\":580:586   */\n      0x00\n        /* \"#utility.yul\":631:633   */\n      0x1f\n        /* \"#utility.yul\":627:634   */\n      not\n        /* \"#utility.yul\":622:624   */\n      0x1f\n        /* \"#utility.yul\":615:620   */\n      dup4\n        /* \"#utility.yul\":611:625   */\n      add\n        /* \"#utility.yul\":607:635   */\n      and\n        /* \"#utility.yul\":597:635   */\n      swap1\n      pop\n        /* \"#utility.yul\":539:641   */\n      swap2\n      swap1\n      pop\n      jump\t// out\n        /* \"#utility.yul\":647:1024   */\n    tag_22:\n        /* \"#utility.yul\":735:738   */\n      0x00\n        /* \"#utility.yul\":763:802   */\n      tag_46\n        /* \"#utility.yul\":796:801   */\n      dup3\n        /* \"#utility.yul\":763:802   */\n      tag_18\n      jump\t// in\n    tag_46:\n        /* \"#utility.yul\":818:889   */\n      tag_47\n        /* \"#utility.yul\":882:888   */\n      dup2\n        /* \"#utility.yul\":877:880   */\n      dup6\n        /* \"#utility.yul\":818:889   */\n      tag_19\n      jump\t// in\n    tag_47:\n        /* \"#utility.yul\":811:889   */\n      swap4\n      pop\n        /* \"#utility.yul\":898:963   */\n      tag_48\n        /* \"#utility.yul\":956:962   */\n      dup2\n        /* \"#utility.yul\":951:954   */\n      dup6\n        /* \"#utility.yul\":944:948   */\n      0x20\n        /* \"#utility.yul\":937:942   */\n      dup7\n        /* \"#utility.yul\":933:949   */\n      add\n        /* \"#utility.yul\":898:963   */\n      tag_20\n      jump\t// in\n    tag_48:\n        /* \"#utility.yul\":988:1017   */\n      tag_49\n        /* \"#utility.yul\":1010:1016   */\n      dup2\n        /* \"#utility.yul\":988:1017   */\n      tag_21\n      jump\t// in\n    tag_49:\n        /* \"#utility.yul\":983:986   */\n      dup5\n        /* \"#utility.yul\":979:1018   */\n      add\n        /* \"#utility.yul\":972:1018   */\n      swap2\n      pop\n        /* \"#utility.yul\":739:1024   */\n      pop\n        /* \"#utility.yul\":647:1024   */\n      swap3\n      swap2\n      pop\n      pop\n      jump\t// out\n        /* \"#utility.yul\":1030:1343   */\n    tag_7:\n        /* \"#utility.yul\":1143:1147   */\n      0x00\n        /* \"#utility.yul\":1181:1183   */\n      0x20\n        /* \"#utility.yul\":1170:1179   */\n      dup3\n        /* \"#utility.yul\":1166:1184   */\n      add\n        /* \"#utility.yul\":1158:1184   */\n      swap1\n      pop\n        /* \"#utility.yul\":1230:1239   */\n      dup2\n        /* \"#utility.yul\":1224:1228   */\n      dup2\n        /* \"#utility.yul\":1220:1240   */\n      sub\n        /* \"#utility.yul\":1216:1217   */\n      0x00\n        /* \"#utility.yul\":1205:1214   */\n      dup4\n        /* \"#utility.yul\":1201:1218   */\n      add\n        /* \"#utility.yul\":1194:1241   */\n      mstore\n        /* \"#utility.yul\":1258:1336   */\n      tag_51\n        /* \"#utility.yul\":1331:1335   */\n      dup2\n        /* \"#utility.yul\":1322:1328   */\n      dup5\n        /* \"#utility.yul\":1258:1336   */\n      tag_22\n      jump\t// in\n    tag_51:\n        /* \"#utility.yul\":1250:1336   */\n      swap1\n      pop\n        /* \"#utility.yul\":1030:1343   */\n      swap3\n      swap2\n      pop\n      pop\n      jump\t// out\n        /* \"#utility.yul\":1349:1447   */\n    tag_23:\n        /* \"#utility.yul\":1400:1406   */\n      0x00\n        /* \"#utility.yul\":1434:1439   */\n      dup2\n        /* \"#utility.yul\":1428:1440   */\n      mload\n        /* \"#utility.yul\":1418:1440   */\n      swap1\n      pop\n        /* \"#utility.yul\":1349:1447   */\n      swap2\n      swap1\n      pop\n      jump\t// out\n        /* \"#utility.yul\":1453:1600   */\n    tag_24:\n        /* \"#utility.yul\":1554:1565   */\n      0x00\n        /* \"#utility.yul\":1591:1594   */\n      dup2\n        /* \"#utility.yul\":1576:1594   */\n      swap1\n      pop\n        /* \"#utility.yul\":1453:1600   */\n      swap3\n      swap2\n      pop\n      pop\n      jump\t// out\n        /* \"#utility.yul\":1606:1992   */\n    tag_25:\n        /* \"#utility.yul\":1710:1713   */\n      0x00\n        /* \"#utility.yul\":1738:1776   */\n      tag_55\n        /* \"#utility.yul\":1770:1775   */\n      dup3\n        /* \"#utility.yul\":1738:1776   */\n      tag_23\n      jump\t// in\n    tag_55:\n        /* \"#utility.yul\":1792:1880   */\n      tag_56\n        /* \"#utility.yul\":1873:1879   */\n      dup2\n        /* \"#utility.yul\":1868:1871   */\n      dup6\n        /* \"#utility.yul\":1792:1880   */\n      tag_24\n      jump\t// in\n    tag_56:\n        /* \"#utility.yul\":1785:1880   */\n      swap4\n      pop\n        /* \"#utility.yul\":1889:1954   */\n      tag_57\n        /* \"#utility.yul\":1947:1953   */\n      dup2\n        /* \"#utility.yul\":1942:1945   */\n      dup6\n        /* \"#utility.yul\":1935:1939   */\n      0x20\n        /* \"#utility.yul\":1928:1933   */\n      dup7\n        /* \"#utility.yul\":1924:1940   */\n      add\n        /* \"#utility.yul\":1889:1954   */\n      tag_20\n      jump\t// in\n    tag_57:\n        /* \"#utility.yul\":1979:1985   */\n      dup1\n        /* \"#utility.yul\":1974:1977   */\n      dup5\n        /* \"#utility.yul\":1970:1986   */\n      add\n        /* \"#utility.yul\":1963:1986   */\n      swap2\n      pop\n        /* \"#utility.yul\":1714:1992   */\n      pop\n        /* \"#utility.yul\":1606:1992   */\n      swap3\n      swap2\n      pop\n      pop\n      jump\t// out\n        /* \"#utility.yul\":1998:2269   */\n    tag_10:\n        /* \"#utility.yul\":2128:2131   */\n      0x00\n        /* \"#utility.yul\":2150:2243   */\n      tag_59\n        /* \"#utility.yul\":2239:2242   */\n      dup3\n        /* \"#utility.yul\":2230:2236   */\n      dup5\n        /* \"#utility.yul\":2150:2243   */\n      tag_25\n      jump\t// in\n    tag_59:\n        /* \"#utility.yul\":2143:2243   */\n      swap2\n      pop\n        /* \"#utility.yul\":2260:2263   */\n      dup2\n        /* \"#utility.yul\":2253:2263   */\n      swap1\n      pop\n        /* \"#utility.yul\":1998:2269   */\n      swap3\n      swap2\n      pop\n      pop\n      jump\t// out\n        /* \"#utility.yul\":2275:2350   */\n    tag_26:\n        /* \"#utility.yul\":2308:2314   */\n      0x00\n        /* \"#utility.yul\":2341:2343   */\n      0x40\n        /* \"#utility.yul\":2335:2344   */\n      mload\n        /* \"#utility.yul\":2325:2344   */\n      swap1\n      pop\n        /* \"#utility.yul\":2275:2350   */\n      swap1\n      jump\t// out\n        /* \"#utility.yul\":2356:2473   */\n    tag_27:\n        /* \"#utility.yul\":2465:2466   */\n      0x00\n        /* \"#utility.yul\":2462:2463   */\n      dup1\n        /* \"#utility.yul\":2455:2467   */\n      revert\n        /* \"#utility.yul\":2479:2596   */\n    tag_28:\n        /* \"#utility.yul\":2588:2589   */\n      0x00\n        /* \"#utility.yul\":2585:2586   */\n      dup1\n        /* \"#utility.yul\":2578:2590   */\n      revert\n        /* \"#utility.yul\":2602:2719   */\n    tag_29:\n        /* \"#utility.yul\":2711:2712   */\n      0x00\n        /* \"#utility.yul\":2708:2709   */\n      dup1\n        /* \"#utility.yul\":2701:2713   */\n      revert\n        /* \"#utility.yul\":2725:2842   */\n    tag_30:\n        /* \"#utility.yul\":2834:2835   */\n      0x00\n        /* \"#utility.yul\":2831:2832   */\n      dup1\n        /* \"#utility.yul\":2824:2836   */\n      revert\n        /* \"#utility.yul\":2848:3028   */\n    tag_31:\n        /* \"#utility.yul\":2896:2973   */\n      0x4e487b7100000000000000000000000000000000000000000000000000000000\n        /* \"#utility.yul\":2893:2894   */\n      0x00\n        /* \"#utility.yul\":2886:2974   */\n      mstore\n        /* \"#utility.yul\":2993:2997   */\n      0x41\n        /* \"#utility.yul\":2990:2991   */\n      0x04\n        /* \"#utility.yul\":2983:2998   */\n      mstore\n        /* \"#utility.yul\":3017:3021   */\n      0x24\n        /* \"#utility.yul\":3014:3015   */\n      0x00\n        /* \"#utility.yul\":3007:3022   */\n      revert\n        /* \"#utility.yul\":3034:3315   */\n    tag_32:\n        /* \"#utility.yul\":3117:3144   */\n      tag_67\n        /* \"#utility.yul\":3139:3143   */\n      dup3\n        /* \"#utility.yul\":3117:3144   */\n      tag_21\n      jump\t// in\n    tag_67:\n        /* \"#utility.yul\":3109:3115   */\n      dup2\n        /* \"#utility.yul\":3105:3145   */\n      add\n        /* \"#utility.yul\":3247:3253   */\n      dup2\n        /* \"#utility.yul\":3235:3245   */\n      dup2\n        /* \"#utility.yul\":3232:3254   */\n      lt\n        /* \"#utility.yul\":3211:3229   */\n      0xffffffffffffffff\n        /* \"#utility.yul\":3199:3209   */\n      dup3\n        /* \"#utility.yul\":3196:3230   */\n      gt\n        /* \"#utility.yul\":3193:3255   */\n      or\n        /* \"#utility.yul\":3190:3278   */\n      iszero\n      tag_68\n      jumpi\n        /* \"#utility.yul\":3258:3276   */\n      tag_69\n      tag_31\n      jump\t// in\n    tag_69:\n        /* \"#utility.yul\":3190:3278   */\n    tag_68:\n        /* \"#utility.yul\":3298:3308   */\n      dup1\n        /* \"#utility.yul\":3294:3296   */\n      0x40\n        /* \"#utility.yul\":3287:3309   */\n      mstore\n        /* \"#utility.yul\":3077:3315   */\n      pop\n        /* \"#utility.yul\":3034:3315   */\n      pop\n      pop\n      jump\t// out\n        /* \"#utility.yul\":3321:3450   */\n    tag_33:\n        /* \"#utility.yul\":3355:3361   */\n      0x00\n        /* \"#utility.yul\":3382:3402   */\n      tag_71\n      tag_26\n      jump\t// in\n    tag_71:\n        /* \"#utility.yul\":3372:3402   */\n      swap1\n      pop\n        /* \"#utility.yul\":3411:3444   */\n      tag_72\n        /* \"#utility.yul\":3439:3443   */\n      dup3\n        /* \"#utility.yul\":3431:3437   */\n      dup3\n        /* \"#utility.yul\":3411:3444   */\n      tag_32\n      jump\t// in\n    tag_72:\n        /* \"#utility.yul\":3321:3450   */\n      swap2\n      swap1\n      pop\n      jump\t// out\n        /* \"#utility.yul\":3456:3764   */\n    tag_34:\n        /* \"#utility.yul\":3518:3522   */\n      0x00\n        /* \"#utility.yul\":3608:3626   */\n      0xffffffffffffffff\n        /* \"#utility.yul\":3600:3606   */\n      dup3\n        /* \"#utility.yul\":3597:3627   */\n      gt\n        /* \"#utility.yul\":3594:3650   */\n      iszero\n      tag_74\n      jumpi\n        /* \"#utility.yul\":3630:3648   */\n      tag_75\n      tag_31\n      jump\t// in\n    tag_75:\n        /* \"#utility.yul\":3594:3650   */\n    tag_74:\n        /* \"#utility.yul\":3668:3697   */\n      tag_76\n        /* \"#utility.yul\":3690:3696   */\n      dup3\n        /* \"#utility.yul\":3668:3697   */\n      tag_21\n      jump\t// in\n    tag_76:\n        /* \"#utility.yul\":3660:3697   */\n      swap1\n      pop\n        /* \"#utility.yul\":3752:3756   */\n      0x20\n        /* \"#utility.yul\":3746:3750   */\n      dup2\n        /* \"#utility.yul\":3742:3757   */\n      add\n        /* \"#utility.yul\":3734:3757   */\n      swap1\n      pop\n        /* \"#utility.yul\":3456:3764   */\n      swap2\n      swap1\n      pop\n      jump\t// out\n        /* \"#utility.yul\":3770:4204   */\n    tag_35:\n        /* \"#utility.yul\":3859:3864   */\n      0x00\n        /* \"#utility.yul\":3884:3950   */\n      tag_78\n        /* \"#utility.yul\":3900:3949   */\n      tag_79\n        /* \"#utility.yul\":3942:3948   */\n      dup5\n        /* \"#utility.yul\":3900:3949   */\n      tag_34\n      jump\t// in\n    tag_79:\n        /* \"#utility.yul\":3884:3950   */\n      tag_33\n      jump\t// in\n    tag_78:\n        /* \"#utility.yul\":3875:3950   */\n      swap1\n      pop\n        /* \"#utility.yul\":3973:3979   */\n      dup3\n        /* \"#utility.yul\":3966:3971   */\n      dup2\n        /* \"#utility.yul\":3959:3980   */\n      mstore\n        /* \"#utility.yul\":4011:4015   */\n      0x20\n        /* \"#utility.yul\":4004:4009   */\n      dup2\n        /* \"#utility.yul\":4000:4016   */\n      add\n        /* \"#utility.yul\":4049:4052   */\n      dup5\n        /* \"#utility.yul\":4040:4046   */\n      dup5\n        /* \"#utility.yul\":4035:4038   */\n      dup5\n        /* \"#utility.yul\":4031:4047   */\n      add\n        /* \"#utility.yul\":4028:4053   */\n      gt\n        /* \"#utility.yul\":4025:4137   */\n      iszero\n      tag_80\n      jumpi\n        /* \"#utility.yul\":4056:4135   */\n      tag_81\n      tag_30\n      jump\t// in\n    tag_81:\n        /* \"#utility.yul\":4025:4137   */\n    tag_80:\n        /* \"#utility.yul\":4146:4198   */\n      tag_82\n        /* \"#utility.yul\":4191:4197   */\n      dup5\n        /* \"#utility.yul\":4186:4189   */\n      dup3\n        /* \"#utility.yul\":4181:4184   */\n      dup6\n        /* \"#utility.yul\":4146:4198   */\n      tag_20\n      jump\t// in\n    tag_82:\n        /* \"#utility.yul\":3865:4204   */\n      pop\n        /* \"#utility.yul\":3770:4204   */\n      swap4\n      swap3\n      pop\n      pop\n      pop\n      jump\t// out\n        /* \"#utility.yul\":4224:4579   */\n    tag_36:\n        /* \"#utility.yul\":4291:4296   */\n      0x00\n        /* \"#utility.yul\":4340:4343   */\n      dup3\n        /* \"#utility.yul\":4333:4337   */\n      0x1f\n        /* \"#utility.yul\":4325:4331   */\n      dup4\n        /* \"#utility.yul\":4321:4338   */\n      add\n        /* \"#utility.yul\":4317:4344   */\n      slt\n        /* \"#utility.yul\":4307:4429   */\n      tag_84\n      jumpi\n        /* \"#utility.yul\":4348:4427   */\n      tag_85\n      tag_29\n      jump\t// in\n    tag_85:\n        /* \"#utility.yul\":4307:4429   */\n    tag_84:\n        /* \"#utility.yul\":4458:4464   */\n      dup2\n        /* \"#utility.yul\":4452:4465   */\n      mload\n        /* \"#utility.yul\":4483:4573   */\n      tag_86\n        /* \"#utility.yul\":4569:4572   */\n      dup5\n        /* \"#utility.yul\":4561:4567   */\n      dup3\n        /* \"#utility.yul\":4554:4558   */\n      0x20\n        /* \"#utility.yul\":4546:4552   */\n      dup7\n        /* \"#utility.yul\":4542:4559   */\n      add\n        /* \"#utility.yul\":4483:4573   */\n      tag_35\n      jump\t// in\n    tag_86:\n        /* \"#utility.yul\":4474:4573   */\n      swap2\n      pop\n        /* \"#utility.yul\":4297:4579   */\n      pop\n        /* \"#utility.yul\":4224:4579   */\n      swap3\n      swap2\n      pop\n      pop\n      jump\t// out\n        /* \"#utility.yul\":4585:5109   */\n    tag_16:\n        /* \"#utility.yul\":4665:4671   */\n      0x00\n        /* \"#utility.yul\":4714:4716   */\n      0x20\n        /* \"#utility.yul\":4702:4711   */\n      dup3\n        /* \"#utility.yul\":4693:4700   */\n      dup5\n        /* \"#utility.yul\":4689:4712   */\n      sub\n        /* \"#utility.yul\":4685:4717   */\n      slt\n        /* \"#utility.yul\":4682:4801   */\n      iszero\n      tag_88\n      jumpi\n        /* \"#utility.yul\":4720:4799   */\n      tag_89\n      tag_27\n      jump\t// in\n    tag_89:\n        /* \"#utility.yul\":4682:4801   */\n    tag_88:\n        /* \"#utility.yul\":4861:4862   */\n      0x00\n        /* \"#utility.yul\":4850:4859   */\n      dup3\n        /* \"#utility.yul\":4846:4863   */\n      add\n        /* \"#utility.yul\":4840:4864   */\n      mload\n        /* \"#utility.yul\":4891:4909   */\n      0xffffffffffffffff\n        /* \"#utility.yul\":4883:4889   */\n      dup2\n        /* \"#utility.yul\":4880:4910   */\n      gt\n        /* \"#utility.yul\":4877:4994   */\n      iszero\n      tag_90\n      jumpi\n        /* \"#utility.yul\":4913:4992   */\n      tag_91\n      tag_28\n      jump\t// in\n    tag_91:\n        /* \"#utility.yul\":4877:4994   */\n    tag_90:\n        /* \"#utility.yul\":5018:5092   */\n      tag_92\n        /* \"#utility.yul\":5084:5091   */\n      dup5\n        /* \"#utility.yul\":5075:5081   */\n      dup3\n        /* \"#utility.yul\":5064:5073   */\n      dup6\n        /* \"#utility.yul\":5060:5082   */\n      add\n        /* \"#utility.yul\":5018:5092   */\n      tag_36\n      jump\t// in\n    tag_92:\n        /* \"#utility.yul\":5008:5092   */\n      swap2\n      pop\n        /* \"#utility.yul\":4811:5102   */\n      pop\n        /* \"#utility.yul\":4585:5109   */\n      swap3\n      swap2\n      pop\n      pop\n      jump\t// out\n\n    auxdata: 0xa26469706673582212205904a6697304dd0de87ad6cd415e26140c22e8461cf78e579841309f89f2aba764736f6c63430008120033\n}\n",
				"bytecode": {
					"linkReferences": {},
					"object": "608060405234801561001057600080fd5b506040516105a83803806105a8833981810160405281019061003291906100db565b806000806101000a81548173ffffffffffffffffffffffffffffffffffffffff021916908373ffffffffffffffffffffffffffffffffffffffff16021790555050610108565b600080fd5b600073ffffffffffffffffffffffffffffffffffffffff82169050919050565b60006100a88261007d565b9050919050565b6100b88161009d565b81146100c357600080fd5b50565b6000815190506100d5816100af565b92915050565b6000602082840312156100f1576100f0610078565b5b60006100ff848285016100c6565b91505092915050565b610491806101176000396000f3fe608060405234801561001057600080fd5b506004361061002b5760003560e01c8063366a4a1e14610030575b600080fd5b61003861004e565b6040516100459190610258565b60405180910390f35b606060007f29f4acb0ed8a5b2201afd96e6e3bcbca8f3ea01c1a7ccdacf8c292a92d60067f905060008060008054906101000a900473ffffffffffffffffffffffffffffffffffffffff1673ffffffffffffffffffffffffffffffffffffffff1683604051602401604051602081830303815290604052907bffffffffffffffffffffffffffffffffffffffffffffffffffffffff19166020820180517bffffffffffffffffffffffffffffffffffffffffffffffffffffffff838183161783525050505060405161012091906102c1565b600060405180830381855afa9150503d806000811461015b576040519150601f19603f3d011682016040523d82523d6000602084013e610160565b606091505b50915091508115610189578080602001905181019061017f9190610412565b93505050506101c5565b6040518060400160405280600581526020017f6572726f7200000000000000000000000000000000000000000000000000000081525093505050505b90565b600081519050919050565b600082825260208201905092915050565b60005b838110156102025780820151818401526020810190506101e7565b60008484015250505050565b6000601f19601f8301169050919050565b600061022a826101c8565b61023481856101d3565b93506102448185602086016101e4565b61024d8161020e565b840191505092915050565b60006020820190508181036000830152610272818461021f565b905092915050565b600081519050919050565b600081905092915050565b600061029b8261027a565b6102a58185610285565b93506102b58185602086016101e4565b80840191505092915050565b60006102cd8284610290565b915081905092915050565b6000604051905090565b600080fd5b600080fd5b600080fd5b600080fd5b7f4e487b7100000000000000000000000000000000000000000000000000000000600052604160045260246000fd5b61032e8261020e565b810181811067ffffffffffffffff8211171561034d5761034c6102f6565b5b80604052505050565b60006103606102d8565b905061036c8282610325565b919050565b600067ffffffffffffffff82111561038c5761038b6102f6565b5b6103958261020e565b9050602081019050919050565b60006103b56103b084610371565b610356565b9050828152602081018484840111156103d1576103d06102f1565b5b6103dc8482856101e4565b509392505050565b600082601f8301126103f9576103f86102ec565b5b81516104098482602086016103a2565b91505092915050565b600060208284031215610428576104276102e2565b5b600082015167ffffffffffffffff811115610446576104456102e7565b5b610452848285016103e4565b9150509291505056fea26469706673582212205904a6697304dd0de87ad6cd415e26140c22e8461cf78e579841309f89f2aba764736f6c63430008120033",
					"opcodes": "PUSH1 0x80 PUSH1 0x40 MSTORE CALLVALUE DUP1 ISZERO PUSH2 0x10 JUMPI PUSH1 0x0 DUP1 REVERT JUMPDEST POP PUSH1 0x40 MLOAD PUSH2 0x5A8 CODESIZE SUB DUP1 PUSH2 0x5A8 DUP4 CODECOPY DUP2 DUP2 ADD PUSH1 0x40 MSTORE DUP2 ADD SWAP1 PUSH2 0x32 SWAP2 SWAP1 PUSH2 0xDB JUMP JUMPDEST DUP1 PUSH1 0x0 DUP1 PUSH2 0x100 EXP DUP2 SLOAD DUP2 PUSH20 0xFFFFFFFFFFFFFFFFFFFFFFFFFFFFFFFFFFFFFFFF MUL NOT AND SWAP1 DUP4 PUSH20 0xFFFFFFFFFFFFFFFFFFFFFFFFFFFFFFFFFFFFFFFF AND MUL OR SWAP1 SSTORE POP POP PUSH2 0x108 JUMP JUMPDEST PUSH1 0x0 DUP1 REVERT JUMPDEST PUSH1 0x0 PUSH20 0xFFFFFFFFFFFFFFFFFFFFFFFFFFFFFFFFFFFFFFFF DUP3 AND SWAP1 POP SWAP2 SWAP1 POP JUMP JUMPDEST PUSH1 0x0 PUSH2 0xA8 DUP3 PUSH2 0x7D JUMP JUMPDEST SWAP1 POP SWAP2 SWAP1 POP JUMP JUMPDEST PUSH2 0xB8 DUP2 PUSH2 0x9D JUMP JUMPDEST DUP2 EQ PUSH2 0xC3 JUMPI PUSH1 0x0 DUP1 REVERT JUMPDEST POP JUMP JUMPDEST PUSH1 0x0 DUP2 MLOAD SWAP1 POP PUSH2 0xD5 DUP2 PUSH2 0xAF JUMP JUMPDEST SWAP3 SWAP2 POP POP JUMP JUMPDEST PUSH1 0x0 PUSH1 0x20 DUP3 DUP5 SUB SLT ISZERO PUSH2 0xF1 JUMPI PUSH2 0xF0 PUSH2 0x78 JUMP JUMPDEST JUMPDEST PUSH1 0x0 PUSH2 0xFF DUP5 DUP3 DUP6 ADD PUSH2 0xC6 JUMP JUMPDEST SWAP2 POP POP SWAP3 SWAP2 POP POP JUMP JUMPDEST PUSH2 0x491 DUP1 PUSH2 0x117 PUSH1 0x0 CODECOPY PUSH1 0x0 RETURN INVALID PUSH1 0x80 PUSH1 0x40 MSTORE CALLVALUE DUP1 ISZERO PUSH2 0x10 JUMPI PUSH1 0x0 DUP1 REVERT JUMPDEST POP PUSH1 0x4 CALLDATASIZE LT PUSH2 0x2B JUMPI PUSH1 0x0 CALLDATALOAD PUSH1 0xE0 SHR DUP1 PUSH4 0x366A4A1E EQ PUSH2 0x30 JUMPI JUMPDEST PUSH1 0x0 DUP1 REVERT JUMPDEST PUSH2 0x38 PUSH2 0x4E JUMP JUMPDEST PUSH1 0x40 MLOAD PUSH2 0x45 SWAP2 SWAP1 PUSH2 0x258 JUMP JUMPDEST PUSH1 0x40 MLOAD DUP1 SWAP2 SUB SWAP1 RETURN JUMPDEST PUSH1 0x60 PUSH1 0x0 PUSH32 0x29F4ACB0ED8A5B2201AFD96E6E3BCBCA8F3EA01C1A7CCDACF8C292A92D60067F SWAP1 POP PUSH1 0x0 DUP1 PUSH1 0x0 DUP1 SLOAD SWAP1 PUSH2 0x100 EXP SWAP1 DIV PUSH20 0xFFFFFFFFFFFFFFFFFFFFFFFFFFFFFFFFFFFFFFFF AND PUSH20 0xFFFFFFFFFFFFFFFFFFFFFFFFFFFFFFFFFFFFFFFF AND DUP4 PUSH1 0x40 MLOAD PUSH1 0x24 ADD PUSH1 0x40 MLOAD PUSH1 0x20 DUP2 DUP4 SUB SUB DUP2 MSTORE SWAP1 PUSH1 0x40 MSTORE SWAP1 PUSH28 0xFFFFFFFFFFFFFFFFFFFFFFFFFFFFFFFFFFFFFFFFFFFFFFFFFFFFFFFF NOT AND PUSH1 0x20 DUP3 ADD DUP1 MLOAD PUSH28 0xFFFFFFFFFFFFFFFFFFFFFFFFFFFFFFFFFFFFFFFFFFFFFFFFFFFFFFFF DUP4 DUP2 DUP4 AND OR DUP4 MSTORE POP POP POP POP PUSH1 0x40 MLOAD PUSH2 0x120 SWAP2 SWAP1 PUSH2 0x2C1 JUMP JUMPDEST PUSH1 0x0 PUSH1 0x40 MLOAD DUP1 DUP4 SUB DUP2 DUP6 GAS STATICCALL SWAP2 POP POP RETURNDATASIZE DUP1 PUSH1 0x0 DUP2 EQ PUSH2 0x15B JUMPI PUSH1 0x40 MLOAD SWAP2 POP PUSH1 0x1F NOT PUSH1 0x3F RETURNDATASIZE ADD AND DUP3 ADD PUSH1 0x40 MSTORE RETURNDATASIZE DUP3 MSTORE RETURNDATASIZE PUSH1 0x0 PUSH1 0x20 DUP5 ADD RETURNDATACOPY PUSH2 0x160 JUMP JUMPDEST PUSH1 0x60 SWAP2 POP JUMPDEST POP SWAP2 POP SWAP2 POP DUP2 ISZERO PUSH2 0x189 JUMPI DUP1 DUP1 PUSH1 0x20 ADD SWAP1 MLOAD DUP2 ADD SWAP1 PUSH2 0x17F SWAP2 SWAP1 PUSH2 0x412 JUMP JUMPDEST SWAP4 POP POP POP POP PUSH2 0x1C5 JUMP JUMPDEST PUSH1 0x40 MLOAD DUP1 PUSH1 0x40 ADD PUSH1 0x40 MSTORE DUP1 PUSH1 0x5 DUP2 MSTORE PUSH1 0x20 ADD PUSH32 0x6572726F72000000000000000000000000000000000000000000000000000000 DUP2 MSTORE POP SWAP4 POP POP POP POP JUMPDEST SWAP1 JUMP JUMPDEST PUSH1 0x0 DUP2 MLOAD SWAP1 POP SWAP2 SWAP1 POP JUMP JUMPDEST PUSH1 0x0 DUP3 DUP3 MSTORE PUSH1 0x20 DUP3 ADD SWAP1 POP SWAP3 SWAP2 POP POP JUMP JUMPDEST PUSH1 0x0 JUMPDEST DUP4 DUP2 LT ISZERO PUSH2 0x202 JUMPI DUP1 DUP3 ADD MLOAD DUP2 DUP5 ADD MSTORE PUSH1 0x20 DUP2 ADD SWAP1 POP PUSH2 0x1E7 JUMP JUMPDEST PUSH1 0x0 DUP5 DUP5 ADD MSTORE POP POP POP POP JUMP JUMPDEST PUSH1 0x0 PUSH1 0x1F NOT PUSH1 0x1F DUP4 ADD AND SWAP1 POP SWAP2 SWAP1 POP JUMP JUMPDEST PUSH1 0x0 PUSH2 0x22A DUP3 PUSH2 0x1C8 JUMP JUMPDEST PUSH2 0x234 DUP2 DUP6 PUSH2 0x1D3 JUMP JUMPDEST SWAP4 POP PUSH2 0x244 DUP2 DUP6 PUSH1 0x20 DUP7 ADD PUSH2 0x1E4 JUMP JUMPDEST PUSH2 0x24D DUP2 PUSH2 0x20E JUMP JUMPDEST DUP5 ADD SWAP2 POP POP SWAP3 SWAP2 POP POP JUMP JUMPDEST PUSH1 0x0 PUSH1 0x20 DUP3 ADD SWAP1 POP DUP2 DUP2 SUB PUSH1 0x0 DUP4 ADD MSTORE PUSH2 0x272 DUP2 DUP5 PUSH2 0x21F JUMP JUMPDEST SWAP1 POP SWAP3 SWAP2 POP POP JUMP JUMPDEST PUSH1 0x0 DUP2 MLOAD SWAP1 POP SWAP2 SWAP1 POP JUMP JUMPDEST PUSH1 0x0 DUP2 SWAP1 POP SWAP3 SWAP2 POP POP JUMP JUMPDEST PUSH1 0x0 PUSH2 0x29B DUP3 PUSH2 0x27A JUMP JUMPDEST PUSH2 0x2A5 DUP2 DUP6 PUSH2 0x285 JUMP JUMPDEST SWAP4 POP PUSH2 0x2B5 DUP2 DUP6 PUSH1 0x20 DUP7 ADD PUSH2 0x1E4 JUMP JUMPDEST DUP1 DUP5 ADD SWAP2 POP POP SWAP3 SWAP2 POP POP JUMP JUMPDEST PUSH1 0x0 PUSH2 0x2CD DUP3 DUP5 PUSH2 0x290 JUMP JUMPDEST SWAP2 POP DUP2 SWAP1 POP SWAP3 SWAP2 POP POP JUMP JUMPDEST PUSH1 0x0 PUSH1 0x40 MLOAD SWAP1 POP SWAP1 JUMP JUMPDEST PUSH1 0x0 DUP1 REVERT JUMPDEST PUSH1 0x0 DUP1 REVERT JUMPDEST PUSH1 0x0 DUP1 REVERT JUMPDEST PUSH1 0x0 DUP1 REVERT JUMPDEST PUSH32 0x4E487B7100000000000000000000000000000000000000000000000000000000 PUSH1 0x0 MSTORE PUSH1 0x41 PUSH1 0x4 MSTORE PUSH1 0x24 PUSH1 0x0 REVERT JUMPDEST PUSH2 0x32E DUP3 PUSH2 0x20E JUMP JUMPDEST DUP2 ADD DUP2 DUP2 LT PUSH8 0xFFFFFFFFFFFFFFFF DUP3 GT OR ISZERO PUSH2 0x34D JUMPI PUSH2 0x34C PUSH2 0x2F6 JUMP JUMPDEST JUMPDEST DUP1 PUSH1 0x40 MSTORE POP POP POP JUMP JUMPDEST PUSH1 0x0 PUSH2 0x360 PUSH2 0x2D8 JUMP JUMPDEST SWAP1 POP PUSH2 0x36C DUP3 DUP3 PUSH2 0x325 JUMP JUMPDEST SWAP2 SWAP1 POP JUMP JUMPDEST PUSH1 0x0 PUSH8 0xFFFFFFFFFFFFFFFF DUP3 GT ISZERO PUSH2 0x38C JUMPI PUSH2 0x38B PUSH2 0x2F6 JUMP JUMPDEST JUMPDEST PUSH2 0x395 DUP3 PUSH2 0x20E JUMP JUMPDEST SWAP1 POP PUSH1 0x20 DUP2 ADD SWAP1 POP SWAP2 SWAP1 POP JUMP JUMPDEST PUSH1 0x0 PUSH2 0x3B5 PUSH2 0x3B0 DUP5 PUSH2 0x371 JUMP JUMPDEST PUSH2 0x356 JUMP JUMPDEST SWAP1 POP DUP3 DUP2 MSTORE PUSH1 0x20 DUP2 ADD DUP5 DUP5 DUP5 ADD GT ISZERO PUSH2 0x3D1 JUMPI PUSH2 0x3D0 PUSH2 0x2F1 JUMP JUMPDEST JUMPDEST PUSH2 0x3DC DUP5 DUP3 DUP6 PUSH2 0x1E4 JUMP JUMPDEST POP SWAP4 SWAP3 POP POP POP JUMP JUMPDEST PUSH1 0x0 DUP3 PUSH1 0x1F DUP4 ADD SLT PUSH2 0x3F9 JUMPI PUSH2 0x3F8 PUSH2 0x2EC JUMP JUMPDEST JUMPDEST DUP2 MLOAD PUSH2 0x409 DUP5 DUP3 PUSH1 0x20 DUP7 ADD PUSH2 0x3A2 JUMP JUMPDEST SWAP2 POP POP SWAP3 SWAP2 POP POP JUMP JUMPDEST PUSH1 0x0 PUSH1 0x20 DUP3 DUP5 SUB SLT ISZERO PUSH2 0x428 JUMPI PUSH2 0x427 PUSH2 0x2E2 JUMP JUMPDEST JUMPDEST PUSH1 0x0 DUP3 ADD MLOAD PUSH8 0xFFFFFFFFFFFFFFFF DUP2 GT ISZERO PUSH2 0x446 JUMPI PUSH2 0x445 PUSH2 0x2E7 JUMP JUMPDEST JUMPDEST PUSH2 0x452 DUP5 DUP3 DUP6 ADD PUSH2 0x3E4 JUMP JUMPDEST SWAP2 POP POP SWAP3 SWAP2 POP POP JUMP INVALID LOG2 PUSH5 0x6970667358 0x22 SLT KECCAK256 MSIZE DIV 0xA6 PUSH10 0x7304DD0DE87AD6CD415E 0x26 EQ 0xC 0x22 0xE8 CHAINID SHR 0xF7 DUP15 JUMPI SWAP9 COINBASE ADDRESS SWAP16 DUP10 CALLCODE 0xAB 0xA7 PUSH5 0x736F6C6343 STOP ADDMOD SLT STOP CALLER "
				},
				"gasEstimates": {
					"creation": {
						"codeDepositCost": "233800",
						"executionCost": "infinite",
						"totalCost": "infinite"
					},
					"external": {
						"callFallback()": "infinite"
					}
				},
				"methodIdentifiers": {
					"callFallback()": "366a4a1e"
				}
			},
			"storageLayout": {
				"storage": [
					{
						"astId": 16,
						"contract": "fallback/FallbackTest.sol:SolidityTest",
						"label": "fb",
						"offset": 0,
						"slot": "0",
						"type": "t_address"
					}
				],
				"types": {
					"t_address": {
						"encoding": "inplace",
						"label": "address",
						"numberOfBytes": "20"
					}
				}
			},
			"userdoc": {
				"kind": "user",
				"methods": {},
				"version": 1
			}
		}
	}
}